{"@openzeppelin/contracts/access/manager/AccessManager.sol":{"AccessManager":{"abi":[{"inputs":[{"internalType":"address","name":"initialAdmin","type":"address"}],"stateMutability":"nonpayable","type":"constructor"},{"inputs":[{"internalType":"bytes32","name":"operationId","type":"bytes32"}],"name":"AccessManagerAlreadyScheduled","type":"error"},{"inputs":[],"name":"AccessManagerBadConfirmation","type":"error"},{"inputs":[{"internalType":"bytes32","name":"operationId","type":"bytes32"}],"name":"AccessManagerExpired","type":"error"},{"inputs":[{"internalType":"address","name":"initialAdmin","type":"address"}],"name":"AccessManagerInvalidInitialAdmin","type":"error"},{"inputs":[{"internalType":"address","name":"account","type":"address"}],"name":"AccessManagerLockedAccount","type":"error"},{"inputs":[{"internalType":"uint64","name":"roleId","type":"uint64"}],"name":"AccessManagerLockedRole","type":"error"},{"inputs":[{"internalType":"bytes32","name":"operationId","type":"bytes32"}],"name":"AccessManagerNotReady","type":"error"},{"inputs":[{"internalType":"bytes32","name":"operationId","type":"bytes32"}],"name":"AccessManagerNotScheduled","type":"error"},{"inputs":[{"internalType":"address","name":"msgsender","type":"address"},{"internalType":"uint64","name":"roleId","type":"uint64"}],"name":"AccessManagerUnauthorizedAccount","type":"error"},{"inputs":[{"internalType":"address","name":"caller","type":"address"},{"internalType":"address","name":"target","type":"address"},{"internalType":"bytes4","name":"selector","type":"bytes4"}],"name":"AccessManagerUnauthorizedCall","type":"error"},{"inputs":[{"internalType":"address","name":"msgsender","type":"address"},{"internalType":"address","name":"caller","type":"address"},{"internalType":"address","name":"target","type":"address"},{"internalType":"bytes4","name":"selector","type":"bytes4"}],"name":"AccessManagerUnauthorizedCancel","type":"error"},{"inputs":[{"internalType":"address","name":"target","type":"address"}],"name":"AccessManagerUnauthorizedConsume","type":"error"},{"inputs":[{"internalType":"address","name":"target","type":"address"}],"name":"AddressEmptyCode","type":"error"},{"inputs":[{"internalType":"address","name":"account","type":"address"}],"name":"AddressInsufficientBalance","type":"error"},{"inputs":[],"name":"FailedInnerCall","type":"error"},{"inputs":[{"internalType":"uint8","name":"bits","type":"uint8"},{"internalType":"uint256","name":"value","type":"uint256"}],"name":"SafeCastOverflowedUintDowncast","type":"error"},{"anonymous":false,"inputs":[{"indexed":true,"internalType":"bytes32","name":"operationId","type":"bytes32"},{"indexed":true,"internalType":"uint32","name":"nonce","type":"uint32"}],"name":"OperationCanceled","type":"event"},{"anonymous":false,"inputs":[{"indexed":true,"internalType":"bytes32","name":"operationId","type":"bytes32"},{"indexed":true,"internalType":"uint32","name":"nonce","type":"uint32"}],"name":"OperationExecuted","type":"event"},{"anonymous":false,"inputs":[{"indexed":true,"internalType":"bytes32","name":"operationId","type":"bytes32"},{"indexed":true,"internalType":"uint32","name":"nonce","type":"uint32"},{"indexed":false,"internalType":"uint48","name":"schedule","type":"uint48"},{"indexed":false,"internalType":"address","name":"caller","type":"address"},{"indexed":false,"internalType":"address","name":"target","type":"address"},{"indexed":false,"internalType":"bytes","name":"data","type":"bytes"}],"name":"OperationScheduled","type":"event"},{"anonymous":false,"inputs":[{"indexed":true,"internalType":"uint64","name":"roleId","type":"uint64"},{"indexed":true,"internalType":"uint64","name":"admin","type":"uint64"}],"name":"RoleAdminChanged","type":"event"},{"anonymous":false,"inputs":[{"indexed":true,"internalType":"uint64","name":"roleId","type":"uint64"},{"indexed":false,"internalType":"uint32","name":"delay","type":"uint32"},{"indexed":false,"internalType":"uint48","name":"since","type":"uint48"}],"name":"RoleGrantDelayChanged","type":"event"},{"anonymous":false,"inputs":[{"indexed":true,"internalType":"uint64","name":"roleId","type":"uint64"},{"indexed":true,"internalType":"address","name":"account","type":"address"},{"indexed":false,"internalType":"uint32","name":"delay","type":"uint32"},{"indexed":false,"internalType":"uint48","name":"since","type":"uint48"},{"indexed":false,"internalType":"bool","name":"newMember","type":"bool"}],"name":"RoleGranted","type":"event"},{"anonymous":false,"inputs":[{"indexed":true,"internalType":"uint64","name":"roleId","type":"uint64"},{"indexed":true,"internalType":"uint64","name":"guardian","type":"uint64"}],"name":"RoleGuardianChanged","type":"event"},{"anonymous":false,"inputs":[{"indexed":true,"internalType":"uint64","name":"roleId","type":"uint64"},{"indexed":false,"internalType":"string","name":"label","type":"string"}],"name":"RoleLabel","type":"event"},{"anonymous":false,"inputs":[{"indexed":true,"internalType":"uint64","name":"roleId","type":"uint64"},{"indexed":true,"internalType":"address","name":"account","type":"address"}],"name":"RoleRevoked","type":"event"},{"anonymous":false,"inputs":[{"indexed":true,"internalType":"address","name":"target","type":"address"},{"indexed":false,"internalType":"uint32","name":"delay","type":"uint32"},{"indexed":false,"internalType":"uint48","name":"since","type":"uint48"}],"name":"TargetAdminDelayUpdated","type":"event"},{"anonymous":false,"inputs":[{"indexed":true,"internalType":"address","name":"target","type":"address"},{"indexed":false,"internalType":"bool","name":"closed","type":"bool"}],"name":"TargetClosed","type":"event"},{"anonymous":false,"inputs":[{"indexed":true,"internalType":"address","name":"target","type":"address"},{"indexed":false,"internalType":"bytes4","name":"selector","type":"bytes4"},{"indexed":true,"internalType":"uint64","name":"roleId","type":"uint64"}],"name":"TargetFunctionRoleUpdated","type":"event"},{"inputs":[],"name":"ADMIN_ROLE","outputs":[{"internalType":"uint64","name":"","type":"uint64"}],"stateMutability":"view","type":"function"},{"inputs":[],"name":"PUBLIC_ROLE","outputs":[{"internalType":"uint64","name":"","type":"uint64"}],"stateMutability":"view","type":"function"},{"inputs":[{"internalType":"address","name":"caller","type":"address"},{"internalType":"address","name":"target","type":"address"},{"internalType":"bytes4","name":"selector","type":"bytes4"}],"name":"canCall","outputs":[{"internalType":"bool","name":"immediate","type":"bool"},{"internalType":"uint32","name":"delay","type":"uint32"}],"stateMutability":"view","type":"function"},{"inputs":[{"internalType":"address","name":"caller","type":"address"},{"internalType":"address","name":"target","type":"address"},{"internalType":"bytes","name":"data","type":"bytes"}],"name":"cancel","outputs":[{"internalType":"uint32","name":"","type":"uint32"}],"stateMutability":"nonpayable","type":"function"},{"inputs":[{"internalType":"address","name":"caller","type":"address"},{"internalType":"bytes","name":"data","type":"bytes"}],"name":"consumeScheduledOp","outputs":[],"stateMutability":"nonpayable","type":"function"},{"inputs":[{"internalType":"address","name":"target","type":"address"},{"internalType":"bytes","name":"data","type":"bytes"}],"name":"execute","outputs":[{"internalType":"uint32","name":"","type":"uint32"}],"stateMutability":"payable","type":"function"},{"inputs":[],"name":"expiration","outputs":[{"internalType":"uint32","name":"","type":"uint32"}],"stateMutability":"view","type":"function"},{"inputs":[{"internalType":"uint64","name":"roleId","type":"uint64"},{"internalType":"address","name":"account","type":"address"}],"name":"getAccess","outputs":[{"internalType":"uint48","name":"since","type":"uint48"},{"internalType":"uint32","name":"currentDelay","type":"uint32"},{"internalType":"uint32","name":"pendingDelay","type":"uint32"},{"internalType":"uint48","name":"effect","type":"uint48"}],"stateMutability":"view","type":"function"},{"inputs":[{"internalType":"bytes32","name":"id","type":"bytes32"}],"name":"getNonce","outputs":[{"internalType":"uint32","name":"","type":"uint32"}],"stateMutability":"view","type":"function"},{"inputs":[{"internalType":"uint64","name":"roleId","type":"uint64"}],"name":"getRoleAdmin","outputs":[{"internalType":"uint64","name":"","type":"uint64"}],"stateMutability":"view","type":"function"},{"inputs":[{"internalType":"uint64","name":"roleId","type":"uint64"}],"name":"getRoleGrantDelay","outputs":[{"internalType":"uint32","name":"","type":"uint32"}],"stateMutability":"view","type":"function"},{"inputs":[{"internalType":"uint64","name":"roleId","type":"uint64"}],"name":"getRoleGuardian","outputs":[{"internalType":"uint64","name":"","type":"uint64"}],"stateMutability":"view","type":"function"},{"inputs":[{"internalType":"bytes32","name":"id","type":"bytes32"}],"name":"getSchedule","outputs":[{"internalType":"uint48","name":"","type":"uint48"}],"stateMutability":"view","type":"function"},{"inputs":[{"internalType":"address","name":"target","type":"address"}],"name":"getTargetAdminDelay","outputs":[{"internalType":"uint32","name":"","type":"uint32"}],"stateMutability":"view","type":"function"},{"inputs":[{"internalType":"address","name":"target","type":"address"},{"internalType":"bytes4","name":"selector","type":"bytes4"}],"name":"getTargetFunctionRole","outputs":[{"internalType":"uint64","name":"","type":"uint64"}],"stateMutability":"view","type":"function"},{"inputs":[{"internalType":"uint64","name":"roleId","type":"uint64"},{"internalType":"address","name":"account","type":"address"},{"internalType":"uint32","name":"executionDelay","type":"uint32"}],"name":"grantRole","outputs":[],"stateMutability":"nonpayable","type":"function"},{"inputs":[{"internalType":"uint64","name":"roleId","type":"uint64"},{"internalType":"address","name":"account","type":"address"}],"name":"hasRole","outputs":[{"internalType":"bool","name":"isMember","type":"bool"},{"internalType":"uint32","name":"executionDelay","type":"uint32"}],"stateMutability":"view","type":"function"},{"inputs":[{"internalType":"address","name":"caller","type":"address"},{"internalType":"address","name":"target","type":"address"},{"internalType":"bytes","name":"data","type":"bytes"}],"name":"hashOperation","outputs":[{"internalType":"bytes32","name":"","type":"bytes32"}],"stateMutability":"view","type":"function"},{"inputs":[{"internalType":"address","name":"target","type":"address"}],"name":"isTargetClosed","outputs":[{"internalType":"bool","name":"","type":"bool"}],"stateMutability":"view","type":"function"},{"inputs":[{"internalType":"uint64","name":"roleId","type":"uint64"},{"internalType":"string","name":"label","type":"string"}],"name":"labelRole","outputs":[],"stateMutability":"nonpayable","type":"function"},{"inputs":[],"name":"minSetback","outputs":[{"internalType":"uint32","name":"","type":"uint32"}],"stateMutability":"view","type":"function"},{"inputs":[{"internalType":"bytes[]","name":"data","type":"bytes[]"}],"name":"multicall","outputs":[{"internalType":"bytes[]","name":"results","type":"bytes[]"}],"stateMutability":"nonpayable","type":"function"},{"inputs":[{"internalType":"uint64","name":"roleId","type":"uint64"},{"internalType":"address","name":"callerConfirmation","type":"address"}],"name":"renounceRole","outputs":[],"stateMutability":"nonpayable","type":"function"},{"inputs":[{"internalType":"uint64","name":"roleId","type":"uint64"},{"internalType":"address","name":"account","type":"address"}],"name":"revokeRole","outputs":[],"stateMutability":"nonpayable","type":"function"},{"inputs":[{"internalType":"address","name":"target","type":"address"},{"internalType":"bytes","name":"data","type":"bytes"},{"internalType":"uint48","name":"when","type":"uint48"}],"name":"schedule","outputs":[{"internalType":"bytes32","name":"operationId","type":"bytes32"},{"internalType":"uint32","name":"nonce","type":"uint32"}],"stateMutability":"nonpayable","type":"function"},{"inputs":[{"internalType":"uint64","name":"roleId","type":"uint64"},{"internalType":"uint32","name":"newDelay","type":"uint32"}],"name":"setGrantDelay","outputs":[],"stateMutability":"nonpayable","type":"function"},{"inputs":[{"internalType":"uint64","name":"roleId","type":"uint64"},{"internalType":"uint64","name":"admin","type":"uint64"}],"name":"setRoleAdmin","outputs":[],"stateMutability":"nonpayable","type":"function"},{"inputs":[{"internalType":"uint64","name":"roleId","type":"uint64"},{"internalType":"uint64","name":"guardian","type":"uint64"}],"name":"setRoleGuardian","outputs":[],"stateMutability":"nonpayable","type":"function"},{"inputs":[{"internalType":"address","name":"target","type":"address"},{"internalType":"uint32","name":"newDelay","type":"uint32"}],"name":"setTargetAdminDelay","outputs":[],"stateMutability":"nonpayable","type":"function"},{"inputs":[{"internalType":"address","name":"target","type":"address"},{"internalType":"bool","name":"closed","type":"bool"}],"name":"setTargetClosed","outputs":[],"stateMutability":"nonpayable","type":"function"},{"inputs":[{"internalType":"address","name":"target","type":"address"},{"internalType":"bytes4[]","name":"selectors","type":"bytes4[]"},{"internalType":"uint64","name":"roleId","type":"uint64"}],"name":"setTargetFunctionRole","outputs":[],"stateMutability":"nonpayable","type":"function"},{"inputs":[{"internalType":"address","name":"target","type":"address"},{"internalType":"address","name":"newAuthority","type":"address"}],"name":"updateAuthority","outputs":[],"stateMutability":"nonpayable","type":"function"}],"devdoc":{"details":"AccessManager is a central contract to store the permissions of a system. A smart contract under the control of an AccessManager instance is known as a target, and will inherit from the {AccessManaged} contract, be connected to this contract as its manager and implement the {AccessManaged-restricted} modifier on a set of functions selected to be permissioned. Note that any function without this setup won't be effectively restricted. The restriction rules for such functions are defined in terms of \"roles\" identified by an `uint64` and scoped by target (`address`) and function selectors (`bytes4`). These roles are stored in this contract and can be configured by admins (`ADMIN_ROLE` members) after a delay (see {getTargetAdminDelay}). For each target contract, admins can configure the following without any delay: * The target's {AccessManaged-authority} via {updateAuthority}. * Close or open a target via {setTargetClosed} keeping the permissions intact. * The roles that are allowed (or disallowed) to call a given function (identified by its selector) through {setTargetFunctionRole}. By default every address is member of the `PUBLIC_ROLE` and every target function is restricted to the `ADMIN_ROLE` until configured otherwise. Additionally, each role has the following configuration options restricted to this manager's admins: * A role's admin role via {setRoleAdmin} who can grant or revoke roles. * A role's guardian role via {setRoleGuardian} who's allowed to cancel operations. * A delay in which a role takes effect after being granted through {setGrantDelay}. * A delay of any target's admin action via {setTargetAdminDelay}. * A role label for discoverability purposes with {labelRole}. Any account can be added and removed into any number of these roles by using the {grantRole} and {revokeRole} functions restricted to each role's admin (see {getRoleAdmin}). Since all the permissions of the managed system can be modified by the admins of this instance, it is expected that they will be highly secured (e.g., a multisig or a well-configured DAO). NOTE: This contract implements a form of the {IAuthority} interface, but {canCall} has additional return data so it doesn't inherit `IAuthority`. It is however compatible with the `IAuthority` interface since the first 32 bytes of the return data are a boolean as expected by that interface. NOTE: Systems that implement other access control mechanisms (for example using {Ownable}) can be paired with an {AccessManager} by transferring permissions (ownership in the case of {Ownable}) directly to the {AccessManager}. Users will be able to interact with these contracts through the {execute} function, following the access rules registered in the {AccessManager}. Keep in mind that in that context, the msg.sender seen by restricted functions will be {AccessManager} itself. WARNING: When granting permissions over an {Ownable} or {AccessControl} contract to an {AccessManager}, be very mindful of the danger associated with functions such as {{Ownable-renounceOwnership}} or {{AccessControl-renounceRole}}.","errors":{"AddressEmptyCode(address)":[{"details":"There's no code at `target` (it is not a contract)."}],"AddressInsufficientBalance(address)":[{"details":"The ETH balance of the account is not enough to perform the operation."}],"FailedInnerCall()":[{"details":"A call to an address target failed. The target may have reverted."}],"SafeCastOverflowedUintDowncast(uint8,uint256)":[{"details":"Value doesn't fit in an uint of `bits` size."}]},"events":{"OperationCanceled(bytes32,uint32)":{"details":"A scheduled operation was canceled."},"OperationExecuted(bytes32,uint32)":{"details":"A scheduled operation was executed."},"OperationScheduled(bytes32,uint32,uint48,address,address,bytes)":{"details":"A delayed operation was scheduled."},"RoleAdminChanged(uint64,uint64)":{"details":"Role acting as admin over a given `roleId` is updated."},"RoleGrantDelayChanged(uint64,uint32,uint48)":{"details":"Grant delay for a given `roleId` will be updated to `delay` when `since` is reached."},"RoleGranted(uint64,address,uint32,uint48,bool)":{"details":"Emitted when `account` is granted `roleId`. NOTE: The meaning of the `since` argument depends on the `newMember` argument. If the role is granted to a new member, the `since` argument indicates when the account becomes a member of the role, otherwise it indicates the execution delay for this account and roleId is updated."},"RoleGuardianChanged(uint64,uint64)":{"details":"Role acting as guardian over a given `roleId` is updated."},"RoleLabel(uint64,string)":{"details":"Informational labelling for a roleId."},"RoleRevoked(uint64,address)":{"details":"Emitted when `account` membership or `roleId` is revoked. Unlike granting, revoking is instantaneous."},"TargetAdminDelayUpdated(address,uint32,uint48)":{"details":"Admin delay for a given `target` will be updated to `delay` when `since` is reached."},"TargetClosed(address,bool)":{"details":"Target mode is updated (true = closed, false = open)."},"TargetFunctionRoleUpdated(address,bytes4,uint64)":{"details":"Role required to invoke `selector` on `target` is updated to `roleId`."}},"kind":"dev","methods":{"canCall(address,address,bytes4)":{"details":"Check if an address (`caller`) is authorised to call a given function on a given contract directly (with no restriction). Additionally, it returns the delay needed to perform the call indirectly through the {schedule} & {execute} workflow. This function is usually called by the targeted contract to control immediate execution of restricted functions. Therefore we only return true if the call can be performed without any delay. If the call is subject to a previously set delay (not zero), then the function should return false and the caller should schedule the operation for future execution. If `immediate` is true, the delay can be disregarded and the operation can be immediately executed, otherwise the operation can be executed if and only if delay is greater than 0. NOTE: The IAuthority interface does not include the `uint32` delay. This is an extension of that interface that is backward compatible. Some contracts may thus ignore the second return argument. In that case they will fail to identify the indirect workflow, and will consider calls that require a delay to be forbidden. NOTE: This function does not report the permissions of this manager itself. These are defined by the {_canCallSelf} function instead."},"cancel(address,address,bytes)":{"details":"Cancel a scheduled (delayed) operation. Returns the nonce that identifies the previously scheduled operation that is cancelled. Requirements: - the caller must be the proposer, a guardian of the targeted function, or a global admin Emits a {OperationCanceled} event."},"consumeScheduledOp(address,bytes)":{"details":"Consume a scheduled operation targeting the caller. If such an operation exists, mark it as consumed (emit an {OperationExecuted} event and clean the state). Otherwise, throw an error. This is useful for contract that want to enforce that calls targeting them were scheduled on the manager, with all the verifications that it implies. Emit a {OperationExecuted} event."},"execute(address,bytes)":{"details":"Execute a function that is delay restricted, provided it was properly scheduled beforehand, or the execution delay is 0. Returns the nonce that identifies the previously scheduled operation that is executed, or 0 if the operation wasn't previously scheduled (if the caller doesn't have an execution delay). Emits an {OperationExecuted} event only if the call was scheduled and delayed."},"expiration()":{"details":"Expiration delay for scheduled proposals. Defaults to 1 week. IMPORTANT: Avoid overriding the expiration with 0. Otherwise every contract proposal will be expired immediately, disabling any scheduling usage."},"getAccess(uint64,address)":{"details":"Get the access details for a given account for a given role. These details include the timepoint at which membership becomes active, and the delay applied to all operation by this user that requires this permission level. Returns: [0] Timestamp at which the account membership becomes valid. 0 means role is not granted. [1] Current execution delay for the account. [2] Pending execution delay for the account. [3] Timestamp at which the pending execution delay will become active. 0 means no delay update is scheduled."},"getNonce(bytes32)":{"details":"Return the nonce for the latest scheduled operation with a given id. Returns 0 if the operation has never been scheduled."},"getRoleAdmin(uint64)":{"details":"Get the id of the role that acts as an admin for the given role. The admin permission is required to grant the role, revoke the role and update the execution delay to execute an operation that is restricted to this role."},"getRoleGrantDelay(uint64)":{"details":"Get the role current grant delay. Its value may change at any point without an event emitted following a call to {setGrantDelay}. Changes to this value, including effect timepoint are notified in advance by the {RoleGrantDelayChanged} event."},"getRoleGuardian(uint64)":{"details":"Get the role that acts as a guardian for a given role. The guardian permission allows canceling operations that have been scheduled under the role."},"getSchedule(bytes32)":{"details":"Return the timepoint at which a scheduled operation will be ready for execution. This returns 0 if the operation is not yet scheduled, has expired, was executed, or was canceled."},"getTargetAdminDelay(address)":{"details":"Get the admin delay for a target contract. Changes to contract configuration are subject to this delay."},"getTargetFunctionRole(address,bytes4)":{"details":"Get the role required to call a function."},"grantRole(uint64,address,uint32)":{"details":"Add `account` to `roleId`, or change its execution delay. This gives the account the authorization to call any function that is restricted to this role. An optional execution delay (in seconds) can be set. If that delay is non 0, the user is required to schedule any operation that is restricted to members of this role. The user will only be able to execute the operation after the delay has passed, before it has expired. During this period, admin and guardians can cancel the operation (see {cancel}). If the account has already been granted this role, the execution delay will be updated. This update is not immediate and follows the delay rules. For example, if a user currently has a delay of 3 hours, and this is called to reduce that delay to 1 hour, the new delay will take some time to take effect, enforcing that any operation executed in the 3 hours that follows this update was indeed scheduled before this update. Requirements: - the caller must be an admin for the role (see {getRoleAdmin}) - granted role must not be the `PUBLIC_ROLE` Emits a {RoleGranted} event."},"hasRole(uint64,address)":{"details":"Check if a given account currently has the permission level corresponding to a given role. Note that this permission might be associated with an execution delay. {getAccess} can provide more details."},"hashOperation(address,address,bytes)":{"details":"Hashing function for delayed operations."},"isTargetClosed(address)":{"details":"Get whether the contract is closed disabling any access. Otherwise role permissions are applied."},"labelRole(uint64,string)":{"details":"Give a label to a role, for improved role discoverability by UIs. Requirements: - the caller must be a global admin Emits a {RoleLabel} event."},"minSetback()":{"details":"Minimum setback for all delay updates, with the exception of execution delays. It can be increased without setback (and reset via {revokeRole} in the case event of an accidental increase). Defaults to 5 days."},"multicall(bytes[])":{"custom:oz-upgrades-unsafe-allow-reachable":"delegatecall","details":"Receives and executes a batch of function calls on this contract."},"renounceRole(uint64,address)":{"details":"Renounce role permissions for the calling account with immediate effect. If the sender is not in the role this call has no effect. Requirements: - the caller must be `callerConfirmation`. Emits a {RoleRevoked} event if the account had the role."},"revokeRole(uint64,address)":{"details":"Remove an account from a role, with immediate effect. If the account does not have the role, this call has no effect. Requirements: - the caller must be an admin for the role (see {getRoleAdmin}) - revoked role must not be the `PUBLIC_ROLE` Emits a {RoleRevoked} event if the account had the role."},"schedule(address,bytes,uint48)":{"details":"Schedule a delayed operation for future execution, and return the operation identifier. It is possible to choose the timestamp at which the operation becomes executable as long as it satisfies the execution delays required for the caller. The special value zero will automatically set the earliest possible time. Returns the `operationId` that was scheduled. Since this value is a hash of the parameters, it can reoccur when the same parameters are used; if this is relevant, the returned `nonce` can be used to uniquely identify this scheduled operation from other occurrences of the same `operationId` in invocations of {execute} and {cancel}. Emits a {OperationScheduled} event. NOTE: It is not possible to concurrently schedule more than one operation with the same `target` and `data`. If this is necessary, a random byte can be appended to `data` to act as a salt that will be ignored by the target contract if it is using standard Solidity ABI encoding."},"setGrantDelay(uint64,uint32)":{"details":"Update the delay for granting a `roleId`. Requirements: - the caller must be a global admin Emits a {RoleGrantDelayChanged} event."},"setRoleAdmin(uint64,uint64)":{"details":"Change admin role for a given role. Requirements: - the caller must be a global admin Emits a {RoleAdminChanged} event"},"setRoleGuardian(uint64,uint64)":{"details":"Change guardian role for a given role. Requirements: - the caller must be a global admin Emits a {RoleGuardianChanged} event"},"setTargetAdminDelay(address,uint32)":{"details":"Set the delay for changing the configuration of a given target contract. Requirements: - the caller must be a global admin Emits a {TargetAdminDelayUpdated} event."},"setTargetClosed(address,bool)":{"details":"Set the closed flag for a contract. Requirements: - the caller must be a global admin Emits a {TargetClosed} event."},"setTargetFunctionRole(address,bytes4[],uint64)":{"details":"Set the role required to call functions identified by the `selectors` in the `target` contract. Requirements: - the caller must be a global admin Emits a {TargetFunctionRoleUpdated} event per selector."},"updateAuthority(address,address)":{"details":"Changes the authority of a target managed by this manager instance. Requirements: - the caller must be a global admin"}},"version":1},"evm":{"bytecode":{"linkReferences":{},"object":"60806040523480156200001157600080fd5b5060405162002f8338038062002f8383398101604081905262000034916200048f565b6001600160a01b0381166200006457604051630409d6d160e11b8152600060048201526024015b60405180910390fd5b6200007360008281806200007b565b505062000519565b60006002600160401b03196001600160401b03861601620000bb5760405163061c6a4360e21b81526001600160401b03861660048201526024016200005b565b6001600160401b03851660009081526001602090815260408083206001600160a01b038816845290915281205465ffffffffffff1615908115620001ba5763ffffffff85166200010a620002d2565b620001169190620004d0565b905060405180604001604052808265ffffffffffff168152602001620001488663ffffffff16620002e460201b60201c565b6001600160701b039081169091526001600160401b03891660009081526001602090815260408083206001600160a01b038c16845282529091208351815494909201519092166601000000000000026001600160a01b031990931665ffffffffffff9091161791909117905562000264565b6001600160401b03871660009081526001602090815260408083206001600160a01b038a168452909152812054620002099166010000000000009091046001600160701b0316908690620002ed565b6001600160401b03891660009081526001602090815260408083206001600160a01b038c168452909152902080546001600160701b03909316660100000000000002600160301b600160a01b03199093169290921790915590505b6040805163ffffffff8616815265ffffffffffff831660208201528315158183015290516001600160a01b038816916001600160401b038a16917ff98448b987f1428e0e230e1f3c6e2ce15b5693eaf31827fbd0b1ec4b424ae7cf9181900360600190a35095945050505050565b6000620002df42620003a2565b905090565b63ffffffff1690565b60008080620003056001600160701b038716620003db565b90506000620003488563ffffffff168763ffffffff168463ffffffff1611620003305760006200033c565b6200033c8885620004f9565b63ffffffff16620003fc565b905063ffffffff81166200035b620002d2565b620003679190620004d0565b925063ffffffff8616602083901b67ffffffff0000000016604085901b6dffffffffffff000000000000000016171793505050935093915050565b600065ffffffffffff821115620003d7576040516306dfcc6560e41b815260306004820152602481018390526044016200005b565b5090565b600080620003f26001600160701b03841662000416565b5090949350505050565b60008183116200040d57816200040f565b825b9392505050565b600080806200042f8462000429620002d2565b6200043c565b9250925092509193909250565b600080806001600160501b03602086901c166001600160701b03861665ffffffffffff604088901c81169087168111156200047a578282826200047f565b816000805b9550955095505050509250925092565b600060208284031215620004a257600080fd5b81516001600160a01b03811681146200040f57600080fd5b634e487b7160e01b600052601160045260246000fd5b65ffffffffffff818116838216019080821115620004f257620004f2620004ba565b5092915050565b63ffffffff828116828216039080821115620004f257620004f2620004ba565b612a5a80620005296000396000f3fe6080604052600436106101e35760003560e01c80636d5115bd11610102578063b700961311610095578063d22b598911610064578063d22b5989146106bf578063d6bb62c6146106df578063f801a698146106ff578063fe0776f51461073957600080fd5b8063b70096131461062d578063b7d2b16214610669578063cc1b6c8114610689578063d1f856ee1461069f57600080fd5b8063a166aa89116100d1578063a166aa891461055f578063a64d95ce146105b2578063abd9bd2a146105d2578063ac9650d81461060057600080fd5b80636d5115bd146104b457806375b238fc1461050a578063853551b81461051f57806394c7d7ee1461053f57600080fd5b806330cae1871161017a5780634665096d116101495780634665096d146104215780634c1da1e2146104375780635296295214610457578063530dd4561461047757600080fd5b806330cae187146103725780633adc277a146103925780633ca7c02a146103c95780634136a33c146103e457600080fd5b806318ff183c116101b657806318ff183c146102c55780631cff79cd146102e557806325c471a0146102f85780633078f1141461031857600080fd5b806308d6122d146101e85780630b0a93ba1461020a57806312be872714610270578063167bd395146102a5575b600080fd5b3480156101f457600080fd5b506102086102033660046122d2565b610759565b005b34801561021657600080fd5b50610253610225366004612338565b6001600160401b03908116600090815260016020819052604090912001546801000000000000000090041690565b6040516001600160401b0390911681526020015b60405180910390f35b34801561027c57600080fd5b5061029061028b366004612338565b6107b4565b60405163ffffffff9091168152602001610267565b3480156102b157600080fd5b506102086102c0366004612353565b6107ef565b3480156102d157600080fd5b506102086102e0366004612391565b610805565b6102906102f3366004612400565b61086c565b34801561030457600080fd5b50610208610313366004612468565b6109d9565b34801561032457600080fd5b506103386103333660046124ad565b6109fb565b604051610267949392919065ffffffffffff948516815263ffffffff93841660208201529190921660408201529116606082015260800190565b34801561037e57600080fd5b5061020861038d3660046124c9565b610a63565b34801561039e57600080fd5b506103b26103ad3660046124fc565b610a75565b60405165ffffffffffff9091168152602001610267565b3480156103d557600080fd5b506102536001600160401b0381565b3480156103f057600080fd5b506102906103ff3660046124fc565b6000908152600260205260409020546601000000000000900463ffffffff1690565b34801561042d57600080fd5b5062093a80610290565b34801561044357600080fd5b50610290610452366004612515565b610aa8565b34801561046357600080fd5b506102086104723660046124c9565b610ad6565b34801561048357600080fd5b50610253610492366004612338565b6001600160401b03908116600090815260016020819052604090912001541690565b3480156104c057600080fd5b506102536104cf366004612548565b6001600160a01b0382166000908152602081815260408083206001600160e01b0319851684529091529020546001600160401b031692915050565b34801561051657600080fd5b50610253600081565b34801561052b57600080fd5b5061020861053a366004612576565b610ae8565b34801561054b57600080fd5b5061020861055a366004612400565b610b7f565b34801561056b57600080fd5b506105a261057a366004612515565b6001600160a01b0316600090815260208190526040902060010154600160701b900460ff1690565b6040519015158152602001610267565b3480156105be57600080fd5b506102086105cd366004612594565b610c2b565b3480156105de57600080fd5b506105f26105ed3660046125be565b610c3d565b604051908152602001610267565b34801561060c57600080fd5b5061062061061b366004612622565b610c76565b6040516102679190612687565b34801561063957600080fd5b5061064d610648366004612701565b610d68565b60408051921515835263ffffffff909116602083015201610267565b34801561067557600080fd5b506102086106843660046124ad565b610e68565b34801561069557600080fd5b5062069780610290565b3480156106ab57600080fd5b5061064d6106ba3660046124ad565b610e7f565b3480156106cb57600080fd5b506102086106da36600461274c565b610efc565b3480156106eb57600080fd5b506102906106fa3660046125be565b610f0e565b34801561070b57600080fd5b5061071f61071a36600461276a565b61109d565b6040805192835263ffffffff909116602083015201610267565b34801561074557600080fd5b506102086107543660046124ad565b6111e5565b61076161120e565b60005b828110156107ad5761079d85858584818110610782576107826127dc565b905060200201602081019061079791906127f2565b84611289565b6107a681612825565b9050610764565b5050505050565b6001600160401b0381166000908152600160208190526040822001546107e990600160801b90046001600160701b031661130b565b92915050565b6107f761120e565b610801828261132a565b5050565b61080d61120e565b604051637a9e5e4b60e01b81526001600160a01b038281166004830152831690637a9e5e4b90602401600060405180830381600087803b15801561085057600080fd5b505af1158015610864573d6000803e3d6000fd5b505050505050565b600033818061087d838888886113db565b9150915081158015610893575063ffffffff8116155b156108e65782876108a4888861142e565b6040516381c6f24b60e01b81526001600160a01b0393841660048201529290911660248301526001600160e01b03191660448201526064015b60405180910390fd5b60006108f484898989610c3d565b9050600063ffffffff831615158061091b575061091082610a75565b65ffffffffffff1615155b1561092c5761092982611446565b90505b60035461097f8a61093d8b8b61142e565b604080516001600160a01b03939093166020808501919091526001600160e01b0319929092168382015280518084038201815260609093019052815191012090565b6003819055506109c78a8a8a8080601f016020809104026020016040519081016040528093929190818152602001838380828437600092019190915250349250611549915050565b506003559450505050505b9392505050565b6109e161120e565b6109f583836109ef866107b4565b846115e6565b50505050565b6001600160401b03821660009081526001602090815260408083206001600160a01b03851684529091528120805465ffffffffffff811692918291829190610a5590660100000000000090046001600160701b0316611852565b969991985096509350505050565b610a6b61120e565b6108018282611875565b60008181526002602052604081205465ffffffffffff16610a9581611919565b610a9f57806109d2565b60009392505050565b6001600160a01b0381166000908152602081905260408120600101546107e9906001600160701b031661130b565b610ade61120e565b6108018282611948565b610af061120e565b6001600160401b0383161580610b0e57506001600160401b03838116145b15610b375760405163061c6a4360e21b81526001600160401b03841660048201526024016108dd565b826001600160401b03167f1256f5b5ecb89caec12db449738f2fbcd1ba5806cf38f35413f4e5c15bf6a4508383604051610b72929190612867565b60405180910390a2505050565b60408051638fb3603760e01b80825291513392918391638fb36037916004808201926020929091908290030181865afa158015610bc0573d6000803e3d6000fd5b505050506040513d601f19601f82011682018060405250810190610be49190612883565b6001600160e01b03191614610c1757604051630641fee960e31b81526001600160a01b03821660048201526024016108dd565b6107ad610c2685838686610c3d565b611446565b610c3361120e565b61080182826119ff565b600084848484604051602001610c5694939291906128a0565b604051602081830303815290604052805190602001209050949350505050565b604080516000815260208101909152606090826001600160401b03811115610ca057610ca06128f7565b604051908082528060200260200182016040528015610cd357816020015b6060815260200190600190039081610cbe5790505b50915060005b83811015610d6057610d3030868684818110610cf757610cf76127dc565b9050602002810190610d09919061290d565b85604051602001610d1c93929190612953565b604051602081830303815290604052611b1e565b838281518110610d4257610d426127dc565b60200260200101819052508080610d5890612825565b915050610cd9565b505092915050565b6001600160a01b0382166000908152602081905260408120600101548190600160701b900460ff1615610da057506000905080610e60565b306001600160a01b03861603610dfc57604080516001600160a01b0386166020808301919091526001600160e01b031986168284015282518083038401815260609092019092528051910120600354145b600091509150610e60565b6001600160a01b0384166000908152602081815260408083206001600160e01b0319871684529091528120546001600160401b03169080610e3d8389610e7f565b9150915081610e4e57600080610e58565b63ffffffff811615815b945094505050505b935093915050565b610e7061120e565b610e7a8282611b94565b505050565b60008067fffffffffffffffe196001600160401b03851601610ea75750600190506000610ef5565b600080610eb486866109fb565b5050915091508165ffffffffffff16600014158015610eea5750610ed6611c8e565b65ffffffffffff168265ffffffffffff1611155b93509150610ef59050565b9250929050565b610f0461120e565b6108018282611c9e565b60003381610f1c858561142e565b90506000610f2c88888888610c3d565b60008181526002602052604081205491925065ffffffffffff9091169003610f6a5760405163060a299b60e41b8152600481018290526024016108dd565b826001600160a01b0316886001600160a01b031614611038576000610f90600085610e7f565b506001600160a01b0389166000908152602081815260408083206001600160e01b03198816845290915281205491925090610fdd90610fd7906001600160401b0316610225565b86610e7f565b50905081158015610fec575080155b1561103557604051630ff89d4760e21b81526001600160a01b038087166004830152808c1660248301528a1660448201526001600160e01b0319851660648201526084016108dd565b50505b600081815260026020526040808220805465ffffffffffff1916908190559051660100000000000090910463ffffffff1691829184917fbd9ac67a6e2f6463b80927326310338bcbb4bdb7936ce1365ea3e01067e7b9f791a398975050505050505050565b60008033816110ae828989896113db565b91505060008163ffffffff166110c2611c8e565b6110cc919061297a565b905063ffffffff82161580611103575060008665ffffffffffff1611801561110357508065ffffffffffff168665ffffffffffff16105b156111145782896108a48a8a61142e565b61112e8665ffffffffffff168265ffffffffffff16611d5b565b955061113c838a8a8a610c3d565b945061114785611d71565b60008581526002602052604090819020805465ffffffffffff891669ffffffffffffffffffff1982161766010000000000009182900463ffffffff90811660010190811692830291909117909255915190955086907f82a2da5dee54ea8021c6545b4444620291e07ee83be6dd57edb175062715f3b4906111d1908a9088908f908f908f906129a0565b60405180910390a350505094509492505050565b6001600160a01b0381163314610e7057604051635f159e6360e01b815260040160405180910390fd5b3360008061121d838236611dbe565b9150915081610e7a578063ffffffff166000036112795760006112408136611eb7565b5060405163f07e038f60e01b81526001600160a01b03871660048201526001600160401b038216602482015290925060440190506108dd565b6109f5610c268430600036610c3d565b6001600160a01b0383166000818152602081815260408083206001600160e01b0319871680855290835292819020805467ffffffffffffffff19166001600160401b038716908117909155905192835292917f9ea6790c7dadfd01c9f8b9762b3682607af2c7e79e05a9f9fdf5580dde949151910160405180910390a3505050565b600080611320836001600160701b0316611852565b5090949350505050565b306001600160a01b0383160361135e57604051630b40d17960e31b81526001600160a01b03831660048201526024016108dd565b6001600160a01b038216600081815260208190526040908190206001018054841515600160701b026eff000000000000000000000000000019909116179055517f90d4e7bb7e5d933792b3562e1741306f8be94837e1348dacef9b6f1df56eb138906113cf90841515815260200190565b60405180910390a25050565b600080306001600160a01b03861603611402576113f9868585611dbe565b91509150611425565b6004831061141e576114198686610648878761142e565b6113f9565b5060009050805b94509492505050565b600061143d60048284866128cd565b6109d2916129e6565b60008181526002602052604081205465ffffffffffff8116906601000000000000900463ffffffff168183036114925760405163060a299b60e41b8152600481018590526024016108dd565b61149a611c8e565b65ffffffffffff168265ffffffffffff1611156114cd57604051630c65b5bd60e11b8152600481018590526024016108dd565b6114d682611919565b156114f757604051631e2975b960e21b8152600481018590526024016108dd565b600084815260026020526040808220805465ffffffffffff191690555163ffffffff83169186917f76a2a46953689d4861a5d3f6ed883ad7e6af674a21f8e162707159fc9dde614d9190a39392505050565b60608147101561156e5760405163cd78605960e01b81523060048201526024016108dd565b600080856001600160a01b0316848660405161158a9190612a14565b60006040518083038185875af1925050503d80600081146115c7576040519150601f19603f3d011682016040523d82523d6000602084013e6115cc565b606091505b50915091506115dc8683836120a0565b9695505050505050565b600067fffffffffffffffe196001600160401b038616016116255760405163061c6a4360e21b81526001600160401b03861660048201526024016108dd565b6001600160401b03851660009081526001602090815260408083206001600160a01b038816845290915281205465ffffffffffff1615908115611727578463ffffffff16611671611c8e565b61167b919061297a565b905060405180604001604052808265ffffffffffff1681526020016116a98663ffffffff1663ffffffff1690565b6001600160701b039081169091526001600160401b03891660009081526001602090815260408083206001600160a01b038c168452825290912083518154949092015190921666010000000000000273ffffffffffffffffffffffffffffffffffffffff1990931665ffffffffffff909116179190911790556117e4565b6001600160401b03871660009081526001602090815260408083206001600160a01b038a1684529091528120546117749166010000000000009091046001600160701b03169086906120fc565b6001600160401b03891660009081526001602090815260408083206001600160a01b038c168452909152902080546001600160701b039093166601000000000000027fffffffffffffffffffffffff0000000000000000000000000000ffffffffffff9093169290921790915590505b6040805163ffffffff8616815265ffffffffffff831660208201528315158183015290516001600160a01b038816916001600160401b038a16917ff98448b987f1428e0e230e1f3c6e2ce15b5693eaf31827fbd0b1ec4b424ae7cf9181900360600190a35095945050505050565b600080600061186884611863611c8e565b6121a6565b9250925092509193909250565b6001600160401b038216158061189357506001600160401b03828116145b156118bc5760405163061c6a4360e21b81526001600160401b03831660048201526024016108dd565b6001600160401b038281166000818152600160208190526040808320909101805467ffffffffffffffff19169486169485179055517f1fd6dd7631312dfac2205b52913f99de03b4d7e381d5d27d3dbfe0713e6e63409190a35050565b6000611923611c8e565b65ffffffffffff1661193862093a808461297a565b65ffffffffffff16111592915050565b6001600160401b038216158061196657506001600160401b03828116145b1561198f5760405163061c6a4360e21b81526001600160401b03831660048201526024016108dd565b6001600160401b03828116600081815260016020819052604080832090910180546fffffffffffffffff0000000000000000191668010000000000000000958716958602179055517f7a8059630b897b5de4c08ade69f8b90c3ead1f8596d62d10b6c4d14a0afb4ae29190a35050565b67fffffffffffffffe196001600160401b03831601611a3c5760405163061c6a4360e21b81526001600160401b03831660048201526024016108dd565b6001600160401b038216600090815260016020819052604082200154611a7690600160801b90046001600160701b031683620697806120fc565b6001600160401b0385166000818152600160208190526040918290200180546001600160701b03909516600160801b027fffff0000000000000000000000000000ffffffffffffffffffffffffffffffff9095169490941790935591519092507ffeb69018ee8b8fd50ea86348f1267d07673379f72cffdeccec63853ee8ce8b4890610b72908590859063ffffffff92909216825265ffffffffffff16602082015260400190565b6060600080846001600160a01b031684604051611b3b9190612a14565b600060405180830381855af49150503d8060008114611b76576040519150601f19603f3d011682016040523d82523d6000602084013e611b7b565b606091505b5091509150611b8b8583836120a0565b95945050505050565b600067fffffffffffffffe196001600160401b03841601611bd35760405163061c6a4360e21b81526001600160401b03841660048201526024016108dd565b6001600160401b03831660009081526001602090815260408083206001600160a01b038616845290915281205465ffffffffffff169003611c16575060006107e9565b6001600160401b03831660008181526001602090815260408083206001600160a01b0387168085529252808320805473ffffffffffffffffffffffffffffffffffffffff19169055519092917ff229baa593af28c41b1d16b748cd7688f0c83aaf92d4be41c44005defe84c16691a350600192915050565b6000611c99426121fa565b905090565b6001600160a01b038216600090815260208190526040812060010154611cd1906001600160701b031683620697806120fc565b6001600160a01b0385166000818152602081815260409182902060010180546dffffffffffffffffffffffffffff19166001600160701b039690961695909517909455805163ffffffff8716815265ffffffffffff841694810194909452919350917fa56b76017453f399ec2327ba00375dbfb1fd070ff854341ad6191e6a2e2de19c9101610b72565b6000818311611d6a57816109d2565b5090919050565b60008181526002602052604090205465ffffffffffff168015801590611d9d5750611d9b81611919565b155b156108015760405163813e945960e01b8152600481018390526024016108dd565b6000806004831015611dd557506000905080610e60565b306001600160a01b03861603611e3957610df130611df3868661142e565b604080516001600160a01b03939093166020808501919091526001600160e01b031992909216838201528051808403820181526060909301905281519101206003541490565b6000806000611e488787611eb7565b92509250925082611e625760008094509450505050610e60565b600080611e6f848b610e7f565b9150915081611e8957600080965096505050505050610e60565b611e9f8363ffffffff168263ffffffff16611d5b565b63ffffffff8116159b909a5098505050505050505050565b600080806004841015611ed257506000915081905080612099565b6000611ede868661142e565b90506001600160e01b031981166310a6aa3760e31b1480611f0f57506001600160e01b031981166330cae18760e01b145b80611f2a57506001600160e01b0319811663294b14a960e11b145b80611f4557506001600160e01b03198116635326cae760e11b145b80611f6057506001600160e01b0319811663d22b598960e01b145b15611f7657600160008093509350935050612099565b6001600160e01b0319811663063fc60f60e21b1480611fa557506001600160e01b0319811663167bd39560e01b145b80611fc057506001600160e01b031981166308d6122d60e01b145b15612002576000611fd560246004888a6128cd565b810190611fe29190612515565b90506000611fef82610aa8565b6001965060009550935061209992505050565b6001600160e01b0319811663012e238d60e51b148061203157506001600160e01b03198116635be958b160e11b145b1561208c57600061204660246004888a6128cd565b8101906120539190612338565b9050600161207d826001600160401b03908116600090815260016020819052604090912001541690565b60009450945094505050612099565b6000806000935093509350505b9250925092565b6060826120b5576120b082612231565b6109d2565b81511580156120cc57506001600160a01b0384163b155b156120f557604051639996b31560e01b81526001600160a01b03851660048201526024016108dd565b50806109d2565b6000806000612113866001600160701b031661130b565b905060006121508563ffffffff168763ffffffff168463ffffffff161161213b576000612145565b6121458885612a30565b63ffffffff16611d5b565b90508063ffffffff16612161611c8e565b61216b919061297a565b925063ffffffff8616602083901b67ffffffff0000000016604085901b6dffffffffffff000000000000000016171793505050935093915050565b6000808069ffffffffffffffffffff602086901c166001600160701b03861665ffffffffffff604088901c81169087168111156121e5578282826121ea565b816000805b9550955095505050509250925092565b600065ffffffffffff82111561222d576040516306dfcc6560e41b815260306004820152602481018390526044016108dd565b5090565b8051156122415780518082602001fd5b604051630a12f52160e11b815260040160405180910390fd5b50565b6001600160a01b038116811461225a57600080fd5b60008083601f84011261228457600080fd5b5081356001600160401b0381111561229b57600080fd5b6020830191508360208260051b8501011115610ef557600080fd5b80356001600160401b03811681146122cd57600080fd5b919050565b600080600080606085870312156122e857600080fd5b84356122f38161225d565b935060208501356001600160401b0381111561230e57600080fd5b61231a87828801612272565b909450925061232d9050604086016122b6565b905092959194509250565b60006020828403121561234a57600080fd5b6109d2826122b6565b6000806040838503121561236657600080fd5b82356123718161225d565b91506020830135801515811461238657600080fd5b809150509250929050565b600080604083850312156123a457600080fd5b82356123af8161225d565b915060208301356123868161225d565b60008083601f8401126123d157600080fd5b5081356001600160401b038111156123e857600080fd5b602083019150836020828501011115610ef557600080fd5b60008060006040848603121561241557600080fd5b83356124208161225d565b925060208401356001600160401b0381111561243b57600080fd5b612447868287016123bf565b9497909650939450505050565b803563ffffffff811681146122cd57600080fd5b60008060006060848603121561247d57600080fd5b612486846122b6565b925060208401356124968161225d565b91506124a460408501612454565b90509250925092565b600080604083850312156124c057600080fd5b6123af836122b6565b600080604083850312156124dc57600080fd5b6124e5836122b6565b91506124f3602084016122b6565b90509250929050565b60006020828403121561250e57600080fd5b5035919050565b60006020828403121561252757600080fd5b81356109d28161225d565b6001600160e01b03198116811461225a57600080fd5b6000806040838503121561255b57600080fd5b82356125668161225d565b9150602083013561238681612532565b60008060006040848603121561258b57600080fd5b612420846122b6565b600080604083850312156125a757600080fd5b6125b0836122b6565b91506124f360208401612454565b600080600080606085870312156125d457600080fd5b84356125df8161225d565b935060208501356125ef8161225d565b925060408501356001600160401b0381111561260a57600080fd5b612616878288016123bf565b95989497509550505050565b6000806020838503121561263557600080fd5b82356001600160401b0381111561264b57600080fd5b61265785828601612272565b90969095509350505050565b60005b8381101561267e578181015183820152602001612666565b50506000910152565b6000602080830181845280855180835260408601915060408160051b870101925083870160005b828110156126f457878503603f19018452815180518087526126d5818989018a8501612663565b601f01601f1916959095018601945092850192908501906001016126ae565b5092979650505050505050565b60008060006060848603121561271657600080fd5b83356127218161225d565b925060208401356127318161225d565b9150604084013561274181612532565b809150509250925092565b6000806040838503121561275f57600080fd5b82356125b08161225d565b6000806000806060858703121561278057600080fd5b843561278b8161225d565b935060208501356001600160401b038111156127a657600080fd5b6127b2878288016123bf565b909450925050604085013565ffffffffffff811681146127d157600080fd5b939692955090935050565b634e487b7160e01b600052603260045260246000fd5b60006020828403121561280457600080fd5b81356109d281612532565b634e487b7160e01b600052601160045260246000fd5b6000600182016128375761283761280f565b5060010190565b81835281816020850137506000828201602090810191909152601f909101601f19169091010190565b60208152600061287b60208301848661283e565b949350505050565b60006020828403121561289557600080fd5b81516109d281612532565b60006001600160a01b038087168352808616602084015250606060408301526115dc60608301848661283e565b600080858511156128dd57600080fd5b838611156128ea57600080fd5b5050820193919092039150565b634e487b7160e01b600052604160045260246000fd5b6000808335601e1984360301811261292457600080fd5b8301803591506001600160401b0382111561293e57600080fd5b602001915036819003821315610ef557600080fd5b828482376000838201600081528351612970818360208801612663565b0195945050505050565b65ffffffffffff8181168382160190808211156129995761299961280f565b5092915050565b65ffffffffffff8616815260006001600160a01b038087166020840152808616604084015250608060608301526129db60808301848661283e565b979650505050505050565b6001600160e01b03198135818116916004851015610d605760049490940360031b84901b1690921692915050565b60008251612a26818460208701612663565b9190910192915050565b63ffffffff8281168282160390808211156129995761299961280f56fea164736f6c6343000814000a","opcodes":"PUSH1 0x80 PUSH1 0x40 MSTORE CALLVALUE DUP1 ISZERO PUSH3 0x11 JUMPI PUSH1 0x0 DUP1 REVERT JUMPDEST POP PUSH1 0x40 MLOAD PUSH3 0x2F83 CODESIZE SUB DUP1 PUSH3 0x2F83 DUP4 CODECOPY DUP2 ADD PUSH1 0x40 DUP2 SWAP1 MSTORE PUSH3 0x34 SWAP2 PUSH3 0x48F JUMP JUMPDEST PUSH1 0x1 PUSH1 0x1 PUSH1 0xA0 SHL SUB DUP2 AND PUSH3 0x64 JUMPI PUSH1 0x40 MLOAD PUSH4 0x409D6D1 PUSH1 0xE1 SHL DUP2 MSTORE PUSH1 0x0 PUSH1 0x4 DUP3 ADD MSTORE PUSH1 0x24 ADD JUMPDEST PUSH1 0x40 MLOAD DUP1 SWAP2 SUB SWAP1 REVERT JUMPDEST PUSH3 0x73 PUSH1 0x0 DUP3 DUP2 DUP1 PUSH3 0x7B JUMP JUMPDEST POP POP PUSH3 0x519 JUMP JUMPDEST PUSH1 0x0 PUSH1 0x2 PUSH1 0x1 PUSH1 0x40 SHL SUB NOT PUSH1 0x1 PUSH1 0x1 PUSH1 0x40 SHL SUB DUP7 AND ADD PUSH3 0xBB JUMPI PUSH1 0x40 MLOAD PUSH4 0x61C6A43 PUSH1 0xE2 SHL DUP2 MSTORE PUSH1 0x1 PUSH1 0x1 PUSH1 0x40 SHL SUB DUP7 AND PUSH1 0x4 DUP3 ADD MSTORE PUSH1 0x24 ADD PUSH3 0x5B JUMP JUMPDEST PUSH1 0x1 PUSH1 0x1 PUSH1 0x40 SHL SUB DUP6 AND PUSH1 0x0 SWAP1 DUP2 MSTORE PUSH1 0x1 PUSH1 0x20 SWAP1 DUP2 MSTORE PUSH1 0x40 DUP1 DUP4 KECCAK256 PUSH1 0x1 PUSH1 0x1 PUSH1 0xA0 SHL SUB DUP9 AND DUP5 MSTORE SWAP1 SWAP2 MSTORE DUP2 KECCAK256 SLOAD PUSH6 0xFFFFFFFFFFFF AND ISZERO SWAP1 DUP2 ISZERO PUSH3 0x1BA JUMPI PUSH4 0xFFFFFFFF DUP6 AND PUSH3 0x10A PUSH3 0x2D2 JUMP JUMPDEST PUSH3 0x116 SWAP2 SWAP1 PUSH3 0x4D0 JUMP JUMPDEST SWAP1 POP PUSH1 0x40 MLOAD DUP1 PUSH1 0x40 ADD PUSH1 0x40 MSTORE DUP1 DUP3 PUSH6 0xFFFFFFFFFFFF AND DUP2 MSTORE PUSH1 0x20 ADD PUSH3 0x148 DUP7 PUSH4 0xFFFFFFFF AND PUSH3 0x2E4 PUSH1 0x20 SHL PUSH1 0x20 SHR JUMP JUMPDEST PUSH1 0x1 PUSH1 0x1 PUSH1 0x70 SHL SUB SWAP1 DUP2 AND SWAP1 SWAP2 MSTORE PUSH1 0x1 PUSH1 0x1 PUSH1 0x40 SHL SUB DUP10 AND PUSH1 0x0 SWAP1 DUP2 MSTORE PUSH1 0x1 PUSH1 0x20 SWAP1 DUP2 MSTORE PUSH1 0x40 DUP1 DUP4 KECCAK256 PUSH1 0x1 PUSH1 0x1 PUSH1 0xA0 SHL SUB DUP13 AND DUP5 MSTORE DUP3 MSTORE SWAP1 SWAP2 KECCAK256 DUP4 MLOAD DUP2 SLOAD SWAP5 SWAP1 SWAP3 ADD MLOAD SWAP1 SWAP3 AND PUSH7 0x1000000000000 MUL PUSH1 0x1 PUSH1 0x1 PUSH1 0xA0 SHL SUB NOT SWAP1 SWAP4 AND PUSH6 0xFFFFFFFFFFFF SWAP1 SWAP2 AND OR SWAP2 SWAP1 SWAP2 OR SWAP1 SSTORE PUSH3 0x264 JUMP JUMPDEST PUSH1 0x1 PUSH1 0x1 PUSH1 0x40 SHL SUB DUP8 AND PUSH1 0x0 SWAP1 DUP2 MSTORE PUSH1 0x1 PUSH1 0x20 SWAP1 DUP2 MSTORE PUSH1 0x40 DUP1 DUP4 KECCAK256 PUSH1 0x1 PUSH1 0x1 PUSH1 0xA0 SHL SUB DUP11 AND DUP5 MSTORE SWAP1 SWAP2 MSTORE DUP2 KECCAK256 SLOAD PUSH3 0x209 SWAP2 PUSH7 0x1000000000000 SWAP1 SWAP2 DIV PUSH1 0x1 PUSH1 0x1 PUSH1 0x70 SHL SUB AND SWAP1 DUP7 SWAP1 PUSH3 0x2ED JUMP JUMPDEST PUSH1 0x1 PUSH1 0x1 PUSH1 0x40 SHL SUB DUP10 AND PUSH1 0x0 SWAP1 DUP2 MSTORE PUSH1 0x1 PUSH1 0x20 SWAP1 DUP2 MSTORE PUSH1 0x40 DUP1 DUP4 KECCAK256 PUSH1 0x1 PUSH1 0x1 PUSH1 0xA0 SHL SUB DUP13 AND DUP5 MSTORE SWAP1 SWAP2 MSTORE SWAP1 KECCAK256 DUP1 SLOAD PUSH1 0x1 PUSH1 0x1 PUSH1 0x70 SHL SUB SWAP1 SWAP4 AND PUSH7 0x1000000000000 MUL PUSH1 0x1 PUSH1 0x30 SHL PUSH1 0x1 PUSH1 0xA0 SHL SUB NOT SWAP1 SWAP4 AND SWAP3 SWAP1 SWAP3 OR SWAP1 SWAP2 SSTORE SWAP1 POP JUMPDEST PUSH1 0x40 DUP1 MLOAD PUSH4 0xFFFFFFFF DUP7 AND DUP2 MSTORE PUSH6 0xFFFFFFFFFFFF DUP4 AND PUSH1 0x20 DUP3 ADD MSTORE DUP4 ISZERO ISZERO DUP2 DUP4 ADD MSTORE SWAP1 MLOAD PUSH1 0x1 PUSH1 0x1 PUSH1 0xA0 SHL SUB DUP9 AND SWAP2 PUSH1 0x1 PUSH1 0x1 PUSH1 0x40 SHL SUB DUP11 AND SWAP2 PUSH32 0xF98448B987F1428E0E230E1F3C6E2CE15B5693EAF31827FBD0B1EC4B424AE7CF SWAP2 DUP2 SWAP1 SUB PUSH1 0x60 ADD SWAP1 LOG3 POP SWAP6 SWAP5 POP POP POP POP POP JUMP JUMPDEST PUSH1 0x0 PUSH3 0x2DF TIMESTAMP PUSH3 0x3A2 JUMP JUMPDEST SWAP1 POP SWAP1 JUMP JUMPDEST PUSH4 0xFFFFFFFF AND SWAP1 JUMP JUMPDEST PUSH1 0x0 DUP1 DUP1 PUSH3 0x305 PUSH1 0x1 PUSH1 0x1 PUSH1 0x70 SHL SUB DUP8 AND PUSH3 0x3DB JUMP JUMPDEST SWAP1 POP PUSH1 0x0 PUSH3 0x348 DUP6 PUSH4 0xFFFFFFFF AND DUP8 PUSH4 0xFFFFFFFF AND DUP5 PUSH4 0xFFFFFFFF AND GT PUSH3 0x330 JUMPI PUSH1 0x0 PUSH3 0x33C JUMP JUMPDEST PUSH3 0x33C DUP9 DUP6 PUSH3 0x4F9 JUMP JUMPDEST PUSH4 0xFFFFFFFF AND PUSH3 0x3FC JUMP JUMPDEST SWAP1 POP PUSH4 0xFFFFFFFF DUP2 AND PUSH3 0x35B PUSH3 0x2D2 JUMP JUMPDEST PUSH3 0x367 SWAP2 SWAP1 PUSH3 0x4D0 JUMP JUMPDEST SWAP3 POP PUSH4 0xFFFFFFFF DUP7 AND PUSH1 0x20 DUP4 SWAP1 SHL PUSH8 0xFFFFFFFF00000000 AND PUSH1 0x40 DUP6 SWAP1 SHL PUSH14 0xFFFFFFFFFFFF0000000000000000 AND OR OR SWAP4 POP POP POP SWAP4 POP SWAP4 SWAP2 POP POP JUMP JUMPDEST PUSH1 0x0 PUSH6 0xFFFFFFFFFFFF DUP3 GT ISZERO PUSH3 0x3D7 JUMPI PUSH1 0x40 MLOAD PUSH4 0x6DFCC65 PUSH1 0xE4 SHL DUP2 MSTORE PUSH1 0x30 PUSH1 0x4 DUP3 ADD MSTORE PUSH1 0x24 DUP2 ADD DUP4 SWAP1 MSTORE PUSH1 0x44 ADD PUSH3 0x5B JUMP JUMPDEST POP SWAP1 JUMP JUMPDEST PUSH1 0x0 DUP1 PUSH3 0x3F2 PUSH1 0x1 PUSH1 0x1 PUSH1 0x70 SHL SUB DUP5 AND PUSH3 0x416 JUMP JUMPDEST POP SWAP1 SWAP5 SWAP4 POP POP POP POP JUMP JUMPDEST PUSH1 0x0 DUP2 DUP4 GT PUSH3 0x40D JUMPI DUP2 PUSH3 0x40F JUMP JUMPDEST DUP3 JUMPDEST SWAP4 SWAP3 POP POP POP JUMP JUMPDEST PUSH1 0x0 DUP1 DUP1 PUSH3 0x42F DUP5 PUSH3 0x429 PUSH3 0x2D2 JUMP JUMPDEST PUSH3 0x43C JUMP JUMPDEST SWAP3 POP SWAP3 POP SWAP3 POP SWAP2 SWAP4 SWAP1 SWAP3 POP JUMP JUMPDEST PUSH1 0x0 DUP1 DUP1 PUSH1 0x1 PUSH1 0x1 PUSH1 0x50 SHL SUB PUSH1 0x20 DUP7 SWAP1 SHR AND PUSH1 0x1 PUSH1 0x1 PUSH1 0x70 SHL SUB DUP7 AND PUSH6 0xFFFFFFFFFFFF PUSH1 0x40 DUP9 SWAP1 SHR DUP2 AND SWAP1 DUP8 AND DUP2 GT ISZERO PUSH3 0x47A JUMPI DUP3 DUP3 DUP3 PUSH3 0x47F JUMP JUMPDEST DUP2 PUSH1 0x0 DUP1 JUMPDEST SWAP6 POP SWAP6 POP SWAP6 POP POP POP POP SWAP3 POP SWAP3 POP SWAP3 JUMP JUMPDEST PUSH1 0x0 PUSH1 0x20 DUP3 DUP5 SUB SLT ISZERO PUSH3 0x4A2 JUMPI PUSH1 0x0 DUP1 REVERT JUMPDEST DUP2 MLOAD PUSH1 0x1 PUSH1 0x1 PUSH1 0xA0 SHL SUB DUP2 AND DUP2 EQ PUSH3 0x40F JUMPI PUSH1 0x0 DUP1 REVERT JUMPDEST PUSH4 0x4E487B71 PUSH1 0xE0 SHL PUSH1 0x0 MSTORE PUSH1 0x11 PUSH1 0x4 MSTORE PUSH1 0x24 PUSH1 0x0 REVERT JUMPDEST PUSH6 0xFFFFFFFFFFFF DUP2 DUP2 AND DUP4 DUP3 AND ADD SWAP1 DUP1 DUP3 GT ISZERO PUSH3 0x4F2 JUMPI PUSH3 0x4F2 PUSH3 0x4BA JUMP JUMPDEST POP SWAP3 SWAP2 POP POP JUMP JUMPDEST PUSH4 0xFFFFFFFF DUP3 DUP2 AND DUP3 DUP3 AND SUB SWAP1 DUP1 DUP3 GT ISZERO PUSH3 0x4F2 JUMPI PUSH3 0x4F2 PUSH3 0x4BA JUMP JUMPDEST PUSH2 0x2A5A DUP1 PUSH3 0x529 PUSH1 0x0 CODECOPY PUSH1 0x0 RETURN INVALID PUSH1 0x80 PUSH1 0x40 MSTORE PUSH1 0x4 CALLDATASIZE LT PUSH2 0x1E3 JUMPI PUSH1 0x0 CALLDATALOAD PUSH1 0xE0 SHR DUP1 PUSH4 0x6D5115BD GT PUSH2 0x102 JUMPI DUP1 PUSH4 0xB7009613 GT PUSH2 0x95 JUMPI DUP1 PUSH4 0xD22B5989 GT PUSH2 0x64 JUMPI DUP1 PUSH4 0xD22B5989 EQ PUSH2 0x6BF JUMPI DUP1 PUSH4 0xD6BB62C6 EQ PUSH2 0x6DF JUMPI DUP1 PUSH4 0xF801A698 EQ PUSH2 0x6FF JUMPI DUP1 PUSH4 0xFE0776F5 EQ PUSH2 0x739 JUMPI PUSH1 0x0 DUP1 REVERT JUMPDEST DUP1 PUSH4 0xB7009613 EQ PUSH2 0x62D JUMPI DUP1 PUSH4 0xB7D2B162 EQ PUSH2 0x669 JUMPI DUP1 PUSH4 0xCC1B6C81 EQ PUSH2 0x689 JUMPI DUP1 PUSH4 0xD1F856EE EQ PUSH2 0x69F JUMPI PUSH1 0x0 DUP1 REVERT JUMPDEST DUP1 PUSH4 0xA166AA89 GT PUSH2 0xD1 JUMPI DUP1 PUSH4 0xA166AA89 EQ PUSH2 0x55F JUMPI DUP1 PUSH4 0xA64D95CE EQ PUSH2 0x5B2 JUMPI DUP1 PUSH4 0xABD9BD2A EQ PUSH2 0x5D2 JUMPI DUP1 PUSH4 0xAC9650D8 EQ PUSH2 0x600 JUMPI PUSH1 0x0 DUP1 REVERT JUMPDEST DUP1 PUSH4 0x6D5115BD EQ PUSH2 0x4B4 JUMPI DUP1 PUSH4 0x75B238FC EQ PUSH2 0x50A JUMPI DUP1 PUSH4 0x853551B8 EQ PUSH2 0x51F JUMPI DUP1 PUSH4 0x94C7D7EE EQ PUSH2 0x53F JUMPI PUSH1 0x0 DUP1 REVERT JUMPDEST DUP1 PUSH4 0x30CAE187 GT PUSH2 0x17A JUMPI DUP1 PUSH4 0x4665096D GT PUSH2 0x149 JUMPI DUP1 PUSH4 0x4665096D EQ PUSH2 0x421 JUMPI DUP1 PUSH4 0x4C1DA1E2 EQ PUSH2 0x437 JUMPI DUP1 PUSH4 0x52962952 EQ PUSH2 0x457 JUMPI DUP1 PUSH4 0x530DD456 EQ PUSH2 0x477 JUMPI PUSH1 0x0 DUP1 REVERT JUMPDEST DUP1 PUSH4 0x30CAE187 EQ PUSH2 0x372 JUMPI DUP1 PUSH4 0x3ADC277A EQ PUSH2 0x392 JUMPI DUP1 PUSH4 0x3CA7C02A EQ PUSH2 0x3C9 JUMPI DUP1 PUSH4 0x4136A33C EQ PUSH2 0x3E4 JUMPI PUSH1 0x0 DUP1 REVERT JUMPDEST DUP1 PUSH4 0x18FF183C GT PUSH2 0x1B6 JUMPI DUP1 PUSH4 0x18FF183C EQ PUSH2 0x2C5 JUMPI DUP1 PUSH4 0x1CFF79CD EQ PUSH2 0x2E5 JUMPI DUP1 PUSH4 0x25C471A0 EQ PUSH2 0x2F8 JUMPI DUP1 PUSH4 0x3078F114 EQ PUSH2 0x318 JUMPI PUSH1 0x0 DUP1 REVERT JUMPDEST DUP1 PUSH4 0x8D6122D EQ PUSH2 0x1E8 JUMPI DUP1 PUSH4 0xB0A93BA EQ PUSH2 0x20A JUMPI DUP1 PUSH4 0x12BE8727 EQ PUSH2 0x270 JUMPI DUP1 PUSH4 0x167BD395 EQ PUSH2 0x2A5 JUMPI JUMPDEST PUSH1 0x0 DUP1 REVERT JUMPDEST CALLVALUE DUP1 ISZERO PUSH2 0x1F4 JUMPI PUSH1 0x0 DUP1 REVERT JUMPDEST POP PUSH2 0x208 PUSH2 0x203 CALLDATASIZE PUSH1 0x4 PUSH2 0x22D2 JUMP JUMPDEST PUSH2 0x759 JUMP JUMPDEST STOP JUMPDEST CALLVALUE DUP1 ISZERO PUSH2 0x216 JUMPI PUSH1 0x0 DUP1 REVERT JUMPDEST POP PUSH2 0x253 PUSH2 0x225 CALLDATASIZE PUSH1 0x4 PUSH2 0x2338 JUMP JUMPDEST PUSH1 0x1 PUSH1 0x1 PUSH1 0x40 SHL SUB SWAP1 DUP2 AND PUSH1 0x0 SWAP1 DUP2 MSTORE PUSH1 0x1 PUSH1 0x20 DUP2 SWAP1 MSTORE PUSH1 0x40 SWAP1 SWAP2 KECCAK256 ADD SLOAD PUSH9 0x10000000000000000 SWAP1 DIV AND SWAP1 JUMP JUMPDEST PUSH1 0x40 MLOAD PUSH1 0x1 PUSH1 0x1 PUSH1 0x40 SHL SUB SWAP1 SWAP2 AND DUP2 MSTORE PUSH1 0x20 ADD JUMPDEST PUSH1 0x40 MLOAD DUP1 SWAP2 SUB SWAP1 RETURN JUMPDEST CALLVALUE DUP1 ISZERO PUSH2 0x27C JUMPI PUSH1 0x0 DUP1 REVERT JUMPDEST POP PUSH2 0x290 PUSH2 0x28B CALLDATASIZE PUSH1 0x4 PUSH2 0x2338 JUMP JUMPDEST PUSH2 0x7B4 JUMP JUMPDEST PUSH1 0x40 MLOAD PUSH4 0xFFFFFFFF SWAP1 SWAP2 AND DUP2 MSTORE PUSH1 0x20 ADD PUSH2 0x267 JUMP JUMPDEST CALLVALUE DUP1 ISZERO PUSH2 0x2B1 JUMPI PUSH1 0x0 DUP1 REVERT JUMPDEST POP PUSH2 0x208 PUSH2 0x2C0 CALLDATASIZE PUSH1 0x4 PUSH2 0x2353 JUMP JUMPDEST PUSH2 0x7EF JUMP JUMPDEST CALLVALUE DUP1 ISZERO PUSH2 0x2D1 JUMPI PUSH1 0x0 DUP1 REVERT JUMPDEST POP PUSH2 0x208 PUSH2 0x2E0 CALLDATASIZE PUSH1 0x4 PUSH2 0x2391 JUMP JUMPDEST PUSH2 0x805 JUMP JUMPDEST PUSH2 0x290 PUSH2 0x2F3 CALLDATASIZE PUSH1 0x4 PUSH2 0x2400 JUMP JUMPDEST PUSH2 0x86C JUMP JUMPDEST CALLVALUE DUP1 ISZERO PUSH2 0x304 JUMPI PUSH1 0x0 DUP1 REVERT JUMPDEST POP PUSH2 0x208 PUSH2 0x313 CALLDATASIZE PUSH1 0x4 PUSH2 0x2468 JUMP JUMPDEST PUSH2 0x9D9 JUMP JUMPDEST CALLVALUE DUP1 ISZERO PUSH2 0x324 JUMPI PUSH1 0x0 DUP1 REVERT JUMPDEST POP PUSH2 0x338 PUSH2 0x333 CALLDATASIZE PUSH1 0x4 PUSH2 0x24AD JUMP JUMPDEST PUSH2 0x9FB JUMP JUMPDEST PUSH1 0x40 MLOAD PUSH2 0x267 SWAP5 SWAP4 SWAP3 SWAP2 SWAP1 PUSH6 0xFFFFFFFFFFFF SWAP5 DUP6 AND DUP2 MSTORE PUSH4 0xFFFFFFFF SWAP4 DUP5 AND PUSH1 0x20 DUP3 ADD MSTORE SWAP2 SWAP1 SWAP3 AND PUSH1 0x40 DUP3 ADD MSTORE SWAP2 AND PUSH1 0x60 DUP3 ADD MSTORE PUSH1 0x80 ADD SWAP1 JUMP JUMPDEST CALLVALUE DUP1 ISZERO PUSH2 0x37E JUMPI PUSH1 0x0 DUP1 REVERT JUMPDEST POP PUSH2 0x208 PUSH2 0x38D CALLDATASIZE PUSH1 0x4 PUSH2 0x24C9 JUMP JUMPDEST PUSH2 0xA63 JUMP JUMPDEST CALLVALUE DUP1 ISZERO PUSH2 0x39E JUMPI PUSH1 0x0 DUP1 REVERT JUMPDEST POP PUSH2 0x3B2 PUSH2 0x3AD CALLDATASIZE PUSH1 0x4 PUSH2 0x24FC JUMP JUMPDEST PUSH2 0xA75 JUMP JUMPDEST PUSH1 0x40 MLOAD PUSH6 0xFFFFFFFFFFFF SWAP1 SWAP2 AND DUP2 MSTORE PUSH1 0x20 ADD PUSH2 0x267 JUMP JUMPDEST CALLVALUE DUP1 ISZERO PUSH2 0x3D5 JUMPI PUSH1 0x0 DUP1 REVERT JUMPDEST POP PUSH2 0x253 PUSH1 0x1 PUSH1 0x1 PUSH1 0x40 SHL SUB DUP2 JUMP JUMPDEST CALLVALUE DUP1 ISZERO PUSH2 0x3F0 JUMPI PUSH1 0x0 DUP1 REVERT JUMPDEST POP PUSH2 0x290 PUSH2 0x3FF CALLDATASIZE PUSH1 0x4 PUSH2 0x24FC JUMP JUMPDEST PUSH1 0x0 SWAP1 DUP2 MSTORE PUSH1 0x2 PUSH1 0x20 MSTORE PUSH1 0x40 SWAP1 KECCAK256 SLOAD PUSH7 0x1000000000000 SWAP1 DIV PUSH4 0xFFFFFFFF AND SWAP1 JUMP JUMPDEST CALLVALUE DUP1 ISZERO PUSH2 0x42D JUMPI PUSH1 0x0 DUP1 REVERT JUMPDEST POP PUSH3 0x93A80 PUSH2 0x290 JUMP JUMPDEST CALLVALUE DUP1 ISZERO PUSH2 0x443 JUMPI PUSH1 0x0 DUP1 REVERT JUMPDEST POP PUSH2 0x290 PUSH2 0x452 CALLDATASIZE PUSH1 0x4 PUSH2 0x2515 JUMP JUMPDEST PUSH2 0xAA8 JUMP JUMPDEST CALLVALUE DUP1 ISZERO PUSH2 0x463 JUMPI PUSH1 0x0 DUP1 REVERT JUMPDEST POP PUSH2 0x208 PUSH2 0x472 CALLDATASIZE PUSH1 0x4 PUSH2 0x24C9 JUMP JUMPDEST PUSH2 0xAD6 JUMP JUMPDEST CALLVALUE DUP1 ISZERO PUSH2 0x483 JUMPI PUSH1 0x0 DUP1 REVERT JUMPDEST POP PUSH2 0x253 PUSH2 0x492 CALLDATASIZE PUSH1 0x4 PUSH2 0x2338 JUMP JUMPDEST PUSH1 0x1 PUSH1 0x1 PUSH1 0x40 SHL SUB SWAP1 DUP2 AND PUSH1 0x0 SWAP1 DUP2 MSTORE PUSH1 0x1 PUSH1 0x20 DUP2 SWAP1 MSTORE PUSH1 0x40 SWAP1 SWAP2 KECCAK256 ADD SLOAD AND SWAP1 JUMP JUMPDEST CALLVALUE DUP1 ISZERO PUSH2 0x4C0 JUMPI PUSH1 0x0 DUP1 REVERT JUMPDEST POP PUSH2 0x253 PUSH2 0x4CF CALLDATASIZE PUSH1 0x4 PUSH2 0x2548 JUMP JUMPDEST PUSH1 0x1 PUSH1 0x1 PUSH1 0xA0 SHL SUB DUP3 AND PUSH1 0x0 SWAP1 DUP2 MSTORE PUSH1 0x20 DUP2 DUP2 MSTORE PUSH1 0x40 DUP1 DUP4 KECCAK256 PUSH1 0x1 PUSH1 0x1 PUSH1 0xE0 SHL SUB NOT DUP6 AND DUP5 MSTORE SWAP1 SWAP2 MSTORE SWAP1 KECCAK256 SLOAD PUSH1 0x1 PUSH1 0x1 PUSH1 0x40 SHL SUB AND SWAP3 SWAP2 POP POP JUMP JUMPDEST CALLVALUE DUP1 ISZERO PUSH2 0x516 JUMPI PUSH1 0x0 DUP1 REVERT JUMPDEST POP PUSH2 0x253 PUSH1 0x0 DUP2 JUMP JUMPDEST CALLVALUE DUP1 ISZERO PUSH2 0x52B JUMPI PUSH1 0x0 DUP1 REVERT JUMPDEST POP PUSH2 0x208 PUSH2 0x53A CALLDATASIZE PUSH1 0x4 PUSH2 0x2576 JUMP JUMPDEST PUSH2 0xAE8 JUMP JUMPDEST CALLVALUE DUP1 ISZERO PUSH2 0x54B JUMPI PUSH1 0x0 DUP1 REVERT JUMPDEST POP PUSH2 0x208 PUSH2 0x55A CALLDATASIZE PUSH1 0x4 PUSH2 0x2400 JUMP JUMPDEST PUSH2 0xB7F JUMP JUMPDEST CALLVALUE DUP1 ISZERO PUSH2 0x56B JUMPI PUSH1 0x0 DUP1 REVERT JUMPDEST POP PUSH2 0x5A2 PUSH2 0x57A CALLDATASIZE PUSH1 0x4 PUSH2 0x2515 JUMP JUMPDEST PUSH1 0x1 PUSH1 0x1 PUSH1 0xA0 SHL SUB AND PUSH1 0x0 SWAP1 DUP2 MSTORE PUSH1 0x20 DUP2 SWAP1 MSTORE PUSH1 0x40 SWAP1 KECCAK256 PUSH1 0x1 ADD SLOAD PUSH1 0x1 PUSH1 0x70 SHL SWAP1 DIV PUSH1 0xFF AND SWAP1 JUMP JUMPDEST PUSH1 0x40 MLOAD SWAP1 ISZERO ISZERO DUP2 MSTORE PUSH1 0x20 ADD PUSH2 0x267 JUMP JUMPDEST CALLVALUE DUP1 ISZERO PUSH2 0x5BE JUMPI PUSH1 0x0 DUP1 REVERT JUMPDEST POP PUSH2 0x208 PUSH2 0x5CD CALLDATASIZE PUSH1 0x4 PUSH2 0x2594 JUMP JUMPDEST PUSH2 0xC2B JUMP JUMPDEST CALLVALUE DUP1 ISZERO PUSH2 0x5DE JUMPI PUSH1 0x0 DUP1 REVERT JUMPDEST POP PUSH2 0x5F2 PUSH2 0x5ED CALLDATASIZE PUSH1 0x4 PUSH2 0x25BE JUMP JUMPDEST PUSH2 0xC3D JUMP JUMPDEST PUSH1 0x40 MLOAD SWAP1 DUP2 MSTORE PUSH1 0x20 ADD PUSH2 0x267 JUMP JUMPDEST CALLVALUE DUP1 ISZERO PUSH2 0x60C JUMPI PUSH1 0x0 DUP1 REVERT JUMPDEST POP PUSH2 0x620 PUSH2 0x61B CALLDATASIZE PUSH1 0x4 PUSH2 0x2622 JUMP JUMPDEST PUSH2 0xC76 JUMP JUMPDEST PUSH1 0x40 MLOAD PUSH2 0x267 SWAP2 SWAP1 PUSH2 0x2687 JUMP JUMPDEST CALLVALUE DUP1 ISZERO PUSH2 0x639 JUMPI PUSH1 0x0 DUP1 REVERT JUMPDEST POP PUSH2 0x64D PUSH2 0x648 CALLDATASIZE PUSH1 0x4 PUSH2 0x2701 JUMP JUMPDEST PUSH2 0xD68 JUMP JUMPDEST PUSH1 0x40 DUP1 MLOAD SWAP3 ISZERO ISZERO DUP4 MSTORE PUSH4 0xFFFFFFFF SWAP1 SWAP2 AND PUSH1 0x20 DUP4 ADD MSTORE ADD PUSH2 0x267 JUMP JUMPDEST CALLVALUE DUP1 ISZERO PUSH2 0x675 JUMPI PUSH1 0x0 DUP1 REVERT JUMPDEST POP PUSH2 0x208 PUSH2 0x684 CALLDATASIZE PUSH1 0x4 PUSH2 0x24AD JUMP JUMPDEST PUSH2 0xE68 JUMP JUMPDEST CALLVALUE DUP1 ISZERO PUSH2 0x695 JUMPI PUSH1 0x0 DUP1 REVERT JUMPDEST POP PUSH3 0x69780 PUSH2 0x290 JUMP JUMPDEST CALLVALUE DUP1 ISZERO PUSH2 0x6AB JUMPI PUSH1 0x0 DUP1 REVERT JUMPDEST POP PUSH2 0x64D PUSH2 0x6BA CALLDATASIZE PUSH1 0x4 PUSH2 0x24AD JUMP JUMPDEST PUSH2 0xE7F JUMP JUMPDEST CALLVALUE DUP1 ISZERO PUSH2 0x6CB JUMPI PUSH1 0x0 DUP1 REVERT JUMPDEST POP PUSH2 0x208 PUSH2 0x6DA CALLDATASIZE PUSH1 0x4 PUSH2 0x274C JUMP JUMPDEST PUSH2 0xEFC JUMP JUMPDEST CALLVALUE DUP1 ISZERO PUSH2 0x6EB JUMPI PUSH1 0x0 DUP1 REVERT JUMPDEST POP PUSH2 0x290 PUSH2 0x6FA CALLDATASIZE PUSH1 0x4 PUSH2 0x25BE JUMP JUMPDEST PUSH2 0xF0E JUMP JUMPDEST CALLVALUE DUP1 ISZERO PUSH2 0x70B JUMPI PUSH1 0x0 DUP1 REVERT JUMPDEST POP PUSH2 0x71F PUSH2 0x71A CALLDATASIZE PUSH1 0x4 PUSH2 0x276A JUMP JUMPDEST PUSH2 0x109D JUMP JUMPDEST PUSH1 0x40 DUP1 MLOAD SWAP3 DUP4 MSTORE PUSH4 0xFFFFFFFF SWAP1 SWAP2 AND PUSH1 0x20 DUP4 ADD MSTORE ADD PUSH2 0x267 JUMP JUMPDEST CALLVALUE DUP1 ISZERO PUSH2 0x745 JUMPI PUSH1 0x0 DUP1 REVERT JUMPDEST POP PUSH2 0x208 PUSH2 0x754 CALLDATASIZE PUSH1 0x4 PUSH2 0x24AD JUMP JUMPDEST PUSH2 0x11E5 JUMP JUMPDEST PUSH2 0x761 PUSH2 0x120E JUMP JUMPDEST PUSH1 0x0 JUMPDEST DUP3 DUP2 LT ISZERO PUSH2 0x7AD JUMPI PUSH2 0x79D DUP6 DUP6 DUP6 DUP5 DUP2 DUP2 LT PUSH2 0x782 JUMPI PUSH2 0x782 PUSH2 0x27DC JUMP JUMPDEST SWAP1 POP PUSH1 0x20 MUL ADD PUSH1 0x20 DUP2 ADD SWAP1 PUSH2 0x797 SWAP2 SWAP1 PUSH2 0x27F2 JUMP JUMPDEST DUP5 PUSH2 0x1289 JUMP JUMPDEST PUSH2 0x7A6 DUP2 PUSH2 0x2825 JUMP JUMPDEST SWAP1 POP PUSH2 0x764 JUMP JUMPDEST POP POP POP POP POP JUMP JUMPDEST PUSH1 0x1 PUSH1 0x1 PUSH1 0x40 SHL SUB DUP2 AND PUSH1 0x0 SWAP1 DUP2 MSTORE PUSH1 0x1 PUSH1 0x20 DUP2 SWAP1 MSTORE PUSH1 0x40 DUP3 KECCAK256 ADD SLOAD PUSH2 0x7E9 SWAP1 PUSH1 0x1 PUSH1 0x80 SHL SWAP1 DIV PUSH1 0x1 PUSH1 0x1 PUSH1 0x70 SHL SUB AND PUSH2 0x130B JUMP JUMPDEST SWAP3 SWAP2 POP POP JUMP JUMPDEST PUSH2 0x7F7 PUSH2 0x120E JUMP JUMPDEST PUSH2 0x801 DUP3 DUP3 PUSH2 0x132A JUMP JUMPDEST POP POP JUMP JUMPDEST PUSH2 0x80D PUSH2 0x120E JUMP JUMPDEST PUSH1 0x40 MLOAD PUSH4 0x7A9E5E4B PUSH1 0xE0 SHL DUP2 MSTORE PUSH1 0x1 PUSH1 0x1 PUSH1 0xA0 SHL SUB DUP3 DUP2 AND PUSH1 0x4 DUP4 ADD MSTORE DUP4 AND SWAP1 PUSH4 0x7A9E5E4B SWAP1 PUSH1 0x24 ADD PUSH1 0x0 PUSH1 0x40 MLOAD DUP1 DUP4 SUB DUP2 PUSH1 0x0 DUP8 DUP1 EXTCODESIZE ISZERO DUP1 ISZERO PUSH2 0x850 JUMPI PUSH1 0x0 DUP1 REVERT JUMPDEST POP GAS CALL ISZERO DUP1 ISZERO PUSH2 0x864 JUMPI RETURNDATASIZE PUSH1 0x0 DUP1 RETURNDATACOPY RETURNDATASIZE PUSH1 0x0 REVERT JUMPDEST POP POP POP POP POP POP JUMP JUMPDEST PUSH1 0x0 CALLER DUP2 DUP1 PUSH2 0x87D DUP4 DUP9 DUP9 DUP9 PUSH2 0x13DB JUMP JUMPDEST SWAP2 POP SWAP2 POP DUP2 ISZERO DUP1 ISZERO PUSH2 0x893 JUMPI POP PUSH4 0xFFFFFFFF DUP2 AND ISZERO JUMPDEST ISZERO PUSH2 0x8E6 JUMPI DUP3 DUP8 PUSH2 0x8A4 DUP9 DUP9 PUSH2 0x142E JUMP JUMPDEST PUSH1 0x40 MLOAD PUSH4 0x81C6F24B PUSH1 0xE0 SHL DUP2 MSTORE PUSH1 0x1 PUSH1 0x1 PUSH1 0xA0 SHL SUB SWAP4 DUP5 AND PUSH1 0x4 DUP3 ADD MSTORE SWAP3 SWAP1 SWAP2 AND PUSH1 0x24 DUP4 ADD MSTORE PUSH1 0x1 PUSH1 0x1 PUSH1 0xE0 SHL SUB NOT AND PUSH1 0x44 DUP3 ADD MSTORE PUSH1 0x64 ADD JUMPDEST PUSH1 0x40 MLOAD DUP1 SWAP2 SUB SWAP1 REVERT JUMPDEST PUSH1 0x0 PUSH2 0x8F4 DUP5 DUP10 DUP10 DUP10 PUSH2 0xC3D JUMP JUMPDEST SWAP1 POP PUSH1 0x0 PUSH4 0xFFFFFFFF DUP4 AND ISZERO ISZERO DUP1 PUSH2 0x91B JUMPI POP PUSH2 0x910 DUP3 PUSH2 0xA75 JUMP JUMPDEST PUSH6 0xFFFFFFFFFFFF AND ISZERO ISZERO JUMPDEST ISZERO PUSH2 0x92C JUMPI PUSH2 0x929 DUP3 PUSH2 0x1446 JUMP JUMPDEST SWAP1 POP JUMPDEST PUSH1 0x3 SLOAD PUSH2 0x97F DUP11 PUSH2 0x93D DUP12 DUP12 PUSH2 0x142E JUMP JUMPDEST PUSH1 0x40 DUP1 MLOAD PUSH1 0x1 PUSH1 0x1 PUSH1 0xA0 SHL SUB SWAP4 SWAP1 SWAP4 AND PUSH1 0x20 DUP1 DUP6 ADD SWAP2 SWAP1 SWAP2 MSTORE PUSH1 0x1 PUSH1 0x1 PUSH1 0xE0 SHL SUB NOT SWAP3 SWAP1 SWAP3 AND DUP4 DUP3 ADD MSTORE DUP1 MLOAD DUP1 DUP5 SUB DUP3 ADD DUP2 MSTORE PUSH1 0x60 SWAP1 SWAP4 ADD SWAP1 MSTORE DUP2 MLOAD SWAP2 ADD KECCAK256 SWAP1 JUMP JUMPDEST PUSH1 0x3 DUP2 SWAP1 SSTORE POP PUSH2 0x9C7 DUP11 DUP11 DUP11 DUP1 DUP1 PUSH1 0x1F ADD PUSH1 0x20 DUP1 SWAP2 DIV MUL PUSH1 0x20 ADD PUSH1 0x40 MLOAD SWAP1 DUP2 ADD PUSH1 0x40 MSTORE DUP1 SWAP4 SWAP3 SWAP2 SWAP1 DUP2 DUP2 MSTORE PUSH1 0x20 ADD DUP4 DUP4 DUP1 DUP3 DUP5 CALLDATACOPY PUSH1 0x0 SWAP3 ADD SWAP2 SWAP1 SWAP2 MSTORE POP CALLVALUE SWAP3 POP PUSH2 0x1549 SWAP2 POP POP JUMP JUMPDEST POP PUSH1 0x3 SSTORE SWAP5 POP POP POP POP POP JUMPDEST SWAP4 SWAP3 POP POP POP JUMP JUMPDEST PUSH2 0x9E1 PUSH2 0x120E JUMP JUMPDEST PUSH2 0x9F5 DUP4 DUP4 PUSH2 0x9EF DUP7 PUSH2 0x7B4 JUMP JUMPDEST DUP5 PUSH2 0x15E6 JUMP JUMPDEST POP POP POP POP JUMP JUMPDEST PUSH1 0x1 PUSH1 0x1 PUSH1 0x40 SHL SUB DUP3 AND PUSH1 0x0 SWAP1 DUP2 MSTORE PUSH1 0x1 PUSH1 0x20 SWAP1 DUP2 MSTORE PUSH1 0x40 DUP1 DUP4 KECCAK256 PUSH1 0x1 PUSH1 0x1 PUSH1 0xA0 SHL SUB DUP6 AND DUP5 MSTORE SWAP1 SWAP2 MSTORE DUP2 KECCAK256 DUP1 SLOAD PUSH6 0xFFFFFFFFFFFF DUP2 AND SWAP3 SWAP2 DUP3 SWAP2 DUP3 SWAP2 SWAP1 PUSH2 0xA55 SWAP1 PUSH7 0x1000000000000 SWAP1 DIV PUSH1 0x1 PUSH1 0x1 PUSH1 0x70 SHL SUB AND PUSH2 0x1852 JUMP JUMPDEST SWAP7 SWAP10 SWAP2 SWAP9 POP SWAP7 POP SWAP4 POP POP POP POP JUMP JUMPDEST PUSH2 0xA6B PUSH2 0x120E JUMP JUMPDEST PUSH2 0x801 DUP3 DUP3 PUSH2 0x1875 JUMP JUMPDEST PUSH1 0x0 DUP2 DUP2 MSTORE PUSH1 0x2 PUSH1 0x20 MSTORE PUSH1 0x40 DUP2 KECCAK256 SLOAD PUSH6 0xFFFFFFFFFFFF AND PUSH2 0xA95 DUP2 PUSH2 0x1919 JUMP JUMPDEST PUSH2 0xA9F JUMPI DUP1 PUSH2 0x9D2 JUMP JUMPDEST PUSH1 0x0 SWAP4 SWAP3 POP POP POP JUMP JUMPDEST PUSH1 0x1 PUSH1 0x1 PUSH1 0xA0 SHL SUB DUP2 AND PUSH1 0x0 SWAP1 DUP2 MSTORE PUSH1 0x20 DUP2 SWAP1 MSTORE PUSH1 0x40 DUP2 KECCAK256 PUSH1 0x1 ADD SLOAD PUSH2 0x7E9 SWAP1 PUSH1 0x1 PUSH1 0x1 PUSH1 0x70 SHL SUB AND PUSH2 0x130B JUMP JUMPDEST PUSH2 0xADE PUSH2 0x120E JUMP JUMPDEST PUSH2 0x801 DUP3 DUP3 PUSH2 0x1948 JUMP JUMPDEST PUSH2 0xAF0 PUSH2 0x120E JUMP JUMPDEST PUSH1 0x1 PUSH1 0x1 PUSH1 0x40 SHL SUB DUP4 AND ISZERO DUP1 PUSH2 0xB0E JUMPI POP PUSH1 0x1 PUSH1 0x1 PUSH1 0x40 SHL SUB DUP4 DUP2 AND EQ JUMPDEST ISZERO PUSH2 0xB37 JUMPI PUSH1 0x40 MLOAD PUSH4 0x61C6A43 PUSH1 0xE2 SHL DUP2 MSTORE PUSH1 0x1 PUSH1 0x1 PUSH1 0x40 SHL SUB DUP5 AND PUSH1 0x4 DUP3 ADD MSTORE PUSH1 0x24 ADD PUSH2 0x8DD JUMP JUMPDEST DUP3 PUSH1 0x1 PUSH1 0x1 PUSH1 0x40 SHL SUB AND PUSH32 0x1256F5B5ECB89CAEC12DB449738F2FBCD1BA5806CF38F35413F4E5C15BF6A450 DUP4 DUP4 PUSH1 0x40 MLOAD PUSH2 0xB72 SWAP3 SWAP2 SWAP1 PUSH2 0x2867 JUMP JUMPDEST PUSH1 0x40 MLOAD DUP1 SWAP2 SUB SWAP1 LOG2 POP POP POP JUMP JUMPDEST PUSH1 0x40 DUP1 MLOAD PUSH4 0x8FB36037 PUSH1 0xE0 SHL DUP1 DUP3 MSTORE SWAP2 MLOAD CALLER SWAP3 SWAP2 DUP4 SWAP2 PUSH4 0x8FB36037 SWAP2 PUSH1 0x4 DUP1 DUP3 ADD SWAP3 PUSH1 0x20 SWAP3 SWAP1 SWAP2 SWAP1 DUP3 SWAP1 SUB ADD DUP2 DUP7 GAS STATICCALL ISZERO DUP1 ISZERO PUSH2 0xBC0 JUMPI RETURNDATASIZE PUSH1 0x0 DUP1 RETURNDATACOPY RETURNDATASIZE PUSH1 0x0 REVERT JUMPDEST POP POP POP POP PUSH1 0x40 MLOAD RETURNDATASIZE PUSH1 0x1F NOT PUSH1 0x1F DUP3 ADD AND DUP3 ADD DUP1 PUSH1 0x40 MSTORE POP DUP2 ADD SWAP1 PUSH2 0xBE4 SWAP2 SWAP1 PUSH2 0x2883 JUMP JUMPDEST PUSH1 0x1 PUSH1 0x1 PUSH1 0xE0 SHL SUB NOT AND EQ PUSH2 0xC17 JUMPI PUSH1 0x40 MLOAD PUSH4 0x641FEE9 PUSH1 0xE3 SHL DUP2 MSTORE PUSH1 0x1 PUSH1 0x1 PUSH1 0xA0 SHL SUB DUP3 AND PUSH1 0x4 DUP3 ADD MSTORE PUSH1 0x24 ADD PUSH2 0x8DD JUMP JUMPDEST PUSH2 0x7AD PUSH2 0xC26 DUP6 DUP4 DUP7 DUP7 PUSH2 0xC3D JUMP JUMPDEST PUSH2 0x1446 JUMP JUMPDEST PUSH2 0xC33 PUSH2 0x120E JUMP JUMPDEST PUSH2 0x801 DUP3 DUP3 PUSH2 0x19FF JUMP JUMPDEST PUSH1 0x0 DUP5 DUP5 DUP5 DUP5 PUSH1 0x40 MLOAD PUSH1 0x20 ADD PUSH2 0xC56 SWAP5 SWAP4 SWAP3 SWAP2 SWAP1 PUSH2 0x28A0 JUMP JUMPDEST PUSH1 0x40 MLOAD PUSH1 0x20 DUP2 DUP4 SUB SUB DUP2 MSTORE SWAP1 PUSH1 0x40 MSTORE DUP1 MLOAD SWAP1 PUSH1 0x20 ADD KECCAK256 SWAP1 POP SWAP5 SWAP4 POP POP POP POP JUMP JUMPDEST PUSH1 0x40 DUP1 MLOAD PUSH1 0x0 DUP2 MSTORE PUSH1 0x20 DUP2 ADD SWAP1 SWAP2 MSTORE PUSH1 0x60 SWAP1 DUP3 PUSH1 0x1 PUSH1 0x1 PUSH1 0x40 SHL SUB DUP2 GT ISZERO PUSH2 0xCA0 JUMPI PUSH2 0xCA0 PUSH2 0x28F7 JUMP JUMPDEST PUSH1 0x40 MLOAD SWAP1 DUP1 DUP3 MSTORE DUP1 PUSH1 0x20 MUL PUSH1 0x20 ADD DUP3 ADD PUSH1 0x40 MSTORE DUP1 ISZERO PUSH2 0xCD3 JUMPI DUP2 PUSH1 0x20 ADD JUMPDEST PUSH1 0x60 DUP2 MSTORE PUSH1 0x20 ADD SWAP1 PUSH1 0x1 SWAP1 SUB SWAP1 DUP2 PUSH2 0xCBE JUMPI SWAP1 POP JUMPDEST POP SWAP2 POP PUSH1 0x0 JUMPDEST DUP4 DUP2 LT ISZERO PUSH2 0xD60 JUMPI PUSH2 0xD30 ADDRESS DUP7 DUP7 DUP5 DUP2 DUP2 LT PUSH2 0xCF7 JUMPI PUSH2 0xCF7 PUSH2 0x27DC JUMP JUMPDEST SWAP1 POP PUSH1 0x20 MUL DUP2 ADD SWAP1 PUSH2 0xD09 SWAP2 SWAP1 PUSH2 0x290D JUMP JUMPDEST DUP6 PUSH1 0x40 MLOAD PUSH1 0x20 ADD PUSH2 0xD1C SWAP4 SWAP3 SWAP2 SWAP1 PUSH2 0x2953 JUMP JUMPDEST PUSH1 0x40 MLOAD PUSH1 0x20 DUP2 DUP4 SUB SUB DUP2 MSTORE SWAP1 PUSH1 0x40 MSTORE PUSH2 0x1B1E JUMP JUMPDEST DUP4 DUP3 DUP2 MLOAD DUP2 LT PUSH2 0xD42 JUMPI PUSH2 0xD42 PUSH2 0x27DC JUMP JUMPDEST PUSH1 0x20 MUL PUSH1 0x20 ADD ADD DUP2 SWAP1 MSTORE POP DUP1 DUP1 PUSH2 0xD58 SWAP1 PUSH2 0x2825 JUMP JUMPDEST SWAP2 POP POP PUSH2 0xCD9 JUMP JUMPDEST POP POP SWAP3 SWAP2 POP POP JUMP JUMPDEST PUSH1 0x1 PUSH1 0x1 PUSH1 0xA0 SHL SUB DUP3 AND PUSH1 0x0 SWAP1 DUP2 MSTORE PUSH1 0x20 DUP2 SWAP1 MSTORE PUSH1 0x40 DUP2 KECCAK256 PUSH1 0x1 ADD SLOAD DUP2 SWAP1 PUSH1 0x1 PUSH1 0x70 SHL SWAP1 DIV PUSH1 0xFF AND ISZERO PUSH2 0xDA0 JUMPI POP PUSH1 0x0 SWAP1 POP DUP1 PUSH2 0xE60 JUMP JUMPDEST ADDRESS PUSH1 0x1 PUSH1 0x1 PUSH1 0xA0 SHL SUB DUP7 AND SUB PUSH2 0xDFC JUMPI PUSH1 0x40 DUP1 MLOAD PUSH1 0x1 PUSH1 0x1 PUSH1 0xA0 SHL SUB DUP7 AND PUSH1 0x20 DUP1 DUP4 ADD SWAP2 SWAP1 SWAP2 MSTORE PUSH1 0x1 PUSH1 0x1 PUSH1 0xE0 SHL SUB NOT DUP7 AND DUP3 DUP5 ADD MSTORE DUP3 MLOAD DUP1 DUP4 SUB DUP5 ADD DUP2 MSTORE PUSH1 0x60 SWAP1 SWAP3 ADD SWAP1 SWAP3 MSTORE DUP1 MLOAD SWAP2 ADD KECCAK256 PUSH1 0x3 SLOAD EQ JUMPDEST PUSH1 0x0 SWAP2 POP SWAP2 POP PUSH2 0xE60 JUMP JUMPDEST PUSH1 0x1 PUSH1 0x1 PUSH1 0xA0 SHL SUB DUP5 AND PUSH1 0x0 SWAP1 DUP2 MSTORE PUSH1 0x20 DUP2 DUP2 MSTORE PUSH1 0x40 DUP1 DUP4 KECCAK256 PUSH1 0x1 PUSH1 0x1 PUSH1 0xE0 SHL SUB NOT DUP8 AND DUP5 MSTORE SWAP1 SWAP2 MSTORE DUP2 KECCAK256 SLOAD PUSH1 0x1 PUSH1 0x1 PUSH1 0x40 SHL SUB AND SWAP1 DUP1 PUSH2 0xE3D DUP4 DUP10 PUSH2 0xE7F JUMP JUMPDEST SWAP2 POP SWAP2 POP DUP2 PUSH2 0xE4E JUMPI PUSH1 0x0 DUP1 PUSH2 0xE58 JUMP JUMPDEST PUSH4 0xFFFFFFFF DUP2 AND ISZERO DUP2 JUMPDEST SWAP5 POP SWAP5 POP POP POP POP JUMPDEST SWAP4 POP SWAP4 SWAP2 POP POP JUMP JUMPDEST PUSH2 0xE70 PUSH2 0x120E JUMP JUMPDEST PUSH2 0xE7A DUP3 DUP3 PUSH2 0x1B94 JUMP JUMPDEST POP POP POP JUMP JUMPDEST PUSH1 0x0 DUP1 PUSH8 0xFFFFFFFFFFFFFFFE NOT PUSH1 0x1 PUSH1 0x1 PUSH1 0x40 SHL SUB DUP6 AND ADD PUSH2 0xEA7 JUMPI POP PUSH1 0x1 SWAP1 POP PUSH1 0x0 PUSH2 0xEF5 JUMP JUMPDEST PUSH1 0x0 DUP1 PUSH2 0xEB4 DUP7 DUP7 PUSH2 0x9FB JUMP JUMPDEST POP POP SWAP2 POP SWAP2 POP DUP2 PUSH6 0xFFFFFFFFFFFF AND PUSH1 0x0 EQ ISZERO DUP1 ISZERO PUSH2 0xEEA JUMPI POP PUSH2 0xED6 PUSH2 0x1C8E JUMP JUMPDEST PUSH6 0xFFFFFFFFFFFF AND DUP3 PUSH6 0xFFFFFFFFFFFF AND GT ISZERO JUMPDEST SWAP4 POP SWAP2 POP PUSH2 0xEF5 SWAP1 POP JUMP JUMPDEST SWAP3 POP SWAP3 SWAP1 POP JUMP JUMPDEST PUSH2 0xF04 PUSH2 0x120E JUMP JUMPDEST PUSH2 0x801 DUP3 DUP3 PUSH2 0x1C9E JUMP JUMPDEST PUSH1 0x0 CALLER DUP2 PUSH2 0xF1C DUP6 DUP6 PUSH2 0x142E JUMP JUMPDEST SWAP1 POP PUSH1 0x0 PUSH2 0xF2C DUP9 DUP9 DUP9 DUP9 PUSH2 0xC3D JUMP JUMPDEST PUSH1 0x0 DUP2 DUP2 MSTORE PUSH1 0x2 PUSH1 0x20 MSTORE PUSH1 0x40 DUP2 KECCAK256 SLOAD SWAP2 SWAP3 POP PUSH6 0xFFFFFFFFFFFF SWAP1 SWAP2 AND SWAP1 SUB PUSH2 0xF6A JUMPI PUSH1 0x40 MLOAD PUSH4 0x60A299B PUSH1 0xE4 SHL DUP2 MSTORE PUSH1 0x4 DUP2 ADD DUP3 SWAP1 MSTORE PUSH1 0x24 ADD PUSH2 0x8DD JUMP JUMPDEST DUP3 PUSH1 0x1 PUSH1 0x1 PUSH1 0xA0 SHL SUB AND DUP9 PUSH1 0x1 PUSH1 0x1 PUSH1 0xA0 SHL SUB AND EQ PUSH2 0x1038 JUMPI PUSH1 0x0 PUSH2 0xF90 PUSH1 0x0 DUP6 PUSH2 0xE7F JUMP JUMPDEST POP PUSH1 0x1 PUSH1 0x1 PUSH1 0xA0 SHL SUB DUP10 AND PUSH1 0x0 SWAP1 DUP2 MSTORE PUSH1 0x20 DUP2 DUP2 MSTORE PUSH1 0x40 DUP1 DUP4 KECCAK256 PUSH1 0x1 PUSH1 0x1 PUSH1 0xE0 SHL SUB NOT DUP9 AND DUP5 MSTORE SWAP1 SWAP2 MSTORE DUP2 KECCAK256 SLOAD SWAP2 SWAP3 POP SWAP1 PUSH2 0xFDD SWAP1 PUSH2 0xFD7 SWAP1 PUSH1 0x1 PUSH1 0x1 PUSH1 0x40 SHL SUB AND PUSH2 0x225 JUMP JUMPDEST DUP7 PUSH2 0xE7F JUMP JUMPDEST POP SWAP1 POP DUP2 ISZERO DUP1 ISZERO PUSH2 0xFEC JUMPI POP DUP1 ISZERO JUMPDEST ISZERO PUSH2 0x1035 JUMPI PUSH1 0x40 MLOAD PUSH4 0xFF89D47 PUSH1 0xE2 SHL DUP2 MSTORE PUSH1 0x1 PUSH1 0x1 PUSH1 0xA0 SHL SUB DUP1 DUP8 AND PUSH1 0x4 DUP4 ADD MSTORE DUP1 DUP13 AND PUSH1 0x24 DUP4 ADD MSTORE DUP11 AND PUSH1 0x44 DUP3 ADD MSTORE PUSH1 0x1 PUSH1 0x1 PUSH1 0xE0 SHL SUB NOT DUP6 AND PUSH1 0x64 DUP3 ADD MSTORE PUSH1 0x84 ADD PUSH2 0x8DD JUMP JUMPDEST POP POP JUMPDEST PUSH1 0x0 DUP2 DUP2 MSTORE PUSH1 0x2 PUSH1 0x20 MSTORE PUSH1 0x40 DUP1 DUP3 KECCAK256 DUP1 SLOAD PUSH6 0xFFFFFFFFFFFF NOT AND SWAP1 DUP2 SWAP1 SSTORE SWAP1 MLOAD PUSH7 0x1000000000000 SWAP1 SWAP2 DIV PUSH4 0xFFFFFFFF AND SWAP2 DUP3 SWAP2 DUP5 SWAP2 PUSH32 0xBD9AC67A6E2F6463B80927326310338BCBB4BDB7936CE1365EA3E01067E7B9F7 SWAP2 LOG3 SWAP9 SWAP8 POP POP POP POP POP POP POP POP JUMP JUMPDEST PUSH1 0x0 DUP1 CALLER DUP2 PUSH2 0x10AE DUP3 DUP10 DUP10 DUP10 PUSH2 0x13DB JUMP JUMPDEST SWAP2 POP POP PUSH1 0x0 DUP2 PUSH4 0xFFFFFFFF AND PUSH2 0x10C2 PUSH2 0x1C8E JUMP JUMPDEST PUSH2 0x10CC SWAP2 SWAP1 PUSH2 0x297A JUMP JUMPDEST SWAP1 POP PUSH4 0xFFFFFFFF DUP3 AND ISZERO DUP1 PUSH2 0x1103 JUMPI POP PUSH1 0x0 DUP7 PUSH6 0xFFFFFFFFFFFF AND GT DUP1 ISZERO PUSH2 0x1103 JUMPI POP DUP1 PUSH6 0xFFFFFFFFFFFF AND DUP7 PUSH6 0xFFFFFFFFFFFF AND LT JUMPDEST ISZERO PUSH2 0x1114 JUMPI DUP3 DUP10 PUSH2 0x8A4 DUP11 DUP11 PUSH2 0x142E JUMP JUMPDEST PUSH2 0x112E DUP7 PUSH6 0xFFFFFFFFFFFF AND DUP3 PUSH6 0xFFFFFFFFFFFF AND PUSH2 0x1D5B JUMP JUMPDEST SWAP6 POP PUSH2 0x113C DUP4 DUP11 DUP11 DUP11 PUSH2 0xC3D JUMP JUMPDEST SWAP5 POP PUSH2 0x1147 DUP6 PUSH2 0x1D71 JUMP JUMPDEST PUSH1 0x0 DUP6 DUP2 MSTORE PUSH1 0x2 PUSH1 0x20 MSTORE PUSH1 0x40 SWAP1 DUP2 SWAP1 KECCAK256 DUP1 SLOAD PUSH6 0xFFFFFFFFFFFF DUP10 AND PUSH10 0xFFFFFFFFFFFFFFFFFFFF NOT DUP3 AND OR PUSH7 0x1000000000000 SWAP2 DUP3 SWAP1 DIV PUSH4 0xFFFFFFFF SWAP1 DUP2 AND PUSH1 0x1 ADD SWAP1 DUP2 AND SWAP3 DUP4 MUL SWAP2 SWAP1 SWAP2 OR SWAP1 SWAP3 SSTORE SWAP2 MLOAD SWAP1 SWAP6 POP DUP7 SWAP1 PUSH32 0x82A2DA5DEE54EA8021C6545B4444620291E07EE83BE6DD57EDB175062715F3B4 SWAP1 PUSH2 0x11D1 SWAP1 DUP11 SWAP1 DUP9 SWAP1 DUP16 SWAP1 DUP16 SWAP1 DUP16 SWAP1 PUSH2 0x29A0 JUMP JUMPDEST PUSH1 0x40 MLOAD DUP1 SWAP2 SUB SWAP1 LOG3 POP POP POP SWAP5 POP SWAP5 SWAP3 POP POP POP JUMP JUMPDEST PUSH1 0x1 PUSH1 0x1 PUSH1 0xA0 SHL SUB DUP2 AND CALLER EQ PUSH2 0xE70 JUMPI PUSH1 0x40 MLOAD PUSH4 0x5F159E63 PUSH1 0xE0 SHL DUP2 MSTORE PUSH1 0x4 ADD PUSH1 0x40 MLOAD DUP1 SWAP2 SUB SWAP1 REVERT JUMPDEST CALLER PUSH1 0x0 DUP1 PUSH2 0x121D DUP4 DUP3 CALLDATASIZE PUSH2 0x1DBE JUMP JUMPDEST SWAP2 POP SWAP2 POP DUP2 PUSH2 0xE7A JUMPI DUP1 PUSH4 0xFFFFFFFF AND PUSH1 0x0 SUB PUSH2 0x1279 JUMPI PUSH1 0x0 PUSH2 0x1240 DUP2 CALLDATASIZE PUSH2 0x1EB7 JUMP JUMPDEST POP PUSH1 0x40 MLOAD PUSH4 0xF07E038F PUSH1 0xE0 SHL DUP2 MSTORE PUSH1 0x1 PUSH1 0x1 PUSH1 0xA0 SHL SUB DUP8 AND PUSH1 0x4 DUP3 ADD MSTORE PUSH1 0x1 PUSH1 0x1 PUSH1 0x40 SHL SUB DUP3 AND PUSH1 0x24 DUP3 ADD MSTORE SWAP1 SWAP3 POP PUSH1 0x44 ADD SWAP1 POP PUSH2 0x8DD JUMP JUMPDEST PUSH2 0x9F5 PUSH2 0xC26 DUP5 ADDRESS PUSH1 0x0 CALLDATASIZE PUSH2 0xC3D JUMP JUMPDEST PUSH1 0x1 PUSH1 0x1 PUSH1 0xA0 SHL SUB DUP4 AND PUSH1 0x0 DUP2 DUP2 MSTORE PUSH1 0x20 DUP2 DUP2 MSTORE PUSH1 0x40 DUP1 DUP4 KECCAK256 PUSH1 0x1 PUSH1 0x1 PUSH1 0xE0 SHL SUB NOT DUP8 AND DUP1 DUP6 MSTORE SWAP1 DUP4 MSTORE SWAP3 DUP2 SWAP1 KECCAK256 DUP1 SLOAD PUSH8 0xFFFFFFFFFFFFFFFF NOT AND PUSH1 0x1 PUSH1 0x1 PUSH1 0x40 SHL SUB DUP8 AND SWAP1 DUP2 OR SWAP1 SWAP2 SSTORE SWAP1 MLOAD SWAP3 DUP4 MSTORE SWAP3 SWAP2 PUSH32 0x9EA6790C7DADFD01C9F8B9762B3682607AF2C7E79E05A9F9FDF5580DDE949151 SWAP2 ADD PUSH1 0x40 MLOAD DUP1 SWAP2 SUB SWAP1 LOG3 POP POP POP JUMP JUMPDEST PUSH1 0x0 DUP1 PUSH2 0x1320 DUP4 PUSH1 0x1 PUSH1 0x1 PUSH1 0x70 SHL SUB AND PUSH2 0x1852 JUMP JUMPDEST POP SWAP1 SWAP5 SWAP4 POP POP POP POP JUMP JUMPDEST ADDRESS PUSH1 0x1 PUSH1 0x1 PUSH1 0xA0 SHL SUB DUP4 AND SUB PUSH2 0x135E JUMPI PUSH1 0x40 MLOAD PUSH4 0xB40D179 PUSH1 0xE3 SHL DUP2 MSTORE PUSH1 0x1 PUSH1 0x1 PUSH1 0xA0 SHL SUB DUP4 AND PUSH1 0x4 DUP3 ADD MSTORE PUSH1 0x24 ADD PUSH2 0x8DD JUMP JUMPDEST PUSH1 0x1 PUSH1 0x1 PUSH1 0xA0 SHL SUB DUP3 AND PUSH1 0x0 DUP2 DUP2 MSTORE PUSH1 0x20 DUP2 SWAP1 MSTORE PUSH1 0x40 SWAP1 DUP2 SWAP1 KECCAK256 PUSH1 0x1 ADD DUP1 SLOAD DUP5 ISZERO ISZERO PUSH1 0x1 PUSH1 0x70 SHL MUL PUSH15 0xFF0000000000000000000000000000 NOT SWAP1 SWAP2 AND OR SWAP1 SSTORE MLOAD PUSH32 0x90D4E7BB7E5D933792B3562E1741306F8BE94837E1348DACEF9B6F1DF56EB138 SWAP1 PUSH2 0x13CF SWAP1 DUP5 ISZERO ISZERO DUP2 MSTORE PUSH1 0x20 ADD SWAP1 JUMP JUMPDEST PUSH1 0x40 MLOAD DUP1 SWAP2 SUB SWAP1 LOG2 POP POP JUMP JUMPDEST PUSH1 0x0 DUP1 ADDRESS PUSH1 0x1 PUSH1 0x1 PUSH1 0xA0 SHL SUB DUP7 AND SUB PUSH2 0x1402 JUMPI PUSH2 0x13F9 DUP7 DUP6 DUP6 PUSH2 0x1DBE JUMP JUMPDEST SWAP2 POP SWAP2 POP PUSH2 0x1425 JUMP JUMPDEST PUSH1 0x4 DUP4 LT PUSH2 0x141E JUMPI PUSH2 0x1419 DUP7 DUP7 PUSH2 0x648 DUP8 DUP8 PUSH2 0x142E JUMP JUMPDEST PUSH2 0x13F9 JUMP JUMPDEST POP PUSH1 0x0 SWAP1 POP DUP1 JUMPDEST SWAP5 POP SWAP5 SWAP3 POP POP POP JUMP JUMPDEST PUSH1 0x0 PUSH2 0x143D PUSH1 0x4 DUP3 DUP5 DUP7 PUSH2 0x28CD JUMP JUMPDEST PUSH2 0x9D2 SWAP2 PUSH2 0x29E6 JUMP JUMPDEST PUSH1 0x0 DUP2 DUP2 MSTORE PUSH1 0x2 PUSH1 0x20 MSTORE PUSH1 0x40 DUP2 KECCAK256 SLOAD PUSH6 0xFFFFFFFFFFFF DUP2 AND SWAP1 PUSH7 0x1000000000000 SWAP1 DIV PUSH4 0xFFFFFFFF AND DUP2 DUP4 SUB PUSH2 0x1492 JUMPI PUSH1 0x40 MLOAD PUSH4 0x60A299B PUSH1 0xE4 SHL DUP2 MSTORE PUSH1 0x4 DUP2 ADD DUP6 SWAP1 MSTORE PUSH1 0x24 ADD PUSH2 0x8DD JUMP JUMPDEST PUSH2 0x149A PUSH2 0x1C8E JUMP JUMPDEST PUSH6 0xFFFFFFFFFFFF AND DUP3 PUSH6 0xFFFFFFFFFFFF AND GT ISZERO PUSH2 0x14CD JUMPI PUSH1 0x40 MLOAD PUSH4 0xC65B5BD PUSH1 0xE1 SHL DUP2 MSTORE PUSH1 0x4 DUP2 ADD DUP6 SWAP1 MSTORE PUSH1 0x24 ADD PUSH2 0x8DD JUMP JUMPDEST PUSH2 0x14D6 DUP3 PUSH2 0x1919 JUMP JUMPDEST ISZERO PUSH2 0x14F7 JUMPI PUSH1 0x40 MLOAD PUSH4 0x1E2975B9 PUSH1 0xE2 SHL DUP2 MSTORE PUSH1 0x4 DUP2 ADD DUP6 SWAP1 MSTORE PUSH1 0x24 ADD PUSH2 0x8DD JUMP JUMPDEST PUSH1 0x0 DUP5 DUP2 MSTORE PUSH1 0x2 PUSH1 0x20 MSTORE PUSH1 0x40 DUP1 DUP3 KECCAK256 DUP1 SLOAD PUSH6 0xFFFFFFFFFFFF NOT AND SWAP1 SSTORE MLOAD PUSH4 0xFFFFFFFF DUP4 AND SWAP2 DUP7 SWAP2 PUSH32 0x76A2A46953689D4861A5D3F6ED883AD7E6AF674A21F8E162707159FC9DDE614D SWAP2 SWAP1 LOG3 SWAP4 SWAP3 POP POP POP JUMP JUMPDEST PUSH1 0x60 DUP2 SELFBALANCE LT ISZERO PUSH2 0x156E JUMPI PUSH1 0x40 MLOAD PUSH4 0xCD786059 PUSH1 0xE0 SHL DUP2 MSTORE ADDRESS PUSH1 0x4 DUP3 ADD MSTORE PUSH1 0x24 ADD PUSH2 0x8DD JUMP JUMPDEST PUSH1 0x0 DUP1 DUP6 PUSH1 0x1 PUSH1 0x1 PUSH1 0xA0 SHL SUB AND DUP5 DUP7 PUSH1 0x40 MLOAD PUSH2 0x158A SWAP2 SWAP1 PUSH2 0x2A14 JUMP JUMPDEST PUSH1 0x0 PUSH1 0x40 MLOAD DUP1 DUP4 SUB DUP2 DUP6 DUP8 GAS CALL SWAP3 POP POP POP RETURNDATASIZE DUP1 PUSH1 0x0 DUP2 EQ PUSH2 0x15C7 JUMPI PUSH1 0x40 MLOAD SWAP2 POP PUSH1 0x1F NOT PUSH1 0x3F RETURNDATASIZE ADD AND DUP3 ADD PUSH1 0x40 MSTORE RETURNDATASIZE DUP3 MSTORE RETURNDATASIZE PUSH1 0x0 PUSH1 0x20 DUP5 ADD RETURNDATACOPY PUSH2 0x15CC JUMP JUMPDEST PUSH1 0x60 SWAP2 POP JUMPDEST POP SWAP2 POP SWAP2 POP PUSH2 0x15DC DUP7 DUP4 DUP4 PUSH2 0x20A0 JUMP JUMPDEST SWAP7 SWAP6 POP POP POP POP POP POP JUMP JUMPDEST PUSH1 0x0 PUSH8 0xFFFFFFFFFFFFFFFE NOT PUSH1 0x1 PUSH1 0x1 PUSH1 0x40 SHL SUB DUP7 AND ADD PUSH2 0x1625 JUMPI PUSH1 0x40 MLOAD PUSH4 0x61C6A43 PUSH1 0xE2 SHL DUP2 MSTORE PUSH1 0x1 PUSH1 0x1 PUSH1 0x40 SHL SUB DUP7 AND PUSH1 0x4 DUP3 ADD MSTORE PUSH1 0x24 ADD PUSH2 0x8DD JUMP JUMPDEST PUSH1 0x1 PUSH1 0x1 PUSH1 0x40 SHL SUB DUP6 AND PUSH1 0x0 SWAP1 DUP2 MSTORE PUSH1 0x1 PUSH1 0x20 SWAP1 DUP2 MSTORE PUSH1 0x40 DUP1 DUP4 KECCAK256 PUSH1 0x1 PUSH1 0x1 PUSH1 0xA0 SHL SUB DUP9 AND DUP5 MSTORE SWAP1 SWAP2 MSTORE DUP2 KECCAK256 SLOAD PUSH6 0xFFFFFFFFFFFF AND ISZERO SWAP1 DUP2 ISZERO PUSH2 0x1727 JUMPI DUP5 PUSH4 0xFFFFFFFF AND PUSH2 0x1671 PUSH2 0x1C8E JUMP JUMPDEST PUSH2 0x167B SWAP2 SWAP1 PUSH2 0x297A JUMP JUMPDEST SWAP1 POP PUSH1 0x40 MLOAD DUP1 PUSH1 0x40 ADD PUSH1 0x40 MSTORE DUP1 DUP3 PUSH6 0xFFFFFFFFFFFF AND DUP2 MSTORE PUSH1 0x20 ADD PUSH2 0x16A9 DUP7 PUSH4 0xFFFFFFFF AND PUSH4 0xFFFFFFFF AND SWAP1 JUMP JUMPDEST PUSH1 0x1 PUSH1 0x1 PUSH1 0x70 SHL SUB SWAP1 DUP2 AND SWAP1 SWAP2 MSTORE PUSH1 0x1 PUSH1 0x1 PUSH1 0x40 SHL SUB DUP10 AND PUSH1 0x0 SWAP1 DUP2 MSTORE PUSH1 0x1 PUSH1 0x20 SWAP1 DUP2 MSTORE PUSH1 0x40 DUP1 DUP4 KECCAK256 PUSH1 0x1 PUSH1 0x1 PUSH1 0xA0 SHL SUB DUP13 AND DUP5 MSTORE DUP3 MSTORE SWAP1 SWAP2 KECCAK256 DUP4 MLOAD DUP2 SLOAD SWAP5 SWAP1 SWAP3 ADD MLOAD SWAP1 SWAP3 AND PUSH7 0x1000000000000 MUL PUSH20 0xFFFFFFFFFFFFFFFFFFFFFFFFFFFFFFFFFFFFFFFF NOT SWAP1 SWAP4 AND PUSH6 0xFFFFFFFFFFFF SWAP1 SWAP2 AND OR SWAP2 SWAP1 SWAP2 OR SWAP1 SSTORE PUSH2 0x17E4 JUMP JUMPDEST PUSH1 0x1 PUSH1 0x1 PUSH1 0x40 SHL SUB DUP8 AND PUSH1 0x0 SWAP1 DUP2 MSTORE PUSH1 0x1 PUSH1 0x20 SWAP1 DUP2 MSTORE PUSH1 0x40 DUP1 DUP4 KECCAK256 PUSH1 0x1 PUSH1 0x1 PUSH1 0xA0 SHL SUB DUP11 AND DUP5 MSTORE SWAP1 SWAP2 MSTORE DUP2 KECCAK256 SLOAD PUSH2 0x1774 SWAP2 PUSH7 0x1000000000000 SWAP1 SWAP2 DIV PUSH1 0x1 PUSH1 0x1 PUSH1 0x70 SHL SUB AND SWAP1 DUP7 SWAP1 PUSH2 0x20FC JUMP JUMPDEST PUSH1 0x1 PUSH1 0x1 PUSH1 0x40 SHL SUB DUP10 AND PUSH1 0x0 SWAP1 DUP2 MSTORE PUSH1 0x1 PUSH1 0x20 SWAP1 DUP2 MSTORE PUSH1 0x40 DUP1 DUP4 KECCAK256 PUSH1 0x1 PUSH1 0x1 PUSH1 0xA0 SHL SUB DUP13 AND DUP5 MSTORE SWAP1 SWAP2 MSTORE SWAP1 KECCAK256 DUP1 SLOAD PUSH1 0x1 PUSH1 0x1 PUSH1 0x70 SHL SUB SWAP1 SWAP4 AND PUSH7 0x1000000000000 MUL PUSH32 0xFFFFFFFFFFFFFFFFFFFFFFFF0000000000000000000000000000FFFFFFFFFFFF SWAP1 SWAP4 AND SWAP3 SWAP1 SWAP3 OR SWAP1 SWAP2 SSTORE SWAP1 POP JUMPDEST PUSH1 0x40 DUP1 MLOAD PUSH4 0xFFFFFFFF DUP7 AND DUP2 MSTORE PUSH6 0xFFFFFFFFFFFF DUP4 AND PUSH1 0x20 DUP3 ADD MSTORE DUP4 ISZERO ISZERO DUP2 DUP4 ADD MSTORE SWAP1 MLOAD PUSH1 0x1 PUSH1 0x1 PUSH1 0xA0 SHL SUB DUP9 AND SWAP2 PUSH1 0x1 PUSH1 0x1 PUSH1 0x40 SHL SUB DUP11 AND SWAP2 PUSH32 0xF98448B987F1428E0E230E1F3C6E2CE15B5693EAF31827FBD0B1EC4B424AE7CF SWAP2 DUP2 SWAP1 SUB PUSH1 0x60 ADD SWAP1 LOG3 POP SWAP6 SWAP5 POP POP POP POP POP JUMP JUMPDEST PUSH1 0x0 DUP1 PUSH1 0x0 PUSH2 0x1868 DUP5 PUSH2 0x1863 PUSH2 0x1C8E JUMP JUMPDEST PUSH2 0x21A6 JUMP JUMPDEST SWAP3 POP SWAP3 POP SWAP3 POP SWAP2 SWAP4 SWAP1 SWAP3 POP JUMP JUMPDEST PUSH1 0x1 PUSH1 0x1 PUSH1 0x40 SHL SUB DUP3 AND ISZERO DUP1 PUSH2 0x1893 JUMPI POP PUSH1 0x1 PUSH1 0x1 PUSH1 0x40 SHL SUB DUP3 DUP2 AND EQ JUMPDEST ISZERO PUSH2 0x18BC JUMPI PUSH1 0x40 MLOAD PUSH4 0x61C6A43 PUSH1 0xE2 SHL DUP2 MSTORE PUSH1 0x1 PUSH1 0x1 PUSH1 0x40 SHL SUB DUP4 AND PUSH1 0x4 DUP3 ADD MSTORE PUSH1 0x24 ADD PUSH2 0x8DD JUMP JUMPDEST PUSH1 0x1 PUSH1 0x1 PUSH1 0x40 SHL SUB DUP3 DUP2 AND PUSH1 0x0 DUP2 DUP2 MSTORE PUSH1 0x1 PUSH1 0x20 DUP2 SWAP1 MSTORE PUSH1 0x40 DUP1 DUP4 KECCAK256 SWAP1 SWAP2 ADD DUP1 SLOAD PUSH8 0xFFFFFFFFFFFFFFFF NOT AND SWAP5 DUP7 AND SWAP5 DUP6 OR SWAP1 SSTORE MLOAD PUSH32 0x1FD6DD7631312DFAC2205B52913F99DE03B4D7E381D5D27D3DBFE0713E6E6340 SWAP2 SWAP1 LOG3 POP POP JUMP JUMPDEST PUSH1 0x0 PUSH2 0x1923 PUSH2 0x1C8E JUMP JUMPDEST PUSH6 0xFFFFFFFFFFFF AND PUSH2 0x1938 PUSH3 0x93A80 DUP5 PUSH2 0x297A JUMP JUMPDEST PUSH6 0xFFFFFFFFFFFF AND GT ISZERO SWAP3 SWAP2 POP POP JUMP JUMPDEST PUSH1 0x1 PUSH1 0x1 PUSH1 0x40 SHL SUB DUP3 AND ISZERO DUP1 PUSH2 0x1966 JUMPI POP PUSH1 0x1 PUSH1 0x1 PUSH1 0x40 SHL SUB DUP3 DUP2 AND EQ JUMPDEST ISZERO PUSH2 0x198F JUMPI PUSH1 0x40 MLOAD PUSH4 0x61C6A43 PUSH1 0xE2 SHL DUP2 MSTORE PUSH1 0x1 PUSH1 0x1 PUSH1 0x40 SHL SUB DUP4 AND PUSH1 0x4 DUP3 ADD MSTORE PUSH1 0x24 ADD PUSH2 0x8DD JUMP JUMPDEST PUSH1 0x1 PUSH1 0x1 PUSH1 0x40 SHL SUB DUP3 DUP2 AND PUSH1 0x0 DUP2 DUP2 MSTORE PUSH1 0x1 PUSH1 0x20 DUP2 SWAP1 MSTORE PUSH1 0x40 DUP1 DUP4 KECCAK256 SWAP1 SWAP2 ADD DUP1 SLOAD PUSH16 0xFFFFFFFFFFFFFFFF0000000000000000 NOT AND PUSH9 0x10000000000000000 SWAP6 DUP8 AND SWAP6 DUP7 MUL OR SWAP1 SSTORE MLOAD PUSH32 0x7A8059630B897B5DE4C08ADE69F8B90C3EAD1F8596D62D10B6C4D14A0AFB4AE2 SWAP2 SWAP1 LOG3 POP POP JUMP JUMPDEST PUSH8 0xFFFFFFFFFFFFFFFE NOT PUSH1 0x1 PUSH1 0x1 PUSH1 0x40 SHL SUB DUP4 AND ADD PUSH2 0x1A3C JUMPI PUSH1 0x40 MLOAD PUSH4 0x61C6A43 PUSH1 0xE2 SHL DUP2 MSTORE PUSH1 0x1 PUSH1 0x1 PUSH1 0x40 SHL SUB DUP4 AND PUSH1 0x4 DUP3 ADD MSTORE PUSH1 0x24 ADD PUSH2 0x8DD JUMP JUMPDEST PUSH1 0x1 PUSH1 0x1 PUSH1 0x40 SHL SUB DUP3 AND PUSH1 0x0 SWAP1 DUP2 MSTORE PUSH1 0x1 PUSH1 0x20 DUP2 SWAP1 MSTORE PUSH1 0x40 DUP3 KECCAK256 ADD SLOAD PUSH2 0x1A76 SWAP1 PUSH1 0x1 PUSH1 0x80 SHL SWAP1 DIV PUSH1 0x1 PUSH1 0x1 PUSH1 0x70 SHL SUB AND DUP4 PUSH3 0x69780 PUSH2 0x20FC JUMP JUMPDEST PUSH1 0x1 PUSH1 0x1 PUSH1 0x40 SHL SUB DUP6 AND PUSH1 0x0 DUP2 DUP2 MSTORE PUSH1 0x1 PUSH1 0x20 DUP2 SWAP1 MSTORE PUSH1 0x40 SWAP2 DUP3 SWAP1 KECCAK256 ADD DUP1 SLOAD PUSH1 0x1 PUSH1 0x1 PUSH1 0x70 SHL SUB SWAP1 SWAP6 AND PUSH1 0x1 PUSH1 0x80 SHL MUL PUSH32 0xFFFF0000000000000000000000000000FFFFFFFFFFFFFFFFFFFFFFFFFFFFFFFF SWAP1 SWAP6 AND SWAP5 SWAP1 SWAP5 OR SWAP1 SWAP4 SSTORE SWAP2 MLOAD SWAP1 SWAP3 POP PUSH32 0xFEB69018EE8B8FD50EA86348F1267D07673379F72CFFDECCEC63853EE8CE8B48 SWAP1 PUSH2 0xB72 SWAP1 DUP6 SWAP1 DUP6 SWAP1 PUSH4 0xFFFFFFFF SWAP3 SWAP1 SWAP3 AND DUP3 MSTORE PUSH6 0xFFFFFFFFFFFF AND PUSH1 0x20 DUP3 ADD MSTORE PUSH1 0x40 ADD SWAP1 JUMP JUMPDEST PUSH1 0x60 PUSH1 0x0 DUP1 DUP5 PUSH1 0x1 PUSH1 0x1 PUSH1 0xA0 SHL SUB AND DUP5 PUSH1 0x40 MLOAD PUSH2 0x1B3B SWAP2 SWAP1 PUSH2 0x2A14 JUMP JUMPDEST PUSH1 0x0 PUSH1 0x40 MLOAD DUP1 DUP4 SUB DUP2 DUP6 GAS DELEGATECALL SWAP2 POP POP RETURNDATASIZE DUP1 PUSH1 0x0 DUP2 EQ PUSH2 0x1B76 JUMPI PUSH1 0x40 MLOAD SWAP2 POP PUSH1 0x1F NOT PUSH1 0x3F RETURNDATASIZE ADD AND DUP3 ADD PUSH1 0x40 MSTORE RETURNDATASIZE DUP3 MSTORE RETURNDATASIZE PUSH1 0x0 PUSH1 0x20 DUP5 ADD RETURNDATACOPY PUSH2 0x1B7B JUMP JUMPDEST PUSH1 0x60 SWAP2 POP JUMPDEST POP SWAP2 POP SWAP2 POP PUSH2 0x1B8B DUP6 DUP4 DUP4 PUSH2 0x20A0 JUMP JUMPDEST SWAP6 SWAP5 POP POP POP POP POP JUMP JUMPDEST PUSH1 0x0 PUSH8 0xFFFFFFFFFFFFFFFE NOT PUSH1 0x1 PUSH1 0x1 PUSH1 0x40 SHL SUB DUP5 AND ADD PUSH2 0x1BD3 JUMPI PUSH1 0x40 MLOAD PUSH4 0x61C6A43 PUSH1 0xE2 SHL DUP2 MSTORE PUSH1 0x1 PUSH1 0x1 PUSH1 0x40 SHL SUB DUP5 AND PUSH1 0x4 DUP3 ADD MSTORE PUSH1 0x24 ADD PUSH2 0x8DD JUMP JUMPDEST PUSH1 0x1 PUSH1 0x1 PUSH1 0x40 SHL SUB DUP4 AND PUSH1 0x0 SWAP1 DUP2 MSTORE PUSH1 0x1 PUSH1 0x20 SWAP1 DUP2 MSTORE PUSH1 0x40 DUP1 DUP4 KECCAK256 PUSH1 0x1 PUSH1 0x1 PUSH1 0xA0 SHL SUB DUP7 AND DUP5 MSTORE SWAP1 SWAP2 MSTORE DUP2 KECCAK256 SLOAD PUSH6 0xFFFFFFFFFFFF AND SWAP1 SUB PUSH2 0x1C16 JUMPI POP PUSH1 0x0 PUSH2 0x7E9 JUMP JUMPDEST PUSH1 0x1 PUSH1 0x1 PUSH1 0x40 SHL SUB DUP4 AND PUSH1 0x0 DUP2 DUP2 MSTORE PUSH1 0x1 PUSH1 0x20 SWAP1 DUP2 MSTORE PUSH1 0x40 DUP1 DUP4 KECCAK256 PUSH1 0x1 PUSH1 0x1 PUSH1 0xA0 SHL SUB DUP8 AND DUP1 DUP6 MSTORE SWAP3 MSTORE DUP1 DUP4 KECCAK256 DUP1 SLOAD PUSH20 0xFFFFFFFFFFFFFFFFFFFFFFFFFFFFFFFFFFFFFFFF NOT AND SWAP1 SSTORE MLOAD SWAP1 SWAP3 SWAP2 PUSH32 0xF229BAA593AF28C41B1D16B748CD7688F0C83AAF92D4BE41C44005DEFE84C166 SWAP2 LOG3 POP PUSH1 0x1 SWAP3 SWAP2 POP POP JUMP JUMPDEST PUSH1 0x0 PUSH2 0x1C99 TIMESTAMP PUSH2 0x21FA JUMP JUMPDEST SWAP1 POP SWAP1 JUMP JUMPDEST PUSH1 0x1 PUSH1 0x1 PUSH1 0xA0 SHL SUB DUP3 AND PUSH1 0x0 SWAP1 DUP2 MSTORE PUSH1 0x20 DUP2 SWAP1 MSTORE PUSH1 0x40 DUP2 KECCAK256 PUSH1 0x1 ADD SLOAD PUSH2 0x1CD1 SWAP1 PUSH1 0x1 PUSH1 0x1 PUSH1 0x70 SHL SUB AND DUP4 PUSH3 0x69780 PUSH2 0x20FC JUMP JUMPDEST PUSH1 0x1 PUSH1 0x1 PUSH1 0xA0 SHL SUB DUP6 AND PUSH1 0x0 DUP2 DUP2 MSTORE PUSH1 0x20 DUP2 DUP2 MSTORE PUSH1 0x40 SWAP2 DUP3 SWAP1 KECCAK256 PUSH1 0x1 ADD DUP1 SLOAD PUSH14 0xFFFFFFFFFFFFFFFFFFFFFFFFFFFF NOT AND PUSH1 0x1 PUSH1 0x1 PUSH1 0x70 SHL SUB SWAP7 SWAP1 SWAP7 AND SWAP6 SWAP1 SWAP6 OR SWAP1 SWAP5 SSTORE DUP1 MLOAD PUSH4 0xFFFFFFFF DUP8 AND DUP2 MSTORE PUSH6 0xFFFFFFFFFFFF DUP5 AND SWAP5 DUP2 ADD SWAP5 SWAP1 SWAP5 MSTORE SWAP2 SWAP4 POP SWAP2 PUSH32 0xA56B76017453F399EC2327BA00375DBFB1FD070FF854341AD6191E6A2E2DE19C SWAP2 ADD PUSH2 0xB72 JUMP JUMPDEST PUSH1 0x0 DUP2 DUP4 GT PUSH2 0x1D6A JUMPI DUP2 PUSH2 0x9D2 JUMP JUMPDEST POP SWAP1 SWAP2 SWAP1 POP JUMP JUMPDEST PUSH1 0x0 DUP2 DUP2 MSTORE PUSH1 0x2 PUSH1 0x20 MSTORE PUSH1 0x40 SWAP1 KECCAK256 SLOAD PUSH6 0xFFFFFFFFFFFF AND DUP1 ISZERO DUP1 ISZERO SWAP1 PUSH2 0x1D9D JUMPI POP PUSH2 0x1D9B DUP2 PUSH2 0x1919 JUMP JUMPDEST ISZERO JUMPDEST ISZERO PUSH2 0x801 JUMPI PUSH1 0x40 MLOAD PUSH4 0x813E9459 PUSH1 0xE0 SHL DUP2 MSTORE PUSH1 0x4 DUP2 ADD DUP4 SWAP1 MSTORE PUSH1 0x24 ADD PUSH2 0x8DD JUMP JUMPDEST PUSH1 0x0 DUP1 PUSH1 0x4 DUP4 LT ISZERO PUSH2 0x1DD5 JUMPI POP PUSH1 0x0 SWAP1 POP DUP1 PUSH2 0xE60 JUMP JUMPDEST ADDRESS PUSH1 0x1 PUSH1 0x1 PUSH1 0xA0 SHL SUB DUP7 AND SUB PUSH2 0x1E39 JUMPI PUSH2 0xDF1 ADDRESS PUSH2 0x1DF3 DUP7 DUP7 PUSH2 0x142E JUMP JUMPDEST PUSH1 0x40 DUP1 MLOAD PUSH1 0x1 PUSH1 0x1 PUSH1 0xA0 SHL SUB SWAP4 SWAP1 SWAP4 AND PUSH1 0x20 DUP1 DUP6 ADD SWAP2 SWAP1 SWAP2 MSTORE PUSH1 0x1 PUSH1 0x1 PUSH1 0xE0 SHL SUB NOT SWAP3 SWAP1 SWAP3 AND DUP4 DUP3 ADD MSTORE DUP1 MLOAD DUP1 DUP5 SUB DUP3 ADD DUP2 MSTORE PUSH1 0x60 SWAP1 SWAP4 ADD SWAP1 MSTORE DUP2 MLOAD SWAP2 ADD KECCAK256 PUSH1 0x3 SLOAD EQ SWAP1 JUMP JUMPDEST PUSH1 0x0 DUP1 PUSH1 0x0 PUSH2 0x1E48 DUP8 DUP8 PUSH2 0x1EB7 JUMP JUMPDEST SWAP3 POP SWAP3 POP SWAP3 POP DUP3 PUSH2 0x1E62 JUMPI PUSH1 0x0 DUP1 SWAP5 POP SWAP5 POP POP POP POP PUSH2 0xE60 JUMP JUMPDEST PUSH1 0x0 DUP1 PUSH2 0x1E6F DUP5 DUP12 PUSH2 0xE7F JUMP JUMPDEST SWAP2 POP SWAP2 POP DUP2 PUSH2 0x1E89 JUMPI PUSH1 0x0 DUP1 SWAP7 POP SWAP7 POP POP POP POP POP POP PUSH2 0xE60 JUMP JUMPDEST PUSH2 0x1E9F DUP4 PUSH4 0xFFFFFFFF AND DUP3 PUSH4 0xFFFFFFFF AND PUSH2 0x1D5B JUMP JUMPDEST PUSH4 0xFFFFFFFF DUP2 AND ISZERO SWAP12 SWAP1 SWAP11 POP SWAP9 POP POP POP POP POP POP POP POP POP JUMP JUMPDEST PUSH1 0x0 DUP1 DUP1 PUSH1 0x4 DUP5 LT ISZERO PUSH2 0x1ED2 JUMPI POP PUSH1 0x0 SWAP2 POP DUP2 SWAP1 POP DUP1 PUSH2 0x2099 JUMP JUMPDEST PUSH1 0x0 PUSH2 0x1EDE DUP7 DUP7 PUSH2 0x142E JUMP JUMPDEST SWAP1 POP PUSH1 0x1 PUSH1 0x1 PUSH1 0xE0 SHL SUB NOT DUP2 AND PUSH4 0x10A6AA37 PUSH1 0xE3 SHL EQ DUP1 PUSH2 0x1F0F JUMPI POP PUSH1 0x1 PUSH1 0x1 PUSH1 0xE0 SHL SUB NOT DUP2 AND PUSH4 0x30CAE187 PUSH1 0xE0 SHL EQ JUMPDEST DUP1 PUSH2 0x1F2A JUMPI POP PUSH1 0x1 PUSH1 0x1 PUSH1 0xE0 SHL SUB NOT DUP2 AND PUSH4 0x294B14A9 PUSH1 0xE1 SHL EQ JUMPDEST DUP1 PUSH2 0x1F45 JUMPI POP PUSH1 0x1 PUSH1 0x1 PUSH1 0xE0 SHL SUB NOT DUP2 AND PUSH4 0x5326CAE7 PUSH1 0xE1 SHL EQ JUMPDEST DUP1 PUSH2 0x1F60 JUMPI POP PUSH1 0x1 PUSH1 0x1 PUSH1 0xE0 SHL SUB NOT DUP2 AND PUSH4 0xD22B5989 PUSH1 0xE0 SHL EQ JUMPDEST ISZERO PUSH2 0x1F76 JUMPI PUSH1 0x1 PUSH1 0x0 DUP1 SWAP4 POP SWAP4 POP SWAP4 POP POP PUSH2 0x2099 JUMP JUMPDEST PUSH1 0x1 PUSH1 0x1 PUSH1 0xE0 SHL SUB NOT DUP2 AND PUSH4 0x63FC60F PUSH1 0xE2 SHL EQ DUP1 PUSH2 0x1FA5 JUMPI POP PUSH1 0x1 PUSH1 0x1 PUSH1 0xE0 SHL SUB NOT DUP2 AND PUSH4 0x167BD395 PUSH1 0xE0 SHL EQ JUMPDEST DUP1 PUSH2 0x1FC0 JUMPI POP PUSH1 0x1 PUSH1 0x1 PUSH1 0xE0 SHL SUB NOT DUP2 AND PUSH4 0x8D6122D PUSH1 0xE0 SHL EQ JUMPDEST ISZERO PUSH2 0x2002 JUMPI PUSH1 0x0 PUSH2 0x1FD5 PUSH1 0x24 PUSH1 0x4 DUP9 DUP11 PUSH2 0x28CD JUMP JUMPDEST DUP2 ADD SWAP1 PUSH2 0x1FE2 SWAP2 SWAP1 PUSH2 0x2515 JUMP JUMPDEST SWAP1 POP PUSH1 0x0 PUSH2 0x1FEF DUP3 PUSH2 0xAA8 JUMP JUMPDEST PUSH1 0x1 SWAP7 POP PUSH1 0x0 SWAP6 POP SWAP4 POP PUSH2 0x2099 SWAP3 POP POP POP JUMP JUMPDEST PUSH1 0x1 PUSH1 0x1 PUSH1 0xE0 SHL SUB NOT DUP2 AND PUSH4 0x12E238D PUSH1 0xE5 SHL EQ DUP1 PUSH2 0x2031 JUMPI POP PUSH1 0x1 PUSH1 0x1 PUSH1 0xE0 SHL SUB NOT DUP2 AND PUSH4 0x5BE958B1 PUSH1 0xE1 SHL EQ JUMPDEST ISZERO PUSH2 0x208C JUMPI PUSH1 0x0 PUSH2 0x2046 PUSH1 0x24 PUSH1 0x4 DUP9 DUP11 PUSH2 0x28CD JUMP JUMPDEST DUP2 ADD SWAP1 PUSH2 0x2053 SWAP2 SWAP1 PUSH2 0x2338 JUMP JUMPDEST SWAP1 POP PUSH1 0x1 PUSH2 0x207D DUP3 PUSH1 0x1 PUSH1 0x1 PUSH1 0x40 SHL SUB SWAP1 DUP2 AND PUSH1 0x0 SWAP1 DUP2 MSTORE PUSH1 0x1 PUSH1 0x20 DUP2 SWAP1 MSTORE PUSH1 0x40 SWAP1 SWAP2 KECCAK256 ADD SLOAD AND SWAP1 JUMP JUMPDEST PUSH1 0x0 SWAP5 POP SWAP5 POP SWAP5 POP POP POP PUSH2 0x2099 JUMP JUMPDEST PUSH1 0x0 DUP1 PUSH1 0x0 SWAP4 POP SWAP4 POP SWAP4 POP POP JUMPDEST SWAP3 POP SWAP3 POP SWAP3 JUMP JUMPDEST PUSH1 0x60 DUP3 PUSH2 0x20B5 JUMPI PUSH2 0x20B0 DUP3 PUSH2 0x2231 JUMP JUMPDEST PUSH2 0x9D2 JUMP JUMPDEST DUP2 MLOAD ISZERO DUP1 ISZERO PUSH2 0x20CC JUMPI POP PUSH1 0x1 PUSH1 0x1 PUSH1 0xA0 SHL SUB DUP5 AND EXTCODESIZE ISZERO JUMPDEST ISZERO PUSH2 0x20F5 JUMPI PUSH1 0x40 MLOAD PUSH4 0x9996B315 PUSH1 0xE0 SHL DUP2 MSTORE PUSH1 0x1 PUSH1 0x1 PUSH1 0xA0 SHL SUB DUP6 AND PUSH1 0x4 DUP3 ADD MSTORE PUSH1 0x24 ADD PUSH2 0x8DD JUMP JUMPDEST POP DUP1 PUSH2 0x9D2 JUMP JUMPDEST PUSH1 0x0 DUP1 PUSH1 0x0 PUSH2 0x2113 DUP7 PUSH1 0x1 PUSH1 0x1 PUSH1 0x70 SHL SUB AND PUSH2 0x130B JUMP JUMPDEST SWAP1 POP PUSH1 0x0 PUSH2 0x2150 DUP6 PUSH4 0xFFFFFFFF AND DUP8 PUSH4 0xFFFFFFFF AND DUP5 PUSH4 0xFFFFFFFF AND GT PUSH2 0x213B JUMPI PUSH1 0x0 PUSH2 0x2145 JUMP JUMPDEST PUSH2 0x2145 DUP9 DUP6 PUSH2 0x2A30 JUMP JUMPDEST PUSH4 0xFFFFFFFF AND PUSH2 0x1D5B JUMP JUMPDEST SWAP1 POP DUP1 PUSH4 0xFFFFFFFF AND PUSH2 0x2161 PUSH2 0x1C8E JUMP JUMPDEST PUSH2 0x216B SWAP2 SWAP1 PUSH2 0x297A JUMP JUMPDEST SWAP3 POP PUSH4 0xFFFFFFFF DUP7 AND PUSH1 0x20 DUP4 SWAP1 SHL PUSH8 0xFFFFFFFF00000000 AND PUSH1 0x40 DUP6 SWAP1 SHL PUSH14 0xFFFFFFFFFFFF0000000000000000 AND OR OR SWAP4 POP POP POP SWAP4 POP SWAP4 SWAP2 POP POP JUMP JUMPDEST PUSH1 0x0 DUP1 DUP1 PUSH10 0xFFFFFFFFFFFFFFFFFFFF PUSH1 0x20 DUP7 SWAP1 SHR AND PUSH1 0x1 PUSH1 0x1 PUSH1 0x70 SHL SUB DUP7 AND PUSH6 0xFFFFFFFFFFFF PUSH1 0x40 DUP9 SWAP1 SHR DUP2 AND SWAP1 DUP8 AND DUP2 GT ISZERO PUSH2 0x21E5 JUMPI DUP3 DUP3 DUP3 PUSH2 0x21EA JUMP JUMPDEST DUP2 PUSH1 0x0 DUP1 JUMPDEST SWAP6 POP SWAP6 POP SWAP6 POP POP POP POP SWAP3 POP SWAP3 POP SWAP3 JUMP JUMPDEST PUSH1 0x0 PUSH6 0xFFFFFFFFFFFF DUP3 GT ISZERO PUSH2 0x222D JUMPI PUSH1 0x40 MLOAD PUSH4 0x6DFCC65 PUSH1 0xE4 SHL DUP2 MSTORE PUSH1 0x30 PUSH1 0x4 DUP3 ADD MSTORE PUSH1 0x24 DUP2 ADD DUP4 SWAP1 MSTORE PUSH1 0x44 ADD PUSH2 0x8DD JUMP JUMPDEST POP SWAP1 JUMP JUMPDEST DUP1 MLOAD ISZERO PUSH2 0x2241 JUMPI DUP1 MLOAD DUP1 DUP3 PUSH1 0x20 ADD REVERT JUMPDEST PUSH1 0x40 MLOAD PUSH4 0xA12F521 PUSH1 0xE1 SHL DUP2 MSTORE PUSH1 0x4 ADD PUSH1 0x40 MLOAD DUP1 SWAP2 SUB SWAP1 REVERT JUMPDEST POP JUMP JUMPDEST PUSH1 0x1 PUSH1 0x1 PUSH1 0xA0 SHL SUB DUP2 AND DUP2 EQ PUSH2 0x225A JUMPI PUSH1 0x0 DUP1 REVERT JUMPDEST PUSH1 0x0 DUP1 DUP4 PUSH1 0x1F DUP5 ADD SLT PUSH2 0x2284 JUMPI PUSH1 0x0 DUP1 REVERT JUMPDEST POP DUP2 CALLDATALOAD PUSH1 0x1 PUSH1 0x1 PUSH1 0x40 SHL SUB DUP2 GT ISZERO PUSH2 0x229B JUMPI PUSH1 0x0 DUP1 REVERT JUMPDEST PUSH1 0x20 DUP4 ADD SWAP2 POP DUP4 PUSH1 0x20 DUP3 PUSH1 0x5 SHL DUP6 ADD ADD GT ISZERO PUSH2 0xEF5 JUMPI PUSH1 0x0 DUP1 REVERT JUMPDEST DUP1 CALLDATALOAD PUSH1 0x1 PUSH1 0x1 PUSH1 0x40 SHL SUB DUP2 AND DUP2 EQ PUSH2 0x22CD JUMPI PUSH1 0x0 DUP1 REVERT JUMPDEST SWAP2 SWAP1 POP JUMP JUMPDEST PUSH1 0x0 DUP1 PUSH1 0x0 DUP1 PUSH1 0x60 DUP6 DUP8 SUB SLT ISZERO PUSH2 0x22E8 JUMPI PUSH1 0x0 DUP1 REVERT JUMPDEST DUP5 CALLDATALOAD PUSH2 0x22F3 DUP2 PUSH2 0x225D JUMP JUMPDEST SWAP4 POP PUSH1 0x20 DUP6 ADD CALLDATALOAD PUSH1 0x1 PUSH1 0x1 PUSH1 0x40 SHL SUB DUP2 GT ISZERO PUSH2 0x230E JUMPI PUSH1 0x0 DUP1 REVERT JUMPDEST PUSH2 0x231A DUP8 DUP3 DUP9 ADD PUSH2 0x2272 JUMP JUMPDEST SWAP1 SWAP5 POP SWAP3 POP PUSH2 0x232D SWAP1 POP PUSH1 0x40 DUP7 ADD PUSH2 0x22B6 JUMP JUMPDEST SWAP1 POP SWAP3 SWAP6 SWAP2 SWAP5 POP SWAP3 POP JUMP JUMPDEST PUSH1 0x0 PUSH1 0x20 DUP3 DUP5 SUB SLT ISZERO PUSH2 0x234A JUMPI PUSH1 0x0 DUP1 REVERT JUMPDEST PUSH2 0x9D2 DUP3 PUSH2 0x22B6 JUMP JUMPDEST PUSH1 0x0 DUP1 PUSH1 0x40 DUP4 DUP6 SUB SLT ISZERO PUSH2 0x2366 JUMPI PUSH1 0x0 DUP1 REVERT JUMPDEST DUP3 CALLDATALOAD PUSH2 0x2371 DUP2 PUSH2 0x225D JUMP JUMPDEST SWAP2 POP PUSH1 0x20 DUP4 ADD CALLDATALOAD DUP1 ISZERO ISZERO DUP2 EQ PUSH2 0x2386 JUMPI PUSH1 0x0 DUP1 REVERT JUMPDEST DUP1 SWAP2 POP POP SWAP3 POP SWAP3 SWAP1 POP JUMP JUMPDEST PUSH1 0x0 DUP1 PUSH1 0x40 DUP4 DUP6 SUB SLT ISZERO PUSH2 0x23A4 JUMPI PUSH1 0x0 DUP1 REVERT JUMPDEST DUP3 CALLDATALOAD PUSH2 0x23AF DUP2 PUSH2 0x225D JUMP JUMPDEST SWAP2 POP PUSH1 0x20 DUP4 ADD CALLDATALOAD PUSH2 0x2386 DUP2 PUSH2 0x225D JUMP JUMPDEST PUSH1 0x0 DUP1 DUP4 PUSH1 0x1F DUP5 ADD SLT PUSH2 0x23D1 JUMPI PUSH1 0x0 DUP1 REVERT JUMPDEST POP DUP2 CALLDATALOAD PUSH1 0x1 PUSH1 0x1 PUSH1 0x40 SHL SUB DUP2 GT ISZERO PUSH2 0x23E8 JUMPI PUSH1 0x0 DUP1 REVERT JUMPDEST PUSH1 0x20 DUP4 ADD SWAP2 POP DUP4 PUSH1 0x20 DUP3 DUP6 ADD ADD GT ISZERO PUSH2 0xEF5 JUMPI PUSH1 0x0 DUP1 REVERT JUMPDEST PUSH1 0x0 DUP1 PUSH1 0x0 PUSH1 0x40 DUP5 DUP7 SUB SLT ISZERO PUSH2 0x2415 JUMPI PUSH1 0x0 DUP1 REVERT JUMPDEST DUP4 CALLDATALOAD PUSH2 0x2420 DUP2 PUSH2 0x225D JUMP JUMPDEST SWAP3 POP PUSH1 0x20 DUP5 ADD CALLDATALOAD PUSH1 0x1 PUSH1 0x1 PUSH1 0x40 SHL SUB DUP2 GT ISZERO PUSH2 0x243B JUMPI PUSH1 0x0 DUP1 REVERT JUMPDEST PUSH2 0x2447 DUP7 DUP3 DUP8 ADD PUSH2 0x23BF JUMP JUMPDEST SWAP5 SWAP8 SWAP1 SWAP7 POP SWAP4 SWAP5 POP POP POP POP JUMP JUMPDEST DUP1 CALLDATALOAD PUSH4 0xFFFFFFFF DUP2 AND DUP2 EQ PUSH2 0x22CD JUMPI PUSH1 0x0 DUP1 REVERT JUMPDEST PUSH1 0x0 DUP1 PUSH1 0x0 PUSH1 0x60 DUP5 DUP7 SUB SLT ISZERO PUSH2 0x247D JUMPI PUSH1 0x0 DUP1 REVERT JUMPDEST PUSH2 0x2486 DUP5 PUSH2 0x22B6 JUMP JUMPDEST SWAP3 POP PUSH1 0x20 DUP5 ADD CALLDATALOAD PUSH2 0x2496 DUP2 PUSH2 0x225D JUMP JUMPDEST SWAP2 POP PUSH2 0x24A4 PUSH1 0x40 DUP6 ADD PUSH2 0x2454 JUMP JUMPDEST SWAP1 POP SWAP3 POP SWAP3 POP SWAP3 JUMP JUMPDEST PUSH1 0x0 DUP1 PUSH1 0x40 DUP4 DUP6 SUB SLT ISZERO PUSH2 0x24C0 JUMPI PUSH1 0x0 DUP1 REVERT JUMPDEST PUSH2 0x23AF DUP4 PUSH2 0x22B6 JUMP JUMPDEST PUSH1 0x0 DUP1 PUSH1 0x40 DUP4 DUP6 SUB SLT ISZERO PUSH2 0x24DC JUMPI PUSH1 0x0 DUP1 REVERT JUMPDEST PUSH2 0x24E5 DUP4 PUSH2 0x22B6 JUMP JUMPDEST SWAP2 POP PUSH2 0x24F3 PUSH1 0x20 DUP5 ADD PUSH2 0x22B6 JUMP JUMPDEST SWAP1 POP SWAP3 POP SWAP3 SWAP1 POP JUMP JUMPDEST PUSH1 0x0 PUSH1 0x20 DUP3 DUP5 SUB SLT ISZERO PUSH2 0x250E JUMPI PUSH1 0x0 DUP1 REVERT JUMPDEST POP CALLDATALOAD SWAP2 SWAP1 POP JUMP JUMPDEST PUSH1 0x0 PUSH1 0x20 DUP3 DUP5 SUB SLT ISZERO PUSH2 0x2527 JUMPI PUSH1 0x0 DUP1 REVERT JUMPDEST DUP2 CALLDATALOAD PUSH2 0x9D2 DUP2 PUSH2 0x225D JUMP JUMPDEST PUSH1 0x1 PUSH1 0x1 PUSH1 0xE0 SHL SUB NOT DUP2 AND DUP2 EQ PUSH2 0x225A JUMPI PUSH1 0x0 DUP1 REVERT JUMPDEST PUSH1 0x0 DUP1 PUSH1 0x40 DUP4 DUP6 SUB SLT ISZERO PUSH2 0x255B JUMPI PUSH1 0x0 DUP1 REVERT JUMPDEST DUP3 CALLDATALOAD PUSH2 0x2566 DUP2 PUSH2 0x225D JUMP JUMPDEST SWAP2 POP PUSH1 0x20 DUP4 ADD CALLDATALOAD PUSH2 0x2386 DUP2 PUSH2 0x2532 JUMP JUMPDEST PUSH1 0x0 DUP1 PUSH1 0x0 PUSH1 0x40 DUP5 DUP7 SUB SLT ISZERO PUSH2 0x258B JUMPI PUSH1 0x0 DUP1 REVERT JUMPDEST PUSH2 0x2420 DUP5 PUSH2 0x22B6 JUMP JUMPDEST PUSH1 0x0 DUP1 PUSH1 0x40 DUP4 DUP6 SUB SLT ISZERO PUSH2 0x25A7 JUMPI PUSH1 0x0 DUP1 REVERT JUMPDEST PUSH2 0x25B0 DUP4 PUSH2 0x22B6 JUMP JUMPDEST SWAP2 POP PUSH2 0x24F3 PUSH1 0x20 DUP5 ADD PUSH2 0x2454 JUMP JUMPDEST PUSH1 0x0 DUP1 PUSH1 0x0 DUP1 PUSH1 0x60 DUP6 DUP8 SUB SLT ISZERO PUSH2 0x25D4 JUMPI PUSH1 0x0 DUP1 REVERT JUMPDEST DUP5 CALLDATALOAD PUSH2 0x25DF DUP2 PUSH2 0x225D JUMP JUMPDEST SWAP4 POP PUSH1 0x20 DUP6 ADD CALLDATALOAD PUSH2 0x25EF DUP2 PUSH2 0x225D JUMP JUMPDEST SWAP3 POP PUSH1 0x40 DUP6 ADD CALLDATALOAD PUSH1 0x1 PUSH1 0x1 PUSH1 0x40 SHL SUB DUP2 GT ISZERO PUSH2 0x260A JUMPI PUSH1 0x0 DUP1 REVERT JUMPDEST PUSH2 0x2616 DUP8 DUP3 DUP9 ADD PUSH2 0x23BF JUMP JUMPDEST SWAP6 SWAP9 SWAP5 SWAP8 POP SWAP6 POP POP POP POP JUMP JUMPDEST PUSH1 0x0 DUP1 PUSH1 0x20 DUP4 DUP6 SUB SLT ISZERO PUSH2 0x2635 JUMPI PUSH1 0x0 DUP1 REVERT JUMPDEST DUP3 CALLDATALOAD PUSH1 0x1 PUSH1 0x1 PUSH1 0x40 SHL SUB DUP2 GT ISZERO PUSH2 0x264B JUMPI PUSH1 0x0 DUP1 REVERT JUMPDEST PUSH2 0x2657 DUP6 DUP3 DUP7 ADD PUSH2 0x2272 JUMP JUMPDEST SWAP1 SWAP7 SWAP1 SWAP6 POP SWAP4 POP POP POP POP JUMP JUMPDEST PUSH1 0x0 JUMPDEST DUP4 DUP2 LT ISZERO PUSH2 0x267E JUMPI DUP2 DUP2 ADD MLOAD DUP4 DUP3 ADD MSTORE PUSH1 0x20 ADD PUSH2 0x2666 JUMP JUMPDEST POP POP PUSH1 0x0 SWAP2 ADD MSTORE JUMP JUMPDEST PUSH1 0x0 PUSH1 0x20 DUP1 DUP4 ADD DUP2 DUP5 MSTORE DUP1 DUP6 MLOAD DUP1 DUP4 MSTORE PUSH1 0x40 DUP7 ADD SWAP2 POP PUSH1 0x40 DUP2 PUSH1 0x5 SHL DUP8 ADD ADD SWAP3 POP DUP4 DUP8 ADD PUSH1 0x0 JUMPDEST DUP3 DUP2 LT ISZERO PUSH2 0x26F4 JUMPI DUP8 DUP6 SUB PUSH1 0x3F NOT ADD DUP5 MSTORE DUP2 MLOAD DUP1 MLOAD DUP1 DUP8 MSTORE PUSH2 0x26D5 DUP2 DUP10 DUP10 ADD DUP11 DUP6 ADD PUSH2 0x2663 JUMP JUMPDEST PUSH1 0x1F ADD PUSH1 0x1F NOT AND SWAP6 SWAP1 SWAP6 ADD DUP7 ADD SWAP5 POP SWAP3 DUP6 ADD SWAP3 SWAP1 DUP6 ADD SWAP1 PUSH1 0x1 ADD PUSH2 0x26AE JUMP JUMPDEST POP SWAP3 SWAP8 SWAP7 POP POP POP POP POP POP POP JUMP JUMPDEST PUSH1 0x0 DUP1 PUSH1 0x0 PUSH1 0x60 DUP5 DUP7 SUB SLT ISZERO PUSH2 0x2716 JUMPI PUSH1 0x0 DUP1 REVERT JUMPDEST DUP4 CALLDATALOAD PUSH2 0x2721 DUP2 PUSH2 0x225D JUMP JUMPDEST SWAP3 POP PUSH1 0x20 DUP5 ADD CALLDATALOAD PUSH2 0x2731 DUP2 PUSH2 0x225D JUMP JUMPDEST SWAP2 POP PUSH1 0x40 DUP5 ADD CALLDATALOAD PUSH2 0x2741 DUP2 PUSH2 0x2532 JUMP JUMPDEST DUP1 SWAP2 POP POP SWAP3 POP SWAP3 POP SWAP3 JUMP JUMPDEST PUSH1 0x0 DUP1 PUSH1 0x40 DUP4 DUP6 SUB SLT ISZERO PUSH2 0x275F JUMPI PUSH1 0x0 DUP1 REVERT JUMPDEST DUP3 CALLDATALOAD PUSH2 0x25B0 DUP2 PUSH2 0x225D JUMP JUMPDEST PUSH1 0x0 DUP1 PUSH1 0x0 DUP1 PUSH1 0x60 DUP6 DUP8 SUB SLT ISZERO PUSH2 0x2780 JUMPI PUSH1 0x0 DUP1 REVERT JUMPDEST DUP5 CALLDATALOAD PUSH2 0x278B DUP2 PUSH2 0x225D JUMP JUMPDEST SWAP4 POP PUSH1 0x20 DUP6 ADD CALLDATALOAD PUSH1 0x1 PUSH1 0x1 PUSH1 0x40 SHL SUB DUP2 GT ISZERO PUSH2 0x27A6 JUMPI PUSH1 0x0 DUP1 REVERT JUMPDEST PUSH2 0x27B2 DUP8 DUP3 DUP9 ADD PUSH2 0x23BF JUMP JUMPDEST SWAP1 SWAP5 POP SWAP3 POP POP PUSH1 0x40 DUP6 ADD CALLDATALOAD PUSH6 0xFFFFFFFFFFFF DUP2 AND DUP2 EQ PUSH2 0x27D1 JUMPI PUSH1 0x0 DUP1 REVERT JUMPDEST SWAP4 SWAP7 SWAP3 SWAP6 POP SWAP1 SWAP4 POP POP JUMP JUMPDEST PUSH4 0x4E487B71 PUSH1 0xE0 SHL PUSH1 0x0 MSTORE PUSH1 0x32 PUSH1 0x4 MSTORE PUSH1 0x24 PUSH1 0x0 REVERT JUMPDEST PUSH1 0x0 PUSH1 0x20 DUP3 DUP5 SUB SLT ISZERO PUSH2 0x2804 JUMPI PUSH1 0x0 DUP1 REVERT JUMPDEST DUP2 CALLDATALOAD PUSH2 0x9D2 DUP2 PUSH2 0x2532 JUMP JUMPDEST PUSH4 0x4E487B71 PUSH1 0xE0 SHL PUSH1 0x0 MSTORE PUSH1 0x11 PUSH1 0x4 MSTORE PUSH1 0x24 PUSH1 0x0 REVERT JUMPDEST PUSH1 0x0 PUSH1 0x1 DUP3 ADD PUSH2 0x2837 JUMPI PUSH2 0x2837 PUSH2 0x280F JUMP JUMPDEST POP PUSH1 0x1 ADD SWAP1 JUMP JUMPDEST DUP2 DUP4 MSTORE DUP2 DUP2 PUSH1 0x20 DUP6 ADD CALLDATACOPY POP PUSH1 0x0 DUP3 DUP3 ADD PUSH1 0x20 SWAP1 DUP2 ADD SWAP2 SWAP1 SWAP2 MSTORE PUSH1 0x1F SWAP1 SWAP2 ADD PUSH1 0x1F NOT AND SWAP1 SWAP2 ADD ADD SWAP1 JUMP JUMPDEST PUSH1 0x20 DUP2 MSTORE PUSH1 0x0 PUSH2 0x287B PUSH1 0x20 DUP4 ADD DUP5 DUP7 PUSH2 0x283E JUMP JUMPDEST SWAP5 SWAP4 POP POP POP POP JUMP JUMPDEST PUSH1 0x0 PUSH1 0x20 DUP3 DUP5 SUB SLT ISZERO PUSH2 0x2895 JUMPI PUSH1 0x0 DUP1 REVERT JUMPDEST DUP2 MLOAD PUSH2 0x9D2 DUP2 PUSH2 0x2532 JUMP JUMPDEST PUSH1 0x0 PUSH1 0x1 PUSH1 0x1 PUSH1 0xA0 SHL SUB DUP1 DUP8 AND DUP4 MSTORE DUP1 DUP7 AND PUSH1 0x20 DUP5 ADD MSTORE POP PUSH1 0x60 PUSH1 0x40 DUP4 ADD MSTORE PUSH2 0x15DC PUSH1 0x60 DUP4 ADD DUP5 DUP7 PUSH2 0x283E JUMP JUMPDEST PUSH1 0x0 DUP1 DUP6 DUP6 GT ISZERO PUSH2 0x28DD JUMPI PUSH1 0x0 DUP1 REVERT JUMPDEST DUP4 DUP7 GT ISZERO PUSH2 0x28EA JUMPI PUSH1 0x0 DUP1 REVERT JUMPDEST POP POP DUP3 ADD SWAP4 SWAP2 SWAP1 SWAP3 SUB SWAP2 POP JUMP JUMPDEST PUSH4 0x4E487B71 PUSH1 0xE0 SHL PUSH1 0x0 MSTORE PUSH1 0x41 PUSH1 0x4 MSTORE PUSH1 0x24 PUSH1 0x0 REVERT JUMPDEST PUSH1 0x0 DUP1 DUP4 CALLDATALOAD PUSH1 0x1E NOT DUP5 CALLDATASIZE SUB ADD DUP2 SLT PUSH2 0x2924 JUMPI PUSH1 0x0 DUP1 REVERT JUMPDEST DUP4 ADD DUP1 CALLDATALOAD SWAP2 POP PUSH1 0x1 PUSH1 0x1 PUSH1 0x40 SHL SUB DUP3 GT ISZERO PUSH2 0x293E JUMPI PUSH1 0x0 DUP1 REVERT JUMPDEST PUSH1 0x20 ADD SWAP2 POP CALLDATASIZE DUP2 SWAP1 SUB DUP3 SGT ISZERO PUSH2 0xEF5 JUMPI PUSH1 0x0 DUP1 REVERT JUMPDEST DUP3 DUP5 DUP3 CALLDATACOPY PUSH1 0x0 DUP4 DUP3 ADD PUSH1 0x0 DUP2 MSTORE DUP4 MLOAD PUSH2 0x2970 DUP2 DUP4 PUSH1 0x20 DUP9 ADD PUSH2 0x2663 JUMP JUMPDEST ADD SWAP6 SWAP5 POP POP POP POP POP JUMP JUMPDEST PUSH6 0xFFFFFFFFFFFF DUP2 DUP2 AND DUP4 DUP3 AND ADD SWAP1 DUP1 DUP3 GT ISZERO PUSH2 0x2999 JUMPI PUSH2 0x2999 PUSH2 0x280F JUMP JUMPDEST POP SWAP3 SWAP2 POP POP JUMP JUMPDEST PUSH6 0xFFFFFFFFFFFF DUP7 AND DUP2 MSTORE PUSH1 0x0 PUSH1 0x1 PUSH1 0x1 PUSH1 0xA0 SHL SUB DUP1 DUP8 AND PUSH1 0x20 DUP5 ADD MSTORE DUP1 DUP7 AND PUSH1 0x40 DUP5 ADD MSTORE POP PUSH1 0x80 PUSH1 0x60 DUP4 ADD MSTORE PUSH2 0x29DB PUSH1 0x80 DUP4 ADD DUP5 DUP7 PUSH2 0x283E JUMP JUMPDEST SWAP8 SWAP7 POP POP POP POP POP POP POP JUMP JUMPDEST PUSH1 0x1 PUSH1 0x1 PUSH1 0xE0 SHL SUB NOT DUP2 CALLDATALOAD DUP2 DUP2 AND SWAP2 PUSH1 0x4 DUP6 LT ISZERO PUSH2 0xD60 JUMPI PUSH1 0x4 SWAP5 SWAP1 SWAP5 SUB PUSH1 0x3 SHL DUP5 SWAP1 SHL AND SWAP1 SWAP3 AND SWAP3 SWAP2 POP POP JUMP JUMPDEST PUSH1 0x0 DUP3 MLOAD PUSH2 0x2A26 DUP2 DUP5 PUSH1 0x20 DUP8 ADD PUSH2 0x2663 JUMP JUMPDEST SWAP2 SWAP1 SWAP2 ADD SWAP3 SWAP2 POP POP JUMP JUMPDEST PUSH4 0xFFFFFFFF DUP3 DUP2 AND DUP3 DUP3 AND SUB SWAP1 DUP1 DUP3 GT ISZERO PUSH2 0x2999 JUMPI PUSH2 0x2999 PUSH2 0x280F JUMP INVALID LOG1 PUSH5 0x736F6C6343 STOP ADDMOD EQ STOP EXP "},"gasEstimates":{"creation":{"codeDepositCost":"2168400","executionCost":"infinite","totalCost":"infinite"},"external":{"ADMIN_ROLE()":"273","PUBLIC_ROLE()":"307","canCall(address,address,bytes4)":"infinite","cancel(address,address,bytes)":"infinite","consumeScheduledOp(address,bytes)":"infinite","execute(address,bytes)":"infinite","expiration()":"246","getAccess(uint64,address)":"3388","getNonce(bytes32)":"2576","getRoleAdmin(uint64)":"2679","getRoleGrantDelay(uint64)":"3115","getRoleGuardian(uint64)":"2648","getSchedule(bytes32)":"2818","getTargetAdminDelay(address)":"3068","getTargetFunctionRole(address,bytes4)":"infinite","grantRole(uint64,address,uint32)":"infinite","hasRole(uint64,address)":"infinite","hashOperation(address,address,bytes)":"infinite","isTargetClosed(address)":"2614","labelRole(uint64,string)":"infinite","minSetback()":"290","multicall(bytes[])":"infinite","renounceRole(uint64,address)":"28873","revokeRole(uint64,address)":"infinite","schedule(address,bytes,uint48)":"1815","setGrantDelay(uint64,uint32)":"infinite","setRoleAdmin(uint64,uint64)":"infinite","setRoleGuardian(uint64,uint64)":"infinite","setTargetAdminDelay(address,uint32)":"infinite","setTargetClosed(address,bool)":"infinite","setTargetFunctionRole(address,bytes4[],uint64)":"infinite","updateAuthority(address,address)":"infinite"},"internal":{"_canCallExtended(address,address,bytes calldata)":"infinite","_canCallSelf(address,bytes calldata)":"infinite","_checkAuthorized()":"infinite","_checkNotScheduled(bytes32)":"infinite","_checkSelector(bytes calldata)":"251","_consumeScheduledOp(bytes32)":"infinite","_getAdminRestrictions(bytes calldata)":"infinite","_grantRole(uint64,address,uint32,uint32)":"infinite","_hashExecutionId(address,bytes4)":"infinite","_isExecuting(address,bytes4)":"infinite","_isExpired(uint48)":"infinite","_revokeRole(uint64,address)":"infinite","_setGrantDelay(uint64,uint32)":"infinite","_setRoleAdmin(uint64,uint64)":"infinite","_setRoleGuardian(uint64,uint64)":"infinite","_setTargetAdminDelay(address,uint32)":"infinite","_setTargetClosed(address,bool)":"infinite","_setTargetFunctionRole(address,bytes4,uint64)":"infinite"}},"methodIdentifiers":{"ADMIN_ROLE()":"75b238fc","PUBLIC_ROLE()":"3ca7c02a","canCall(address,address,bytes4)":"b7009613","cancel(address,address,bytes)":"d6bb62c6","consumeScheduledOp(address,bytes)":"94c7d7ee","execute(address,bytes)":"1cff79cd","expiration()":"4665096d","getAccess(uint64,address)":"3078f114","getNonce(bytes32)":"4136a33c","getRoleAdmin(uint64)":"530dd456","getRoleGrantDelay(uint64)":"12be8727","getRoleGuardian(uint64)":"0b0a93ba","getSchedule(bytes32)":"3adc277a","getTargetAdminDelay(address)":"4c1da1e2","getTargetFunctionRole(address,bytes4)":"6d5115bd","grantRole(uint64,address,uint32)":"25c471a0","hasRole(uint64,address)":"d1f856ee","hashOperation(address,address,bytes)":"abd9bd2a","isTargetClosed(address)":"a166aa89","labelRole(uint64,string)":"853551b8","minSetback()":"cc1b6c81","multicall(bytes[])":"ac9650d8","renounceRole(uint64,address)":"fe0776f5","revokeRole(uint64,address)":"b7d2b162","schedule(address,bytes,uint48)":"f801a698","setGrantDelay(uint64,uint32)":"a64d95ce","setRoleAdmin(uint64,uint64)":"30cae187","setRoleGuardian(uint64,uint64)":"52962952","setTargetAdminDelay(address,uint32)":"d22b5989","setTargetClosed(address,bool)":"167bd395","setTargetFunctionRole(address,bytes4[],uint64)":"08d6122d","updateAuthority(address,address)":"18ff183c"}},"storageLayout":{"storage":[{"astId":225,"contract":"@openzeppelin/contracts/access/manager/AccessManager.sol:AccessManager","label":"_targets","offset":0,"slot":"0","type":"t_mapping(t_address,t_struct(TargetConfig)182_storage)"},{"astId":230,"contract":"@openzeppelin/contracts/access/manager/AccessManager.sol:AccessManager","label":"_roles","offset":0,"slot":"1","type":"t_mapping(t_uint64,t_struct(Role)201_storage)"},{"astId":235,"contract":"@openzeppelin/contracts/access/manager/AccessManager.sol:AccessManager","label":"_schedules","offset":0,"slot":"2","type":"t_mapping(t_bytes32,t_struct(Schedule)206_storage)"},{"astId":237,"contract":"@openzeppelin/contracts/access/manager/AccessManager.sol:AccessManager","label":"_executionId","offset":0,"slot":"3","type":"t_bytes32"}],"types":{"t_address":{"encoding":"inplace","label":"address","numberOfBytes":"20"},"t_bool":{"encoding":"inplace","label":"bool","numberOfBytes":"1"},"t_bytes32":{"encoding":"inplace","label":"bytes32","numberOfBytes":"32"},"t_bytes4":{"encoding":"inplace","label":"bytes4","numberOfBytes":"4"},"t_mapping(t_address,t_struct(Access)188_storage)":{"encoding":"mapping","key":"t_address","label":"mapping(address => struct AccessManager.Access)","numberOfBytes":"32","value":"t_struct(Access)188_storage"},"t_mapping(t_address,t_struct(TargetConfig)182_storage)":{"encoding":"mapping","key":"t_address","label":"mapping(address => struct AccessManager.TargetConfig)","numberOfBytes":"32","value":"t_struct(TargetConfig)182_storage"},"t_mapping(t_bytes32,t_struct(Schedule)206_storage)":{"encoding":"mapping","key":"t_bytes32","label":"mapping(bytes32 => struct AccessManager.Schedule)","numberOfBytes":"32","value":"t_struct(Schedule)206_storage"},"t_mapping(t_bytes4,t_uint64)":{"encoding":"mapping","key":"t_bytes4","label":"mapping(bytes4 => uint64)","numberOfBytes":"32","value":"t_uint64"},"t_mapping(t_uint64,t_struct(Role)201_storage)":{"encoding":"mapping","key":"t_uint64","label":"mapping(uint64 => struct AccessManager.Role)","numberOfBytes":"32","value":"t_struct(Role)201_storage"},"t_struct(Access)188_storage":{"encoding":"inplace","label":"struct AccessManager.Access","members":[{"astId":184,"contract":"@openzeppelin/contracts/access/manager/AccessManager.sol:AccessManager","label":"since","offset":0,"slot":"0","type":"t_uint48"},{"astId":187,"contract":"@openzeppelin/contracts/access/manager/AccessManager.sol:AccessManager","label":"delay","offset":6,"slot":"0","type":"t_userDefinedValueType(Delay)7676"}],"numberOfBytes":"32"},"t_struct(Role)201_storage":{"encoding":"inplace","label":"struct AccessManager.Role","members":[{"astId":193,"contract":"@openzeppelin/contracts/access/manager/AccessManager.sol:AccessManager","label":"members","offset":0,"slot":"0","type":"t_mapping(t_address,t_struct(Access)188_storage)"},{"astId":195,"contract":"@openzeppelin/contracts/access/manager/AccessManager.sol:AccessManager","label":"admin","offset":0,"slot":"1","type":"t_uint64"},{"astId":197,"contract":"@openzeppelin/contracts/access/manager/AccessManager.sol:AccessManager","label":"guardian","offset":8,"slot":"1","type":"t_uint64"},{"astId":200,"contract":"@openzeppelin/contracts/access/manager/AccessManager.sol:AccessManager","label":"grantDelay","offset":16,"slot":"1","type":"t_userDefinedValueType(Delay)7676"}],"numberOfBytes":"64"},"t_struct(Schedule)206_storage":{"encoding":"inplace","label":"struct AccessManager.Schedule","members":[{"astId":203,"contract":"@openzeppelin/contracts/access/manager/AccessManager.sol:AccessManager","label":"timepoint","offset":0,"slot":"0","type":"t_uint48"},{"astId":205,"contract":"@openzeppelin/contracts/access/manager/AccessManager.sol:AccessManager","label":"nonce","offset":6,"slot":"0","type":"t_uint32"}],"numberOfBytes":"32"},"t_struct(TargetConfig)182_storage":{"encoding":"inplace","label":"struct AccessManager.TargetConfig","members":[{"astId":176,"contract":"@openzeppelin/contracts/access/manager/AccessManager.sol:AccessManager","label":"allowedRoles","offset":0,"slot":"0","type":"t_mapping(t_bytes4,t_uint64)"},{"astId":179,"contract":"@openzeppelin/contracts/access/manager/AccessManager.sol:AccessManager","label":"adminDelay","offset":0,"slot":"1","type":"t_userDefinedValueType(Delay)7676"},{"astId":181,"contract":"@openzeppelin/contracts/access/manager/AccessManager.sol:AccessManager","label":"closed","offset":14,"slot":"1","type":"t_bool"}],"numberOfBytes":"64"},"t_uint32":{"encoding":"inplace","label":"uint32","numberOfBytes":"4"},"t_uint48":{"encoding":"inplace","label":"uint48","numberOfBytes":"6"},"t_uint64":{"encoding":"inplace","label":"uint64","numberOfBytes":"8"},"t_userDefinedValueType(Delay)7676":{"encoding":"inplace","label":"Time.Delay","numberOfBytes":"14"}}},"userdoc":{"kind":"user","methods":{},"version":1}}}}