{"contracts/management/CXBTokenPurchase.sol":{"CXBTokenPurchase":{"abi":[{"inputs":[{"internalType":"address","name":"_token","type":"address"},{"internalType":"address","name":"_chainlink","type":"address"},{"internalType":"uint256","name":"_native","type":"uint256"},{"internalType":"uint256","name":"_bonus","type":"uint256"},{"internalType":"address","name":"initialAuthority","type":"address"}],"stateMutability":"payable","type":"constructor"},{"inputs":[{"internalType":"address","name":"authority","type":"address"}],"name":"AccessManagedInvalidAuthority","type":"error"},{"inputs":[{"internalType":"address","name":"caller","type":"address"},{"internalType":"uint32","name":"delay","type":"uint32"}],"name":"AccessManagedRequiredDelay","type":"error"},{"inputs":[{"internalType":"address","name":"caller","type":"address"}],"name":"AccessManagedUnauthorized","type":"error"},{"inputs":[],"name":"BadReferrer","type":"error"},{"inputs":[{"internalType":"address","name":"buyer","type":"address"},{"internalType":"address","name":"target","type":"address"},{"internalType":"address","name":"currency","type":"address"},{"internalType":"uint256","name":"amount","type":"uint256"}],"name":"CannotMakeTransfers","type":"error"},{"inputs":[{"internalType":"address","name":"currency","type":"address"}],"name":"CannotTransfer","type":"error"},{"inputs":[{"internalType":"address","name":"currency","type":"address"},{"internalType":"address","name":"target","type":"address"},{"internalType":"uint256","name":"amount","type":"uint256"}],"name":"CannotWithdraw","type":"error"},{"inputs":[],"name":"EmptyChainLink","type":"error"},{"inputs":[],"name":"EmptyCurrency","type":"error"},{"inputs":[],"name":"EmptyNativeRate","type":"error"},{"inputs":[],"name":"EmptyNewToken","type":"error"},{"inputs":[],"name":"EmptyRate","type":"error"},{"inputs":[],"name":"EmptyToken","type":"error"},{"inputs":[],"name":"EmptyValue","type":"error"},{"inputs":[],"name":"EnforcedPause","type":"error"},{"inputs":[{"internalType":"bytes32","name":"key","type":"bytes32"}],"name":"EnumerableMapNonexistentKey","type":"error"},{"inputs":[],"name":"ExpectedPause","type":"error"},{"inputs":[],"name":"IncorrectPosition","type":"error"},{"inputs":[],"name":"LowRate","type":"error"},{"inputs":[],"name":"NoBuyerProvided","type":"error"},{"inputs":[{"internalType":"address","name":"target","type":"address"}],"name":"NotOwned","type":"error"},{"inputs":[{"internalType":"uint256","name":"rate","type":"uint256"}],"name":"TooBigRate","type":"error"},{"inputs":[{"internalType":"address","name":"buyer","type":"address"},{"internalType":"address","name":"currency","type":"address"},{"internalType":"uint256","name":"balance","type":"uint256"},{"internalType":"uint256","name":"amount","type":"uint256"}],"name":"UnsufficientBalance","type":"error"},{"inputs":[{"internalType":"uint256","name":"amount","type":"uint256"}],"name":"UnsufficientPurchaseBalance","type":"error"},{"inputs":[{"internalType":"address","name":"currency","type":"address"},{"internalType":"uint256","name":"amount","type":"uint256"}],"name":"ZeroAmount","type":"error"},{"anonymous":false,"inputs":[{"indexed":false,"internalType":"address","name":"authority","type":"address"}],"name":"AuthorityUpdated","type":"event"},{"anonymous":false,"inputs":[{"indexed":true,"internalType":"address","name":"sender","type":"address"},{"indexed":true,"internalType":"address","name":"currency","type":"address"},{"indexed":true,"internalType":"uint256","name":"value","type":"uint256"},{"indexed":false,"internalType":"uint256","name":"amount","type":"uint256"}],"name":"BoughtTokens","type":"event"},{"anonymous":false,"inputs":[{"indexed":false,"internalType":"address","name":"account","type":"address"}],"name":"Paused","type":"event"},{"anonymous":false,"inputs":[{"indexed":true,"internalType":"address","name":"sender","type":"address"},{"indexed":true,"internalType":"address","name":"referral","type":"address"},{"indexed":true,"internalType":"address","name":"currency","type":"address"},{"indexed":false,"internalType":"uint256","name":"amount","type":"uint256"},{"indexed":false,"internalType":"uint256","name":"cashAmount","type":"uint256"},{"indexed":false,"internalType":"uint256","name":"tokenAmount","type":"uint256"}],"name":"ReferralsProvided","type":"event"},{"anonymous":false,"inputs":[{"indexed":false,"internalType":"address","name":"account","type":"address"}],"name":"Unpaused","type":"event"},{"inputs":[{"internalType":"uint256","name":"ratePos","type":"uint256"}],"name":"at","outputs":[{"internalType":"address","name":"","type":"address"},{"internalType":"uint256","name":"","type":"uint256"}],"stateMutability":"view","type":"function"},{"inputs":[],"name":"authority","outputs":[{"internalType":"address","name":"","type":"address"}],"stateMutability":"view","type":"function"},{"inputs":[{"internalType":"address","name":"currency","type":"address"}],"name":"balanceOf","outputs":[{"internalType":"uint256","name":"","type":"uint256"}],"stateMutability":"view","type":"function"},{"inputs":[],"name":"bonus","outputs":[{"internalType":"uint8","name":"","type":"uint8"}],"stateMutability":"view","type":"function"},{"inputs":[{"internalType":"address","name":"buyer","type":"address"},{"internalType":"address","name":"currency","type":"address"},{"internalType":"uint256","name":"value","type":"uint256"},{"internalType":"address","name":"referral","type":"address"}],"name":"buy","outputs":[{"internalType":"bool","name":"","type":"bool"}],"stateMutability":"nonpayable","type":"function"},{"inputs":[{"internalType":"address","name":"currency","type":"address"},{"internalType":"uint256","name":"value","type":"uint256"},{"internalType":"address","name":"referral","type":"address"}],"name":"buy","outputs":[{"internalType":"bool","name":"","type":"bool"}],"stateMutability":"nonpayable","type":"function"},{"inputs":[{"internalType":"address","name":"currency","type":"address"},{"internalType":"uint256","name":"value","type":"uint256"}],"name":"calculateAmount","outputs":[{"internalType":"uint256","name":"","type":"uint256"}],"stateMutability":"view","type":"function"},{"inputs":[],"name":"cashPercent","outputs":[{"internalType":"uint8","name":"","type":"uint8"}],"stateMutability":"view","type":"function"},{"inputs":[],"name":"chainLinkInterface","outputs":[{"internalType":"address","name":"","type":"address"}],"stateMutability":"view","type":"function"},{"inputs":[{"internalType":"address payable","name":"_to","type":"address"},{"internalType":"address","name":"newOwner","type":"address"}],"name":"clean","outputs":[],"stateMutability":"nonpayable","type":"function"},{"inputs":[],"name":"deposit","outputs":[],"stateMutability":"payable","type":"function"},{"inputs":[{"internalType":"address","name":"referral","type":"address"}],"name":"deposit","outputs":[],"stateMutability":"payable","type":"function"},{"inputs":[{"internalType":"address","name":"currency","type":"address"}],"name":"hasRate","outputs":[{"internalType":"bool","name":"","type":"bool"}],"stateMutability":"view","type":"function"},{"inputs":[],"name":"isConsumingScheduledOp","outputs":[{"internalType":"bytes4","name":"","type":"bytes4"}],"stateMutability":"view","type":"function"},{"inputs":[],"name":"length","outputs":[{"internalType":"uint256","name":"","type":"uint256"}],"stateMutability":"view","type":"function"},{"inputs":[],"name":"nativeRate","outputs":[{"internalType":"uint256","name":"","type":"uint256"}],"stateMutability":"view","type":"function"},{"inputs":[],"name":"pause","outputs":[],"stateMutability":"nonpayable","type":"function"},{"inputs":[],"name":"paused","outputs":[{"internalType":"bool","name":"","type":"bool"}],"stateMutability":"view","type":"function"},{"inputs":[{"internalType":"address","name":"currency","type":"address"}],"name":"rate","outputs":[{"internalType":"uint256","name":"","type":"uint256"}],"stateMutability":"view","type":"function"},{"inputs":[{"internalType":"address","name":"newAuthority","type":"address"}],"name":"setAuthority","outputs":[],"stateMutability":"nonpayable","type":"function"},{"inputs":[{"internalType":"uint8","name":"_bonus","type":"uint8"}],"name":"setBonus","outputs":[],"stateMutability":"nonpayable","type":"function"},{"inputs":[{"internalType":"uint8","name":"percent","type":"uint8"}],"name":"setCashPercent","outputs":[],"stateMutability":"nonpayable","type":"function"},{"inputs":[{"internalType":"address","name":"_chainlink","type":"address"}],"name":"setChainLinkInterface","outputs":[],"stateMutability":"nonpayable","type":"function"},{"inputs":[{"internalType":"uint256","name":"_native","type":"uint256"}],"name":"setNativeRate","outputs":[],"stateMutability":"nonpayable","type":"function"},{"inputs":[{"internalType":"address","name":"currency","type":"address"},{"internalType":"uint256","name":"_rate","type":"uint256"}],"name":"setRate","outputs":[{"internalType":"bool","name":"","type":"bool"}],"stateMutability":"nonpayable","type":"function"},{"inputs":[{"internalType":"address","name":"_token","type":"address"}],"name":"setToken","outputs":[],"stateMutability":"nonpayable","type":"function"},{"inputs":[{"internalType":"uint8","name":"percent","type":"uint8"}],"name":"setTokenPercent","outputs":[],"stateMutability":"nonpayable","type":"function"},{"inputs":[{"internalType":"address","name":"_vesting","type":"address"}],"name":"setVesting","outputs":[],"stateMutability":"nonpayable","type":"function"},{"inputs":[],"name":"token","outputs":[{"internalType":"address","name":"","type":"address"}],"stateMutability":"view","type":"function"},{"inputs":[],"name":"tokenPercent","outputs":[{"internalType":"uint8","name":"","type":"uint8"}],"stateMutability":"view","type":"function"},{"inputs":[],"name":"unpause","outputs":[],"stateMutability":"nonpayable","type":"function"},{"inputs":[],"name":"vesting","outputs":[{"internalType":"address","name":"","type":"address"}],"stateMutability":"view","type":"function"},{"inputs":[{"internalType":"address payable","name":"_to","type":"address"}],"name":"withdraw","outputs":[],"stateMutability":"nonpayable","type":"function"},{"inputs":[{"internalType":"address","name":"currency","type":"address"},{"internalType":"address","name":"_to","type":"address"}],"name":"withdraw","outputs":[],"stateMutability":"nonpayable","type":"function"}],"devdoc":{"errors":{"EnforcedPause()":[{"details":"The operation failed because the contract is paused."}],"EnumerableMapNonexistentKey(bytes32)":[{"details":"Query for a nonexistent map key."}],"ExpectedPause()":[{"details":"The operation failed because the contract is not paused."}]},"events":{"AuthorityUpdated(address)":{"details":"Authority that manages this contract was updated."},"Paused(address)":{"details":"Emitted when the pause is triggered by `account`."},"Unpaused(address)":{"details":"Emitted when the pause is lifted by `account`."}},"kind":"dev","methods":{"authority()":{"details":"Returns the current authority."},"isConsumingScheduledOp()":{"details":"Returns true only in the context of a delayed restricted call, at the moment that the scheduled operation is being consumed. Prevents denial of service for delayed restricted calls in the case that the contract performs attacker controlled calls."},"paused()":{"details":"Returns true if the contract is paused, and false otherwise."},"setAuthority(address)":{"details":"Transfers control to a new authority. The caller must be the current authority."},"setRate(address,uint256)":{"params":{"_rate":"the exchange rate to token","currency":"the address of the currency token"}}},"version":1},"evm":{"bytecode":{"linkReferences":{},"object":"608060405260405162002af838038062002af8833981016040819052620000269162000127565b8085858585816000036200004d5760405163200b3d2560e01b815260040160405180910390fd5b6200005a81606462000185565b60035550600080546001600160a01b039485166001600160a01b03199182161790915560028054939094169216919091179091556006556200009c81620000b6565b5050600c805460ff60a81b1916905550620001ad92505050565b600c80546001600160a01b0319166001600160a01b0383169081179091556040519081527f2f658b440c35314f52658ea8a740e05b284cdc84dc9ae01e891f21b8933e7cad9060200160405180910390a150565b80516001600160a01b03811681146200012257600080fd5b919050565b600080600080600060a086880312156200014057600080fd5b6200014b866200010a565b94506200015b602087016200010a565b9350604086015192506060860151915062000179608087016200010a565b90509295509295909350565b80820180821115620001a757634e487b7160e01b600052601160045260246000fd5b92915050565b61293b80620001bd6000396000f3fe6080604052600436106102195760003560e01c80637622b8581161011d578063db61c76e116100b0578063e6ed47461161007f578063f940e38511610064578063f940e385146105fd578063fc0c546a1461061d578063fcfe30f51461063b57600080fd5b8063e6ed4746146105ca578063f340fa01146105ea57600080fd5b8063db61c76e14610536578063df50af8814610556578063e0781b7a1461056b578063e0886f901461058b57600080fd5b80638fb36037116100ec5780638fb36037146104c2578063afe14c19146104f0578063bf7e214f14610510578063d0e30db01461052e57600080fd5b80637622b8581461046357806379856671146104785780637a9e5e4b1461048d5780638456cb59146104ad57600080fd5b80632f720a15116101b05780635c975abb1161017f5780636f6ff3bc116101645780636f6ff3bc146103fc57806370a082311461041c57806375b4d78c1461043c57600080fd5b80635c975abb146103bd5780636e445857146103dc57600080fd5b80632f720a151461034a5780633f4ba83a1461036a57806344c63eec1461037f57806351cff8d91461039d57600080fd5b80631f7b6d32116101ec5780631f7b6d32146102d5578063286bcc80146102ea57806329550f971461030a5780632bdb70971461032a57600080fd5b80630ba9d8ca1461021e57806310c729e814610251578063144fa6d7146102815780631cd7f8f8146102a3575b600080fd5b34801561022a57600080fd5b5061023e6102393660046124b3565b61065b565b6040519081526020015b60405180910390f35b34801561025d57600080fd5b5061027161026c3660046124d0565b6106ac565b6040519015158152602001610248565b34801561028d57600080fd5b506102a161029c3660046124b3565b6106d2565b005b3480156102af57600080fd5b506002546001600160a01b03165b6040516001600160a01b039091168152602001610248565b3480156102e157600080fd5b5061023e6106eb565b3480156102f657600080fd5b506102a1610305366004612523565b6106fc565b34801561031657600080fd5b5061023e61032536600461253c565b61070e565b34801561033657600080fd5b5061027161034536600461253c565b610721565b34801561035657600080fd5b506102a1610365366004612577565b610736565b34801561037657600080fd5b506102a161074b565b34801561038b57600080fd5b506001546001600160a01b03166102bd565b3480156103a957600080fd5b506102a16103b83660046124b3565b61075e565b3480156103c957600080fd5b50600c54600160a81b900460ff16610271565b3480156103e857600080fd5b506102a16103f7366004612577565b610776565b34801561040857600080fd5b506102a16104173660046124b3565b61078b565b34801561042857600080fd5b5061023e6104373660046124b3565b6107b2565b34801561044857600080fd5b50610451610891565b60405160ff9091168152602001610248565b34801561046f57600080fd5b50600554610451565b34801561048457600080fd5b5060065461023e565b34801561049957600080fd5b506102a16104a83660046124b3565b6108a2565b3480156104b957600080fd5b506102a1610921565b3480156104ce57600080fd5b506104d7610932565b6040516001600160e01b03199091168152602001610248565b3480156104fc57600080fd5b506102a161050b366004612594565b610958565b34801561051c57600080fd5b50600c546001600160a01b03166102bd565b6102a161096b565b34801561054257600080fd5b506102716105513660046125cd565b610989565b34801561056257600080fd5b50600454610451565b34801561057757600080fd5b506102716105863660046124b3565b6109ae565b34801561059757600080fd5b506105ab6105a6366004612523565b6109e2565b604080516001600160a01b039093168352602083019190915201610248565b3480156105d657600080fd5b506102a16105e5366004612577565b610a22565b6102a16105f83660046124b3565b610a34565b34801561060957600080fd5b506102a1610618366004612594565b610a56565b34801561062957600080fd5b506000546001600160a01b03166102bd565b34801561064757600080fd5b506102a16106563660046124b3565b610a69565b60006001600160a01b03821661068457604051630560d24960e11b815260040160405180910390fd5b61068f600783610a7b565b61069b57506000919050565b6106a6600783610a90565b92915050565b6000806106b98585610aa5565b90506106c88686868487610c1f565b9695505050505050565b6106df335b6000366116f8565b6106e8816117f8565b50565b60006106f76007611841565b905090565b610705336106d7565b6106e88161184c565b600061071a8383610aa5565b9392505050565b600061072c336106d7565b61071a8383611872565b61073f336106d7565b6106e88160ff16600455565b610754336106d7565b61075c61199f565b565b610767336106d7565b47156106e8576106e8816119f4565b61077f336106d7565b6106e88160ff16600555565b610794336106d7565b600180546001600160a01b0319166001600160a01b03831617905550565b60405163703c0dbd60e11b81526001600160a01b0382166004820152600090309063e0781b7a90602401602060405180830381865afa1580156107f9573d6000803e3d6000fd5b505050506040513d601f19601f8201168201806040525081019061081d9190612624565b61082957506000919050565b6040516370a0823160e01b81523060048201526001600160a01b038316906370a0823190602401602060405180830381865afa15801561086d573d6000803e3d6000fd5b505050506040513d601f19601f820116820180604052508101906106a6919061263f565b600060646003546106f7919061266e565b600c5433906001600160a01b031681146108de5760405162d1953b60e31b81526001600160a01b03821660048201526024015b60405180910390fd5b816001600160a01b03163b600003610914576040516361798f2f60e11b81526001600160a01b03831660048201526024016108d5565b61091d82611a81565b5050565b61092a336106d7565b61075c611ad5565b600c54600090600160a01b900460ff1661094c5750600090565b50638fb3603760e01b90565b610961336106d7565b61091d8282611b18565b6000610978600034610aa5565b905061091d33600034846000610c1f565b6000806109968585610aa5565b90506109a53386868487610c1f565b95945050505050565b60006001600160a01b0382166109d757604051630560d24960e11b815260040160405180910390fd5b6106a6600783610a7b565b6000806109ef6007611841565b8310610a0e5760405163188da0b360e21b815260040160405180910390fd5b610a19600784611e42565b91509150915091565b610a2b336106d7565b6106e881611e5e565b6000610a41600034610aa5565b9050610a51336000348486610c1f565b505050565b610a5f336106d7565b61091d8282611e72565b610a72336106d7565b6106e881611ff6565b600061071a836001600160a01b03841661203f565b600061071a836001600160a01b03841661204b565b60006001600160a01b038316610ac557610abe82612092565b90506106a6565b81600003610ae657604051631208b21b60e01b815260040160405180910390fd5b6000546001600160a01b0316610b0f5760405163066f53b160e01b815260040160405180910390fd5b6000836001600160a01b031663313ce5676040518163ffffffff1660e01b8152600401602060405180830381865afa158015610b4f573d6000803e3d6000fd5b505050506040513d601f19601f82011682018060405250810190610b739190612681565b610b7e90600261269e565b6040516305d4ec6560e11b81526001600160a01b038616600482015260ff9190911691506000903090630ba9d8ca90602401602060405180830381865afa158015610bcd573d6000803e3d6000fd5b505050506040513d601f19601f82011682018060405250810190610bf1919061263f565b9050610bfe82600a61279b565b600354610c0b86846127a7565b610c1591906127a7565b6109a591906127be565b60006001600160a01b038616610c4857604051635ec1f37960e01b815260040160405180910390fd5b816001600160a01b0316866001600160a01b031603610c7a576040516324da60a760e21b815260040160405180910390fd5b82600003610cad57604051632a3fd1cb60e01b81526001600160a01b0386166004820152602481018590526044016108d5565b6001600160a01b03851615610d70576040516370a0823160e01b81526001600160a01b038781166004830152600091908716906370a0823190602401602060405180830381865afa158015610d06573d6000803e3d6000fd5b505050506040513d601f19601f82011682018060405250810190610d2a919061263f565b905084811015610d6e576040516321d6041b60e01b81526001600160a01b0380891660048301528716602482015260448101829052606481018690526084016108d5565b505b600080546040516370a0823160e01b81523060048201526001600160a01b03909116906370a0823190602401602060405180830381865afa158015610db9573d6000803e3d6000fd5b505050506040513d601f19601f82011682018060405250810190610ddd919061263f565b905083811015610e035760405163014ab18560e11b8152600481018590526024016108d5565b60006001600160a01b03841615801590610e1f57506000600454115b156110a357606460045487610e3491906127a7565b610e3e91906127be565b90506001600160a01b038716610ee1576000846001600160a01b03168260405160006040518083038185875af1925050503d8060008114610e9b576040519150601f19603f3d011682016040523d82523d6000602084013e610ea0565b606091505b5050905080610edb57604051631bc3cdfd60e21b8152600060048201526001600160a01b0386166024820152604481018390526064016108d5565b50611168565b6040516323b872dd60e01b81526001600160a01b038981166004830152306024830152604482018890528816906323b872dd906064016020604051808303816000875af1158015610f36573d6000803e3d6000fd5b505050506040513d601f19601f82011682018060405250810190610f5a9190612624565b610f9757604051631667981f60e01b81526001600160a01b03808a16600483015230602483015288166044820152606481018790526084016108d5565b60405163a9059cbb60e01b81526001600160a01b0385811660048301526024820183905288169063a9059cbb906044016020604051808303816000875af1158015610fe6573d6000803e3d6000fd5b505050506040513d601f19601f8201168201806040525081019061100a9190612624565b61104757604051631667981f60e01b81523060048201526001600160a01b03808616602483015288166044820152606481018290526084016108d5565b6001600160a01b038085166000908152600a60209081526040808320938b16835292905220546110789082906127e0565b6001600160a01b038086166000908152600a60209081526040808320938c1683529290522055611168565b6001600160a01b03871615611168576040516323b872dd60e01b81526001600160a01b038981166004830152306024830152604482018890528816906323b872dd906064016020604051808303816000875af1158015611107573d6000803e3d6000fd5b505050506040513d601f19601f8201168201806040525081019061112b9190612624565b61116857604051631667981f60e01b81526001600160a01b03808a16600483015230602483015288166044820152606481018790526084016108d5565b60006001600160a01b0385161580159061118457506000600554115b156112a25760008054906101000a90046001600160a01b03166001600160a01b031663313ce5676040518163ffffffff1660e01b8152600401602060405180830381865afa1580156111da573d6000803e3d6000fd5b505050506040513d601f19601f820116820180604052508101906111fe9190612681565b61120990600261269e565b61121490600a6127f3565b6005546040516305d4ec6560e11b81526001600160a01b038b16600482015289903090630ba9d8ca90602401602060405180830381865afa15801561125d573d6000803e3d6000fd5b505050506040513d601f19601f82011682018060405250810190611281919061263f565b61128b91906127a7565b61129591906127a7565b61129f91906127be565b90505b6001546001600160a01b031661146b5760005460405163a9059cbb60e01b81526001600160a01b038b81166004830152602482018990529091169063a9059cbb906044016020604051808303816000875af1158015611305573d6000803e3d6000fd5b505050506040513d601f19601f820116820180604052508101906113299190612624565b61136a57600054604051631667981f60e01b81523060048201526001600160a01b03808c1660248301529091166044820152606481018790526084016108d5565b80156114665760005460405163a9059cbb60e01b81526001600160a01b038781166004830152602482018490529091169063a9059cbb906044016020604051808303816000875af11580156113c3573d6000803e3d6000fd5b505050506040513d601f19601f820116820180604052508101906113e79190612624565b61142857600054604051631667981f60e01b81523060048201526001600160a01b0380881660248301529091166044820152606481018290526084016108d5565b6001600160a01b0385166000908152600b602052604090205461144c9082906127e0565b6001600160a01b0386166000908152600b60205260409020555b611632565b6000546001546001600160a01b039182169163a9059cbb911661148e848a6127e0565b6040516001600160e01b031960e085901b1681526001600160a01b03909216600483015260248201526044016020604051808303816000875af11580156114d9573d6000803e3d6000fd5b505050506040513d601f19601f820116820180604052508101906114fd9190612624565b61155c5760015460005430916001600160a01b039081169116611520848a6127e0565b604051631667981f60e01b81526001600160a01b03948516600482015292841660248401529216604482015260648101919091526084016108d5565b600154604051631f72642160e31b81526001600160a01b038b81166004830152602482018990529091169063fb93210890604401600060405180830381600087803b1580156115aa57600080fd5b505af11580156115be573d6000803e3d6000fd5b50505050600081111561163257600154604051631f72642160e31b81526001600160a01b038781166004830152602482018490529091169063fb93210890604401600060405180830381600087803b15801561161957600080fd5b505af115801561162d573d6000803e3d6000fd5b505050505b60008211806116415750600081115b1561169b5760408051888152602081018490529081018290526001600160a01b03808a1691878216918c16907fcc73881edfa10ebe0b193c9634f7b693ee798ba7a11076b56f697522a890db8f9060600160405180910390a45b86886001600160a01b03168a6001600160a01b03167f314898f27b62de59a1d7326707c74b7991036f43ed22658d064228c032e76fda896040516116e191815260200190565b60405180910390a450600198975050505050505050565b60008061172e611710600c546001600160a01b031690565b863061172060046000898b612802565b6117299161282c565b61220c565b91509150816117f15763ffffffff8116156117ce57600c805460ff60a01b198116600160a01b17909155604051634a63ebf760e11b81526001600160a01b03909116906394c7d7ee906117899088908890889060040161285c565b600060405180830381600087803b1580156117a357600080fd5b505af11580156117b7573d6000803e3d6000fd5b5050600c805460ff60a01b19169055506117f19050565b60405162d1953b60e31b81526001600160a01b03861660048201526024016108d5565b5050505050565b6001600160a01b03811661181f5760405163066f53b160e01b815260040160405180910390fd5b600080546001600160a01b0319166001600160a01b0392909216919091179055565b60006106a68261232d565b8060000361186d5760405163200b3d2560e01b815260040160405180910390fd5b600655565b60006001600160a01b03831661189b57604051630560d24960e11b815260040160405180910390fd5b816000036118bc5760405163783bc40960e01b815260040160405180910390fd5b6000546001600160a01b03166118e55760405163066f53b160e01b815260040160405180910390fd5b60008054906101000a90046001600160a01b03166001600160a01b031663313ce5676040518163ffffffff1660e01b8152600401602060405180830381865afa158015611936573d6000803e3d6000fd5b505050506040513d601f19601f8201168201806040525081019061195a9190612681565b61196590600261269e565b61197090600a6127f3565b82111561199357604051630164b7c960e61b8152600481018390526024016108d5565b61071a60078484612338565b6119a761234e565b600c805460ff60a81b191690557f5db9ee0a495bf2e6ff9c91a7834c1ba4fdd244a5e8aa4e537bd38aeae4b073aa335b6040516001600160a01b03909116815260200160405180910390a1565b60405147906000906001600160a01b0384169083908381818185875af1925050503d8060008114611a41576040519150601f19603f3d011682016040523d82523d6000602084013e611a46565b606091505b5050905080610a5157604051631bc3cdfd60e21b8152600060048201526001600160a01b0384166024820152604481018390526064016108d5565b600c80546001600160a01b0319166001600160a01b0383169081179091556040519081527f2f658b440c35314f52658ea8a740e05b284cdc84dc9ae01e891f21b8933e7cad9060200160405180910390a150565b611add612378565b600c805460ff60a81b1916600160a81b1790557f62e78cea01bee320cd4e420270b5ea74000d11b0c9f74754ebdbfc544b05a2586119d73390565b6000546001600160a01b0316611b415760405163066f53b160e01b815260040160405180910390fd5b6000546040516370a0823160e01b81523060048201526001600160a01b039091169063a9059cbb90839083906370a0823190602401602060405180830381865afa158015611b93573d6000803e3d6000fd5b505050506040513d601f19601f82011682018060405250810190611bb7919061263f565b6040516001600160e01b031960e085901b1681526001600160a01b03909216600483015260248201526044016020604051808303816000875af1158015611c02573d6000803e3d6000fd5b505050506040513d601f19601f82011682018060405250810190611c269190612624565b611c525760005460405163bbea11c960e01b81526001600160a01b0390911660048201526024016108d5565b6000805b611c606007611841565b821015611dad576000611c74600784611e42565b506040516370a0823160e01b81523060048201529091506001600160a01b038216906370a0823190602401602060405180830381865afa158015611cbc573d6000803e3d6000fd5b505050506040513d601f19601f82011682018060405250810190611ce0919061263f565b9150600082118015611d62575060405163a9059cbb60e01b81526001600160a01b0386811660048301526024820184905282169063a9059cbb906044016020604051808303816000875af1158015611d3c573d6000803e3d6000fd5b505050506040513d601f19601f82011682018060405250810190611d609190612624565b155b15611d9a57604051631bc3cdfd60e21b81526001600160a01b03808316600483015286166024820152604481018390526064016108d5565b5081611da58161289b565b925050611c56565b60405147906000906001600160a01b0387169083908381818185875af1925050503d8060008114611dfa576040519150601f19603f3d011682016040523d82523d6000602084013e611dff565b606091505b5050905080611e3a57604051631bc3cdfd60e21b8152600060048201526001600160a01b0387166024820152604481018390526064016108d5565b505050505050565b6000808080611e5186866123a3565b9097909650945050505050565b611e6c60ff821660646127e0565b60035550565b6040516370a0823160e01b81523060048201526001600160a01b0383169063a9059cbb90839083906370a0823190602401602060405180830381865afa158015611ec0573d6000803e3d6000fd5b505050506040513d601f19601f82011682018060405250810190611ee4919061263f565b6040516001600160e01b031960e085901b1681526001600160a01b03909216600483015260248201526044016020604051808303816000875af1158015611f2f573d6000803e3d6000fd5b505050506040513d601f19601f82011682018060405250810190611f539190612624565b61091d576040516370a0823160e01b8152306004820152829082906001600160a01b038316906370a0823190602401602060405180830381865afa158015611f9f573d6000803e3d6000fd5b505050506040513d601f19601f82011682018060405250810190611fc3919061263f565b604051631bc3cdfd60e21b81526001600160a01b03938416600482015292909116602483015260448201526064016108d5565b6001600160a01b03811661201d5760405163340d80df60e21b815260040160405180910390fd5b600280546001600160a01b0319166001600160a01b0392909216919091179055565b600061071a83836123ce565b600081815260028301602052604081205480158015612071575061206f848461203f565b155b1561071a5760405163015ab34360e11b8152600481018490526024016108d5565b6002546000906001600160a01b03166120be5760405163340d80df60e21b815260040160405180910390fd5b6002546040805163313ce56760e01b815290516000926001600160a01b03169163313ce5679160048083019260209291908290030181865afa158015612108573d6000803e3d6000fd5b505050506040513d601f19601f8201168201806040525081019061212c9190612681565b61213790600261269e565b60ff1690506000600260009054906101000a90046001600160a01b03166001600160a01b03166350d25bcd6040518163ffffffff1660e01b8152600401602060405180830381865afa158015612191573d6000803e3d6000fd5b505050506040513d601f19601f820116820180604052508101906121b5919061263f565b9050600081136121d857604051636dcc7b7360e01b815260040160405180910390fd5b6121e382600a61279b565b6003546121f086846127a7565b6121fa91906127a7565b61220491906127be565b949350505050565b6040516001600160a01b03848116602483015283811660448301526001600160e01b03198316606483015260009182918291829189169060840160408051601f198184030181529181526020820180517bffffffffffffffffffffffffffffffffffffffffffffffffffffffff1663b700961360e01b1790525161229091906128b4565b600060405180830381855afa9150503d80600081146122cb576040519150601f19603f3d011682016040523d82523d6000602084013e6122d0565b606091505b5091509150811561232257604081511061230257808060200190518101906122f891906128e3565b9094509250612322565b6020815110612322578080602001905181019061231f9190612624565b93505b505094509492505050565b60006106a6826123e6565b6000612204846001600160a01b038516846123f0565b600c54600160a81b900460ff1661075c57604051638dfc202b60e01b815260040160405180910390fd5b600c54600160a81b900460ff161561075c5760405163d93c066560e01b815260040160405180910390fd5b600080806123b1858561240d565b600081815260029690960160205260409095205494959350505050565b6000818152600183016020526040812054151561071a565b60006106a6825490565b600082815260028401602052604081208290556122048484612419565b600061071a8383612425565b600061071a838361244f565b600082600001828154811061243c5761243c612918565b9060005260206000200154905092915050565b6000818152600183016020526040812054612496575081546001818101845560008481526020808220909301849055845484825282860190935260409020919091556106a6565b5060006106a6565b6001600160a01b03811681146106e857600080fd5b6000602082840312156124c557600080fd5b813561071a8161249e565b600080600080608085870312156124e657600080fd5b84356124f18161249e565b935060208501356125018161249e565b92506040850135915060608501356125188161249e565b939692955090935050565b60006020828403121561253557600080fd5b5035919050565b6000806040838503121561254f57600080fd5b823561255a8161249e565b946020939093013593505050565b60ff811681146106e857600080fd5b60006020828403121561258957600080fd5b813561071a81612568565b600080604083850312156125a757600080fd5b82356125b28161249e565b915060208301356125c28161249e565b809150509250929050565b6000806000606084860312156125e257600080fd5b83356125ed8161249e565b92506020840135915060408401356126048161249e565b809150509250925092565b8051801515811461261f57600080fd5b919050565b60006020828403121561263657600080fd5b61071a8261260f565b60006020828403121561265157600080fd5b5051919050565b634e487b7160e01b600052601160045260246000fd5b818103818111156106a6576106a6612658565b60006020828403121561269357600080fd5b815161071a81612568565b60ff81811683821601908111156106a6576106a6612658565b600181815b808511156126f25781600019048211156126d8576126d8612658565b808516156126e557918102915b93841c93908002906126bc565b509250929050565b600082612709575060016106a6565b81612716575060006106a6565b816001811461272c576002811461273657612752565b60019150506106a6565b60ff84111561274757612747612658565b50506001821b6106a6565b5060208310610133831016604e8410600b8410161715612775575081810a6106a6565b61277f83836126b7565b806000190482111561279357612793612658565b029392505050565b600061071a83836126fa565b80820281158282048414176106a6576106a6612658565b6000826127db57634e487b7160e01b600052601260045260246000fd5b500490565b808201808211156106a6576106a6612658565b600061071a60ff8416836126fa565b6000808585111561281257600080fd5b8386111561281f57600080fd5b5050820193919092039150565b6001600160e01b031981358181169160048510156128545780818660040360031b1b83161692505b505092915050565b6001600160a01b038416815260406020820152816040820152818360608301376000818301606090810191909152601f909201601f1916010192915050565b6000600182016128ad576128ad612658565b5060010190565b6000825160005b818110156128d557602081860181015185830152016128bb565b506000920191825250919050565b600080604083850312156128f657600080fd5b6128ff8361260f565b9150602083015163ffffffff811681146125c257600080fd5b634e487b7160e01b600052603260045260246000fdfea164736f6c6343000814000a","opcodes":"PUSH1 0x80 PUSH1 0x40 MSTORE PUSH1 0x40 MLOAD PUSH3 0x2AF8 CODESIZE SUB DUP1 PUSH3 0x2AF8 DUP4 CODECOPY DUP2 ADD PUSH1 0x40 DUP2 SWAP1 MSTORE PUSH3 0x26 SWAP2 PUSH3 0x127 JUMP JUMPDEST DUP1 DUP6 DUP6 DUP6 DUP6 DUP2 PUSH1 0x0 SUB PUSH3 0x4D JUMPI PUSH1 0x40 MLOAD PUSH4 0x200B3D25 PUSH1 0xE0 SHL DUP2 MSTORE PUSH1 0x4 ADD PUSH1 0x40 MLOAD DUP1 SWAP2 SUB SWAP1 REVERT JUMPDEST PUSH3 0x5A DUP2 PUSH1 0x64 PUSH3 0x185 JUMP JUMPDEST PUSH1 0x3 SSTORE POP PUSH1 0x0 DUP1 SLOAD PUSH1 0x1 PUSH1 0x1 PUSH1 0xA0 SHL SUB SWAP5 DUP6 AND PUSH1 0x1 PUSH1 0x1 PUSH1 0xA0 SHL SUB NOT SWAP2 DUP3 AND OR SWAP1 SWAP2 SSTORE PUSH1 0x2 DUP1 SLOAD SWAP4 SWAP1 SWAP5 AND SWAP3 AND SWAP2 SWAP1 SWAP2 OR SWAP1 SWAP2 SSTORE PUSH1 0x6 SSTORE PUSH3 0x9C DUP2 PUSH3 0xB6 JUMP JUMPDEST POP POP PUSH1 0xC DUP1 SLOAD PUSH1 0xFF PUSH1 0xA8 SHL NOT AND SWAP1 SSTORE POP PUSH3 0x1AD SWAP3 POP POP POP JUMP JUMPDEST PUSH1 0xC DUP1 SLOAD PUSH1 0x1 PUSH1 0x1 PUSH1 0xA0 SHL SUB NOT AND PUSH1 0x1 PUSH1 0x1 PUSH1 0xA0 SHL SUB DUP4 AND SWAP1 DUP2 OR SWAP1 SWAP2 SSTORE PUSH1 0x40 MLOAD SWAP1 DUP2 MSTORE PUSH32 0x2F658B440C35314F52658EA8A740E05B284CDC84DC9AE01E891F21B8933E7CAD SWAP1 PUSH1 0x20 ADD PUSH1 0x40 MLOAD DUP1 SWAP2 SUB SWAP1 LOG1 POP JUMP JUMPDEST DUP1 MLOAD PUSH1 0x1 PUSH1 0x1 PUSH1 0xA0 SHL SUB DUP2 AND DUP2 EQ PUSH3 0x122 JUMPI PUSH1 0x0 DUP1 REVERT JUMPDEST SWAP2 SWAP1 POP JUMP JUMPDEST PUSH1 0x0 DUP1 PUSH1 0x0 DUP1 PUSH1 0x0 PUSH1 0xA0 DUP7 DUP9 SUB SLT ISZERO PUSH3 0x140 JUMPI PUSH1 0x0 DUP1 REVERT JUMPDEST PUSH3 0x14B DUP7 PUSH3 0x10A JUMP JUMPDEST SWAP5 POP PUSH3 0x15B PUSH1 0x20 DUP8 ADD PUSH3 0x10A JUMP JUMPDEST SWAP4 POP PUSH1 0x40 DUP7 ADD MLOAD SWAP3 POP PUSH1 0x60 DUP7 ADD MLOAD SWAP2 POP PUSH3 0x179 PUSH1 0x80 DUP8 ADD PUSH3 0x10A JUMP JUMPDEST SWAP1 POP SWAP3 SWAP6 POP SWAP3 SWAP6 SWAP1 SWAP4 POP JUMP JUMPDEST DUP1 DUP3 ADD DUP1 DUP3 GT ISZERO PUSH3 0x1A7 JUMPI PUSH4 0x4E487B71 PUSH1 0xE0 SHL PUSH1 0x0 MSTORE PUSH1 0x11 PUSH1 0x4 MSTORE PUSH1 0x24 PUSH1 0x0 REVERT JUMPDEST SWAP3 SWAP2 POP POP JUMP JUMPDEST PUSH2 0x293B DUP1 PUSH3 0x1BD PUSH1 0x0 CODECOPY PUSH1 0x0 RETURN INVALID PUSH1 0x80 PUSH1 0x40 MSTORE PUSH1 0x4 CALLDATASIZE LT PUSH2 0x219 JUMPI PUSH1 0x0 CALLDATALOAD PUSH1 0xE0 SHR DUP1 PUSH4 0x7622B858 GT PUSH2 0x11D JUMPI DUP1 PUSH4 0xDB61C76E GT PUSH2 0xB0 JUMPI DUP1 PUSH4 0xE6ED4746 GT PUSH2 0x7F JUMPI DUP1 PUSH4 0xF940E385 GT PUSH2 0x64 JUMPI DUP1 PUSH4 0xF940E385 EQ PUSH2 0x5FD JUMPI DUP1 PUSH4 0xFC0C546A EQ PUSH2 0x61D JUMPI DUP1 PUSH4 0xFCFE30F5 EQ PUSH2 0x63B JUMPI PUSH1 0x0 DUP1 REVERT JUMPDEST DUP1 PUSH4 0xE6ED4746 EQ PUSH2 0x5CA JUMPI DUP1 PUSH4 0xF340FA01 EQ PUSH2 0x5EA JUMPI PUSH1 0x0 DUP1 REVERT JUMPDEST DUP1 PUSH4 0xDB61C76E EQ PUSH2 0x536 JUMPI DUP1 PUSH4 0xDF50AF88 EQ PUSH2 0x556 JUMPI DUP1 PUSH4 0xE0781B7A EQ PUSH2 0x56B JUMPI DUP1 PUSH4 0xE0886F90 EQ PUSH2 0x58B JUMPI PUSH1 0x0 DUP1 REVERT JUMPDEST DUP1 PUSH4 0x8FB36037 GT PUSH2 0xEC JUMPI DUP1 PUSH4 0x8FB36037 EQ PUSH2 0x4C2 JUMPI DUP1 PUSH4 0xAFE14C19 EQ PUSH2 0x4F0 JUMPI DUP1 PUSH4 0xBF7E214F EQ PUSH2 0x510 JUMPI DUP1 PUSH4 0xD0E30DB0 EQ PUSH2 0x52E JUMPI PUSH1 0x0 DUP1 REVERT JUMPDEST DUP1 PUSH4 0x7622B858 EQ PUSH2 0x463 JUMPI DUP1 PUSH4 0x79856671 EQ PUSH2 0x478 JUMPI DUP1 PUSH4 0x7A9E5E4B EQ PUSH2 0x48D JUMPI DUP1 PUSH4 0x8456CB59 EQ PUSH2 0x4AD JUMPI PUSH1 0x0 DUP1 REVERT JUMPDEST DUP1 PUSH4 0x2F720A15 GT PUSH2 0x1B0 JUMPI DUP1 PUSH4 0x5C975ABB GT PUSH2 0x17F JUMPI DUP1 PUSH4 0x6F6FF3BC GT PUSH2 0x164 JUMPI DUP1 PUSH4 0x6F6FF3BC EQ PUSH2 0x3FC JUMPI DUP1 PUSH4 0x70A08231 EQ PUSH2 0x41C JUMPI DUP1 PUSH4 0x75B4D78C EQ PUSH2 0x43C JUMPI PUSH1 0x0 DUP1 REVERT JUMPDEST DUP1 PUSH4 0x5C975ABB EQ PUSH2 0x3BD JUMPI DUP1 PUSH4 0x6E445857 EQ PUSH2 0x3DC JUMPI PUSH1 0x0 DUP1 REVERT JUMPDEST DUP1 PUSH4 0x2F720A15 EQ PUSH2 0x34A JUMPI DUP1 PUSH4 0x3F4BA83A EQ PUSH2 0x36A JUMPI DUP1 PUSH4 0x44C63EEC EQ PUSH2 0x37F JUMPI DUP1 PUSH4 0x51CFF8D9 EQ PUSH2 0x39D JUMPI PUSH1 0x0 DUP1 REVERT JUMPDEST DUP1 PUSH4 0x1F7B6D32 GT PUSH2 0x1EC JUMPI DUP1 PUSH4 0x1F7B6D32 EQ PUSH2 0x2D5 JUMPI DUP1 PUSH4 0x286BCC80 EQ PUSH2 0x2EA JUMPI DUP1 PUSH4 0x29550F97 EQ PUSH2 0x30A JUMPI DUP1 PUSH4 0x2BDB7097 EQ PUSH2 0x32A JUMPI PUSH1 0x0 DUP1 REVERT JUMPDEST DUP1 PUSH4 0xBA9D8CA EQ PUSH2 0x21E JUMPI DUP1 PUSH4 0x10C729E8 EQ PUSH2 0x251 JUMPI DUP1 PUSH4 0x144FA6D7 EQ PUSH2 0x281 JUMPI DUP1 PUSH4 0x1CD7F8F8 EQ PUSH2 0x2A3 JUMPI JUMPDEST PUSH1 0x0 DUP1 REVERT JUMPDEST CALLVALUE DUP1 ISZERO PUSH2 0x22A JUMPI PUSH1 0x0 DUP1 REVERT JUMPDEST POP PUSH2 0x23E PUSH2 0x239 CALLDATASIZE PUSH1 0x4 PUSH2 0x24B3 JUMP JUMPDEST PUSH2 0x65B JUMP JUMPDEST PUSH1 0x40 MLOAD SWAP1 DUP2 MSTORE PUSH1 0x20 ADD JUMPDEST PUSH1 0x40 MLOAD DUP1 SWAP2 SUB SWAP1 RETURN JUMPDEST CALLVALUE DUP1 ISZERO PUSH2 0x25D JUMPI PUSH1 0x0 DUP1 REVERT JUMPDEST POP PUSH2 0x271 PUSH2 0x26C CALLDATASIZE PUSH1 0x4 PUSH2 0x24D0 JUMP JUMPDEST PUSH2 0x6AC JUMP JUMPDEST PUSH1 0x40 MLOAD SWAP1 ISZERO ISZERO DUP2 MSTORE PUSH1 0x20 ADD PUSH2 0x248 JUMP JUMPDEST CALLVALUE DUP1 ISZERO PUSH2 0x28D JUMPI PUSH1 0x0 DUP1 REVERT JUMPDEST POP PUSH2 0x2A1 PUSH2 0x29C CALLDATASIZE PUSH1 0x4 PUSH2 0x24B3 JUMP JUMPDEST PUSH2 0x6D2 JUMP JUMPDEST STOP JUMPDEST CALLVALUE DUP1 ISZERO PUSH2 0x2AF JUMPI PUSH1 0x0 DUP1 REVERT JUMPDEST POP PUSH1 0x2 SLOAD PUSH1 0x1 PUSH1 0x1 PUSH1 0xA0 SHL SUB AND JUMPDEST PUSH1 0x40 MLOAD PUSH1 0x1 PUSH1 0x1 PUSH1 0xA0 SHL SUB SWAP1 SWAP2 AND DUP2 MSTORE PUSH1 0x20 ADD PUSH2 0x248 JUMP JUMPDEST CALLVALUE DUP1 ISZERO PUSH2 0x2E1 JUMPI PUSH1 0x0 DUP1 REVERT JUMPDEST POP PUSH2 0x23E PUSH2 0x6EB JUMP JUMPDEST CALLVALUE DUP1 ISZERO PUSH2 0x2F6 JUMPI PUSH1 0x0 DUP1 REVERT JUMPDEST POP PUSH2 0x2A1 PUSH2 0x305 CALLDATASIZE PUSH1 0x4 PUSH2 0x2523 JUMP JUMPDEST PUSH2 0x6FC JUMP JUMPDEST CALLVALUE DUP1 ISZERO PUSH2 0x316 JUMPI PUSH1 0x0 DUP1 REVERT JUMPDEST POP PUSH2 0x23E PUSH2 0x325 CALLDATASIZE PUSH1 0x4 PUSH2 0x253C JUMP JUMPDEST PUSH2 0x70E JUMP JUMPDEST CALLVALUE DUP1 ISZERO PUSH2 0x336 JUMPI PUSH1 0x0 DUP1 REVERT JUMPDEST POP PUSH2 0x271 PUSH2 0x345 CALLDATASIZE PUSH1 0x4 PUSH2 0x253C JUMP JUMPDEST PUSH2 0x721 JUMP JUMPDEST CALLVALUE DUP1 ISZERO PUSH2 0x356 JUMPI PUSH1 0x0 DUP1 REVERT JUMPDEST POP PUSH2 0x2A1 PUSH2 0x365 CALLDATASIZE PUSH1 0x4 PUSH2 0x2577 JUMP JUMPDEST PUSH2 0x736 JUMP JUMPDEST CALLVALUE DUP1 ISZERO PUSH2 0x376 JUMPI PUSH1 0x0 DUP1 REVERT JUMPDEST POP PUSH2 0x2A1 PUSH2 0x74B JUMP JUMPDEST CALLVALUE DUP1 ISZERO PUSH2 0x38B JUMPI PUSH1 0x0 DUP1 REVERT JUMPDEST POP PUSH1 0x1 SLOAD PUSH1 0x1 PUSH1 0x1 PUSH1 0xA0 SHL SUB AND PUSH2 0x2BD JUMP JUMPDEST CALLVALUE DUP1 ISZERO PUSH2 0x3A9 JUMPI PUSH1 0x0 DUP1 REVERT JUMPDEST POP PUSH2 0x2A1 PUSH2 0x3B8 CALLDATASIZE PUSH1 0x4 PUSH2 0x24B3 JUMP JUMPDEST PUSH2 0x75E JUMP JUMPDEST CALLVALUE DUP1 ISZERO PUSH2 0x3C9 JUMPI PUSH1 0x0 DUP1 REVERT JUMPDEST POP PUSH1 0xC SLOAD PUSH1 0x1 PUSH1 0xA8 SHL SWAP1 DIV PUSH1 0xFF AND PUSH2 0x271 JUMP JUMPDEST CALLVALUE DUP1 ISZERO PUSH2 0x3E8 JUMPI PUSH1 0x0 DUP1 REVERT JUMPDEST POP PUSH2 0x2A1 PUSH2 0x3F7 CALLDATASIZE PUSH1 0x4 PUSH2 0x2577 JUMP JUMPDEST PUSH2 0x776 JUMP JUMPDEST CALLVALUE DUP1 ISZERO PUSH2 0x408 JUMPI PUSH1 0x0 DUP1 REVERT JUMPDEST POP PUSH2 0x2A1 PUSH2 0x417 CALLDATASIZE PUSH1 0x4 PUSH2 0x24B3 JUMP JUMPDEST PUSH2 0x78B JUMP JUMPDEST CALLVALUE DUP1 ISZERO PUSH2 0x428 JUMPI PUSH1 0x0 DUP1 REVERT JUMPDEST POP PUSH2 0x23E PUSH2 0x437 CALLDATASIZE PUSH1 0x4 PUSH2 0x24B3 JUMP JUMPDEST PUSH2 0x7B2 JUMP JUMPDEST CALLVALUE DUP1 ISZERO PUSH2 0x448 JUMPI PUSH1 0x0 DUP1 REVERT JUMPDEST POP PUSH2 0x451 PUSH2 0x891 JUMP JUMPDEST PUSH1 0x40 MLOAD PUSH1 0xFF SWAP1 SWAP2 AND DUP2 MSTORE PUSH1 0x20 ADD PUSH2 0x248 JUMP JUMPDEST CALLVALUE DUP1 ISZERO PUSH2 0x46F JUMPI PUSH1 0x0 DUP1 REVERT JUMPDEST POP PUSH1 0x5 SLOAD PUSH2 0x451 JUMP JUMPDEST CALLVALUE DUP1 ISZERO PUSH2 0x484 JUMPI PUSH1 0x0 DUP1 REVERT JUMPDEST POP PUSH1 0x6 SLOAD PUSH2 0x23E JUMP JUMPDEST CALLVALUE DUP1 ISZERO PUSH2 0x499 JUMPI PUSH1 0x0 DUP1 REVERT JUMPDEST POP PUSH2 0x2A1 PUSH2 0x4A8 CALLDATASIZE PUSH1 0x4 PUSH2 0x24B3 JUMP JUMPDEST PUSH2 0x8A2 JUMP JUMPDEST CALLVALUE DUP1 ISZERO PUSH2 0x4B9 JUMPI PUSH1 0x0 DUP1 REVERT JUMPDEST POP PUSH2 0x2A1 PUSH2 0x921 JUMP JUMPDEST CALLVALUE DUP1 ISZERO PUSH2 0x4CE JUMPI PUSH1 0x0 DUP1 REVERT JUMPDEST POP PUSH2 0x4D7 PUSH2 0x932 JUMP JUMPDEST PUSH1 0x40 MLOAD PUSH1 0x1 PUSH1 0x1 PUSH1 0xE0 SHL SUB NOT SWAP1 SWAP2 AND DUP2 MSTORE PUSH1 0x20 ADD PUSH2 0x248 JUMP JUMPDEST CALLVALUE DUP1 ISZERO PUSH2 0x4FC JUMPI PUSH1 0x0 DUP1 REVERT JUMPDEST POP PUSH2 0x2A1 PUSH2 0x50B CALLDATASIZE PUSH1 0x4 PUSH2 0x2594 JUMP JUMPDEST PUSH2 0x958 JUMP JUMPDEST CALLVALUE DUP1 ISZERO PUSH2 0x51C JUMPI PUSH1 0x0 DUP1 REVERT JUMPDEST POP PUSH1 0xC SLOAD PUSH1 0x1 PUSH1 0x1 PUSH1 0xA0 SHL SUB AND PUSH2 0x2BD JUMP JUMPDEST PUSH2 0x2A1 PUSH2 0x96B JUMP JUMPDEST CALLVALUE DUP1 ISZERO PUSH2 0x542 JUMPI PUSH1 0x0 DUP1 REVERT JUMPDEST POP PUSH2 0x271 PUSH2 0x551 CALLDATASIZE PUSH1 0x4 PUSH2 0x25CD JUMP JUMPDEST PUSH2 0x989 JUMP JUMPDEST CALLVALUE DUP1 ISZERO PUSH2 0x562 JUMPI PUSH1 0x0 DUP1 REVERT JUMPDEST POP PUSH1 0x4 SLOAD PUSH2 0x451 JUMP JUMPDEST CALLVALUE DUP1 ISZERO PUSH2 0x577 JUMPI PUSH1 0x0 DUP1 REVERT JUMPDEST POP PUSH2 0x271 PUSH2 0x586 CALLDATASIZE PUSH1 0x4 PUSH2 0x24B3 JUMP JUMPDEST PUSH2 0x9AE JUMP JUMPDEST CALLVALUE DUP1 ISZERO PUSH2 0x597 JUMPI PUSH1 0x0 DUP1 REVERT JUMPDEST POP PUSH2 0x5AB PUSH2 0x5A6 CALLDATASIZE PUSH1 0x4 PUSH2 0x2523 JUMP JUMPDEST PUSH2 0x9E2 JUMP JUMPDEST PUSH1 0x40 DUP1 MLOAD PUSH1 0x1 PUSH1 0x1 PUSH1 0xA0 SHL SUB SWAP1 SWAP4 AND DUP4 MSTORE PUSH1 0x20 DUP4 ADD SWAP2 SWAP1 SWAP2 MSTORE ADD PUSH2 0x248 JUMP JUMPDEST CALLVALUE DUP1 ISZERO PUSH2 0x5D6 JUMPI PUSH1 0x0 DUP1 REVERT JUMPDEST POP PUSH2 0x2A1 PUSH2 0x5E5 CALLDATASIZE PUSH1 0x4 PUSH2 0x2577 JUMP JUMPDEST PUSH2 0xA22 JUMP JUMPDEST PUSH2 0x2A1 PUSH2 0x5F8 CALLDATASIZE PUSH1 0x4 PUSH2 0x24B3 JUMP JUMPDEST PUSH2 0xA34 JUMP JUMPDEST CALLVALUE DUP1 ISZERO PUSH2 0x609 JUMPI PUSH1 0x0 DUP1 REVERT JUMPDEST POP PUSH2 0x2A1 PUSH2 0x618 CALLDATASIZE PUSH1 0x4 PUSH2 0x2594 JUMP JUMPDEST PUSH2 0xA56 JUMP JUMPDEST CALLVALUE DUP1 ISZERO PUSH2 0x629 JUMPI PUSH1 0x0 DUP1 REVERT JUMPDEST POP PUSH1 0x0 SLOAD PUSH1 0x1 PUSH1 0x1 PUSH1 0xA0 SHL SUB AND PUSH2 0x2BD JUMP JUMPDEST CALLVALUE DUP1 ISZERO PUSH2 0x647 JUMPI PUSH1 0x0 DUP1 REVERT JUMPDEST POP PUSH2 0x2A1 PUSH2 0x656 CALLDATASIZE PUSH1 0x4 PUSH2 0x24B3 JUMP JUMPDEST PUSH2 0xA69 JUMP JUMPDEST PUSH1 0x0 PUSH1 0x1 PUSH1 0x1 PUSH1 0xA0 SHL SUB DUP3 AND PUSH2 0x684 JUMPI PUSH1 0x40 MLOAD PUSH4 0x560D249 PUSH1 0xE1 SHL DUP2 MSTORE PUSH1 0x4 ADD PUSH1 0x40 MLOAD DUP1 SWAP2 SUB SWAP1 REVERT JUMPDEST PUSH2 0x68F PUSH1 0x7 DUP4 PUSH2 0xA7B JUMP JUMPDEST PUSH2 0x69B JUMPI POP PUSH1 0x0 SWAP2 SWAP1 POP JUMP JUMPDEST PUSH2 0x6A6 PUSH1 0x7 DUP4 PUSH2 0xA90 JUMP JUMPDEST SWAP3 SWAP2 POP POP JUMP JUMPDEST PUSH1 0x0 DUP1 PUSH2 0x6B9 DUP6 DUP6 PUSH2 0xAA5 JUMP JUMPDEST SWAP1 POP PUSH2 0x6C8 DUP7 DUP7 DUP7 DUP5 DUP8 PUSH2 0xC1F JUMP JUMPDEST SWAP7 SWAP6 POP POP POP POP POP POP JUMP JUMPDEST PUSH2 0x6DF CALLER JUMPDEST PUSH1 0x0 CALLDATASIZE PUSH2 0x16F8 JUMP JUMPDEST PUSH2 0x6E8 DUP2 PUSH2 0x17F8 JUMP JUMPDEST POP JUMP JUMPDEST PUSH1 0x0 PUSH2 0x6F7 PUSH1 0x7 PUSH2 0x1841 JUMP JUMPDEST SWAP1 POP SWAP1 JUMP JUMPDEST PUSH2 0x705 CALLER PUSH2 0x6D7 JUMP JUMPDEST PUSH2 0x6E8 DUP2 PUSH2 0x184C JUMP JUMPDEST PUSH1 0x0 PUSH2 0x71A DUP4 DUP4 PUSH2 0xAA5 JUMP JUMPDEST SWAP4 SWAP3 POP POP POP JUMP JUMPDEST PUSH1 0x0 PUSH2 0x72C CALLER PUSH2 0x6D7 JUMP JUMPDEST PUSH2 0x71A DUP4 DUP4 PUSH2 0x1872 JUMP JUMPDEST PUSH2 0x73F CALLER PUSH2 0x6D7 JUMP JUMPDEST PUSH2 0x6E8 DUP2 PUSH1 0xFF AND PUSH1 0x4 SSTORE JUMP JUMPDEST PUSH2 0x754 CALLER PUSH2 0x6D7 JUMP JUMPDEST PUSH2 0x75C PUSH2 0x199F JUMP JUMPDEST JUMP JUMPDEST PUSH2 0x767 CALLER PUSH2 0x6D7 JUMP JUMPDEST SELFBALANCE ISZERO PUSH2 0x6E8 JUMPI PUSH2 0x6E8 DUP2 PUSH2 0x19F4 JUMP JUMPDEST PUSH2 0x77F CALLER PUSH2 0x6D7 JUMP JUMPDEST PUSH2 0x6E8 DUP2 PUSH1 0xFF AND PUSH1 0x5 SSTORE JUMP JUMPDEST PUSH2 0x794 CALLER PUSH2 0x6D7 JUMP JUMPDEST PUSH1 0x1 DUP1 SLOAD PUSH1 0x1 PUSH1 0x1 PUSH1 0xA0 SHL SUB NOT AND PUSH1 0x1 PUSH1 0x1 PUSH1 0xA0 SHL SUB DUP4 AND OR SWAP1 SSTORE POP JUMP JUMPDEST PUSH1 0x40 MLOAD PUSH4 0x703C0DBD PUSH1 0xE1 SHL DUP2 MSTORE PUSH1 0x1 PUSH1 0x1 PUSH1 0xA0 SHL SUB DUP3 AND PUSH1 0x4 DUP3 ADD MSTORE PUSH1 0x0 SWAP1 ADDRESS SWAP1 PUSH4 0xE0781B7A SWAP1 PUSH1 0x24 ADD PUSH1 0x20 PUSH1 0x40 MLOAD DUP1 DUP4 SUB DUP2 DUP7 GAS STATICCALL ISZERO DUP1 ISZERO PUSH2 0x7F9 JUMPI RETURNDATASIZE PUSH1 0x0 DUP1 RETURNDATACOPY RETURNDATASIZE PUSH1 0x0 REVERT JUMPDEST POP POP POP POP PUSH1 0x40 MLOAD RETURNDATASIZE PUSH1 0x1F NOT PUSH1 0x1F DUP3 ADD AND DUP3 ADD DUP1 PUSH1 0x40 MSTORE POP DUP2 ADD SWAP1 PUSH2 0x81D SWAP2 SWAP1 PUSH2 0x2624 JUMP JUMPDEST PUSH2 0x829 JUMPI POP PUSH1 0x0 SWAP2 SWAP1 POP JUMP JUMPDEST PUSH1 0x40 MLOAD PUSH4 0x70A08231 PUSH1 0xE0 SHL DUP2 MSTORE ADDRESS PUSH1 0x4 DUP3 ADD MSTORE PUSH1 0x1 PUSH1 0x1 PUSH1 0xA0 SHL SUB DUP4 AND SWAP1 PUSH4 0x70A08231 SWAP1 PUSH1 0x24 ADD PUSH1 0x20 PUSH1 0x40 MLOAD DUP1 DUP4 SUB DUP2 DUP7 GAS STATICCALL ISZERO DUP1 ISZERO PUSH2 0x86D JUMPI RETURNDATASIZE PUSH1 0x0 DUP1 RETURNDATACOPY RETURNDATASIZE PUSH1 0x0 REVERT JUMPDEST POP POP POP POP PUSH1 0x40 MLOAD RETURNDATASIZE PUSH1 0x1F NOT PUSH1 0x1F DUP3 ADD AND DUP3 ADD DUP1 PUSH1 0x40 MSTORE POP DUP2 ADD SWAP1 PUSH2 0x6A6 SWAP2 SWAP1 PUSH2 0x263F JUMP JUMPDEST PUSH1 0x0 PUSH1 0x64 PUSH1 0x3 SLOAD PUSH2 0x6F7 SWAP2 SWAP1 PUSH2 0x266E JUMP JUMPDEST PUSH1 0xC SLOAD CALLER SWAP1 PUSH1 0x1 PUSH1 0x1 PUSH1 0xA0 SHL SUB AND DUP2 EQ PUSH2 0x8DE JUMPI PUSH1 0x40 MLOAD PUSH3 0xD1953B PUSH1 0xE3 SHL DUP2 MSTORE PUSH1 0x1 PUSH1 0x1 PUSH1 0xA0 SHL SUB DUP3 AND PUSH1 0x4 DUP3 ADD MSTORE PUSH1 0x24 ADD JUMPDEST PUSH1 0x40 MLOAD DUP1 SWAP2 SUB SWAP1 REVERT JUMPDEST DUP2 PUSH1 0x1 PUSH1 0x1 PUSH1 0xA0 SHL SUB AND EXTCODESIZE PUSH1 0x0 SUB PUSH2 0x914 JUMPI PUSH1 0x40 MLOAD PUSH4 0x61798F2F PUSH1 0xE1 SHL DUP2 MSTORE PUSH1 0x1 PUSH1 0x1 PUSH1 0xA0 SHL SUB DUP4 AND PUSH1 0x4 DUP3 ADD MSTORE PUSH1 0x24 ADD PUSH2 0x8D5 JUMP JUMPDEST PUSH2 0x91D DUP3 PUSH2 0x1A81 JUMP JUMPDEST POP POP JUMP JUMPDEST PUSH2 0x92A CALLER PUSH2 0x6D7 JUMP JUMPDEST PUSH2 0x75C PUSH2 0x1AD5 JUMP JUMPDEST PUSH1 0xC SLOAD PUSH1 0x0 SWAP1 PUSH1 0x1 PUSH1 0xA0 SHL SWAP1 DIV PUSH1 0xFF AND PUSH2 0x94C JUMPI POP PUSH1 0x0 SWAP1 JUMP JUMPDEST POP PUSH4 0x8FB36037 PUSH1 0xE0 SHL SWAP1 JUMP JUMPDEST PUSH2 0x961 CALLER PUSH2 0x6D7 JUMP JUMPDEST PUSH2 0x91D DUP3 DUP3 PUSH2 0x1B18 JUMP JUMPDEST PUSH1 0x0 PUSH2 0x978 PUSH1 0x0 CALLVALUE PUSH2 0xAA5 JUMP JUMPDEST SWAP1 POP PUSH2 0x91D CALLER PUSH1 0x0 CALLVALUE DUP5 PUSH1 0x0 PUSH2 0xC1F JUMP JUMPDEST PUSH1 0x0 DUP1 PUSH2 0x996 DUP6 DUP6 PUSH2 0xAA5 JUMP JUMPDEST SWAP1 POP PUSH2 0x9A5 CALLER DUP7 DUP7 DUP5 DUP8 PUSH2 0xC1F JUMP JUMPDEST SWAP6 SWAP5 POP POP POP POP POP JUMP JUMPDEST PUSH1 0x0 PUSH1 0x1 PUSH1 0x1 PUSH1 0xA0 SHL SUB DUP3 AND PUSH2 0x9D7 JUMPI PUSH1 0x40 MLOAD PUSH4 0x560D249 PUSH1 0xE1 SHL DUP2 MSTORE PUSH1 0x4 ADD PUSH1 0x40 MLOAD DUP1 SWAP2 SUB SWAP1 REVERT JUMPDEST PUSH2 0x6A6 PUSH1 0x7 DUP4 PUSH2 0xA7B JUMP JUMPDEST PUSH1 0x0 DUP1 PUSH2 0x9EF PUSH1 0x7 PUSH2 0x1841 JUMP JUMPDEST DUP4 LT PUSH2 0xA0E JUMPI PUSH1 0x40 MLOAD PUSH4 0x188DA0B3 PUSH1 0xE2 SHL DUP2 MSTORE PUSH1 0x4 ADD PUSH1 0x40 MLOAD DUP1 SWAP2 SUB SWAP1 REVERT JUMPDEST PUSH2 0xA19 PUSH1 0x7 DUP5 PUSH2 0x1E42 JUMP JUMPDEST SWAP2 POP SWAP2 POP SWAP2 POP SWAP2 JUMP JUMPDEST PUSH2 0xA2B CALLER PUSH2 0x6D7 JUMP JUMPDEST PUSH2 0x6E8 DUP2 PUSH2 0x1E5E JUMP JUMPDEST PUSH1 0x0 PUSH2 0xA41 PUSH1 0x0 CALLVALUE PUSH2 0xAA5 JUMP JUMPDEST SWAP1 POP PUSH2 0xA51 CALLER PUSH1 0x0 CALLVALUE DUP5 DUP7 PUSH2 0xC1F JUMP JUMPDEST POP POP POP JUMP JUMPDEST PUSH2 0xA5F CALLER PUSH2 0x6D7 JUMP JUMPDEST PUSH2 0x91D DUP3 DUP3 PUSH2 0x1E72 JUMP JUMPDEST PUSH2 0xA72 CALLER PUSH2 0x6D7 JUMP JUMPDEST PUSH2 0x6E8 DUP2 PUSH2 0x1FF6 JUMP JUMPDEST PUSH1 0x0 PUSH2 0x71A DUP4 PUSH1 0x1 PUSH1 0x1 PUSH1 0xA0 SHL SUB DUP5 AND PUSH2 0x203F JUMP JUMPDEST PUSH1 0x0 PUSH2 0x71A DUP4 PUSH1 0x1 PUSH1 0x1 PUSH1 0xA0 SHL SUB DUP5 AND PUSH2 0x204B JUMP JUMPDEST PUSH1 0x0 PUSH1 0x1 PUSH1 0x1 PUSH1 0xA0 SHL SUB DUP4 AND PUSH2 0xAC5 JUMPI PUSH2 0xABE DUP3 PUSH2 0x2092 JUMP JUMPDEST SWAP1 POP PUSH2 0x6A6 JUMP JUMPDEST DUP2 PUSH1 0x0 SUB PUSH2 0xAE6 JUMPI PUSH1 0x40 MLOAD PUSH4 0x1208B21B PUSH1 0xE0 SHL DUP2 MSTORE PUSH1 0x4 ADD PUSH1 0x40 MLOAD DUP1 SWAP2 SUB SWAP1 REVERT JUMPDEST PUSH1 0x0 SLOAD PUSH1 0x1 PUSH1 0x1 PUSH1 0xA0 SHL SUB AND PUSH2 0xB0F JUMPI PUSH1 0x40 MLOAD PUSH4 0x66F53B1 PUSH1 0xE0 SHL DUP2 MSTORE PUSH1 0x4 ADD PUSH1 0x40 MLOAD DUP1 SWAP2 SUB SWAP1 REVERT JUMPDEST PUSH1 0x0 DUP4 PUSH1 0x1 PUSH1 0x1 PUSH1 0xA0 SHL SUB AND PUSH4 0x313CE567 PUSH1 0x40 MLOAD DUP2 PUSH4 0xFFFFFFFF AND PUSH1 0xE0 SHL DUP2 MSTORE PUSH1 0x4 ADD PUSH1 0x20 PUSH1 0x40 MLOAD DUP1 DUP4 SUB DUP2 DUP7 GAS STATICCALL ISZERO DUP1 ISZERO PUSH2 0xB4F JUMPI RETURNDATASIZE PUSH1 0x0 DUP1 RETURNDATACOPY RETURNDATASIZE PUSH1 0x0 REVERT JUMPDEST POP POP POP POP PUSH1 0x40 MLOAD RETURNDATASIZE PUSH1 0x1F NOT PUSH1 0x1F DUP3 ADD AND DUP3 ADD DUP1 PUSH1 0x40 MSTORE POP DUP2 ADD SWAP1 PUSH2 0xB73 SWAP2 SWAP1 PUSH2 0x2681 JUMP JUMPDEST PUSH2 0xB7E SWAP1 PUSH1 0x2 PUSH2 0x269E JUMP JUMPDEST PUSH1 0x40 MLOAD PUSH4 0x5D4EC65 PUSH1 0xE1 SHL DUP2 MSTORE PUSH1 0x1 PUSH1 0x1 PUSH1 0xA0 SHL SUB DUP7 AND PUSH1 0x4 DUP3 ADD MSTORE PUSH1 0xFF SWAP2 SWAP1 SWAP2 AND SWAP2 POP PUSH1 0x0 SWAP1 ADDRESS SWAP1 PUSH4 0xBA9D8CA SWAP1 PUSH1 0x24 ADD PUSH1 0x20 PUSH1 0x40 MLOAD DUP1 DUP4 SUB DUP2 DUP7 GAS STATICCALL ISZERO DUP1 ISZERO PUSH2 0xBCD JUMPI RETURNDATASIZE PUSH1 0x0 DUP1 RETURNDATACOPY RETURNDATASIZE PUSH1 0x0 REVERT JUMPDEST POP POP POP POP PUSH1 0x40 MLOAD RETURNDATASIZE PUSH1 0x1F NOT PUSH1 0x1F DUP3 ADD AND DUP3 ADD DUP1 PUSH1 0x40 MSTORE POP DUP2 ADD SWAP1 PUSH2 0xBF1 SWAP2 SWAP1 PUSH2 0x263F JUMP JUMPDEST SWAP1 POP PUSH2 0xBFE DUP3 PUSH1 0xA PUSH2 0x279B JUMP JUMPDEST PUSH1 0x3 SLOAD PUSH2 0xC0B DUP7 DUP5 PUSH2 0x27A7 JUMP JUMPDEST PUSH2 0xC15 SWAP2 SWAP1 PUSH2 0x27A7 JUMP JUMPDEST PUSH2 0x9A5 SWAP2 SWAP1 PUSH2 0x27BE JUMP JUMPDEST PUSH1 0x0 PUSH1 0x1 PUSH1 0x1 PUSH1 0xA0 SHL SUB DUP7 AND PUSH2 0xC48 JUMPI PUSH1 0x40 MLOAD PUSH4 0x5EC1F379 PUSH1 0xE0 SHL DUP2 MSTORE PUSH1 0x4 ADD PUSH1 0x40 MLOAD DUP1 SWAP2 SUB SWAP1 REVERT JUMPDEST DUP2 PUSH1 0x1 PUSH1 0x1 PUSH1 0xA0 SHL SUB AND DUP7 PUSH1 0x1 PUSH1 0x1 PUSH1 0xA0 SHL SUB AND SUB PUSH2 0xC7A JUMPI PUSH1 0x40 MLOAD PUSH4 0x24DA60A7 PUSH1 0xE2 SHL DUP2 MSTORE PUSH1 0x4 ADD PUSH1 0x40 MLOAD DUP1 SWAP2 SUB SWAP1 REVERT JUMPDEST DUP3 PUSH1 0x0 SUB PUSH2 0xCAD JUMPI PUSH1 0x40 MLOAD PUSH4 0x2A3FD1CB PUSH1 0xE0 SHL DUP2 MSTORE PUSH1 0x1 PUSH1 0x1 PUSH1 0xA0 SHL SUB DUP7 AND PUSH1 0x4 DUP3 ADD MSTORE PUSH1 0x24 DUP2 ADD DUP6 SWAP1 MSTORE PUSH1 0x44 ADD PUSH2 0x8D5 JUMP JUMPDEST PUSH1 0x1 PUSH1 0x1 PUSH1 0xA0 SHL SUB DUP6 AND ISZERO PUSH2 0xD70 JUMPI PUSH1 0x40 MLOAD PUSH4 0x70A08231 PUSH1 0xE0 SHL DUP2 MSTORE PUSH1 0x1 PUSH1 0x1 PUSH1 0xA0 SHL SUB DUP8 DUP2 AND PUSH1 0x4 DUP4 ADD MSTORE PUSH1 0x0 SWAP2 SWAP1 DUP8 AND SWAP1 PUSH4 0x70A08231 SWAP1 PUSH1 0x24 ADD PUSH1 0x20 PUSH1 0x40 MLOAD DUP1 DUP4 SUB DUP2 DUP7 GAS STATICCALL ISZERO DUP1 ISZERO PUSH2 0xD06 JUMPI RETURNDATASIZE PUSH1 0x0 DUP1 RETURNDATACOPY RETURNDATASIZE PUSH1 0x0 REVERT JUMPDEST POP POP POP POP PUSH1 0x40 MLOAD RETURNDATASIZE PUSH1 0x1F NOT PUSH1 0x1F DUP3 ADD AND DUP3 ADD DUP1 PUSH1 0x40 MSTORE POP DUP2 ADD SWAP1 PUSH2 0xD2A SWAP2 SWAP1 PUSH2 0x263F JUMP JUMPDEST SWAP1 POP DUP5 DUP2 LT ISZERO PUSH2 0xD6E JUMPI PUSH1 0x40 MLOAD PUSH4 0x21D6041B PUSH1 0xE0 SHL DUP2 MSTORE PUSH1 0x1 PUSH1 0x1 PUSH1 0xA0 SHL SUB DUP1 DUP10 AND PUSH1 0x4 DUP4 ADD MSTORE DUP8 AND PUSH1 0x24 DUP3 ADD MSTORE PUSH1 0x44 DUP2 ADD DUP3 SWAP1 MSTORE PUSH1 0x64 DUP2 ADD DUP7 SWAP1 MSTORE PUSH1 0x84 ADD PUSH2 0x8D5 JUMP JUMPDEST POP JUMPDEST PUSH1 0x0 DUP1 SLOAD PUSH1 0x40 MLOAD PUSH4 0x70A08231 PUSH1 0xE0 SHL DUP2 MSTORE ADDRESS PUSH1 0x4 DUP3 ADD MSTORE PUSH1 0x1 PUSH1 0x1 PUSH1 0xA0 SHL SUB SWAP1 SWAP2 AND SWAP1 PUSH4 0x70A08231 SWAP1 PUSH1 0x24 ADD PUSH1 0x20 PUSH1 0x40 MLOAD DUP1 DUP4 SUB DUP2 DUP7 GAS STATICCALL ISZERO DUP1 ISZERO PUSH2 0xDB9 JUMPI RETURNDATASIZE PUSH1 0x0 DUP1 RETURNDATACOPY RETURNDATASIZE PUSH1 0x0 REVERT JUMPDEST POP POP POP POP PUSH1 0x40 MLOAD RETURNDATASIZE PUSH1 0x1F NOT PUSH1 0x1F DUP3 ADD AND DUP3 ADD DUP1 PUSH1 0x40 MSTORE POP DUP2 ADD SWAP1 PUSH2 0xDDD SWAP2 SWAP1 PUSH2 0x263F JUMP JUMPDEST SWAP1 POP DUP4 DUP2 LT ISZERO PUSH2 0xE03 JUMPI PUSH1 0x40 MLOAD PUSH4 0x14AB185 PUSH1 0xE1 SHL DUP2 MSTORE PUSH1 0x4 DUP2 ADD DUP6 SWAP1 MSTORE PUSH1 0x24 ADD PUSH2 0x8D5 JUMP JUMPDEST PUSH1 0x0 PUSH1 0x1 PUSH1 0x1 PUSH1 0xA0 SHL SUB DUP5 AND ISZERO DUP1 ISZERO SWAP1 PUSH2 0xE1F JUMPI POP PUSH1 0x0 PUSH1 0x4 SLOAD GT JUMPDEST ISZERO PUSH2 0x10A3 JUMPI PUSH1 0x64 PUSH1 0x4 SLOAD DUP8 PUSH2 0xE34 SWAP2 SWAP1 PUSH2 0x27A7 JUMP JUMPDEST PUSH2 0xE3E SWAP2 SWAP1 PUSH2 0x27BE JUMP JUMPDEST SWAP1 POP PUSH1 0x1 PUSH1 0x1 PUSH1 0xA0 SHL SUB DUP8 AND PUSH2 0xEE1 JUMPI PUSH1 0x0 DUP5 PUSH1 0x1 PUSH1 0x1 PUSH1 0xA0 SHL SUB AND DUP3 PUSH1 0x40 MLOAD PUSH1 0x0 PUSH1 0x40 MLOAD DUP1 DUP4 SUB DUP2 DUP6 DUP8 GAS CALL SWAP3 POP POP POP RETURNDATASIZE DUP1 PUSH1 0x0 DUP2 EQ PUSH2 0xE9B JUMPI PUSH1 0x40 MLOAD SWAP2 POP PUSH1 0x1F NOT PUSH1 0x3F RETURNDATASIZE ADD AND DUP3 ADD PUSH1 0x40 MSTORE RETURNDATASIZE DUP3 MSTORE RETURNDATASIZE PUSH1 0x0 PUSH1 0x20 DUP5 ADD RETURNDATACOPY PUSH2 0xEA0 JUMP JUMPDEST PUSH1 0x60 SWAP2 POP JUMPDEST POP POP SWAP1 POP DUP1 PUSH2 0xEDB JUMPI PUSH1 0x40 MLOAD PUSH4 0x1BC3CDFD PUSH1 0xE2 SHL DUP2 MSTORE PUSH1 0x0 PUSH1 0x4 DUP3 ADD MSTORE PUSH1 0x1 PUSH1 0x1 PUSH1 0xA0 SHL SUB DUP7 AND PUSH1 0x24 DUP3 ADD MSTORE PUSH1 0x44 DUP2 ADD DUP4 SWAP1 MSTORE PUSH1 0x64 ADD PUSH2 0x8D5 JUMP JUMPDEST POP PUSH2 0x1168 JUMP JUMPDEST PUSH1 0x40 MLOAD PUSH4 0x23B872DD PUSH1 0xE0 SHL DUP2 MSTORE PUSH1 0x1 PUSH1 0x1 PUSH1 0xA0 SHL SUB DUP10 DUP2 AND PUSH1 0x4 DUP4 ADD MSTORE ADDRESS PUSH1 0x24 DUP4 ADD MSTORE PUSH1 0x44 DUP3 ADD DUP9 SWAP1 MSTORE DUP9 AND SWAP1 PUSH4 0x23B872DD SWAP1 PUSH1 0x64 ADD PUSH1 0x20 PUSH1 0x40 MLOAD DUP1 DUP4 SUB DUP2 PUSH1 0x0 DUP8 GAS CALL ISZERO DUP1 ISZERO PUSH2 0xF36 JUMPI RETURNDATASIZE PUSH1 0x0 DUP1 RETURNDATACOPY RETURNDATASIZE PUSH1 0x0 REVERT JUMPDEST POP POP POP POP PUSH1 0x40 MLOAD RETURNDATASIZE PUSH1 0x1F NOT PUSH1 0x1F DUP3 ADD AND DUP3 ADD DUP1 PUSH1 0x40 MSTORE POP DUP2 ADD SWAP1 PUSH2 0xF5A SWAP2 SWAP1 PUSH2 0x2624 JUMP JUMPDEST PUSH2 0xF97 JUMPI PUSH1 0x40 MLOAD PUSH4 0x1667981F PUSH1 0xE0 SHL DUP2 MSTORE PUSH1 0x1 PUSH1 0x1 PUSH1 0xA0 SHL SUB DUP1 DUP11 AND PUSH1 0x4 DUP4 ADD MSTORE ADDRESS PUSH1 0x24 DUP4 ADD MSTORE DUP9 AND PUSH1 0x44 DUP3 ADD MSTORE PUSH1 0x64 DUP2 ADD DUP8 SWAP1 MSTORE PUSH1 0x84 ADD PUSH2 0x8D5 JUMP JUMPDEST PUSH1 0x40 MLOAD PUSH4 0xA9059CBB PUSH1 0xE0 SHL DUP2 MSTORE PUSH1 0x1 PUSH1 0x1 PUSH1 0xA0 SHL SUB DUP6 DUP2 AND PUSH1 0x4 DUP4 ADD MSTORE PUSH1 0x24 DUP3 ADD DUP4 SWAP1 MSTORE DUP9 AND SWAP1 PUSH4 0xA9059CBB SWAP1 PUSH1 0x44 ADD PUSH1 0x20 PUSH1 0x40 MLOAD DUP1 DUP4 SUB DUP2 PUSH1 0x0 DUP8 GAS CALL ISZERO DUP1 ISZERO PUSH2 0xFE6 JUMPI RETURNDATASIZE PUSH1 0x0 DUP1 RETURNDATACOPY RETURNDATASIZE PUSH1 0x0 REVERT JUMPDEST POP POP POP POP PUSH1 0x40 MLOAD RETURNDATASIZE PUSH1 0x1F NOT PUSH1 0x1F DUP3 ADD AND DUP3 ADD DUP1 PUSH1 0x40 MSTORE POP DUP2 ADD SWAP1 PUSH2 0x100A SWAP2 SWAP1 PUSH2 0x2624 JUMP JUMPDEST PUSH2 0x1047 JUMPI PUSH1 0x40 MLOAD PUSH4 0x1667981F PUSH1 0xE0 SHL DUP2 MSTORE ADDRESS PUSH1 0x4 DUP3 ADD MSTORE PUSH1 0x1 PUSH1 0x1 PUSH1 0xA0 SHL SUB DUP1 DUP7 AND PUSH1 0x24 DUP4 ADD MSTORE DUP9 AND PUSH1 0x44 DUP3 ADD MSTORE PUSH1 0x64 DUP2 ADD DUP3 SWAP1 MSTORE PUSH1 0x84 ADD PUSH2 0x8D5 JUMP JUMPDEST PUSH1 0x1 PUSH1 0x1 PUSH1 0xA0 SHL SUB DUP1 DUP6 AND PUSH1 0x0 SWAP1 DUP2 MSTORE PUSH1 0xA PUSH1 0x20 SWAP1 DUP2 MSTORE PUSH1 0x40 DUP1 DUP4 KECCAK256 SWAP4 DUP12 AND DUP4 MSTORE SWAP3 SWAP1 MSTORE KECCAK256 SLOAD PUSH2 0x1078 SWAP1 DUP3 SWAP1 PUSH2 0x27E0 JUMP JUMPDEST PUSH1 0x1 PUSH1 0x1 PUSH1 0xA0 SHL SUB DUP1 DUP7 AND PUSH1 0x0 SWAP1 DUP2 MSTORE PUSH1 0xA PUSH1 0x20 SWAP1 DUP2 MSTORE PUSH1 0x40 DUP1 DUP4 KECCAK256 SWAP4 DUP13 AND DUP4 MSTORE SWAP3 SWAP1 MSTORE KECCAK256 SSTORE PUSH2 0x1168 JUMP JUMPDEST PUSH1 0x1 PUSH1 0x1 PUSH1 0xA0 SHL SUB DUP8 AND ISZERO PUSH2 0x1168 JUMPI PUSH1 0x40 MLOAD PUSH4 0x23B872DD PUSH1 0xE0 SHL DUP2 MSTORE PUSH1 0x1 PUSH1 0x1 PUSH1 0xA0 SHL SUB DUP10 DUP2 AND PUSH1 0x4 DUP4 ADD MSTORE ADDRESS PUSH1 0x24 DUP4 ADD MSTORE PUSH1 0x44 DUP3 ADD DUP9 SWAP1 MSTORE DUP9 AND SWAP1 PUSH4 0x23B872DD SWAP1 PUSH1 0x64 ADD PUSH1 0x20 PUSH1 0x40 MLOAD DUP1 DUP4 SUB DUP2 PUSH1 0x0 DUP8 GAS CALL ISZERO DUP1 ISZERO PUSH2 0x1107 JUMPI RETURNDATASIZE PUSH1 0x0 DUP1 RETURNDATACOPY RETURNDATASIZE PUSH1 0x0 REVERT JUMPDEST POP POP POP POP PUSH1 0x40 MLOAD RETURNDATASIZE PUSH1 0x1F NOT PUSH1 0x1F DUP3 ADD AND DUP3 ADD DUP1 PUSH1 0x40 MSTORE POP DUP2 ADD SWAP1 PUSH2 0x112B SWAP2 SWAP1 PUSH2 0x2624 JUMP JUMPDEST PUSH2 0x1168 JUMPI PUSH1 0x40 MLOAD PUSH4 0x1667981F PUSH1 0xE0 SHL DUP2 MSTORE PUSH1 0x1 PUSH1 0x1 PUSH1 0xA0 SHL SUB DUP1 DUP11 AND PUSH1 0x4 DUP4 ADD MSTORE ADDRESS PUSH1 0x24 DUP4 ADD MSTORE DUP9 AND PUSH1 0x44 DUP3 ADD MSTORE PUSH1 0x64 DUP2 ADD DUP8 SWAP1 MSTORE PUSH1 0x84 ADD PUSH2 0x8D5 JUMP JUMPDEST PUSH1 0x0 PUSH1 0x1 PUSH1 0x1 PUSH1 0xA0 SHL SUB DUP6 AND ISZERO DUP1 ISZERO SWAP1 PUSH2 0x1184 JUMPI POP PUSH1 0x0 PUSH1 0x5 SLOAD GT JUMPDEST ISZERO PUSH2 0x12A2 JUMPI PUSH1 0x0 DUP1 SLOAD SWAP1 PUSH2 0x100 EXP SWAP1 DIV PUSH1 0x1 PUSH1 0x1 PUSH1 0xA0 SHL SUB AND PUSH1 0x1 PUSH1 0x1 PUSH1 0xA0 SHL SUB AND PUSH4 0x313CE567 PUSH1 0x40 MLOAD DUP2 PUSH4 0xFFFFFFFF AND PUSH1 0xE0 SHL DUP2 MSTORE PUSH1 0x4 ADD PUSH1 0x20 PUSH1 0x40 MLOAD DUP1 DUP4 SUB DUP2 DUP7 GAS STATICCALL ISZERO DUP1 ISZERO PUSH2 0x11DA JUMPI RETURNDATASIZE PUSH1 0x0 DUP1 RETURNDATACOPY RETURNDATASIZE PUSH1 0x0 REVERT JUMPDEST POP POP POP POP PUSH1 0x40 MLOAD RETURNDATASIZE PUSH1 0x1F NOT PUSH1 0x1F DUP3 ADD AND DUP3 ADD DUP1 PUSH1 0x40 MSTORE POP DUP2 ADD SWAP1 PUSH2 0x11FE SWAP2 SWAP1 PUSH2 0x2681 JUMP JUMPDEST PUSH2 0x1209 SWAP1 PUSH1 0x2 PUSH2 0x269E JUMP JUMPDEST PUSH2 0x1214 SWAP1 PUSH1 0xA PUSH2 0x27F3 JUMP JUMPDEST PUSH1 0x5 SLOAD PUSH1 0x40 MLOAD PUSH4 0x5D4EC65 PUSH1 0xE1 SHL DUP2 MSTORE PUSH1 0x1 PUSH1 0x1 PUSH1 0xA0 SHL SUB DUP12 AND PUSH1 0x4 DUP3 ADD MSTORE DUP10 SWAP1 ADDRESS SWAP1 PUSH4 0xBA9D8CA SWAP1 PUSH1 0x24 ADD PUSH1 0x20 PUSH1 0x40 MLOAD DUP1 DUP4 SUB DUP2 DUP7 GAS STATICCALL ISZERO DUP1 ISZERO PUSH2 0x125D JUMPI RETURNDATASIZE PUSH1 0x0 DUP1 RETURNDATACOPY RETURNDATASIZE PUSH1 0x0 REVERT JUMPDEST POP POP POP POP PUSH1 0x40 MLOAD RETURNDATASIZE PUSH1 0x1F NOT PUSH1 0x1F DUP3 ADD AND DUP3 ADD DUP1 PUSH1 0x40 MSTORE POP DUP2 ADD SWAP1 PUSH2 0x1281 SWAP2 SWAP1 PUSH2 0x263F JUMP JUMPDEST PUSH2 0x128B SWAP2 SWAP1 PUSH2 0x27A7 JUMP JUMPDEST PUSH2 0x1295 SWAP2 SWAP1 PUSH2 0x27A7 JUMP JUMPDEST PUSH2 0x129F SWAP2 SWAP1 PUSH2 0x27BE JUMP JUMPDEST SWAP1 POP JUMPDEST PUSH1 0x1 SLOAD PUSH1 0x1 PUSH1 0x1 PUSH1 0xA0 SHL SUB AND PUSH2 0x146B JUMPI PUSH1 0x0 SLOAD PUSH1 0x40 MLOAD PUSH4 0xA9059CBB PUSH1 0xE0 SHL DUP2 MSTORE PUSH1 0x1 PUSH1 0x1 PUSH1 0xA0 SHL SUB DUP12 DUP2 AND PUSH1 0x4 DUP4 ADD MSTORE PUSH1 0x24 DUP3 ADD DUP10 SWAP1 MSTORE SWAP1 SWAP2 AND SWAP1 PUSH4 0xA9059CBB SWAP1 PUSH1 0x44 ADD PUSH1 0x20 PUSH1 0x40 MLOAD DUP1 DUP4 SUB DUP2 PUSH1 0x0 DUP8 GAS CALL ISZERO DUP1 ISZERO PUSH2 0x1305 JUMPI RETURNDATASIZE PUSH1 0x0 DUP1 RETURNDATACOPY RETURNDATASIZE PUSH1 0x0 REVERT JUMPDEST POP POP POP POP PUSH1 0x40 MLOAD RETURNDATASIZE PUSH1 0x1F NOT PUSH1 0x1F DUP3 ADD AND DUP3 ADD DUP1 PUSH1 0x40 MSTORE POP DUP2 ADD SWAP1 PUSH2 0x1329 SWAP2 SWAP1 PUSH2 0x2624 JUMP JUMPDEST PUSH2 0x136A JUMPI PUSH1 0x0 SLOAD PUSH1 0x40 MLOAD PUSH4 0x1667981F PUSH1 0xE0 SHL DUP2 MSTORE ADDRESS PUSH1 0x4 DUP3 ADD MSTORE PUSH1 0x1 PUSH1 0x1 PUSH1 0xA0 SHL SUB DUP1 DUP13 AND PUSH1 0x24 DUP4 ADD MSTORE SWAP1 SWAP2 AND PUSH1 0x44 DUP3 ADD MSTORE PUSH1 0x64 DUP2 ADD DUP8 SWAP1 MSTORE PUSH1 0x84 ADD PUSH2 0x8D5 JUMP JUMPDEST DUP1 ISZERO PUSH2 0x1466 JUMPI PUSH1 0x0 SLOAD PUSH1 0x40 MLOAD PUSH4 0xA9059CBB PUSH1 0xE0 SHL DUP2 MSTORE PUSH1 0x1 PUSH1 0x1 PUSH1 0xA0 SHL SUB DUP8 DUP2 AND PUSH1 0x4 DUP4 ADD MSTORE PUSH1 0x24 DUP3 ADD DUP5 SWAP1 MSTORE SWAP1 SWAP2 AND SWAP1 PUSH4 0xA9059CBB SWAP1 PUSH1 0x44 ADD PUSH1 0x20 PUSH1 0x40 MLOAD DUP1 DUP4 SUB DUP2 PUSH1 0x0 DUP8 GAS CALL ISZERO DUP1 ISZERO PUSH2 0x13C3 JUMPI RETURNDATASIZE PUSH1 0x0 DUP1 RETURNDATACOPY RETURNDATASIZE PUSH1 0x0 REVERT JUMPDEST POP POP POP POP PUSH1 0x40 MLOAD RETURNDATASIZE PUSH1 0x1F NOT PUSH1 0x1F DUP3 ADD AND DUP3 ADD DUP1 PUSH1 0x40 MSTORE POP DUP2 ADD SWAP1 PUSH2 0x13E7 SWAP2 SWAP1 PUSH2 0x2624 JUMP JUMPDEST PUSH2 0x1428 JUMPI PUSH1 0x0 SLOAD PUSH1 0x40 MLOAD PUSH4 0x1667981F PUSH1 0xE0 SHL DUP2 MSTORE ADDRESS PUSH1 0x4 DUP3 ADD MSTORE PUSH1 0x1 PUSH1 0x1 PUSH1 0xA0 SHL SUB DUP1 DUP9 AND PUSH1 0x24 DUP4 ADD MSTORE SWAP1 SWAP2 AND PUSH1 0x44 DUP3 ADD MSTORE PUSH1 0x64 DUP2 ADD DUP3 SWAP1 MSTORE PUSH1 0x84 ADD PUSH2 0x8D5 JUMP JUMPDEST PUSH1 0x1 PUSH1 0x1 PUSH1 0xA0 SHL SUB DUP6 AND PUSH1 0x0 SWAP1 DUP2 MSTORE PUSH1 0xB PUSH1 0x20 MSTORE PUSH1 0x40 SWAP1 KECCAK256 SLOAD PUSH2 0x144C SWAP1 DUP3 SWAP1 PUSH2 0x27E0 JUMP JUMPDEST PUSH1 0x1 PUSH1 0x1 PUSH1 0xA0 SHL SUB DUP7 AND PUSH1 0x0 SWAP1 DUP2 MSTORE PUSH1 0xB PUSH1 0x20 MSTORE PUSH1 0x40 SWAP1 KECCAK256 SSTORE JUMPDEST PUSH2 0x1632 JUMP JUMPDEST PUSH1 0x0 SLOAD PUSH1 0x1 SLOAD PUSH1 0x1 PUSH1 0x1 PUSH1 0xA0 SHL SUB SWAP2 DUP3 AND SWAP2 PUSH4 0xA9059CBB SWAP2 AND PUSH2 0x148E DUP5 DUP11 PUSH2 0x27E0 JUMP JUMPDEST PUSH1 0x40 MLOAD PUSH1 0x1 PUSH1 0x1 PUSH1 0xE0 SHL SUB NOT PUSH1 0xE0 DUP6 SWAP1 SHL AND DUP2 MSTORE PUSH1 0x1 PUSH1 0x1 PUSH1 0xA0 SHL SUB SWAP1 SWAP3 AND PUSH1 0x4 DUP4 ADD MSTORE PUSH1 0x24 DUP3 ADD MSTORE PUSH1 0x44 ADD PUSH1 0x20 PUSH1 0x40 MLOAD DUP1 DUP4 SUB DUP2 PUSH1 0x0 DUP8 GAS CALL ISZERO DUP1 ISZERO PUSH2 0x14D9 JUMPI RETURNDATASIZE PUSH1 0x0 DUP1 RETURNDATACOPY RETURNDATASIZE PUSH1 0x0 REVERT JUMPDEST POP POP POP POP PUSH1 0x40 MLOAD RETURNDATASIZE PUSH1 0x1F NOT PUSH1 0x1F DUP3 ADD AND DUP3 ADD DUP1 PUSH1 0x40 MSTORE POP DUP2 ADD SWAP1 PUSH2 0x14FD SWAP2 SWAP1 PUSH2 0x2624 JUMP JUMPDEST PUSH2 0x155C JUMPI PUSH1 0x1 SLOAD PUSH1 0x0 SLOAD ADDRESS SWAP2 PUSH1 0x1 PUSH1 0x1 PUSH1 0xA0 SHL SUB SWAP1 DUP2 AND SWAP2 AND PUSH2 0x1520 DUP5 DUP11 PUSH2 0x27E0 JUMP JUMPDEST PUSH1 0x40 MLOAD PUSH4 0x1667981F PUSH1 0xE0 SHL DUP2 MSTORE PUSH1 0x1 PUSH1 0x1 PUSH1 0xA0 SHL SUB SWAP5 DUP6 AND PUSH1 0x4 DUP3 ADD MSTORE SWAP3 DUP5 AND PUSH1 0x24 DUP5 ADD MSTORE SWAP3 AND PUSH1 0x44 DUP3 ADD MSTORE PUSH1 0x64 DUP2 ADD SWAP2 SWAP1 SWAP2 MSTORE PUSH1 0x84 ADD PUSH2 0x8D5 JUMP JUMPDEST PUSH1 0x1 SLOAD PUSH1 0x40 MLOAD PUSH4 0x1F726421 PUSH1 0xE3 SHL DUP2 MSTORE PUSH1 0x1 PUSH1 0x1 PUSH1 0xA0 SHL SUB DUP12 DUP2 AND PUSH1 0x4 DUP4 ADD MSTORE PUSH1 0x24 DUP3 ADD DUP10 SWAP1 MSTORE SWAP1 SWAP2 AND SWAP1 PUSH4 0xFB932108 SWAP1 PUSH1 0x44 ADD PUSH1 0x0 PUSH1 0x40 MLOAD DUP1 DUP4 SUB DUP2 PUSH1 0x0 DUP8 DUP1 EXTCODESIZE ISZERO DUP1 ISZERO PUSH2 0x15AA JUMPI PUSH1 0x0 DUP1 REVERT JUMPDEST POP GAS CALL ISZERO DUP1 ISZERO PUSH2 0x15BE JUMPI RETURNDATASIZE PUSH1 0x0 DUP1 RETURNDATACOPY RETURNDATASIZE PUSH1 0x0 REVERT JUMPDEST POP POP POP POP PUSH1 0x0 DUP2 GT ISZERO PUSH2 0x1632 JUMPI PUSH1 0x1 SLOAD PUSH1 0x40 MLOAD PUSH4 0x1F726421 PUSH1 0xE3 SHL DUP2 MSTORE PUSH1 0x1 PUSH1 0x1 PUSH1 0xA0 SHL SUB DUP8 DUP2 AND PUSH1 0x4 DUP4 ADD MSTORE PUSH1 0x24 DUP3 ADD DUP5 SWAP1 MSTORE SWAP1 SWAP2 AND SWAP1 PUSH4 0xFB932108 SWAP1 PUSH1 0x44 ADD PUSH1 0x0 PUSH1 0x40 MLOAD DUP1 DUP4 SUB DUP2 PUSH1 0x0 DUP8 DUP1 EXTCODESIZE ISZERO DUP1 ISZERO PUSH2 0x1619 JUMPI PUSH1 0x0 DUP1 REVERT JUMPDEST POP GAS CALL ISZERO DUP1 ISZERO PUSH2 0x162D JUMPI RETURNDATASIZE PUSH1 0x0 DUP1 RETURNDATACOPY RETURNDATASIZE PUSH1 0x0 REVERT JUMPDEST POP POP POP POP JUMPDEST PUSH1 0x0 DUP3 GT DUP1 PUSH2 0x1641 JUMPI POP PUSH1 0x0 DUP2 GT JUMPDEST ISZERO PUSH2 0x169B JUMPI PUSH1 0x40 DUP1 MLOAD DUP9 DUP2 MSTORE PUSH1 0x20 DUP2 ADD DUP5 SWAP1 MSTORE SWAP1 DUP2 ADD DUP3 SWAP1 MSTORE PUSH1 0x1 PUSH1 0x1 PUSH1 0xA0 SHL SUB DUP1 DUP11 AND SWAP2 DUP8 DUP3 AND SWAP2 DUP13 AND SWAP1 PUSH32 0xCC73881EDFA10EBE0B193C9634F7B693EE798BA7A11076B56F697522A890DB8F SWAP1 PUSH1 0x60 ADD PUSH1 0x40 MLOAD DUP1 SWAP2 SUB SWAP1 LOG4 JUMPDEST DUP7 DUP9 PUSH1 0x1 PUSH1 0x1 PUSH1 0xA0 SHL SUB AND DUP11 PUSH1 0x1 PUSH1 0x1 PUSH1 0xA0 SHL SUB AND PUSH32 0x314898F27B62DE59A1D7326707C74B7991036F43ED22658D064228C032E76FDA DUP10 PUSH1 0x40 MLOAD PUSH2 0x16E1 SWAP2 DUP2 MSTORE PUSH1 0x20 ADD SWAP1 JUMP JUMPDEST PUSH1 0x40 MLOAD DUP1 SWAP2 SUB SWAP1 LOG4 POP PUSH1 0x1 SWAP9 SWAP8 POP POP POP POP POP POP POP POP JUMP JUMPDEST PUSH1 0x0 DUP1 PUSH2 0x172E PUSH2 0x1710 PUSH1 0xC SLOAD PUSH1 0x1 PUSH1 0x1 PUSH1 0xA0 SHL SUB AND SWAP1 JUMP JUMPDEST DUP7 ADDRESS PUSH2 0x1720 PUSH1 0x4 PUSH1 0x0 DUP10 DUP12 PUSH2 0x2802 JUMP JUMPDEST PUSH2 0x1729 SWAP2 PUSH2 0x282C JUMP JUMPDEST PUSH2 0x220C JUMP JUMPDEST SWAP2 POP SWAP2 POP DUP2 PUSH2 0x17F1 JUMPI PUSH4 0xFFFFFFFF DUP2 AND ISZERO PUSH2 0x17CE JUMPI PUSH1 0xC DUP1 SLOAD PUSH1 0xFF PUSH1 0xA0 SHL NOT DUP2 AND PUSH1 0x1 PUSH1 0xA0 SHL OR SWAP1 SWAP2 SSTORE PUSH1 0x40 MLOAD PUSH4 0x4A63EBF7 PUSH1 0xE1 SHL DUP2 MSTORE PUSH1 0x1 PUSH1 0x1 PUSH1 0xA0 SHL SUB SWAP1 SWAP2 AND SWAP1 PUSH4 0x94C7D7EE SWAP1 PUSH2 0x1789 SWAP1 DUP9 SWAP1 DUP9 SWAP1 DUP9 SWAP1 PUSH1 0x4 ADD PUSH2 0x285C JUMP JUMPDEST PUSH1 0x0 PUSH1 0x40 MLOAD DUP1 DUP4 SUB DUP2 PUSH1 0x0 DUP8 DUP1 EXTCODESIZE ISZERO DUP1 ISZERO PUSH2 0x17A3 JUMPI PUSH1 0x0 DUP1 REVERT JUMPDEST POP GAS CALL ISZERO DUP1 ISZERO PUSH2 0x17B7 JUMPI RETURNDATASIZE PUSH1 0x0 DUP1 RETURNDATACOPY RETURNDATASIZE PUSH1 0x0 REVERT JUMPDEST POP POP PUSH1 0xC DUP1 SLOAD PUSH1 0xFF PUSH1 0xA0 SHL NOT AND SWAP1 SSTORE POP PUSH2 0x17F1 SWAP1 POP JUMP JUMPDEST PUSH1 0x40 MLOAD PUSH3 0xD1953B PUSH1 0xE3 SHL DUP2 MSTORE PUSH1 0x1 PUSH1 0x1 PUSH1 0xA0 SHL SUB DUP7 AND PUSH1 0x4 DUP3 ADD MSTORE PUSH1 0x24 ADD PUSH2 0x8D5 JUMP JUMPDEST POP POP POP POP POP JUMP JUMPDEST PUSH1 0x1 PUSH1 0x1 PUSH1 0xA0 SHL SUB DUP2 AND PUSH2 0x181F JUMPI PUSH1 0x40 MLOAD PUSH4 0x66F53B1 PUSH1 0xE0 SHL DUP2 MSTORE PUSH1 0x4 ADD PUSH1 0x40 MLOAD DUP1 SWAP2 SUB SWAP1 REVERT JUMPDEST PUSH1 0x0 DUP1 SLOAD PUSH1 0x1 PUSH1 0x1 PUSH1 0xA0 SHL SUB NOT AND PUSH1 0x1 PUSH1 0x1 PUSH1 0xA0 SHL SUB SWAP3 SWAP1 SWAP3 AND SWAP2 SWAP1 SWAP2 OR SWAP1 SSTORE JUMP JUMPDEST PUSH1 0x0 PUSH2 0x6A6 DUP3 PUSH2 0x232D JUMP JUMPDEST DUP1 PUSH1 0x0 SUB PUSH2 0x186D JUMPI PUSH1 0x40 MLOAD PUSH4 0x200B3D25 PUSH1 0xE0 SHL DUP2 MSTORE PUSH1 0x4 ADD PUSH1 0x40 MLOAD DUP1 SWAP2 SUB SWAP1 REVERT JUMPDEST PUSH1 0x6 SSTORE JUMP JUMPDEST PUSH1 0x0 PUSH1 0x1 PUSH1 0x1 PUSH1 0xA0 SHL SUB DUP4 AND PUSH2 0x189B JUMPI PUSH1 0x40 MLOAD PUSH4 0x560D249 PUSH1 0xE1 SHL DUP2 MSTORE PUSH1 0x4 ADD PUSH1 0x40 MLOAD DUP1 SWAP2 SUB SWAP1 REVERT JUMPDEST DUP2 PUSH1 0x0 SUB PUSH2 0x18BC JUMPI PUSH1 0x40 MLOAD PUSH4 0x783BC409 PUSH1 0xE0 SHL DUP2 MSTORE PUSH1 0x4 ADD PUSH1 0x40 MLOAD DUP1 SWAP2 SUB SWAP1 REVERT JUMPDEST PUSH1 0x0 SLOAD PUSH1 0x1 PUSH1 0x1 PUSH1 0xA0 SHL SUB AND PUSH2 0x18E5 JUMPI PUSH1 0x40 MLOAD PUSH4 0x66F53B1 PUSH1 0xE0 SHL DUP2 MSTORE PUSH1 0x4 ADD PUSH1 0x40 MLOAD DUP1 SWAP2 SUB SWAP1 REVERT JUMPDEST PUSH1 0x0 DUP1 SLOAD SWAP1 PUSH2 0x100 EXP SWAP1 DIV PUSH1 0x1 PUSH1 0x1 PUSH1 0xA0 SHL SUB AND PUSH1 0x1 PUSH1 0x1 PUSH1 0xA0 SHL SUB AND PUSH4 0x313CE567 PUSH1 0x40 MLOAD DUP2 PUSH4 0xFFFFFFFF AND PUSH1 0xE0 SHL DUP2 MSTORE PUSH1 0x4 ADD PUSH1 0x20 PUSH1 0x40 MLOAD DUP1 DUP4 SUB DUP2 DUP7 GAS STATICCALL ISZERO DUP1 ISZERO PUSH2 0x1936 JUMPI RETURNDATASIZE PUSH1 0x0 DUP1 RETURNDATACOPY RETURNDATASIZE PUSH1 0x0 REVERT JUMPDEST POP POP POP POP PUSH1 0x40 MLOAD RETURNDATASIZE PUSH1 0x1F NOT PUSH1 0x1F DUP3 ADD AND DUP3 ADD DUP1 PUSH1 0x40 MSTORE POP DUP2 ADD SWAP1 PUSH2 0x195A SWAP2 SWAP1 PUSH2 0x2681 JUMP JUMPDEST PUSH2 0x1965 SWAP1 PUSH1 0x2 PUSH2 0x269E JUMP JUMPDEST PUSH2 0x1970 SWAP1 PUSH1 0xA PUSH2 0x27F3 JUMP JUMPDEST DUP3 GT ISZERO PUSH2 0x1993 JUMPI PUSH1 0x40 MLOAD PUSH4 0x164B7C9 PUSH1 0xE6 SHL DUP2 MSTORE PUSH1 0x4 DUP2 ADD DUP4 SWAP1 MSTORE PUSH1 0x24 ADD PUSH2 0x8D5 JUMP JUMPDEST PUSH2 0x71A PUSH1 0x7 DUP5 DUP5 PUSH2 0x2338 JUMP JUMPDEST PUSH2 0x19A7 PUSH2 0x234E JUMP JUMPDEST PUSH1 0xC DUP1 SLOAD PUSH1 0xFF PUSH1 0xA8 SHL NOT AND SWAP1 SSTORE PUSH32 0x5DB9EE0A495BF2E6FF9C91A7834C1BA4FDD244A5E8AA4E537BD38AEAE4B073AA CALLER JUMPDEST PUSH1 0x40 MLOAD PUSH1 0x1 PUSH1 0x1 PUSH1 0xA0 SHL SUB SWAP1 SWAP2 AND DUP2 MSTORE PUSH1 0x20 ADD PUSH1 0x40 MLOAD DUP1 SWAP2 SUB SWAP1 LOG1 JUMP JUMPDEST PUSH1 0x40 MLOAD SELFBALANCE SWAP1 PUSH1 0x0 SWAP1 PUSH1 0x1 PUSH1 0x1 PUSH1 0xA0 SHL SUB DUP5 AND SWAP1 DUP4 SWAP1 DUP4 DUP2 DUP2 DUP2 DUP6 DUP8 GAS CALL SWAP3 POP POP POP RETURNDATASIZE DUP1 PUSH1 0x0 DUP2 EQ PUSH2 0x1A41 JUMPI PUSH1 0x40 MLOAD SWAP2 POP PUSH1 0x1F NOT PUSH1 0x3F RETURNDATASIZE ADD AND DUP3 ADD PUSH1 0x40 MSTORE RETURNDATASIZE DUP3 MSTORE RETURNDATASIZE PUSH1 0x0 PUSH1 0x20 DUP5 ADD RETURNDATACOPY PUSH2 0x1A46 JUMP JUMPDEST PUSH1 0x60 SWAP2 POP JUMPDEST POP POP SWAP1 POP DUP1 PUSH2 0xA51 JUMPI PUSH1 0x40 MLOAD PUSH4 0x1BC3CDFD PUSH1 0xE2 SHL DUP2 MSTORE PUSH1 0x0 PUSH1 0x4 DUP3 ADD MSTORE PUSH1 0x1 PUSH1 0x1 PUSH1 0xA0 SHL SUB DUP5 AND PUSH1 0x24 DUP3 ADD MSTORE PUSH1 0x44 DUP2 ADD DUP4 SWAP1 MSTORE PUSH1 0x64 ADD PUSH2 0x8D5 JUMP JUMPDEST PUSH1 0xC DUP1 SLOAD PUSH1 0x1 PUSH1 0x1 PUSH1 0xA0 SHL SUB NOT AND PUSH1 0x1 PUSH1 0x1 PUSH1 0xA0 SHL SUB DUP4 AND SWAP1 DUP2 OR SWAP1 SWAP2 SSTORE PUSH1 0x40 MLOAD SWAP1 DUP2 MSTORE PUSH32 0x2F658B440C35314F52658EA8A740E05B284CDC84DC9AE01E891F21B8933E7CAD SWAP1 PUSH1 0x20 ADD PUSH1 0x40 MLOAD DUP1 SWAP2 SUB SWAP1 LOG1 POP JUMP JUMPDEST PUSH2 0x1ADD PUSH2 0x2378 JUMP JUMPDEST PUSH1 0xC DUP1 SLOAD PUSH1 0xFF PUSH1 0xA8 SHL NOT AND PUSH1 0x1 PUSH1 0xA8 SHL OR SWAP1 SSTORE PUSH32 0x62E78CEA01BEE320CD4E420270B5EA74000D11B0C9F74754EBDBFC544B05A258 PUSH2 0x19D7 CALLER SWAP1 JUMP JUMPDEST PUSH1 0x0 SLOAD PUSH1 0x1 PUSH1 0x1 PUSH1 0xA0 SHL SUB AND PUSH2 0x1B41 JUMPI PUSH1 0x40 MLOAD PUSH4 0x66F53B1 PUSH1 0xE0 SHL DUP2 MSTORE PUSH1 0x4 ADD PUSH1 0x40 MLOAD DUP1 SWAP2 SUB SWAP1 REVERT JUMPDEST PUSH1 0x0 SLOAD PUSH1 0x40 MLOAD PUSH4 0x70A08231 PUSH1 0xE0 SHL DUP2 MSTORE ADDRESS PUSH1 0x4 DUP3 ADD MSTORE PUSH1 0x1 PUSH1 0x1 PUSH1 0xA0 SHL SUB SWAP1 SWAP2 AND SWAP1 PUSH4 0xA9059CBB SWAP1 DUP4 SWAP1 DUP4 SWAP1 PUSH4 0x70A08231 SWAP1 PUSH1 0x24 ADD PUSH1 0x20 PUSH1 0x40 MLOAD DUP1 DUP4 SUB DUP2 DUP7 GAS STATICCALL ISZERO DUP1 ISZERO PUSH2 0x1B93 JUMPI RETURNDATASIZE PUSH1 0x0 DUP1 RETURNDATACOPY RETURNDATASIZE PUSH1 0x0 REVERT JUMPDEST POP POP POP POP PUSH1 0x40 MLOAD RETURNDATASIZE PUSH1 0x1F NOT PUSH1 0x1F DUP3 ADD AND DUP3 ADD DUP1 PUSH1 0x40 MSTORE POP DUP2 ADD SWAP1 PUSH2 0x1BB7 SWAP2 SWAP1 PUSH2 0x263F JUMP JUMPDEST PUSH1 0x40 MLOAD PUSH1 0x1 PUSH1 0x1 PUSH1 0xE0 SHL SUB NOT PUSH1 0xE0 DUP6 SWAP1 SHL AND DUP2 MSTORE PUSH1 0x1 PUSH1 0x1 PUSH1 0xA0 SHL SUB SWAP1 SWAP3 AND PUSH1 0x4 DUP4 ADD MSTORE PUSH1 0x24 DUP3 ADD MSTORE PUSH1 0x44 ADD PUSH1 0x20 PUSH1 0x40 MLOAD DUP1 DUP4 SUB DUP2 PUSH1 0x0 DUP8 GAS CALL ISZERO DUP1 ISZERO PUSH2 0x1C02 JUMPI RETURNDATASIZE PUSH1 0x0 DUP1 RETURNDATACOPY RETURNDATASIZE PUSH1 0x0 REVERT JUMPDEST POP POP POP POP PUSH1 0x40 MLOAD RETURNDATASIZE PUSH1 0x1F NOT PUSH1 0x1F DUP3 ADD AND DUP3 ADD DUP1 PUSH1 0x40 MSTORE POP DUP2 ADD SWAP1 PUSH2 0x1C26 SWAP2 SWAP1 PUSH2 0x2624 JUMP JUMPDEST PUSH2 0x1C52 JUMPI PUSH1 0x0 SLOAD PUSH1 0x40 MLOAD PUSH4 0xBBEA11C9 PUSH1 0xE0 SHL DUP2 MSTORE PUSH1 0x1 PUSH1 0x1 PUSH1 0xA0 SHL SUB SWAP1 SWAP2 AND PUSH1 0x4 DUP3 ADD MSTORE PUSH1 0x24 ADD PUSH2 0x8D5 JUMP JUMPDEST PUSH1 0x0 DUP1 JUMPDEST PUSH2 0x1C60 PUSH1 0x7 PUSH2 0x1841 JUMP JUMPDEST DUP3 LT ISZERO PUSH2 0x1DAD JUMPI PUSH1 0x0 PUSH2 0x1C74 PUSH1 0x7 DUP5 PUSH2 0x1E42 JUMP JUMPDEST POP PUSH1 0x40 MLOAD PUSH4 0x70A08231 PUSH1 0xE0 SHL DUP2 MSTORE ADDRESS PUSH1 0x4 DUP3 ADD MSTORE SWAP1 SWAP2 POP PUSH1 0x1 PUSH1 0x1 PUSH1 0xA0 SHL SUB DUP3 AND SWAP1 PUSH4 0x70A08231 SWAP1 PUSH1 0x24 ADD PUSH1 0x20 PUSH1 0x40 MLOAD DUP1 DUP4 SUB DUP2 DUP7 GAS STATICCALL ISZERO DUP1 ISZERO PUSH2 0x1CBC JUMPI RETURNDATASIZE PUSH1 0x0 DUP1 RETURNDATACOPY RETURNDATASIZE PUSH1 0x0 REVERT JUMPDEST POP POP POP POP PUSH1 0x40 MLOAD RETURNDATASIZE PUSH1 0x1F NOT PUSH1 0x1F DUP3 ADD AND DUP3 ADD DUP1 PUSH1 0x40 MSTORE POP DUP2 ADD SWAP1 PUSH2 0x1CE0 SWAP2 SWAP1 PUSH2 0x263F JUMP JUMPDEST SWAP2 POP PUSH1 0x0 DUP3 GT DUP1 ISZERO PUSH2 0x1D62 JUMPI POP PUSH1 0x40 MLOAD PUSH4 0xA9059CBB PUSH1 0xE0 SHL DUP2 MSTORE PUSH1 0x1 PUSH1 0x1 PUSH1 0xA0 SHL SUB DUP7 DUP2 AND PUSH1 0x4 DUP4 ADD MSTORE PUSH1 0x24 DUP3 ADD DUP5 SWAP1 MSTORE DUP3 AND SWAP1 PUSH4 0xA9059CBB SWAP1 PUSH1 0x44 ADD PUSH1 0x20 PUSH1 0x40 MLOAD DUP1 DUP4 SUB DUP2 PUSH1 0x0 DUP8 GAS CALL ISZERO DUP1 ISZERO PUSH2 0x1D3C JUMPI RETURNDATASIZE PUSH1 0x0 DUP1 RETURNDATACOPY RETURNDATASIZE PUSH1 0x0 REVERT JUMPDEST POP POP POP POP PUSH1 0x40 MLOAD RETURNDATASIZE PUSH1 0x1F NOT PUSH1 0x1F DUP3 ADD AND DUP3 ADD DUP1 PUSH1 0x40 MSTORE POP DUP2 ADD SWAP1 PUSH2 0x1D60 SWAP2 SWAP1 PUSH2 0x2624 JUMP JUMPDEST ISZERO JUMPDEST ISZERO PUSH2 0x1D9A JUMPI PUSH1 0x40 MLOAD PUSH4 0x1BC3CDFD PUSH1 0xE2 SHL DUP2 MSTORE PUSH1 0x1 PUSH1 0x1 PUSH1 0xA0 SHL SUB DUP1 DUP4 AND PUSH1 0x4 DUP4 ADD MSTORE DUP7 AND PUSH1 0x24 DUP3 ADD MSTORE PUSH1 0x44 DUP2 ADD DUP4 SWAP1 MSTORE PUSH1 0x64 ADD PUSH2 0x8D5 JUMP JUMPDEST POP DUP2 PUSH2 0x1DA5 DUP2 PUSH2 0x289B JUMP JUMPDEST SWAP3 POP POP PUSH2 0x1C56 JUMP JUMPDEST PUSH1 0x40 MLOAD SELFBALANCE SWAP1 PUSH1 0x0 SWAP1 PUSH1 0x1 PUSH1 0x1 PUSH1 0xA0 SHL SUB DUP8 AND SWAP1 DUP4 SWAP1 DUP4 DUP2 DUP2 DUP2 DUP6 DUP8 GAS CALL SWAP3 POP POP POP RETURNDATASIZE DUP1 PUSH1 0x0 DUP2 EQ PUSH2 0x1DFA JUMPI PUSH1 0x40 MLOAD SWAP2 POP PUSH1 0x1F NOT PUSH1 0x3F RETURNDATASIZE ADD AND DUP3 ADD PUSH1 0x40 MSTORE RETURNDATASIZE DUP3 MSTORE RETURNDATASIZE PUSH1 0x0 PUSH1 0x20 DUP5 ADD RETURNDATACOPY PUSH2 0x1DFF JUMP JUMPDEST PUSH1 0x60 SWAP2 POP JUMPDEST POP POP SWAP1 POP DUP1 PUSH2 0x1E3A JUMPI PUSH1 0x40 MLOAD PUSH4 0x1BC3CDFD PUSH1 0xE2 SHL DUP2 MSTORE PUSH1 0x0 PUSH1 0x4 DUP3 ADD MSTORE PUSH1 0x1 PUSH1 0x1 PUSH1 0xA0 SHL SUB DUP8 AND PUSH1 0x24 DUP3 ADD MSTORE PUSH1 0x44 DUP2 ADD DUP4 SWAP1 MSTORE PUSH1 0x64 ADD PUSH2 0x8D5 JUMP JUMPDEST POP POP POP POP POP POP JUMP JUMPDEST PUSH1 0x0 DUP1 DUP1 DUP1 PUSH2 0x1E51 DUP7 DUP7 PUSH2 0x23A3 JUMP JUMPDEST SWAP1 SWAP8 SWAP1 SWAP7 POP SWAP5 POP POP POP POP POP JUMP JUMPDEST PUSH2 0x1E6C PUSH1 0xFF DUP3 AND PUSH1 0x64 PUSH2 0x27E0 JUMP JUMPDEST PUSH1 0x3 SSTORE POP JUMP JUMPDEST PUSH1 0x40 MLOAD PUSH4 0x70A08231 PUSH1 0xE0 SHL DUP2 MSTORE ADDRESS PUSH1 0x4 DUP3 ADD MSTORE PUSH1 0x1 PUSH1 0x1 PUSH1 0xA0 SHL SUB DUP4 AND SWAP1 PUSH4 0xA9059CBB SWAP1 DUP4 SWAP1 DUP4 SWAP1 PUSH4 0x70A08231 SWAP1 PUSH1 0x24 ADD PUSH1 0x20 PUSH1 0x40 MLOAD DUP1 DUP4 SUB DUP2 DUP7 GAS STATICCALL ISZERO DUP1 ISZERO PUSH2 0x1EC0 JUMPI RETURNDATASIZE PUSH1 0x0 DUP1 RETURNDATACOPY RETURNDATASIZE PUSH1 0x0 REVERT JUMPDEST POP POP POP POP PUSH1 0x40 MLOAD RETURNDATASIZE PUSH1 0x1F NOT PUSH1 0x1F DUP3 ADD AND DUP3 ADD DUP1 PUSH1 0x40 MSTORE POP DUP2 ADD SWAP1 PUSH2 0x1EE4 SWAP2 SWAP1 PUSH2 0x263F JUMP JUMPDEST PUSH1 0x40 MLOAD PUSH1 0x1 PUSH1 0x1 PUSH1 0xE0 SHL SUB NOT PUSH1 0xE0 DUP6 SWAP1 SHL AND DUP2 MSTORE PUSH1 0x1 PUSH1 0x1 PUSH1 0xA0 SHL SUB SWAP1 SWAP3 AND PUSH1 0x4 DUP4 ADD MSTORE PUSH1 0x24 DUP3 ADD MSTORE PUSH1 0x44 ADD PUSH1 0x20 PUSH1 0x40 MLOAD DUP1 DUP4 SUB DUP2 PUSH1 0x0 DUP8 GAS CALL ISZERO DUP1 ISZERO PUSH2 0x1F2F JUMPI RETURNDATASIZE PUSH1 0x0 DUP1 RETURNDATACOPY RETURNDATASIZE PUSH1 0x0 REVERT JUMPDEST POP POP POP POP PUSH1 0x40 MLOAD RETURNDATASIZE PUSH1 0x1F NOT PUSH1 0x1F DUP3 ADD AND DUP3 ADD DUP1 PUSH1 0x40 MSTORE POP DUP2 ADD SWAP1 PUSH2 0x1F53 SWAP2 SWAP1 PUSH2 0x2624 JUMP JUMPDEST PUSH2 0x91D JUMPI PUSH1 0x40 MLOAD PUSH4 0x70A08231 PUSH1 0xE0 SHL DUP2 MSTORE ADDRESS PUSH1 0x4 DUP3 ADD MSTORE DUP3 SWAP1 DUP3 SWAP1 PUSH1 0x1 PUSH1 0x1 PUSH1 0xA0 SHL SUB DUP4 AND SWAP1 PUSH4 0x70A08231 SWAP1 PUSH1 0x24 ADD PUSH1 0x20 PUSH1 0x40 MLOAD DUP1 DUP4 SUB DUP2 DUP7 GAS STATICCALL ISZERO DUP1 ISZERO PUSH2 0x1F9F JUMPI RETURNDATASIZE PUSH1 0x0 DUP1 RETURNDATACOPY RETURNDATASIZE PUSH1 0x0 REVERT JUMPDEST POP POP POP POP PUSH1 0x40 MLOAD RETURNDATASIZE PUSH1 0x1F NOT PUSH1 0x1F DUP3 ADD AND DUP3 ADD DUP1 PUSH1 0x40 MSTORE POP DUP2 ADD SWAP1 PUSH2 0x1FC3 SWAP2 SWAP1 PUSH2 0x263F JUMP JUMPDEST PUSH1 0x40 MLOAD PUSH4 0x1BC3CDFD PUSH1 0xE2 SHL DUP2 MSTORE PUSH1 0x1 PUSH1 0x1 PUSH1 0xA0 SHL SUB SWAP4 DUP5 AND PUSH1 0x4 DUP3 ADD MSTORE SWAP3 SWAP1 SWAP2 AND PUSH1 0x24 DUP4 ADD MSTORE PUSH1 0x44 DUP3 ADD MSTORE PUSH1 0x64 ADD PUSH2 0x8D5 JUMP JUMPDEST PUSH1 0x1 PUSH1 0x1 PUSH1 0xA0 SHL SUB DUP2 AND PUSH2 0x201D JUMPI PUSH1 0x40 MLOAD PUSH4 0x340D80DF PUSH1 0xE2 SHL DUP2 MSTORE PUSH1 0x4 ADD PUSH1 0x40 MLOAD DUP1 SWAP2 SUB SWAP1 REVERT JUMPDEST PUSH1 0x2 DUP1 SLOAD PUSH1 0x1 PUSH1 0x1 PUSH1 0xA0 SHL SUB NOT AND PUSH1 0x1 PUSH1 0x1 PUSH1 0xA0 SHL SUB SWAP3 SWAP1 SWAP3 AND SWAP2 SWAP1 SWAP2 OR SWAP1 SSTORE JUMP JUMPDEST PUSH1 0x0 PUSH2 0x71A DUP4 DUP4 PUSH2 0x23CE JUMP JUMPDEST PUSH1 0x0 DUP2 DUP2 MSTORE PUSH1 0x2 DUP4 ADD PUSH1 0x20 MSTORE PUSH1 0x40 DUP2 KECCAK256 SLOAD DUP1 ISZERO DUP1 ISZERO PUSH2 0x2071 JUMPI POP PUSH2 0x206F DUP5 DUP5 PUSH2 0x203F JUMP JUMPDEST ISZERO JUMPDEST ISZERO PUSH2 0x71A JUMPI PUSH1 0x40 MLOAD PUSH4 0x15AB343 PUSH1 0xE1 SHL DUP2 MSTORE PUSH1 0x4 DUP2 ADD DUP5 SWAP1 MSTORE PUSH1 0x24 ADD PUSH2 0x8D5 JUMP JUMPDEST PUSH1 0x2 SLOAD PUSH1 0x0 SWAP1 PUSH1 0x1 PUSH1 0x1 PUSH1 0xA0 SHL SUB AND PUSH2 0x20BE JUMPI PUSH1 0x40 MLOAD PUSH4 0x340D80DF PUSH1 0xE2 SHL DUP2 MSTORE PUSH1 0x4 ADD PUSH1 0x40 MLOAD DUP1 SWAP2 SUB SWAP1 REVERT JUMPDEST PUSH1 0x2 SLOAD PUSH1 0x40 DUP1 MLOAD PUSH4 0x313CE567 PUSH1 0xE0 SHL DUP2 MSTORE SWAP1 MLOAD PUSH1 0x0 SWAP3 PUSH1 0x1 PUSH1 0x1 PUSH1 0xA0 SHL SUB AND SWAP2 PUSH4 0x313CE567 SWAP2 PUSH1 0x4 DUP1 DUP4 ADD SWAP3 PUSH1 0x20 SWAP3 SWAP2 SWAP1 DUP3 SWAP1 SUB ADD DUP2 DUP7 GAS STATICCALL ISZERO DUP1 ISZERO PUSH2 0x2108 JUMPI RETURNDATASIZE PUSH1 0x0 DUP1 RETURNDATACOPY RETURNDATASIZE PUSH1 0x0 REVERT JUMPDEST POP POP POP POP PUSH1 0x40 MLOAD RETURNDATASIZE PUSH1 0x1F NOT PUSH1 0x1F DUP3 ADD AND DUP3 ADD DUP1 PUSH1 0x40 MSTORE POP DUP2 ADD SWAP1 PUSH2 0x212C SWAP2 SWAP1 PUSH2 0x2681 JUMP JUMPDEST PUSH2 0x2137 SWAP1 PUSH1 0x2 PUSH2 0x269E JUMP JUMPDEST PUSH1 0xFF AND SWAP1 POP PUSH1 0x0 PUSH1 0x2 PUSH1 0x0 SWAP1 SLOAD SWAP1 PUSH2 0x100 EXP SWAP1 DIV PUSH1 0x1 PUSH1 0x1 PUSH1 0xA0 SHL SUB AND PUSH1 0x1 PUSH1 0x1 PUSH1 0xA0 SHL SUB AND PUSH4 0x50D25BCD PUSH1 0x40 MLOAD DUP2 PUSH4 0xFFFFFFFF AND PUSH1 0xE0 SHL DUP2 MSTORE PUSH1 0x4 ADD PUSH1 0x20 PUSH1 0x40 MLOAD DUP1 DUP4 SUB DUP2 DUP7 GAS STATICCALL ISZERO DUP1 ISZERO PUSH2 0x2191 JUMPI RETURNDATASIZE PUSH1 0x0 DUP1 RETURNDATACOPY RETURNDATASIZE PUSH1 0x0 REVERT JUMPDEST POP POP POP POP PUSH1 0x40 MLOAD RETURNDATASIZE PUSH1 0x1F NOT PUSH1 0x1F DUP3 ADD AND DUP3 ADD DUP1 PUSH1 0x40 MSTORE POP DUP2 ADD SWAP1 PUSH2 0x21B5 SWAP2 SWAP1 PUSH2 0x263F JUMP JUMPDEST SWAP1 POP PUSH1 0x0 DUP2 SGT PUSH2 0x21D8 JUMPI PUSH1 0x40 MLOAD PUSH4 0x6DCC7B73 PUSH1 0xE0 SHL DUP2 MSTORE PUSH1 0x4 ADD PUSH1 0x40 MLOAD DUP1 SWAP2 SUB SWAP1 REVERT JUMPDEST PUSH2 0x21E3 DUP3 PUSH1 0xA PUSH2 0x279B JUMP JUMPDEST PUSH1 0x3 SLOAD PUSH2 0x21F0 DUP7 DUP5 PUSH2 0x27A7 JUMP JUMPDEST PUSH2 0x21FA SWAP2 SWAP1 PUSH2 0x27A7 JUMP JUMPDEST PUSH2 0x2204 SWAP2 SWAP1 PUSH2 0x27BE JUMP JUMPDEST SWAP5 SWAP4 POP POP POP POP JUMP JUMPDEST PUSH1 0x40 MLOAD PUSH1 0x1 PUSH1 0x1 PUSH1 0xA0 SHL SUB DUP5 DUP2 AND PUSH1 0x24 DUP4 ADD MSTORE DUP4 DUP2 AND PUSH1 0x44 DUP4 ADD MSTORE PUSH1 0x1 PUSH1 0x1 PUSH1 0xE0 SHL SUB NOT DUP4 AND PUSH1 0x64 DUP4 ADD MSTORE PUSH1 0x0 SWAP2 DUP3 SWAP2 DUP3 SWAP2 DUP3 SWAP2 DUP10 AND SWAP1 PUSH1 0x84 ADD PUSH1 0x40 DUP1 MLOAD PUSH1 0x1F NOT DUP2 DUP5 SUB ADD DUP2 MSTORE SWAP2 DUP2 MSTORE PUSH1 0x20 DUP3 ADD DUP1 MLOAD PUSH28 0xFFFFFFFFFFFFFFFFFFFFFFFFFFFFFFFFFFFFFFFFFFFFFFFFFFFFFFFF AND PUSH4 0xB7009613 PUSH1 0xE0 SHL OR SWAP1 MSTORE MLOAD PUSH2 0x2290 SWAP2 SWAP1 PUSH2 0x28B4 JUMP JUMPDEST PUSH1 0x0 PUSH1 0x40 MLOAD DUP1 DUP4 SUB DUP2 DUP6 GAS STATICCALL SWAP2 POP POP RETURNDATASIZE DUP1 PUSH1 0x0 DUP2 EQ PUSH2 0x22CB JUMPI PUSH1 0x40 MLOAD SWAP2 POP PUSH1 0x1F NOT PUSH1 0x3F RETURNDATASIZE ADD AND DUP3 ADD PUSH1 0x40 MSTORE RETURNDATASIZE DUP3 MSTORE RETURNDATASIZE PUSH1 0x0 PUSH1 0x20 DUP5 ADD RETURNDATACOPY PUSH2 0x22D0 JUMP JUMPDEST PUSH1 0x60 SWAP2 POP JUMPDEST POP SWAP2 POP SWAP2 POP DUP2 ISZERO PUSH2 0x2322 JUMPI PUSH1 0x40 DUP2 MLOAD LT PUSH2 0x2302 JUMPI DUP1 DUP1 PUSH1 0x20 ADD SWAP1 MLOAD DUP2 ADD SWAP1 PUSH2 0x22F8 SWAP2 SWAP1 PUSH2 0x28E3 JUMP JUMPDEST SWAP1 SWAP5 POP SWAP3 POP PUSH2 0x2322 JUMP JUMPDEST PUSH1 0x20 DUP2 MLOAD LT PUSH2 0x2322 JUMPI DUP1 DUP1 PUSH1 0x20 ADD SWAP1 MLOAD DUP2 ADD SWAP1 PUSH2 0x231F SWAP2 SWAP1 PUSH2 0x2624 JUMP JUMPDEST SWAP4 POP JUMPDEST POP POP SWAP5 POP SWAP5 SWAP3 POP POP POP JUMP JUMPDEST PUSH1 0x0 PUSH2 0x6A6 DUP3 PUSH2 0x23E6 JUMP JUMPDEST PUSH1 0x0 PUSH2 0x2204 DUP5 PUSH1 0x1 PUSH1 0x1 PUSH1 0xA0 SHL SUB DUP6 AND DUP5 PUSH2 0x23F0 JUMP JUMPDEST PUSH1 0xC SLOAD PUSH1 0x1 PUSH1 0xA8 SHL SWAP1 DIV PUSH1 0xFF AND PUSH2 0x75C JUMPI PUSH1 0x40 MLOAD PUSH4 0x8DFC202B PUSH1 0xE0 SHL DUP2 MSTORE PUSH1 0x4 ADD PUSH1 0x40 MLOAD DUP1 SWAP2 SUB SWAP1 REVERT JUMPDEST PUSH1 0xC SLOAD PUSH1 0x1 PUSH1 0xA8 SHL SWAP1 DIV PUSH1 0xFF AND ISZERO PUSH2 0x75C JUMPI PUSH1 0x40 MLOAD PUSH4 0xD93C0665 PUSH1 0xE0 SHL DUP2 MSTORE PUSH1 0x4 ADD PUSH1 0x40 MLOAD DUP1 SWAP2 SUB SWAP1 REVERT JUMPDEST PUSH1 0x0 DUP1 DUP1 PUSH2 0x23B1 DUP6 DUP6 PUSH2 0x240D JUMP JUMPDEST PUSH1 0x0 DUP2 DUP2 MSTORE PUSH1 0x2 SWAP7 SWAP1 SWAP7 ADD PUSH1 0x20 MSTORE PUSH1 0x40 SWAP1 SWAP6 KECCAK256 SLOAD SWAP5 SWAP6 SWAP4 POP POP POP POP JUMP JUMPDEST PUSH1 0x0 DUP2 DUP2 MSTORE PUSH1 0x1 DUP4 ADD PUSH1 0x20 MSTORE PUSH1 0x40 DUP2 KECCAK256 SLOAD ISZERO ISZERO PUSH2 0x71A JUMP JUMPDEST PUSH1 0x0 PUSH2 0x6A6 DUP3 SLOAD SWAP1 JUMP JUMPDEST PUSH1 0x0 DUP3 DUP2 MSTORE PUSH1 0x2 DUP5 ADD PUSH1 0x20 MSTORE PUSH1 0x40 DUP2 KECCAK256 DUP3 SWAP1 SSTORE PUSH2 0x2204 DUP5 DUP5 PUSH2 0x2419 JUMP JUMPDEST PUSH1 0x0 PUSH2 0x71A DUP4 DUP4 PUSH2 0x2425 JUMP JUMPDEST PUSH1 0x0 PUSH2 0x71A DUP4 DUP4 PUSH2 0x244F JUMP JUMPDEST PUSH1 0x0 DUP3 PUSH1 0x0 ADD DUP3 DUP2 SLOAD DUP2 LT PUSH2 0x243C JUMPI PUSH2 0x243C PUSH2 0x2918 JUMP JUMPDEST SWAP1 PUSH1 0x0 MSTORE PUSH1 0x20 PUSH1 0x0 KECCAK256 ADD SLOAD SWAP1 POP SWAP3 SWAP2 POP POP JUMP JUMPDEST PUSH1 0x0 DUP2 DUP2 MSTORE PUSH1 0x1 DUP4 ADD PUSH1 0x20 MSTORE PUSH1 0x40 DUP2 KECCAK256 SLOAD PUSH2 0x2496 JUMPI POP DUP2 SLOAD PUSH1 0x1 DUP2 DUP2 ADD DUP5 SSTORE PUSH1 0x0 DUP5 DUP2 MSTORE PUSH1 0x20 DUP1 DUP3 KECCAK256 SWAP1 SWAP4 ADD DUP5 SWAP1 SSTORE DUP5 SLOAD DUP5 DUP3 MSTORE DUP3 DUP7 ADD SWAP1 SWAP4 MSTORE PUSH1 0x40 SWAP1 KECCAK256 SWAP2 SWAP1 SWAP2 SSTORE PUSH2 0x6A6 JUMP JUMPDEST POP PUSH1 0x0 PUSH2 0x6A6 JUMP JUMPDEST PUSH1 0x1 PUSH1 0x1 PUSH1 0xA0 SHL SUB DUP2 AND DUP2 EQ PUSH2 0x6E8 JUMPI PUSH1 0x0 DUP1 REVERT JUMPDEST PUSH1 0x0 PUSH1 0x20 DUP3 DUP5 SUB SLT ISZERO PUSH2 0x24C5 JUMPI PUSH1 0x0 DUP1 REVERT JUMPDEST DUP2 CALLDATALOAD PUSH2 0x71A DUP2 PUSH2 0x249E JUMP JUMPDEST PUSH1 0x0 DUP1 PUSH1 0x0 DUP1 PUSH1 0x80 DUP6 DUP8 SUB SLT ISZERO PUSH2 0x24E6 JUMPI PUSH1 0x0 DUP1 REVERT JUMPDEST DUP5 CALLDATALOAD PUSH2 0x24F1 DUP2 PUSH2 0x249E JUMP JUMPDEST SWAP4 POP PUSH1 0x20 DUP6 ADD CALLDATALOAD PUSH2 0x2501 DUP2 PUSH2 0x249E JUMP JUMPDEST SWAP3 POP PUSH1 0x40 DUP6 ADD CALLDATALOAD SWAP2 POP PUSH1 0x60 DUP6 ADD CALLDATALOAD PUSH2 0x2518 DUP2 PUSH2 0x249E JUMP JUMPDEST SWAP4 SWAP7 SWAP3 SWAP6 POP SWAP1 SWAP4 POP POP JUMP JUMPDEST PUSH1 0x0 PUSH1 0x20 DUP3 DUP5 SUB SLT ISZERO PUSH2 0x2535 JUMPI PUSH1 0x0 DUP1 REVERT JUMPDEST POP CALLDATALOAD SWAP2 SWAP1 POP JUMP JUMPDEST PUSH1 0x0 DUP1 PUSH1 0x40 DUP4 DUP6 SUB SLT ISZERO PUSH2 0x254F JUMPI PUSH1 0x0 DUP1 REVERT JUMPDEST DUP3 CALLDATALOAD PUSH2 0x255A DUP2 PUSH2 0x249E JUMP JUMPDEST SWAP5 PUSH1 0x20 SWAP4 SWAP1 SWAP4 ADD CALLDATALOAD SWAP4 POP POP POP JUMP JUMPDEST PUSH1 0xFF DUP2 AND DUP2 EQ PUSH2 0x6E8 JUMPI PUSH1 0x0 DUP1 REVERT JUMPDEST PUSH1 0x0 PUSH1 0x20 DUP3 DUP5 SUB SLT ISZERO PUSH2 0x2589 JUMPI PUSH1 0x0 DUP1 REVERT JUMPDEST DUP2 CALLDATALOAD PUSH2 0x71A DUP2 PUSH2 0x2568 JUMP JUMPDEST PUSH1 0x0 DUP1 PUSH1 0x40 DUP4 DUP6 SUB SLT ISZERO PUSH2 0x25A7 JUMPI PUSH1 0x0 DUP1 REVERT JUMPDEST DUP3 CALLDATALOAD PUSH2 0x25B2 DUP2 PUSH2 0x249E JUMP JUMPDEST SWAP2 POP PUSH1 0x20 DUP4 ADD CALLDATALOAD PUSH2 0x25C2 DUP2 PUSH2 0x249E JUMP JUMPDEST DUP1 SWAP2 POP POP SWAP3 POP SWAP3 SWAP1 POP JUMP JUMPDEST PUSH1 0x0 DUP1 PUSH1 0x0 PUSH1 0x60 DUP5 DUP7 SUB SLT ISZERO PUSH2 0x25E2 JUMPI PUSH1 0x0 DUP1 REVERT JUMPDEST DUP4 CALLDATALOAD PUSH2 0x25ED DUP2 PUSH2 0x249E JUMP JUMPDEST SWAP3 POP PUSH1 0x20 DUP5 ADD CALLDATALOAD SWAP2 POP PUSH1 0x40 DUP5 ADD CALLDATALOAD PUSH2 0x2604 DUP2 PUSH2 0x249E JUMP JUMPDEST DUP1 SWAP2 POP POP SWAP3 POP SWAP3 POP SWAP3 JUMP JUMPDEST DUP1 MLOAD DUP1 ISZERO ISZERO DUP2 EQ PUSH2 0x261F JUMPI PUSH1 0x0 DUP1 REVERT JUMPDEST SWAP2 SWAP1 POP JUMP JUMPDEST PUSH1 0x0 PUSH1 0x20 DUP3 DUP5 SUB SLT ISZERO PUSH2 0x2636 JUMPI PUSH1 0x0 DUP1 REVERT JUMPDEST PUSH2 0x71A DUP3 PUSH2 0x260F JUMP JUMPDEST PUSH1 0x0 PUSH1 0x20 DUP3 DUP5 SUB SLT ISZERO PUSH2 0x2651 JUMPI PUSH1 0x0 DUP1 REVERT JUMPDEST POP MLOAD SWAP2 SWAP1 POP JUMP JUMPDEST PUSH4 0x4E487B71 PUSH1 0xE0 SHL PUSH1 0x0 MSTORE PUSH1 0x11 PUSH1 0x4 MSTORE PUSH1 0x24 PUSH1 0x0 REVERT JUMPDEST DUP2 DUP2 SUB DUP2 DUP2 GT ISZERO PUSH2 0x6A6 JUMPI PUSH2 0x6A6 PUSH2 0x2658 JUMP JUMPDEST PUSH1 0x0 PUSH1 0x20 DUP3 DUP5 SUB SLT ISZERO PUSH2 0x2693 JUMPI PUSH1 0x0 DUP1 REVERT JUMPDEST DUP2 MLOAD PUSH2 0x71A DUP2 PUSH2 0x2568 JUMP JUMPDEST PUSH1 0xFF DUP2 DUP2 AND DUP4 DUP3 AND ADD SWAP1 DUP2 GT ISZERO PUSH2 0x6A6 JUMPI PUSH2 0x6A6 PUSH2 0x2658 JUMP JUMPDEST PUSH1 0x1 DUP2 DUP2 JUMPDEST DUP1 DUP6 GT ISZERO PUSH2 0x26F2 JUMPI DUP2 PUSH1 0x0 NOT DIV DUP3 GT ISZERO PUSH2 0x26D8 JUMPI PUSH2 0x26D8 PUSH2 0x2658 JUMP JUMPDEST DUP1 DUP6 AND ISZERO PUSH2 0x26E5 JUMPI SWAP2 DUP2 MUL SWAP2 JUMPDEST SWAP4 DUP5 SHR SWAP4 SWAP1 DUP1 MUL SWAP1 PUSH2 0x26BC JUMP JUMPDEST POP SWAP3 POP SWAP3 SWAP1 POP JUMP JUMPDEST PUSH1 0x0 DUP3 PUSH2 0x2709 JUMPI POP PUSH1 0x1 PUSH2 0x6A6 JUMP JUMPDEST DUP2 PUSH2 0x2716 JUMPI POP PUSH1 0x0 PUSH2 0x6A6 JUMP JUMPDEST DUP2 PUSH1 0x1 DUP2 EQ PUSH2 0x272C JUMPI PUSH1 0x2 DUP2 EQ PUSH2 0x2736 JUMPI PUSH2 0x2752 JUMP JUMPDEST PUSH1 0x1 SWAP2 POP POP PUSH2 0x6A6 JUMP JUMPDEST PUSH1 0xFF DUP5 GT ISZERO PUSH2 0x2747 JUMPI PUSH2 0x2747 PUSH2 0x2658 JUMP JUMPDEST POP POP PUSH1 0x1 DUP3 SHL PUSH2 0x6A6 JUMP JUMPDEST POP PUSH1 0x20 DUP4 LT PUSH2 0x133 DUP4 LT AND PUSH1 0x4E DUP5 LT PUSH1 0xB DUP5 LT AND OR ISZERO PUSH2 0x2775 JUMPI POP DUP2 DUP2 EXP PUSH2 0x6A6 JUMP JUMPDEST PUSH2 0x277F DUP4 DUP4 PUSH2 0x26B7 JUMP JUMPDEST DUP1 PUSH1 0x0 NOT DIV DUP3 GT ISZERO PUSH2 0x2793 JUMPI PUSH2 0x2793 PUSH2 0x2658 JUMP JUMPDEST MUL SWAP4 SWAP3 POP POP POP JUMP JUMPDEST PUSH1 0x0 PUSH2 0x71A DUP4 DUP4 PUSH2 0x26FA JUMP JUMPDEST DUP1 DUP3 MUL DUP2 ISZERO DUP3 DUP3 DIV DUP5 EQ OR PUSH2 0x6A6 JUMPI PUSH2 0x6A6 PUSH2 0x2658 JUMP JUMPDEST PUSH1 0x0 DUP3 PUSH2 0x27DB JUMPI PUSH4 0x4E487B71 PUSH1 0xE0 SHL PUSH1 0x0 MSTORE PUSH1 0x12 PUSH1 0x4 MSTORE PUSH1 0x24 PUSH1 0x0 REVERT JUMPDEST POP DIV SWAP1 JUMP JUMPDEST DUP1 DUP3 ADD DUP1 DUP3 GT ISZERO PUSH2 0x6A6 JUMPI PUSH2 0x6A6 PUSH2 0x2658 JUMP JUMPDEST PUSH1 0x0 PUSH2 0x71A PUSH1 0xFF DUP5 AND DUP4 PUSH2 0x26FA JUMP JUMPDEST PUSH1 0x0 DUP1 DUP6 DUP6 GT ISZERO PUSH2 0x2812 JUMPI PUSH1 0x0 DUP1 REVERT JUMPDEST DUP4 DUP7 GT ISZERO PUSH2 0x281F JUMPI PUSH1 0x0 DUP1 REVERT JUMPDEST POP POP DUP3 ADD SWAP4 SWAP2 SWAP1 SWAP3 SUB SWAP2 POP JUMP JUMPDEST PUSH1 0x1 PUSH1 0x1 PUSH1 0xE0 SHL SUB NOT DUP2 CALLDATALOAD DUP2 DUP2 AND SWAP2 PUSH1 0x4 DUP6 LT ISZERO PUSH2 0x2854 JUMPI DUP1 DUP2 DUP7 PUSH1 0x4 SUB PUSH1 0x3 SHL SHL DUP4 AND AND SWAP3 POP JUMPDEST POP POP SWAP3 SWAP2 POP POP JUMP JUMPDEST PUSH1 0x1 PUSH1 0x1 PUSH1 0xA0 SHL SUB DUP5 AND DUP2 MSTORE PUSH1 0x40 PUSH1 0x20 DUP3 ADD MSTORE DUP2 PUSH1 0x40 DUP3 ADD MSTORE DUP2 DUP4 PUSH1 0x60 DUP4 ADD CALLDATACOPY PUSH1 0x0 DUP2 DUP4 ADD PUSH1 0x60 SWAP1 DUP2 ADD SWAP2 SWAP1 SWAP2 MSTORE PUSH1 0x1F SWAP1 SWAP3 ADD PUSH1 0x1F NOT AND ADD ADD SWAP3 SWAP2 POP POP JUMP JUMPDEST PUSH1 0x0 PUSH1 0x1 DUP3 ADD PUSH2 0x28AD JUMPI PUSH2 0x28AD PUSH2 0x2658 JUMP JUMPDEST POP PUSH1 0x1 ADD SWAP1 JUMP JUMPDEST PUSH1 0x0 DUP3 MLOAD PUSH1 0x0 JUMPDEST DUP2 DUP2 LT ISZERO PUSH2 0x28D5 JUMPI PUSH1 0x20 DUP2 DUP7 ADD DUP2 ADD MLOAD DUP6 DUP4 ADD MSTORE ADD PUSH2 0x28BB JUMP JUMPDEST POP PUSH1 0x0 SWAP3 ADD SWAP2 DUP3 MSTORE POP SWAP2 SWAP1 POP JUMP JUMPDEST PUSH1 0x0 DUP1 PUSH1 0x40 DUP4 DUP6 SUB SLT ISZERO PUSH2 0x28F6 JUMPI PUSH1 0x0 DUP1 REVERT JUMPDEST PUSH2 0x28FF DUP4 PUSH2 0x260F JUMP JUMPDEST SWAP2 POP PUSH1 0x20 DUP4 ADD MLOAD PUSH4 0xFFFFFFFF DUP2 AND DUP2 EQ PUSH2 0x25C2 JUMPI PUSH1 0x0 DUP1 REVERT JUMPDEST PUSH4 0x4E487B71 PUSH1 0xE0 SHL PUSH1 0x0 MSTORE PUSH1 0x32 PUSH1 0x4 MSTORE PUSH1 0x24 PUSH1 0x0 REVERT INVALID LOG1 PUSH5 0x736F6C6343 STOP ADDMOD EQ STOP EXP "},"gasEstimates":{"creation":{"codeDepositCost":"2111000","executionCost":"infinite","totalCost":"infinite"},"external":{"at(uint256)":"infinite","authority()":"2420","balanceOf(address)":"infinite","bonus()":"2513","buy(address,address,uint256,address)":"infinite","buy(address,uint256,address)":"infinite","calculateAmount(address,uint256)":"infinite","cashPercent()":"2368","chainLinkInterface()":"2433","clean(address,address)":"infinite","deposit()":"infinite","deposit(address)":"infinite","hasRate(address)":"infinite","isConsumingScheduledOp()":"2430","length()":"infinite","nativeRate()":"2349","pause()":"infinite","paused()":"2389","rate(address)":"infinite","setAuthority(address)":"30526","setBonus(uint8)":"infinite","setCashPercent(uint8)":"infinite","setChainLinkInterface(address)":"infinite","setNativeRate(uint256)":"infinite","setRate(address,uint256)":"infinite","setToken(address)":"infinite","setTokenPercent(uint8)":"infinite","setVesting(address)":"infinite","token()":"2419","tokenPercent()":"2347","unpause()":"infinite","vesting()":"2421","withdraw(address)":"infinite","withdraw(address,address)":"infinite"}},"methodIdentifiers":{"at(uint256)":"e0886f90","authority()":"bf7e214f","balanceOf(address)":"70a08231","bonus()":"75b4d78c","buy(address,address,uint256,address)":"10c729e8","buy(address,uint256,address)":"db61c76e","calculateAmount(address,uint256)":"29550f97","cashPercent()":"df50af88","chainLinkInterface()":"1cd7f8f8","clean(address,address)":"afe14c19","deposit()":"d0e30db0","deposit(address)":"f340fa01","hasRate(address)":"e0781b7a","isConsumingScheduledOp()":"8fb36037","length()":"1f7b6d32","nativeRate()":"79856671","pause()":"8456cb59","paused()":"5c975abb","rate(address)":"0ba9d8ca","setAuthority(address)":"7a9e5e4b","setBonus(uint8)":"e6ed4746","setCashPercent(uint8)":"2f720a15","setChainLinkInterface(address)":"fcfe30f5","setNativeRate(uint256)":"286bcc80","setRate(address,uint256)":"2bdb7097","setToken(address)":"144fa6d7","setTokenPercent(uint8)":"6e445857","setVesting(address)":"6f6ff3bc","token()":"fc0c546a","tokenPercent()":"7622b858","unpause()":"3f4ba83a","vesting()":"44c63eec","withdraw(address)":"51cff8d9","withdraw(address,address)":"f940e385"}},"storageLayout":{"storage":[{"astId":479,"contract":"contracts/management/CXBTokenPurchase.sol:CXBTokenPurchase","label":"tokenContract","offset":0,"slot":"0","type":"t_address"},{"astId":481,"contract":"contracts/management/CXBTokenPurchase.sol:CXBTokenPurchase","label":"vestingContract","offset":0,"slot":"1","type":"t_address"},{"astId":484,"contract":"contracts/management/CXBTokenPurchase.sol:CXBTokenPurchase","label":"chainLink","offset":0,"slot":"2","type":"t_contract(AggregatorV2V3Interface)1756"},{"astId":486,"contract":"contracts/management/CXBTokenPurchase.sol:CXBTokenPurchase","label":"bonusPercent","offset":0,"slot":"3","type":"t_uint256"},{"astId":488,"contract":"contracts/management/CXBTokenPurchase.sol:CXBTokenPurchase","label":"refCashPercent","offset":0,"slot":"4","type":"t_uint256"},{"astId":490,"contract":"contracts/management/CXBTokenPurchase.sol:CXBTokenPurchase","label":"refTokenPercent","offset":0,"slot":"5","type":"t_uint256"},{"astId":492,"contract":"contracts/management/CXBTokenPurchase.sol:CXBTokenPurchase","label":"nativeToUsd","offset":0,"slot":"6","type":"t_uint256"},{"astId":495,"contract":"contracts/management/CXBTokenPurchase.sol:CXBTokenPurchase","label":"currencies","offset":0,"slot":"7","type":"t_struct(AddressToUintMap)6303_storage"},{"astId":501,"contract":"contracts/management/CXBTokenPurchase.sol:CXBTokenPurchase","label":"referralsCash","offset":0,"slot":"10","type":"t_mapping(t_address,t_mapping(t_address,t_uint256))"},{"astId":505,"contract":"contracts/management/CXBTokenPurchase.sol:CXBTokenPurchase","label":"referralsTokens","offset":0,"slot":"11","type":"t_mapping(t_address,t_uint256)"},{"astId":1821,"contract":"contracts/management/CXBTokenPurchase.sol:CXBTokenPurchase","label":"_authority","offset":0,"slot":"12","type":"t_address"},{"astId":1823,"contract":"contracts/management/CXBTokenPurchase.sol:CXBTokenPurchase","label":"_consumingSchedule","offset":20,"slot":"12","type":"t_bool"},{"astId":2706,"contract":"contracts/management/CXBTokenPurchase.sol:CXBTokenPurchase","label":"_paused","offset":21,"slot":"12","type":"t_bool"}],"types":{"t_address":{"encoding":"inplace","label":"address","numberOfBytes":"20"},"t_array(t_bytes32)dyn_storage":{"base":"t_bytes32","encoding":"dynamic_array","label":"bytes32[]","numberOfBytes":"32"},"t_bool":{"encoding":"inplace","label":"bool","numberOfBytes":"1"},"t_bytes32":{"encoding":"inplace","label":"bytes32","numberOfBytes":"32"},"t_contract(AggregatorV2V3Interface)1756":{"encoding":"inplace","label":"contract AggregatorV2V3Interface","numberOfBytes":"20"},"t_mapping(t_address,t_mapping(t_address,t_uint256))":{"encoding":"mapping","key":"t_address","label":"mapping(address => mapping(address => uint256))","numberOfBytes":"32","value":"t_mapping(t_address,t_uint256)"},"t_mapping(t_address,t_uint256)":{"encoding":"mapping","key":"t_address","label":"mapping(address => uint256)","numberOfBytes":"32","value":"t_uint256"},"t_mapping(t_bytes32,t_bytes32)":{"encoding":"mapping","key":"t_bytes32","label":"mapping(bytes32 => bytes32)","numberOfBytes":"32","value":"t_bytes32"},"t_mapping(t_bytes32,t_uint256)":{"encoding":"mapping","key":"t_bytes32","label":"mapping(bytes32 => uint256)","numberOfBytes":"32","value":"t_uint256"},"t_struct(AddressToUintMap)6303_storage":{"encoding":"inplace","label":"struct EnumerableMap.AddressToUintMap","members":[{"astId":6302,"contract":"contracts/management/CXBTokenPurchase.sol:CXBTokenPurchase","label":"_inner","offset":0,"slot":"0","type":"t_struct(Bytes32ToBytes32Map)5645_storage"}],"numberOfBytes":"96"},"t_struct(Bytes32Set)6943_storage":{"encoding":"inplace","label":"struct EnumerableSet.Bytes32Set","members":[{"astId":6942,"contract":"contracts/management/CXBTokenPurchase.sol:CXBTokenPurchase","label":"_inner","offset":0,"slot":"0","type":"t_struct(Set)6749_storage"}],"numberOfBytes":"64"},"t_struct(Bytes32ToBytes32Map)5645_storage":{"encoding":"inplace","label":"struct EnumerableMap.Bytes32ToBytes32Map","members":[{"astId":5640,"contract":"contracts/management/CXBTokenPurchase.sol:CXBTokenPurchase","label":"_keys","offset":0,"slot":"0","type":"t_struct(Bytes32Set)6943_storage"},{"astId":5644,"contract":"contracts/management/CXBTokenPurchase.sol:CXBTokenPurchase","label":"_values","offset":0,"slot":"2","type":"t_mapping(t_bytes32,t_bytes32)"}],"numberOfBytes":"96"},"t_struct(Set)6749_storage":{"encoding":"inplace","label":"struct EnumerableSet.Set","members":[{"astId":6744,"contract":"contracts/management/CXBTokenPurchase.sol:CXBTokenPurchase","label":"_values","offset":0,"slot":"0","type":"t_array(t_bytes32)dyn_storage"},{"astId":6748,"contract":"contracts/management/CXBTokenPurchase.sol:CXBTokenPurchase","label":"_positions","offset":0,"slot":"1","type":"t_mapping(t_bytes32,t_uint256)"}],"numberOfBytes":"64"},"t_uint256":{"encoding":"inplace","label":"uint256","numberOfBytes":"32"}}},"userdoc":{"kind":"user","methods":{"setRate(address,uint256)":{"notice":"Define or change new allowed currency with rate. Rate cannot be more than 100  tokens for the 1 currency unit. Rate is nominated in token decimals"}},"version":1}}}}