{"contracts/mocks/MockChainlink.sol":{"MockChainlink":{"abi":[{"inputs":[{"internalType":"int256","name":"_value","type":"int256"}],"stateMutability":"nonpayable","type":"constructor"},{"inputs":[],"name":"decimals","outputs":[{"internalType":"uint8","name":"","type":"uint8"}],"stateMutability":"pure","type":"function"},{"inputs":[],"name":"latestAnswer","outputs":[{"internalType":"int256","name":"","type":"int256"}],"stateMutability":"view","type":"function"}],"devdoc":{"kind":"dev","methods":{},"version":1},"evm":{"bytecode":{"linkReferences":{},"object":"608060405234801561001057600080fd5b506040516100c63803806100c683398101604081905261002f91610037565b600055610050565b60006020828403121561004957600080fd5b5051919050565b60688061005e6000396000f3fe6080604052348015600f57600080fd5b506004361060325760003560e01c8063313ce56714603757806350d25bcd14604b575b600080fd5b604051600681526020015b60405180910390f35b600054604051908152602001604256fea164736f6c6343000814000a","opcodes":"PUSH1 0x80 PUSH1 0x40 MSTORE CALLVALUE DUP1 ISZERO PUSH2 0x10 JUMPI PUSH1 0x0 DUP1 REVERT JUMPDEST POP PUSH1 0x40 MLOAD PUSH2 0xC6 CODESIZE SUB DUP1 PUSH2 0xC6 DUP4 CODECOPY DUP2 ADD PUSH1 0x40 DUP2 SWAP1 MSTORE PUSH2 0x2F SWAP2 PUSH2 0x37 JUMP JUMPDEST PUSH1 0x0 SSTORE PUSH2 0x50 JUMP JUMPDEST PUSH1 0x0 PUSH1 0x20 DUP3 DUP5 SUB SLT ISZERO PUSH2 0x49 JUMPI PUSH1 0x0 DUP1 REVERT JUMPDEST POP MLOAD SWAP2 SWAP1 POP JUMP JUMPDEST PUSH1 0x68 DUP1 PUSH2 0x5E PUSH1 0x0 CODECOPY PUSH1 0x0 RETURN INVALID PUSH1 0x80 PUSH1 0x40 MSTORE CALLVALUE DUP1 ISZERO PUSH1 0xF JUMPI PUSH1 0x0 DUP1 REVERT JUMPDEST POP PUSH1 0x4 CALLDATASIZE LT PUSH1 0x32 JUMPI PUSH1 0x0 CALLDATALOAD PUSH1 0xE0 SHR DUP1 PUSH4 0x313CE567 EQ PUSH1 0x37 JUMPI DUP1 PUSH4 0x50D25BCD EQ PUSH1 0x4B JUMPI JUMPDEST PUSH1 0x0 DUP1 REVERT JUMPDEST PUSH1 0x40 MLOAD PUSH1 0x6 DUP2 MSTORE PUSH1 0x20 ADD JUMPDEST PUSH1 0x40 MLOAD DUP1 SWAP2 SUB SWAP1 RETURN JUMPDEST PUSH1 0x0 SLOAD PUSH1 0x40 MLOAD SWAP1 DUP2 MSTORE PUSH1 0x20 ADD PUSH1 0x42 JUMP INVALID LOG1 PUSH5 0x736F6C6343 STOP ADDMOD EQ STOP EXP "},"gasEstimates":{"creation":{"codeDepositCost":"20800","executionCost":"infinite","totalCost":"infinite"},"external":{"decimals()":"144","latestAnswer()":"2280"}},"methodIdentifiers":{"decimals()":"313ce567","latestAnswer()":"50d25bcd"}},"storageLayout":{"storage":[{"astId":6367,"contract":"contracts/mocks/MockChainlink.sol:MockChainlink","label":"value","offset":0,"slot":"0","type":"t_int256"}],"types":{"t_int256":{"encoding":"inplace","label":"int256","numberOfBytes":"32"}}},"userdoc":{"kind":"user","methods":{},"version":1}}}}