{"contracts/management/CXBTokenBounty.sol":{"CXBTokenBounty":{"abi":[{"inputs":[{"internalType":"address","name":"_token","type":"address"},{"internalType":"address","name":"_vesting","type":"address"},{"internalType":"address","name":"initialAuthority","type":"address"}],"stateMutability":"nonpayable","type":"constructor"},{"inputs":[{"internalType":"address","name":"authority","type":"address"}],"name":"AccessManagedInvalidAuthority","type":"error"},{"inputs":[{"internalType":"address","name":"caller","type":"address"},{"internalType":"uint32","name":"delay","type":"uint32"}],"name":"AccessManagedRequiredDelay","type":"error"},{"inputs":[{"internalType":"address","name":"caller","type":"address"}],"name":"AccessManagedUnauthorized","type":"error"},{"inputs":[{"internalType":"address","name":"agent","type":"address"},{"internalType":"address","name":"target","type":"address"}],"name":"AgentNotDefined","type":"error"},{"inputs":[{"internalType":"address","name":"agent","type":"address"},{"internalType":"address","name":"target","type":"address"},{"internalType":"uint256","name":"amount","type":"uint256"}],"name":"CannotTransferFunds","type":"error"},{"inputs":[],"name":"EmptyToken","type":"error"},{"inputs":[],"name":"EnforcedPause","type":"error"},{"inputs":[],"name":"ExpectedPause","type":"error"},{"inputs":[{"internalType":"uint256","name":"amount","type":"uint256"}],"name":"NoFundsAvailable","type":"error"},{"inputs":[{"internalType":"address","name":"agent","type":"address"},{"internalType":"uint256","name":"amount","type":"uint256"}],"name":"NoFundsPermitted","type":"error"},{"inputs":[{"internalType":"address","name":"agent","type":"address"},{"internalType":"uint256","name":"amount","type":"uint256"}],"name":"NoPermittedFundsAvailable","type":"error"},{"anonymous":false,"inputs":[{"indexed":false,"internalType":"address","name":"authority","type":"address"}],"name":"AuthorityUpdated","type":"event"},{"anonymous":false,"inputs":[{"indexed":false,"internalType":"address","name":"account","type":"address"}],"name":"Paused","type":"event"},{"anonymous":false,"inputs":[{"indexed":false,"internalType":"address","name":"account","type":"address"}],"name":"Unpaused","type":"event"},{"inputs":[],"name":"authority","outputs":[{"internalType":"address","name":"","type":"address"}],"stateMutability":"view","type":"function"},{"inputs":[{"internalType":"address","name":"target","type":"address"}],"name":"balanceOf","outputs":[{"internalType":"uint256","name":"","type":"uint256"}],"stateMutability":"view","type":"function"},{"inputs":[{"internalType":"address","name":"_to","type":"address"}],"name":"clean","outputs":[],"stateMutability":"nonpayable","type":"function"},{"inputs":[{"internalType":"address","name":"target","type":"address"}],"name":"empty","outputs":[],"stateMutability":"nonpayable","type":"function"},{"inputs":[{"internalType":"address","name":"target","type":"address"},{"internalType":"uint256","name":"amount","type":"uint256"}],"name":"give","outputs":[],"stateMutability":"nonpayable","type":"function"},{"inputs":[{"internalType":"address","name":"target","type":"address"}],"name":"isAgent","outputs":[{"internalType":"bool","name":"","type":"bool"}],"stateMutability":"view","type":"function"},{"inputs":[],"name":"isConsumingScheduledOp","outputs":[{"internalType":"bytes4","name":"","type":"bytes4"}],"stateMutability":"view","type":"function"},{"inputs":[],"name":"pause","outputs":[],"stateMutability":"nonpayable","type":"function"},{"inputs":[],"name":"paused","outputs":[{"internalType":"bool","name":"","type":"bool"}],"stateMutability":"view","type":"function"},{"inputs":[{"internalType":"address","name":"agent","type":"address"},{"internalType":"uint256","name":"addAmount","type":"uint256"}],"name":"refuel","outputs":[],"stateMutability":"nonpayable","type":"function"},{"inputs":[{"internalType":"address","name":"newAuthority","type":"address"}],"name":"setAuthority","outputs":[],"stateMutability":"nonpayable","type":"function"},{"inputs":[{"internalType":"address","name":"_vesting","type":"address"}],"name":"setVesting","outputs":[],"stateMutability":"nonpayable","type":"function"},{"inputs":[],"name":"unpause","outputs":[],"stateMutability":"nonpayable","type":"function"},{"inputs":[],"name":"vesting","outputs":[{"internalType":"address","name":"","type":"address"}],"stateMutability":"view","type":"function"}],"devdoc":{"errors":{"EmptyToken()":[{"details":"Indicates an error when empty token is provided."}],"EnforcedPause()":[{"details":"The operation failed because the contract is paused."}],"ExpectedPause()":[{"details":"The operation failed because the contract is not paused."}]},"events":{"AuthorityUpdated(address)":{"details":"Authority that manages this contract was updated."},"Paused(address)":{"details":"Emitted when the pause is triggered by `account`."},"Unpaused(address)":{"details":"Emitted when the pause is lifted by `account`."}},"kind":"dev","methods":{"authority()":{"details":"Returns the current authority."},"isConsumingScheduledOp()":{"details":"Returns true only in the context of a delayed restricted call, at the moment that the scheduled operation is being consumed. Prevents denial of service for delayed restricted calls in the case that the contract performs attacker controlled calls."},"paused()":{"details":"Returns true if the contract is paused, and false otherwise."},"setAuthority(address)":{"details":"Transfers control to a new authority. The caller must be the current authority."}},"version":1},"evm":{"bytecode":{"linkReferences":{},"object":"608060405234801561001057600080fd5b50604051620010aa380380620010aa83398101604081905261003191610117565b8083836001600160a01b03821661005b5760405163066f53b160e01b815260040160405180910390fd5b600680546001600160a01b039384166001600160a01b03199182161790915560078054929093169116179055610090816100a7565b50506009805460ff60a81b191690555061015a9050565b600980546001600160a01b0319166001600160a01b0383169081179091556040519081527f2f658b440c35314f52658ea8a740e05b284cdc84dc9ae01e891f21b8933e7cad9060200160405180910390a150565b80516001600160a01b038116811461011257600080fd5b919050565b60008060006060848603121561012c57600080fd5b610135846100fb565b9250610143602085016100fb565b9150610151604085016100fb565b90509250925092565b610f40806200016a6000396000f3fe608060405234801561001057600080fd5b50600436106100ea5760003560e01c80636f6ff3bc1161008c5780638456cb59116100665780638456cb59146101d85780638fb36037146101e0578063bf7e214f14610201578063f00388f71461021257600080fd5b80636f6ff3bc1461019157806370a08231146101a45780637a9e5e4b146101c557600080fd5b806344c63eec116100c857806344c63eec14610134578063486581ea146101595780635c975abb1461016c5780635eb6ba801461017e57600080fd5b8063169b2623146100ef5780631ffbb064146101045780633f4ba83a1461012c575b600080fd5b6101026100fd366004610d66565b610225565b005b610117610112366004610d66565b61023e565b60405190151581526020015b60405180910390f35b610102610254565b6007546001600160a01b03165b6040516001600160a01b039091168152602001610123565b610102610167366004610d66565b610267565b600954600160a81b900460ff16610117565b61010261018c366004610d81565b610279565b61010261019f366004610d66565b610290565b6101b76101b2366004610d66565b6102c4565b604051908152602001610123565b6101026101d3366004610d66565b6102ed565b610102610368565b6101e8610379565b6040516001600160e01b03199091168152602001610123565b6009546001600160a01b0316610141565b610102610220366004610d81565b61039f565b610232335b6000366103b1565b61023b816104b1565b50565b60008061024c600384610596565b509392505050565b61025d3361022a565b6102656105bd565b565b6102703361022a565b61023b81610612565b6102823361022a565b61028c828261061f565b5050565b6102993361022a565b6007805473ffffffffffffffffffffffffffffffffffffffff19166001600160a01b03831617905550565b600080806102d3600385610596565b91509150816102e6575060009392505050565b9392505050565b60095433906001600160a01b031681146103295760405162d1953b60e31b81526001600160a01b03821660048201526024015b60405180910390fd5b816001600160a01b03163b60000361035f576040516361798f2f60e11b81526001600160a01b0383166004820152602401610320565b61028c826106fd565b6103713361022a565b61026561075e565b600954600090600160a01b900460ff166103935750600090565b50638fb3603760e01b90565b6103a76107a1565b61028c82826107cc565b6000806103e76103c96009546001600160a01b031690565b86306103d960046000898b610dab565b6103e291610dd5565b610b07565b91509150816104aa5763ffffffff811615610487576009805460ff60a01b198116600160a01b17909155604051634a63ebf760e11b81526001600160a01b03909116906394c7d7ee9061044290889088908890600401610e05565b600060405180830381600087803b15801561045c57600080fd5b505af1158015610470573d6000803e3d6000fd5b50506009805460ff60a01b19169055506104aa9050565b60405162d1953b60e31b81526001600160a01b0386166004820152602401610320565b5050505050565b6006546040516370a0823160e01b81523060048201526001600160a01b039091169063a9059cbb90839083906370a0823190602401602060405180830381865afa158015610503573d6000803e3d6000fd5b505050506040513d601f19601f820116820180604052508101906105279190610e44565b6040516001600160e01b031960e085901b1681526001600160a01b03909216600483015260248201526044016020604051808303816000875af1158015610572573d6000803e3d6000fd5b505050506040513d601f19601f8201168201806040525081019061028c9190610e6d565b60008080806105ae866001600160a01b038716610c28565b909450925050505b9250929050565b6105c5610c62565b6009805460ff60a81b191690557f5db9ee0a495bf2e6ff9c91a7834c1ba4fdd244a5e8aa4e537bd38aeae4b073aa335b6040516001600160a01b03909116815260200160405180910390a1565b61028c6003826000610c8c565b60008061062d600385610596565b915091508260085461063f9190610e9e565b60088190556006546040516370a0823160e01b81523060048201526001600160a01b03909116906370a0823190602401602060405180830381865afa15801561068c573d6000803e3d6000fd5b505050506040513d601f19601f820116820180604052508101906106b09190610e44565b10156106d5576008546040516317d631fb60e11b815260040161032091815260200190565b816106e6576104aa60038585610c8c565b6104aa846106f48386610e9e565b60039190610c8c565b6009805473ffffffffffffffffffffffffffffffffffffffff19166001600160a01b0383169081179091556040519081527f2f658b440c35314f52658ea8a740e05b284cdc84dc9ae01e891f21b8933e7cad9060200160405180910390a150565b6107666107a1565b6009805460ff60a81b1916600160a81b1790557f62e78cea01bee320cd4e420270b5ea74000d11b0c9f74754ebdbfc544b05a2586105f53390565b600954600160a81b900460ff16156102655760405163d93c066560e01b815260040160405180910390fd5b6000806107da600333610596565b915091508161080d576040516322751fad60e11b81523360048201526001600160a01b0385166024820152604401610320565b8281101561083657604051621abb0f60e11b815233600482015260248101849052604401610320565b6006546040516370a0823160e01b815230600482015284916001600160a01b0316906370a0823190602401602060405180830381865afa15801561087e573d6000803e3d6000fd5b505050506040513d601f19601f820116820180604052508101906108a29190610e44565b10156108ca57604051634501a0e760e11b815233600482015260248101849052604401610320565b826008546108d89190610eb1565b6008556108e9336106f48584610eb1565b506000806108f78133610596565b60075491935091506001600160a01b031615610a2a5760065460075460405163a9059cbb60e01b81526001600160a01b0391821660048201526024810188905291169063a9059cbb906044016020604051808303816000875af1158015610962573d6000803e3d6000fd5b505050506040513d601f19601f820116820180604052508101906109869190610e6d565b6109bf57600754604051630742992360e21b81523360048201526001600160a01b03909116602482015260448101869052606401610320565b600754604051631f72642160e31b81526001600160a01b038881166004830152602482018890529091169063fb93210890604401600060405180830381600087803b158015610a0d57600080fd5b505af1158015610a21573d6000803e3d6000fd5b50505050610ad6565b60065460405163a9059cbb60e01b81526001600160a01b038881166004830152602482018890529091169063a9059cbb906044016020604051808303816000875af1158015610a7d573d6000803e3d6000fd5b505050506040513d601f19601f82011682018060405250810190610aa19190610e6d565b610ad657604051630742992360e21b81523360048201526001600160a01b038716602482015260448101869052606401610320565b81610af057610ae760003387610c8c565b50505050505050565b610ae733610afe8784610e9e565b60009190610c8c565b6040516001600160a01b03848116602483015283811660448301526001600160e01b03198316606483015260009182918291829189169060840160408051601f198184030181529181526020820180517bffffffffffffffffffffffffffffffffffffffffffffffffffffffff1663b700961360e01b17905251610b8b9190610ec4565b600060405180830381855afa9150503d8060008114610bc6576040519150601f19603f3d011682016040523d82523d6000602084013e610bcb565b606091505b50915091508115610c1d576040815110610bfd5780806020019051810190610bf39190610ef3565b9094509250610c1d565b6020815110610c1d5780806020019051810190610c1a9190610e6d565b93505b505094509492505050565b6000818152600283016020526040812054819080610c5757610c4a8585610caa565b9250600091506105b69050565b6001925090506105b6565b600954600160a81b900460ff1661026557604051638dfc202b60e01b815260040160405180910390fd5b6000610ca2846001600160a01b03851684610cbf565b949350505050565b6000610cb68383610cdc565b90505b92915050565b60008281526002840160205260408120829055610ca28484610cf4565b60008181526001830160205260408120541515610cb6565b6000610cb683836000818152600183016020526040812054610d4257508154600181810184556000848152602080822090930184905584548482528286019093526040902091909155610cb9565b506000610cb9565b80356001600160a01b0381168114610d6157600080fd5b919050565b600060208284031215610d7857600080fd5b610cb682610d4a565b60008060408385031215610d9457600080fd5b610d9d83610d4a565b946020939093013593505050565b60008085851115610dbb57600080fd5b83861115610dc857600080fd5b5050820193919092039150565b6001600160e01b03198135818116916004851015610dfd5780818660040360031b1b83161692505b505092915050565b6001600160a01b038416815260406020820152816040820152818360608301376000818301606090810191909152601f909201601f1916010192915050565b600060208284031215610e5657600080fd5b5051919050565b80518015158114610d6157600080fd5b600060208284031215610e7f57600080fd5b610cb682610e5d565b634e487b7160e01b600052601160045260246000fd5b80820180821115610cb957610cb9610e88565b81810381811115610cb957610cb9610e88565b6000825160005b81811015610ee55760208186018101518583015201610ecb565b506000920191825250919050565b60008060408385031215610f0657600080fd5b610f0f83610e5d565b9150602083015163ffffffff81168114610f2857600080fd5b80915050925092905056fea164736f6c6343000814000a","opcodes":"PUSH1 0x80 PUSH1 0x40 MSTORE CALLVALUE DUP1 ISZERO PUSH2 0x10 JUMPI PUSH1 0x0 DUP1 REVERT JUMPDEST POP PUSH1 0x40 MLOAD PUSH3 0x10AA CODESIZE SUB DUP1 PUSH3 0x10AA DUP4 CODECOPY DUP2 ADD PUSH1 0x40 DUP2 SWAP1 MSTORE PUSH2 0x31 SWAP2 PUSH2 0x117 JUMP JUMPDEST DUP1 DUP4 DUP4 PUSH1 0x1 PUSH1 0x1 PUSH1 0xA0 SHL SUB DUP3 AND PUSH2 0x5B JUMPI PUSH1 0x40 MLOAD PUSH4 0x66F53B1 PUSH1 0xE0 SHL DUP2 MSTORE PUSH1 0x4 ADD PUSH1 0x40 MLOAD DUP1 SWAP2 SUB SWAP1 REVERT JUMPDEST PUSH1 0x6 DUP1 SLOAD PUSH1 0x1 PUSH1 0x1 PUSH1 0xA0 SHL SUB SWAP4 DUP5 AND PUSH1 0x1 PUSH1 0x1 PUSH1 0xA0 SHL SUB NOT SWAP2 DUP3 AND OR SWAP1 SWAP2 SSTORE PUSH1 0x7 DUP1 SLOAD SWAP3 SWAP1 SWAP4 AND SWAP2 AND OR SWAP1 SSTORE PUSH2 0x90 DUP2 PUSH2 0xA7 JUMP JUMPDEST POP POP PUSH1 0x9 DUP1 SLOAD PUSH1 0xFF PUSH1 0xA8 SHL NOT AND SWAP1 SSTORE POP PUSH2 0x15A SWAP1 POP JUMP JUMPDEST PUSH1 0x9 DUP1 SLOAD PUSH1 0x1 PUSH1 0x1 PUSH1 0xA0 SHL SUB NOT AND PUSH1 0x1 PUSH1 0x1 PUSH1 0xA0 SHL SUB DUP4 AND SWAP1 DUP2 OR SWAP1 SWAP2 SSTORE PUSH1 0x40 MLOAD SWAP1 DUP2 MSTORE PUSH32 0x2F658B440C35314F52658EA8A740E05B284CDC84DC9AE01E891F21B8933E7CAD SWAP1 PUSH1 0x20 ADD PUSH1 0x40 MLOAD DUP1 SWAP2 SUB SWAP1 LOG1 POP JUMP JUMPDEST DUP1 MLOAD PUSH1 0x1 PUSH1 0x1 PUSH1 0xA0 SHL SUB DUP2 AND DUP2 EQ PUSH2 0x112 JUMPI PUSH1 0x0 DUP1 REVERT JUMPDEST SWAP2 SWAP1 POP JUMP JUMPDEST PUSH1 0x0 DUP1 PUSH1 0x0 PUSH1 0x60 DUP5 DUP7 SUB SLT ISZERO PUSH2 0x12C JUMPI PUSH1 0x0 DUP1 REVERT JUMPDEST PUSH2 0x135 DUP5 PUSH2 0xFB JUMP JUMPDEST SWAP3 POP PUSH2 0x143 PUSH1 0x20 DUP6 ADD PUSH2 0xFB JUMP JUMPDEST SWAP2 POP PUSH2 0x151 PUSH1 0x40 DUP6 ADD PUSH2 0xFB JUMP JUMPDEST SWAP1 POP SWAP3 POP SWAP3 POP SWAP3 JUMP JUMPDEST PUSH2 0xF40 DUP1 PUSH3 0x16A PUSH1 0x0 CODECOPY PUSH1 0x0 RETURN INVALID PUSH1 0x80 PUSH1 0x40 MSTORE CALLVALUE DUP1 ISZERO PUSH2 0x10 JUMPI PUSH1 0x0 DUP1 REVERT JUMPDEST POP PUSH1 0x4 CALLDATASIZE LT PUSH2 0xEA JUMPI PUSH1 0x0 CALLDATALOAD PUSH1 0xE0 SHR DUP1 PUSH4 0x6F6FF3BC GT PUSH2 0x8C JUMPI DUP1 PUSH4 0x8456CB59 GT PUSH2 0x66 JUMPI DUP1 PUSH4 0x8456CB59 EQ PUSH2 0x1D8 JUMPI DUP1 PUSH4 0x8FB36037 EQ PUSH2 0x1E0 JUMPI DUP1 PUSH4 0xBF7E214F EQ PUSH2 0x201 JUMPI DUP1 PUSH4 0xF00388F7 EQ PUSH2 0x212 JUMPI PUSH1 0x0 DUP1 REVERT JUMPDEST DUP1 PUSH4 0x6F6FF3BC EQ PUSH2 0x191 JUMPI DUP1 PUSH4 0x70A08231 EQ PUSH2 0x1A4 JUMPI DUP1 PUSH4 0x7A9E5E4B EQ PUSH2 0x1C5 JUMPI PUSH1 0x0 DUP1 REVERT JUMPDEST DUP1 PUSH4 0x44C63EEC GT PUSH2 0xC8 JUMPI DUP1 PUSH4 0x44C63EEC EQ PUSH2 0x134 JUMPI DUP1 PUSH4 0x486581EA EQ PUSH2 0x159 JUMPI DUP1 PUSH4 0x5C975ABB EQ PUSH2 0x16C JUMPI DUP1 PUSH4 0x5EB6BA80 EQ PUSH2 0x17E JUMPI PUSH1 0x0 DUP1 REVERT JUMPDEST DUP1 PUSH4 0x169B2623 EQ PUSH2 0xEF JUMPI DUP1 PUSH4 0x1FFBB064 EQ PUSH2 0x104 JUMPI DUP1 PUSH4 0x3F4BA83A EQ PUSH2 0x12C JUMPI JUMPDEST PUSH1 0x0 DUP1 REVERT JUMPDEST PUSH2 0x102 PUSH2 0xFD CALLDATASIZE PUSH1 0x4 PUSH2 0xD66 JUMP JUMPDEST PUSH2 0x225 JUMP JUMPDEST STOP JUMPDEST PUSH2 0x117 PUSH2 0x112 CALLDATASIZE PUSH1 0x4 PUSH2 0xD66 JUMP JUMPDEST PUSH2 0x23E JUMP JUMPDEST PUSH1 0x40 MLOAD SWAP1 ISZERO ISZERO DUP2 MSTORE PUSH1 0x20 ADD JUMPDEST PUSH1 0x40 MLOAD DUP1 SWAP2 SUB SWAP1 RETURN JUMPDEST PUSH2 0x102 PUSH2 0x254 JUMP JUMPDEST PUSH1 0x7 SLOAD PUSH1 0x1 PUSH1 0x1 PUSH1 0xA0 SHL SUB AND JUMPDEST PUSH1 0x40 MLOAD PUSH1 0x1 PUSH1 0x1 PUSH1 0xA0 SHL SUB SWAP1 SWAP2 AND DUP2 MSTORE PUSH1 0x20 ADD PUSH2 0x123 JUMP JUMPDEST PUSH2 0x102 PUSH2 0x167 CALLDATASIZE PUSH1 0x4 PUSH2 0xD66 JUMP JUMPDEST PUSH2 0x267 JUMP JUMPDEST PUSH1 0x9 SLOAD PUSH1 0x1 PUSH1 0xA8 SHL SWAP1 DIV PUSH1 0xFF AND PUSH2 0x117 JUMP JUMPDEST PUSH2 0x102 PUSH2 0x18C CALLDATASIZE PUSH1 0x4 PUSH2 0xD81 JUMP JUMPDEST PUSH2 0x279 JUMP JUMPDEST PUSH2 0x102 PUSH2 0x19F CALLDATASIZE PUSH1 0x4 PUSH2 0xD66 JUMP JUMPDEST PUSH2 0x290 JUMP JUMPDEST PUSH2 0x1B7 PUSH2 0x1B2 CALLDATASIZE PUSH1 0x4 PUSH2 0xD66 JUMP JUMPDEST PUSH2 0x2C4 JUMP JUMPDEST PUSH1 0x40 MLOAD SWAP1 DUP2 MSTORE PUSH1 0x20 ADD PUSH2 0x123 JUMP JUMPDEST PUSH2 0x102 PUSH2 0x1D3 CALLDATASIZE PUSH1 0x4 PUSH2 0xD66 JUMP JUMPDEST PUSH2 0x2ED JUMP JUMPDEST PUSH2 0x102 PUSH2 0x368 JUMP JUMPDEST PUSH2 0x1E8 PUSH2 0x379 JUMP JUMPDEST PUSH1 0x40 MLOAD PUSH1 0x1 PUSH1 0x1 PUSH1 0xE0 SHL SUB NOT SWAP1 SWAP2 AND DUP2 MSTORE PUSH1 0x20 ADD PUSH2 0x123 JUMP JUMPDEST PUSH1 0x9 SLOAD PUSH1 0x1 PUSH1 0x1 PUSH1 0xA0 SHL SUB AND PUSH2 0x141 JUMP JUMPDEST PUSH2 0x102 PUSH2 0x220 CALLDATASIZE PUSH1 0x4 PUSH2 0xD81 JUMP JUMPDEST PUSH2 0x39F JUMP JUMPDEST PUSH2 0x232 CALLER JUMPDEST PUSH1 0x0 CALLDATASIZE PUSH2 0x3B1 JUMP JUMPDEST PUSH2 0x23B DUP2 PUSH2 0x4B1 JUMP JUMPDEST POP JUMP JUMPDEST PUSH1 0x0 DUP1 PUSH2 0x24C PUSH1 0x3 DUP5 PUSH2 0x596 JUMP JUMPDEST POP SWAP4 SWAP3 POP POP POP JUMP JUMPDEST PUSH2 0x25D CALLER PUSH2 0x22A JUMP JUMPDEST PUSH2 0x265 PUSH2 0x5BD JUMP JUMPDEST JUMP JUMPDEST PUSH2 0x270 CALLER PUSH2 0x22A JUMP JUMPDEST PUSH2 0x23B DUP2 PUSH2 0x612 JUMP JUMPDEST PUSH2 0x282 CALLER PUSH2 0x22A JUMP JUMPDEST PUSH2 0x28C DUP3 DUP3 PUSH2 0x61F JUMP JUMPDEST POP POP JUMP JUMPDEST PUSH2 0x299 CALLER PUSH2 0x22A JUMP JUMPDEST PUSH1 0x7 DUP1 SLOAD PUSH20 0xFFFFFFFFFFFFFFFFFFFFFFFFFFFFFFFFFFFFFFFF NOT AND PUSH1 0x1 PUSH1 0x1 PUSH1 0xA0 SHL SUB DUP4 AND OR SWAP1 SSTORE POP JUMP JUMPDEST PUSH1 0x0 DUP1 DUP1 PUSH2 0x2D3 PUSH1 0x3 DUP6 PUSH2 0x596 JUMP JUMPDEST SWAP2 POP SWAP2 POP DUP2 PUSH2 0x2E6 JUMPI POP PUSH1 0x0 SWAP4 SWAP3 POP POP POP JUMP JUMPDEST SWAP4 SWAP3 POP POP POP JUMP JUMPDEST PUSH1 0x9 SLOAD CALLER SWAP1 PUSH1 0x1 PUSH1 0x1 PUSH1 0xA0 SHL SUB AND DUP2 EQ PUSH2 0x329 JUMPI PUSH1 0x40 MLOAD PUSH3 0xD1953B PUSH1 0xE3 SHL DUP2 MSTORE PUSH1 0x1 PUSH1 0x1 PUSH1 0xA0 SHL SUB DUP3 AND PUSH1 0x4 DUP3 ADD MSTORE PUSH1 0x24 ADD JUMPDEST PUSH1 0x40 MLOAD DUP1 SWAP2 SUB SWAP1 REVERT JUMPDEST DUP2 PUSH1 0x1 PUSH1 0x1 PUSH1 0xA0 SHL SUB AND EXTCODESIZE PUSH1 0x0 SUB PUSH2 0x35F JUMPI PUSH1 0x40 MLOAD PUSH4 0x61798F2F PUSH1 0xE1 SHL DUP2 MSTORE PUSH1 0x1 PUSH1 0x1 PUSH1 0xA0 SHL SUB DUP4 AND PUSH1 0x4 DUP3 ADD MSTORE PUSH1 0x24 ADD PUSH2 0x320 JUMP JUMPDEST PUSH2 0x28C DUP3 PUSH2 0x6FD JUMP JUMPDEST PUSH2 0x371 CALLER PUSH2 0x22A JUMP JUMPDEST PUSH2 0x265 PUSH2 0x75E JUMP JUMPDEST PUSH1 0x9 SLOAD PUSH1 0x0 SWAP1 PUSH1 0x1 PUSH1 0xA0 SHL SWAP1 DIV PUSH1 0xFF AND PUSH2 0x393 JUMPI POP PUSH1 0x0 SWAP1 JUMP JUMPDEST POP PUSH4 0x8FB36037 PUSH1 0xE0 SHL SWAP1 JUMP JUMPDEST PUSH2 0x3A7 PUSH2 0x7A1 JUMP JUMPDEST PUSH2 0x28C DUP3 DUP3 PUSH2 0x7CC JUMP JUMPDEST PUSH1 0x0 DUP1 PUSH2 0x3E7 PUSH2 0x3C9 PUSH1 0x9 SLOAD PUSH1 0x1 PUSH1 0x1 PUSH1 0xA0 SHL SUB AND SWAP1 JUMP JUMPDEST DUP7 ADDRESS PUSH2 0x3D9 PUSH1 0x4 PUSH1 0x0 DUP10 DUP12 PUSH2 0xDAB JUMP JUMPDEST PUSH2 0x3E2 SWAP2 PUSH2 0xDD5 JUMP JUMPDEST PUSH2 0xB07 JUMP JUMPDEST SWAP2 POP SWAP2 POP DUP2 PUSH2 0x4AA JUMPI PUSH4 0xFFFFFFFF DUP2 AND ISZERO PUSH2 0x487 JUMPI PUSH1 0x9 DUP1 SLOAD PUSH1 0xFF PUSH1 0xA0 SHL NOT DUP2 AND PUSH1 0x1 PUSH1 0xA0 SHL OR SWAP1 SWAP2 SSTORE PUSH1 0x40 MLOAD PUSH4 0x4A63EBF7 PUSH1 0xE1 SHL DUP2 MSTORE PUSH1 0x1 PUSH1 0x1 PUSH1 0xA0 SHL SUB SWAP1 SWAP2 AND SWAP1 PUSH4 0x94C7D7EE SWAP1 PUSH2 0x442 SWAP1 DUP9 SWAP1 DUP9 SWAP1 DUP9 SWAP1 PUSH1 0x4 ADD PUSH2 0xE05 JUMP JUMPDEST PUSH1 0x0 PUSH1 0x40 MLOAD DUP1 DUP4 SUB DUP2 PUSH1 0x0 DUP8 DUP1 EXTCODESIZE ISZERO DUP1 ISZERO PUSH2 0x45C JUMPI PUSH1 0x0 DUP1 REVERT JUMPDEST POP GAS CALL ISZERO DUP1 ISZERO PUSH2 0x470 JUMPI RETURNDATASIZE PUSH1 0x0 DUP1 RETURNDATACOPY RETURNDATASIZE PUSH1 0x0 REVERT JUMPDEST POP POP PUSH1 0x9 DUP1 SLOAD PUSH1 0xFF PUSH1 0xA0 SHL NOT AND SWAP1 SSTORE POP PUSH2 0x4AA SWAP1 POP JUMP JUMPDEST PUSH1 0x40 MLOAD PUSH3 0xD1953B PUSH1 0xE3 SHL DUP2 MSTORE PUSH1 0x1 PUSH1 0x1 PUSH1 0xA0 SHL SUB DUP7 AND PUSH1 0x4 DUP3 ADD MSTORE PUSH1 0x24 ADD PUSH2 0x320 JUMP JUMPDEST POP POP POP POP POP JUMP JUMPDEST PUSH1 0x6 SLOAD PUSH1 0x40 MLOAD PUSH4 0x70A08231 PUSH1 0xE0 SHL DUP2 MSTORE ADDRESS PUSH1 0x4 DUP3 ADD MSTORE PUSH1 0x1 PUSH1 0x1 PUSH1 0xA0 SHL SUB SWAP1 SWAP2 AND SWAP1 PUSH4 0xA9059CBB SWAP1 DUP4 SWAP1 DUP4 SWAP1 PUSH4 0x70A08231 SWAP1 PUSH1 0x24 ADD PUSH1 0x20 PUSH1 0x40 MLOAD DUP1 DUP4 SUB DUP2 DUP7 GAS STATICCALL ISZERO DUP1 ISZERO PUSH2 0x503 JUMPI RETURNDATASIZE PUSH1 0x0 DUP1 RETURNDATACOPY RETURNDATASIZE PUSH1 0x0 REVERT JUMPDEST POP POP POP POP PUSH1 0x40 MLOAD RETURNDATASIZE PUSH1 0x1F NOT PUSH1 0x1F DUP3 ADD AND DUP3 ADD DUP1 PUSH1 0x40 MSTORE POP DUP2 ADD SWAP1 PUSH2 0x527 SWAP2 SWAP1 PUSH2 0xE44 JUMP JUMPDEST PUSH1 0x40 MLOAD PUSH1 0x1 PUSH1 0x1 PUSH1 0xE0 SHL SUB NOT PUSH1 0xE0 DUP6 SWAP1 SHL AND DUP2 MSTORE PUSH1 0x1 PUSH1 0x1 PUSH1 0xA0 SHL SUB SWAP1 SWAP3 AND PUSH1 0x4 DUP4 ADD MSTORE PUSH1 0x24 DUP3 ADD MSTORE PUSH1 0x44 ADD PUSH1 0x20 PUSH1 0x40 MLOAD DUP1 DUP4 SUB DUP2 PUSH1 0x0 DUP8 GAS CALL ISZERO DUP1 ISZERO PUSH2 0x572 JUMPI RETURNDATASIZE PUSH1 0x0 DUP1 RETURNDATACOPY RETURNDATASIZE PUSH1 0x0 REVERT JUMPDEST POP POP POP POP PUSH1 0x40 MLOAD RETURNDATASIZE PUSH1 0x1F NOT PUSH1 0x1F DUP3 ADD AND DUP3 ADD DUP1 PUSH1 0x40 MSTORE POP DUP2 ADD SWAP1 PUSH2 0x28C SWAP2 SWAP1 PUSH2 0xE6D JUMP JUMPDEST PUSH1 0x0 DUP1 DUP1 DUP1 PUSH2 0x5AE DUP7 PUSH1 0x1 PUSH1 0x1 PUSH1 0xA0 SHL SUB DUP8 AND PUSH2 0xC28 JUMP JUMPDEST SWAP1 SWAP5 POP SWAP3 POP POP POP JUMPDEST SWAP3 POP SWAP3 SWAP1 POP JUMP JUMPDEST PUSH2 0x5C5 PUSH2 0xC62 JUMP JUMPDEST PUSH1 0x9 DUP1 SLOAD PUSH1 0xFF PUSH1 0xA8 SHL NOT AND SWAP1 SSTORE PUSH32 0x5DB9EE0A495BF2E6FF9C91A7834C1BA4FDD244A5E8AA4E537BD38AEAE4B073AA CALLER JUMPDEST PUSH1 0x40 MLOAD PUSH1 0x1 PUSH1 0x1 PUSH1 0xA0 SHL SUB SWAP1 SWAP2 AND DUP2 MSTORE PUSH1 0x20 ADD PUSH1 0x40 MLOAD DUP1 SWAP2 SUB SWAP1 LOG1 JUMP JUMPDEST PUSH2 0x28C PUSH1 0x3 DUP3 PUSH1 0x0 PUSH2 0xC8C JUMP JUMPDEST PUSH1 0x0 DUP1 PUSH2 0x62D PUSH1 0x3 DUP6 PUSH2 0x596 JUMP JUMPDEST SWAP2 POP SWAP2 POP DUP3 PUSH1 0x8 SLOAD PUSH2 0x63F SWAP2 SWAP1 PUSH2 0xE9E JUMP JUMPDEST PUSH1 0x8 DUP2 SWAP1 SSTORE PUSH1 0x6 SLOAD PUSH1 0x40 MLOAD PUSH4 0x70A08231 PUSH1 0xE0 SHL DUP2 MSTORE ADDRESS PUSH1 0x4 DUP3 ADD MSTORE PUSH1 0x1 PUSH1 0x1 PUSH1 0xA0 SHL SUB SWAP1 SWAP2 AND SWAP1 PUSH4 0x70A08231 SWAP1 PUSH1 0x24 ADD PUSH1 0x20 PUSH1 0x40 MLOAD DUP1 DUP4 SUB DUP2 DUP7 GAS STATICCALL ISZERO DUP1 ISZERO PUSH2 0x68C JUMPI RETURNDATASIZE PUSH1 0x0 DUP1 RETURNDATACOPY RETURNDATASIZE PUSH1 0x0 REVERT JUMPDEST POP POP POP POP PUSH1 0x40 MLOAD RETURNDATASIZE PUSH1 0x1F NOT PUSH1 0x1F DUP3 ADD AND DUP3 ADD DUP1 PUSH1 0x40 MSTORE POP DUP2 ADD SWAP1 PUSH2 0x6B0 SWAP2 SWAP1 PUSH2 0xE44 JUMP JUMPDEST LT ISZERO PUSH2 0x6D5 JUMPI PUSH1 0x8 SLOAD PUSH1 0x40 MLOAD PUSH4 0x17D631FB PUSH1 0xE1 SHL DUP2 MSTORE PUSH1 0x4 ADD PUSH2 0x320 SWAP2 DUP2 MSTORE PUSH1 0x20 ADD SWAP1 JUMP JUMPDEST DUP2 PUSH2 0x6E6 JUMPI PUSH2 0x4AA PUSH1 0x3 DUP6 DUP6 PUSH2 0xC8C JUMP JUMPDEST PUSH2 0x4AA DUP5 PUSH2 0x6F4 DUP4 DUP7 PUSH2 0xE9E JUMP JUMPDEST PUSH1 0x3 SWAP2 SWAP1 PUSH2 0xC8C JUMP JUMPDEST PUSH1 0x9 DUP1 SLOAD PUSH20 0xFFFFFFFFFFFFFFFFFFFFFFFFFFFFFFFFFFFFFFFF NOT AND PUSH1 0x1 PUSH1 0x1 PUSH1 0xA0 SHL SUB DUP4 AND SWAP1 DUP2 OR SWAP1 SWAP2 SSTORE PUSH1 0x40 MLOAD SWAP1 DUP2 MSTORE PUSH32 0x2F658B440C35314F52658EA8A740E05B284CDC84DC9AE01E891F21B8933E7CAD SWAP1 PUSH1 0x20 ADD PUSH1 0x40 MLOAD DUP1 SWAP2 SUB SWAP1 LOG1 POP JUMP JUMPDEST PUSH2 0x766 PUSH2 0x7A1 JUMP JUMPDEST PUSH1 0x9 DUP1 SLOAD PUSH1 0xFF PUSH1 0xA8 SHL NOT AND PUSH1 0x1 PUSH1 0xA8 SHL OR SWAP1 SSTORE PUSH32 0x62E78CEA01BEE320CD4E420270B5EA74000D11B0C9F74754EBDBFC544B05A258 PUSH2 0x5F5 CALLER SWAP1 JUMP JUMPDEST PUSH1 0x9 SLOAD PUSH1 0x1 PUSH1 0xA8 SHL SWAP1 DIV PUSH1 0xFF AND ISZERO PUSH2 0x265 JUMPI PUSH1 0x40 MLOAD PUSH4 0xD93C0665 PUSH1 0xE0 SHL DUP2 MSTORE PUSH1 0x4 ADD PUSH1 0x40 MLOAD DUP1 SWAP2 SUB SWAP1 REVERT JUMPDEST PUSH1 0x0 DUP1 PUSH2 0x7DA PUSH1 0x3 CALLER PUSH2 0x596 JUMP JUMPDEST SWAP2 POP SWAP2 POP DUP2 PUSH2 0x80D JUMPI PUSH1 0x40 MLOAD PUSH4 0x22751FAD PUSH1 0xE1 SHL DUP2 MSTORE CALLER PUSH1 0x4 DUP3 ADD MSTORE PUSH1 0x1 PUSH1 0x1 PUSH1 0xA0 SHL SUB DUP6 AND PUSH1 0x24 DUP3 ADD MSTORE PUSH1 0x44 ADD PUSH2 0x320 JUMP JUMPDEST DUP3 DUP2 LT ISZERO PUSH2 0x836 JUMPI PUSH1 0x40 MLOAD PUSH3 0x1ABB0F PUSH1 0xE1 SHL DUP2 MSTORE CALLER PUSH1 0x4 DUP3 ADD MSTORE PUSH1 0x24 DUP2 ADD DUP5 SWAP1 MSTORE PUSH1 0x44 ADD PUSH2 0x320 JUMP JUMPDEST PUSH1 0x6 SLOAD PUSH1 0x40 MLOAD PUSH4 0x70A08231 PUSH1 0xE0 SHL DUP2 MSTORE ADDRESS PUSH1 0x4 DUP3 ADD MSTORE DUP5 SWAP2 PUSH1 0x1 PUSH1 0x1 PUSH1 0xA0 SHL SUB AND SWAP1 PUSH4 0x70A08231 SWAP1 PUSH1 0x24 ADD PUSH1 0x20 PUSH1 0x40 MLOAD DUP1 DUP4 SUB DUP2 DUP7 GAS STATICCALL ISZERO DUP1 ISZERO PUSH2 0x87E JUMPI RETURNDATASIZE PUSH1 0x0 DUP1 RETURNDATACOPY RETURNDATASIZE PUSH1 0x0 REVERT JUMPDEST POP POP POP POP PUSH1 0x40 MLOAD RETURNDATASIZE PUSH1 0x1F NOT PUSH1 0x1F DUP3 ADD AND DUP3 ADD DUP1 PUSH1 0x40 MSTORE POP DUP2 ADD SWAP1 PUSH2 0x8A2 SWAP2 SWAP1 PUSH2 0xE44 JUMP JUMPDEST LT ISZERO PUSH2 0x8CA JUMPI PUSH1 0x40 MLOAD PUSH4 0x4501A0E7 PUSH1 0xE1 SHL DUP2 MSTORE CALLER PUSH1 0x4 DUP3 ADD MSTORE PUSH1 0x24 DUP2 ADD DUP5 SWAP1 MSTORE PUSH1 0x44 ADD PUSH2 0x320 JUMP JUMPDEST DUP3 PUSH1 0x8 SLOAD PUSH2 0x8D8 SWAP2 SWAP1 PUSH2 0xEB1 JUMP JUMPDEST PUSH1 0x8 SSTORE PUSH2 0x8E9 CALLER PUSH2 0x6F4 DUP6 DUP5 PUSH2 0xEB1 JUMP JUMPDEST POP PUSH1 0x0 DUP1 PUSH2 0x8F7 DUP2 CALLER PUSH2 0x596 JUMP JUMPDEST PUSH1 0x7 SLOAD SWAP2 SWAP4 POP SWAP2 POP PUSH1 0x1 PUSH1 0x1 PUSH1 0xA0 SHL SUB AND ISZERO PUSH2 0xA2A JUMPI PUSH1 0x6 SLOAD PUSH1 0x7 SLOAD PUSH1 0x40 MLOAD PUSH4 0xA9059CBB PUSH1 0xE0 SHL DUP2 MSTORE PUSH1 0x1 PUSH1 0x1 PUSH1 0xA0 SHL SUB SWAP2 DUP3 AND PUSH1 0x4 DUP3 ADD MSTORE PUSH1 0x24 DUP2 ADD DUP9 SWAP1 MSTORE SWAP2 AND SWAP1 PUSH4 0xA9059CBB SWAP1 PUSH1 0x44 ADD PUSH1 0x20 PUSH1 0x40 MLOAD DUP1 DUP4 SUB DUP2 PUSH1 0x0 DUP8 GAS CALL ISZERO DUP1 ISZERO PUSH2 0x962 JUMPI RETURNDATASIZE PUSH1 0x0 DUP1 RETURNDATACOPY RETURNDATASIZE PUSH1 0x0 REVERT JUMPDEST POP POP POP POP PUSH1 0x40 MLOAD RETURNDATASIZE PUSH1 0x1F NOT PUSH1 0x1F DUP3 ADD AND DUP3 ADD DUP1 PUSH1 0x40 MSTORE POP DUP2 ADD SWAP1 PUSH2 0x986 SWAP2 SWAP1 PUSH2 0xE6D JUMP JUMPDEST PUSH2 0x9BF JUMPI PUSH1 0x7 SLOAD PUSH1 0x40 MLOAD PUSH4 0x7429923 PUSH1 0xE2 SHL DUP2 MSTORE CALLER PUSH1 0x4 DUP3 ADD MSTORE PUSH1 0x1 PUSH1 0x1 PUSH1 0xA0 SHL SUB SWAP1 SWAP2 AND PUSH1 0x24 DUP3 ADD MSTORE PUSH1 0x44 DUP2 ADD DUP7 SWAP1 MSTORE PUSH1 0x64 ADD PUSH2 0x320 JUMP JUMPDEST PUSH1 0x7 SLOAD PUSH1 0x40 MLOAD PUSH4 0x1F726421 PUSH1 0xE3 SHL DUP2 MSTORE PUSH1 0x1 PUSH1 0x1 PUSH1 0xA0 SHL SUB DUP9 DUP2 AND PUSH1 0x4 DUP4 ADD MSTORE PUSH1 0x24 DUP3 ADD DUP9 SWAP1 MSTORE SWAP1 SWAP2 AND SWAP1 PUSH4 0xFB932108 SWAP1 PUSH1 0x44 ADD PUSH1 0x0 PUSH1 0x40 MLOAD DUP1 DUP4 SUB DUP2 PUSH1 0x0 DUP8 DUP1 EXTCODESIZE ISZERO DUP1 ISZERO PUSH2 0xA0D JUMPI PUSH1 0x0 DUP1 REVERT JUMPDEST POP GAS CALL ISZERO DUP1 ISZERO PUSH2 0xA21 JUMPI RETURNDATASIZE PUSH1 0x0 DUP1 RETURNDATACOPY RETURNDATASIZE PUSH1 0x0 REVERT JUMPDEST POP POP POP POP PUSH2 0xAD6 JUMP JUMPDEST PUSH1 0x6 SLOAD PUSH1 0x40 MLOAD PUSH4 0xA9059CBB PUSH1 0xE0 SHL DUP2 MSTORE PUSH1 0x1 PUSH1 0x1 PUSH1 0xA0 SHL SUB DUP9 DUP2 AND PUSH1 0x4 DUP4 ADD MSTORE PUSH1 0x24 DUP3 ADD DUP9 SWAP1 MSTORE SWAP1 SWAP2 AND SWAP1 PUSH4 0xA9059CBB SWAP1 PUSH1 0x44 ADD PUSH1 0x20 PUSH1 0x40 MLOAD DUP1 DUP4 SUB DUP2 PUSH1 0x0 DUP8 GAS CALL ISZERO DUP1 ISZERO PUSH2 0xA7D JUMPI RETURNDATASIZE PUSH1 0x0 DUP1 RETURNDATACOPY RETURNDATASIZE PUSH1 0x0 REVERT JUMPDEST POP POP POP POP PUSH1 0x40 MLOAD RETURNDATASIZE PUSH1 0x1F NOT PUSH1 0x1F DUP3 ADD AND DUP3 ADD DUP1 PUSH1 0x40 MSTORE POP DUP2 ADD SWAP1 PUSH2 0xAA1 SWAP2 SWAP1 PUSH2 0xE6D JUMP JUMPDEST PUSH2 0xAD6 JUMPI PUSH1 0x40 MLOAD PUSH4 0x7429923 PUSH1 0xE2 SHL DUP2 MSTORE CALLER PUSH1 0x4 DUP3 ADD MSTORE PUSH1 0x1 PUSH1 0x1 PUSH1 0xA0 SHL SUB DUP8 AND PUSH1 0x24 DUP3 ADD MSTORE PUSH1 0x44 DUP2 ADD DUP7 SWAP1 MSTORE PUSH1 0x64 ADD PUSH2 0x320 JUMP JUMPDEST DUP2 PUSH2 0xAF0 JUMPI PUSH2 0xAE7 PUSH1 0x0 CALLER DUP8 PUSH2 0xC8C JUMP JUMPDEST POP POP POP POP POP POP POP JUMP JUMPDEST PUSH2 0xAE7 CALLER PUSH2 0xAFE DUP8 DUP5 PUSH2 0xE9E JUMP JUMPDEST PUSH1 0x0 SWAP2 SWAP1 PUSH2 0xC8C JUMP JUMPDEST PUSH1 0x40 MLOAD PUSH1 0x1 PUSH1 0x1 PUSH1 0xA0 SHL SUB DUP5 DUP2 AND PUSH1 0x24 DUP4 ADD MSTORE DUP4 DUP2 AND PUSH1 0x44 DUP4 ADD MSTORE PUSH1 0x1 PUSH1 0x1 PUSH1 0xE0 SHL SUB NOT DUP4 AND PUSH1 0x64 DUP4 ADD MSTORE PUSH1 0x0 SWAP2 DUP3 SWAP2 DUP3 SWAP2 DUP3 SWAP2 DUP10 AND SWAP1 PUSH1 0x84 ADD PUSH1 0x40 DUP1 MLOAD PUSH1 0x1F NOT DUP2 DUP5 SUB ADD DUP2 MSTORE SWAP2 DUP2 MSTORE PUSH1 0x20 DUP3 ADD DUP1 MLOAD PUSH28 0xFFFFFFFFFFFFFFFFFFFFFFFFFFFFFFFFFFFFFFFFFFFFFFFFFFFFFFFF AND PUSH4 0xB7009613 PUSH1 0xE0 SHL OR SWAP1 MSTORE MLOAD PUSH2 0xB8B SWAP2 SWAP1 PUSH2 0xEC4 JUMP JUMPDEST PUSH1 0x0 PUSH1 0x40 MLOAD DUP1 DUP4 SUB DUP2 DUP6 GAS STATICCALL SWAP2 POP POP RETURNDATASIZE DUP1 PUSH1 0x0 DUP2 EQ PUSH2 0xBC6 JUMPI PUSH1 0x40 MLOAD SWAP2 POP PUSH1 0x1F NOT PUSH1 0x3F RETURNDATASIZE ADD AND DUP3 ADD PUSH1 0x40 MSTORE RETURNDATASIZE DUP3 MSTORE RETURNDATASIZE PUSH1 0x0 PUSH1 0x20 DUP5 ADD RETURNDATACOPY PUSH2 0xBCB JUMP JUMPDEST PUSH1 0x60 SWAP2 POP JUMPDEST POP SWAP2 POP SWAP2 POP DUP2 ISZERO PUSH2 0xC1D JUMPI PUSH1 0x40 DUP2 MLOAD LT PUSH2 0xBFD JUMPI DUP1 DUP1 PUSH1 0x20 ADD SWAP1 MLOAD DUP2 ADD SWAP1 PUSH2 0xBF3 SWAP2 SWAP1 PUSH2 0xEF3 JUMP JUMPDEST SWAP1 SWAP5 POP SWAP3 POP PUSH2 0xC1D JUMP JUMPDEST PUSH1 0x20 DUP2 MLOAD LT PUSH2 0xC1D JUMPI DUP1 DUP1 PUSH1 0x20 ADD SWAP1 MLOAD DUP2 ADD SWAP1 PUSH2 0xC1A SWAP2 SWAP1 PUSH2 0xE6D JUMP JUMPDEST SWAP4 POP JUMPDEST POP POP SWAP5 POP SWAP5 SWAP3 POP POP POP JUMP JUMPDEST PUSH1 0x0 DUP2 DUP2 MSTORE PUSH1 0x2 DUP4 ADD PUSH1 0x20 MSTORE PUSH1 0x40 DUP2 KECCAK256 SLOAD DUP2 SWAP1 DUP1 PUSH2 0xC57 JUMPI PUSH2 0xC4A DUP6 DUP6 PUSH2 0xCAA JUMP JUMPDEST SWAP3 POP PUSH1 0x0 SWAP2 POP PUSH2 0x5B6 SWAP1 POP JUMP JUMPDEST PUSH1 0x1 SWAP3 POP SWAP1 POP PUSH2 0x5B6 JUMP JUMPDEST PUSH1 0x9 SLOAD PUSH1 0x1 PUSH1 0xA8 SHL SWAP1 DIV PUSH1 0xFF AND PUSH2 0x265 JUMPI PUSH1 0x40 MLOAD PUSH4 0x8DFC202B PUSH1 0xE0 SHL DUP2 MSTORE PUSH1 0x4 ADD PUSH1 0x40 MLOAD DUP1 SWAP2 SUB SWAP1 REVERT JUMPDEST PUSH1 0x0 PUSH2 0xCA2 DUP5 PUSH1 0x1 PUSH1 0x1 PUSH1 0xA0 SHL SUB DUP6 AND DUP5 PUSH2 0xCBF JUMP JUMPDEST SWAP5 SWAP4 POP POP POP POP JUMP JUMPDEST PUSH1 0x0 PUSH2 0xCB6 DUP4 DUP4 PUSH2 0xCDC JUMP JUMPDEST SWAP1 POP JUMPDEST SWAP3 SWAP2 POP POP JUMP JUMPDEST PUSH1 0x0 DUP3 DUP2 MSTORE PUSH1 0x2 DUP5 ADD PUSH1 0x20 MSTORE PUSH1 0x40 DUP2 KECCAK256 DUP3 SWAP1 SSTORE PUSH2 0xCA2 DUP5 DUP5 PUSH2 0xCF4 JUMP JUMPDEST PUSH1 0x0 DUP2 DUP2 MSTORE PUSH1 0x1 DUP4 ADD PUSH1 0x20 MSTORE PUSH1 0x40 DUP2 KECCAK256 SLOAD ISZERO ISZERO PUSH2 0xCB6 JUMP JUMPDEST PUSH1 0x0 PUSH2 0xCB6 DUP4 DUP4 PUSH1 0x0 DUP2 DUP2 MSTORE PUSH1 0x1 DUP4 ADD PUSH1 0x20 MSTORE PUSH1 0x40 DUP2 KECCAK256 SLOAD PUSH2 0xD42 JUMPI POP DUP2 SLOAD PUSH1 0x1 DUP2 DUP2 ADD DUP5 SSTORE PUSH1 0x0 DUP5 DUP2 MSTORE PUSH1 0x20 DUP1 DUP3 KECCAK256 SWAP1 SWAP4 ADD DUP5 SWAP1 SSTORE DUP5 SLOAD DUP5 DUP3 MSTORE DUP3 DUP7 ADD SWAP1 SWAP4 MSTORE PUSH1 0x40 SWAP1 KECCAK256 SWAP2 SWAP1 SWAP2 SSTORE PUSH2 0xCB9 JUMP JUMPDEST POP PUSH1 0x0 PUSH2 0xCB9 JUMP JUMPDEST DUP1 CALLDATALOAD PUSH1 0x1 PUSH1 0x1 PUSH1 0xA0 SHL SUB DUP2 AND DUP2 EQ PUSH2 0xD61 JUMPI PUSH1 0x0 DUP1 REVERT JUMPDEST SWAP2 SWAP1 POP JUMP JUMPDEST PUSH1 0x0 PUSH1 0x20 DUP3 DUP5 SUB SLT ISZERO PUSH2 0xD78 JUMPI PUSH1 0x0 DUP1 REVERT JUMPDEST PUSH2 0xCB6 DUP3 PUSH2 0xD4A JUMP JUMPDEST PUSH1 0x0 DUP1 PUSH1 0x40 DUP4 DUP6 SUB SLT ISZERO PUSH2 0xD94 JUMPI PUSH1 0x0 DUP1 REVERT JUMPDEST PUSH2 0xD9D DUP4 PUSH2 0xD4A JUMP JUMPDEST SWAP5 PUSH1 0x20 SWAP4 SWAP1 SWAP4 ADD CALLDATALOAD SWAP4 POP POP POP JUMP JUMPDEST PUSH1 0x0 DUP1 DUP6 DUP6 GT ISZERO PUSH2 0xDBB JUMPI PUSH1 0x0 DUP1 REVERT JUMPDEST DUP4 DUP7 GT ISZERO PUSH2 0xDC8 JUMPI PUSH1 0x0 DUP1 REVERT JUMPDEST POP POP DUP3 ADD SWAP4 SWAP2 SWAP1 SWAP3 SUB SWAP2 POP JUMP JUMPDEST PUSH1 0x1 PUSH1 0x1 PUSH1 0xE0 SHL SUB NOT DUP2 CALLDATALOAD DUP2 DUP2 AND SWAP2 PUSH1 0x4 DUP6 LT ISZERO PUSH2 0xDFD JUMPI DUP1 DUP2 DUP7 PUSH1 0x4 SUB PUSH1 0x3 SHL SHL DUP4 AND AND SWAP3 POP JUMPDEST POP POP SWAP3 SWAP2 POP POP JUMP JUMPDEST PUSH1 0x1 PUSH1 0x1 PUSH1 0xA0 SHL SUB DUP5 AND DUP2 MSTORE PUSH1 0x40 PUSH1 0x20 DUP3 ADD MSTORE DUP2 PUSH1 0x40 DUP3 ADD MSTORE DUP2 DUP4 PUSH1 0x60 DUP4 ADD CALLDATACOPY PUSH1 0x0 DUP2 DUP4 ADD PUSH1 0x60 SWAP1 DUP2 ADD SWAP2 SWAP1 SWAP2 MSTORE PUSH1 0x1F SWAP1 SWAP3 ADD PUSH1 0x1F NOT AND ADD ADD SWAP3 SWAP2 POP POP JUMP JUMPDEST PUSH1 0x0 PUSH1 0x20 DUP3 DUP5 SUB SLT ISZERO PUSH2 0xE56 JUMPI PUSH1 0x0 DUP1 REVERT JUMPDEST POP MLOAD SWAP2 SWAP1 POP JUMP JUMPDEST DUP1 MLOAD DUP1 ISZERO ISZERO DUP2 EQ PUSH2 0xD61 JUMPI PUSH1 0x0 DUP1 REVERT JUMPDEST PUSH1 0x0 PUSH1 0x20 DUP3 DUP5 SUB SLT ISZERO PUSH2 0xE7F JUMPI PUSH1 0x0 DUP1 REVERT JUMPDEST PUSH2 0xCB6 DUP3 PUSH2 0xE5D JUMP JUMPDEST PUSH4 0x4E487B71 PUSH1 0xE0 SHL PUSH1 0x0 MSTORE PUSH1 0x11 PUSH1 0x4 MSTORE PUSH1 0x24 PUSH1 0x0 REVERT JUMPDEST DUP1 DUP3 ADD DUP1 DUP3 GT ISZERO PUSH2 0xCB9 JUMPI PUSH2 0xCB9 PUSH2 0xE88 JUMP JUMPDEST DUP2 DUP2 SUB DUP2 DUP2 GT ISZERO PUSH2 0xCB9 JUMPI PUSH2 0xCB9 PUSH2 0xE88 JUMP JUMPDEST PUSH1 0x0 DUP3 MLOAD PUSH1 0x0 JUMPDEST DUP2 DUP2 LT ISZERO PUSH2 0xEE5 JUMPI PUSH1 0x20 DUP2 DUP7 ADD DUP2 ADD MLOAD DUP6 DUP4 ADD MSTORE ADD PUSH2 0xECB JUMP JUMPDEST POP PUSH1 0x0 SWAP3 ADD SWAP2 DUP3 MSTORE POP SWAP2 SWAP1 POP JUMP JUMPDEST PUSH1 0x0 DUP1 PUSH1 0x40 DUP4 DUP6 SUB SLT ISZERO PUSH2 0xF06 JUMPI PUSH1 0x0 DUP1 REVERT JUMPDEST PUSH2 0xF0F DUP4 PUSH2 0xE5D JUMP JUMPDEST SWAP2 POP PUSH1 0x20 DUP4 ADD MLOAD PUSH4 0xFFFFFFFF DUP2 AND DUP2 EQ PUSH2 0xF28 JUMPI PUSH1 0x0 DUP1 REVERT JUMPDEST DUP1 SWAP2 POP POP SWAP3 POP SWAP3 SWAP1 POP JUMP INVALID LOG1 PUSH5 0x736F6C6343 STOP ADDMOD EQ STOP EXP "},"gasEstimates":{"creation":{"codeDepositCost":"780800","executionCost":"infinite","totalCost":"infinite"},"external":{"authority()":"2397","balanceOf(address)":"infinite","clean(address)":"infinite","empty(address)":"infinite","give(address,uint256)":"infinite","isAgent(address)":"infinite","isConsumingScheduledOp()":"2429","pause()":"infinite","paused()":"2377","refuel(address,uint256)":"infinite","setAuthority(address)":"30501","setVesting(address)":"infinite","unpause()":"infinite","vesting()":"2343"}},"methodIdentifiers":{"authority()":"bf7e214f","balanceOf(address)":"70a08231","clean(address)":"169b2623","empty(address)":"486581ea","give(address,uint256)":"f00388f7","isAgent(address)":"1ffbb064","isConsumingScheduledOp()":"8fb36037","pause()":"8456cb59","paused()":"5c975abb","refuel(address,uint256)":"5eb6ba80","setAuthority(address)":"7a9e5e4b","setVesting(address)":"6f6ff3bc","unpause()":"3f4ba83a","vesting()":"44c63eec"}},"storageLayout":{"storage":[{"astId":14,"contract":"contracts/management/CXBTokenBounty.sol:CXBTokenBounty","label":"amountsDistributed","offset":0,"slot":"0","type":"t_struct(AddressToUintMap)5122_storage"},{"astId":17,"contract":"contracts/management/CXBTokenBounty.sol:CXBTokenBounty","label":"amountsAvailable","offset":0,"slot":"3","type":"t_struct(AddressToUintMap)5122_storage"},{"astId":19,"contract":"contracts/management/CXBTokenBounty.sol:CXBTokenBounty","label":"token","offset":0,"slot":"6","type":"t_address"},{"astId":21,"contract":"contracts/management/CXBTokenBounty.sol:CXBTokenBounty","label":"vestingAddress","offset":0,"slot":"7","type":"t_address"},{"astId":23,"contract":"contracts/management/CXBTokenBounty.sol:CXBTokenBounty","label":"totalTokens","offset":0,"slot":"8","type":"t_uint256"},{"astId":666,"contract":"contracts/management/CXBTokenBounty.sol:CXBTokenBounty","label":"_authority","offset":0,"slot":"9","type":"t_address"},{"astId":668,"contract":"contracts/management/CXBTokenBounty.sol:CXBTokenBounty","label":"_consumingSchedule","offset":20,"slot":"9","type":"t_bool"},{"astId":1525,"contract":"contracts/management/CXBTokenBounty.sol:CXBTokenBounty","label":"_paused","offset":21,"slot":"9","type":"t_bool"}],"types":{"t_address":{"encoding":"inplace","label":"address","numberOfBytes":"20"},"t_array(t_bytes32)dyn_storage":{"base":"t_bytes32","encoding":"dynamic_array","label":"bytes32[]","numberOfBytes":"32"},"t_bool":{"encoding":"inplace","label":"bool","numberOfBytes":"1"},"t_bytes32":{"encoding":"inplace","label":"bytes32","numberOfBytes":"32"},"t_mapping(t_bytes32,t_bytes32)":{"encoding":"mapping","key":"t_bytes32","label":"mapping(bytes32 => bytes32)","numberOfBytes":"32","value":"t_bytes32"},"t_mapping(t_bytes32,t_uint256)":{"encoding":"mapping","key":"t_bytes32","label":"mapping(bytes32 => uint256)","numberOfBytes":"32","value":"t_uint256"},"t_struct(AddressToUintMap)5122_storage":{"encoding":"inplace","label":"struct EnumerableMap.AddressToUintMap","members":[{"astId":5121,"contract":"contracts/management/CXBTokenBounty.sol:CXBTokenBounty","label":"_inner","offset":0,"slot":"0","type":"t_struct(Bytes32ToBytes32Map)4464_storage"}],"numberOfBytes":"96"},"t_struct(Bytes32Set)5762_storage":{"encoding":"inplace","label":"struct EnumerableSet.Bytes32Set","members":[{"astId":5761,"contract":"contracts/management/CXBTokenBounty.sol:CXBTokenBounty","label":"_inner","offset":0,"slot":"0","type":"t_struct(Set)5568_storage"}],"numberOfBytes":"64"},"t_struct(Bytes32ToBytes32Map)4464_storage":{"encoding":"inplace","label":"struct EnumerableMap.Bytes32ToBytes32Map","members":[{"astId":4459,"contract":"contracts/management/CXBTokenBounty.sol:CXBTokenBounty","label":"_keys","offset":0,"slot":"0","type":"t_struct(Bytes32Set)5762_storage"},{"astId":4463,"contract":"contracts/management/CXBTokenBounty.sol:CXBTokenBounty","label":"_values","offset":0,"slot":"2","type":"t_mapping(t_bytes32,t_bytes32)"}],"numberOfBytes":"96"},"t_struct(Set)5568_storage":{"encoding":"inplace","label":"struct EnumerableSet.Set","members":[{"astId":5563,"contract":"contracts/management/CXBTokenBounty.sol:CXBTokenBounty","label":"_values","offset":0,"slot":"0","type":"t_array(t_bytes32)dyn_storage"},{"astId":5567,"contract":"contracts/management/CXBTokenBounty.sol:CXBTokenBounty","label":"_positions","offset":0,"slot":"1","type":"t_mapping(t_bytes32,t_uint256)"}],"numberOfBytes":"64"},"t_uint256":{"encoding":"inplace","label":"uint256","numberOfBytes":"32"}}},"userdoc":{"kind":"user","methods":{},"version":1}}}}