{"@openzeppelin/contracts/access/manager/AccessManager.sol":{"AccessManager":{"abi":[{"inputs":[{"internalType":"address","name":"initialAdmin","type":"address"}],"stateMutability":"nonpayable","type":"constructor"},{"inputs":[{"internalType":"bytes32","name":"operationId","type":"bytes32"}],"name":"AccessManagerAlreadyScheduled","type":"error"},{"inputs":[],"name":"AccessManagerBadConfirmation","type":"error"},{"inputs":[{"internalType":"bytes32","name":"operationId","type":"bytes32"}],"name":"AccessManagerExpired","type":"error"},{"inputs":[{"internalType":"address","name":"initialAdmin","type":"address"}],"name":"AccessManagerInvalidInitialAdmin","type":"error"},{"inputs":[{"internalType":"address","name":"account","type":"address"}],"name":"AccessManagerLockedAccount","type":"error"},{"inputs":[{"internalType":"uint64","name":"roleId","type":"uint64"}],"name":"AccessManagerLockedRole","type":"error"},{"inputs":[{"internalType":"bytes32","name":"operationId","type":"bytes32"}],"name":"AccessManagerNotReady","type":"error"},{"inputs":[{"internalType":"bytes32","name":"operationId","type":"bytes32"}],"name":"AccessManagerNotScheduled","type":"error"},{"inputs":[{"internalType":"address","name":"msgsender","type":"address"},{"internalType":"uint64","name":"roleId","type":"uint64"}],"name":"AccessManagerUnauthorizedAccount","type":"error"},{"inputs":[{"internalType":"address","name":"caller","type":"address"},{"internalType":"address","name":"target","type":"address"},{"internalType":"bytes4","name":"selector","type":"bytes4"}],"name":"AccessManagerUnauthorizedCall","type":"error"},{"inputs":[{"internalType":"address","name":"msgsender","type":"address"},{"internalType":"address","name":"caller","type":"address"},{"internalType":"address","name":"target","type":"address"},{"internalType":"bytes4","name":"selector","type":"bytes4"}],"name":"AccessManagerUnauthorizedCancel","type":"error"},{"inputs":[{"internalType":"address","name":"target","type":"address"}],"name":"AccessManagerUnauthorizedConsume","type":"error"},{"inputs":[{"internalType":"address","name":"target","type":"address"}],"name":"AddressEmptyCode","type":"error"},{"inputs":[{"internalType":"address","name":"account","type":"address"}],"name":"AddressInsufficientBalance","type":"error"},{"inputs":[],"name":"FailedInnerCall","type":"error"},{"inputs":[{"internalType":"uint8","name":"bits","type":"uint8"},{"internalType":"uint256","name":"value","type":"uint256"}],"name":"SafeCastOverflowedUintDowncast","type":"error"},{"anonymous":false,"inputs":[{"indexed":true,"internalType":"bytes32","name":"operationId","type":"bytes32"},{"indexed":true,"internalType":"uint32","name":"nonce","type":"uint32"}],"name":"OperationCanceled","type":"event"},{"anonymous":false,"inputs":[{"indexed":true,"internalType":"bytes32","name":"operationId","type":"bytes32"},{"indexed":true,"internalType":"uint32","name":"nonce","type":"uint32"}],"name":"OperationExecuted","type":"event"},{"anonymous":false,"inputs":[{"indexed":true,"internalType":"bytes32","name":"operationId","type":"bytes32"},{"indexed":true,"internalType":"uint32","name":"nonce","type":"uint32"},{"indexed":false,"internalType":"uint48","name":"schedule","type":"uint48"},{"indexed":false,"internalType":"address","name":"caller","type":"address"},{"indexed":false,"internalType":"address","name":"target","type":"address"},{"indexed":false,"internalType":"bytes","name":"data","type":"bytes"}],"name":"OperationScheduled","type":"event"},{"anonymous":false,"inputs":[{"indexed":true,"internalType":"uint64","name":"roleId","type":"uint64"},{"indexed":true,"internalType":"uint64","name":"admin","type":"uint64"}],"name":"RoleAdminChanged","type":"event"},{"anonymous":false,"inputs":[{"indexed":true,"internalType":"uint64","name":"roleId","type":"uint64"},{"indexed":false,"internalType":"uint32","name":"delay","type":"uint32"},{"indexed":false,"internalType":"uint48","name":"since","type":"uint48"}],"name":"RoleGrantDelayChanged","type":"event"},{"anonymous":false,"inputs":[{"indexed":true,"internalType":"uint64","name":"roleId","type":"uint64"},{"indexed":true,"internalType":"address","name":"account","type":"address"},{"indexed":false,"internalType":"uint32","name":"delay","type":"uint32"},{"indexed":false,"internalType":"uint48","name":"since","type":"uint48"},{"indexed":false,"internalType":"bool","name":"newMember","type":"bool"}],"name":"RoleGranted","type":"event"},{"anonymous":false,"inputs":[{"indexed":true,"internalType":"uint64","name":"roleId","type":"uint64"},{"indexed":true,"internalType":"uint64","name":"guardian","type":"uint64"}],"name":"RoleGuardianChanged","type":"event"},{"anonymous":false,"inputs":[{"indexed":true,"internalType":"uint64","name":"roleId","type":"uint64"},{"indexed":false,"internalType":"string","name":"label","type":"string"}],"name":"RoleLabel","type":"event"},{"anonymous":false,"inputs":[{"indexed":true,"internalType":"uint64","name":"roleId","type":"uint64"},{"indexed":true,"internalType":"address","name":"account","type":"address"}],"name":"RoleRevoked","type":"event"},{"anonymous":false,"inputs":[{"indexed":true,"internalType":"address","name":"target","type":"address"},{"indexed":false,"internalType":"uint32","name":"delay","type":"uint32"},{"indexed":false,"internalType":"uint48","name":"since","type":"uint48"}],"name":"TargetAdminDelayUpdated","type":"event"},{"anonymous":false,"inputs":[{"indexed":true,"internalType":"address","name":"target","type":"address"},{"indexed":false,"internalType":"bool","name":"closed","type":"bool"}],"name":"TargetClosed","type":"event"},{"anonymous":false,"inputs":[{"indexed":true,"internalType":"address","name":"target","type":"address"},{"indexed":false,"internalType":"bytes4","name":"selector","type":"bytes4"},{"indexed":true,"internalType":"uint64","name":"roleId","type":"uint64"}],"name":"TargetFunctionRoleUpdated","type":"event"},{"inputs":[],"name":"ADMIN_ROLE","outputs":[{"internalType":"uint64","name":"","type":"uint64"}],"stateMutability":"view","type":"function"},{"inputs":[],"name":"PUBLIC_ROLE","outputs":[{"internalType":"uint64","name":"","type":"uint64"}],"stateMutability":"view","type":"function"},{"inputs":[{"internalType":"address","name":"caller","type":"address"},{"internalType":"address","name":"target","type":"address"},{"internalType":"bytes4","name":"selector","type":"bytes4"}],"name":"canCall","outputs":[{"internalType":"bool","name":"immediate","type":"bool"},{"internalType":"uint32","name":"delay","type":"uint32"}],"stateMutability":"view","type":"function"},{"inputs":[{"internalType":"address","name":"caller","type":"address"},{"internalType":"address","name":"target","type":"address"},{"internalType":"bytes","name":"data","type":"bytes"}],"name":"cancel","outputs":[{"internalType":"uint32","name":"","type":"uint32"}],"stateMutability":"nonpayable","type":"function"},{"inputs":[{"internalType":"address","name":"caller","type":"address"},{"internalType":"bytes","name":"data","type":"bytes"}],"name":"consumeScheduledOp","outputs":[],"stateMutability":"nonpayable","type":"function"},{"inputs":[{"internalType":"address","name":"target","type":"address"},{"internalType":"bytes","name":"data","type":"bytes"}],"name":"execute","outputs":[{"internalType":"uint32","name":"","type":"uint32"}],"stateMutability":"payable","type":"function"},{"inputs":[],"name":"expiration","outputs":[{"internalType":"uint32","name":"","type":"uint32"}],"stateMutability":"view","type":"function"},{"inputs":[{"internalType":"uint64","name":"roleId","type":"uint64"},{"internalType":"address","name":"account","type":"address"}],"name":"getAccess","outputs":[{"internalType":"uint48","name":"since","type":"uint48"},{"internalType":"uint32","name":"currentDelay","type":"uint32"},{"internalType":"uint32","name":"pendingDelay","type":"uint32"},{"internalType":"uint48","name":"effect","type":"uint48"}],"stateMutability":"view","type":"function"},{"inputs":[{"internalType":"bytes32","name":"id","type":"bytes32"}],"name":"getNonce","outputs":[{"internalType":"uint32","name":"","type":"uint32"}],"stateMutability":"view","type":"function"},{"inputs":[{"internalType":"uint64","name":"roleId","type":"uint64"}],"name":"getRoleAdmin","outputs":[{"internalType":"uint64","name":"","type":"uint64"}],"stateMutability":"view","type":"function"},{"inputs":[{"internalType":"uint64","name":"roleId","type":"uint64"}],"name":"getRoleGrantDelay","outputs":[{"internalType":"uint32","name":"","type":"uint32"}],"stateMutability":"view","type":"function"},{"inputs":[{"internalType":"uint64","name":"roleId","type":"uint64"}],"name":"getRoleGuardian","outputs":[{"internalType":"uint64","name":"","type":"uint64"}],"stateMutability":"view","type":"function"},{"inputs":[{"internalType":"bytes32","name":"id","type":"bytes32"}],"name":"getSchedule","outputs":[{"internalType":"uint48","name":"","type":"uint48"}],"stateMutability":"view","type":"function"},{"inputs":[{"internalType":"address","name":"target","type":"address"}],"name":"getTargetAdminDelay","outputs":[{"internalType":"uint32","name":"","type":"uint32"}],"stateMutability":"view","type":"function"},{"inputs":[{"internalType":"address","name":"target","type":"address"},{"internalType":"bytes4","name":"selector","type":"bytes4"}],"name":"getTargetFunctionRole","outputs":[{"internalType":"uint64","name":"","type":"uint64"}],"stateMutability":"view","type":"function"},{"inputs":[{"internalType":"uint64","name":"roleId","type":"uint64"},{"internalType":"address","name":"account","type":"address"},{"internalType":"uint32","name":"executionDelay","type":"uint32"}],"name":"grantRole","outputs":[],"stateMutability":"nonpayable","type":"function"},{"inputs":[{"internalType":"uint64","name":"roleId","type":"uint64"},{"internalType":"address","name":"account","type":"address"}],"name":"hasRole","outputs":[{"internalType":"bool","name":"isMember","type":"bool"},{"internalType":"uint32","name":"executionDelay","type":"uint32"}],"stateMutability":"view","type":"function"},{"inputs":[{"internalType":"address","name":"caller","type":"address"},{"internalType":"address","name":"target","type":"address"},{"internalType":"bytes","name":"data","type":"bytes"}],"name":"hashOperation","outputs":[{"internalType":"bytes32","name":"","type":"bytes32"}],"stateMutability":"view","type":"function"},{"inputs":[{"internalType":"address","name":"target","type":"address"}],"name":"isTargetClosed","outputs":[{"internalType":"bool","name":"","type":"bool"}],"stateMutability":"view","type":"function"},{"inputs":[{"internalType":"uint64","name":"roleId","type":"uint64"},{"internalType":"string","name":"label","type":"string"}],"name":"labelRole","outputs":[],"stateMutability":"nonpayable","type":"function"},{"inputs":[],"name":"minSetback","outputs":[{"internalType":"uint32","name":"","type":"uint32"}],"stateMutability":"view","type":"function"},{"inputs":[{"internalType":"bytes[]","name":"data","type":"bytes[]"}],"name":"multicall","outputs":[{"internalType":"bytes[]","name":"results","type":"bytes[]"}],"stateMutability":"nonpayable","type":"function"},{"inputs":[{"internalType":"uint64","name":"roleId","type":"uint64"},{"internalType":"address","name":"callerConfirmation","type":"address"}],"name":"renounceRole","outputs":[],"stateMutability":"nonpayable","type":"function"},{"inputs":[{"internalType":"uint64","name":"roleId","type":"uint64"},{"internalType":"address","name":"account","type":"address"}],"name":"revokeRole","outputs":[],"stateMutability":"nonpayable","type":"function"},{"inputs":[{"internalType":"address","name":"target","type":"address"},{"internalType":"bytes","name":"data","type":"bytes"},{"internalType":"uint48","name":"when","type":"uint48"}],"name":"schedule","outputs":[{"internalType":"bytes32","name":"operationId","type":"bytes32"},{"internalType":"uint32","name":"nonce","type":"uint32"}],"stateMutability":"nonpayable","type":"function"},{"inputs":[{"internalType":"uint64","name":"roleId","type":"uint64"},{"internalType":"uint32","name":"newDelay","type":"uint32"}],"name":"setGrantDelay","outputs":[],"stateMutability":"nonpayable","type":"function"},{"inputs":[{"internalType":"uint64","name":"roleId","type":"uint64"},{"internalType":"uint64","name":"admin","type":"uint64"}],"name":"setRoleAdmin","outputs":[],"stateMutability":"nonpayable","type":"function"},{"inputs":[{"internalType":"uint64","name":"roleId","type":"uint64"},{"internalType":"uint64","name":"guardian","type":"uint64"}],"name":"setRoleGuardian","outputs":[],"stateMutability":"nonpayable","type":"function"},{"inputs":[{"internalType":"address","name":"target","type":"address"},{"internalType":"uint32","name":"newDelay","type":"uint32"}],"name":"setTargetAdminDelay","outputs":[],"stateMutability":"nonpayable","type":"function"},{"inputs":[{"internalType":"address","name":"target","type":"address"},{"internalType":"bool","name":"closed","type":"bool"}],"name":"setTargetClosed","outputs":[],"stateMutability":"nonpayable","type":"function"},{"inputs":[{"internalType":"address","name":"target","type":"address"},{"internalType":"bytes4[]","name":"selectors","type":"bytes4[]"},{"internalType":"uint64","name":"roleId","type":"uint64"}],"name":"setTargetFunctionRole","outputs":[],"stateMutability":"nonpayable","type":"function"},{"inputs":[{"internalType":"address","name":"target","type":"address"},{"internalType":"address","name":"newAuthority","type":"address"}],"name":"updateAuthority","outputs":[],"stateMutability":"nonpayable","type":"function"}],"evm":{"bytecode":{"linkReferences":{},"object":"60806040523480156200001157600080fd5b5060405162002e9d38038062002e9d83398101604081905262000034916200048f565b6001600160a01b0381166200006457604051630409d6d160e11b8152600060048201526024015b60405180910390fd5b6200007360008281806200007b565b505062000519565b60006002600160401b03196001600160401b03861601620000bb5760405163061c6a4360e21b81526001600160401b03861660048201526024016200005b565b6001600160401b03851660009081526001602090815260408083206001600160a01b038816845290915281205465ffffffffffff1615908115620001ba5763ffffffff85166200010a620002d2565b620001169190620004d0565b905060405180604001604052808265ffffffffffff168152602001620001488663ffffffff16620002e460201b60201c565b6001600160701b039081169091526001600160401b03891660009081526001602090815260408083206001600160a01b038c16845282529091208351815494909201519092166601000000000000026001600160a01b031990931665ffffffffffff9091161791909117905562000264565b6001600160401b03871660009081526001602090815260408083206001600160a01b038a168452909152812054620002099166010000000000009091046001600160701b0316908690620002ed565b6001600160401b03891660009081526001602090815260408083206001600160a01b038c168452909152902080546001600160701b03909316660100000000000002600160301b600160a01b03199093169290921790915590505b6040805163ffffffff8616815265ffffffffffff831660208201528315158183015290516001600160a01b038816916001600160401b038a16917ff98448b987f1428e0e230e1f3c6e2ce15b5693eaf31827fbd0b1ec4b424ae7cf9181900360600190a35095945050505050565b6000620002df42620003a2565b905090565b63ffffffff1690565b60008080620003056001600160701b038716620003db565b90506000620003488563ffffffff168763ffffffff168463ffffffff1611620003305760006200033c565b6200033c8885620004f9565b63ffffffff16620003fc565b905063ffffffff81166200035b620002d2565b620003679190620004d0565b925063ffffffff8616602083901b67ffffffff0000000016604085901b6dffffffffffff000000000000000016171793505050935093915050565b600065ffffffffffff821115620003d7576040516306dfcc6560e41b815260306004820152602481018390526044016200005b565b5090565b600080620003f26001600160701b03841662000416565b5090949350505050565b60008183116200040d57816200040f565b825b9392505050565b600080806200042f8462000429620002d2565b6200043c565b9250925092509193909250565b600080806001600160501b03602086901c166001600160701b03861665ffffffffffff604088901c81169087168111156200047a578282826200047f565b816000805b9550955095505050509250925092565b600060208284031215620004a257600080fd5b81516001600160a01b03811681146200040f57600080fd5b634e487b7160e01b600052601160045260246000fd5b65ffffffffffff818116838216019080821115620004f257620004f2620004ba565b5092915050565b63ffffffff828116828216039080821115620004f257620004f2620004ba565b61297480620005296000396000f3fe6080604052600436106101e35760003560e01c80636d5115bd11610102578063b700961311610095578063d22b598911610064578063d22b598914610681578063d6bb62c6146106a1578063f801a698146106c1578063fe0776f5146106fb57600080fd5b8063b7009613146105ef578063b7d2b1621461062b578063cc1b6c811461064b578063d1f856ee1461066157600080fd5b8063a166aa89116100d1578063a166aa8914610521578063a64d95ce14610574578063abd9bd2a14610594578063ac9650d8146105c257600080fd5b80636d5115bd146104ac57806375b238fc146104cc578063853551b8146104e157806394c7d7ee1461050157600080fd5b806330cae1871161017a5780634665096d116101495780634665096d146104195780634c1da1e21461042f578063529629521461044f578063530dd4561461046f57600080fd5b806330cae1871461036d5780633adc277a1461038d5780633ca7c02a146103c45780634136a33c146103df57600080fd5b806318ff183c116101b657806318ff183c146102c05780631cff79cd146102e057806325c471a0146102f35780633078f1141461031357600080fd5b806308d6122d146101e85780630b0a93ba1461020a57806312be87271461026b578063167bd395146102a0575b600080fd5b3480156101f457600080fd5b506102086102033660046121c3565b61071b565b005b34801561021657600080fd5b5061024e610225366004612229565b6001600160401b0390811660009081526001602081905260409091200154600160401b90041690565b6040516001600160401b0390911681526020015b60405180910390f35b34801561027757600080fd5b5061028b610286366004612229565b610776565b60405163ffffffff9091168152602001610262565b3480156102ac57600080fd5b506102086102bb366004612244565b6107b1565b3480156102cc57600080fd5b506102086102db366004612282565b6107c7565b61028b6102ee3660046122f1565b61082e565b3480156102ff57600080fd5b5061020861030e366004612359565b61095e565b34801561031f57600080fd5b5061033361032e36600461239e565b610980565b604051610262949392919065ffffffffffff948516815263ffffffff93841660208201529190921660408201529116606082015260800190565b34801561037957600080fd5b506102086103883660046123ba565b6109e5565b34801561039957600080fd5b506103ad6103a83660046123ed565b6109f7565b60405165ffffffffffff9091168152602001610262565b3480156103d057600080fd5b5061024e6001600160401b0381565b3480156103eb57600080fd5b5061028b6103fa3660046123ed565b600090815260026020526040902054600160301b900463ffffffff1690565b34801561042557600080fd5b5062093a8061028b565b34801561043b57600080fd5b5061028b61044a366004612406565b610a2a565b34801561045b57600080fd5b5061020861046a3660046123ba565b610a58565b34801561047b57600080fd5b5061024e61048a366004612229565b6001600160401b03908116600090815260016020819052604090912001541690565b3480156104b857600080fd5b5061024e6104c7366004612439565b610a6a565b3480156104d857600080fd5b5061024e600081565b3480156104ed57600080fd5b506102086104fc366004612467565b610aa5565b34801561050d57600080fd5b5061020861051c3660046122f1565b610b3c565b34801561052d57600080fd5b5061056461053c366004612406565b6001600160a01b0316600090815260208190526040902060010154600160701b900460ff1690565b6040519015158152602001610262565b34801561058057600080fd5b5061020861058f366004612485565b610be8565b3480156105a057600080fd5b506105b46105af3660046124af565b610bfa565b604051908152602001610262565b3480156105ce57600080fd5b506105e26105dd366004612513565b610c33565b6040516102629190612578565b3480156105fb57600080fd5b5061060f61060a3660046125f2565b610d25565b60408051921515835263ffffffff909116602083015201610262565b34801561063757600080fd5b5061020861064636600461239e565b610dc8565b34801561065757600080fd5b506206978061028b565b34801561066d57600080fd5b5061060f61067c36600461239e565b610ddf565b34801561068d57600080fd5b5061020861069c36600461263d565b610e5c565b3480156106ad57600080fd5b5061028b6106bc3660046124af565b610e6e565b3480156106cd57600080fd5b506106e16106dc36600461265b565b610fc8565b6040805192835263ffffffff909116602083015201610262565b34801561070757600080fd5b5061020861071636600461239e565b61110d565b610723611136565b60005b8281101561076f5761075f85858584818110610744576107446126cd565b905060200201602081019061075991906126e3565b846111b1565b61076881612716565b9050610726565b5050505050565b6001600160401b0381166000908152600160208190526040822001546107ab90600160801b90046001600160701b0316611233565b92915050565b6107b9611136565b6107c38282611252565b5050565b6107cf611136565b604051637a9e5e4b60e01b81526001600160a01b038281166004830152831690637a9e5e4b90602401600060405180830381600087803b15801561081257600080fd5b505af1158015610826573d6000803e3d6000fd5b505050505050565b600033818061083f838888886112f8565b9150915081158015610855575063ffffffff8116155b156108a8578287610866888861134b565b6040516381c6f24b60e01b81526001600160a01b0393841660048201529290911660248301526001600160e01b03191660448201526064015b60405180910390fd5b60006108b684898989610bfa565b9050600063ffffffff83161515806108dd57506108d2826109f7565b65ffffffffffff1615155b156108ee576108eb82611363565b90505b6003546109048a6108ff8b8b61134b565b611463565b60038190555061094c8a8a8a8080601f0160208091040260200160405190810160405280939291908181526020018383808284376000920191909152503492506114a5915050565b506003559450505050505b9392505050565b610966611136565b61097a838361097486610776565b84611542565b50505050565b6001600160401b03821660009081526001602090815260408083206001600160a01b03851684529091528120805465ffffffffffff8116929182918291906109d790600160301b90046001600160701b031661178d565b969991985096509350505050565b6109ed611136565b6107c382826117b0565b60008181526002602052604081205465ffffffffffff16610a1781611854565b610a215780610957565b60009392505050565b6001600160a01b0381166000908152602081905260408120600101546107ab906001600160701b0316611233565b610a60611136565b6107c38282611883565b6001600160a01b0382166000908152602081815260408083206001600160e01b0319851684529091529020546001600160401b031692915050565b610aad611136565b6001600160401b0383161580610acb57506001600160401b03838116145b15610af45760405163061c6a4360e21b81526001600160401b038416600482015260240161089f565b826001600160401b03167f1256f5b5ecb89caec12db449738f2fbcd1ba5806cf38f35413f4e5c15bf6a4508383604051610b2f929190612758565b60405180910390a2505050565b60408051638fb3603760e01b80825291513392918391638fb36037916004808201926020929091908290030181865afa158015610b7d573d6000803e3d6000fd5b505050506040513d601f19601f82011682018060405250810190610ba19190612774565b6001600160e01b03191614610bd457604051630641fee960e31b81526001600160a01b038216600482015260240161089f565b61076f610be385838686610bfa565b611363565b610bf0611136565b6107c38282611935565b600084848484604051602001610c139493929190612791565b604051602081830303815290604052805190602001209050949350505050565b604080516000815260208101909152606090826001600160401b03811115610c5d57610c5d6127e8565b604051908082528060200260200182016040528015610c9057816020015b6060815260200190600190039081610c7b5790505b50915060005b83811015610d1d57610ced30868684818110610cb457610cb46126cd565b9050602002810190610cc691906127fe565b85604051602001610cd993929190612844565b604051602081830303815290604052611a46565b838281518110610cff57610cff6126cd565b60200260200101819052508080610d1590612716565b915050610c96565b505092915050565b6001600160a01b0382166000908152602081905260408120600101548190600160701b900460ff1615610d5d57506000905080610dc0565b306001600160a01b03861603610d8257610d778484611abc565b600091509150610dc0565b6000610d8e8585610a6a565b9050600080610d9d8389610ddf565b9150915081610dae57600080610db8565b63ffffffff811615815b945094505050505b935093915050565b610dd0611136565b610dda8282611ad3565b505050565b60008067fffffffffffffffe196001600160401b03851601610e075750600190506000610e55565b600080610e148686610980565b5050915091508165ffffffffffff16600014158015610e4a5750610e36611bc0565b65ffffffffffff168265ffffffffffff1611155b93509150610e559050565b9250929050565b610e64611136565b6107c38282611bd0565b60003381610e7c858561134b565b90506000610e8c88888888610bfa565b60008181526002602052604081205491925065ffffffffffff9091169003610eca5760405163060a299b60e41b81526004810182905260240161089f565b826001600160a01b0316886001600160a01b031614610f66576000610ef0600085610ddf565b5090506000610f0b610f056102258b87610a6a565b86610ddf565b50905081158015610f1a575080155b15610f6357604051630ff89d4760e21b81526001600160a01b038087166004830152808c1660248301528a1660448201526001600160e01b03198516606482015260840161089f565b50505b600081815260026020526040808220805465ffffffffffff1916908190559051600160301b90910463ffffffff1691829184917fbd9ac67a6e2f6463b80927326310338bcbb4bdb7936ce1365ea3e01067e7b9f791a398975050505050505050565b6000803381610fd9828989896112f8565b91505060008163ffffffff16610fed611bc0565b610ff7919061286b565b905063ffffffff8216158061102e575060008665ffffffffffff1611801561102e57508065ffffffffffff168665ffffffffffff16105b1561103f5782896108668a8a61134b565b6110598665ffffffffffff168265ffffffffffff16611c8d565b9550611067838a8a8a610bfa565b945061107285611ca3565b60008581526002602052604090819020805465ffffffffffff891669ffffffffffffffffffff19821617600160301b9182900463ffffffff90811660010190811692830291909117909255915190955086907f82a2da5dee54ea8021c6545b4444620291e07ee83be6dd57edb175062715f3b4906110f9908a9088908f908f908f90612891565b60405180910390a350505094509492505050565b6001600160a01b0381163314610dd057604051635f159e6360e01b815260040160405180910390fd5b33600080611145838236611cf0565b9150915081610dda578063ffffffff166000036111a15760006111688136611da8565b5060405163f07e038f60e01b81526001600160a01b03871660048201526001600160401b0382166024820152909250604401905061089f565b61097a610be38430600036610bfa565b6001600160a01b0383166000818152602081815260408083206001600160e01b0319871680855290835292819020805467ffffffffffffffff19166001600160401b038716908117909155905192835292917f9ea6790c7dadfd01c9f8b9762b3682607af2c7e79e05a9f9fdf5580dde949151910160405180910390a3505050565b600080611248836001600160701b031661178d565b5090949350505050565b306001600160a01b0383160361128657604051630b40d17960e31b81526001600160a01b038316600482015260240161089f565b6001600160a01b038216600081815260208190526040908190206001018054841515600160701b0260ff60701b19909116179055517f90d4e7bb7e5d933792b3562e1741306f8be94837e1348dacef9b6f1df56eb138906112ec90841515815260200190565b60405180910390a25050565b600080306001600160a01b0386160361131f57611316868585611cf0565b91509150611342565b6004831061133b57611336868661060a878761134b565b611316565b5060009050805b94509492505050565b600061135a60048284866127be565b610957916128d7565b60008181526002602052604081205465ffffffffffff811690600160301b900463ffffffff168183036113ac5760405163060a299b60e41b81526004810185905260240161089f565b6113b4611bc0565b65ffffffffffff168265ffffffffffff1611156113e757604051630c65b5bd60e11b81526004810185905260240161089f565b6113f082611854565b1561141157604051631e2975b960e21b81526004810185905260240161089f565b600084815260026020526040808220805465ffffffffffff191690555163ffffffff83169186917f76a2a46953689d4861a5d3f6ed883ad7e6af674a21f8e162707159fc9dde614d9190a39392505050565b604080516001600160a01b03939093166020808501919091526001600160e01b0319929092168382015280518084038201815260609093019052815191012090565b6060814710156114ca5760405163cd78605960e01b815230600482015260240161089f565b600080856001600160a01b031684866040516114e69190612905565b60006040518083038185875af1925050503d8060008114611523576040519150601f19603f3d011682016040523d82523d6000602084013e611528565b606091505b5091509150611538868383611f91565b9695505050505050565b600067fffffffffffffffe196001600160401b038616016115815760405163061c6a4360e21b81526001600160401b038616600482015260240161089f565b6001600160401b03851660009081526001602090815260408083206001600160a01b038816845290915281205465ffffffffffff1615908115611673578463ffffffff166115cd611bc0565b6115d7919061286b565b905060405180604001604052808265ffffffffffff1681526020016116058663ffffffff1663ffffffff1690565b6001600160701b039081169091526001600160401b03891660009081526001602090815260408083206001600160a01b038c1684528252909120835181549490920151909216600160301b026001600160a01b031990931665ffffffffffff9091161791909117905561171f565b6001600160401b03871660009081526001602090815260408083206001600160a01b038a1684529091528120546116bd91600160301b9091046001600160701b0316908690611fed565b6001600160401b03891660009081526001602090815260408083206001600160a01b038c168452909152902080546001600160701b03909316600160301b0273ffffffffffffffffffffffffffff000000000000199093169290921790915590505b6040805163ffffffff8616815265ffffffffffff831660208201528315158183015290516001600160a01b038816916001600160401b038a16917ff98448b987f1428e0e230e1f3c6e2ce15b5693eaf31827fbd0b1ec4b424ae7cf9181900360600190a35095945050505050565b60008060006117a38461179e611bc0565b612097565b9250925092509193909250565b6001600160401b03821615806117ce57506001600160401b03828116145b156117f75760405163061c6a4360e21b81526001600160401b038316600482015260240161089f565b6001600160401b038281166000818152600160208190526040808320909101805467ffffffffffffffff19169486169485179055517f1fd6dd7631312dfac2205b52913f99de03b4d7e381d5d27d3dbfe0713e6e63409190a35050565b600061185e611bc0565b65ffffffffffff1661187362093a808461286b565b65ffffffffffff16111592915050565b6001600160401b03821615806118a157506001600160401b03828116145b156118ca5760405163061c6a4360e21b81526001600160401b038316600482015260240161089f565b6001600160401b03828116600081815260016020819052604080832090910180546fffffffffffffffff00000000000000001916600160401b958716958602179055517f7a8059630b897b5de4c08ade69f8b90c3ead1f8596d62d10b6c4d14a0afb4ae29190a35050565b67fffffffffffffffe196001600160401b038316016119725760405163061c6a4360e21b81526001600160401b038316600482015260240161089f565b6001600160401b0382166000908152600160208190526040822001546119ac90600160801b90046001600160701b03168362069780611fed565b6001600160401b0385166000818152600160208190526040918290200180546001600160701b03909516600160801b026dffffffffffffffffffffffffffff60801b199095169490941790935591519092507ffeb69018ee8b8fd50ea86348f1267d07673379f72cffdeccec63853ee8ce8b4890610b2f908590859063ffffffff92909216825265ffffffffffff16602082015260400190565b6060600080846001600160a01b031684604051611a639190612905565b600060405180830381855af49150503d8060008114611a9e576040519150601f19603f3d011682016040523d82523d6000602084013e611aa3565b606091505b5091509150611ab3858383611f91565b95945050505050565b6000611ac88383611463565b600354149392505050565b600067fffffffffffffffe196001600160401b03841601611b125760405163061c6a4360e21b81526001600160401b038416600482015260240161089f565b6001600160401b03831660009081526001602090815260408083206001600160a01b038616845290915281205465ffffffffffff169003611b55575060006107ab565b6001600160401b03831660008181526001602090815260408083206001600160a01b038716808552925280832080546001600160a01b0319169055519092917ff229baa593af28c41b1d16b748cd7688f0c83aaf92d4be41c44005defe84c16691a350600192915050565b6000611bcb426120eb565b905090565b6001600160a01b038216600090815260208190526040812060010154611c03906001600160701b03168362069780611fed565b6001600160a01b0385166000818152602081815260409182902060010180546dffffffffffffffffffffffffffff19166001600160701b039690961695909517909455805163ffffffff8716815265ffffffffffff841694810194909452919350917fa56b76017453f399ec2327ba00375dbfb1fd070ff854341ad6191e6a2e2de19c9101610b2f565b6000818311611c9c5781610957565b5090919050565b60008181526002602052604090205465ffffffffffff168015801590611ccf5750611ccd81611854565b155b156107c35760405163813e945960e01b81526004810183905260240161089f565b6000806004831015611d0757506000905080610dc0565b306001600160a01b03861603611d2a57610d7730611d25868661134b565b611abc565b6000806000611d398787611da8565b92509250925082611d535760008094509450505050610dc0565b600080611d60848b610ddf565b9150915081611d7a57600080965096505050505050610dc0565b611d908363ffffffff168263ffffffff16611c8d565b63ffffffff8116159b909a5098505050505050505050565b600080806004841015611dc357506000915081905080611f8a565b6000611dcf868661134b565b90506001600160e01b031981166310a6aa3760e31b1480611e0057506001600160e01b031981166330cae18760e01b145b80611e1b57506001600160e01b0319811663294b14a960e11b145b80611e3657506001600160e01b03198116635326cae760e11b145b80611e5157506001600160e01b0319811663d22b598960e01b145b15611e6757600160008093509350935050611f8a565b6001600160e01b0319811663063fc60f60e21b1480611e9657506001600160e01b0319811663167bd39560e01b145b80611eb157506001600160e01b031981166308d6122d60e01b145b15611ef3576000611ec660246004888a6127be565b810190611ed39190612406565b90506000611ee082610a2a565b60019650600095509350611f8a92505050565b6001600160e01b0319811663012e238d60e51b1480611f2257506001600160e01b03198116635be958b160e11b145b15611f7d576000611f3760246004888a6127be565b810190611f449190612229565b90506001611f6e826001600160401b03908116600090815260016020819052604090912001541690565b60009450945094505050611f8a565b6000806000935093509350505b9250925092565b606082611fa657611fa182612122565b610957565b8151158015611fbd57506001600160a01b0384163b155b15611fe657604051639996b31560e01b81526001600160a01b038516600482015260240161089f565b5080610957565b6000806000612004866001600160701b0316611233565b905060006120418563ffffffff168763ffffffff168463ffffffff161161202c576000612036565b6120368885612921565b63ffffffff16611c8d565b90508063ffffffff16612052611bc0565b61205c919061286b565b925063ffffffff8616602083901b67ffffffff0000000016604085901b6dffffffffffff000000000000000016171793505050935093915050565b6000808069ffffffffffffffffffff602086901c166001600160701b03861665ffffffffffff604088901c81169087168111156120d6578282826120db565b816000805b9550955095505050509250925092565b600065ffffffffffff82111561211e576040516306dfcc6560e41b8152603060048201526024810183905260440161089f565b5090565b8051156121325780518082602001fd5b604051630a12f52160e11b815260040160405180910390fd5b50565b6001600160a01b038116811461214b57600080fd5b60008083601f84011261217557600080fd5b5081356001600160401b0381111561218c57600080fd5b6020830191508360208260051b8501011115610e5557600080fd5b80356001600160401b03811681146121be57600080fd5b919050565b600080600080606085870312156121d957600080fd5b84356121e48161214e565b935060208501356001600160401b038111156121ff57600080fd5b61220b87828801612163565b909450925061221e9050604086016121a7565b905092959194509250565b60006020828403121561223b57600080fd5b610957826121a7565b6000806040838503121561225757600080fd5b82356122628161214e565b91506020830135801515811461227757600080fd5b809150509250929050565b6000806040838503121561229557600080fd5b82356122a08161214e565b915060208301356122778161214e565b60008083601f8401126122c257600080fd5b5081356001600160401b038111156122d957600080fd5b602083019150836020828501011115610e5557600080fd5b60008060006040848603121561230657600080fd5b83356123118161214e565b925060208401356001600160401b0381111561232c57600080fd5b612338868287016122b0565b9497909650939450505050565b803563ffffffff811681146121be57600080fd5b60008060006060848603121561236e57600080fd5b612377846121a7565b925060208401356123878161214e565b915061239560408501612345565b90509250925092565b600080604083850312156123b157600080fd5b6122a0836121a7565b600080604083850312156123cd57600080fd5b6123d6836121a7565b91506123e4602084016121a7565b90509250929050565b6000602082840312156123ff57600080fd5b5035919050565b60006020828403121561241857600080fd5b81356109578161214e565b6001600160e01b03198116811461214b57600080fd5b6000806040838503121561244c57600080fd5b82356124578161214e565b9150602083013561227781612423565b60008060006040848603121561247c57600080fd5b612311846121a7565b6000806040838503121561249857600080fd5b6124a1836121a7565b91506123e460208401612345565b600080600080606085870312156124c557600080fd5b84356124d08161214e565b935060208501356124e08161214e565b925060408501356001600160401b038111156124fb57600080fd5b612507878288016122b0565b95989497509550505050565b6000806020838503121561252657600080fd5b82356001600160401b0381111561253c57600080fd5b61254885828601612163565b90969095509350505050565b60005b8381101561256f578181015183820152602001612557565b50506000910152565b6000602080830181845280855180835260408601915060408160051b870101925083870160005b828110156125e557878503603f19018452815180518087526125c6818989018a8501612554565b601f01601f19169590950186019450928501929085019060010161259f565b5092979650505050505050565b60008060006060848603121561260757600080fd5b83356126128161214e565b925060208401356126228161214e565b9150604084013561263281612423565b809150509250925092565b6000806040838503121561265057600080fd5b82356124a18161214e565b6000806000806060858703121561267157600080fd5b843561267c8161214e565b935060208501356001600160401b0381111561269757600080fd5b6126a3878288016122b0565b909450925050604085013565ffffffffffff811681146126c257600080fd5b939692955090935050565b634e487b7160e01b600052603260045260246000fd5b6000602082840312156126f557600080fd5b813561095781612423565b634e487b7160e01b600052601160045260246000fd5b60006001820161272857612728612700565b5060010190565b81835281816020850137506000828201602090810191909152601f909101601f19169091010190565b60208152600061276c60208301848661272f565b949350505050565b60006020828403121561278657600080fd5b815161095781612423565b6001600160a01b03858116825284166020820152606060408201819052600090611538908301848661272f565b600080858511156127ce57600080fd5b838611156127db57600080fd5b5050820193919092039150565b634e487b7160e01b600052604160045260246000fd5b6000808335601e1984360301811261281557600080fd5b8301803591506001600160401b0382111561282f57600080fd5b602001915036819003821315610e5557600080fd5b828482376000838201600081528351612861818360208801612554565b0195945050505050565b65ffffffffffff81811683821601908082111561288a5761288a612700565b5092915050565b65ffffffffffff861681526001600160a01b038581166020830152841660408201526080606082018190526000906128cc908301848661272f565b979650505050505050565b6001600160e01b03198135818116916004851015610d1d5760049490940360031b84901b1690921692915050565b60008251612917818460208701612554565b9190910192915050565b63ffffffff82811682821603908082111561288a5761288a61270056fea264697066735822122037bbc11563374f6bd234a27ef2edf20dcbbd9a9dcac8d2d5051075484111442064736f6c63430008140033","opcodes":"PUSH1 0x80 PUSH1 0x40 MSTORE CALLVALUE DUP1 ISZERO PUSH3 0x11 JUMPI PUSH1 0x0 DUP1 REVERT JUMPDEST POP PUSH1 0x40 MLOAD PUSH3 0x2E9D CODESIZE SUB DUP1 PUSH3 0x2E9D DUP4 CODECOPY DUP2 ADD PUSH1 0x40 DUP2 SWAP1 MSTORE PUSH3 0x34 SWAP2 PUSH3 0x48F JUMP JUMPDEST PUSH1 0x1 PUSH1 0x1 PUSH1 0xA0 SHL SUB DUP2 AND PUSH3 0x64 JUMPI PUSH1 0x40 MLOAD PUSH4 0x409D6D1 PUSH1 0xE1 SHL DUP2 MSTORE PUSH1 0x0 PUSH1 0x4 DUP3 ADD MSTORE PUSH1 0x24 ADD JUMPDEST PUSH1 0x40 MLOAD DUP1 SWAP2 SUB SWAP1 REVERT JUMPDEST PUSH3 0x73 PUSH1 0x0 DUP3 DUP2 DUP1 PUSH3 0x7B JUMP JUMPDEST POP POP PUSH3 0x519 JUMP JUMPDEST PUSH1 0x0 PUSH1 0x2 PUSH1 0x1 PUSH1 0x40 SHL SUB NOT PUSH1 0x1 PUSH1 0x1 PUSH1 0x40 SHL SUB DUP7 AND ADD PUSH3 0xBB JUMPI PUSH1 0x40 MLOAD PUSH4 0x61C6A43 PUSH1 0xE2 SHL DUP2 MSTORE PUSH1 0x1 PUSH1 0x1 PUSH1 0x40 SHL SUB DUP7 AND PUSH1 0x4 DUP3 ADD MSTORE PUSH1 0x24 ADD PUSH3 0x5B JUMP JUMPDEST PUSH1 0x1 PUSH1 0x1 PUSH1 0x40 SHL SUB DUP6 AND PUSH1 0x0 SWAP1 DUP2 MSTORE PUSH1 0x1 PUSH1 0x20 SWAP1 DUP2 MSTORE PUSH1 0x40 DUP1 DUP4 KECCAK256 PUSH1 0x1 PUSH1 0x1 PUSH1 0xA0 SHL SUB DUP9 AND DUP5 MSTORE SWAP1 SWAP2 MSTORE DUP2 KECCAK256 SLOAD PUSH6 0xFFFFFFFFFFFF AND ISZERO SWAP1 DUP2 ISZERO PUSH3 0x1BA JUMPI PUSH4 0xFFFFFFFF DUP6 AND PUSH3 0x10A PUSH3 0x2D2 JUMP JUMPDEST PUSH3 0x116 SWAP2 SWAP1 PUSH3 0x4D0 JUMP JUMPDEST SWAP1 POP PUSH1 0x40 MLOAD DUP1 PUSH1 0x40 ADD PUSH1 0x40 MSTORE DUP1 DUP3 PUSH6 0xFFFFFFFFFFFF AND DUP2 MSTORE PUSH1 0x20 ADD PUSH3 0x148 DUP7 PUSH4 0xFFFFFFFF AND PUSH3 0x2E4 PUSH1 0x20 SHL PUSH1 0x20 SHR JUMP JUMPDEST PUSH1 0x1 PUSH1 0x1 PUSH1 0x70 SHL SUB SWAP1 DUP2 AND SWAP1 SWAP2 MSTORE PUSH1 0x1 PUSH1 0x1 PUSH1 0x40 SHL SUB DUP10 AND PUSH1 0x0 SWAP1 DUP2 MSTORE PUSH1 0x1 PUSH1 0x20 SWAP1 DUP2 MSTORE PUSH1 0x40 DUP1 DUP4 KECCAK256 PUSH1 0x1 PUSH1 0x1 PUSH1 0xA0 SHL SUB DUP13 AND DUP5 MSTORE DUP3 MSTORE SWAP1 SWAP2 KECCAK256 DUP4 MLOAD DUP2 SLOAD SWAP5 SWAP1 SWAP3 ADD MLOAD SWAP1 SWAP3 AND PUSH7 0x1000000000000 MUL PUSH1 0x1 PUSH1 0x1 PUSH1 0xA0 SHL SUB NOT SWAP1 SWAP4 AND PUSH6 0xFFFFFFFFFFFF SWAP1 SWAP2 AND OR SWAP2 SWAP1 SWAP2 OR SWAP1 SSTORE PUSH3 0x264 JUMP JUMPDEST PUSH1 0x1 PUSH1 0x1 PUSH1 0x40 SHL SUB DUP8 AND PUSH1 0x0 SWAP1 DUP2 MSTORE PUSH1 0x1 PUSH1 0x20 SWAP1 DUP2 MSTORE PUSH1 0x40 DUP1 DUP4 KECCAK256 PUSH1 0x1 PUSH1 0x1 PUSH1 0xA0 SHL SUB DUP11 AND DUP5 MSTORE SWAP1 SWAP2 MSTORE DUP2 KECCAK256 SLOAD PUSH3 0x209 SWAP2 PUSH7 0x1000000000000 SWAP1 SWAP2 DIV PUSH1 0x1 PUSH1 0x1 PUSH1 0x70 SHL SUB AND SWAP1 DUP7 SWAP1 PUSH3 0x2ED JUMP JUMPDEST PUSH1 0x1 PUSH1 0x1 PUSH1 0x40 SHL SUB DUP10 AND PUSH1 0x0 SWAP1 DUP2 MSTORE PUSH1 0x1 PUSH1 0x20 SWAP1 DUP2 MSTORE PUSH1 0x40 DUP1 DUP4 KECCAK256 PUSH1 0x1 PUSH1 0x1 PUSH1 0xA0 SHL SUB DUP13 AND DUP5 MSTORE SWAP1 SWAP2 MSTORE SWAP1 KECCAK256 DUP1 SLOAD PUSH1 0x1 PUSH1 0x1 PUSH1 0x70 SHL SUB SWAP1 SWAP4 AND PUSH7 0x1000000000000 MUL PUSH1 0x1 PUSH1 0x30 SHL PUSH1 0x1 PUSH1 0xA0 SHL SUB NOT SWAP1 SWAP4 AND SWAP3 SWAP1 SWAP3 OR SWAP1 SWAP2 SSTORE SWAP1 POP JUMPDEST PUSH1 0x40 DUP1 MLOAD PUSH4 0xFFFFFFFF DUP7 AND DUP2 MSTORE PUSH6 0xFFFFFFFFFFFF DUP4 AND PUSH1 0x20 DUP3 ADD MSTORE DUP4 ISZERO ISZERO DUP2 DUP4 ADD MSTORE SWAP1 MLOAD PUSH1 0x1 PUSH1 0x1 PUSH1 0xA0 SHL SUB DUP9 AND SWAP2 PUSH1 0x1 PUSH1 0x1 PUSH1 0x40 SHL SUB DUP11 AND SWAP2 PUSH32 0xF98448B987F1428E0E230E1F3C6E2CE15B5693EAF31827FBD0B1EC4B424AE7CF SWAP2 DUP2 SWAP1 SUB PUSH1 0x60 ADD SWAP1 LOG3 POP SWAP6 SWAP5 POP POP POP POP POP JUMP JUMPDEST PUSH1 0x0 PUSH3 0x2DF TIMESTAMP PUSH3 0x3A2 JUMP JUMPDEST SWAP1 POP SWAP1 JUMP JUMPDEST PUSH4 0xFFFFFFFF AND SWAP1 JUMP JUMPDEST PUSH1 0x0 DUP1 DUP1 PUSH3 0x305 PUSH1 0x1 PUSH1 0x1 PUSH1 0x70 SHL SUB DUP8 AND PUSH3 0x3DB JUMP JUMPDEST SWAP1 POP PUSH1 0x0 PUSH3 0x348 DUP6 PUSH4 0xFFFFFFFF AND DUP8 PUSH4 0xFFFFFFFF AND DUP5 PUSH4 0xFFFFFFFF AND GT PUSH3 0x330 JUMPI PUSH1 0x0 PUSH3 0x33C JUMP JUMPDEST PUSH3 0x33C DUP9 DUP6 PUSH3 0x4F9 JUMP JUMPDEST PUSH4 0xFFFFFFFF AND PUSH3 0x3FC JUMP JUMPDEST SWAP1 POP PUSH4 0xFFFFFFFF DUP2 AND PUSH3 0x35B PUSH3 0x2D2 JUMP JUMPDEST PUSH3 0x367 SWAP2 SWAP1 PUSH3 0x4D0 JUMP JUMPDEST SWAP3 POP PUSH4 0xFFFFFFFF DUP7 AND PUSH1 0x20 DUP4 SWAP1 SHL PUSH8 0xFFFFFFFF00000000 AND PUSH1 0x40 DUP6 SWAP1 SHL PUSH14 0xFFFFFFFFFFFF0000000000000000 AND OR OR SWAP4 POP POP POP SWAP4 POP SWAP4 SWAP2 POP POP JUMP JUMPDEST PUSH1 0x0 PUSH6 0xFFFFFFFFFFFF DUP3 GT ISZERO PUSH3 0x3D7 JUMPI PUSH1 0x40 MLOAD PUSH4 0x6DFCC65 PUSH1 0xE4 SHL DUP2 MSTORE PUSH1 0x30 PUSH1 0x4 DUP3 ADD MSTORE PUSH1 0x24 DUP2 ADD DUP4 SWAP1 MSTORE PUSH1 0x44 ADD PUSH3 0x5B JUMP JUMPDEST POP SWAP1 JUMP JUMPDEST PUSH1 0x0 DUP1 PUSH3 0x3F2 PUSH1 0x1 PUSH1 0x1 PUSH1 0x70 SHL SUB DUP5 AND PUSH3 0x416 JUMP JUMPDEST POP SWAP1 SWAP5 SWAP4 POP POP POP POP JUMP JUMPDEST PUSH1 0x0 DUP2 DUP4 GT PUSH3 0x40D JUMPI DUP2 PUSH3 0x40F JUMP JUMPDEST DUP3 JUMPDEST SWAP4 SWAP3 POP POP POP JUMP JUMPDEST PUSH1 0x0 DUP1 DUP1 PUSH3 0x42F DUP5 PUSH3 0x429 PUSH3 0x2D2 JUMP JUMPDEST PUSH3 0x43C JUMP JUMPDEST SWAP3 POP SWAP3 POP SWAP3 POP SWAP2 SWAP4 SWAP1 SWAP3 POP JUMP JUMPDEST PUSH1 0x0 DUP1 DUP1 PUSH1 0x1 PUSH1 0x1 PUSH1 0x50 SHL SUB PUSH1 0x20 DUP7 SWAP1 SHR AND PUSH1 0x1 PUSH1 0x1 PUSH1 0x70 SHL SUB DUP7 AND PUSH6 0xFFFFFFFFFFFF PUSH1 0x40 DUP9 SWAP1 SHR DUP2 AND SWAP1 DUP8 AND DUP2 GT ISZERO PUSH3 0x47A JUMPI DUP3 DUP3 DUP3 PUSH3 0x47F JUMP JUMPDEST DUP2 PUSH1 0x0 DUP1 JUMPDEST SWAP6 POP SWAP6 POP SWAP6 POP POP POP POP SWAP3 POP SWAP3 POP SWAP3 JUMP JUMPDEST PUSH1 0x0 PUSH1 0x20 DUP3 DUP5 SUB SLT ISZERO PUSH3 0x4A2 JUMPI PUSH1 0x0 DUP1 REVERT JUMPDEST DUP2 MLOAD PUSH1 0x1 PUSH1 0x1 PUSH1 0xA0 SHL SUB DUP2 AND DUP2 EQ PUSH3 0x40F JUMPI PUSH1 0x0 DUP1 REVERT JUMPDEST PUSH4 0x4E487B71 PUSH1 0xE0 SHL PUSH1 0x0 MSTORE PUSH1 0x11 PUSH1 0x4 MSTORE PUSH1 0x24 PUSH1 0x0 REVERT JUMPDEST PUSH6 0xFFFFFFFFFFFF DUP2 DUP2 AND DUP4 DUP3 AND ADD SWAP1 DUP1 DUP3 GT ISZERO PUSH3 0x4F2 JUMPI PUSH3 0x4F2 PUSH3 0x4BA JUMP JUMPDEST POP SWAP3 SWAP2 POP POP JUMP JUMPDEST PUSH4 0xFFFFFFFF DUP3 DUP2 AND DUP3 DUP3 AND SUB SWAP1 DUP1 DUP3 GT ISZERO PUSH3 0x4F2 JUMPI PUSH3 0x4F2 PUSH3 0x4BA JUMP JUMPDEST PUSH2 0x2974 DUP1 PUSH3 0x529 PUSH1 0x0 CODECOPY PUSH1 0x0 RETURN INVALID PUSH1 0x80 PUSH1 0x40 MSTORE PUSH1 0x4 CALLDATASIZE LT PUSH2 0x1E3 JUMPI PUSH1 0x0 CALLDATALOAD PUSH1 0xE0 SHR DUP1 PUSH4 0x6D5115BD GT PUSH2 0x102 JUMPI DUP1 PUSH4 0xB7009613 GT PUSH2 0x95 JUMPI DUP1 PUSH4 0xD22B5989 GT PUSH2 0x64 JUMPI DUP1 PUSH4 0xD22B5989 EQ PUSH2 0x681 JUMPI DUP1 PUSH4 0xD6BB62C6 EQ PUSH2 0x6A1 JUMPI DUP1 PUSH4 0xF801A698 EQ PUSH2 0x6C1 JUMPI DUP1 PUSH4 0xFE0776F5 EQ PUSH2 0x6FB JUMPI PUSH1 0x0 DUP1 REVERT JUMPDEST DUP1 PUSH4 0xB7009613 EQ PUSH2 0x5EF JUMPI DUP1 PUSH4 0xB7D2B162 EQ PUSH2 0x62B JUMPI DUP1 PUSH4 0xCC1B6C81 EQ PUSH2 0x64B JUMPI DUP1 PUSH4 0xD1F856EE EQ PUSH2 0x661 JUMPI PUSH1 0x0 DUP1 REVERT JUMPDEST DUP1 PUSH4 0xA166AA89 GT PUSH2 0xD1 JUMPI DUP1 PUSH4 0xA166AA89 EQ PUSH2 0x521 JUMPI DUP1 PUSH4 0xA64D95CE EQ PUSH2 0x574 JUMPI DUP1 PUSH4 0xABD9BD2A EQ PUSH2 0x594 JUMPI DUP1 PUSH4 0xAC9650D8 EQ PUSH2 0x5C2 JUMPI PUSH1 0x0 DUP1 REVERT JUMPDEST DUP1 PUSH4 0x6D5115BD EQ PUSH2 0x4AC JUMPI DUP1 PUSH4 0x75B238FC EQ PUSH2 0x4CC JUMPI DUP1 PUSH4 0x853551B8 EQ PUSH2 0x4E1 JUMPI DUP1 PUSH4 0x94C7D7EE EQ PUSH2 0x501 JUMPI PUSH1 0x0 DUP1 REVERT JUMPDEST DUP1 PUSH4 0x30CAE187 GT PUSH2 0x17A JUMPI DUP1 PUSH4 0x4665096D GT PUSH2 0x149 JUMPI DUP1 PUSH4 0x4665096D EQ PUSH2 0x419 JUMPI DUP1 PUSH4 0x4C1DA1E2 EQ PUSH2 0x42F JUMPI DUP1 PUSH4 0x52962952 EQ PUSH2 0x44F JUMPI DUP1 PUSH4 0x530DD456 EQ PUSH2 0x46F JUMPI PUSH1 0x0 DUP1 REVERT JUMPDEST DUP1 PUSH4 0x30CAE187 EQ PUSH2 0x36D JUMPI DUP1 PUSH4 0x3ADC277A EQ PUSH2 0x38D JUMPI DUP1 PUSH4 0x3CA7C02A EQ PUSH2 0x3C4 JUMPI DUP1 PUSH4 0x4136A33C EQ PUSH2 0x3DF JUMPI PUSH1 0x0 DUP1 REVERT JUMPDEST DUP1 PUSH4 0x18FF183C GT PUSH2 0x1B6 JUMPI DUP1 PUSH4 0x18FF183C EQ PUSH2 0x2C0 JUMPI DUP1 PUSH4 0x1CFF79CD EQ PUSH2 0x2E0 JUMPI DUP1 PUSH4 0x25C471A0 EQ PUSH2 0x2F3 JUMPI DUP1 PUSH4 0x3078F114 EQ PUSH2 0x313 JUMPI PUSH1 0x0 DUP1 REVERT JUMPDEST DUP1 PUSH4 0x8D6122D EQ PUSH2 0x1E8 JUMPI DUP1 PUSH4 0xB0A93BA EQ PUSH2 0x20A JUMPI DUP1 PUSH4 0x12BE8727 EQ PUSH2 0x26B JUMPI DUP1 PUSH4 0x167BD395 EQ PUSH2 0x2A0 JUMPI JUMPDEST PUSH1 0x0 DUP1 REVERT JUMPDEST CALLVALUE DUP1 ISZERO PUSH2 0x1F4 JUMPI PUSH1 0x0 DUP1 REVERT JUMPDEST POP PUSH2 0x208 PUSH2 0x203 CALLDATASIZE PUSH1 0x4 PUSH2 0x21C3 JUMP JUMPDEST PUSH2 0x71B JUMP JUMPDEST STOP JUMPDEST CALLVALUE DUP1 ISZERO PUSH2 0x216 JUMPI PUSH1 0x0 DUP1 REVERT JUMPDEST POP PUSH2 0x24E PUSH2 0x225 CALLDATASIZE PUSH1 0x4 PUSH2 0x2229 JUMP JUMPDEST PUSH1 0x1 PUSH1 0x1 PUSH1 0x40 SHL SUB SWAP1 DUP2 AND PUSH1 0x0 SWAP1 DUP2 MSTORE PUSH1 0x1 PUSH1 0x20 DUP2 SWAP1 MSTORE PUSH1 0x40 SWAP1 SWAP2 KECCAK256 ADD SLOAD PUSH1 0x1 PUSH1 0x40 SHL SWAP1 DIV AND SWAP1 JUMP JUMPDEST PUSH1 0x40 MLOAD PUSH1 0x1 PUSH1 0x1 PUSH1 0x40 SHL SUB SWAP1 SWAP2 AND DUP2 MSTORE PUSH1 0x20 ADD JUMPDEST PUSH1 0x40 MLOAD DUP1 SWAP2 SUB SWAP1 RETURN JUMPDEST CALLVALUE DUP1 ISZERO PUSH2 0x277 JUMPI PUSH1 0x0 DUP1 REVERT JUMPDEST POP PUSH2 0x28B PUSH2 0x286 CALLDATASIZE PUSH1 0x4 PUSH2 0x2229 JUMP JUMPDEST PUSH2 0x776 JUMP JUMPDEST PUSH1 0x40 MLOAD PUSH4 0xFFFFFFFF SWAP1 SWAP2 AND DUP2 MSTORE PUSH1 0x20 ADD PUSH2 0x262 JUMP JUMPDEST CALLVALUE DUP1 ISZERO PUSH2 0x2AC JUMPI PUSH1 0x0 DUP1 REVERT JUMPDEST POP PUSH2 0x208 PUSH2 0x2BB CALLDATASIZE PUSH1 0x4 PUSH2 0x2244 JUMP JUMPDEST PUSH2 0x7B1 JUMP JUMPDEST CALLVALUE DUP1 ISZERO PUSH2 0x2CC JUMPI PUSH1 0x0 DUP1 REVERT JUMPDEST POP PUSH2 0x208 PUSH2 0x2DB CALLDATASIZE PUSH1 0x4 PUSH2 0x2282 JUMP JUMPDEST PUSH2 0x7C7 JUMP JUMPDEST PUSH2 0x28B PUSH2 0x2EE CALLDATASIZE PUSH1 0x4 PUSH2 0x22F1 JUMP JUMPDEST PUSH2 0x82E JUMP JUMPDEST CALLVALUE DUP1 ISZERO PUSH2 0x2FF JUMPI PUSH1 0x0 DUP1 REVERT JUMPDEST POP PUSH2 0x208 PUSH2 0x30E CALLDATASIZE PUSH1 0x4 PUSH2 0x2359 JUMP JUMPDEST PUSH2 0x95E JUMP JUMPDEST CALLVALUE DUP1 ISZERO PUSH2 0x31F JUMPI PUSH1 0x0 DUP1 REVERT JUMPDEST POP PUSH2 0x333 PUSH2 0x32E CALLDATASIZE PUSH1 0x4 PUSH2 0x239E JUMP JUMPDEST PUSH2 0x980 JUMP JUMPDEST PUSH1 0x40 MLOAD PUSH2 0x262 SWAP5 SWAP4 SWAP3 SWAP2 SWAP1 PUSH6 0xFFFFFFFFFFFF SWAP5 DUP6 AND DUP2 MSTORE PUSH4 0xFFFFFFFF SWAP4 DUP5 AND PUSH1 0x20 DUP3 ADD MSTORE SWAP2 SWAP1 SWAP3 AND PUSH1 0x40 DUP3 ADD MSTORE SWAP2 AND PUSH1 0x60 DUP3 ADD MSTORE PUSH1 0x80 ADD SWAP1 JUMP JUMPDEST CALLVALUE DUP1 ISZERO PUSH2 0x379 JUMPI PUSH1 0x0 DUP1 REVERT JUMPDEST POP PUSH2 0x208 PUSH2 0x388 CALLDATASIZE PUSH1 0x4 PUSH2 0x23BA JUMP JUMPDEST PUSH2 0x9E5 JUMP JUMPDEST CALLVALUE DUP1 ISZERO PUSH2 0x399 JUMPI PUSH1 0x0 DUP1 REVERT JUMPDEST POP PUSH2 0x3AD PUSH2 0x3A8 CALLDATASIZE PUSH1 0x4 PUSH2 0x23ED JUMP JUMPDEST PUSH2 0x9F7 JUMP JUMPDEST PUSH1 0x40 MLOAD PUSH6 0xFFFFFFFFFFFF SWAP1 SWAP2 AND DUP2 MSTORE PUSH1 0x20 ADD PUSH2 0x262 JUMP JUMPDEST CALLVALUE DUP1 ISZERO PUSH2 0x3D0 JUMPI PUSH1 0x0 DUP1 REVERT JUMPDEST POP PUSH2 0x24E PUSH1 0x1 PUSH1 0x1 PUSH1 0x40 SHL SUB DUP2 JUMP JUMPDEST CALLVALUE DUP1 ISZERO PUSH2 0x3EB JUMPI PUSH1 0x0 DUP1 REVERT JUMPDEST POP PUSH2 0x28B PUSH2 0x3FA CALLDATASIZE PUSH1 0x4 PUSH2 0x23ED JUMP JUMPDEST PUSH1 0x0 SWAP1 DUP2 MSTORE PUSH1 0x2 PUSH1 0x20 MSTORE PUSH1 0x40 SWAP1 KECCAK256 SLOAD PUSH1 0x1 PUSH1 0x30 SHL SWAP1 DIV PUSH4 0xFFFFFFFF AND SWAP1 JUMP JUMPDEST CALLVALUE DUP1 ISZERO PUSH2 0x425 JUMPI PUSH1 0x0 DUP1 REVERT JUMPDEST POP PUSH3 0x93A80 PUSH2 0x28B JUMP JUMPDEST CALLVALUE DUP1 ISZERO PUSH2 0x43B JUMPI PUSH1 0x0 DUP1 REVERT JUMPDEST POP PUSH2 0x28B PUSH2 0x44A CALLDATASIZE PUSH1 0x4 PUSH2 0x2406 JUMP JUMPDEST PUSH2 0xA2A JUMP JUMPDEST CALLVALUE DUP1 ISZERO PUSH2 0x45B JUMPI PUSH1 0x0 DUP1 REVERT JUMPDEST POP PUSH2 0x208 PUSH2 0x46A CALLDATASIZE PUSH1 0x4 PUSH2 0x23BA JUMP JUMPDEST PUSH2 0xA58 JUMP JUMPDEST CALLVALUE DUP1 ISZERO PUSH2 0x47B JUMPI PUSH1 0x0 DUP1 REVERT JUMPDEST POP PUSH2 0x24E PUSH2 0x48A CALLDATASIZE PUSH1 0x4 PUSH2 0x2229 JUMP JUMPDEST PUSH1 0x1 PUSH1 0x1 PUSH1 0x40 SHL SUB SWAP1 DUP2 AND PUSH1 0x0 SWAP1 DUP2 MSTORE PUSH1 0x1 PUSH1 0x20 DUP2 SWAP1 MSTORE PUSH1 0x40 SWAP1 SWAP2 KECCAK256 ADD SLOAD AND SWAP1 JUMP JUMPDEST CALLVALUE DUP1 ISZERO PUSH2 0x4B8 JUMPI PUSH1 0x0 DUP1 REVERT JUMPDEST POP PUSH2 0x24E PUSH2 0x4C7 CALLDATASIZE PUSH1 0x4 PUSH2 0x2439 JUMP JUMPDEST PUSH2 0xA6A JUMP JUMPDEST CALLVALUE DUP1 ISZERO PUSH2 0x4D8 JUMPI PUSH1 0x0 DUP1 REVERT JUMPDEST POP PUSH2 0x24E PUSH1 0x0 DUP2 JUMP JUMPDEST CALLVALUE DUP1 ISZERO PUSH2 0x4ED JUMPI PUSH1 0x0 DUP1 REVERT JUMPDEST POP PUSH2 0x208 PUSH2 0x4FC CALLDATASIZE PUSH1 0x4 PUSH2 0x2467 JUMP JUMPDEST PUSH2 0xAA5 JUMP JUMPDEST CALLVALUE DUP1 ISZERO PUSH2 0x50D JUMPI PUSH1 0x0 DUP1 REVERT JUMPDEST POP PUSH2 0x208 PUSH2 0x51C CALLDATASIZE PUSH1 0x4 PUSH2 0x22F1 JUMP JUMPDEST PUSH2 0xB3C JUMP JUMPDEST CALLVALUE DUP1 ISZERO PUSH2 0x52D JUMPI PUSH1 0x0 DUP1 REVERT JUMPDEST POP PUSH2 0x564 PUSH2 0x53C CALLDATASIZE PUSH1 0x4 PUSH2 0x2406 JUMP JUMPDEST PUSH1 0x1 PUSH1 0x1 PUSH1 0xA0 SHL SUB AND PUSH1 0x0 SWAP1 DUP2 MSTORE PUSH1 0x20 DUP2 SWAP1 MSTORE PUSH1 0x40 SWAP1 KECCAK256 PUSH1 0x1 ADD SLOAD PUSH1 0x1 PUSH1 0x70 SHL SWAP1 DIV PUSH1 0xFF AND SWAP1 JUMP JUMPDEST PUSH1 0x40 MLOAD SWAP1 ISZERO ISZERO DUP2 MSTORE PUSH1 0x20 ADD PUSH2 0x262 JUMP JUMPDEST CALLVALUE DUP1 ISZERO PUSH2 0x580 JUMPI PUSH1 0x0 DUP1 REVERT JUMPDEST POP PUSH2 0x208 PUSH2 0x58F CALLDATASIZE PUSH1 0x4 PUSH2 0x2485 JUMP JUMPDEST PUSH2 0xBE8 JUMP JUMPDEST CALLVALUE DUP1 ISZERO PUSH2 0x5A0 JUMPI PUSH1 0x0 DUP1 REVERT JUMPDEST POP PUSH2 0x5B4 PUSH2 0x5AF CALLDATASIZE PUSH1 0x4 PUSH2 0x24AF JUMP JUMPDEST PUSH2 0xBFA JUMP JUMPDEST PUSH1 0x40 MLOAD SWAP1 DUP2 MSTORE PUSH1 0x20 ADD PUSH2 0x262 JUMP JUMPDEST CALLVALUE DUP1 ISZERO PUSH2 0x5CE JUMPI PUSH1 0x0 DUP1 REVERT JUMPDEST POP PUSH2 0x5E2 PUSH2 0x5DD CALLDATASIZE PUSH1 0x4 PUSH2 0x2513 JUMP JUMPDEST PUSH2 0xC33 JUMP JUMPDEST PUSH1 0x40 MLOAD PUSH2 0x262 SWAP2 SWAP1 PUSH2 0x2578 JUMP JUMPDEST CALLVALUE DUP1 ISZERO PUSH2 0x5FB JUMPI PUSH1 0x0 DUP1 REVERT JUMPDEST POP PUSH2 0x60F PUSH2 0x60A CALLDATASIZE PUSH1 0x4 PUSH2 0x25F2 JUMP JUMPDEST PUSH2 0xD25 JUMP JUMPDEST PUSH1 0x40 DUP1 MLOAD SWAP3 ISZERO ISZERO DUP4 MSTORE PUSH4 0xFFFFFFFF SWAP1 SWAP2 AND PUSH1 0x20 DUP4 ADD MSTORE ADD PUSH2 0x262 JUMP JUMPDEST CALLVALUE DUP1 ISZERO PUSH2 0x637 JUMPI PUSH1 0x0 DUP1 REVERT JUMPDEST POP PUSH2 0x208 PUSH2 0x646 CALLDATASIZE PUSH1 0x4 PUSH2 0x239E JUMP JUMPDEST PUSH2 0xDC8 JUMP JUMPDEST CALLVALUE DUP1 ISZERO PUSH2 0x657 JUMPI PUSH1 0x0 DUP1 REVERT JUMPDEST POP PUSH3 0x69780 PUSH2 0x28B JUMP JUMPDEST CALLVALUE DUP1 ISZERO PUSH2 0x66D JUMPI PUSH1 0x0 DUP1 REVERT JUMPDEST POP PUSH2 0x60F PUSH2 0x67C CALLDATASIZE PUSH1 0x4 PUSH2 0x239E JUMP JUMPDEST PUSH2 0xDDF JUMP JUMPDEST CALLVALUE DUP1 ISZERO PUSH2 0x68D JUMPI PUSH1 0x0 DUP1 REVERT JUMPDEST POP PUSH2 0x208 PUSH2 0x69C CALLDATASIZE PUSH1 0x4 PUSH2 0x263D JUMP JUMPDEST PUSH2 0xE5C JUMP JUMPDEST CALLVALUE DUP1 ISZERO PUSH2 0x6AD JUMPI PUSH1 0x0 DUP1 REVERT JUMPDEST POP PUSH2 0x28B PUSH2 0x6BC CALLDATASIZE PUSH1 0x4 PUSH2 0x24AF JUMP JUMPDEST PUSH2 0xE6E JUMP JUMPDEST CALLVALUE DUP1 ISZERO PUSH2 0x6CD JUMPI PUSH1 0x0 DUP1 REVERT JUMPDEST POP PUSH2 0x6E1 PUSH2 0x6DC CALLDATASIZE PUSH1 0x4 PUSH2 0x265B JUMP JUMPDEST PUSH2 0xFC8 JUMP JUMPDEST PUSH1 0x40 DUP1 MLOAD SWAP3 DUP4 MSTORE PUSH4 0xFFFFFFFF SWAP1 SWAP2 AND PUSH1 0x20 DUP4 ADD MSTORE ADD PUSH2 0x262 JUMP JUMPDEST CALLVALUE DUP1 ISZERO PUSH2 0x707 JUMPI PUSH1 0x0 DUP1 REVERT JUMPDEST POP PUSH2 0x208 PUSH2 0x716 CALLDATASIZE PUSH1 0x4 PUSH2 0x239E JUMP JUMPDEST PUSH2 0x110D JUMP JUMPDEST PUSH2 0x723 PUSH2 0x1136 JUMP JUMPDEST PUSH1 0x0 JUMPDEST DUP3 DUP2 LT ISZERO PUSH2 0x76F JUMPI PUSH2 0x75F DUP6 DUP6 DUP6 DUP5 DUP2 DUP2 LT PUSH2 0x744 JUMPI PUSH2 0x744 PUSH2 0x26CD JUMP JUMPDEST SWAP1 POP PUSH1 0x20 MUL ADD PUSH1 0x20 DUP2 ADD SWAP1 PUSH2 0x759 SWAP2 SWAP1 PUSH2 0x26E3 JUMP JUMPDEST DUP5 PUSH2 0x11B1 JUMP JUMPDEST PUSH2 0x768 DUP2 PUSH2 0x2716 JUMP JUMPDEST SWAP1 POP PUSH2 0x726 JUMP JUMPDEST POP POP POP POP POP JUMP JUMPDEST PUSH1 0x1 PUSH1 0x1 PUSH1 0x40 SHL SUB DUP2 AND PUSH1 0x0 SWAP1 DUP2 MSTORE PUSH1 0x1 PUSH1 0x20 DUP2 SWAP1 MSTORE PUSH1 0x40 DUP3 KECCAK256 ADD SLOAD PUSH2 0x7AB SWAP1 PUSH1 0x1 PUSH1 0x80 SHL SWAP1 DIV PUSH1 0x1 PUSH1 0x1 PUSH1 0x70 SHL SUB AND PUSH2 0x1233 JUMP JUMPDEST SWAP3 SWAP2 POP POP JUMP JUMPDEST PUSH2 0x7B9 PUSH2 0x1136 JUMP JUMPDEST PUSH2 0x7C3 DUP3 DUP3 PUSH2 0x1252 JUMP JUMPDEST POP POP JUMP JUMPDEST PUSH2 0x7CF PUSH2 0x1136 JUMP JUMPDEST PUSH1 0x40 MLOAD PUSH4 0x7A9E5E4B PUSH1 0xE0 SHL DUP2 MSTORE PUSH1 0x1 PUSH1 0x1 PUSH1 0xA0 SHL SUB DUP3 DUP2 AND PUSH1 0x4 DUP4 ADD MSTORE DUP4 AND SWAP1 PUSH4 0x7A9E5E4B SWAP1 PUSH1 0x24 ADD PUSH1 0x0 PUSH1 0x40 MLOAD DUP1 DUP4 SUB DUP2 PUSH1 0x0 DUP8 DUP1 EXTCODESIZE ISZERO DUP1 ISZERO PUSH2 0x812 JUMPI PUSH1 0x0 DUP1 REVERT JUMPDEST POP GAS CALL ISZERO DUP1 ISZERO PUSH2 0x826 JUMPI RETURNDATASIZE PUSH1 0x0 DUP1 RETURNDATACOPY RETURNDATASIZE PUSH1 0x0 REVERT JUMPDEST POP POP POP POP POP POP JUMP JUMPDEST PUSH1 0x0 CALLER DUP2 DUP1 PUSH2 0x83F DUP4 DUP9 DUP9 DUP9 PUSH2 0x12F8 JUMP JUMPDEST SWAP2 POP SWAP2 POP DUP2 ISZERO DUP1 ISZERO PUSH2 0x855 JUMPI POP PUSH4 0xFFFFFFFF DUP2 AND ISZERO JUMPDEST ISZERO PUSH2 0x8A8 JUMPI DUP3 DUP8 PUSH2 0x866 DUP9 DUP9 PUSH2 0x134B JUMP JUMPDEST PUSH1 0x40 MLOAD PUSH4 0x81C6F24B PUSH1 0xE0 SHL DUP2 MSTORE PUSH1 0x1 PUSH1 0x1 PUSH1 0xA0 SHL SUB SWAP4 DUP5 AND PUSH1 0x4 DUP3 ADD MSTORE SWAP3 SWAP1 SWAP2 AND PUSH1 0x24 DUP4 ADD MSTORE PUSH1 0x1 PUSH1 0x1 PUSH1 0xE0 SHL SUB NOT AND PUSH1 0x44 DUP3 ADD MSTORE PUSH1 0x64 ADD JUMPDEST PUSH1 0x40 MLOAD DUP1 SWAP2 SUB SWAP1 REVERT JUMPDEST PUSH1 0x0 PUSH2 0x8B6 DUP5 DUP10 DUP10 DUP10 PUSH2 0xBFA JUMP JUMPDEST SWAP1 POP PUSH1 0x0 PUSH4 0xFFFFFFFF DUP4 AND ISZERO ISZERO DUP1 PUSH2 0x8DD JUMPI POP PUSH2 0x8D2 DUP3 PUSH2 0x9F7 JUMP JUMPDEST PUSH6 0xFFFFFFFFFFFF AND ISZERO ISZERO JUMPDEST ISZERO PUSH2 0x8EE JUMPI PUSH2 0x8EB DUP3 PUSH2 0x1363 JUMP JUMPDEST SWAP1 POP JUMPDEST PUSH1 0x3 SLOAD PUSH2 0x904 DUP11 PUSH2 0x8FF DUP12 DUP12 PUSH2 0x134B JUMP JUMPDEST PUSH2 0x1463 JUMP JUMPDEST PUSH1 0x3 DUP2 SWAP1 SSTORE POP PUSH2 0x94C DUP11 DUP11 DUP11 DUP1 DUP1 PUSH1 0x1F ADD PUSH1 0x20 DUP1 SWAP2 DIV MUL PUSH1 0x20 ADD PUSH1 0x40 MLOAD SWAP1 DUP2 ADD PUSH1 0x40 MSTORE DUP1 SWAP4 SWAP3 SWAP2 SWAP1 DUP2 DUP2 MSTORE PUSH1 0x20 ADD DUP4 DUP4 DUP1 DUP3 DUP5 CALLDATACOPY PUSH1 0x0 SWAP3 ADD SWAP2 SWAP1 SWAP2 MSTORE POP CALLVALUE SWAP3 POP PUSH2 0x14A5 SWAP2 POP POP JUMP JUMPDEST POP PUSH1 0x3 SSTORE SWAP5 POP POP POP POP POP JUMPDEST SWAP4 SWAP3 POP POP POP JUMP JUMPDEST PUSH2 0x966 PUSH2 0x1136 JUMP JUMPDEST PUSH2 0x97A DUP4 DUP4 PUSH2 0x974 DUP7 PUSH2 0x776 JUMP JUMPDEST DUP5 PUSH2 0x1542 JUMP JUMPDEST POP POP POP POP JUMP JUMPDEST PUSH1 0x1 PUSH1 0x1 PUSH1 0x40 SHL SUB DUP3 AND PUSH1 0x0 SWAP1 DUP2 MSTORE PUSH1 0x1 PUSH1 0x20 SWAP1 DUP2 MSTORE PUSH1 0x40 DUP1 DUP4 KECCAK256 PUSH1 0x1 PUSH1 0x1 PUSH1 0xA0 SHL SUB DUP6 AND DUP5 MSTORE SWAP1 SWAP2 MSTORE DUP2 KECCAK256 DUP1 SLOAD PUSH6 0xFFFFFFFFFFFF DUP2 AND SWAP3 SWAP2 DUP3 SWAP2 DUP3 SWAP2 SWAP1 PUSH2 0x9D7 SWAP1 PUSH1 0x1 PUSH1 0x30 SHL SWAP1 DIV PUSH1 0x1 PUSH1 0x1 PUSH1 0x70 SHL SUB AND PUSH2 0x178D JUMP JUMPDEST SWAP7 SWAP10 SWAP2 SWAP9 POP SWAP7 POP SWAP4 POP POP POP POP JUMP JUMPDEST PUSH2 0x9ED PUSH2 0x1136 JUMP JUMPDEST PUSH2 0x7C3 DUP3 DUP3 PUSH2 0x17B0 JUMP JUMPDEST PUSH1 0x0 DUP2 DUP2 MSTORE PUSH1 0x2 PUSH1 0x20 MSTORE PUSH1 0x40 DUP2 KECCAK256 SLOAD PUSH6 0xFFFFFFFFFFFF AND PUSH2 0xA17 DUP2 PUSH2 0x1854 JUMP JUMPDEST PUSH2 0xA21 JUMPI DUP1 PUSH2 0x957 JUMP JUMPDEST PUSH1 0x0 SWAP4 SWAP3 POP POP POP JUMP JUMPDEST PUSH1 0x1 PUSH1 0x1 PUSH1 0xA0 SHL SUB DUP2 AND PUSH1 0x0 SWAP1 DUP2 MSTORE PUSH1 0x20 DUP2 SWAP1 MSTORE PUSH1 0x40 DUP2 KECCAK256 PUSH1 0x1 ADD SLOAD PUSH2 0x7AB SWAP1 PUSH1 0x1 PUSH1 0x1 PUSH1 0x70 SHL SUB AND PUSH2 0x1233 JUMP JUMPDEST PUSH2 0xA60 PUSH2 0x1136 JUMP JUMPDEST PUSH2 0x7C3 DUP3 DUP3 PUSH2 0x1883 JUMP JUMPDEST PUSH1 0x1 PUSH1 0x1 PUSH1 0xA0 SHL SUB DUP3 AND PUSH1 0x0 SWAP1 DUP2 MSTORE PUSH1 0x20 DUP2 DUP2 MSTORE PUSH1 0x40 DUP1 DUP4 KECCAK256 PUSH1 0x1 PUSH1 0x1 PUSH1 0xE0 SHL SUB NOT DUP6 AND DUP5 MSTORE SWAP1 SWAP2 MSTORE SWAP1 KECCAK256 SLOAD PUSH1 0x1 PUSH1 0x1 PUSH1 0x40 SHL SUB AND SWAP3 SWAP2 POP POP JUMP JUMPDEST PUSH2 0xAAD PUSH2 0x1136 JUMP JUMPDEST PUSH1 0x1 PUSH1 0x1 PUSH1 0x40 SHL SUB DUP4 AND ISZERO DUP1 PUSH2 0xACB JUMPI POP PUSH1 0x1 PUSH1 0x1 PUSH1 0x40 SHL SUB DUP4 DUP2 AND EQ JUMPDEST ISZERO PUSH2 0xAF4 JUMPI PUSH1 0x40 MLOAD PUSH4 0x61C6A43 PUSH1 0xE2 SHL DUP2 MSTORE PUSH1 0x1 PUSH1 0x1 PUSH1 0x40 SHL SUB DUP5 AND PUSH1 0x4 DUP3 ADD MSTORE PUSH1 0x24 ADD PUSH2 0x89F JUMP JUMPDEST DUP3 PUSH1 0x1 PUSH1 0x1 PUSH1 0x40 SHL SUB AND PUSH32 0x1256F5B5ECB89CAEC12DB449738F2FBCD1BA5806CF38F35413F4E5C15BF6A450 DUP4 DUP4 PUSH1 0x40 MLOAD PUSH2 0xB2F SWAP3 SWAP2 SWAP1 PUSH2 0x2758 JUMP JUMPDEST PUSH1 0x40 MLOAD DUP1 SWAP2 SUB SWAP1 LOG2 POP POP POP JUMP JUMPDEST PUSH1 0x40 DUP1 MLOAD PUSH4 0x8FB36037 PUSH1 0xE0 SHL DUP1 DUP3 MSTORE SWAP2 MLOAD CALLER SWAP3 SWAP2 DUP4 SWAP2 PUSH4 0x8FB36037 SWAP2 PUSH1 0x4 DUP1 DUP3 ADD SWAP3 PUSH1 0x20 SWAP3 SWAP1 SWAP2 SWAP1 DUP3 SWAP1 SUB ADD DUP2 DUP7 GAS STATICCALL ISZERO DUP1 ISZERO PUSH2 0xB7D JUMPI RETURNDATASIZE PUSH1 0x0 DUP1 RETURNDATACOPY RETURNDATASIZE PUSH1 0x0 REVERT JUMPDEST POP POP POP POP PUSH1 0x40 MLOAD RETURNDATASIZE PUSH1 0x1F NOT PUSH1 0x1F DUP3 ADD AND DUP3 ADD DUP1 PUSH1 0x40 MSTORE POP DUP2 ADD SWAP1 PUSH2 0xBA1 SWAP2 SWAP1 PUSH2 0x2774 JUMP JUMPDEST PUSH1 0x1 PUSH1 0x1 PUSH1 0xE0 SHL SUB NOT AND EQ PUSH2 0xBD4 JUMPI PUSH1 0x40 MLOAD PUSH4 0x641FEE9 PUSH1 0xE3 SHL DUP2 MSTORE PUSH1 0x1 PUSH1 0x1 PUSH1 0xA0 SHL SUB DUP3 AND PUSH1 0x4 DUP3 ADD MSTORE PUSH1 0x24 ADD PUSH2 0x89F JUMP JUMPDEST PUSH2 0x76F PUSH2 0xBE3 DUP6 DUP4 DUP7 DUP7 PUSH2 0xBFA JUMP JUMPDEST PUSH2 0x1363 JUMP JUMPDEST PUSH2 0xBF0 PUSH2 0x1136 JUMP JUMPDEST PUSH2 0x7C3 DUP3 DUP3 PUSH2 0x1935 JUMP JUMPDEST PUSH1 0x0 DUP5 DUP5 DUP5 DUP5 PUSH1 0x40 MLOAD PUSH1 0x20 ADD PUSH2 0xC13 SWAP5 SWAP4 SWAP3 SWAP2 SWAP1 PUSH2 0x2791 JUMP JUMPDEST PUSH1 0x40 MLOAD PUSH1 0x20 DUP2 DUP4 SUB SUB DUP2 MSTORE SWAP1 PUSH1 0x40 MSTORE DUP1 MLOAD SWAP1 PUSH1 0x20 ADD KECCAK256 SWAP1 POP SWAP5 SWAP4 POP POP POP POP JUMP JUMPDEST PUSH1 0x40 DUP1 MLOAD PUSH1 0x0 DUP2 MSTORE PUSH1 0x20 DUP2 ADD SWAP1 SWAP2 MSTORE PUSH1 0x60 SWAP1 DUP3 PUSH1 0x1 PUSH1 0x1 PUSH1 0x40 SHL SUB DUP2 GT ISZERO PUSH2 0xC5D JUMPI PUSH2 0xC5D PUSH2 0x27E8 JUMP JUMPDEST PUSH1 0x40 MLOAD SWAP1 DUP1 DUP3 MSTORE DUP1 PUSH1 0x20 MUL PUSH1 0x20 ADD DUP3 ADD PUSH1 0x40 MSTORE DUP1 ISZERO PUSH2 0xC90 JUMPI DUP2 PUSH1 0x20 ADD JUMPDEST PUSH1 0x60 DUP2 MSTORE PUSH1 0x20 ADD SWAP1 PUSH1 0x1 SWAP1 SUB SWAP1 DUP2 PUSH2 0xC7B JUMPI SWAP1 POP JUMPDEST POP SWAP2 POP PUSH1 0x0 JUMPDEST DUP4 DUP2 LT ISZERO PUSH2 0xD1D JUMPI PUSH2 0xCED ADDRESS DUP7 DUP7 DUP5 DUP2 DUP2 LT PUSH2 0xCB4 JUMPI PUSH2 0xCB4 PUSH2 0x26CD JUMP JUMPDEST SWAP1 POP PUSH1 0x20 MUL DUP2 ADD SWAP1 PUSH2 0xCC6 SWAP2 SWAP1 PUSH2 0x27FE JUMP JUMPDEST DUP6 PUSH1 0x40 MLOAD PUSH1 0x20 ADD PUSH2 0xCD9 SWAP4 SWAP3 SWAP2 SWAP1 PUSH2 0x2844 JUMP JUMPDEST PUSH1 0x40 MLOAD PUSH1 0x20 DUP2 DUP4 SUB SUB DUP2 MSTORE SWAP1 PUSH1 0x40 MSTORE PUSH2 0x1A46 JUMP JUMPDEST DUP4 DUP3 DUP2 MLOAD DUP2 LT PUSH2 0xCFF JUMPI PUSH2 0xCFF PUSH2 0x26CD JUMP JUMPDEST PUSH1 0x20 MUL PUSH1 0x20 ADD ADD DUP2 SWAP1 MSTORE POP DUP1 DUP1 PUSH2 0xD15 SWAP1 PUSH2 0x2716 JUMP JUMPDEST SWAP2 POP POP PUSH2 0xC96 JUMP JUMPDEST POP POP SWAP3 SWAP2 POP POP JUMP JUMPDEST PUSH1 0x1 PUSH1 0x1 PUSH1 0xA0 SHL SUB DUP3 AND PUSH1 0x0 SWAP1 DUP2 MSTORE PUSH1 0x20 DUP2 SWAP1 MSTORE PUSH1 0x40 DUP2 KECCAK256 PUSH1 0x1 ADD SLOAD DUP2 SWAP1 PUSH1 0x1 PUSH1 0x70 SHL SWAP1 DIV PUSH1 0xFF AND ISZERO PUSH2 0xD5D JUMPI POP PUSH1 0x0 SWAP1 POP DUP1 PUSH2 0xDC0 JUMP JUMPDEST ADDRESS PUSH1 0x1 PUSH1 0x1 PUSH1 0xA0 SHL SUB DUP7 AND SUB PUSH2 0xD82 JUMPI PUSH2 0xD77 DUP5 DUP5 PUSH2 0x1ABC JUMP JUMPDEST PUSH1 0x0 SWAP2 POP SWAP2 POP PUSH2 0xDC0 JUMP JUMPDEST PUSH1 0x0 PUSH2 0xD8E DUP6 DUP6 PUSH2 0xA6A JUMP JUMPDEST SWAP1 POP PUSH1 0x0 DUP1 PUSH2 0xD9D DUP4 DUP10 PUSH2 0xDDF JUMP JUMPDEST SWAP2 POP SWAP2 POP DUP2 PUSH2 0xDAE JUMPI PUSH1 0x0 DUP1 PUSH2 0xDB8 JUMP JUMPDEST PUSH4 0xFFFFFFFF DUP2 AND ISZERO DUP2 JUMPDEST SWAP5 POP SWAP5 POP POP POP POP JUMPDEST SWAP4 POP SWAP4 SWAP2 POP POP JUMP JUMPDEST PUSH2 0xDD0 PUSH2 0x1136 JUMP JUMPDEST PUSH2 0xDDA DUP3 DUP3 PUSH2 0x1AD3 JUMP JUMPDEST POP POP POP JUMP JUMPDEST PUSH1 0x0 DUP1 PUSH8 0xFFFFFFFFFFFFFFFE NOT PUSH1 0x1 PUSH1 0x1 PUSH1 0x40 SHL SUB DUP6 AND ADD PUSH2 0xE07 JUMPI POP PUSH1 0x1 SWAP1 POP PUSH1 0x0 PUSH2 0xE55 JUMP JUMPDEST PUSH1 0x0 DUP1 PUSH2 0xE14 DUP7 DUP7 PUSH2 0x980 JUMP JUMPDEST POP POP SWAP2 POP SWAP2 POP DUP2 PUSH6 0xFFFFFFFFFFFF AND PUSH1 0x0 EQ ISZERO DUP1 ISZERO PUSH2 0xE4A JUMPI POP PUSH2 0xE36 PUSH2 0x1BC0 JUMP JUMPDEST PUSH6 0xFFFFFFFFFFFF AND DUP3 PUSH6 0xFFFFFFFFFFFF AND GT ISZERO JUMPDEST SWAP4 POP SWAP2 POP PUSH2 0xE55 SWAP1 POP JUMP JUMPDEST SWAP3 POP SWAP3 SWAP1 POP JUMP JUMPDEST PUSH2 0xE64 PUSH2 0x1136 JUMP JUMPDEST PUSH2 0x7C3 DUP3 DUP3 PUSH2 0x1BD0 JUMP JUMPDEST PUSH1 0x0 CALLER DUP2 PUSH2 0xE7C DUP6 DUP6 PUSH2 0x134B JUMP JUMPDEST SWAP1 POP PUSH1 0x0 PUSH2 0xE8C DUP9 DUP9 DUP9 DUP9 PUSH2 0xBFA JUMP JUMPDEST PUSH1 0x0 DUP2 DUP2 MSTORE PUSH1 0x2 PUSH1 0x20 MSTORE PUSH1 0x40 DUP2 KECCAK256 SLOAD SWAP2 SWAP3 POP PUSH6 0xFFFFFFFFFFFF SWAP1 SWAP2 AND SWAP1 SUB PUSH2 0xECA JUMPI PUSH1 0x40 MLOAD PUSH4 0x60A299B PUSH1 0xE4 SHL DUP2 MSTORE PUSH1 0x4 DUP2 ADD DUP3 SWAP1 MSTORE PUSH1 0x24 ADD PUSH2 0x89F JUMP JUMPDEST DUP3 PUSH1 0x1 PUSH1 0x1 PUSH1 0xA0 SHL SUB AND DUP9 PUSH1 0x1 PUSH1 0x1 PUSH1 0xA0 SHL SUB AND EQ PUSH2 0xF66 JUMPI PUSH1 0x0 PUSH2 0xEF0 PUSH1 0x0 DUP6 PUSH2 0xDDF JUMP JUMPDEST POP SWAP1 POP PUSH1 0x0 PUSH2 0xF0B PUSH2 0xF05 PUSH2 0x225 DUP12 DUP8 PUSH2 0xA6A JUMP JUMPDEST DUP7 PUSH2 0xDDF JUMP JUMPDEST POP SWAP1 POP DUP2 ISZERO DUP1 ISZERO PUSH2 0xF1A JUMPI POP DUP1 ISZERO JUMPDEST ISZERO PUSH2 0xF63 JUMPI PUSH1 0x40 MLOAD PUSH4 0xFF89D47 PUSH1 0xE2 SHL DUP2 MSTORE PUSH1 0x1 PUSH1 0x1 PUSH1 0xA0 SHL SUB DUP1 DUP8 AND PUSH1 0x4 DUP4 ADD MSTORE DUP1 DUP13 AND PUSH1 0x24 DUP4 ADD MSTORE DUP11 AND PUSH1 0x44 DUP3 ADD MSTORE PUSH1 0x1 PUSH1 0x1 PUSH1 0xE0 SHL SUB NOT DUP6 AND PUSH1 0x64 DUP3 ADD MSTORE PUSH1 0x84 ADD PUSH2 0x89F JUMP JUMPDEST POP POP JUMPDEST PUSH1 0x0 DUP2 DUP2 MSTORE PUSH1 0x2 PUSH1 0x20 MSTORE PUSH1 0x40 DUP1 DUP3 KECCAK256 DUP1 SLOAD PUSH6 0xFFFFFFFFFFFF NOT AND SWAP1 DUP2 SWAP1 SSTORE SWAP1 MLOAD PUSH1 0x1 PUSH1 0x30 SHL SWAP1 SWAP2 DIV PUSH4 0xFFFFFFFF AND SWAP2 DUP3 SWAP2 DUP5 SWAP2 PUSH32 0xBD9AC67A6E2F6463B80927326310338BCBB4BDB7936CE1365EA3E01067E7B9F7 SWAP2 LOG3 SWAP9 SWAP8 POP POP POP POP POP POP POP POP JUMP JUMPDEST PUSH1 0x0 DUP1 CALLER DUP2 PUSH2 0xFD9 DUP3 DUP10 DUP10 DUP10 PUSH2 0x12F8 JUMP JUMPDEST SWAP2 POP POP PUSH1 0x0 DUP2 PUSH4 0xFFFFFFFF AND PUSH2 0xFED PUSH2 0x1BC0 JUMP JUMPDEST PUSH2 0xFF7 SWAP2 SWAP1 PUSH2 0x286B JUMP JUMPDEST SWAP1 POP PUSH4 0xFFFFFFFF DUP3 AND ISZERO DUP1 PUSH2 0x102E JUMPI POP PUSH1 0x0 DUP7 PUSH6 0xFFFFFFFFFFFF AND GT DUP1 ISZERO PUSH2 0x102E JUMPI POP DUP1 PUSH6 0xFFFFFFFFFFFF AND DUP7 PUSH6 0xFFFFFFFFFFFF AND LT JUMPDEST ISZERO PUSH2 0x103F JUMPI DUP3 DUP10 PUSH2 0x866 DUP11 DUP11 PUSH2 0x134B JUMP JUMPDEST PUSH2 0x1059 DUP7 PUSH6 0xFFFFFFFFFFFF AND DUP3 PUSH6 0xFFFFFFFFFFFF AND PUSH2 0x1C8D JUMP JUMPDEST SWAP6 POP PUSH2 0x1067 DUP4 DUP11 DUP11 DUP11 PUSH2 0xBFA JUMP JUMPDEST SWAP5 POP PUSH2 0x1072 DUP6 PUSH2 0x1CA3 JUMP JUMPDEST PUSH1 0x0 DUP6 DUP2 MSTORE PUSH1 0x2 PUSH1 0x20 MSTORE PUSH1 0x40 SWAP1 DUP2 SWAP1 KECCAK256 DUP1 SLOAD PUSH6 0xFFFFFFFFFFFF DUP10 AND PUSH10 0xFFFFFFFFFFFFFFFFFFFF NOT DUP3 AND OR PUSH1 0x1 PUSH1 0x30 SHL SWAP2 DUP3 SWAP1 DIV PUSH4 0xFFFFFFFF SWAP1 DUP2 AND PUSH1 0x1 ADD SWAP1 DUP2 AND SWAP3 DUP4 MUL SWAP2 SWAP1 SWAP2 OR SWAP1 SWAP3 SSTORE SWAP2 MLOAD SWAP1 SWAP6 POP DUP7 SWAP1 PUSH32 0x82A2DA5DEE54EA8021C6545B4444620291E07EE83BE6DD57EDB175062715F3B4 SWAP1 PUSH2 0x10F9 SWAP1 DUP11 SWAP1 DUP9 SWAP1 DUP16 SWAP1 DUP16 SWAP1 DUP16 SWAP1 PUSH2 0x2891 JUMP JUMPDEST PUSH1 0x40 MLOAD DUP1 SWAP2 SUB SWAP1 LOG3 POP POP POP SWAP5 POP SWAP5 SWAP3 POP POP POP JUMP JUMPDEST PUSH1 0x1 PUSH1 0x1 PUSH1 0xA0 SHL SUB DUP2 AND CALLER EQ PUSH2 0xDD0 JUMPI PUSH1 0x40 MLOAD PUSH4 0x5F159E63 PUSH1 0xE0 SHL DUP2 MSTORE PUSH1 0x4 ADD PUSH1 0x40 MLOAD DUP1 SWAP2 SUB SWAP1 REVERT JUMPDEST CALLER PUSH1 0x0 DUP1 PUSH2 0x1145 DUP4 DUP3 CALLDATASIZE PUSH2 0x1CF0 JUMP JUMPDEST SWAP2 POP SWAP2 POP DUP2 PUSH2 0xDDA JUMPI DUP1 PUSH4 0xFFFFFFFF AND PUSH1 0x0 SUB PUSH2 0x11A1 JUMPI PUSH1 0x0 PUSH2 0x1168 DUP2 CALLDATASIZE PUSH2 0x1DA8 JUMP JUMPDEST POP PUSH1 0x40 MLOAD PUSH4 0xF07E038F PUSH1 0xE0 SHL DUP2 MSTORE PUSH1 0x1 PUSH1 0x1 PUSH1 0xA0 SHL SUB DUP8 AND PUSH1 0x4 DUP3 ADD MSTORE PUSH1 0x1 PUSH1 0x1 PUSH1 0x40 SHL SUB DUP3 AND PUSH1 0x24 DUP3 ADD MSTORE SWAP1 SWAP3 POP PUSH1 0x44 ADD SWAP1 POP PUSH2 0x89F JUMP JUMPDEST PUSH2 0x97A PUSH2 0xBE3 DUP5 ADDRESS PUSH1 0x0 CALLDATASIZE PUSH2 0xBFA JUMP JUMPDEST PUSH1 0x1 PUSH1 0x1 PUSH1 0xA0 SHL SUB DUP4 AND PUSH1 0x0 DUP2 DUP2 MSTORE PUSH1 0x20 DUP2 DUP2 MSTORE PUSH1 0x40 DUP1 DUP4 KECCAK256 PUSH1 0x1 PUSH1 0x1 PUSH1 0xE0 SHL SUB NOT DUP8 AND DUP1 DUP6 MSTORE SWAP1 DUP4 MSTORE SWAP3 DUP2 SWAP1 KECCAK256 DUP1 SLOAD PUSH8 0xFFFFFFFFFFFFFFFF NOT AND PUSH1 0x1 PUSH1 0x1 PUSH1 0x40 SHL SUB DUP8 AND SWAP1 DUP2 OR SWAP1 SWAP2 SSTORE SWAP1 MLOAD SWAP3 DUP4 MSTORE SWAP3 SWAP2 PUSH32 0x9EA6790C7DADFD01C9F8B9762B3682607AF2C7E79E05A9F9FDF5580DDE949151 SWAP2 ADD PUSH1 0x40 MLOAD DUP1 SWAP2 SUB SWAP1 LOG3 POP POP POP JUMP JUMPDEST PUSH1 0x0 DUP1 PUSH2 0x1248 DUP4 PUSH1 0x1 PUSH1 0x1 PUSH1 0x70 SHL SUB AND PUSH2 0x178D JUMP JUMPDEST POP SWAP1 SWAP5 SWAP4 POP POP POP POP JUMP JUMPDEST ADDRESS PUSH1 0x1 PUSH1 0x1 PUSH1 0xA0 SHL SUB DUP4 AND SUB PUSH2 0x1286 JUMPI PUSH1 0x40 MLOAD PUSH4 0xB40D179 PUSH1 0xE3 SHL DUP2 MSTORE PUSH1 0x1 PUSH1 0x1 PUSH1 0xA0 SHL SUB DUP4 AND PUSH1 0x4 DUP3 ADD MSTORE PUSH1 0x24 ADD PUSH2 0x89F JUMP JUMPDEST PUSH1 0x1 PUSH1 0x1 PUSH1 0xA0 SHL SUB DUP3 AND PUSH1 0x0 DUP2 DUP2 MSTORE PUSH1 0x20 DUP2 SWAP1 MSTORE PUSH1 0x40 SWAP1 DUP2 SWAP1 KECCAK256 PUSH1 0x1 ADD DUP1 SLOAD DUP5 ISZERO ISZERO PUSH1 0x1 PUSH1 0x70 SHL MUL PUSH1 0xFF PUSH1 0x70 SHL NOT SWAP1 SWAP2 AND OR SWAP1 SSTORE MLOAD PUSH32 0x90D4E7BB7E5D933792B3562E1741306F8BE94837E1348DACEF9B6F1DF56EB138 SWAP1 PUSH2 0x12EC SWAP1 DUP5 ISZERO ISZERO DUP2 MSTORE PUSH1 0x20 ADD SWAP1 JUMP JUMPDEST PUSH1 0x40 MLOAD DUP1 SWAP2 SUB SWAP1 LOG2 POP POP JUMP JUMPDEST PUSH1 0x0 DUP1 ADDRESS PUSH1 0x1 PUSH1 0x1 PUSH1 0xA0 SHL SUB DUP7 AND SUB PUSH2 0x131F JUMPI PUSH2 0x1316 DUP7 DUP6 DUP6 PUSH2 0x1CF0 JUMP JUMPDEST SWAP2 POP SWAP2 POP PUSH2 0x1342 JUMP JUMPDEST PUSH1 0x4 DUP4 LT PUSH2 0x133B JUMPI PUSH2 0x1336 DUP7 DUP7 PUSH2 0x60A DUP8 DUP8 PUSH2 0x134B JUMP JUMPDEST PUSH2 0x1316 JUMP JUMPDEST POP PUSH1 0x0 SWAP1 POP DUP1 JUMPDEST SWAP5 POP SWAP5 SWAP3 POP POP POP JUMP JUMPDEST PUSH1 0x0 PUSH2 0x135A PUSH1 0x4 DUP3 DUP5 DUP7 PUSH2 0x27BE JUMP JUMPDEST PUSH2 0x957 SWAP2 PUSH2 0x28D7 JUMP JUMPDEST PUSH1 0x0 DUP2 DUP2 MSTORE PUSH1 0x2 PUSH1 0x20 MSTORE PUSH1 0x40 DUP2 KECCAK256 SLOAD PUSH6 0xFFFFFFFFFFFF DUP2 AND SWAP1 PUSH1 0x1 PUSH1 0x30 SHL SWAP1 DIV PUSH4 0xFFFFFFFF AND DUP2 DUP4 SUB PUSH2 0x13AC JUMPI PUSH1 0x40 MLOAD PUSH4 0x60A299B PUSH1 0xE4 SHL DUP2 MSTORE PUSH1 0x4 DUP2 ADD DUP6 SWAP1 MSTORE PUSH1 0x24 ADD PUSH2 0x89F JUMP JUMPDEST PUSH2 0x13B4 PUSH2 0x1BC0 JUMP JUMPDEST PUSH6 0xFFFFFFFFFFFF AND DUP3 PUSH6 0xFFFFFFFFFFFF AND GT ISZERO PUSH2 0x13E7 JUMPI PUSH1 0x40 MLOAD PUSH4 0xC65B5BD PUSH1 0xE1 SHL DUP2 MSTORE PUSH1 0x4 DUP2 ADD DUP6 SWAP1 MSTORE PUSH1 0x24 ADD PUSH2 0x89F JUMP JUMPDEST PUSH2 0x13F0 DUP3 PUSH2 0x1854 JUMP JUMPDEST ISZERO PUSH2 0x1411 JUMPI PUSH1 0x40 MLOAD PUSH4 0x1E2975B9 PUSH1 0xE2 SHL DUP2 MSTORE PUSH1 0x4 DUP2 ADD DUP6 SWAP1 MSTORE PUSH1 0x24 ADD PUSH2 0x89F JUMP JUMPDEST PUSH1 0x0 DUP5 DUP2 MSTORE PUSH1 0x2 PUSH1 0x20 MSTORE PUSH1 0x40 DUP1 DUP3 KECCAK256 DUP1 SLOAD PUSH6 0xFFFFFFFFFFFF NOT AND SWAP1 SSTORE MLOAD PUSH4 0xFFFFFFFF DUP4 AND SWAP2 DUP7 SWAP2 PUSH32 0x76A2A46953689D4861A5D3F6ED883AD7E6AF674A21F8E162707159FC9DDE614D SWAP2 SWAP1 LOG3 SWAP4 SWAP3 POP POP POP JUMP JUMPDEST PUSH1 0x40 DUP1 MLOAD PUSH1 0x1 PUSH1 0x1 PUSH1 0xA0 SHL SUB SWAP4 SWAP1 SWAP4 AND PUSH1 0x20 DUP1 DUP6 ADD SWAP2 SWAP1 SWAP2 MSTORE PUSH1 0x1 PUSH1 0x1 PUSH1 0xE0 SHL SUB NOT SWAP3 SWAP1 SWAP3 AND DUP4 DUP3 ADD MSTORE DUP1 MLOAD DUP1 DUP5 SUB DUP3 ADD DUP2 MSTORE PUSH1 0x60 SWAP1 SWAP4 ADD SWAP1 MSTORE DUP2 MLOAD SWAP2 ADD KECCAK256 SWAP1 JUMP JUMPDEST PUSH1 0x60 DUP2 SELFBALANCE LT ISZERO PUSH2 0x14CA JUMPI PUSH1 0x40 MLOAD PUSH4 0xCD786059 PUSH1 0xE0 SHL DUP2 MSTORE ADDRESS PUSH1 0x4 DUP3 ADD MSTORE PUSH1 0x24 ADD PUSH2 0x89F JUMP JUMPDEST PUSH1 0x0 DUP1 DUP6 PUSH1 0x1 PUSH1 0x1 PUSH1 0xA0 SHL SUB AND DUP5 DUP7 PUSH1 0x40 MLOAD PUSH2 0x14E6 SWAP2 SWAP1 PUSH2 0x2905 JUMP JUMPDEST PUSH1 0x0 PUSH1 0x40 MLOAD DUP1 DUP4 SUB DUP2 DUP6 DUP8 GAS CALL SWAP3 POP POP POP RETURNDATASIZE DUP1 PUSH1 0x0 DUP2 EQ PUSH2 0x1523 JUMPI PUSH1 0x40 MLOAD SWAP2 POP PUSH1 0x1F NOT PUSH1 0x3F RETURNDATASIZE ADD AND DUP3 ADD PUSH1 0x40 MSTORE RETURNDATASIZE DUP3 MSTORE RETURNDATASIZE PUSH1 0x0 PUSH1 0x20 DUP5 ADD RETURNDATACOPY PUSH2 0x1528 JUMP JUMPDEST PUSH1 0x60 SWAP2 POP JUMPDEST POP SWAP2 POP SWAP2 POP PUSH2 0x1538 DUP7 DUP4 DUP4 PUSH2 0x1F91 JUMP JUMPDEST SWAP7 SWAP6 POP POP POP POP POP POP JUMP JUMPDEST PUSH1 0x0 PUSH8 0xFFFFFFFFFFFFFFFE NOT PUSH1 0x1 PUSH1 0x1 PUSH1 0x40 SHL SUB DUP7 AND ADD PUSH2 0x1581 JUMPI PUSH1 0x40 MLOAD PUSH4 0x61C6A43 PUSH1 0xE2 SHL DUP2 MSTORE PUSH1 0x1 PUSH1 0x1 PUSH1 0x40 SHL SUB DUP7 AND PUSH1 0x4 DUP3 ADD MSTORE PUSH1 0x24 ADD PUSH2 0x89F JUMP JUMPDEST PUSH1 0x1 PUSH1 0x1 PUSH1 0x40 SHL SUB DUP6 AND PUSH1 0x0 SWAP1 DUP2 MSTORE PUSH1 0x1 PUSH1 0x20 SWAP1 DUP2 MSTORE PUSH1 0x40 DUP1 DUP4 KECCAK256 PUSH1 0x1 PUSH1 0x1 PUSH1 0xA0 SHL SUB DUP9 AND DUP5 MSTORE SWAP1 SWAP2 MSTORE DUP2 KECCAK256 SLOAD PUSH6 0xFFFFFFFFFFFF AND ISZERO SWAP1 DUP2 ISZERO PUSH2 0x1673 JUMPI DUP5 PUSH4 0xFFFFFFFF AND PUSH2 0x15CD PUSH2 0x1BC0 JUMP JUMPDEST PUSH2 0x15D7 SWAP2 SWAP1 PUSH2 0x286B JUMP JUMPDEST SWAP1 POP PUSH1 0x40 MLOAD DUP1 PUSH1 0x40 ADD PUSH1 0x40 MSTORE DUP1 DUP3 PUSH6 0xFFFFFFFFFFFF AND DUP2 MSTORE PUSH1 0x20 ADD PUSH2 0x1605 DUP7 PUSH4 0xFFFFFFFF AND PUSH4 0xFFFFFFFF AND SWAP1 JUMP JUMPDEST PUSH1 0x1 PUSH1 0x1 PUSH1 0x70 SHL SUB SWAP1 DUP2 AND SWAP1 SWAP2 MSTORE PUSH1 0x1 PUSH1 0x1 PUSH1 0x40 SHL SUB DUP10 AND PUSH1 0x0 SWAP1 DUP2 MSTORE PUSH1 0x1 PUSH1 0x20 SWAP1 DUP2 MSTORE PUSH1 0x40 DUP1 DUP4 KECCAK256 PUSH1 0x1 PUSH1 0x1 PUSH1 0xA0 SHL SUB DUP13 AND DUP5 MSTORE DUP3 MSTORE SWAP1 SWAP2 KECCAK256 DUP4 MLOAD DUP2 SLOAD SWAP5 SWAP1 SWAP3 ADD MLOAD SWAP1 SWAP3 AND PUSH1 0x1 PUSH1 0x30 SHL MUL PUSH1 0x1 PUSH1 0x1 PUSH1 0xA0 SHL SUB NOT SWAP1 SWAP4 AND PUSH6 0xFFFFFFFFFFFF SWAP1 SWAP2 AND OR SWAP2 SWAP1 SWAP2 OR SWAP1 SSTORE PUSH2 0x171F JUMP JUMPDEST PUSH1 0x1 PUSH1 0x1 PUSH1 0x40 SHL SUB DUP8 AND PUSH1 0x0 SWAP1 DUP2 MSTORE PUSH1 0x1 PUSH1 0x20 SWAP1 DUP2 MSTORE PUSH1 0x40 DUP1 DUP4 KECCAK256 PUSH1 0x1 PUSH1 0x1 PUSH1 0xA0 SHL SUB DUP11 AND DUP5 MSTORE SWAP1 SWAP2 MSTORE DUP2 KECCAK256 SLOAD PUSH2 0x16BD SWAP2 PUSH1 0x1 PUSH1 0x30 SHL SWAP1 SWAP2 DIV PUSH1 0x1 PUSH1 0x1 PUSH1 0x70 SHL SUB AND SWAP1 DUP7 SWAP1 PUSH2 0x1FED JUMP JUMPDEST PUSH1 0x1 PUSH1 0x1 PUSH1 0x40 SHL SUB DUP10 AND PUSH1 0x0 SWAP1 DUP2 MSTORE PUSH1 0x1 PUSH1 0x20 SWAP1 DUP2 MSTORE PUSH1 0x40 DUP1 DUP4 KECCAK256 PUSH1 0x1 PUSH1 0x1 PUSH1 0xA0 SHL SUB DUP13 AND DUP5 MSTORE SWAP1 SWAP2 MSTORE SWAP1 KECCAK256 DUP1 SLOAD PUSH1 0x1 PUSH1 0x1 PUSH1 0x70 SHL SUB SWAP1 SWAP4 AND PUSH1 0x1 PUSH1 0x30 SHL MUL PUSH20 0xFFFFFFFFFFFFFFFFFFFFFFFFFFFF000000000000 NOT SWAP1 SWAP4 AND SWAP3 SWAP1 SWAP3 OR SWAP1 SWAP2 SSTORE SWAP1 POP JUMPDEST PUSH1 0x40 DUP1 MLOAD PUSH4 0xFFFFFFFF DUP7 AND DUP2 MSTORE PUSH6 0xFFFFFFFFFFFF DUP4 AND PUSH1 0x20 DUP3 ADD MSTORE DUP4 ISZERO ISZERO DUP2 DUP4 ADD MSTORE SWAP1 MLOAD PUSH1 0x1 PUSH1 0x1 PUSH1 0xA0 SHL SUB DUP9 AND SWAP2 PUSH1 0x1 PUSH1 0x1 PUSH1 0x40 SHL SUB DUP11 AND SWAP2 PUSH32 0xF98448B987F1428E0E230E1F3C6E2CE15B5693EAF31827FBD0B1EC4B424AE7CF SWAP2 DUP2 SWAP1 SUB PUSH1 0x60 ADD SWAP1 LOG3 POP SWAP6 SWAP5 POP POP POP POP POP JUMP JUMPDEST PUSH1 0x0 DUP1 PUSH1 0x0 PUSH2 0x17A3 DUP5 PUSH2 0x179E PUSH2 0x1BC0 JUMP JUMPDEST PUSH2 0x2097 JUMP JUMPDEST SWAP3 POP SWAP3 POP SWAP3 POP SWAP2 SWAP4 SWAP1 SWAP3 POP JUMP JUMPDEST PUSH1 0x1 PUSH1 0x1 PUSH1 0x40 SHL SUB DUP3 AND ISZERO DUP1 PUSH2 0x17CE JUMPI POP PUSH1 0x1 PUSH1 0x1 PUSH1 0x40 SHL SUB DUP3 DUP2 AND EQ JUMPDEST ISZERO PUSH2 0x17F7 JUMPI PUSH1 0x40 MLOAD PUSH4 0x61C6A43 PUSH1 0xE2 SHL DUP2 MSTORE PUSH1 0x1 PUSH1 0x1 PUSH1 0x40 SHL SUB DUP4 AND PUSH1 0x4 DUP3 ADD MSTORE PUSH1 0x24 ADD PUSH2 0x89F JUMP JUMPDEST PUSH1 0x1 PUSH1 0x1 PUSH1 0x40 SHL SUB DUP3 DUP2 AND PUSH1 0x0 DUP2 DUP2 MSTORE PUSH1 0x1 PUSH1 0x20 DUP2 SWAP1 MSTORE PUSH1 0x40 DUP1 DUP4 KECCAK256 SWAP1 SWAP2 ADD DUP1 SLOAD PUSH8 0xFFFFFFFFFFFFFFFF NOT AND SWAP5 DUP7 AND SWAP5 DUP6 OR SWAP1 SSTORE MLOAD PUSH32 0x1FD6DD7631312DFAC2205B52913F99DE03B4D7E381D5D27D3DBFE0713E6E6340 SWAP2 SWAP1 LOG3 POP POP JUMP JUMPDEST PUSH1 0x0 PUSH2 0x185E PUSH2 0x1BC0 JUMP JUMPDEST PUSH6 0xFFFFFFFFFFFF AND PUSH2 0x1873 PUSH3 0x93A80 DUP5 PUSH2 0x286B JUMP JUMPDEST PUSH6 0xFFFFFFFFFFFF AND GT ISZERO SWAP3 SWAP2 POP POP JUMP JUMPDEST PUSH1 0x1 PUSH1 0x1 PUSH1 0x40 SHL SUB DUP3 AND ISZERO DUP1 PUSH2 0x18A1 JUMPI POP PUSH1 0x1 PUSH1 0x1 PUSH1 0x40 SHL SUB DUP3 DUP2 AND EQ JUMPDEST ISZERO PUSH2 0x18CA JUMPI PUSH1 0x40 MLOAD PUSH4 0x61C6A43 PUSH1 0xE2 SHL DUP2 MSTORE PUSH1 0x1 PUSH1 0x1 PUSH1 0x40 SHL SUB DUP4 AND PUSH1 0x4 DUP3 ADD MSTORE PUSH1 0x24 ADD PUSH2 0x89F JUMP JUMPDEST PUSH1 0x1 PUSH1 0x1 PUSH1 0x40 SHL SUB DUP3 DUP2 AND PUSH1 0x0 DUP2 DUP2 MSTORE PUSH1 0x1 PUSH1 0x20 DUP2 SWAP1 MSTORE PUSH1 0x40 DUP1 DUP4 KECCAK256 SWAP1 SWAP2 ADD DUP1 SLOAD PUSH16 0xFFFFFFFFFFFFFFFF0000000000000000 NOT AND PUSH1 0x1 PUSH1 0x40 SHL SWAP6 DUP8 AND SWAP6 DUP7 MUL OR SWAP1 SSTORE MLOAD PUSH32 0x7A8059630B897B5DE4C08ADE69F8B90C3EAD1F8596D62D10B6C4D14A0AFB4AE2 SWAP2 SWAP1 LOG3 POP POP JUMP JUMPDEST PUSH8 0xFFFFFFFFFFFFFFFE NOT PUSH1 0x1 PUSH1 0x1 PUSH1 0x40 SHL SUB DUP4 AND ADD PUSH2 0x1972 JUMPI PUSH1 0x40 MLOAD PUSH4 0x61C6A43 PUSH1 0xE2 SHL DUP2 MSTORE PUSH1 0x1 PUSH1 0x1 PUSH1 0x40 SHL SUB DUP4 AND PUSH1 0x4 DUP3 ADD MSTORE PUSH1 0x24 ADD PUSH2 0x89F JUMP JUMPDEST PUSH1 0x1 PUSH1 0x1 PUSH1 0x40 SHL SUB DUP3 AND PUSH1 0x0 SWAP1 DUP2 MSTORE PUSH1 0x1 PUSH1 0x20 DUP2 SWAP1 MSTORE PUSH1 0x40 DUP3 KECCAK256 ADD SLOAD PUSH2 0x19AC SWAP1 PUSH1 0x1 PUSH1 0x80 SHL SWAP1 DIV PUSH1 0x1 PUSH1 0x1 PUSH1 0x70 SHL SUB AND DUP4 PUSH3 0x69780 PUSH2 0x1FED JUMP JUMPDEST PUSH1 0x1 PUSH1 0x1 PUSH1 0x40 SHL SUB DUP6 AND PUSH1 0x0 DUP2 DUP2 MSTORE PUSH1 0x1 PUSH1 0x20 DUP2 SWAP1 MSTORE PUSH1 0x40 SWAP2 DUP3 SWAP1 KECCAK256 ADD DUP1 SLOAD PUSH1 0x1 PUSH1 0x1 PUSH1 0x70 SHL SUB SWAP1 SWAP6 AND PUSH1 0x1 PUSH1 0x80 SHL MUL PUSH14 0xFFFFFFFFFFFFFFFFFFFFFFFFFFFF PUSH1 0x80 SHL NOT SWAP1 SWAP6 AND SWAP5 SWAP1 SWAP5 OR SWAP1 SWAP4 SSTORE SWAP2 MLOAD SWAP1 SWAP3 POP PUSH32 0xFEB69018EE8B8FD50EA86348F1267D07673379F72CFFDECCEC63853EE8CE8B48 SWAP1 PUSH2 0xB2F SWAP1 DUP6 SWAP1 DUP6 SWAP1 PUSH4 0xFFFFFFFF SWAP3 SWAP1 SWAP3 AND DUP3 MSTORE PUSH6 0xFFFFFFFFFFFF AND PUSH1 0x20 DUP3 ADD MSTORE PUSH1 0x40 ADD SWAP1 JUMP JUMPDEST PUSH1 0x60 PUSH1 0x0 DUP1 DUP5 PUSH1 0x1 PUSH1 0x1 PUSH1 0xA0 SHL SUB AND DUP5 PUSH1 0x40 MLOAD PUSH2 0x1A63 SWAP2 SWAP1 PUSH2 0x2905 JUMP JUMPDEST PUSH1 0x0 PUSH1 0x40 MLOAD DUP1 DUP4 SUB DUP2 DUP6 GAS DELEGATECALL SWAP2 POP POP RETURNDATASIZE DUP1 PUSH1 0x0 DUP2 EQ PUSH2 0x1A9E JUMPI PUSH1 0x40 MLOAD SWAP2 POP PUSH1 0x1F NOT PUSH1 0x3F RETURNDATASIZE ADD AND DUP3 ADD PUSH1 0x40 MSTORE RETURNDATASIZE DUP3 MSTORE RETURNDATASIZE PUSH1 0x0 PUSH1 0x20 DUP5 ADD RETURNDATACOPY PUSH2 0x1AA3 JUMP JUMPDEST PUSH1 0x60 SWAP2 POP JUMPDEST POP SWAP2 POP SWAP2 POP PUSH2 0x1AB3 DUP6 DUP4 DUP4 PUSH2 0x1F91 JUMP JUMPDEST SWAP6 SWAP5 POP POP POP POP POP JUMP JUMPDEST PUSH1 0x0 PUSH2 0x1AC8 DUP4 DUP4 PUSH2 0x1463 JUMP JUMPDEST PUSH1 0x3 SLOAD EQ SWAP4 SWAP3 POP POP POP JUMP JUMPDEST PUSH1 0x0 PUSH8 0xFFFFFFFFFFFFFFFE NOT PUSH1 0x1 PUSH1 0x1 PUSH1 0x40 SHL SUB DUP5 AND ADD PUSH2 0x1B12 JUMPI PUSH1 0x40 MLOAD PUSH4 0x61C6A43 PUSH1 0xE2 SHL DUP2 MSTORE PUSH1 0x1 PUSH1 0x1 PUSH1 0x40 SHL SUB DUP5 AND PUSH1 0x4 DUP3 ADD MSTORE PUSH1 0x24 ADD PUSH2 0x89F JUMP JUMPDEST PUSH1 0x1 PUSH1 0x1 PUSH1 0x40 SHL SUB DUP4 AND PUSH1 0x0 SWAP1 DUP2 MSTORE PUSH1 0x1 PUSH1 0x20 SWAP1 DUP2 MSTORE PUSH1 0x40 DUP1 DUP4 KECCAK256 PUSH1 0x1 PUSH1 0x1 PUSH1 0xA0 SHL SUB DUP7 AND DUP5 MSTORE SWAP1 SWAP2 MSTORE DUP2 KECCAK256 SLOAD PUSH6 0xFFFFFFFFFFFF AND SWAP1 SUB PUSH2 0x1B55 JUMPI POP PUSH1 0x0 PUSH2 0x7AB JUMP JUMPDEST PUSH1 0x1 PUSH1 0x1 PUSH1 0x40 SHL SUB DUP4 AND PUSH1 0x0 DUP2 DUP2 MSTORE PUSH1 0x1 PUSH1 0x20 SWAP1 DUP2 MSTORE PUSH1 0x40 DUP1 DUP4 KECCAK256 PUSH1 0x1 PUSH1 0x1 PUSH1 0xA0 SHL SUB DUP8 AND DUP1 DUP6 MSTORE SWAP3 MSTORE DUP1 DUP4 KECCAK256 DUP1 SLOAD PUSH1 0x1 PUSH1 0x1 PUSH1 0xA0 SHL SUB NOT AND SWAP1 SSTORE MLOAD SWAP1 SWAP3 SWAP2 PUSH32 0xF229BAA593AF28C41B1D16B748CD7688F0C83AAF92D4BE41C44005DEFE84C166 SWAP2 LOG3 POP PUSH1 0x1 SWAP3 SWAP2 POP POP JUMP JUMPDEST PUSH1 0x0 PUSH2 0x1BCB TIMESTAMP PUSH2 0x20EB JUMP JUMPDEST SWAP1 POP SWAP1 JUMP JUMPDEST PUSH1 0x1 PUSH1 0x1 PUSH1 0xA0 SHL SUB DUP3 AND PUSH1 0x0 SWAP1 DUP2 MSTORE PUSH1 0x20 DUP2 SWAP1 MSTORE PUSH1 0x40 DUP2 KECCAK256 PUSH1 0x1 ADD SLOAD PUSH2 0x1C03 SWAP1 PUSH1 0x1 PUSH1 0x1 PUSH1 0x70 SHL SUB AND DUP4 PUSH3 0x69780 PUSH2 0x1FED JUMP JUMPDEST PUSH1 0x1 PUSH1 0x1 PUSH1 0xA0 SHL SUB DUP6 AND PUSH1 0x0 DUP2 DUP2 MSTORE PUSH1 0x20 DUP2 DUP2 MSTORE PUSH1 0x40 SWAP2 DUP3 SWAP1 KECCAK256 PUSH1 0x1 ADD DUP1 SLOAD PUSH14 0xFFFFFFFFFFFFFFFFFFFFFFFFFFFF NOT AND PUSH1 0x1 PUSH1 0x1 PUSH1 0x70 SHL SUB SWAP7 SWAP1 SWAP7 AND SWAP6 SWAP1 SWAP6 OR SWAP1 SWAP5 SSTORE DUP1 MLOAD PUSH4 0xFFFFFFFF DUP8 AND DUP2 MSTORE PUSH6 0xFFFFFFFFFFFF DUP5 AND SWAP5 DUP2 ADD SWAP5 SWAP1 SWAP5 MSTORE SWAP2 SWAP4 POP SWAP2 PUSH32 0xA56B76017453F399EC2327BA00375DBFB1FD070FF854341AD6191E6A2E2DE19C SWAP2 ADD PUSH2 0xB2F JUMP JUMPDEST PUSH1 0x0 DUP2 DUP4 GT PUSH2 0x1C9C JUMPI DUP2 PUSH2 0x957 JUMP JUMPDEST POP SWAP1 SWAP2 SWAP1 POP JUMP JUMPDEST PUSH1 0x0 DUP2 DUP2 MSTORE PUSH1 0x2 PUSH1 0x20 MSTORE PUSH1 0x40 SWAP1 KECCAK256 SLOAD PUSH6 0xFFFFFFFFFFFF AND DUP1 ISZERO DUP1 ISZERO SWAP1 PUSH2 0x1CCF JUMPI POP PUSH2 0x1CCD DUP2 PUSH2 0x1854 JUMP JUMPDEST ISZERO JUMPDEST ISZERO PUSH2 0x7C3 JUMPI PUSH1 0x40 MLOAD PUSH4 0x813E9459 PUSH1 0xE0 SHL DUP2 MSTORE PUSH1 0x4 DUP2 ADD DUP4 SWAP1 MSTORE PUSH1 0x24 ADD PUSH2 0x89F JUMP JUMPDEST PUSH1 0x0 DUP1 PUSH1 0x4 DUP4 LT ISZERO PUSH2 0x1D07 JUMPI POP PUSH1 0x0 SWAP1 POP DUP1 PUSH2 0xDC0 JUMP JUMPDEST ADDRESS PUSH1 0x1 PUSH1 0x1 PUSH1 0xA0 SHL SUB DUP7 AND SUB PUSH2 0x1D2A JUMPI PUSH2 0xD77 ADDRESS PUSH2 0x1D25 DUP7 DUP7 PUSH2 0x134B JUMP JUMPDEST PUSH2 0x1ABC JUMP JUMPDEST PUSH1 0x0 DUP1 PUSH1 0x0 PUSH2 0x1D39 DUP8 DUP8 PUSH2 0x1DA8 JUMP JUMPDEST SWAP3 POP SWAP3 POP SWAP3 POP DUP3 PUSH2 0x1D53 JUMPI PUSH1 0x0 DUP1 SWAP5 POP SWAP5 POP POP POP POP PUSH2 0xDC0 JUMP JUMPDEST PUSH1 0x0 DUP1 PUSH2 0x1D60 DUP5 DUP12 PUSH2 0xDDF JUMP JUMPDEST SWAP2 POP SWAP2 POP DUP2 PUSH2 0x1D7A JUMPI PUSH1 0x0 DUP1 SWAP7 POP SWAP7 POP POP POP POP POP POP PUSH2 0xDC0 JUMP JUMPDEST PUSH2 0x1D90 DUP4 PUSH4 0xFFFFFFFF AND DUP3 PUSH4 0xFFFFFFFF AND PUSH2 0x1C8D JUMP JUMPDEST PUSH4 0xFFFFFFFF DUP2 AND ISZERO SWAP12 SWAP1 SWAP11 POP SWAP9 POP POP POP POP POP POP POP POP POP JUMP JUMPDEST PUSH1 0x0 DUP1 DUP1 PUSH1 0x4 DUP5 LT ISZERO PUSH2 0x1DC3 JUMPI POP PUSH1 0x0 SWAP2 POP DUP2 SWAP1 POP DUP1 PUSH2 0x1F8A JUMP JUMPDEST PUSH1 0x0 PUSH2 0x1DCF DUP7 DUP7 PUSH2 0x134B JUMP JUMPDEST SWAP1 POP PUSH1 0x1 PUSH1 0x1 PUSH1 0xE0 SHL SUB NOT DUP2 AND PUSH4 0x10A6AA37 PUSH1 0xE3 SHL EQ DUP1 PUSH2 0x1E00 JUMPI POP PUSH1 0x1 PUSH1 0x1 PUSH1 0xE0 SHL SUB NOT DUP2 AND PUSH4 0x30CAE187 PUSH1 0xE0 SHL EQ JUMPDEST DUP1 PUSH2 0x1E1B JUMPI POP PUSH1 0x1 PUSH1 0x1 PUSH1 0xE0 SHL SUB NOT DUP2 AND PUSH4 0x294B14A9 PUSH1 0xE1 SHL EQ JUMPDEST DUP1 PUSH2 0x1E36 JUMPI POP PUSH1 0x1 PUSH1 0x1 PUSH1 0xE0 SHL SUB NOT DUP2 AND PUSH4 0x5326CAE7 PUSH1 0xE1 SHL EQ JUMPDEST DUP1 PUSH2 0x1E51 JUMPI POP PUSH1 0x1 PUSH1 0x1 PUSH1 0xE0 SHL SUB NOT DUP2 AND PUSH4 0xD22B5989 PUSH1 0xE0 SHL EQ JUMPDEST ISZERO PUSH2 0x1E67 JUMPI PUSH1 0x1 PUSH1 0x0 DUP1 SWAP4 POP SWAP4 POP SWAP4 POP POP PUSH2 0x1F8A JUMP JUMPDEST PUSH1 0x1 PUSH1 0x1 PUSH1 0xE0 SHL SUB NOT DUP2 AND PUSH4 0x63FC60F PUSH1 0xE2 SHL EQ DUP1 PUSH2 0x1E96 JUMPI POP PUSH1 0x1 PUSH1 0x1 PUSH1 0xE0 SHL SUB NOT DUP2 AND PUSH4 0x167BD395 PUSH1 0xE0 SHL EQ JUMPDEST DUP1 PUSH2 0x1EB1 JUMPI POP PUSH1 0x1 PUSH1 0x1 PUSH1 0xE0 SHL SUB NOT DUP2 AND PUSH4 0x8D6122D PUSH1 0xE0 SHL EQ JUMPDEST ISZERO PUSH2 0x1EF3 JUMPI PUSH1 0x0 PUSH2 0x1EC6 PUSH1 0x24 PUSH1 0x4 DUP9 DUP11 PUSH2 0x27BE JUMP JUMPDEST DUP2 ADD SWAP1 PUSH2 0x1ED3 SWAP2 SWAP1 PUSH2 0x2406 JUMP JUMPDEST SWAP1 POP PUSH1 0x0 PUSH2 0x1EE0 DUP3 PUSH2 0xA2A JUMP JUMPDEST PUSH1 0x1 SWAP7 POP PUSH1 0x0 SWAP6 POP SWAP4 POP PUSH2 0x1F8A SWAP3 POP POP POP JUMP JUMPDEST PUSH1 0x1 PUSH1 0x1 PUSH1 0xE0 SHL SUB NOT DUP2 AND PUSH4 0x12E238D PUSH1 0xE5 SHL EQ DUP1 PUSH2 0x1F22 JUMPI POP PUSH1 0x1 PUSH1 0x1 PUSH1 0xE0 SHL SUB NOT DUP2 AND PUSH4 0x5BE958B1 PUSH1 0xE1 SHL EQ JUMPDEST ISZERO PUSH2 0x1F7D JUMPI PUSH1 0x0 PUSH2 0x1F37 PUSH1 0x24 PUSH1 0x4 DUP9 DUP11 PUSH2 0x27BE JUMP JUMPDEST DUP2 ADD SWAP1 PUSH2 0x1F44 SWAP2 SWAP1 PUSH2 0x2229 JUMP JUMPDEST SWAP1 POP PUSH1 0x1 PUSH2 0x1F6E DUP3 PUSH1 0x1 PUSH1 0x1 PUSH1 0x40 SHL SUB SWAP1 DUP2 AND PUSH1 0x0 SWAP1 DUP2 MSTORE PUSH1 0x1 PUSH1 0x20 DUP2 SWAP1 MSTORE PUSH1 0x40 SWAP1 SWAP2 KECCAK256 ADD SLOAD AND SWAP1 JUMP JUMPDEST PUSH1 0x0 SWAP5 POP SWAP5 POP SWAP5 POP POP POP PUSH2 0x1F8A JUMP JUMPDEST PUSH1 0x0 DUP1 PUSH1 0x0 SWAP4 POP SWAP4 POP SWAP4 POP POP JUMPDEST SWAP3 POP SWAP3 POP SWAP3 JUMP JUMPDEST PUSH1 0x60 DUP3 PUSH2 0x1FA6 JUMPI PUSH2 0x1FA1 DUP3 PUSH2 0x2122 JUMP JUMPDEST PUSH2 0x957 JUMP JUMPDEST DUP2 MLOAD ISZERO DUP1 ISZERO PUSH2 0x1FBD JUMPI POP PUSH1 0x1 PUSH1 0x1 PUSH1 0xA0 SHL SUB DUP5 AND EXTCODESIZE ISZERO JUMPDEST ISZERO PUSH2 0x1FE6 JUMPI PUSH1 0x40 MLOAD PUSH4 0x9996B315 PUSH1 0xE0 SHL DUP2 MSTORE PUSH1 0x1 PUSH1 0x1 PUSH1 0xA0 SHL SUB DUP6 AND PUSH1 0x4 DUP3 ADD MSTORE PUSH1 0x24 ADD PUSH2 0x89F JUMP JUMPDEST POP DUP1 PUSH2 0x957 JUMP JUMPDEST PUSH1 0x0 DUP1 PUSH1 0x0 PUSH2 0x2004 DUP7 PUSH1 0x1 PUSH1 0x1 PUSH1 0x70 SHL SUB AND PUSH2 0x1233 JUMP JUMPDEST SWAP1 POP PUSH1 0x0 PUSH2 0x2041 DUP6 PUSH4 0xFFFFFFFF AND DUP8 PUSH4 0xFFFFFFFF AND DUP5 PUSH4 0xFFFFFFFF AND GT PUSH2 0x202C JUMPI PUSH1 0x0 PUSH2 0x2036 JUMP JUMPDEST PUSH2 0x2036 DUP9 DUP6 PUSH2 0x2921 JUMP JUMPDEST PUSH4 0xFFFFFFFF AND PUSH2 0x1C8D JUMP JUMPDEST SWAP1 POP DUP1 PUSH4 0xFFFFFFFF AND PUSH2 0x2052 PUSH2 0x1BC0 JUMP JUMPDEST PUSH2 0x205C SWAP2 SWAP1 PUSH2 0x286B JUMP JUMPDEST SWAP3 POP PUSH4 0xFFFFFFFF DUP7 AND PUSH1 0x20 DUP4 SWAP1 SHL PUSH8 0xFFFFFFFF00000000 AND PUSH1 0x40 DUP6 SWAP1 SHL PUSH14 0xFFFFFFFFFFFF0000000000000000 AND OR OR SWAP4 POP POP POP SWAP4 POP SWAP4 SWAP2 POP POP JUMP JUMPDEST PUSH1 0x0 DUP1 DUP1 PUSH10 0xFFFFFFFFFFFFFFFFFFFF PUSH1 0x20 DUP7 SWAP1 SHR AND PUSH1 0x1 PUSH1 0x1 PUSH1 0x70 SHL SUB DUP7 AND PUSH6 0xFFFFFFFFFFFF PUSH1 0x40 DUP9 SWAP1 SHR DUP2 AND SWAP1 DUP8 AND DUP2 GT ISZERO PUSH2 0x20D6 JUMPI DUP3 DUP3 DUP3 PUSH2 0x20DB JUMP JUMPDEST DUP2 PUSH1 0x0 DUP1 JUMPDEST SWAP6 POP SWAP6 POP SWAP6 POP POP POP POP SWAP3 POP SWAP3 POP SWAP3 JUMP JUMPDEST PUSH1 0x0 PUSH6 0xFFFFFFFFFFFF DUP3 GT ISZERO PUSH2 0x211E JUMPI PUSH1 0x40 MLOAD PUSH4 0x6DFCC65 PUSH1 0xE4 SHL DUP2 MSTORE PUSH1 0x30 PUSH1 0x4 DUP3 ADD MSTORE PUSH1 0x24 DUP2 ADD DUP4 SWAP1 MSTORE PUSH1 0x44 ADD PUSH2 0x89F JUMP JUMPDEST POP SWAP1 JUMP JUMPDEST DUP1 MLOAD ISZERO PUSH2 0x2132 JUMPI DUP1 MLOAD DUP1 DUP3 PUSH1 0x20 ADD REVERT JUMPDEST PUSH1 0x40 MLOAD PUSH4 0xA12F521 PUSH1 0xE1 SHL DUP2 MSTORE PUSH1 0x4 ADD PUSH1 0x40 MLOAD DUP1 SWAP2 SUB SWAP1 REVERT JUMPDEST POP JUMP JUMPDEST PUSH1 0x1 PUSH1 0x1 PUSH1 0xA0 SHL SUB DUP2 AND DUP2 EQ PUSH2 0x214B JUMPI PUSH1 0x0 DUP1 REVERT JUMPDEST PUSH1 0x0 DUP1 DUP4 PUSH1 0x1F DUP5 ADD SLT PUSH2 0x2175 JUMPI PUSH1 0x0 DUP1 REVERT JUMPDEST POP DUP2 CALLDATALOAD PUSH1 0x1 PUSH1 0x1 PUSH1 0x40 SHL SUB DUP2 GT ISZERO PUSH2 0x218C JUMPI PUSH1 0x0 DUP1 REVERT JUMPDEST PUSH1 0x20 DUP4 ADD SWAP2 POP DUP4 PUSH1 0x20 DUP3 PUSH1 0x5 SHL DUP6 ADD ADD GT ISZERO PUSH2 0xE55 JUMPI PUSH1 0x0 DUP1 REVERT JUMPDEST DUP1 CALLDATALOAD PUSH1 0x1 PUSH1 0x1 PUSH1 0x40 SHL SUB DUP2 AND DUP2 EQ PUSH2 0x21BE JUMPI PUSH1 0x0 DUP1 REVERT JUMPDEST SWAP2 SWAP1 POP JUMP JUMPDEST PUSH1 0x0 DUP1 PUSH1 0x0 DUP1 PUSH1 0x60 DUP6 DUP8 SUB SLT ISZERO PUSH2 0x21D9 JUMPI PUSH1 0x0 DUP1 REVERT JUMPDEST DUP5 CALLDATALOAD PUSH2 0x21E4 DUP2 PUSH2 0x214E JUMP JUMPDEST SWAP4 POP PUSH1 0x20 DUP6 ADD CALLDATALOAD PUSH1 0x1 PUSH1 0x1 PUSH1 0x40 SHL SUB DUP2 GT ISZERO PUSH2 0x21FF JUMPI PUSH1 0x0 DUP1 REVERT JUMPDEST PUSH2 0x220B DUP8 DUP3 DUP9 ADD PUSH2 0x2163 JUMP JUMPDEST SWAP1 SWAP5 POP SWAP3 POP PUSH2 0x221E SWAP1 POP PUSH1 0x40 DUP7 ADD PUSH2 0x21A7 JUMP JUMPDEST SWAP1 POP SWAP3 SWAP6 SWAP2 SWAP5 POP SWAP3 POP JUMP JUMPDEST PUSH1 0x0 PUSH1 0x20 DUP3 DUP5 SUB SLT ISZERO PUSH2 0x223B JUMPI PUSH1 0x0 DUP1 REVERT JUMPDEST PUSH2 0x957 DUP3 PUSH2 0x21A7 JUMP JUMPDEST PUSH1 0x0 DUP1 PUSH1 0x40 DUP4 DUP6 SUB SLT ISZERO PUSH2 0x2257 JUMPI PUSH1 0x0 DUP1 REVERT JUMPDEST DUP3 CALLDATALOAD PUSH2 0x2262 DUP2 PUSH2 0x214E JUMP JUMPDEST SWAP2 POP PUSH1 0x20 DUP4 ADD CALLDATALOAD DUP1 ISZERO ISZERO DUP2 EQ PUSH2 0x2277 JUMPI PUSH1 0x0 DUP1 REVERT JUMPDEST DUP1 SWAP2 POP POP SWAP3 POP SWAP3 SWAP1 POP JUMP JUMPDEST PUSH1 0x0 DUP1 PUSH1 0x40 DUP4 DUP6 SUB SLT ISZERO PUSH2 0x2295 JUMPI PUSH1 0x0 DUP1 REVERT JUMPDEST DUP3 CALLDATALOAD PUSH2 0x22A0 DUP2 PUSH2 0x214E JUMP JUMPDEST SWAP2 POP PUSH1 0x20 DUP4 ADD CALLDATALOAD PUSH2 0x2277 DUP2 PUSH2 0x214E JUMP JUMPDEST PUSH1 0x0 DUP1 DUP4 PUSH1 0x1F DUP5 ADD SLT PUSH2 0x22C2 JUMPI PUSH1 0x0 DUP1 REVERT JUMPDEST POP DUP2 CALLDATALOAD PUSH1 0x1 PUSH1 0x1 PUSH1 0x40 SHL SUB DUP2 GT ISZERO PUSH2 0x22D9 JUMPI PUSH1 0x0 DUP1 REVERT JUMPDEST PUSH1 0x20 DUP4 ADD SWAP2 POP DUP4 PUSH1 0x20 DUP3 DUP6 ADD ADD GT ISZERO PUSH2 0xE55 JUMPI PUSH1 0x0 DUP1 REVERT JUMPDEST PUSH1 0x0 DUP1 PUSH1 0x0 PUSH1 0x40 DUP5 DUP7 SUB SLT ISZERO PUSH2 0x2306 JUMPI PUSH1 0x0 DUP1 REVERT JUMPDEST DUP4 CALLDATALOAD PUSH2 0x2311 DUP2 PUSH2 0x214E JUMP JUMPDEST SWAP3 POP PUSH1 0x20 DUP5 ADD CALLDATALOAD PUSH1 0x1 PUSH1 0x1 PUSH1 0x40 SHL SUB DUP2 GT ISZERO PUSH2 0x232C JUMPI PUSH1 0x0 DUP1 REVERT JUMPDEST PUSH2 0x2338 DUP7 DUP3 DUP8 ADD PUSH2 0x22B0 JUMP JUMPDEST SWAP5 SWAP8 SWAP1 SWAP7 POP SWAP4 SWAP5 POP POP POP POP JUMP JUMPDEST DUP1 CALLDATALOAD PUSH4 0xFFFFFFFF DUP2 AND DUP2 EQ PUSH2 0x21BE JUMPI PUSH1 0x0 DUP1 REVERT JUMPDEST PUSH1 0x0 DUP1 PUSH1 0x0 PUSH1 0x60 DUP5 DUP7 SUB SLT ISZERO PUSH2 0x236E JUMPI PUSH1 0x0 DUP1 REVERT JUMPDEST PUSH2 0x2377 DUP5 PUSH2 0x21A7 JUMP JUMPDEST SWAP3 POP PUSH1 0x20 DUP5 ADD CALLDATALOAD PUSH2 0x2387 DUP2 PUSH2 0x214E JUMP JUMPDEST SWAP2 POP PUSH2 0x2395 PUSH1 0x40 DUP6 ADD PUSH2 0x2345 JUMP JUMPDEST SWAP1 POP SWAP3 POP SWAP3 POP SWAP3 JUMP JUMPDEST PUSH1 0x0 DUP1 PUSH1 0x40 DUP4 DUP6 SUB SLT ISZERO PUSH2 0x23B1 JUMPI PUSH1 0x0 DUP1 REVERT JUMPDEST PUSH2 0x22A0 DUP4 PUSH2 0x21A7 JUMP JUMPDEST PUSH1 0x0 DUP1 PUSH1 0x40 DUP4 DUP6 SUB SLT ISZERO PUSH2 0x23CD JUMPI PUSH1 0x0 DUP1 REVERT JUMPDEST PUSH2 0x23D6 DUP4 PUSH2 0x21A7 JUMP JUMPDEST SWAP2 POP PUSH2 0x23E4 PUSH1 0x20 DUP5 ADD PUSH2 0x21A7 JUMP JUMPDEST SWAP1 POP SWAP3 POP SWAP3 SWAP1 POP JUMP JUMPDEST PUSH1 0x0 PUSH1 0x20 DUP3 DUP5 SUB SLT ISZERO PUSH2 0x23FF JUMPI PUSH1 0x0 DUP1 REVERT JUMPDEST POP CALLDATALOAD SWAP2 SWAP1 POP JUMP JUMPDEST PUSH1 0x0 PUSH1 0x20 DUP3 DUP5 SUB SLT ISZERO PUSH2 0x2418 JUMPI PUSH1 0x0 DUP1 REVERT JUMPDEST DUP2 CALLDATALOAD PUSH2 0x957 DUP2 PUSH2 0x214E JUMP JUMPDEST PUSH1 0x1 PUSH1 0x1 PUSH1 0xE0 SHL SUB NOT DUP2 AND DUP2 EQ PUSH2 0x214B JUMPI PUSH1 0x0 DUP1 REVERT JUMPDEST PUSH1 0x0 DUP1 PUSH1 0x40 DUP4 DUP6 SUB SLT ISZERO PUSH2 0x244C JUMPI PUSH1 0x0 DUP1 REVERT JUMPDEST DUP3 CALLDATALOAD PUSH2 0x2457 DUP2 PUSH2 0x214E JUMP JUMPDEST SWAP2 POP PUSH1 0x20 DUP4 ADD CALLDATALOAD PUSH2 0x2277 DUP2 PUSH2 0x2423 JUMP JUMPDEST PUSH1 0x0 DUP1 PUSH1 0x0 PUSH1 0x40 DUP5 DUP7 SUB SLT ISZERO PUSH2 0x247C JUMPI PUSH1 0x0 DUP1 REVERT JUMPDEST PUSH2 0x2311 DUP5 PUSH2 0x21A7 JUMP JUMPDEST PUSH1 0x0 DUP1 PUSH1 0x40 DUP4 DUP6 SUB SLT ISZERO PUSH2 0x2498 JUMPI PUSH1 0x0 DUP1 REVERT JUMPDEST PUSH2 0x24A1 DUP4 PUSH2 0x21A7 JUMP JUMPDEST SWAP2 POP PUSH2 0x23E4 PUSH1 0x20 DUP5 ADD PUSH2 0x2345 JUMP JUMPDEST PUSH1 0x0 DUP1 PUSH1 0x0 DUP1 PUSH1 0x60 DUP6 DUP8 SUB SLT ISZERO PUSH2 0x24C5 JUMPI PUSH1 0x0 DUP1 REVERT JUMPDEST DUP5 CALLDATALOAD PUSH2 0x24D0 DUP2 PUSH2 0x214E JUMP JUMPDEST SWAP4 POP PUSH1 0x20 DUP6 ADD CALLDATALOAD PUSH2 0x24E0 DUP2 PUSH2 0x214E JUMP JUMPDEST SWAP3 POP PUSH1 0x40 DUP6 ADD CALLDATALOAD PUSH1 0x1 PUSH1 0x1 PUSH1 0x40 SHL SUB DUP2 GT ISZERO PUSH2 0x24FB JUMPI PUSH1 0x0 DUP1 REVERT JUMPDEST PUSH2 0x2507 DUP8 DUP3 DUP9 ADD PUSH2 0x22B0 JUMP JUMPDEST SWAP6 SWAP9 SWAP5 SWAP8 POP SWAP6 POP POP POP POP JUMP JUMPDEST PUSH1 0x0 DUP1 PUSH1 0x20 DUP4 DUP6 SUB SLT ISZERO PUSH2 0x2526 JUMPI PUSH1 0x0 DUP1 REVERT JUMPDEST DUP3 CALLDATALOAD PUSH1 0x1 PUSH1 0x1 PUSH1 0x40 SHL SUB DUP2 GT ISZERO PUSH2 0x253C JUMPI PUSH1 0x0 DUP1 REVERT JUMPDEST PUSH2 0x2548 DUP6 DUP3 DUP7 ADD PUSH2 0x2163 JUMP JUMPDEST SWAP1 SWAP7 SWAP1 SWAP6 POP SWAP4 POP POP POP POP JUMP JUMPDEST PUSH1 0x0 JUMPDEST DUP4 DUP2 LT ISZERO PUSH2 0x256F JUMPI DUP2 DUP2 ADD MLOAD DUP4 DUP3 ADD MSTORE PUSH1 0x20 ADD PUSH2 0x2557 JUMP JUMPDEST POP POP PUSH1 0x0 SWAP2 ADD MSTORE JUMP JUMPDEST PUSH1 0x0 PUSH1 0x20 DUP1 DUP4 ADD DUP2 DUP5 MSTORE DUP1 DUP6 MLOAD DUP1 DUP4 MSTORE PUSH1 0x40 DUP7 ADD SWAP2 POP PUSH1 0x40 DUP2 PUSH1 0x5 SHL DUP8 ADD ADD SWAP3 POP DUP4 DUP8 ADD PUSH1 0x0 JUMPDEST DUP3 DUP2 LT ISZERO PUSH2 0x25E5 JUMPI DUP8 DUP6 SUB PUSH1 0x3F NOT ADD DUP5 MSTORE DUP2 MLOAD DUP1 MLOAD DUP1 DUP8 MSTORE PUSH2 0x25C6 DUP2 DUP10 DUP10 ADD DUP11 DUP6 ADD PUSH2 0x2554 JUMP JUMPDEST PUSH1 0x1F ADD PUSH1 0x1F NOT AND SWAP6 SWAP1 SWAP6 ADD DUP7 ADD SWAP5 POP SWAP3 DUP6 ADD SWAP3 SWAP1 DUP6 ADD SWAP1 PUSH1 0x1 ADD PUSH2 0x259F JUMP JUMPDEST POP SWAP3 SWAP8 SWAP7 POP POP POP POP POP POP POP JUMP JUMPDEST PUSH1 0x0 DUP1 PUSH1 0x0 PUSH1 0x60 DUP5 DUP7 SUB SLT ISZERO PUSH2 0x2607 JUMPI PUSH1 0x0 DUP1 REVERT JUMPDEST DUP4 CALLDATALOAD PUSH2 0x2612 DUP2 PUSH2 0x214E JUMP JUMPDEST SWAP3 POP PUSH1 0x20 DUP5 ADD CALLDATALOAD PUSH2 0x2622 DUP2 PUSH2 0x214E JUMP JUMPDEST SWAP2 POP PUSH1 0x40 DUP5 ADD CALLDATALOAD PUSH2 0x2632 DUP2 PUSH2 0x2423 JUMP JUMPDEST DUP1 SWAP2 POP POP SWAP3 POP SWAP3 POP SWAP3 JUMP JUMPDEST PUSH1 0x0 DUP1 PUSH1 0x40 DUP4 DUP6 SUB SLT ISZERO PUSH2 0x2650 JUMPI PUSH1 0x0 DUP1 REVERT JUMPDEST DUP3 CALLDATALOAD PUSH2 0x24A1 DUP2 PUSH2 0x214E JUMP JUMPDEST PUSH1 0x0 DUP1 PUSH1 0x0 DUP1 PUSH1 0x60 DUP6 DUP8 SUB SLT ISZERO PUSH2 0x2671 JUMPI PUSH1 0x0 DUP1 REVERT JUMPDEST DUP5 CALLDATALOAD PUSH2 0x267C DUP2 PUSH2 0x214E JUMP JUMPDEST SWAP4 POP PUSH1 0x20 DUP6 ADD CALLDATALOAD PUSH1 0x1 PUSH1 0x1 PUSH1 0x40 SHL SUB DUP2 GT ISZERO PUSH2 0x2697 JUMPI PUSH1 0x0 DUP1 REVERT JUMPDEST PUSH2 0x26A3 DUP8 DUP3 DUP9 ADD PUSH2 0x22B0 JUMP JUMPDEST SWAP1 SWAP5 POP SWAP3 POP POP PUSH1 0x40 DUP6 ADD CALLDATALOAD PUSH6 0xFFFFFFFFFFFF DUP2 AND DUP2 EQ PUSH2 0x26C2 JUMPI PUSH1 0x0 DUP1 REVERT JUMPDEST SWAP4 SWAP7 SWAP3 SWAP6 POP SWAP1 SWAP4 POP POP JUMP JUMPDEST PUSH4 0x4E487B71 PUSH1 0xE0 SHL PUSH1 0x0 MSTORE PUSH1 0x32 PUSH1 0x4 MSTORE PUSH1 0x24 PUSH1 0x0 REVERT JUMPDEST PUSH1 0x0 PUSH1 0x20 DUP3 DUP5 SUB SLT ISZERO PUSH2 0x26F5 JUMPI PUSH1 0x0 DUP1 REVERT JUMPDEST DUP2 CALLDATALOAD PUSH2 0x957 DUP2 PUSH2 0x2423 JUMP JUMPDEST PUSH4 0x4E487B71 PUSH1 0xE0 SHL PUSH1 0x0 MSTORE PUSH1 0x11 PUSH1 0x4 MSTORE PUSH1 0x24 PUSH1 0x0 REVERT JUMPDEST PUSH1 0x0 PUSH1 0x1 DUP3 ADD PUSH2 0x2728 JUMPI PUSH2 0x2728 PUSH2 0x2700 JUMP JUMPDEST POP PUSH1 0x1 ADD SWAP1 JUMP JUMPDEST DUP2 DUP4 MSTORE DUP2 DUP2 PUSH1 0x20 DUP6 ADD CALLDATACOPY POP PUSH1 0x0 DUP3 DUP3 ADD PUSH1 0x20 SWAP1 DUP2 ADD SWAP2 SWAP1 SWAP2 MSTORE PUSH1 0x1F SWAP1 SWAP2 ADD PUSH1 0x1F NOT AND SWAP1 SWAP2 ADD ADD SWAP1 JUMP JUMPDEST PUSH1 0x20 DUP2 MSTORE PUSH1 0x0 PUSH2 0x276C PUSH1 0x20 DUP4 ADD DUP5 DUP7 PUSH2 0x272F JUMP JUMPDEST SWAP5 SWAP4 POP POP POP POP JUMP JUMPDEST PUSH1 0x0 PUSH1 0x20 DUP3 DUP5 SUB SLT ISZERO PUSH2 0x2786 JUMPI PUSH1 0x0 DUP1 REVERT JUMPDEST DUP2 MLOAD PUSH2 0x957 DUP2 PUSH2 0x2423 JUMP JUMPDEST PUSH1 0x1 PUSH1 0x1 PUSH1 0xA0 SHL SUB DUP6 DUP2 AND DUP3 MSTORE DUP5 AND PUSH1 0x20 DUP3 ADD MSTORE PUSH1 0x60 PUSH1 0x40 DUP3 ADD DUP2 SWAP1 MSTORE PUSH1 0x0 SWAP1 PUSH2 0x1538 SWAP1 DUP4 ADD DUP5 DUP7 PUSH2 0x272F JUMP JUMPDEST PUSH1 0x0 DUP1 DUP6 DUP6 GT ISZERO PUSH2 0x27CE JUMPI PUSH1 0x0 DUP1 REVERT JUMPDEST DUP4 DUP7 GT ISZERO PUSH2 0x27DB JUMPI PUSH1 0x0 DUP1 REVERT JUMPDEST POP POP DUP3 ADD SWAP4 SWAP2 SWAP1 SWAP3 SUB SWAP2 POP JUMP JUMPDEST PUSH4 0x4E487B71 PUSH1 0xE0 SHL PUSH1 0x0 MSTORE PUSH1 0x41 PUSH1 0x4 MSTORE PUSH1 0x24 PUSH1 0x0 REVERT JUMPDEST PUSH1 0x0 DUP1 DUP4 CALLDATALOAD PUSH1 0x1E NOT DUP5 CALLDATASIZE SUB ADD DUP2 SLT PUSH2 0x2815 JUMPI PUSH1 0x0 DUP1 REVERT JUMPDEST DUP4 ADD DUP1 CALLDATALOAD SWAP2 POP PUSH1 0x1 PUSH1 0x1 PUSH1 0x40 SHL SUB DUP3 GT ISZERO PUSH2 0x282F JUMPI PUSH1 0x0 DUP1 REVERT JUMPDEST PUSH1 0x20 ADD SWAP2 POP CALLDATASIZE DUP2 SWAP1 SUB DUP3 SGT ISZERO PUSH2 0xE55 JUMPI PUSH1 0x0 DUP1 REVERT JUMPDEST DUP3 DUP5 DUP3 CALLDATACOPY PUSH1 0x0 DUP4 DUP3 ADD PUSH1 0x0 DUP2 MSTORE DUP4 MLOAD PUSH2 0x2861 DUP2 DUP4 PUSH1 0x20 DUP9 ADD PUSH2 0x2554 JUMP JUMPDEST ADD SWAP6 SWAP5 POP POP POP POP POP JUMP JUMPDEST PUSH6 0xFFFFFFFFFFFF DUP2 DUP2 AND DUP4 DUP3 AND ADD SWAP1 DUP1 DUP3 GT ISZERO PUSH2 0x288A JUMPI PUSH2 0x288A PUSH2 0x2700 JUMP JUMPDEST POP SWAP3 SWAP2 POP POP JUMP JUMPDEST PUSH6 0xFFFFFFFFFFFF DUP7 AND DUP2 MSTORE PUSH1 0x1 PUSH1 0x1 PUSH1 0xA0 SHL SUB DUP6 DUP2 AND PUSH1 0x20 DUP4 ADD MSTORE DUP5 AND PUSH1 0x40 DUP3 ADD MSTORE PUSH1 0x80 PUSH1 0x60 DUP3 ADD DUP2 SWAP1 MSTORE PUSH1 0x0 SWAP1 PUSH2 0x28CC SWAP1 DUP4 ADD DUP5 DUP7 PUSH2 0x272F JUMP JUMPDEST SWAP8 SWAP7 POP POP POP POP POP POP POP JUMP JUMPDEST PUSH1 0x1 PUSH1 0x1 PUSH1 0xE0 SHL SUB NOT DUP2 CALLDATALOAD DUP2 DUP2 AND SWAP2 PUSH1 0x4 DUP6 LT ISZERO PUSH2 0xD1D JUMPI PUSH1 0x4 SWAP5 SWAP1 SWAP5 SUB PUSH1 0x3 SHL DUP5 SWAP1 SHL AND SWAP1 SWAP3 AND SWAP3 SWAP2 POP POP JUMP JUMPDEST PUSH1 0x0 DUP3 MLOAD PUSH2 0x2917 DUP2 DUP5 PUSH1 0x20 DUP8 ADD PUSH2 0x2554 JUMP JUMPDEST SWAP2 SWAP1 SWAP2 ADD SWAP3 SWAP2 POP POP JUMP JUMPDEST PUSH4 0xFFFFFFFF DUP3 DUP2 AND DUP3 DUP3 AND SUB SWAP1 DUP1 DUP3 GT ISZERO PUSH2 0x288A JUMPI PUSH2 0x288A PUSH2 0x2700 JUMP INVALID LOG2 PUSH5 0x6970667358 0x22 SLT KECCAK256 CALLDATACOPY 0xBB 0xC1 ISZERO PUSH4 0x374F6BD2 CALLVALUE LOG2 PUSH31 0xF2EDF20DCBBD9A9DCAC8D2D5051075484111442064736F6C63430008140033 "},"methodIdentifiers":{"ADMIN_ROLE()":"75b238fc","PUBLIC_ROLE()":"3ca7c02a","canCall(address,address,bytes4)":"b7009613","cancel(address,address,bytes)":"d6bb62c6","consumeScheduledOp(address,bytes)":"94c7d7ee","execute(address,bytes)":"1cff79cd","expiration()":"4665096d","getAccess(uint64,address)":"3078f114","getNonce(bytes32)":"4136a33c","getRoleAdmin(uint64)":"530dd456","getRoleGrantDelay(uint64)":"12be8727","getRoleGuardian(uint64)":"0b0a93ba","getSchedule(bytes32)":"3adc277a","getTargetAdminDelay(address)":"4c1da1e2","getTargetFunctionRole(address,bytes4)":"6d5115bd","grantRole(uint64,address,uint32)":"25c471a0","hasRole(uint64,address)":"d1f856ee","hashOperation(address,address,bytes)":"abd9bd2a","isTargetClosed(address)":"a166aa89","labelRole(uint64,string)":"853551b8","minSetback()":"cc1b6c81","multicall(bytes[])":"ac9650d8","renounceRole(uint64,address)":"fe0776f5","revokeRole(uint64,address)":"b7d2b162","schedule(address,bytes,uint48)":"f801a698","setGrantDelay(uint64,uint32)":"a64d95ce","setRoleAdmin(uint64,uint64)":"30cae187","setRoleGuardian(uint64,uint64)":"52962952","setTargetAdminDelay(address,uint32)":"d22b5989","setTargetClosed(address,bool)":"167bd395","setTargetFunctionRole(address,bytes4[],uint64)":"08d6122d","updateAuthority(address,address)":"18ff183c"}}}}}