{"contracts/management/PresaleManager.sol":{"PresaleManager":{"abi":[{"inputs":[{"internalType":"address","name":"initialOwner","type":"address"},{"internalType":"address[]","name":"_workers","type":"address[]"}],"stateMutability":"nonpayable","type":"constructor"},{"inputs":[{"internalType":"bytes32","name":"operationId","type":"bytes32"}],"name":"AccessManagerAlreadyScheduled","type":"error"},{"inputs":[],"name":"AccessManagerBadConfirmation","type":"error"},{"inputs":[{"internalType":"bytes32","name":"operationId","type":"bytes32"}],"name":"AccessManagerExpired","type":"error"},{"inputs":[{"internalType":"address","name":"initialAdmin","type":"address"}],"name":"AccessManagerInvalidInitialAdmin","type":"error"},{"inputs":[{"internalType":"address","name":"account","type":"address"}],"name":"AccessManagerLockedAccount","type":"error"},{"inputs":[{"internalType":"uint64","name":"roleId","type":"uint64"}],"name":"AccessManagerLockedRole","type":"error"},{"inputs":[{"internalType":"bytes32","name":"operationId","type":"bytes32"}],"name":"AccessManagerNotReady","type":"error"},{"inputs":[{"internalType":"bytes32","name":"operationId","type":"bytes32"}],"name":"AccessManagerNotScheduled","type":"error"},{"inputs":[{"internalType":"address","name":"msgsender","type":"address"},{"internalType":"uint64","name":"roleId","type":"uint64"}],"name":"AccessManagerUnauthorizedAccount","type":"error"},{"inputs":[{"internalType":"address","name":"caller","type":"address"},{"internalType":"address","name":"target","type":"address"},{"internalType":"bytes4","name":"selector","type":"bytes4"}],"name":"AccessManagerUnauthorizedCall","type":"error"},{"inputs":[{"internalType":"address","name":"msgsender","type":"address"},{"internalType":"address","name":"caller","type":"address"},{"internalType":"address","name":"target","type":"address"},{"internalType":"bytes4","name":"selector","type":"bytes4"}],"name":"AccessManagerUnauthorizedCancel","type":"error"},{"inputs":[{"internalType":"address","name":"target","type":"address"}],"name":"AccessManagerUnauthorizedConsume","type":"error"},{"inputs":[{"internalType":"address","name":"target","type":"address"}],"name":"AddressEmptyCode","type":"error"},{"inputs":[{"internalType":"address","name":"account","type":"address"}],"name":"AddressInsufficientBalance","type":"error"},{"inputs":[],"name":"EmptyAddress","type":"error"},{"inputs":[],"name":"EmptyAuthority","type":"error"},{"inputs":[],"name":"FailedInnerCall","type":"error"},{"inputs":[],"name":"NotAnAdmin","type":"error"},{"inputs":[{"internalType":"uint256","name":"i","type":"uint256"}],"name":"OutOfBounds","type":"error"},{"inputs":[{"internalType":"uint8","name":"bits","type":"uint8"},{"internalType":"uint256","name":"value","type":"uint256"}],"name":"SafeCastOverflowedUintDowncast","type":"error"},{"anonymous":false,"inputs":[{"indexed":true,"internalType":"bytes32","name":"operationId","type":"bytes32"},{"indexed":true,"internalType":"uint32","name":"nonce","type":"uint32"}],"name":"OperationCanceled","type":"event"},{"anonymous":false,"inputs":[{"indexed":true,"internalType":"bytes32","name":"operationId","type":"bytes32"},{"indexed":true,"internalType":"uint32","name":"nonce","type":"uint32"}],"name":"OperationExecuted","type":"event"},{"anonymous":false,"inputs":[{"indexed":true,"internalType":"bytes32","name":"operationId","type":"bytes32"},{"indexed":true,"internalType":"uint32","name":"nonce","type":"uint32"},{"indexed":false,"internalType":"uint48","name":"schedule","type":"uint48"},{"indexed":false,"internalType":"address","name":"caller","type":"address"},{"indexed":false,"internalType":"address","name":"target","type":"address"},{"indexed":false,"internalType":"bytes","name":"data","type":"bytes"}],"name":"OperationScheduled","type":"event"},{"anonymous":false,"inputs":[{"indexed":true,"internalType":"uint64","name":"roleId","type":"uint64"},{"indexed":true,"internalType":"uint64","name":"admin","type":"uint64"}],"name":"RoleAdminChanged","type":"event"},{"anonymous":false,"inputs":[{"indexed":true,"internalType":"uint64","name":"roleId","type":"uint64"},{"indexed":false,"internalType":"uint32","name":"delay","type":"uint32"},{"indexed":false,"internalType":"uint48","name":"since","type":"uint48"}],"name":"RoleGrantDelayChanged","type":"event"},{"anonymous":false,"inputs":[{"indexed":true,"internalType":"uint64","name":"roleId","type":"uint64"},{"indexed":true,"internalType":"address","name":"account","type":"address"},{"indexed":false,"internalType":"uint32","name":"delay","type":"uint32"},{"indexed":false,"internalType":"uint48","name":"since","type":"uint48"},{"indexed":false,"internalType":"bool","name":"newMember","type":"bool"}],"name":"RoleGranted","type":"event"},{"anonymous":false,"inputs":[{"indexed":true,"internalType":"uint64","name":"roleId","type":"uint64"},{"indexed":true,"internalType":"uint64","name":"guardian","type":"uint64"}],"name":"RoleGuardianChanged","type":"event"},{"anonymous":false,"inputs":[{"indexed":true,"internalType":"uint64","name":"roleId","type":"uint64"},{"indexed":false,"internalType":"string","name":"label","type":"string"}],"name":"RoleLabel","type":"event"},{"anonymous":false,"inputs":[{"indexed":true,"internalType":"uint64","name":"roleId","type":"uint64"},{"indexed":true,"internalType":"address","name":"account","type":"address"}],"name":"RoleRevoked","type":"event"},{"anonymous":false,"inputs":[{"indexed":true,"internalType":"address","name":"target","type":"address"},{"indexed":false,"internalType":"uint32","name":"delay","type":"uint32"},{"indexed":false,"internalType":"uint48","name":"since","type":"uint48"}],"name":"TargetAdminDelayUpdated","type":"event"},{"anonymous":false,"inputs":[{"indexed":true,"internalType":"address","name":"target","type":"address"},{"indexed":false,"internalType":"bool","name":"closed","type":"bool"}],"name":"TargetClosed","type":"event"},{"anonymous":false,"inputs":[{"indexed":true,"internalType":"address","name":"target","type":"address"},{"indexed":false,"internalType":"bytes4","name":"selector","type":"bytes4"},{"indexed":true,"internalType":"uint64","name":"roleId","type":"uint64"}],"name":"TargetFunctionRoleUpdated","type":"event"},{"inputs":[],"name":"ADMIN_ROLE","outputs":[{"internalType":"uint64","name":"","type":"uint64"}],"stateMutability":"view","type":"function"},{"inputs":[],"name":"PUBLIC_ROLE","outputs":[{"internalType":"uint64","name":"","type":"uint64"}],"stateMutability":"view","type":"function"},{"inputs":[{"internalType":"address","name":"_worker","type":"address"}],"name":"addWorker","outputs":[{"internalType":"bool","name":"","type":"bool"}],"stateMutability":"nonpayable","type":"function"},{"inputs":[{"internalType":"uint256","name":"i","type":"uint256"}],"name":"at","outputs":[{"internalType":"address","name":"","type":"address"}],"stateMutability":"nonpayable","type":"function"},{"inputs":[{"internalType":"address","name":"caller","type":"address"},{"internalType":"address","name":"target","type":"address"},{"internalType":"bytes4","name":"selector","type":"bytes4"}],"name":"canCall","outputs":[{"internalType":"bool","name":"immediate","type":"bool"},{"internalType":"uint32","name":"delay","type":"uint32"}],"stateMutability":"view","type":"function"},{"inputs":[{"internalType":"address","name":"caller","type":"address"},{"internalType":"address","name":"target","type":"address"},{"internalType":"bytes","name":"data","type":"bytes"}],"name":"cancel","outputs":[{"internalType":"uint32","name":"","type":"uint32"}],"stateMutability":"nonpayable","type":"function"},{"inputs":[{"internalType":"address","name":"caller","type":"address"},{"internalType":"bytes","name":"data","type":"bytes"}],"name":"consumeScheduledOp","outputs":[],"stateMutability":"nonpayable","type":"function"},{"inputs":[{"internalType":"address","name":"target","type":"address"},{"internalType":"bytes","name":"data","type":"bytes"}],"name":"execute","outputs":[{"internalType":"uint32","name":"","type":"uint32"}],"stateMutability":"payable","type":"function"},{"inputs":[],"name":"expiration","outputs":[{"internalType":"uint32","name":"","type":"uint32"}],"stateMutability":"view","type":"function"},{"inputs":[{"internalType":"uint64","name":"roleId","type":"uint64"},{"internalType":"address","name":"account","type":"address"}],"name":"getAccess","outputs":[{"internalType":"uint48","name":"since","type":"uint48"},{"internalType":"uint32","name":"currentDelay","type":"uint32"},{"internalType":"uint32","name":"pendingDelay","type":"uint32"},{"internalType":"uint48","name":"effect","type":"uint48"}],"stateMutability":"view","type":"function"},{"inputs":[{"internalType":"bytes32","name":"id","type":"bytes32"}],"name":"getNonce","outputs":[{"internalType":"uint32","name":"","type":"uint32"}],"stateMutability":"view","type":"function"},{"inputs":[{"internalType":"uint64","name":"roleId","type":"uint64"}],"name":"getRoleAdmin","outputs":[{"internalType":"uint64","name":"","type":"uint64"}],"stateMutability":"view","type":"function"},{"inputs":[{"internalType":"uint64","name":"roleId","type":"uint64"}],"name":"getRoleGrantDelay","outputs":[{"internalType":"uint32","name":"","type":"uint32"}],"stateMutability":"view","type":"function"},{"inputs":[{"internalType":"uint64","name":"roleId","type":"uint64"}],"name":"getRoleGuardian","outputs":[{"internalType":"uint64","name":"","type":"uint64"}],"stateMutability":"view","type":"function"},{"inputs":[{"internalType":"bytes32","name":"id","type":"bytes32"}],"name":"getSchedule","outputs":[{"internalType":"uint48","name":"","type":"uint48"}],"stateMutability":"view","type":"function"},{"inputs":[{"internalType":"address","name":"target","type":"address"}],"name":"getTargetAdminDelay","outputs":[{"internalType":"uint32","name":"","type":"uint32"}],"stateMutability":"view","type":"function"},{"inputs":[{"internalType":"address","name":"target","type":"address"},{"internalType":"bytes4","name":"selector","type":"bytes4"}],"name":"getTargetFunctionRole","outputs":[{"internalType":"uint64","name":"","type":"uint64"}],"stateMutability":"view","type":"function"},{"inputs":[{"internalType":"uint64","name":"roleId","type":"uint64"},{"internalType":"address","name":"account","type":"address"},{"internalType":"uint32","name":"executionDelay","type":"uint32"}],"name":"grantRole","outputs":[],"stateMutability":"nonpayable","type":"function"},{"inputs":[{"internalType":"uint64","name":"roleId","type":"uint64"},{"internalType":"address","name":"account","type":"address"}],"name":"hasRole","outputs":[{"internalType":"bool","name":"isMember","type":"bool"},{"internalType":"uint32","name":"executionDelay","type":"uint32"}],"stateMutability":"view","type":"function"},{"inputs":[{"internalType":"address","name":"caller","type":"address"},{"internalType":"address","name":"target","type":"address"},{"internalType":"bytes","name":"data","type":"bytes"}],"name":"hashOperation","outputs":[{"internalType":"bytes32","name":"","type":"bytes32"}],"stateMutability":"view","type":"function"},{"inputs":[{"internalType":"address","name":"_worker","type":"address"}],"name":"haveWorker","outputs":[{"internalType":"bool","name":"","type":"bool"}],"stateMutability":"view","type":"function"},{"inputs":[{"internalType":"address","name":"target","type":"address"}],"name":"isTargetClosed","outputs":[{"internalType":"bool","name":"","type":"bool"}],"stateMutability":"view","type":"function"},{"inputs":[{"internalType":"uint64","name":"roleId","type":"uint64"},{"internalType":"string","name":"label","type":"string"}],"name":"labelRole","outputs":[],"stateMutability":"nonpayable","type":"function"},{"inputs":[],"name":"minSetback","outputs":[{"internalType":"uint32","name":"","type":"uint32"}],"stateMutability":"view","type":"function"},{"inputs":[{"internalType":"bytes[]","name":"data","type":"bytes[]"}],"name":"multicall","outputs":[{"internalType":"bytes[]","name":"results","type":"bytes[]"}],"stateMutability":"nonpayable","type":"function"},{"inputs":[{"internalType":"address","name":"_worker","type":"address"}],"name":"remove","outputs":[],"stateMutability":"nonpayable","type":"function"},{"inputs":[{"internalType":"uint256","name":"i","type":"uint256"}],"name":"removeAt","outputs":[],"stateMutability":"nonpayable","type":"function"},{"inputs":[{"internalType":"uint64","name":"roleId","type":"uint64"},{"internalType":"address","name":"callerConfirmation","type":"address"}],"name":"renounceRole","outputs":[],"stateMutability":"nonpayable","type":"function"},{"inputs":[{"internalType":"uint64","name":"roleId","type":"uint64"},{"internalType":"address","name":"account","type":"address"}],"name":"revokeRole","outputs":[],"stateMutability":"nonpayable","type":"function"},{"inputs":[{"internalType":"address","name":"target","type":"address"},{"internalType":"bytes","name":"data","type":"bytes"},{"internalType":"uint48","name":"when","type":"uint48"}],"name":"schedule","outputs":[{"internalType":"bytes32","name":"operationId","type":"bytes32"},{"internalType":"uint32","name":"nonce","type":"uint32"}],"stateMutability":"nonpayable","type":"function"},{"inputs":[{"internalType":"uint64","name":"roleId","type":"uint64"},{"internalType":"uint32","name":"newDelay","type":"uint32"}],"name":"setGrantDelay","outputs":[],"stateMutability":"nonpayable","type":"function"},{"inputs":[{"internalType":"uint64","name":"roleId","type":"uint64"},{"internalType":"uint64","name":"admin","type":"uint64"}],"name":"setRoleAdmin","outputs":[],"stateMutability":"nonpayable","type":"function"},{"inputs":[{"internalType":"uint64","name":"roleId","type":"uint64"},{"internalType":"uint64","name":"guardian","type":"uint64"}],"name":"setRoleGuardian","outputs":[],"stateMutability":"nonpayable","type":"function"},{"inputs":[{"internalType":"address","name":"target","type":"address"},{"internalType":"uint32","name":"newDelay","type":"uint32"}],"name":"setTargetAdminDelay","outputs":[],"stateMutability":"nonpayable","type":"function"},{"inputs":[{"internalType":"address","name":"target","type":"address"},{"internalType":"bool","name":"closed","type":"bool"}],"name":"setTargetClosed","outputs":[],"stateMutability":"nonpayable","type":"function"},{"inputs":[{"internalType":"address","name":"target","type":"address"},{"internalType":"bytes4[]","name":"selectors","type":"bytes4[]"},{"internalType":"uint64","name":"roleId","type":"uint64"}],"name":"setTargetFunctionRole","outputs":[],"stateMutability":"nonpayable","type":"function"},{"inputs":[],"name":"total","outputs":[{"internalType":"uint256","name":"","type":"uint256"}],"stateMutability":"view","type":"function"},{"inputs":[{"internalType":"address","name":"newAuthority","type":"address"}],"name":"transferAuthority","outputs":[],"stateMutability":"nonpayable","type":"function"},{"inputs":[{"internalType":"address","name":"target","type":"address"},{"internalType":"address","name":"newAuthority","type":"address"}],"name":"updateAuthority","outputs":[],"stateMutability":"nonpayable","type":"function"},{"inputs":[],"name":"values","outputs":[{"internalType":"address[]","name":"","type":"address[]"}],"stateMutability":"view","type":"function"}],"devdoc":{"author":"Ilya A. Shlyakhovoy","errors":{"AddressEmptyCode(address)":[{"details":"There's no code at `target` (it is not a contract)."}],"AddressInsufficientBalance(address)":[{"details":"The ETH balance of the account is not enough to perform the operation."}],"FailedInnerCall()":[{"details":"A call to an address target failed. The target may have reverted."}],"SafeCastOverflowedUintDowncast(uint8,uint256)":[{"details":"Value doesn't fit in an uint of `bits` size."}]},"events":{"OperationCanceled(bytes32,uint32)":{"details":"A scheduled operation was canceled."},"OperationExecuted(bytes32,uint32)":{"details":"A scheduled operation was executed."},"OperationScheduled(bytes32,uint32,uint48,address,address,bytes)":{"details":"A delayed operation was scheduled."},"RoleAdminChanged(uint64,uint64)":{"details":"Role acting as admin over a given `roleId` is updated."},"RoleGrantDelayChanged(uint64,uint32,uint48)":{"details":"Grant delay for a given `roleId` will be updated to `delay` when `since` is reached."},"RoleGranted(uint64,address,uint32,uint48,bool)":{"details":"Emitted when `account` is granted `roleId`. NOTE: The meaning of the `since` argument depends on the `newMember` argument. If the role is granted to a new member, the `since` argument indicates when the account becomes a member of the role, otherwise it indicates the execution delay for this account and roleId is updated."},"RoleGuardianChanged(uint64,uint64)":{"details":"Role acting as guardian over a given `roleId` is updated."},"RoleLabel(uint64,string)":{"details":"Informational labelling for a roleId."},"RoleRevoked(uint64,address)":{"details":"Emitted when `account` membership or `roleId` is revoked. Unlike granting, revoking is instantaneous."},"TargetAdminDelayUpdated(address,uint32,uint48)":{"details":"Admin delay for a given `target` will be updated to `delay` when `since` is reached."},"TargetClosed(address,bool)":{"details":"Target mode is updated (true = closed, false = open)."},"TargetFunctionRoleUpdated(address,bytes4,uint64)":{"details":"Role required to invoke `selector` on `target` is updated to `roleId`."}},"kind":"dev","methods":{"canCall(address,address,bytes4)":{"details":"Check if an address (`caller`) is authorised to call a given function on a given contract directly (with no restriction). Additionally, it returns the delay needed to perform the call indirectly through the {schedule} & {execute} workflow. This function is usually called by the targeted contract to control immediate execution of restricted functions. Therefore we only return true if the call can be performed without any delay. If the call is subject to a previously set delay (not zero), then the function should return false and the caller should schedule the operation for future execution. If `immediate` is true, the delay can be disregarded and the operation can be immediately executed, otherwise the operation can be executed if and only if delay is greater than 0. NOTE: The IAuthority interface does not include the `uint32` delay. This is an extension of that interface that is backward compatible. Some contracts may thus ignore the second return argument. In that case they will fail to identify the indirect workflow, and will consider calls that require a delay to be forbidden. NOTE: This function does not report the permissions of this manager itself. These are defined by the {_canCallSelf} function instead."},"cancel(address,address,bytes)":{"details":"Cancel a scheduled (delayed) operation. Returns the nonce that identifies the previously scheduled operation that is cancelled. Requirements: - the caller must be the proposer, a guardian of the targeted function, or a global admin Emits a {OperationCanceled} event."},"consumeScheduledOp(address,bytes)":{"details":"Consume a scheduled operation targeting the caller. If such an operation exists, mark it as consumed (emit an {OperationExecuted} event and clean the state). Otherwise, throw an error. This is useful for contract that want to enforce that calls targeting them were scheduled on the manager, with all the verifications that it implies. Emit a {OperationExecuted} event."},"execute(address,bytes)":{"details":"Execute a function that is delay restricted, provided it was properly scheduled beforehand, or the execution delay is 0. Returns the nonce that identifies the previously scheduled operation that is executed, or 0 if the operation wasn't previously scheduled (if the caller doesn't have an execution delay). Emits an {OperationExecuted} event only if the call was scheduled and delayed."},"expiration()":{"details":"Expiration delay for scheduled proposals. Defaults to 1 week. IMPORTANT: Avoid overriding the expiration with 0. Otherwise every contract proposal will be expired immediately, disabling any scheduling usage."},"getAccess(uint64,address)":{"details":"Get the access details for a given account for a given role. These details include the timepoint at which membership becomes active, and the delay applied to all operation by this user that requires this permission level. Returns: [0] Timestamp at which the account membership becomes valid. 0 means role is not granted. [1] Current execution delay for the account. [2] Pending execution delay for the account. [3] Timestamp at which the pending execution delay will become active. 0 means no delay update is scheduled."},"getNonce(bytes32)":{"details":"Return the nonce for the latest scheduled operation with a given id. Returns 0 if the operation has never been scheduled."},"getRoleAdmin(uint64)":{"details":"Get the id of the role that acts as an admin for the given role. The admin permission is required to grant the role, revoke the role and update the execution delay to execute an operation that is restricted to this role."},"getRoleGrantDelay(uint64)":{"details":"Get the role current grant delay. Its value may change at any point without an event emitted following a call to {setGrantDelay}. Changes to this value, including effect timepoint are notified in advance by the {RoleGrantDelayChanged} event."},"getRoleGuardian(uint64)":{"details":"Get the role that acts as a guardian for a given role. The guardian permission allows canceling operations that have been scheduled under the role."},"getSchedule(bytes32)":{"details":"Return the timepoint at which a scheduled operation will be ready for execution. This returns 0 if the operation is not yet scheduled, has expired, was executed, or was canceled."},"getTargetAdminDelay(address)":{"details":"Get the admin delay for a target contract. Changes to contract configuration are subject to this delay."},"getTargetFunctionRole(address,bytes4)":{"details":"Get the role required to call a function."},"grantRole(uint64,address,uint32)":{"details":"Add `account` to `roleId`, or change its execution delay. This gives the account the authorization to call any function that is restricted to this role. An optional execution delay (in seconds) can be set. If that delay is non 0, the user is required to schedule any operation that is restricted to members of this role. The user will only be able to execute the operation after the delay has passed, before it has expired. During this period, admin and guardians can cancel the operation (see {cancel}). If the account has already been granted this role, the execution delay will be updated. This update is not immediate and follows the delay rules. For example, if a user currently has a delay of 3 hours, and this is called to reduce that delay to 1 hour, the new delay will take some time to take effect, enforcing that any operation executed in the 3 hours that follows this update was indeed scheduled before this update. Requirements: - the caller must be an admin for the role (see {getRoleAdmin}) - granted role must not be the `PUBLIC_ROLE` Emits a {RoleGranted} event."},"hasRole(uint64,address)":{"details":"Check if a given account currently has the permission level corresponding to a given role. Note that this permission might be associated with an execution delay. {getAccess} can provide more details."},"hashOperation(address,address,bytes)":{"details":"Hashing function for delayed operations."},"isTargetClosed(address)":{"details":"Get whether the contract is closed disabling any access. Otherwise role permissions are applied."},"labelRole(uint64,string)":{"details":"Give a label to a role, for improved role discoverability by UIs. Requirements: - the caller must be a global admin Emits a {RoleLabel} event."},"minSetback()":{"details":"Minimum setback for all delay updates, with the exception of execution delays. It can be increased without setback (and reset via {revokeRole} in the case event of an accidental increase). Defaults to 5 days."},"multicall(bytes[])":{"custom:oz-upgrades-unsafe-allow-reachable":"delegatecall","details":"Receives and executes a batch of function calls on this contract."},"renounceRole(uint64,address)":{"details":"Renounce role permissions for the calling account with immediate effect. If the sender is not in the role this call has no effect. Requirements: - the caller must be `callerConfirmation`. Emits a {RoleRevoked} event if the account had the role."},"revokeRole(uint64,address)":{"details":"Remove an account from a role, with immediate effect. If the account does not have the role, this call has no effect. Requirements: - the caller must be an admin for the role (see {getRoleAdmin}) - revoked role must not be the `PUBLIC_ROLE` Emits a {RoleRevoked} event if the account had the role."},"schedule(address,bytes,uint48)":{"details":"Schedule a delayed operation for future execution, and return the operation identifier. It is possible to choose the timestamp at which the operation becomes executable as long as it satisfies the execution delays required for the caller. The special value zero will automatically set the earliest possible time. Returns the `operationId` that was scheduled. Since this value is a hash of the parameters, it can reoccur when the same parameters are used; if this is relevant, the returned `nonce` can be used to uniquely identify this scheduled operation from other occurrences of the same `operationId` in invocations of {execute} and {cancel}. Emits a {OperationScheduled} event. NOTE: It is not possible to concurrently schedule more than one operation with the same `target` and `data`. If this is necessary, a random byte can be appended to `data` to act as a salt that will be ignored by the target contract if it is using standard Solidity ABI encoding."},"setGrantDelay(uint64,uint32)":{"details":"Update the delay for granting a `roleId`. Requirements: - the caller must be a global admin Emits a {RoleGrantDelayChanged} event."},"setRoleAdmin(uint64,uint64)":{"details":"Change admin role for a given role. Requirements: - the caller must be a global admin Emits a {RoleAdminChanged} event"},"setRoleGuardian(uint64,uint64)":{"details":"Change guardian role for a given role. Requirements: - the caller must be a global admin Emits a {RoleGuardianChanged} event"},"setTargetAdminDelay(address,uint32)":{"details":"Set the delay for changing the configuration of a given target contract. Requirements: - the caller must be a global admin Emits a {TargetAdminDelayUpdated} event."},"setTargetClosed(address,bool)":{"details":"Set the closed flag for a contract. Requirements: - the caller must be a global admin Emits a {TargetClosed} event."},"setTargetFunctionRole(address,bytes4[],uint64)":{"details":"Set the role required to call functions identified by the `selectors` in the `target` contract. Requirements: - the caller must be a global admin Emits a {TargetFunctionRoleUpdated} event per selector."},"updateAuthority(address,address)":{"details":"Changes the authority of a target managed by this manager instance. Requirements: - the caller must be a global admin"}},"title":"PresaleManager","version":1},"evm":{"bytecode":{"linkReferences":{},"object":"60806040523480156200001157600080fd5b50604051620038d6380380620038d683398101604081905262000034916200058f565b8181816001600160a01b0381166200006757604051630409d6d160e11b8152600060048201526024015b60405180910390fd5b620000766000828180620000d8565b505060005b8151811015620000cd57620000b78282815181106200009e576200009e62000678565b602002602001015160046200032f60201b90919060201c565b5080620000c481620006a4565b9150506200007b565b505050505062000709565b60006002600160401b03196001600160401b03861601620001185760405163061c6a4360e21b81526001600160401b03861660048201526024016200005e565b6001600160401b03851660009081526001602090815260408083206001600160a01b038816845290915281205465ffffffffffff1615908115620002175763ffffffff8516620001676200034f565b620001739190620006c0565b905060405180604001604052808265ffffffffffff168152602001620001a58663ffffffff166200036160201b60201c565b6001600160701b039081169091526001600160401b03891660009081526001602090815260408083206001600160a01b038c16845282529091208351815494909201519092166601000000000000026001600160a01b031990931665ffffffffffff90911617919091179055620002c1565b6001600160401b03871660009081526001602090815260408083206001600160a01b038a168452909152812054620002669166010000000000009091046001600160701b03169086906200036a565b6001600160401b03891660009081526001602090815260408083206001600160a01b038c168452909152902080546001600160701b03909316660100000000000002600160301b600160a01b03199093169290921790915590505b6040805163ffffffff8616815265ffffffffffff831660208201528315158183015290516001600160a01b038816916001600160401b038a16917ff98448b987f1428e0e230e1f3c6e2ce15b5693eaf31827fbd0b1ec4b424ae7cf9181900360600190a35095945050505050565b600062000346836001600160a01b0384166200041f565b90505b92915050565b60006200035c4262000471565b905090565b63ffffffff1690565b60008080620003826001600160701b038716620004aa565b90506000620003c58563ffffffff168763ffffffff168463ffffffff1611620003ad576000620003b9565b620003b98885620006e9565b63ffffffff16620004cb565b905063ffffffff8116620003d86200034f565b620003e49190620006c0565b925063ffffffff8616602083901b67ffffffff0000000016604085901b6dffffffffffff000000000000000016171793505050935093915050565b6000818152600183016020526040812054620004685750815460018181018455600084815260208082209093018490558454848252828601909352604090209190915562000349565b50600062000349565b600065ffffffffffff821115620004a6576040516306dfcc6560e41b815260306004820152602481018390526044016200005e565b5090565b600080620004c16001600160701b038416620004e3565b5090949350505050565b6000818311620004dc578162000346565b5090919050565b60008080620004fc84620004f66200034f565b62000509565b9250925092509193909250565b600080806001600160501b03602086901c166001600160701b03861665ffffffffffff604088901c811690871681111562000547578282826200054c565b816000805b9550955095505050509250925092565b80516001600160a01b03811681146200057457600080fd5b919050565b634e487b7160e01b600052604160045260246000fd5b60008060408385031215620005a357600080fd5b620005ae836200055c565b602084810151919350906001600160401b0380821115620005ce57600080fd5b818601915086601f830112620005e357600080fd5b815181811115620005f857620005f862000579565b8060051b604051601f19603f8301168101818110858211171562000620576200062062000579565b6040529182528482019250838101850191898311156200063f57600080fd5b938501935b82851015620006685762000658856200055c565b8452938501939285019262000644565b8096505050505050509250929050565b634e487b7160e01b600052603260045260246000fd5b634e487b7160e01b600052601160045260246000fd5b600060018201620006b957620006b96200068e565b5060010190565b65ffffffffffff818116838216019080821115620006e257620006e26200068e565b5092915050565b63ffffffff828116828216039080821115620006e257620006e26200068e565b6131bd80620007196000396000f3fe6080604052600436106102bb5760003560e01c806375b238fc1161016e578063b7d2b162116100cb578063d6bb62c61161007f578063e62a023a11610064578063e62a023a146108c6578063f801a698146108e6578063fe0776f51461092057600080fd5b8063d6bb62c61461086e578063e0886f901461088e57600080fd5b8063cc1b6c81116100b0578063cc1b6c8114610818578063d1f856ee1461082e578063d22b59891461084e57600080fd5b8063b7d2b162146107d8578063c624c6f2146107f857600080fd5b8063a166aa8911610122578063abd9bd2a11610107578063abd9bd2a1461074f578063ac9650d81461076f578063b70096131461079c57600080fd5b8063a166aa89146106ec578063a64d95ce1461072f57600080fd5b8063853551b811610153578063853551b81461068a57806394c7d7ee146106aa578063971217b7146106ca57600080fd5b806375b238fc14610645578063806ad57e1461065a57600080fd5b80633078f1141161021c5780634665096d116101d057806352962952116101b55780635296295214610592578063530dd456146105b25780636d5115bd146105ef57600080fd5b80634665096d1461055c5780634c1da1e21461057257600080fd5b80633adc277a116102015780633adc277a146104cd5780633ca7c02a146105045780634136a33c1461051f57600080fd5b80633078f1141461045357806330cae187146104ad57600080fd5b80631cff79cd1161027357806329092d0e1161025857806329092d0e146103f05780632ddbd13a146104105780633078db6c1461043357600080fd5b80631cff79cd146103bd57806325c471a0146103d057600080fd5b806312be8727116102a457806312be872714610348578063167bd3951461037d57806318ff183c1461039d57600080fd5b806308d6122d146102c05780630b0a93ba146102e2575b600080fd5b3480156102cc57600080fd5b506102e06102db3660046129c6565b610940565b005b3480156102ee57600080fd5b5061032b6102fd366004612a2c565b6001600160401b03908116600090815260016020819052604090912001546801000000000000000090041690565b6040516001600160401b0390911681526020015b60405180910390f35b34801561035457600080fd5b50610368610363366004612a2c565b61099b565b60405163ffffffff909116815260200161033f565b34801561038957600080fd5b506102e0610398366004612a47565b6109d6565b3480156103a957600080fd5b506102e06103b8366004612a85565b6109ec565b6103686103cb366004612af4565b610a53565b3480156103dc57600080fd5b506102e06103eb366004612b5c565b610bc0565b3480156103fc57600080fd5b506102e061040b366004612ba1565b610be2565b34801561041c57600080fd5b50610425610c19565b60405190815260200161033f565b34801561043f57600080fd5b506102e061044e366004612ba1565b610c2a565b34801561045f57600080fd5b5061047361046e366004612bbe565b610c61565b60405161033f949392919065ffffffffffff948516815263ffffffff93841660208201529190921660408201529116606082015260800190565b3480156104b957600080fd5b506102e06104c8366004612bda565b610cc9565b3480156104d957600080fd5b506104ed6104e8366004612c0d565b610cdb565b60405165ffffffffffff909116815260200161033f565b34801561051057600080fd5b5061032b6001600160401b0381565b34801561052b57600080fd5b5061036861053a366004612c0d565b6000908152600260205260409020546601000000000000900463ffffffff1690565b34801561056857600080fd5b5062093a80610368565b34801561057e57600080fd5b5061036861058d366004612ba1565b610d0e565b34801561059e57600080fd5b506102e06105ad366004612bda565b610d3c565b3480156105be57600080fd5b5061032b6105cd366004612a2c565b6001600160401b03908116600090815260016020819052604090912001541690565b3480156105fb57600080fd5b5061032b61060a366004612c3c565b6001600160a01b0382166000908152602081815260408083206001600160e01b0319851684529091529020546001600160401b031692915050565b34801561065157600080fd5b5061032b600081565b34801561066657600080fd5b5061067a610675366004612ba1565b610d4e565b604051901515815260200161033f565b34801561069657600080fd5b506102e06106a5366004612c6a565b610d86565b3480156106b657600080fd5b506102e06106c5366004612af4565b610e1d565b3480156106d657600080fd5b506106df610ec9565b60405161033f9190612c88565b3480156106f857600080fd5b5061067a610707366004612ba1565b6001600160a01b0316600090815260208190526040902060010154600160701b900460ff1690565b34801561073b57600080fd5b506102e061074a366004612cd5565b610ed5565b34801561075b57600080fd5b5061042561076a366004612cff565b610ee7565b34801561077b57600080fd5b5061078f61078a366004612d63565b610f20565b60405161033f9190612dc8565b3480156107a857600080fd5b506107bc6107b7366004612e42565b611012565b60408051921515835263ffffffff90911660208301520161033f565b3480156107e457600080fd5b506102e06107f3366004612bbe565b611112565b34801561080457600080fd5b506102e0610813366004612c0d565b611129565b34801561082457600080fd5b5062069780610368565b34801561083a57600080fd5b506107bc610849366004612bbe565b611160565b34801561085a57600080fd5b506102e0610869366004612e8d565b6111dd565b34801561087a57600080fd5b50610368610889366004612cff565b6111ef565b34801561089a57600080fd5b506108ae6108a9366004612c0d565b61137e565b6040516001600160a01b03909116815260200161033f565b3480156108d257600080fd5b5061067a6108e1366004612ba1565b6113b7565b3480156108f257600080fd5b50610906610901366004612eab565b6113eb565b6040805192835263ffffffff90911660208301520161033f565b34801561092c57600080fd5b506102e061093b366004612bbe565b611533565b61094861155c565b60005b82811015610994576109848585858481811061096957610969612f1d565b905060200201602081019061097e9190612f33565b846115d7565b61098d81612f66565b905061094b565b5050505050565b6001600160401b0381166000908152600160208190526040822001546109d090600160801b90046001600160701b0316611659565b92915050565b6109de61155c565b6109e88282611678565b5050565b6109f461155c565b604051637a9e5e4b60e01b81526001600160a01b038281166004830152831690637a9e5e4b90602401600060405180830381600087803b158015610a3757600080fd5b505af1158015610a4b573d6000803e3d6000fd5b505050505050565b6000338180610a6483888888611729565b9150915081158015610a7a575063ffffffff8116155b15610acd578287610a8b888861177c565b6040516381c6f24b60e01b81526001600160a01b0393841660048201529290911660248301526001600160e01b03191660448201526064015b60405180910390fd5b6000610adb84898989610ee7565b9050600063ffffffff8316151580610b025750610af782610cdb565b65ffffffffffff1615155b15610b1357610b1082611794565b90505b600354610b668a610b248b8b61177c565b604080516001600160a01b03939093166020808501919091526001600160e01b0319929092168382015280518084038201815260609093019052815191012090565b600381905550610bae8a8a8a8080601f016020809104026020016040519081016040528093929190818152602001838380828437600092019190915250349250611897915050565b506003559450505050505b9392505050565b610bc861155c565b610bdc8383610bd68661099b565b84611934565b50505050565b6000610bef600033611160565b50905080610c10576040516355098f2760e01b815260040160405180910390fd5b6109e882611ba0565b6000610c256004611bbe565b905090565b6000610c37600033611160565b50905080610c58576040516355098f2760e01b815260040160405180910390fd5b6109e882611bc8565b6001600160401b03821660009081526001602090815260408083206001600160a01b03851684529091528120805465ffffffffffff811692918291829190610cbb90660100000000000090046001600160701b0316611c83565b969991985096509350505050565b610cd161155c565b6109e88282611ca6565b60008181526002602052604081205465ffffffffffff16610cfb81611d4a565b610d055780610bb9565b60009392505050565b6001600160a01b0381166000908152602081905260408120600101546109d0906001600160701b0316611659565b610d4461155c565b6109e88282611d79565b600080610d5c600033611160565b50905080610d7d576040516355098f2760e01b815260040160405180910390fd5b610bb983611e30565b610d8e61155c565b6001600160401b0383161580610dac57506001600160401b03838116145b15610dd55760405163061c6a4360e21b81526001600160401b0384166004820152602401610ac4565b826001600160401b03167f1256f5b5ecb89caec12db449738f2fbcd1ba5806cf38f35413f4e5c15bf6a4508383604051610e10929190612fa8565b60405180910390a2505050565b60408051638fb3603760e01b80825291513392918391638fb36037916004808201926020929091908290030181865afa158015610e5e573d6000803e3d6000fd5b505050506040513d601f19601f82011682018060405250810190610e829190612fc4565b6001600160e01b03191614610eb557604051630641fee960e31b81526001600160a01b0382166004820152602401610ac4565b610994610ec485838686610ee7565b611794565b6060610c256004611e85565b610edd61155c565b6109e88282611e92565b600084848484604051602001610f009493929190612fe1565b604051602081830303815290604052805190602001209050949350505050565b604080516000815260208101909152606090826001600160401b03811115610f4a57610f4a61304b565b604051908082528060200260200182016040528015610f7d57816020015b6060815260200190600190039081610f685790505b50915060005b8381101561100a57610fda30868684818110610fa157610fa1612f1d565b9050602002810190610fb39190613061565b85604051602001610fc6939291906130a7565b604051602081830303815290604052611fb1565b838281518110610fec57610fec612f1d565b6020026020010181905250808061100290612f66565b915050610f83565b505092915050565b6001600160a01b0382166000908152602081905260408120600101548190600160701b900460ff161561104a5750600090508061110a565b306001600160a01b038616036110a657604080516001600160a01b0386166020808301919091526001600160e01b031986168284015282518083038401815260609092019092528051910120600354145b60009150915061110a565b6001600160a01b0384166000908152602081815260408083206001600160e01b0319871684529091528120546001600160401b031690806110e78389611160565b91509150816110f857600080611102565b63ffffffff811615815b945094505050505b935093915050565b61111a61155c565b6111248282612027565b505050565b6000611136600033611160565b50905080611157576040516355098f2760e01b815260040160405180910390fd5b6109e882612121565b60008067fffffffffffffffe196001600160401b0385160161118857506001905060006111d6565b6000806111958686610c61565b5050915091508165ffffffffffff166000141580156111cb57506111b7612163565b65ffffffffffff168265ffffffffffff1611155b935091506111d69050565b9250929050565b6111e561155c565b6109e8828261216e565b600033816111fd858561177c565b9050600061120d88888888610ee7565b60008181526002602052604081205491925065ffffffffffff909116900361124b5760405163060a299b60e41b815260048101829052602401610ac4565b826001600160a01b0316886001600160a01b031614611319576000611271600085611160565b506001600160a01b0389166000908152602081815260408083206001600160e01b031988168452909152812054919250906112be906112b8906001600160401b03166102fd565b86611160565b509050811580156112cd575080155b1561131657604051630ff89d4760e21b81526001600160a01b038087166004830152808c1660248301528a1660448201526001600160e01b031985166064820152608401610ac4565b50505b600081815260026020526040808220805465ffffffffffff1916908190559051660100000000000090910463ffffffff1691829184917fbd9ac67a6e2f6463b80927326310338bcbb4bdb7936ce1365ea3e01067e7b9f791a398975050505050505050565b600061138a6004611bbe565b82106113ac57604051635f7644f960e01b815260048101839052602401610ac4565b6109d060048361222b565b60006001600160a01b0382166113e057604051637138356f60e01b815260040160405180910390fd5b6109d0600483612237565b60008033816113fc82898989611729565b91505060008163ffffffff16611410612163565b61141a91906130ce565b905063ffffffff82161580611451575060008665ffffffffffff1611801561145157508065ffffffffffff168665ffffffffffff16105b15611462578289610a8b8a8a61177c565b61147c8665ffffffffffff168265ffffffffffff16612259565b955061148a838a8a8a610ee7565b94506114958561226f565b60008581526002602052604090819020805465ffffffffffff891669ffffffffffffffffffff1982161766010000000000009182900463ffffffff90811660010190811692830291909117909255915190955086907f82a2da5dee54ea8021c6545b4444620291e07ee83be6dd57edb175062715f3b49061151f908a9088908f908f908f906130ed565b60405180910390a350505094509492505050565b6001600160a01b038116331461111a57604051635f159e6360e01b815260040160405180910390fd5b3360008061156b8382366122bc565b9150915081611124578063ffffffff166000036115c757600061158e81366123b5565b5060405163f07e038f60e01b81526001600160a01b03871660048201526001600160401b03821660248201529092506044019050610ac4565b610bdc610ec48430600036610ee7565b6001600160a01b0383166000818152602081815260408083206001600160e01b0319871680855290835292819020805467ffffffffffffffff19166001600160401b038716908117909155905192835292917f9ea6790c7dadfd01c9f8b9762b3682607af2c7e79e05a9f9fdf5580dde949151910160405180910390a3505050565b60008061166e836001600160701b0316611c83565b5090949350505050565b306001600160a01b038316036116ac57604051630b40d17960e31b81526001600160a01b0383166004820152602401610ac4565b6001600160a01b038216600081815260208190526040908190206001018054841515600160701b026eff000000000000000000000000000019909116179055517f90d4e7bb7e5d933792b3562e1741306f8be94837e1348dacef9b6f1df56eb1389061171d90841515815260200190565b60405180910390a25050565b600080306001600160a01b03861603611750576117478685856122bc565b91509150611773565b6004831061176c5761176786866107b7878761177c565b611747565b5060009050805b94509492505050565b600061178b6004828486613021565b610bb991613133565b60008181526002602052604081205465ffffffffffff8116906601000000000000900463ffffffff168183036117e05760405163060a299b60e41b815260048101859052602401610ac4565b6117e8612163565b65ffffffffffff168265ffffffffffff16111561181b57604051630c65b5bd60e11b815260048101859052602401610ac4565b61182482611d4a565b1561184557604051631e2975b960e21b815260048101859052602401610ac4565b600084815260026020526040808220805465ffffffffffff191690555163ffffffff83169186917f76a2a46953689d4861a5d3f6ed883ad7e6af674a21f8e162707159fc9dde614d9190a39392505050565b6060814710156118bc5760405163cd78605960e01b8152306004820152602401610ac4565b600080856001600160a01b031684866040516118d89190613161565b60006040518083038185875af1925050503d8060008114611915576040519150601f19603f3d011682016040523d82523d6000602084013e61191a565b606091505b509150915061192a86838361259e565b9695505050505050565b600067fffffffffffffffe196001600160401b038616016119735760405163061c6a4360e21b81526001600160401b0386166004820152602401610ac4565b6001600160401b03851660009081526001602090815260408083206001600160a01b038816845290915281205465ffffffffffff1615908115611a75578463ffffffff166119bf612163565b6119c991906130ce565b905060405180604001604052808265ffffffffffff1681526020016119f78663ffffffff1663ffffffff1690565b6001600160701b039081169091526001600160401b03891660009081526001602090815260408083206001600160a01b038c168452825290912083518154949092015190921666010000000000000273ffffffffffffffffffffffffffffffffffffffff1990931665ffffffffffff90911617919091179055611b32565b6001600160401b03871660009081526001602090815260408083206001600160a01b038a168452909152812054611ac29166010000000000009091046001600160701b03169086906125fa565b6001600160401b03891660009081526001602090815260408083206001600160a01b038c168452909152902080546001600160701b039093166601000000000000027fffffffffffffffffffffffff0000000000000000000000000000ffffffffffff9093169290921790915590505b6040805163ffffffff8616815265ffffffffffff831660208201528315158183015290516001600160a01b038816916001600160401b038a16917ff98448b987f1428e0e230e1f3c6e2ce15b5693eaf31827fbd0b1ec4b424ae7cf9181900360600190a35095945050505050565b611bab600482612237565b15611bbb576109e86004826126a4565b50565b60006109d0825490565b6001600160a01b038116611bef5760405163d27509d160e01b815260040160405180910390fd5b6000611bfb6004611bbe565b905060005b8181101561112457611c1360048261222b565b604051637a9e5e4b60e01b81526001600160a01b0385811660048301529190911690637a9e5e4b90602401600060405180830381600087803b158015611c5857600080fd5b505af1158015611c6c573d6000803e3d6000fd5b505050508080611c7b90612f66565b915050611c00565b6000806000611c9984611c94612163565b6126b9565b9250925092509193909250565b6001600160401b0382161580611cc457506001600160401b03828116145b15611ced5760405163061c6a4360e21b81526001600160401b0383166004820152602401610ac4565b6001600160401b038281166000818152600160208190526040808320909101805467ffffffffffffffff19169486169485179055517f1fd6dd7631312dfac2205b52913f99de03b4d7e381d5d27d3dbfe0713e6e63409190a35050565b6000611d54612163565b65ffffffffffff16611d6962093a80846130ce565b65ffffffffffff16111592915050565b6001600160401b0382161580611d9757506001600160401b03828116145b15611dc05760405163061c6a4360e21b81526001600160401b0383166004820152602401610ac4565b6001600160401b03828116600081815260016020819052604080832090910180546fffffffffffffffff0000000000000000191668010000000000000000958716958602179055517f7a8059630b897b5de4c08ade69f8b90c3ead1f8596d62d10b6c4d14a0afb4ae29190a35050565b60006001600160a01b038216611e5957604051637138356f60e01b815260040160405180910390fd5b611e64600483612237565b15611e7157506000919050565b611e7c60048361270d565b50600192915050565b60606000610bb983612722565b67fffffffffffffffe196001600160401b03831601611ecf5760405163061c6a4360e21b81526001600160401b0383166004820152602401610ac4565b6001600160401b038216600090815260016020819052604082200154611f0990600160801b90046001600160701b031683620697806125fa565b6001600160401b0385166000818152600160208190526040918290200180546001600160701b03909516600160801b027fffff0000000000000000000000000000ffffffffffffffffffffffffffffffff9095169490941790935591519092507ffeb69018ee8b8fd50ea86348f1267d07673379f72cffdeccec63853ee8ce8b4890610e10908590859063ffffffff92909216825265ffffffffffff16602082015260400190565b6060600080846001600160a01b031684604051611fce9190613161565b600060405180830381855af49150503d8060008114612009576040519150601f19603f3d011682016040523d82523d6000602084013e61200e565b606091505b509150915061201e85838361259e565b95945050505050565b600067fffffffffffffffe196001600160401b038416016120665760405163061c6a4360e21b81526001600160401b0384166004820152602401610ac4565b6001600160401b03831660009081526001602090815260408083206001600160a01b038616845290915281205465ffffffffffff1690036120a9575060006109d0565b6001600160401b03831660008181526001602090815260408083206001600160a01b0387168085529252808320805473ffffffffffffffffffffffffffffffffffffffff19169055519092917ff229baa593af28c41b1d16b748cd7688f0c83aaf92d4be41c44005defe84c16691a350600192915050565b61212b6004611bbe565b811061214d57604051635f7644f960e01b815260048101829052602401610ac4565b6109e861215b60048361222b565b6004906126a4565b6000610c254261277e565b6001600160a01b0382166000908152602081905260408120600101546121a1906001600160701b031683620697806125fa565b6001600160a01b0385166000818152602081815260409182902060010180546dffffffffffffffffffffffffffff19166001600160701b039690961695909517909455805163ffffffff8716815265ffffffffffff841694810194909452919350917fa56b76017453f399ec2327ba00375dbfb1fd070ff854341ad6191e6a2e2de19c9101610e10565b6000610bb983836127b5565b6001600160a01b03811660009081526001830160205260408120541515610bb9565b60008183116122685781610bb9565b5090919050565b60008181526002602052604090205465ffffffffffff16801580159061229b575061229981611d4a565b155b156109e85760405163813e945960e01b815260048101839052602401610ac4565b60008060048310156122d35750600090508061110a565b306001600160a01b038616036123375761109b306122f1868661177c565b604080516001600160a01b03939093166020808501919091526001600160e01b031992909216838201528051808403820181526060909301905281519101206003541490565b600080600061234687876123b5565b92509250925082612360576000809450945050505061110a565b60008061236d848b611160565b91509150816123875760008096509650505050505061110a565b61239d8363ffffffff168263ffffffff16612259565b63ffffffff8116159b909a5098505050505050505050565b6000808060048410156123d057506000915081905080612597565b60006123dc868661177c565b90506001600160e01b031981166310a6aa3760e31b148061240d57506001600160e01b031981166330cae18760e01b145b8061242857506001600160e01b0319811663294b14a960e11b145b8061244357506001600160e01b03198116635326cae760e11b145b8061245e57506001600160e01b0319811663d22b598960e01b145b1561247457600160008093509350935050612597565b6001600160e01b0319811663063fc60f60e21b14806124a357506001600160e01b0319811663167bd39560e01b145b806124be57506001600160e01b031981166308d6122d60e01b145b156125005760006124d360246004888a613021565b8101906124e09190612ba1565b905060006124ed82610d0e565b6001965060009550935061259792505050565b6001600160e01b0319811663012e238d60e51b148061252f57506001600160e01b03198116635be958b160e11b145b1561258a57600061254460246004888a613021565b8101906125519190612a2c565b9050600161257b826001600160401b03908116600090815260016020819052604090912001541690565b60009450945094505050612597565b6000806000935093509350505b9250925092565b6060826125b3576125ae826127df565b610bb9565b81511580156125ca57506001600160a01b0384163b155b156125f357604051639996b31560e01b81526001600160a01b0385166004820152602401610ac4565b5080610bb9565b6000806000612611866001600160701b0316611659565b9050600061264e8563ffffffff168763ffffffff168463ffffffff1611612639576000612643565b612643888561317d565b63ffffffff16612259565b90508063ffffffff1661265f612163565b61266991906130ce565b925063ffffffff8616602083901b67ffffffff0000000016604085901b6dffffffffffff000000000000000016171793505050935093915050565b6000610bb9836001600160a01b038416612808565b6000808069ffffffffffffffffffff602086901c166001600160701b03861665ffffffffffff604088901c81169087168111156126f8578282826126fd565b816000805b9550955095505050509250925092565b6000610bb9836001600160a01b038416612902565b60608160000180548060200260200160405190810160405280929190818152602001828054801561277257602002820191906000526020600020905b81548152602001906001019080831161275e575b50505050509050919050565b600065ffffffffffff8211156127b1576040516306dfcc6560e41b81526030600482015260248101839052604401610ac4565b5090565b60008260000182815481106127cc576127cc612f1d565b9060005260206000200154905092915050565b8051156127ef5780518082602001fd5b604051630a12f52160e11b815260040160405180910390fd5b600081815260018301602052604081205480156128f157600061282c60018361300e565b85549091506000906128409060019061300e565b90508082146128a557600086600001828154811061286057612860612f1d565b906000526020600020015490508087600001848154811061288357612883612f1d565b6000918252602080832090910192909255918252600188019052604090208390555b85548690806128b6576128b661319a565b6001900381819060005260206000200160009055905585600101600086815260200190815260200160002060009055600193505050506109d0565b60009150506109d0565b5092915050565b6000818152600183016020526040812054612949575081546001818101845560008481526020808220909301849055845484825282860190935260409020919091556109d0565b5060006109d0565b6001600160a01b0381168114611bbb57600080fd5b60008083601f84011261297857600080fd5b5081356001600160401b0381111561298f57600080fd5b6020830191508360208260051b85010111156111d657600080fd5b80356001600160401b03811681146129c157600080fd5b919050565b600080600080606085870312156129dc57600080fd5b84356129e781612951565b935060208501356001600160401b03811115612a0257600080fd5b612a0e87828801612966565b9094509250612a219050604086016129aa565b905092959194509250565b600060208284031215612a3e57600080fd5b610bb9826129aa565b60008060408385031215612a5a57600080fd5b8235612a6581612951565b915060208301358015158114612a7a57600080fd5b809150509250929050565b60008060408385031215612a9857600080fd5b8235612aa381612951565b91506020830135612a7a81612951565b60008083601f840112612ac557600080fd5b5081356001600160401b03811115612adc57600080fd5b6020830191508360208285010111156111d657600080fd5b600080600060408486031215612b0957600080fd5b8335612b1481612951565b925060208401356001600160401b03811115612b2f57600080fd5b612b3b86828701612ab3565b9497909650939450505050565b803563ffffffff811681146129c157600080fd5b600080600060608486031215612b7157600080fd5b612b7a846129aa565b92506020840135612b8a81612951565b9150612b9860408501612b48565b90509250925092565b600060208284031215612bb357600080fd5b8135610bb981612951565b60008060408385031215612bd157600080fd5b612aa3836129aa565b60008060408385031215612bed57600080fd5b612bf6836129aa565b9150612c04602084016129aa565b90509250929050565b600060208284031215612c1f57600080fd5b5035919050565b6001600160e01b031981168114611bbb57600080fd5b60008060408385031215612c4f57600080fd5b8235612c5a81612951565b91506020830135612a7a81612c26565b600080600060408486031215612c7f57600080fd5b612b14846129aa565b6020808252825182820181905260009190848201906040850190845b81811015612cc95783516001600160a01b031683529284019291840191600101612ca4565b50909695505050505050565b60008060408385031215612ce857600080fd5b612cf1836129aa565b9150612c0460208401612b48565b60008060008060608587031215612d1557600080fd5b8435612d2081612951565b93506020850135612d3081612951565b925060408501356001600160401b03811115612d4b57600080fd5b612d5787828801612ab3565b95989497509550505050565b60008060208385031215612d7657600080fd5b82356001600160401b03811115612d8c57600080fd5b612d9885828601612966565b90969095509350505050565b60005b83811015612dbf578181015183820152602001612da7565b50506000910152565b6000602080830181845280855180835260408601915060408160051b870101925083870160005b82811015612e3557878503603f1901845281518051808752612e16818989018a8501612da4565b601f01601f191695909501860194509285019290850190600101612def565b5092979650505050505050565b600080600060608486031215612e5757600080fd5b8335612e6281612951565b92506020840135612e7281612951565b91506040840135612e8281612c26565b809150509250925092565b60008060408385031215612ea057600080fd5b8235612cf181612951565b60008060008060608587031215612ec157600080fd5b8435612ecc81612951565b935060208501356001600160401b03811115612ee757600080fd5b612ef387828801612ab3565b909450925050604085013565ffffffffffff81168114612f1257600080fd5b939692955090935050565b634e487b7160e01b600052603260045260246000fd5b600060208284031215612f4557600080fd5b8135610bb981612c26565b634e487b7160e01b600052601160045260246000fd5b600060018201612f7857612f78612f50565b5060010190565b81835281816020850137506000828201602090810191909152601f909101601f19169091010190565b602081526000612fbc602083018486612f7f565b949350505050565b600060208284031215612fd657600080fd5b8151610bb981612c26565b60006001600160a01b0380871683528086166020840152506060604083015261192a606083018486612f7f565b818103818111156109d0576109d0612f50565b6000808585111561303157600080fd5b8386111561303e57600080fd5b5050820193919092039150565b634e487b7160e01b600052604160045260246000fd5b6000808335601e1984360301811261307857600080fd5b8301803591506001600160401b0382111561309257600080fd5b6020019150368190038213156111d657600080fd5b8284823760008382016000815283516130c4818360208801612da4565b0195945050505050565b65ffffffffffff8181168382160190808211156128fb576128fb612f50565b65ffffffffffff8616815260006001600160a01b03808716602084015280861660408401525060806060830152613128608083018486612f7f565b979650505050505050565b6001600160e01b0319813581811691600485101561100a5760049490940360031b84901b1690921692915050565b60008251613173818460208701612da4565b9190910192915050565b63ffffffff8281168282160390808211156128fb576128fb612f50565b634e487b7160e01b600052603160045260246000fdfea164736f6c6343000814000a","opcodes":"PUSH1 0x80 PUSH1 0x40 MSTORE CALLVALUE DUP1 ISZERO PUSH3 0x11 JUMPI PUSH1 0x0 DUP1 REVERT JUMPDEST POP PUSH1 0x40 MLOAD PUSH3 0x38D6 CODESIZE SUB DUP1 PUSH3 0x38D6 DUP4 CODECOPY DUP2 ADD PUSH1 0x40 DUP2 SWAP1 MSTORE PUSH3 0x34 SWAP2 PUSH3 0x58F JUMP JUMPDEST DUP2 DUP2 DUP2 PUSH1 0x1 PUSH1 0x1 PUSH1 0xA0 SHL SUB DUP2 AND PUSH3 0x67 JUMPI PUSH1 0x40 MLOAD PUSH4 0x409D6D1 PUSH1 0xE1 SHL DUP2 MSTORE PUSH1 0x0 PUSH1 0x4 DUP3 ADD MSTORE PUSH1 0x24 ADD JUMPDEST PUSH1 0x40 MLOAD DUP1 SWAP2 SUB SWAP1 REVERT JUMPDEST PUSH3 0x76 PUSH1 0x0 DUP3 DUP2 DUP1 PUSH3 0xD8 JUMP JUMPDEST POP POP PUSH1 0x0 JUMPDEST DUP2 MLOAD DUP2 LT ISZERO PUSH3 0xCD JUMPI PUSH3 0xB7 DUP3 DUP3 DUP2 MLOAD DUP2 LT PUSH3 0x9E JUMPI PUSH3 0x9E PUSH3 0x678 JUMP JUMPDEST PUSH1 0x20 MUL PUSH1 0x20 ADD ADD MLOAD PUSH1 0x4 PUSH3 0x32F PUSH1 0x20 SHL SWAP1 SWAP2 SWAP1 PUSH1 0x20 SHR JUMP JUMPDEST POP DUP1 PUSH3 0xC4 DUP2 PUSH3 0x6A4 JUMP JUMPDEST SWAP2 POP POP PUSH3 0x7B JUMP JUMPDEST POP POP POP POP POP PUSH3 0x709 JUMP JUMPDEST PUSH1 0x0 PUSH1 0x2 PUSH1 0x1 PUSH1 0x40 SHL SUB NOT PUSH1 0x1 PUSH1 0x1 PUSH1 0x40 SHL SUB DUP7 AND ADD PUSH3 0x118 JUMPI PUSH1 0x40 MLOAD PUSH4 0x61C6A43 PUSH1 0xE2 SHL DUP2 MSTORE PUSH1 0x1 PUSH1 0x1 PUSH1 0x40 SHL SUB DUP7 AND PUSH1 0x4 DUP3 ADD MSTORE PUSH1 0x24 ADD PUSH3 0x5E JUMP JUMPDEST PUSH1 0x1 PUSH1 0x1 PUSH1 0x40 SHL SUB DUP6 AND PUSH1 0x0 SWAP1 DUP2 MSTORE PUSH1 0x1 PUSH1 0x20 SWAP1 DUP2 MSTORE PUSH1 0x40 DUP1 DUP4 KECCAK256 PUSH1 0x1 PUSH1 0x1 PUSH1 0xA0 SHL SUB DUP9 AND DUP5 MSTORE SWAP1 SWAP2 MSTORE DUP2 KECCAK256 SLOAD PUSH6 0xFFFFFFFFFFFF AND ISZERO SWAP1 DUP2 ISZERO PUSH3 0x217 JUMPI PUSH4 0xFFFFFFFF DUP6 AND PUSH3 0x167 PUSH3 0x34F JUMP JUMPDEST PUSH3 0x173 SWAP2 SWAP1 PUSH3 0x6C0 JUMP JUMPDEST SWAP1 POP PUSH1 0x40 MLOAD DUP1 PUSH1 0x40 ADD PUSH1 0x40 MSTORE DUP1 DUP3 PUSH6 0xFFFFFFFFFFFF AND DUP2 MSTORE PUSH1 0x20 ADD PUSH3 0x1A5 DUP7 PUSH4 0xFFFFFFFF AND PUSH3 0x361 PUSH1 0x20 SHL PUSH1 0x20 SHR JUMP JUMPDEST PUSH1 0x1 PUSH1 0x1 PUSH1 0x70 SHL SUB SWAP1 DUP2 AND SWAP1 SWAP2 MSTORE PUSH1 0x1 PUSH1 0x1 PUSH1 0x40 SHL SUB DUP10 AND PUSH1 0x0 SWAP1 DUP2 MSTORE PUSH1 0x1 PUSH1 0x20 SWAP1 DUP2 MSTORE PUSH1 0x40 DUP1 DUP4 KECCAK256 PUSH1 0x1 PUSH1 0x1 PUSH1 0xA0 SHL SUB DUP13 AND DUP5 MSTORE DUP3 MSTORE SWAP1 SWAP2 KECCAK256 DUP4 MLOAD DUP2 SLOAD SWAP5 SWAP1 SWAP3 ADD MLOAD SWAP1 SWAP3 AND PUSH7 0x1000000000000 MUL PUSH1 0x1 PUSH1 0x1 PUSH1 0xA0 SHL SUB NOT SWAP1 SWAP4 AND PUSH6 0xFFFFFFFFFFFF SWAP1 SWAP2 AND OR SWAP2 SWAP1 SWAP2 OR SWAP1 SSTORE PUSH3 0x2C1 JUMP JUMPDEST PUSH1 0x1 PUSH1 0x1 PUSH1 0x40 SHL SUB DUP8 AND PUSH1 0x0 SWAP1 DUP2 MSTORE PUSH1 0x1 PUSH1 0x20 SWAP1 DUP2 MSTORE PUSH1 0x40 DUP1 DUP4 KECCAK256 PUSH1 0x1 PUSH1 0x1 PUSH1 0xA0 SHL SUB DUP11 AND DUP5 MSTORE SWAP1 SWAP2 MSTORE DUP2 KECCAK256 SLOAD PUSH3 0x266 SWAP2 PUSH7 0x1000000000000 SWAP1 SWAP2 DIV PUSH1 0x1 PUSH1 0x1 PUSH1 0x70 SHL SUB AND SWAP1 DUP7 SWAP1 PUSH3 0x36A JUMP JUMPDEST PUSH1 0x1 PUSH1 0x1 PUSH1 0x40 SHL SUB DUP10 AND PUSH1 0x0 SWAP1 DUP2 MSTORE PUSH1 0x1 PUSH1 0x20 SWAP1 DUP2 MSTORE PUSH1 0x40 DUP1 DUP4 KECCAK256 PUSH1 0x1 PUSH1 0x1 PUSH1 0xA0 SHL SUB DUP13 AND DUP5 MSTORE SWAP1 SWAP2 MSTORE SWAP1 KECCAK256 DUP1 SLOAD PUSH1 0x1 PUSH1 0x1 PUSH1 0x70 SHL SUB SWAP1 SWAP4 AND PUSH7 0x1000000000000 MUL PUSH1 0x1 PUSH1 0x30 SHL PUSH1 0x1 PUSH1 0xA0 SHL SUB NOT SWAP1 SWAP4 AND SWAP3 SWAP1 SWAP3 OR SWAP1 SWAP2 SSTORE SWAP1 POP JUMPDEST PUSH1 0x40 DUP1 MLOAD PUSH4 0xFFFFFFFF DUP7 AND DUP2 MSTORE PUSH6 0xFFFFFFFFFFFF DUP4 AND PUSH1 0x20 DUP3 ADD MSTORE DUP4 ISZERO ISZERO DUP2 DUP4 ADD MSTORE SWAP1 MLOAD PUSH1 0x1 PUSH1 0x1 PUSH1 0xA0 SHL SUB DUP9 AND SWAP2 PUSH1 0x1 PUSH1 0x1 PUSH1 0x40 SHL SUB DUP11 AND SWAP2 PUSH32 0xF98448B987F1428E0E230E1F3C6E2CE15B5693EAF31827FBD0B1EC4B424AE7CF SWAP2 DUP2 SWAP1 SUB PUSH1 0x60 ADD SWAP1 LOG3 POP SWAP6 SWAP5 POP POP POP POP POP JUMP JUMPDEST PUSH1 0x0 PUSH3 0x346 DUP4 PUSH1 0x1 PUSH1 0x1 PUSH1 0xA0 SHL SUB DUP5 AND PUSH3 0x41F JUMP JUMPDEST SWAP1 POP JUMPDEST SWAP3 SWAP2 POP POP JUMP JUMPDEST PUSH1 0x0 PUSH3 0x35C TIMESTAMP PUSH3 0x471 JUMP JUMPDEST SWAP1 POP SWAP1 JUMP JUMPDEST PUSH4 0xFFFFFFFF AND SWAP1 JUMP JUMPDEST PUSH1 0x0 DUP1 DUP1 PUSH3 0x382 PUSH1 0x1 PUSH1 0x1 PUSH1 0x70 SHL SUB DUP8 AND PUSH3 0x4AA JUMP JUMPDEST SWAP1 POP PUSH1 0x0 PUSH3 0x3C5 DUP6 PUSH4 0xFFFFFFFF AND DUP8 PUSH4 0xFFFFFFFF AND DUP5 PUSH4 0xFFFFFFFF AND GT PUSH3 0x3AD JUMPI PUSH1 0x0 PUSH3 0x3B9 JUMP JUMPDEST PUSH3 0x3B9 DUP9 DUP6 PUSH3 0x6E9 JUMP JUMPDEST PUSH4 0xFFFFFFFF AND PUSH3 0x4CB JUMP JUMPDEST SWAP1 POP PUSH4 0xFFFFFFFF DUP2 AND PUSH3 0x3D8 PUSH3 0x34F JUMP JUMPDEST PUSH3 0x3E4 SWAP2 SWAP1 PUSH3 0x6C0 JUMP JUMPDEST SWAP3 POP PUSH4 0xFFFFFFFF DUP7 AND PUSH1 0x20 DUP4 SWAP1 SHL PUSH8 0xFFFFFFFF00000000 AND PUSH1 0x40 DUP6 SWAP1 SHL PUSH14 0xFFFFFFFFFFFF0000000000000000 AND OR OR SWAP4 POP POP POP SWAP4 POP SWAP4 SWAP2 POP POP JUMP JUMPDEST PUSH1 0x0 DUP2 DUP2 MSTORE PUSH1 0x1 DUP4 ADD PUSH1 0x20 MSTORE PUSH1 0x40 DUP2 KECCAK256 SLOAD PUSH3 0x468 JUMPI POP DUP2 SLOAD PUSH1 0x1 DUP2 DUP2 ADD DUP5 SSTORE PUSH1 0x0 DUP5 DUP2 MSTORE PUSH1 0x20 DUP1 DUP3 KECCAK256 SWAP1 SWAP4 ADD DUP5 SWAP1 SSTORE DUP5 SLOAD DUP5 DUP3 MSTORE DUP3 DUP7 ADD SWAP1 SWAP4 MSTORE PUSH1 0x40 SWAP1 KECCAK256 SWAP2 SWAP1 SWAP2 SSTORE PUSH3 0x349 JUMP JUMPDEST POP PUSH1 0x0 PUSH3 0x349 JUMP JUMPDEST PUSH1 0x0 PUSH6 0xFFFFFFFFFFFF DUP3 GT ISZERO PUSH3 0x4A6 JUMPI PUSH1 0x40 MLOAD PUSH4 0x6DFCC65 PUSH1 0xE4 SHL DUP2 MSTORE PUSH1 0x30 PUSH1 0x4 DUP3 ADD MSTORE PUSH1 0x24 DUP2 ADD DUP4 SWAP1 MSTORE PUSH1 0x44 ADD PUSH3 0x5E JUMP JUMPDEST POP SWAP1 JUMP JUMPDEST PUSH1 0x0 DUP1 PUSH3 0x4C1 PUSH1 0x1 PUSH1 0x1 PUSH1 0x70 SHL SUB DUP5 AND PUSH3 0x4E3 JUMP JUMPDEST POP SWAP1 SWAP5 SWAP4 POP POP POP POP JUMP JUMPDEST PUSH1 0x0 DUP2 DUP4 GT PUSH3 0x4DC JUMPI DUP2 PUSH3 0x346 JUMP JUMPDEST POP SWAP1 SWAP2 SWAP1 POP JUMP JUMPDEST PUSH1 0x0 DUP1 DUP1 PUSH3 0x4FC DUP5 PUSH3 0x4F6 PUSH3 0x34F JUMP JUMPDEST PUSH3 0x509 JUMP JUMPDEST SWAP3 POP SWAP3 POP SWAP3 POP SWAP2 SWAP4 SWAP1 SWAP3 POP JUMP JUMPDEST PUSH1 0x0 DUP1 DUP1 PUSH1 0x1 PUSH1 0x1 PUSH1 0x50 SHL SUB PUSH1 0x20 DUP7 SWAP1 SHR AND PUSH1 0x1 PUSH1 0x1 PUSH1 0x70 SHL SUB DUP7 AND PUSH6 0xFFFFFFFFFFFF PUSH1 0x40 DUP9 SWAP1 SHR DUP2 AND SWAP1 DUP8 AND DUP2 GT ISZERO PUSH3 0x547 JUMPI DUP3 DUP3 DUP3 PUSH3 0x54C JUMP JUMPDEST DUP2 PUSH1 0x0 DUP1 JUMPDEST SWAP6 POP SWAP6 POP SWAP6 POP POP POP POP SWAP3 POP SWAP3 POP SWAP3 JUMP JUMPDEST DUP1 MLOAD PUSH1 0x1 PUSH1 0x1 PUSH1 0xA0 SHL SUB DUP2 AND DUP2 EQ PUSH3 0x574 JUMPI PUSH1 0x0 DUP1 REVERT JUMPDEST SWAP2 SWAP1 POP JUMP JUMPDEST PUSH4 0x4E487B71 PUSH1 0xE0 SHL PUSH1 0x0 MSTORE PUSH1 0x41 PUSH1 0x4 MSTORE PUSH1 0x24 PUSH1 0x0 REVERT JUMPDEST PUSH1 0x0 DUP1 PUSH1 0x40 DUP4 DUP6 SUB SLT ISZERO PUSH3 0x5A3 JUMPI PUSH1 0x0 DUP1 REVERT JUMPDEST PUSH3 0x5AE DUP4 PUSH3 0x55C JUMP JUMPDEST PUSH1 0x20 DUP5 DUP2 ADD MLOAD SWAP2 SWAP4 POP SWAP1 PUSH1 0x1 PUSH1 0x1 PUSH1 0x40 SHL SUB DUP1 DUP3 GT ISZERO PUSH3 0x5CE JUMPI PUSH1 0x0 DUP1 REVERT JUMPDEST DUP2 DUP7 ADD SWAP2 POP DUP7 PUSH1 0x1F DUP4 ADD SLT PUSH3 0x5E3 JUMPI PUSH1 0x0 DUP1 REVERT JUMPDEST DUP2 MLOAD DUP2 DUP2 GT ISZERO PUSH3 0x5F8 JUMPI PUSH3 0x5F8 PUSH3 0x579 JUMP JUMPDEST DUP1 PUSH1 0x5 SHL PUSH1 0x40 MLOAD PUSH1 0x1F NOT PUSH1 0x3F DUP4 ADD AND DUP2 ADD DUP2 DUP2 LT DUP6 DUP3 GT OR ISZERO PUSH3 0x620 JUMPI PUSH3 0x620 PUSH3 0x579 JUMP JUMPDEST PUSH1 0x40 MSTORE SWAP2 DUP3 MSTORE DUP5 DUP3 ADD SWAP3 POP DUP4 DUP2 ADD DUP6 ADD SWAP2 DUP10 DUP4 GT ISZERO PUSH3 0x63F JUMPI PUSH1 0x0 DUP1 REVERT JUMPDEST SWAP4 DUP6 ADD SWAP4 JUMPDEST DUP3 DUP6 LT ISZERO PUSH3 0x668 JUMPI PUSH3 0x658 DUP6 PUSH3 0x55C JUMP JUMPDEST DUP5 MSTORE SWAP4 DUP6 ADD SWAP4 SWAP3 DUP6 ADD SWAP3 PUSH3 0x644 JUMP JUMPDEST DUP1 SWAP7 POP POP POP POP POP POP POP SWAP3 POP SWAP3 SWAP1 POP JUMP JUMPDEST PUSH4 0x4E487B71 PUSH1 0xE0 SHL PUSH1 0x0 MSTORE PUSH1 0x32 PUSH1 0x4 MSTORE PUSH1 0x24 PUSH1 0x0 REVERT JUMPDEST PUSH4 0x4E487B71 PUSH1 0xE0 SHL PUSH1 0x0 MSTORE PUSH1 0x11 PUSH1 0x4 MSTORE PUSH1 0x24 PUSH1 0x0 REVERT JUMPDEST PUSH1 0x0 PUSH1 0x1 DUP3 ADD PUSH3 0x6B9 JUMPI PUSH3 0x6B9 PUSH3 0x68E JUMP JUMPDEST POP PUSH1 0x1 ADD SWAP1 JUMP JUMPDEST PUSH6 0xFFFFFFFFFFFF DUP2 DUP2 AND DUP4 DUP3 AND ADD SWAP1 DUP1 DUP3 GT ISZERO PUSH3 0x6E2 JUMPI PUSH3 0x6E2 PUSH3 0x68E JUMP JUMPDEST POP SWAP3 SWAP2 POP POP JUMP JUMPDEST PUSH4 0xFFFFFFFF DUP3 DUP2 AND DUP3 DUP3 AND SUB SWAP1 DUP1 DUP3 GT ISZERO PUSH3 0x6E2 JUMPI PUSH3 0x6E2 PUSH3 0x68E JUMP JUMPDEST PUSH2 0x31BD DUP1 PUSH3 0x719 PUSH1 0x0 CODECOPY PUSH1 0x0 RETURN INVALID PUSH1 0x80 PUSH1 0x40 MSTORE PUSH1 0x4 CALLDATASIZE LT PUSH2 0x2BB JUMPI PUSH1 0x0 CALLDATALOAD PUSH1 0xE0 SHR DUP1 PUSH4 0x75B238FC GT PUSH2 0x16E JUMPI DUP1 PUSH4 0xB7D2B162 GT PUSH2 0xCB JUMPI DUP1 PUSH4 0xD6BB62C6 GT PUSH2 0x7F JUMPI DUP1 PUSH4 0xE62A023A GT PUSH2 0x64 JUMPI DUP1 PUSH4 0xE62A023A EQ PUSH2 0x8C6 JUMPI DUP1 PUSH4 0xF801A698 EQ PUSH2 0x8E6 JUMPI DUP1 PUSH4 0xFE0776F5 EQ PUSH2 0x920 JUMPI PUSH1 0x0 DUP1 REVERT JUMPDEST DUP1 PUSH4 0xD6BB62C6 EQ PUSH2 0x86E JUMPI DUP1 PUSH4 0xE0886F90 EQ PUSH2 0x88E JUMPI PUSH1 0x0 DUP1 REVERT JUMPDEST DUP1 PUSH4 0xCC1B6C81 GT PUSH2 0xB0 JUMPI DUP1 PUSH4 0xCC1B6C81 EQ PUSH2 0x818 JUMPI DUP1 PUSH4 0xD1F856EE EQ PUSH2 0x82E JUMPI DUP1 PUSH4 0xD22B5989 EQ PUSH2 0x84E JUMPI PUSH1 0x0 DUP1 REVERT JUMPDEST DUP1 PUSH4 0xB7D2B162 EQ PUSH2 0x7D8 JUMPI DUP1 PUSH4 0xC624C6F2 EQ PUSH2 0x7F8 JUMPI PUSH1 0x0 DUP1 REVERT JUMPDEST DUP1 PUSH4 0xA166AA89 GT PUSH2 0x122 JUMPI DUP1 PUSH4 0xABD9BD2A GT PUSH2 0x107 JUMPI DUP1 PUSH4 0xABD9BD2A EQ PUSH2 0x74F JUMPI DUP1 PUSH4 0xAC9650D8 EQ PUSH2 0x76F JUMPI DUP1 PUSH4 0xB7009613 EQ PUSH2 0x79C JUMPI PUSH1 0x0 DUP1 REVERT JUMPDEST DUP1 PUSH4 0xA166AA89 EQ PUSH2 0x6EC JUMPI DUP1 PUSH4 0xA64D95CE EQ PUSH2 0x72F JUMPI PUSH1 0x0 DUP1 REVERT JUMPDEST DUP1 PUSH4 0x853551B8 GT PUSH2 0x153 JUMPI DUP1 PUSH4 0x853551B8 EQ PUSH2 0x68A JUMPI DUP1 PUSH4 0x94C7D7EE EQ PUSH2 0x6AA JUMPI DUP1 PUSH4 0x971217B7 EQ PUSH2 0x6CA JUMPI PUSH1 0x0 DUP1 REVERT JUMPDEST DUP1 PUSH4 0x75B238FC EQ PUSH2 0x645 JUMPI DUP1 PUSH4 0x806AD57E EQ PUSH2 0x65A JUMPI PUSH1 0x0 DUP1 REVERT JUMPDEST DUP1 PUSH4 0x3078F114 GT PUSH2 0x21C JUMPI DUP1 PUSH4 0x4665096D GT PUSH2 0x1D0 JUMPI DUP1 PUSH4 0x52962952 GT PUSH2 0x1B5 JUMPI DUP1 PUSH4 0x52962952 EQ PUSH2 0x592 JUMPI DUP1 PUSH4 0x530DD456 EQ PUSH2 0x5B2 JUMPI DUP1 PUSH4 0x6D5115BD EQ PUSH2 0x5EF JUMPI PUSH1 0x0 DUP1 REVERT JUMPDEST DUP1 PUSH4 0x4665096D EQ PUSH2 0x55C JUMPI DUP1 PUSH4 0x4C1DA1E2 EQ PUSH2 0x572 JUMPI PUSH1 0x0 DUP1 REVERT JUMPDEST DUP1 PUSH4 0x3ADC277A GT PUSH2 0x201 JUMPI DUP1 PUSH4 0x3ADC277A EQ PUSH2 0x4CD JUMPI DUP1 PUSH4 0x3CA7C02A EQ PUSH2 0x504 JUMPI DUP1 PUSH4 0x4136A33C EQ PUSH2 0x51F JUMPI PUSH1 0x0 DUP1 REVERT JUMPDEST DUP1 PUSH4 0x3078F114 EQ PUSH2 0x453 JUMPI DUP1 PUSH4 0x30CAE187 EQ PUSH2 0x4AD JUMPI PUSH1 0x0 DUP1 REVERT JUMPDEST DUP1 PUSH4 0x1CFF79CD GT PUSH2 0x273 JUMPI DUP1 PUSH4 0x29092D0E GT PUSH2 0x258 JUMPI DUP1 PUSH4 0x29092D0E EQ PUSH2 0x3F0 JUMPI DUP1 PUSH4 0x2DDBD13A EQ PUSH2 0x410 JUMPI DUP1 PUSH4 0x3078DB6C EQ PUSH2 0x433 JUMPI PUSH1 0x0 DUP1 REVERT JUMPDEST DUP1 PUSH4 0x1CFF79CD EQ PUSH2 0x3BD JUMPI DUP1 PUSH4 0x25C471A0 EQ PUSH2 0x3D0 JUMPI PUSH1 0x0 DUP1 REVERT JUMPDEST DUP1 PUSH4 0x12BE8727 GT PUSH2 0x2A4 JUMPI DUP1 PUSH4 0x12BE8727 EQ PUSH2 0x348 JUMPI DUP1 PUSH4 0x167BD395 EQ PUSH2 0x37D JUMPI DUP1 PUSH4 0x18FF183C EQ PUSH2 0x39D JUMPI PUSH1 0x0 DUP1 REVERT JUMPDEST DUP1 PUSH4 0x8D6122D EQ PUSH2 0x2C0 JUMPI DUP1 PUSH4 0xB0A93BA EQ PUSH2 0x2E2 JUMPI JUMPDEST PUSH1 0x0 DUP1 REVERT JUMPDEST CALLVALUE DUP1 ISZERO PUSH2 0x2CC JUMPI PUSH1 0x0 DUP1 REVERT JUMPDEST POP PUSH2 0x2E0 PUSH2 0x2DB CALLDATASIZE PUSH1 0x4 PUSH2 0x29C6 JUMP JUMPDEST PUSH2 0x940 JUMP JUMPDEST STOP JUMPDEST CALLVALUE DUP1 ISZERO PUSH2 0x2EE JUMPI PUSH1 0x0 DUP1 REVERT JUMPDEST POP PUSH2 0x32B PUSH2 0x2FD CALLDATASIZE PUSH1 0x4 PUSH2 0x2A2C JUMP JUMPDEST PUSH1 0x1 PUSH1 0x1 PUSH1 0x40 SHL SUB SWAP1 DUP2 AND PUSH1 0x0 SWAP1 DUP2 MSTORE PUSH1 0x1 PUSH1 0x20 DUP2 SWAP1 MSTORE PUSH1 0x40 SWAP1 SWAP2 KECCAK256 ADD SLOAD PUSH9 0x10000000000000000 SWAP1 DIV AND SWAP1 JUMP JUMPDEST PUSH1 0x40 MLOAD PUSH1 0x1 PUSH1 0x1 PUSH1 0x40 SHL SUB SWAP1 SWAP2 AND DUP2 MSTORE PUSH1 0x20 ADD JUMPDEST PUSH1 0x40 MLOAD DUP1 SWAP2 SUB SWAP1 RETURN JUMPDEST CALLVALUE DUP1 ISZERO PUSH2 0x354 JUMPI PUSH1 0x0 DUP1 REVERT JUMPDEST POP PUSH2 0x368 PUSH2 0x363 CALLDATASIZE PUSH1 0x4 PUSH2 0x2A2C JUMP JUMPDEST PUSH2 0x99B JUMP JUMPDEST PUSH1 0x40 MLOAD PUSH4 0xFFFFFFFF SWAP1 SWAP2 AND DUP2 MSTORE PUSH1 0x20 ADD PUSH2 0x33F JUMP JUMPDEST CALLVALUE DUP1 ISZERO PUSH2 0x389 JUMPI PUSH1 0x0 DUP1 REVERT JUMPDEST POP PUSH2 0x2E0 PUSH2 0x398 CALLDATASIZE PUSH1 0x4 PUSH2 0x2A47 JUMP JUMPDEST PUSH2 0x9D6 JUMP JUMPDEST CALLVALUE DUP1 ISZERO PUSH2 0x3A9 JUMPI PUSH1 0x0 DUP1 REVERT JUMPDEST POP PUSH2 0x2E0 PUSH2 0x3B8 CALLDATASIZE PUSH1 0x4 PUSH2 0x2A85 JUMP JUMPDEST PUSH2 0x9EC JUMP JUMPDEST PUSH2 0x368 PUSH2 0x3CB CALLDATASIZE PUSH1 0x4 PUSH2 0x2AF4 JUMP JUMPDEST PUSH2 0xA53 JUMP JUMPDEST CALLVALUE DUP1 ISZERO PUSH2 0x3DC JUMPI PUSH1 0x0 DUP1 REVERT JUMPDEST POP PUSH2 0x2E0 PUSH2 0x3EB CALLDATASIZE PUSH1 0x4 PUSH2 0x2B5C JUMP JUMPDEST PUSH2 0xBC0 JUMP JUMPDEST CALLVALUE DUP1 ISZERO PUSH2 0x3FC JUMPI PUSH1 0x0 DUP1 REVERT JUMPDEST POP PUSH2 0x2E0 PUSH2 0x40B CALLDATASIZE PUSH1 0x4 PUSH2 0x2BA1 JUMP JUMPDEST PUSH2 0xBE2 JUMP JUMPDEST CALLVALUE DUP1 ISZERO PUSH2 0x41C JUMPI PUSH1 0x0 DUP1 REVERT JUMPDEST POP PUSH2 0x425 PUSH2 0xC19 JUMP JUMPDEST PUSH1 0x40 MLOAD SWAP1 DUP2 MSTORE PUSH1 0x20 ADD PUSH2 0x33F JUMP JUMPDEST CALLVALUE DUP1 ISZERO PUSH2 0x43F JUMPI PUSH1 0x0 DUP1 REVERT JUMPDEST POP PUSH2 0x2E0 PUSH2 0x44E CALLDATASIZE PUSH1 0x4 PUSH2 0x2BA1 JUMP JUMPDEST PUSH2 0xC2A JUMP JUMPDEST CALLVALUE DUP1 ISZERO PUSH2 0x45F JUMPI PUSH1 0x0 DUP1 REVERT JUMPDEST POP PUSH2 0x473 PUSH2 0x46E CALLDATASIZE PUSH1 0x4 PUSH2 0x2BBE JUMP JUMPDEST PUSH2 0xC61 JUMP JUMPDEST PUSH1 0x40 MLOAD PUSH2 0x33F SWAP5 SWAP4 SWAP3 SWAP2 SWAP1 PUSH6 0xFFFFFFFFFFFF SWAP5 DUP6 AND DUP2 MSTORE PUSH4 0xFFFFFFFF SWAP4 DUP5 AND PUSH1 0x20 DUP3 ADD MSTORE SWAP2 SWAP1 SWAP3 AND PUSH1 0x40 DUP3 ADD MSTORE SWAP2 AND PUSH1 0x60 DUP3 ADD MSTORE PUSH1 0x80 ADD SWAP1 JUMP JUMPDEST CALLVALUE DUP1 ISZERO PUSH2 0x4B9 JUMPI PUSH1 0x0 DUP1 REVERT JUMPDEST POP PUSH2 0x2E0 PUSH2 0x4C8 CALLDATASIZE PUSH1 0x4 PUSH2 0x2BDA JUMP JUMPDEST PUSH2 0xCC9 JUMP JUMPDEST CALLVALUE DUP1 ISZERO PUSH2 0x4D9 JUMPI PUSH1 0x0 DUP1 REVERT JUMPDEST POP PUSH2 0x4ED PUSH2 0x4E8 CALLDATASIZE PUSH1 0x4 PUSH2 0x2C0D JUMP JUMPDEST PUSH2 0xCDB JUMP JUMPDEST PUSH1 0x40 MLOAD PUSH6 0xFFFFFFFFFFFF SWAP1 SWAP2 AND DUP2 MSTORE PUSH1 0x20 ADD PUSH2 0x33F JUMP JUMPDEST CALLVALUE DUP1 ISZERO PUSH2 0x510 JUMPI PUSH1 0x0 DUP1 REVERT JUMPDEST POP PUSH2 0x32B PUSH1 0x1 PUSH1 0x1 PUSH1 0x40 SHL SUB DUP2 JUMP JUMPDEST CALLVALUE DUP1 ISZERO PUSH2 0x52B JUMPI PUSH1 0x0 DUP1 REVERT JUMPDEST POP PUSH2 0x368 PUSH2 0x53A CALLDATASIZE PUSH1 0x4 PUSH2 0x2C0D JUMP JUMPDEST PUSH1 0x0 SWAP1 DUP2 MSTORE PUSH1 0x2 PUSH1 0x20 MSTORE PUSH1 0x40 SWAP1 KECCAK256 SLOAD PUSH7 0x1000000000000 SWAP1 DIV PUSH4 0xFFFFFFFF AND SWAP1 JUMP JUMPDEST CALLVALUE DUP1 ISZERO PUSH2 0x568 JUMPI PUSH1 0x0 DUP1 REVERT JUMPDEST POP PUSH3 0x93A80 PUSH2 0x368 JUMP JUMPDEST CALLVALUE DUP1 ISZERO PUSH2 0x57E JUMPI PUSH1 0x0 DUP1 REVERT JUMPDEST POP PUSH2 0x368 PUSH2 0x58D CALLDATASIZE PUSH1 0x4 PUSH2 0x2BA1 JUMP JUMPDEST PUSH2 0xD0E JUMP JUMPDEST CALLVALUE DUP1 ISZERO PUSH2 0x59E JUMPI PUSH1 0x0 DUP1 REVERT JUMPDEST POP PUSH2 0x2E0 PUSH2 0x5AD CALLDATASIZE PUSH1 0x4 PUSH2 0x2BDA JUMP JUMPDEST PUSH2 0xD3C JUMP JUMPDEST CALLVALUE DUP1 ISZERO PUSH2 0x5BE JUMPI PUSH1 0x0 DUP1 REVERT JUMPDEST POP PUSH2 0x32B PUSH2 0x5CD CALLDATASIZE PUSH1 0x4 PUSH2 0x2A2C JUMP JUMPDEST PUSH1 0x1 PUSH1 0x1 PUSH1 0x40 SHL SUB SWAP1 DUP2 AND PUSH1 0x0 SWAP1 DUP2 MSTORE PUSH1 0x1 PUSH1 0x20 DUP2 SWAP1 MSTORE PUSH1 0x40 SWAP1 SWAP2 KECCAK256 ADD SLOAD AND SWAP1 JUMP JUMPDEST CALLVALUE DUP1 ISZERO PUSH2 0x5FB JUMPI PUSH1 0x0 DUP1 REVERT JUMPDEST POP PUSH2 0x32B PUSH2 0x60A CALLDATASIZE PUSH1 0x4 PUSH2 0x2C3C JUMP JUMPDEST PUSH1 0x1 PUSH1 0x1 PUSH1 0xA0 SHL SUB DUP3 AND PUSH1 0x0 SWAP1 DUP2 MSTORE PUSH1 0x20 DUP2 DUP2 MSTORE PUSH1 0x40 DUP1 DUP4 KECCAK256 PUSH1 0x1 PUSH1 0x1 PUSH1 0xE0 SHL SUB NOT DUP6 AND DUP5 MSTORE SWAP1 SWAP2 MSTORE SWAP1 KECCAK256 SLOAD PUSH1 0x1 PUSH1 0x1 PUSH1 0x40 SHL SUB AND SWAP3 SWAP2 POP POP JUMP JUMPDEST CALLVALUE DUP1 ISZERO PUSH2 0x651 JUMPI PUSH1 0x0 DUP1 REVERT JUMPDEST POP PUSH2 0x32B PUSH1 0x0 DUP2 JUMP JUMPDEST CALLVALUE DUP1 ISZERO PUSH2 0x666 JUMPI PUSH1 0x0 DUP1 REVERT JUMPDEST POP PUSH2 0x67A PUSH2 0x675 CALLDATASIZE PUSH1 0x4 PUSH2 0x2BA1 JUMP JUMPDEST PUSH2 0xD4E JUMP JUMPDEST PUSH1 0x40 MLOAD SWAP1 ISZERO ISZERO DUP2 MSTORE PUSH1 0x20 ADD PUSH2 0x33F JUMP JUMPDEST CALLVALUE DUP1 ISZERO PUSH2 0x696 JUMPI PUSH1 0x0 DUP1 REVERT JUMPDEST POP PUSH2 0x2E0 PUSH2 0x6A5 CALLDATASIZE PUSH1 0x4 PUSH2 0x2C6A JUMP JUMPDEST PUSH2 0xD86 JUMP JUMPDEST CALLVALUE DUP1 ISZERO PUSH2 0x6B6 JUMPI PUSH1 0x0 DUP1 REVERT JUMPDEST POP PUSH2 0x2E0 PUSH2 0x6C5 CALLDATASIZE PUSH1 0x4 PUSH2 0x2AF4 JUMP JUMPDEST PUSH2 0xE1D JUMP JUMPDEST CALLVALUE DUP1 ISZERO PUSH2 0x6D6 JUMPI PUSH1 0x0 DUP1 REVERT JUMPDEST POP PUSH2 0x6DF PUSH2 0xEC9 JUMP JUMPDEST PUSH1 0x40 MLOAD PUSH2 0x33F SWAP2 SWAP1 PUSH2 0x2C88 JUMP JUMPDEST CALLVALUE DUP1 ISZERO PUSH2 0x6F8 JUMPI PUSH1 0x0 DUP1 REVERT JUMPDEST POP PUSH2 0x67A PUSH2 0x707 CALLDATASIZE PUSH1 0x4 PUSH2 0x2BA1 JUMP JUMPDEST PUSH1 0x1 PUSH1 0x1 PUSH1 0xA0 SHL SUB AND PUSH1 0x0 SWAP1 DUP2 MSTORE PUSH1 0x20 DUP2 SWAP1 MSTORE PUSH1 0x40 SWAP1 KECCAK256 PUSH1 0x1 ADD SLOAD PUSH1 0x1 PUSH1 0x70 SHL SWAP1 DIV PUSH1 0xFF AND SWAP1 JUMP JUMPDEST CALLVALUE DUP1 ISZERO PUSH2 0x73B JUMPI PUSH1 0x0 DUP1 REVERT JUMPDEST POP PUSH2 0x2E0 PUSH2 0x74A CALLDATASIZE PUSH1 0x4 PUSH2 0x2CD5 JUMP JUMPDEST PUSH2 0xED5 JUMP JUMPDEST CALLVALUE DUP1 ISZERO PUSH2 0x75B JUMPI PUSH1 0x0 DUP1 REVERT JUMPDEST POP PUSH2 0x425 PUSH2 0x76A CALLDATASIZE PUSH1 0x4 PUSH2 0x2CFF JUMP JUMPDEST PUSH2 0xEE7 JUMP JUMPDEST CALLVALUE DUP1 ISZERO PUSH2 0x77B JUMPI PUSH1 0x0 DUP1 REVERT JUMPDEST POP PUSH2 0x78F PUSH2 0x78A CALLDATASIZE PUSH1 0x4 PUSH2 0x2D63 JUMP JUMPDEST PUSH2 0xF20 JUMP JUMPDEST PUSH1 0x40 MLOAD PUSH2 0x33F SWAP2 SWAP1 PUSH2 0x2DC8 JUMP JUMPDEST CALLVALUE DUP1 ISZERO PUSH2 0x7A8 JUMPI PUSH1 0x0 DUP1 REVERT JUMPDEST POP PUSH2 0x7BC PUSH2 0x7B7 CALLDATASIZE PUSH1 0x4 PUSH2 0x2E42 JUMP JUMPDEST PUSH2 0x1012 JUMP JUMPDEST PUSH1 0x40 DUP1 MLOAD SWAP3 ISZERO ISZERO DUP4 MSTORE PUSH4 0xFFFFFFFF SWAP1 SWAP2 AND PUSH1 0x20 DUP4 ADD MSTORE ADD PUSH2 0x33F JUMP JUMPDEST CALLVALUE DUP1 ISZERO PUSH2 0x7E4 JUMPI PUSH1 0x0 DUP1 REVERT JUMPDEST POP PUSH2 0x2E0 PUSH2 0x7F3 CALLDATASIZE PUSH1 0x4 PUSH2 0x2BBE JUMP JUMPDEST PUSH2 0x1112 JUMP JUMPDEST CALLVALUE DUP1 ISZERO PUSH2 0x804 JUMPI PUSH1 0x0 DUP1 REVERT JUMPDEST POP PUSH2 0x2E0 PUSH2 0x813 CALLDATASIZE PUSH1 0x4 PUSH2 0x2C0D JUMP JUMPDEST PUSH2 0x1129 JUMP JUMPDEST CALLVALUE DUP1 ISZERO PUSH2 0x824 JUMPI PUSH1 0x0 DUP1 REVERT JUMPDEST POP PUSH3 0x69780 PUSH2 0x368 JUMP JUMPDEST CALLVALUE DUP1 ISZERO PUSH2 0x83A JUMPI PUSH1 0x0 DUP1 REVERT JUMPDEST POP PUSH2 0x7BC PUSH2 0x849 CALLDATASIZE PUSH1 0x4 PUSH2 0x2BBE JUMP JUMPDEST PUSH2 0x1160 JUMP JUMPDEST CALLVALUE DUP1 ISZERO PUSH2 0x85A JUMPI PUSH1 0x0 DUP1 REVERT JUMPDEST POP PUSH2 0x2E0 PUSH2 0x869 CALLDATASIZE PUSH1 0x4 PUSH2 0x2E8D JUMP JUMPDEST PUSH2 0x11DD JUMP JUMPDEST CALLVALUE DUP1 ISZERO PUSH2 0x87A JUMPI PUSH1 0x0 DUP1 REVERT JUMPDEST POP PUSH2 0x368 PUSH2 0x889 CALLDATASIZE PUSH1 0x4 PUSH2 0x2CFF JUMP JUMPDEST PUSH2 0x11EF JUMP JUMPDEST CALLVALUE DUP1 ISZERO PUSH2 0x89A JUMPI PUSH1 0x0 DUP1 REVERT JUMPDEST POP PUSH2 0x8AE PUSH2 0x8A9 CALLDATASIZE PUSH1 0x4 PUSH2 0x2C0D JUMP JUMPDEST PUSH2 0x137E JUMP JUMPDEST PUSH1 0x40 MLOAD PUSH1 0x1 PUSH1 0x1 PUSH1 0xA0 SHL SUB SWAP1 SWAP2 AND DUP2 MSTORE PUSH1 0x20 ADD PUSH2 0x33F JUMP JUMPDEST CALLVALUE DUP1 ISZERO PUSH2 0x8D2 JUMPI PUSH1 0x0 DUP1 REVERT JUMPDEST POP PUSH2 0x67A PUSH2 0x8E1 CALLDATASIZE PUSH1 0x4 PUSH2 0x2BA1 JUMP JUMPDEST PUSH2 0x13B7 JUMP JUMPDEST CALLVALUE DUP1 ISZERO PUSH2 0x8F2 JUMPI PUSH1 0x0 DUP1 REVERT JUMPDEST POP PUSH2 0x906 PUSH2 0x901 CALLDATASIZE PUSH1 0x4 PUSH2 0x2EAB JUMP JUMPDEST PUSH2 0x13EB JUMP JUMPDEST PUSH1 0x40 DUP1 MLOAD SWAP3 DUP4 MSTORE PUSH4 0xFFFFFFFF SWAP1 SWAP2 AND PUSH1 0x20 DUP4 ADD MSTORE ADD PUSH2 0x33F JUMP JUMPDEST CALLVALUE DUP1 ISZERO PUSH2 0x92C JUMPI PUSH1 0x0 DUP1 REVERT JUMPDEST POP PUSH2 0x2E0 PUSH2 0x93B CALLDATASIZE PUSH1 0x4 PUSH2 0x2BBE JUMP JUMPDEST PUSH2 0x1533 JUMP JUMPDEST PUSH2 0x948 PUSH2 0x155C JUMP JUMPDEST PUSH1 0x0 JUMPDEST DUP3 DUP2 LT ISZERO PUSH2 0x994 JUMPI PUSH2 0x984 DUP6 DUP6 DUP6 DUP5 DUP2 DUP2 LT PUSH2 0x969 JUMPI PUSH2 0x969 PUSH2 0x2F1D JUMP JUMPDEST SWAP1 POP PUSH1 0x20 MUL ADD PUSH1 0x20 DUP2 ADD SWAP1 PUSH2 0x97E SWAP2 SWAP1 PUSH2 0x2F33 JUMP JUMPDEST DUP5 PUSH2 0x15D7 JUMP JUMPDEST PUSH2 0x98D DUP2 PUSH2 0x2F66 JUMP JUMPDEST SWAP1 POP PUSH2 0x94B JUMP JUMPDEST POP POP POP POP POP JUMP JUMPDEST PUSH1 0x1 PUSH1 0x1 PUSH1 0x40 SHL SUB DUP2 AND PUSH1 0x0 SWAP1 DUP2 MSTORE PUSH1 0x1 PUSH1 0x20 DUP2 SWAP1 MSTORE PUSH1 0x40 DUP3 KECCAK256 ADD SLOAD PUSH2 0x9D0 SWAP1 PUSH1 0x1 PUSH1 0x80 SHL SWAP1 DIV PUSH1 0x1 PUSH1 0x1 PUSH1 0x70 SHL SUB AND PUSH2 0x1659 JUMP JUMPDEST SWAP3 SWAP2 POP POP JUMP JUMPDEST PUSH2 0x9DE PUSH2 0x155C JUMP JUMPDEST PUSH2 0x9E8 DUP3 DUP3 PUSH2 0x1678 JUMP JUMPDEST POP POP JUMP JUMPDEST PUSH2 0x9F4 PUSH2 0x155C JUMP JUMPDEST PUSH1 0x40 MLOAD PUSH4 0x7A9E5E4B PUSH1 0xE0 SHL DUP2 MSTORE PUSH1 0x1 PUSH1 0x1 PUSH1 0xA0 SHL SUB DUP3 DUP2 AND PUSH1 0x4 DUP4 ADD MSTORE DUP4 AND SWAP1 PUSH4 0x7A9E5E4B SWAP1 PUSH1 0x24 ADD PUSH1 0x0 PUSH1 0x40 MLOAD DUP1 DUP4 SUB DUP2 PUSH1 0x0 DUP8 DUP1 EXTCODESIZE ISZERO DUP1 ISZERO PUSH2 0xA37 JUMPI PUSH1 0x0 DUP1 REVERT JUMPDEST POP GAS CALL ISZERO DUP1 ISZERO PUSH2 0xA4B JUMPI RETURNDATASIZE PUSH1 0x0 DUP1 RETURNDATACOPY RETURNDATASIZE PUSH1 0x0 REVERT JUMPDEST POP POP POP POP POP POP JUMP JUMPDEST PUSH1 0x0 CALLER DUP2 DUP1 PUSH2 0xA64 DUP4 DUP9 DUP9 DUP9 PUSH2 0x1729 JUMP JUMPDEST SWAP2 POP SWAP2 POP DUP2 ISZERO DUP1 ISZERO PUSH2 0xA7A JUMPI POP PUSH4 0xFFFFFFFF DUP2 AND ISZERO JUMPDEST ISZERO PUSH2 0xACD JUMPI DUP3 DUP8 PUSH2 0xA8B DUP9 DUP9 PUSH2 0x177C JUMP JUMPDEST PUSH1 0x40 MLOAD PUSH4 0x81C6F24B PUSH1 0xE0 SHL DUP2 MSTORE PUSH1 0x1 PUSH1 0x1 PUSH1 0xA0 SHL SUB SWAP4 DUP5 AND PUSH1 0x4 DUP3 ADD MSTORE SWAP3 SWAP1 SWAP2 AND PUSH1 0x24 DUP4 ADD MSTORE PUSH1 0x1 PUSH1 0x1 PUSH1 0xE0 SHL SUB NOT AND PUSH1 0x44 DUP3 ADD MSTORE PUSH1 0x64 ADD JUMPDEST PUSH1 0x40 MLOAD DUP1 SWAP2 SUB SWAP1 REVERT JUMPDEST PUSH1 0x0 PUSH2 0xADB DUP5 DUP10 DUP10 DUP10 PUSH2 0xEE7 JUMP JUMPDEST SWAP1 POP PUSH1 0x0 PUSH4 0xFFFFFFFF DUP4 AND ISZERO ISZERO DUP1 PUSH2 0xB02 JUMPI POP PUSH2 0xAF7 DUP3 PUSH2 0xCDB JUMP JUMPDEST PUSH6 0xFFFFFFFFFFFF AND ISZERO ISZERO JUMPDEST ISZERO PUSH2 0xB13 JUMPI PUSH2 0xB10 DUP3 PUSH2 0x1794 JUMP JUMPDEST SWAP1 POP JUMPDEST PUSH1 0x3 SLOAD PUSH2 0xB66 DUP11 PUSH2 0xB24 DUP12 DUP12 PUSH2 0x177C JUMP JUMPDEST PUSH1 0x40 DUP1 MLOAD PUSH1 0x1 PUSH1 0x1 PUSH1 0xA0 SHL SUB SWAP4 SWAP1 SWAP4 AND PUSH1 0x20 DUP1 DUP6 ADD SWAP2 SWAP1 SWAP2 MSTORE PUSH1 0x1 PUSH1 0x1 PUSH1 0xE0 SHL SUB NOT SWAP3 SWAP1 SWAP3 AND DUP4 DUP3 ADD MSTORE DUP1 MLOAD DUP1 DUP5 SUB DUP3 ADD DUP2 MSTORE PUSH1 0x60 SWAP1 SWAP4 ADD SWAP1 MSTORE DUP2 MLOAD SWAP2 ADD KECCAK256 SWAP1 JUMP JUMPDEST PUSH1 0x3 DUP2 SWAP1 SSTORE POP PUSH2 0xBAE DUP11 DUP11 DUP11 DUP1 DUP1 PUSH1 0x1F ADD PUSH1 0x20 DUP1 SWAP2 DIV MUL PUSH1 0x20 ADD PUSH1 0x40 MLOAD SWAP1 DUP2 ADD PUSH1 0x40 MSTORE DUP1 SWAP4 SWAP3 SWAP2 SWAP1 DUP2 DUP2 MSTORE PUSH1 0x20 ADD DUP4 DUP4 DUP1 DUP3 DUP5 CALLDATACOPY PUSH1 0x0 SWAP3 ADD SWAP2 SWAP1 SWAP2 MSTORE POP CALLVALUE SWAP3 POP PUSH2 0x1897 SWAP2 POP POP JUMP JUMPDEST POP PUSH1 0x3 SSTORE SWAP5 POP POP POP POP POP JUMPDEST SWAP4 SWAP3 POP POP POP JUMP JUMPDEST PUSH2 0xBC8 PUSH2 0x155C JUMP JUMPDEST PUSH2 0xBDC DUP4 DUP4 PUSH2 0xBD6 DUP7 PUSH2 0x99B JUMP JUMPDEST DUP5 PUSH2 0x1934 JUMP JUMPDEST POP POP POP POP JUMP JUMPDEST PUSH1 0x0 PUSH2 0xBEF PUSH1 0x0 CALLER PUSH2 0x1160 JUMP JUMPDEST POP SWAP1 POP DUP1 PUSH2 0xC10 JUMPI PUSH1 0x40 MLOAD PUSH4 0x55098F27 PUSH1 0xE0 SHL DUP2 MSTORE PUSH1 0x4 ADD PUSH1 0x40 MLOAD DUP1 SWAP2 SUB SWAP1 REVERT JUMPDEST PUSH2 0x9E8 DUP3 PUSH2 0x1BA0 JUMP JUMPDEST PUSH1 0x0 PUSH2 0xC25 PUSH1 0x4 PUSH2 0x1BBE JUMP JUMPDEST SWAP1 POP SWAP1 JUMP JUMPDEST PUSH1 0x0 PUSH2 0xC37 PUSH1 0x0 CALLER PUSH2 0x1160 JUMP JUMPDEST POP SWAP1 POP DUP1 PUSH2 0xC58 JUMPI PUSH1 0x40 MLOAD PUSH4 0x55098F27 PUSH1 0xE0 SHL DUP2 MSTORE PUSH1 0x4 ADD PUSH1 0x40 MLOAD DUP1 SWAP2 SUB SWAP1 REVERT JUMPDEST PUSH2 0x9E8 DUP3 PUSH2 0x1BC8 JUMP JUMPDEST PUSH1 0x1 PUSH1 0x1 PUSH1 0x40 SHL SUB DUP3 AND PUSH1 0x0 SWAP1 DUP2 MSTORE PUSH1 0x1 PUSH1 0x20 SWAP1 DUP2 MSTORE PUSH1 0x40 DUP1 DUP4 KECCAK256 PUSH1 0x1 PUSH1 0x1 PUSH1 0xA0 SHL SUB DUP6 AND DUP5 MSTORE SWAP1 SWAP2 MSTORE DUP2 KECCAK256 DUP1 SLOAD PUSH6 0xFFFFFFFFFFFF DUP2 AND SWAP3 SWAP2 DUP3 SWAP2 DUP3 SWAP2 SWAP1 PUSH2 0xCBB SWAP1 PUSH7 0x1000000000000 SWAP1 DIV PUSH1 0x1 PUSH1 0x1 PUSH1 0x70 SHL SUB AND PUSH2 0x1C83 JUMP JUMPDEST SWAP7 SWAP10 SWAP2 SWAP9 POP SWAP7 POP SWAP4 POP POP POP POP JUMP JUMPDEST PUSH2 0xCD1 PUSH2 0x155C JUMP JUMPDEST PUSH2 0x9E8 DUP3 DUP3 PUSH2 0x1CA6 JUMP JUMPDEST PUSH1 0x0 DUP2 DUP2 MSTORE PUSH1 0x2 PUSH1 0x20 MSTORE PUSH1 0x40 DUP2 KECCAK256 SLOAD PUSH6 0xFFFFFFFFFFFF AND PUSH2 0xCFB DUP2 PUSH2 0x1D4A JUMP JUMPDEST PUSH2 0xD05 JUMPI DUP1 PUSH2 0xBB9 JUMP JUMPDEST PUSH1 0x0 SWAP4 SWAP3 POP POP POP JUMP JUMPDEST PUSH1 0x1 PUSH1 0x1 PUSH1 0xA0 SHL SUB DUP2 AND PUSH1 0x0 SWAP1 DUP2 MSTORE PUSH1 0x20 DUP2 SWAP1 MSTORE PUSH1 0x40 DUP2 KECCAK256 PUSH1 0x1 ADD SLOAD PUSH2 0x9D0 SWAP1 PUSH1 0x1 PUSH1 0x1 PUSH1 0x70 SHL SUB AND PUSH2 0x1659 JUMP JUMPDEST PUSH2 0xD44 PUSH2 0x155C JUMP JUMPDEST PUSH2 0x9E8 DUP3 DUP3 PUSH2 0x1D79 JUMP JUMPDEST PUSH1 0x0 DUP1 PUSH2 0xD5C PUSH1 0x0 CALLER PUSH2 0x1160 JUMP JUMPDEST POP SWAP1 POP DUP1 PUSH2 0xD7D JUMPI PUSH1 0x40 MLOAD PUSH4 0x55098F27 PUSH1 0xE0 SHL DUP2 MSTORE PUSH1 0x4 ADD PUSH1 0x40 MLOAD DUP1 SWAP2 SUB SWAP1 REVERT JUMPDEST PUSH2 0xBB9 DUP4 PUSH2 0x1E30 JUMP JUMPDEST PUSH2 0xD8E PUSH2 0x155C JUMP JUMPDEST PUSH1 0x1 PUSH1 0x1 PUSH1 0x40 SHL SUB DUP4 AND ISZERO DUP1 PUSH2 0xDAC JUMPI POP PUSH1 0x1 PUSH1 0x1 PUSH1 0x40 SHL SUB DUP4 DUP2 AND EQ JUMPDEST ISZERO PUSH2 0xDD5 JUMPI PUSH1 0x40 MLOAD PUSH4 0x61C6A43 PUSH1 0xE2 SHL DUP2 MSTORE PUSH1 0x1 PUSH1 0x1 PUSH1 0x40 SHL SUB DUP5 AND PUSH1 0x4 DUP3 ADD MSTORE PUSH1 0x24 ADD PUSH2 0xAC4 JUMP JUMPDEST DUP3 PUSH1 0x1 PUSH1 0x1 PUSH1 0x40 SHL SUB AND PUSH32 0x1256F5B5ECB89CAEC12DB449738F2FBCD1BA5806CF38F35413F4E5C15BF6A450 DUP4 DUP4 PUSH1 0x40 MLOAD PUSH2 0xE10 SWAP3 SWAP2 SWAP1 PUSH2 0x2FA8 JUMP JUMPDEST PUSH1 0x40 MLOAD DUP1 SWAP2 SUB SWAP1 LOG2 POP POP POP JUMP JUMPDEST PUSH1 0x40 DUP1 MLOAD PUSH4 0x8FB36037 PUSH1 0xE0 SHL DUP1 DUP3 MSTORE SWAP2 MLOAD CALLER SWAP3 SWAP2 DUP4 SWAP2 PUSH4 0x8FB36037 SWAP2 PUSH1 0x4 DUP1 DUP3 ADD SWAP3 PUSH1 0x20 SWAP3 SWAP1 SWAP2 SWAP1 DUP3 SWAP1 SUB ADD DUP2 DUP7 GAS STATICCALL ISZERO DUP1 ISZERO PUSH2 0xE5E JUMPI RETURNDATASIZE PUSH1 0x0 DUP1 RETURNDATACOPY RETURNDATASIZE PUSH1 0x0 REVERT JUMPDEST POP POP POP POP PUSH1 0x40 MLOAD RETURNDATASIZE PUSH1 0x1F NOT PUSH1 0x1F DUP3 ADD AND DUP3 ADD DUP1 PUSH1 0x40 MSTORE POP DUP2 ADD SWAP1 PUSH2 0xE82 SWAP2 SWAP1 PUSH2 0x2FC4 JUMP JUMPDEST PUSH1 0x1 PUSH1 0x1 PUSH1 0xE0 SHL SUB NOT AND EQ PUSH2 0xEB5 JUMPI PUSH1 0x40 MLOAD PUSH4 0x641FEE9 PUSH1 0xE3 SHL DUP2 MSTORE PUSH1 0x1 PUSH1 0x1 PUSH1 0xA0 SHL SUB DUP3 AND PUSH1 0x4 DUP3 ADD MSTORE PUSH1 0x24 ADD PUSH2 0xAC4 JUMP JUMPDEST PUSH2 0x994 PUSH2 0xEC4 DUP6 DUP4 DUP7 DUP7 PUSH2 0xEE7 JUMP JUMPDEST PUSH2 0x1794 JUMP JUMPDEST PUSH1 0x60 PUSH2 0xC25 PUSH1 0x4 PUSH2 0x1E85 JUMP JUMPDEST PUSH2 0xEDD PUSH2 0x155C JUMP JUMPDEST PUSH2 0x9E8 DUP3 DUP3 PUSH2 0x1E92 JUMP JUMPDEST PUSH1 0x0 DUP5 DUP5 DUP5 DUP5 PUSH1 0x40 MLOAD PUSH1 0x20 ADD PUSH2 0xF00 SWAP5 SWAP4 SWAP3 SWAP2 SWAP1 PUSH2 0x2FE1 JUMP JUMPDEST PUSH1 0x40 MLOAD PUSH1 0x20 DUP2 DUP4 SUB SUB DUP2 MSTORE SWAP1 PUSH1 0x40 MSTORE DUP1 MLOAD SWAP1 PUSH1 0x20 ADD KECCAK256 SWAP1 POP SWAP5 SWAP4 POP POP POP POP JUMP JUMPDEST PUSH1 0x40 DUP1 MLOAD PUSH1 0x0 DUP2 MSTORE PUSH1 0x20 DUP2 ADD SWAP1 SWAP2 MSTORE PUSH1 0x60 SWAP1 DUP3 PUSH1 0x1 PUSH1 0x1 PUSH1 0x40 SHL SUB DUP2 GT ISZERO PUSH2 0xF4A JUMPI PUSH2 0xF4A PUSH2 0x304B JUMP JUMPDEST PUSH1 0x40 MLOAD SWAP1 DUP1 DUP3 MSTORE DUP1 PUSH1 0x20 MUL PUSH1 0x20 ADD DUP3 ADD PUSH1 0x40 MSTORE DUP1 ISZERO PUSH2 0xF7D JUMPI DUP2 PUSH1 0x20 ADD JUMPDEST PUSH1 0x60 DUP2 MSTORE PUSH1 0x20 ADD SWAP1 PUSH1 0x1 SWAP1 SUB SWAP1 DUP2 PUSH2 0xF68 JUMPI SWAP1 POP JUMPDEST POP SWAP2 POP PUSH1 0x0 JUMPDEST DUP4 DUP2 LT ISZERO PUSH2 0x100A JUMPI PUSH2 0xFDA ADDRESS DUP7 DUP7 DUP5 DUP2 DUP2 LT PUSH2 0xFA1 JUMPI PUSH2 0xFA1 PUSH2 0x2F1D JUMP JUMPDEST SWAP1 POP PUSH1 0x20 MUL DUP2 ADD SWAP1 PUSH2 0xFB3 SWAP2 SWAP1 PUSH2 0x3061 JUMP JUMPDEST DUP6 PUSH1 0x40 MLOAD PUSH1 0x20 ADD PUSH2 0xFC6 SWAP4 SWAP3 SWAP2 SWAP1 PUSH2 0x30A7 JUMP JUMPDEST PUSH1 0x40 MLOAD PUSH1 0x20 DUP2 DUP4 SUB SUB DUP2 MSTORE SWAP1 PUSH1 0x40 MSTORE PUSH2 0x1FB1 JUMP JUMPDEST DUP4 DUP3 DUP2 MLOAD DUP2 LT PUSH2 0xFEC JUMPI PUSH2 0xFEC PUSH2 0x2F1D JUMP JUMPDEST PUSH1 0x20 MUL PUSH1 0x20 ADD ADD DUP2 SWAP1 MSTORE POP DUP1 DUP1 PUSH2 0x1002 SWAP1 PUSH2 0x2F66 JUMP JUMPDEST SWAP2 POP POP PUSH2 0xF83 JUMP JUMPDEST POP POP SWAP3 SWAP2 POP POP JUMP JUMPDEST PUSH1 0x1 PUSH1 0x1 PUSH1 0xA0 SHL SUB DUP3 AND PUSH1 0x0 SWAP1 DUP2 MSTORE PUSH1 0x20 DUP2 SWAP1 MSTORE PUSH1 0x40 DUP2 KECCAK256 PUSH1 0x1 ADD SLOAD DUP2 SWAP1 PUSH1 0x1 PUSH1 0x70 SHL SWAP1 DIV PUSH1 0xFF AND ISZERO PUSH2 0x104A JUMPI POP PUSH1 0x0 SWAP1 POP DUP1 PUSH2 0x110A JUMP JUMPDEST ADDRESS PUSH1 0x1 PUSH1 0x1 PUSH1 0xA0 SHL SUB DUP7 AND SUB PUSH2 0x10A6 JUMPI PUSH1 0x40 DUP1 MLOAD PUSH1 0x1 PUSH1 0x1 PUSH1 0xA0 SHL SUB DUP7 AND PUSH1 0x20 DUP1 DUP4 ADD SWAP2 SWAP1 SWAP2 MSTORE PUSH1 0x1 PUSH1 0x1 PUSH1 0xE0 SHL SUB NOT DUP7 AND DUP3 DUP5 ADD MSTORE DUP3 MLOAD DUP1 DUP4 SUB DUP5 ADD DUP2 MSTORE PUSH1 0x60 SWAP1 SWAP3 ADD SWAP1 SWAP3 MSTORE DUP1 MLOAD SWAP2 ADD KECCAK256 PUSH1 0x3 SLOAD EQ JUMPDEST PUSH1 0x0 SWAP2 POP SWAP2 POP PUSH2 0x110A JUMP JUMPDEST PUSH1 0x1 PUSH1 0x1 PUSH1 0xA0 SHL SUB DUP5 AND PUSH1 0x0 SWAP1 DUP2 MSTORE PUSH1 0x20 DUP2 DUP2 MSTORE PUSH1 0x40 DUP1 DUP4 KECCAK256 PUSH1 0x1 PUSH1 0x1 PUSH1 0xE0 SHL SUB NOT DUP8 AND DUP5 MSTORE SWAP1 SWAP2 MSTORE DUP2 KECCAK256 SLOAD PUSH1 0x1 PUSH1 0x1 PUSH1 0x40 SHL SUB AND SWAP1 DUP1 PUSH2 0x10E7 DUP4 DUP10 PUSH2 0x1160 JUMP JUMPDEST SWAP2 POP SWAP2 POP DUP2 PUSH2 0x10F8 JUMPI PUSH1 0x0 DUP1 PUSH2 0x1102 JUMP JUMPDEST PUSH4 0xFFFFFFFF DUP2 AND ISZERO DUP2 JUMPDEST SWAP5 POP SWAP5 POP POP POP POP JUMPDEST SWAP4 POP SWAP4 SWAP2 POP POP JUMP JUMPDEST PUSH2 0x111A PUSH2 0x155C JUMP JUMPDEST PUSH2 0x1124 DUP3 DUP3 PUSH2 0x2027 JUMP JUMPDEST POP POP POP JUMP JUMPDEST PUSH1 0x0 PUSH2 0x1136 PUSH1 0x0 CALLER PUSH2 0x1160 JUMP JUMPDEST POP SWAP1 POP DUP1 PUSH2 0x1157 JUMPI PUSH1 0x40 MLOAD PUSH4 0x55098F27 PUSH1 0xE0 SHL DUP2 MSTORE PUSH1 0x4 ADD PUSH1 0x40 MLOAD DUP1 SWAP2 SUB SWAP1 REVERT JUMPDEST PUSH2 0x9E8 DUP3 PUSH2 0x2121 JUMP JUMPDEST PUSH1 0x0 DUP1 PUSH8 0xFFFFFFFFFFFFFFFE NOT PUSH1 0x1 PUSH1 0x1 PUSH1 0x40 SHL SUB DUP6 AND ADD PUSH2 0x1188 JUMPI POP PUSH1 0x1 SWAP1 POP PUSH1 0x0 PUSH2 0x11D6 JUMP JUMPDEST PUSH1 0x0 DUP1 PUSH2 0x1195 DUP7 DUP7 PUSH2 0xC61 JUMP JUMPDEST POP POP SWAP2 POP SWAP2 POP DUP2 PUSH6 0xFFFFFFFFFFFF AND PUSH1 0x0 EQ ISZERO DUP1 ISZERO PUSH2 0x11CB JUMPI POP PUSH2 0x11B7 PUSH2 0x2163 JUMP JUMPDEST PUSH6 0xFFFFFFFFFFFF AND DUP3 PUSH6 0xFFFFFFFFFFFF AND GT ISZERO JUMPDEST SWAP4 POP SWAP2 POP PUSH2 0x11D6 SWAP1 POP JUMP JUMPDEST SWAP3 POP SWAP3 SWAP1 POP JUMP JUMPDEST PUSH2 0x11E5 PUSH2 0x155C JUMP JUMPDEST PUSH2 0x9E8 DUP3 DUP3 PUSH2 0x216E JUMP JUMPDEST PUSH1 0x0 CALLER DUP2 PUSH2 0x11FD DUP6 DUP6 PUSH2 0x177C JUMP JUMPDEST SWAP1 POP PUSH1 0x0 PUSH2 0x120D DUP9 DUP9 DUP9 DUP9 PUSH2 0xEE7 JUMP JUMPDEST PUSH1 0x0 DUP2 DUP2 MSTORE PUSH1 0x2 PUSH1 0x20 MSTORE PUSH1 0x40 DUP2 KECCAK256 SLOAD SWAP2 SWAP3 POP PUSH6 0xFFFFFFFFFFFF SWAP1 SWAP2 AND SWAP1 SUB PUSH2 0x124B JUMPI PUSH1 0x40 MLOAD PUSH4 0x60A299B PUSH1 0xE4 SHL DUP2 MSTORE PUSH1 0x4 DUP2 ADD DUP3 SWAP1 MSTORE PUSH1 0x24 ADD PUSH2 0xAC4 JUMP JUMPDEST DUP3 PUSH1 0x1 PUSH1 0x1 PUSH1 0xA0 SHL SUB AND DUP9 PUSH1 0x1 PUSH1 0x1 PUSH1 0xA0 SHL SUB AND EQ PUSH2 0x1319 JUMPI PUSH1 0x0 PUSH2 0x1271 PUSH1 0x0 DUP6 PUSH2 0x1160 JUMP JUMPDEST POP PUSH1 0x1 PUSH1 0x1 PUSH1 0xA0 SHL SUB DUP10 AND PUSH1 0x0 SWAP1 DUP2 MSTORE PUSH1 0x20 DUP2 DUP2 MSTORE PUSH1 0x40 DUP1 DUP4 KECCAK256 PUSH1 0x1 PUSH1 0x1 PUSH1 0xE0 SHL SUB NOT DUP9 AND DUP5 MSTORE SWAP1 SWAP2 MSTORE DUP2 KECCAK256 SLOAD SWAP2 SWAP3 POP SWAP1 PUSH2 0x12BE SWAP1 PUSH2 0x12B8 SWAP1 PUSH1 0x1 PUSH1 0x1 PUSH1 0x40 SHL SUB AND PUSH2 0x2FD JUMP JUMPDEST DUP7 PUSH2 0x1160 JUMP JUMPDEST POP SWAP1 POP DUP2 ISZERO DUP1 ISZERO PUSH2 0x12CD JUMPI POP DUP1 ISZERO JUMPDEST ISZERO PUSH2 0x1316 JUMPI PUSH1 0x40 MLOAD PUSH4 0xFF89D47 PUSH1 0xE2 SHL DUP2 MSTORE PUSH1 0x1 PUSH1 0x1 PUSH1 0xA0 SHL SUB DUP1 DUP8 AND PUSH1 0x4 DUP4 ADD MSTORE DUP1 DUP13 AND PUSH1 0x24 DUP4 ADD MSTORE DUP11 AND PUSH1 0x44 DUP3 ADD MSTORE PUSH1 0x1 PUSH1 0x1 PUSH1 0xE0 SHL SUB NOT DUP6 AND PUSH1 0x64 DUP3 ADD MSTORE PUSH1 0x84 ADD PUSH2 0xAC4 JUMP JUMPDEST POP POP JUMPDEST PUSH1 0x0 DUP2 DUP2 MSTORE PUSH1 0x2 PUSH1 0x20 MSTORE PUSH1 0x40 DUP1 DUP3 KECCAK256 DUP1 SLOAD PUSH6 0xFFFFFFFFFFFF NOT AND SWAP1 DUP2 SWAP1 SSTORE SWAP1 MLOAD PUSH7 0x1000000000000 SWAP1 SWAP2 DIV PUSH4 0xFFFFFFFF AND SWAP2 DUP3 SWAP2 DUP5 SWAP2 PUSH32 0xBD9AC67A6E2F6463B80927326310338BCBB4BDB7936CE1365EA3E01067E7B9F7 SWAP2 LOG3 SWAP9 SWAP8 POP POP POP POP POP POP POP POP JUMP JUMPDEST PUSH1 0x0 PUSH2 0x138A PUSH1 0x4 PUSH2 0x1BBE JUMP JUMPDEST DUP3 LT PUSH2 0x13AC JUMPI PUSH1 0x40 MLOAD PUSH4 0x5F7644F9 PUSH1 0xE0 SHL DUP2 MSTORE PUSH1 0x4 DUP2 ADD DUP4 SWAP1 MSTORE PUSH1 0x24 ADD PUSH2 0xAC4 JUMP JUMPDEST PUSH2 0x9D0 PUSH1 0x4 DUP4 PUSH2 0x222B JUMP JUMPDEST PUSH1 0x0 PUSH1 0x1 PUSH1 0x1 PUSH1 0xA0 SHL SUB DUP3 AND PUSH2 0x13E0 JUMPI PUSH1 0x40 MLOAD PUSH4 0x7138356F PUSH1 0xE0 SHL DUP2 MSTORE PUSH1 0x4 ADD PUSH1 0x40 MLOAD DUP1 SWAP2 SUB SWAP1 REVERT JUMPDEST PUSH2 0x9D0 PUSH1 0x4 DUP4 PUSH2 0x2237 JUMP JUMPDEST PUSH1 0x0 DUP1 CALLER DUP2 PUSH2 0x13FC DUP3 DUP10 DUP10 DUP10 PUSH2 0x1729 JUMP JUMPDEST SWAP2 POP POP PUSH1 0x0 DUP2 PUSH4 0xFFFFFFFF AND PUSH2 0x1410 PUSH2 0x2163 JUMP JUMPDEST PUSH2 0x141A SWAP2 SWAP1 PUSH2 0x30CE JUMP JUMPDEST SWAP1 POP PUSH4 0xFFFFFFFF DUP3 AND ISZERO DUP1 PUSH2 0x1451 JUMPI POP PUSH1 0x0 DUP7 PUSH6 0xFFFFFFFFFFFF AND GT DUP1 ISZERO PUSH2 0x1451 JUMPI POP DUP1 PUSH6 0xFFFFFFFFFFFF AND DUP7 PUSH6 0xFFFFFFFFFFFF AND LT JUMPDEST ISZERO PUSH2 0x1462 JUMPI DUP3 DUP10 PUSH2 0xA8B DUP11 DUP11 PUSH2 0x177C JUMP JUMPDEST PUSH2 0x147C DUP7 PUSH6 0xFFFFFFFFFFFF AND DUP3 PUSH6 0xFFFFFFFFFFFF AND PUSH2 0x2259 JUMP JUMPDEST SWAP6 POP PUSH2 0x148A DUP4 DUP11 DUP11 DUP11 PUSH2 0xEE7 JUMP JUMPDEST SWAP5 POP PUSH2 0x1495 DUP6 PUSH2 0x226F JUMP JUMPDEST PUSH1 0x0 DUP6 DUP2 MSTORE PUSH1 0x2 PUSH1 0x20 MSTORE PUSH1 0x40 SWAP1 DUP2 SWAP1 KECCAK256 DUP1 SLOAD PUSH6 0xFFFFFFFFFFFF DUP10 AND PUSH10 0xFFFFFFFFFFFFFFFFFFFF NOT DUP3 AND OR PUSH7 0x1000000000000 SWAP2 DUP3 SWAP1 DIV PUSH4 0xFFFFFFFF SWAP1 DUP2 AND PUSH1 0x1 ADD SWAP1 DUP2 AND SWAP3 DUP4 MUL SWAP2 SWAP1 SWAP2 OR SWAP1 SWAP3 SSTORE SWAP2 MLOAD SWAP1 SWAP6 POP DUP7 SWAP1 PUSH32 0x82A2DA5DEE54EA8021C6545B4444620291E07EE83BE6DD57EDB175062715F3B4 SWAP1 PUSH2 0x151F SWAP1 DUP11 SWAP1 DUP9 SWAP1 DUP16 SWAP1 DUP16 SWAP1 DUP16 SWAP1 PUSH2 0x30ED JUMP JUMPDEST PUSH1 0x40 MLOAD DUP1 SWAP2 SUB SWAP1 LOG3 POP POP POP SWAP5 POP SWAP5 SWAP3 POP POP POP JUMP JUMPDEST PUSH1 0x1 PUSH1 0x1 PUSH1 0xA0 SHL SUB DUP2 AND CALLER EQ PUSH2 0x111A JUMPI PUSH1 0x40 MLOAD PUSH4 0x5F159E63 PUSH1 0xE0 SHL DUP2 MSTORE PUSH1 0x4 ADD PUSH1 0x40 MLOAD DUP1 SWAP2 SUB SWAP1 REVERT JUMPDEST CALLER PUSH1 0x0 DUP1 PUSH2 0x156B DUP4 DUP3 CALLDATASIZE PUSH2 0x22BC JUMP JUMPDEST SWAP2 POP SWAP2 POP DUP2 PUSH2 0x1124 JUMPI DUP1 PUSH4 0xFFFFFFFF AND PUSH1 0x0 SUB PUSH2 0x15C7 JUMPI PUSH1 0x0 PUSH2 0x158E DUP2 CALLDATASIZE PUSH2 0x23B5 JUMP JUMPDEST POP PUSH1 0x40 MLOAD PUSH4 0xF07E038F PUSH1 0xE0 SHL DUP2 MSTORE PUSH1 0x1 PUSH1 0x1 PUSH1 0xA0 SHL SUB DUP8 AND PUSH1 0x4 DUP3 ADD MSTORE PUSH1 0x1 PUSH1 0x1 PUSH1 0x40 SHL SUB DUP3 AND PUSH1 0x24 DUP3 ADD MSTORE SWAP1 SWAP3 POP PUSH1 0x44 ADD SWAP1 POP PUSH2 0xAC4 JUMP JUMPDEST PUSH2 0xBDC PUSH2 0xEC4 DUP5 ADDRESS PUSH1 0x0 CALLDATASIZE PUSH2 0xEE7 JUMP JUMPDEST PUSH1 0x1 PUSH1 0x1 PUSH1 0xA0 SHL SUB DUP4 AND PUSH1 0x0 DUP2 DUP2 MSTORE PUSH1 0x20 DUP2 DUP2 MSTORE PUSH1 0x40 DUP1 DUP4 KECCAK256 PUSH1 0x1 PUSH1 0x1 PUSH1 0xE0 SHL SUB NOT DUP8 AND DUP1 DUP6 MSTORE SWAP1 DUP4 MSTORE SWAP3 DUP2 SWAP1 KECCAK256 DUP1 SLOAD PUSH8 0xFFFFFFFFFFFFFFFF NOT AND PUSH1 0x1 PUSH1 0x1 PUSH1 0x40 SHL SUB DUP8 AND SWAP1 DUP2 OR SWAP1 SWAP2 SSTORE SWAP1 MLOAD SWAP3 DUP4 MSTORE SWAP3 SWAP2 PUSH32 0x9EA6790C7DADFD01C9F8B9762B3682607AF2C7E79E05A9F9FDF5580DDE949151 SWAP2 ADD PUSH1 0x40 MLOAD DUP1 SWAP2 SUB SWAP1 LOG3 POP POP POP JUMP JUMPDEST PUSH1 0x0 DUP1 PUSH2 0x166E DUP4 PUSH1 0x1 PUSH1 0x1 PUSH1 0x70 SHL SUB AND PUSH2 0x1C83 JUMP JUMPDEST POP SWAP1 SWAP5 SWAP4 POP POP POP POP JUMP JUMPDEST ADDRESS PUSH1 0x1 PUSH1 0x1 PUSH1 0xA0 SHL SUB DUP4 AND SUB PUSH2 0x16AC JUMPI PUSH1 0x40 MLOAD PUSH4 0xB40D179 PUSH1 0xE3 SHL DUP2 MSTORE PUSH1 0x1 PUSH1 0x1 PUSH1 0xA0 SHL SUB DUP4 AND PUSH1 0x4 DUP3 ADD MSTORE PUSH1 0x24 ADD PUSH2 0xAC4 JUMP JUMPDEST PUSH1 0x1 PUSH1 0x1 PUSH1 0xA0 SHL SUB DUP3 AND PUSH1 0x0 DUP2 DUP2 MSTORE PUSH1 0x20 DUP2 SWAP1 MSTORE PUSH1 0x40 SWAP1 DUP2 SWAP1 KECCAK256 PUSH1 0x1 ADD DUP1 SLOAD DUP5 ISZERO ISZERO PUSH1 0x1 PUSH1 0x70 SHL MUL PUSH15 0xFF0000000000000000000000000000 NOT SWAP1 SWAP2 AND OR SWAP1 SSTORE MLOAD PUSH32 0x90D4E7BB7E5D933792B3562E1741306F8BE94837E1348DACEF9B6F1DF56EB138 SWAP1 PUSH2 0x171D SWAP1 DUP5 ISZERO ISZERO DUP2 MSTORE PUSH1 0x20 ADD SWAP1 JUMP JUMPDEST PUSH1 0x40 MLOAD DUP1 SWAP2 SUB SWAP1 LOG2 POP POP JUMP JUMPDEST PUSH1 0x0 DUP1 ADDRESS PUSH1 0x1 PUSH1 0x1 PUSH1 0xA0 SHL SUB DUP7 AND SUB PUSH2 0x1750 JUMPI PUSH2 0x1747 DUP7 DUP6 DUP6 PUSH2 0x22BC JUMP JUMPDEST SWAP2 POP SWAP2 POP PUSH2 0x1773 JUMP JUMPDEST PUSH1 0x4 DUP4 LT PUSH2 0x176C JUMPI PUSH2 0x1767 DUP7 DUP7 PUSH2 0x7B7 DUP8 DUP8 PUSH2 0x177C JUMP JUMPDEST PUSH2 0x1747 JUMP JUMPDEST POP PUSH1 0x0 SWAP1 POP DUP1 JUMPDEST SWAP5 POP SWAP5 SWAP3 POP POP POP JUMP JUMPDEST PUSH1 0x0 PUSH2 0x178B PUSH1 0x4 DUP3 DUP5 DUP7 PUSH2 0x3021 JUMP JUMPDEST PUSH2 0xBB9 SWAP2 PUSH2 0x3133 JUMP JUMPDEST PUSH1 0x0 DUP2 DUP2 MSTORE PUSH1 0x2 PUSH1 0x20 MSTORE PUSH1 0x40 DUP2 KECCAK256 SLOAD PUSH6 0xFFFFFFFFFFFF DUP2 AND SWAP1 PUSH7 0x1000000000000 SWAP1 DIV PUSH4 0xFFFFFFFF AND DUP2 DUP4 SUB PUSH2 0x17E0 JUMPI PUSH1 0x40 MLOAD PUSH4 0x60A299B PUSH1 0xE4 SHL DUP2 MSTORE PUSH1 0x4 DUP2 ADD DUP6 SWAP1 MSTORE PUSH1 0x24 ADD PUSH2 0xAC4 JUMP JUMPDEST PUSH2 0x17E8 PUSH2 0x2163 JUMP JUMPDEST PUSH6 0xFFFFFFFFFFFF AND DUP3 PUSH6 0xFFFFFFFFFFFF AND GT ISZERO PUSH2 0x181B JUMPI PUSH1 0x40 MLOAD PUSH4 0xC65B5BD PUSH1 0xE1 SHL DUP2 MSTORE PUSH1 0x4 DUP2 ADD DUP6 SWAP1 MSTORE PUSH1 0x24 ADD PUSH2 0xAC4 JUMP JUMPDEST PUSH2 0x1824 DUP3 PUSH2 0x1D4A JUMP JUMPDEST ISZERO PUSH2 0x1845 JUMPI PUSH1 0x40 MLOAD PUSH4 0x1E2975B9 PUSH1 0xE2 SHL DUP2 MSTORE PUSH1 0x4 DUP2 ADD DUP6 SWAP1 MSTORE PUSH1 0x24 ADD PUSH2 0xAC4 JUMP JUMPDEST PUSH1 0x0 DUP5 DUP2 MSTORE PUSH1 0x2 PUSH1 0x20 MSTORE PUSH1 0x40 DUP1 DUP3 KECCAK256 DUP1 SLOAD PUSH6 0xFFFFFFFFFFFF NOT AND SWAP1 SSTORE MLOAD PUSH4 0xFFFFFFFF DUP4 AND SWAP2 DUP7 SWAP2 PUSH32 0x76A2A46953689D4861A5D3F6ED883AD7E6AF674A21F8E162707159FC9DDE614D SWAP2 SWAP1 LOG3 SWAP4 SWAP3 POP POP POP JUMP JUMPDEST PUSH1 0x60 DUP2 SELFBALANCE LT ISZERO PUSH2 0x18BC JUMPI PUSH1 0x40 MLOAD PUSH4 0xCD786059 PUSH1 0xE0 SHL DUP2 MSTORE ADDRESS PUSH1 0x4 DUP3 ADD MSTORE PUSH1 0x24 ADD PUSH2 0xAC4 JUMP JUMPDEST PUSH1 0x0 DUP1 DUP6 PUSH1 0x1 PUSH1 0x1 PUSH1 0xA0 SHL SUB AND DUP5 DUP7 PUSH1 0x40 MLOAD PUSH2 0x18D8 SWAP2 SWAP1 PUSH2 0x3161 JUMP JUMPDEST PUSH1 0x0 PUSH1 0x40 MLOAD DUP1 DUP4 SUB DUP2 DUP6 DUP8 GAS CALL SWAP3 POP POP POP RETURNDATASIZE DUP1 PUSH1 0x0 DUP2 EQ PUSH2 0x1915 JUMPI PUSH1 0x40 MLOAD SWAP2 POP PUSH1 0x1F NOT PUSH1 0x3F RETURNDATASIZE ADD AND DUP3 ADD PUSH1 0x40 MSTORE RETURNDATASIZE DUP3 MSTORE RETURNDATASIZE PUSH1 0x0 PUSH1 0x20 DUP5 ADD RETURNDATACOPY PUSH2 0x191A JUMP JUMPDEST PUSH1 0x60 SWAP2 POP JUMPDEST POP SWAP2 POP SWAP2 POP PUSH2 0x192A DUP7 DUP4 DUP4 PUSH2 0x259E JUMP JUMPDEST SWAP7 SWAP6 POP POP POP POP POP POP JUMP JUMPDEST PUSH1 0x0 PUSH8 0xFFFFFFFFFFFFFFFE NOT PUSH1 0x1 PUSH1 0x1 PUSH1 0x40 SHL SUB DUP7 AND ADD PUSH2 0x1973 JUMPI PUSH1 0x40 MLOAD PUSH4 0x61C6A43 PUSH1 0xE2 SHL DUP2 MSTORE PUSH1 0x1 PUSH1 0x1 PUSH1 0x40 SHL SUB DUP7 AND PUSH1 0x4 DUP3 ADD MSTORE PUSH1 0x24 ADD PUSH2 0xAC4 JUMP JUMPDEST PUSH1 0x1 PUSH1 0x1 PUSH1 0x40 SHL SUB DUP6 AND PUSH1 0x0 SWAP1 DUP2 MSTORE PUSH1 0x1 PUSH1 0x20 SWAP1 DUP2 MSTORE PUSH1 0x40 DUP1 DUP4 KECCAK256 PUSH1 0x1 PUSH1 0x1 PUSH1 0xA0 SHL SUB DUP9 AND DUP5 MSTORE SWAP1 SWAP2 MSTORE DUP2 KECCAK256 SLOAD PUSH6 0xFFFFFFFFFFFF AND ISZERO SWAP1 DUP2 ISZERO PUSH2 0x1A75 JUMPI DUP5 PUSH4 0xFFFFFFFF AND PUSH2 0x19BF PUSH2 0x2163 JUMP JUMPDEST PUSH2 0x19C9 SWAP2 SWAP1 PUSH2 0x30CE JUMP JUMPDEST SWAP1 POP PUSH1 0x40 MLOAD DUP1 PUSH1 0x40 ADD PUSH1 0x40 MSTORE DUP1 DUP3 PUSH6 0xFFFFFFFFFFFF AND DUP2 MSTORE PUSH1 0x20 ADD PUSH2 0x19F7 DUP7 PUSH4 0xFFFFFFFF AND PUSH4 0xFFFFFFFF AND SWAP1 JUMP JUMPDEST PUSH1 0x1 PUSH1 0x1 PUSH1 0x70 SHL SUB SWAP1 DUP2 AND SWAP1 SWAP2 MSTORE PUSH1 0x1 PUSH1 0x1 PUSH1 0x40 SHL SUB DUP10 AND PUSH1 0x0 SWAP1 DUP2 MSTORE PUSH1 0x1 PUSH1 0x20 SWAP1 DUP2 MSTORE PUSH1 0x40 DUP1 DUP4 KECCAK256 PUSH1 0x1 PUSH1 0x1 PUSH1 0xA0 SHL SUB DUP13 AND DUP5 MSTORE DUP3 MSTORE SWAP1 SWAP2 KECCAK256 DUP4 MLOAD DUP2 SLOAD SWAP5 SWAP1 SWAP3 ADD MLOAD SWAP1 SWAP3 AND PUSH7 0x1000000000000 MUL PUSH20 0xFFFFFFFFFFFFFFFFFFFFFFFFFFFFFFFFFFFFFFFF NOT SWAP1 SWAP4 AND PUSH6 0xFFFFFFFFFFFF SWAP1 SWAP2 AND OR SWAP2 SWAP1 SWAP2 OR SWAP1 SSTORE PUSH2 0x1B32 JUMP JUMPDEST PUSH1 0x1 PUSH1 0x1 PUSH1 0x40 SHL SUB DUP8 AND PUSH1 0x0 SWAP1 DUP2 MSTORE PUSH1 0x1 PUSH1 0x20 SWAP1 DUP2 MSTORE PUSH1 0x40 DUP1 DUP4 KECCAK256 PUSH1 0x1 PUSH1 0x1 PUSH1 0xA0 SHL SUB DUP11 AND DUP5 MSTORE SWAP1 SWAP2 MSTORE DUP2 KECCAK256 SLOAD PUSH2 0x1AC2 SWAP2 PUSH7 0x1000000000000 SWAP1 SWAP2 DIV PUSH1 0x1 PUSH1 0x1 PUSH1 0x70 SHL SUB AND SWAP1 DUP7 SWAP1 PUSH2 0x25FA JUMP JUMPDEST PUSH1 0x1 PUSH1 0x1 PUSH1 0x40 SHL SUB DUP10 AND PUSH1 0x0 SWAP1 DUP2 MSTORE PUSH1 0x1 PUSH1 0x20 SWAP1 DUP2 MSTORE PUSH1 0x40 DUP1 DUP4 KECCAK256 PUSH1 0x1 PUSH1 0x1 PUSH1 0xA0 SHL SUB DUP13 AND DUP5 MSTORE SWAP1 SWAP2 MSTORE SWAP1 KECCAK256 DUP1 SLOAD PUSH1 0x1 PUSH1 0x1 PUSH1 0x70 SHL SUB SWAP1 SWAP4 AND PUSH7 0x1000000000000 MUL PUSH32 0xFFFFFFFFFFFFFFFFFFFFFFFF0000000000000000000000000000FFFFFFFFFFFF SWAP1 SWAP4 AND SWAP3 SWAP1 SWAP3 OR SWAP1 SWAP2 SSTORE SWAP1 POP JUMPDEST PUSH1 0x40 DUP1 MLOAD PUSH4 0xFFFFFFFF DUP7 AND DUP2 MSTORE PUSH6 0xFFFFFFFFFFFF DUP4 AND PUSH1 0x20 DUP3 ADD MSTORE DUP4 ISZERO ISZERO DUP2 DUP4 ADD MSTORE SWAP1 MLOAD PUSH1 0x1 PUSH1 0x1 PUSH1 0xA0 SHL SUB DUP9 AND SWAP2 PUSH1 0x1 PUSH1 0x1 PUSH1 0x40 SHL SUB DUP11 AND SWAP2 PUSH32 0xF98448B987F1428E0E230E1F3C6E2CE15B5693EAF31827FBD0B1EC4B424AE7CF SWAP2 DUP2 SWAP1 SUB PUSH1 0x60 ADD SWAP1 LOG3 POP SWAP6 SWAP5 POP POP POP POP POP JUMP JUMPDEST PUSH2 0x1BAB PUSH1 0x4 DUP3 PUSH2 0x2237 JUMP JUMPDEST ISZERO PUSH2 0x1BBB JUMPI PUSH2 0x9E8 PUSH1 0x4 DUP3 PUSH2 0x26A4 JUMP JUMPDEST POP JUMP JUMPDEST PUSH1 0x0 PUSH2 0x9D0 DUP3 SLOAD SWAP1 JUMP JUMPDEST PUSH1 0x1 PUSH1 0x1 PUSH1 0xA0 SHL SUB DUP2 AND PUSH2 0x1BEF JUMPI PUSH1 0x40 MLOAD PUSH4 0xD27509D1 PUSH1 0xE0 SHL DUP2 MSTORE PUSH1 0x4 ADD PUSH1 0x40 MLOAD DUP1 SWAP2 SUB SWAP1 REVERT JUMPDEST PUSH1 0x0 PUSH2 0x1BFB PUSH1 0x4 PUSH2 0x1BBE JUMP JUMPDEST SWAP1 POP PUSH1 0x0 JUMPDEST DUP2 DUP2 LT ISZERO PUSH2 0x1124 JUMPI PUSH2 0x1C13 PUSH1 0x4 DUP3 PUSH2 0x222B JUMP JUMPDEST PUSH1 0x40 MLOAD PUSH4 0x7A9E5E4B PUSH1 0xE0 SHL DUP2 MSTORE PUSH1 0x1 PUSH1 0x1 PUSH1 0xA0 SHL SUB DUP6 DUP2 AND PUSH1 0x4 DUP4 ADD MSTORE SWAP2 SWAP1 SWAP2 AND SWAP1 PUSH4 0x7A9E5E4B SWAP1 PUSH1 0x24 ADD PUSH1 0x0 PUSH1 0x40 MLOAD DUP1 DUP4 SUB DUP2 PUSH1 0x0 DUP8 DUP1 EXTCODESIZE ISZERO DUP1 ISZERO PUSH2 0x1C58 JUMPI PUSH1 0x0 DUP1 REVERT JUMPDEST POP GAS CALL ISZERO DUP1 ISZERO PUSH2 0x1C6C JUMPI RETURNDATASIZE PUSH1 0x0 DUP1 RETURNDATACOPY RETURNDATASIZE PUSH1 0x0 REVERT JUMPDEST POP POP POP POP DUP1 DUP1 PUSH2 0x1C7B SWAP1 PUSH2 0x2F66 JUMP JUMPDEST SWAP2 POP POP PUSH2 0x1C00 JUMP JUMPDEST PUSH1 0x0 DUP1 PUSH1 0x0 PUSH2 0x1C99 DUP5 PUSH2 0x1C94 PUSH2 0x2163 JUMP JUMPDEST PUSH2 0x26B9 JUMP JUMPDEST SWAP3 POP SWAP3 POP SWAP3 POP SWAP2 SWAP4 SWAP1 SWAP3 POP JUMP JUMPDEST PUSH1 0x1 PUSH1 0x1 PUSH1 0x40 SHL SUB DUP3 AND ISZERO DUP1 PUSH2 0x1CC4 JUMPI POP PUSH1 0x1 PUSH1 0x1 PUSH1 0x40 SHL SUB DUP3 DUP2 AND EQ JUMPDEST ISZERO PUSH2 0x1CED JUMPI PUSH1 0x40 MLOAD PUSH4 0x61C6A43 PUSH1 0xE2 SHL DUP2 MSTORE PUSH1 0x1 PUSH1 0x1 PUSH1 0x40 SHL SUB DUP4 AND PUSH1 0x4 DUP3 ADD MSTORE PUSH1 0x24 ADD PUSH2 0xAC4 JUMP JUMPDEST PUSH1 0x1 PUSH1 0x1 PUSH1 0x40 SHL SUB DUP3 DUP2 AND PUSH1 0x0 DUP2 DUP2 MSTORE PUSH1 0x1 PUSH1 0x20 DUP2 SWAP1 MSTORE PUSH1 0x40 DUP1 DUP4 KECCAK256 SWAP1 SWAP2 ADD DUP1 SLOAD PUSH8 0xFFFFFFFFFFFFFFFF NOT AND SWAP5 DUP7 AND SWAP5 DUP6 OR SWAP1 SSTORE MLOAD PUSH32 0x1FD6DD7631312DFAC2205B52913F99DE03B4D7E381D5D27D3DBFE0713E6E6340 SWAP2 SWAP1 LOG3 POP POP JUMP JUMPDEST PUSH1 0x0 PUSH2 0x1D54 PUSH2 0x2163 JUMP JUMPDEST PUSH6 0xFFFFFFFFFFFF AND PUSH2 0x1D69 PUSH3 0x93A80 DUP5 PUSH2 0x30CE JUMP JUMPDEST PUSH6 0xFFFFFFFFFFFF AND GT ISZERO SWAP3 SWAP2 POP POP JUMP JUMPDEST PUSH1 0x1 PUSH1 0x1 PUSH1 0x40 SHL SUB DUP3 AND ISZERO DUP1 PUSH2 0x1D97 JUMPI POP PUSH1 0x1 PUSH1 0x1 PUSH1 0x40 SHL SUB DUP3 DUP2 AND EQ JUMPDEST ISZERO PUSH2 0x1DC0 JUMPI PUSH1 0x40 MLOAD PUSH4 0x61C6A43 PUSH1 0xE2 SHL DUP2 MSTORE PUSH1 0x1 PUSH1 0x1 PUSH1 0x40 SHL SUB DUP4 AND PUSH1 0x4 DUP3 ADD MSTORE PUSH1 0x24 ADD PUSH2 0xAC4 JUMP JUMPDEST PUSH1 0x1 PUSH1 0x1 PUSH1 0x40 SHL SUB DUP3 DUP2 AND PUSH1 0x0 DUP2 DUP2 MSTORE PUSH1 0x1 PUSH1 0x20 DUP2 SWAP1 MSTORE PUSH1 0x40 DUP1 DUP4 KECCAK256 SWAP1 SWAP2 ADD DUP1 SLOAD PUSH16 0xFFFFFFFFFFFFFFFF0000000000000000 NOT AND PUSH9 0x10000000000000000 SWAP6 DUP8 AND SWAP6 DUP7 MUL OR SWAP1 SSTORE MLOAD PUSH32 0x7A8059630B897B5DE4C08ADE69F8B90C3EAD1F8596D62D10B6C4D14A0AFB4AE2 SWAP2 SWAP1 LOG3 POP POP JUMP JUMPDEST PUSH1 0x0 PUSH1 0x1 PUSH1 0x1 PUSH1 0xA0 SHL SUB DUP3 AND PUSH2 0x1E59 JUMPI PUSH1 0x40 MLOAD PUSH4 0x7138356F PUSH1 0xE0 SHL DUP2 MSTORE PUSH1 0x4 ADD PUSH1 0x40 MLOAD DUP1 SWAP2 SUB SWAP1 REVERT JUMPDEST PUSH2 0x1E64 PUSH1 0x4 DUP4 PUSH2 0x2237 JUMP JUMPDEST ISZERO PUSH2 0x1E71 JUMPI POP PUSH1 0x0 SWAP2 SWAP1 POP JUMP JUMPDEST PUSH2 0x1E7C PUSH1 0x4 DUP4 PUSH2 0x270D JUMP JUMPDEST POP PUSH1 0x1 SWAP3 SWAP2 POP POP JUMP JUMPDEST PUSH1 0x60 PUSH1 0x0 PUSH2 0xBB9 DUP4 PUSH2 0x2722 JUMP JUMPDEST PUSH8 0xFFFFFFFFFFFFFFFE NOT PUSH1 0x1 PUSH1 0x1 PUSH1 0x40 SHL SUB DUP4 AND ADD PUSH2 0x1ECF JUMPI PUSH1 0x40 MLOAD PUSH4 0x61C6A43 PUSH1 0xE2 SHL DUP2 MSTORE PUSH1 0x1 PUSH1 0x1 PUSH1 0x40 SHL SUB DUP4 AND PUSH1 0x4 DUP3 ADD MSTORE PUSH1 0x24 ADD PUSH2 0xAC4 JUMP JUMPDEST PUSH1 0x1 PUSH1 0x1 PUSH1 0x40 SHL SUB DUP3 AND PUSH1 0x0 SWAP1 DUP2 MSTORE PUSH1 0x1 PUSH1 0x20 DUP2 SWAP1 MSTORE PUSH1 0x40 DUP3 KECCAK256 ADD SLOAD PUSH2 0x1F09 SWAP1 PUSH1 0x1 PUSH1 0x80 SHL SWAP1 DIV PUSH1 0x1 PUSH1 0x1 PUSH1 0x70 SHL SUB AND DUP4 PUSH3 0x69780 PUSH2 0x25FA JUMP JUMPDEST PUSH1 0x1 PUSH1 0x1 PUSH1 0x40 SHL SUB DUP6 AND PUSH1 0x0 DUP2 DUP2 MSTORE PUSH1 0x1 PUSH1 0x20 DUP2 SWAP1 MSTORE PUSH1 0x40 SWAP2 DUP3 SWAP1 KECCAK256 ADD DUP1 SLOAD PUSH1 0x1 PUSH1 0x1 PUSH1 0x70 SHL SUB SWAP1 SWAP6 AND PUSH1 0x1 PUSH1 0x80 SHL MUL PUSH32 0xFFFF0000000000000000000000000000FFFFFFFFFFFFFFFFFFFFFFFFFFFFFFFF SWAP1 SWAP6 AND SWAP5 SWAP1 SWAP5 OR SWAP1 SWAP4 SSTORE SWAP2 MLOAD SWAP1 SWAP3 POP PUSH32 0xFEB69018EE8B8FD50EA86348F1267D07673379F72CFFDECCEC63853EE8CE8B48 SWAP1 PUSH2 0xE10 SWAP1 DUP6 SWAP1 DUP6 SWAP1 PUSH4 0xFFFFFFFF SWAP3 SWAP1 SWAP3 AND DUP3 MSTORE PUSH6 0xFFFFFFFFFFFF AND PUSH1 0x20 DUP3 ADD MSTORE PUSH1 0x40 ADD SWAP1 JUMP JUMPDEST PUSH1 0x60 PUSH1 0x0 DUP1 DUP5 PUSH1 0x1 PUSH1 0x1 PUSH1 0xA0 SHL SUB AND DUP5 PUSH1 0x40 MLOAD PUSH2 0x1FCE SWAP2 SWAP1 PUSH2 0x3161 JUMP JUMPDEST PUSH1 0x0 PUSH1 0x40 MLOAD DUP1 DUP4 SUB DUP2 DUP6 GAS DELEGATECALL SWAP2 POP POP RETURNDATASIZE DUP1 PUSH1 0x0 DUP2 EQ PUSH2 0x2009 JUMPI PUSH1 0x40 MLOAD SWAP2 POP PUSH1 0x1F NOT PUSH1 0x3F RETURNDATASIZE ADD AND DUP3 ADD PUSH1 0x40 MSTORE RETURNDATASIZE DUP3 MSTORE RETURNDATASIZE PUSH1 0x0 PUSH1 0x20 DUP5 ADD RETURNDATACOPY PUSH2 0x200E JUMP JUMPDEST PUSH1 0x60 SWAP2 POP JUMPDEST POP SWAP2 POP SWAP2 POP PUSH2 0x201E DUP6 DUP4 DUP4 PUSH2 0x259E JUMP JUMPDEST SWAP6 SWAP5 POP POP POP POP POP JUMP JUMPDEST PUSH1 0x0 PUSH8 0xFFFFFFFFFFFFFFFE NOT PUSH1 0x1 PUSH1 0x1 PUSH1 0x40 SHL SUB DUP5 AND ADD PUSH2 0x2066 JUMPI PUSH1 0x40 MLOAD PUSH4 0x61C6A43 PUSH1 0xE2 SHL DUP2 MSTORE PUSH1 0x1 PUSH1 0x1 PUSH1 0x40 SHL SUB DUP5 AND PUSH1 0x4 DUP3 ADD MSTORE PUSH1 0x24 ADD PUSH2 0xAC4 JUMP JUMPDEST PUSH1 0x1 PUSH1 0x1 PUSH1 0x40 SHL SUB DUP4 AND PUSH1 0x0 SWAP1 DUP2 MSTORE PUSH1 0x1 PUSH1 0x20 SWAP1 DUP2 MSTORE PUSH1 0x40 DUP1 DUP4 KECCAK256 PUSH1 0x1 PUSH1 0x1 PUSH1 0xA0 SHL SUB DUP7 AND DUP5 MSTORE SWAP1 SWAP2 MSTORE DUP2 KECCAK256 SLOAD PUSH6 0xFFFFFFFFFFFF AND SWAP1 SUB PUSH2 0x20A9 JUMPI POP PUSH1 0x0 PUSH2 0x9D0 JUMP JUMPDEST PUSH1 0x1 PUSH1 0x1 PUSH1 0x40 SHL SUB DUP4 AND PUSH1 0x0 DUP2 DUP2 MSTORE PUSH1 0x1 PUSH1 0x20 SWAP1 DUP2 MSTORE PUSH1 0x40 DUP1 DUP4 KECCAK256 PUSH1 0x1 PUSH1 0x1 PUSH1 0xA0 SHL SUB DUP8 AND DUP1 DUP6 MSTORE SWAP3 MSTORE DUP1 DUP4 KECCAK256 DUP1 SLOAD PUSH20 0xFFFFFFFFFFFFFFFFFFFFFFFFFFFFFFFFFFFFFFFF NOT AND SWAP1 SSTORE MLOAD SWAP1 SWAP3 SWAP2 PUSH32 0xF229BAA593AF28C41B1D16B748CD7688F0C83AAF92D4BE41C44005DEFE84C166 SWAP2 LOG3 POP PUSH1 0x1 SWAP3 SWAP2 POP POP JUMP JUMPDEST PUSH2 0x212B PUSH1 0x4 PUSH2 0x1BBE JUMP JUMPDEST DUP2 LT PUSH2 0x214D JUMPI PUSH1 0x40 MLOAD PUSH4 0x5F7644F9 PUSH1 0xE0 SHL DUP2 MSTORE PUSH1 0x4 DUP2 ADD DUP3 SWAP1 MSTORE PUSH1 0x24 ADD PUSH2 0xAC4 JUMP JUMPDEST PUSH2 0x9E8 PUSH2 0x215B PUSH1 0x4 DUP4 PUSH2 0x222B JUMP JUMPDEST PUSH1 0x4 SWAP1 PUSH2 0x26A4 JUMP JUMPDEST PUSH1 0x0 PUSH2 0xC25 TIMESTAMP PUSH2 0x277E JUMP JUMPDEST PUSH1 0x1 PUSH1 0x1 PUSH1 0xA0 SHL SUB DUP3 AND PUSH1 0x0 SWAP1 DUP2 MSTORE PUSH1 0x20 DUP2 SWAP1 MSTORE PUSH1 0x40 DUP2 KECCAK256 PUSH1 0x1 ADD SLOAD PUSH2 0x21A1 SWAP1 PUSH1 0x1 PUSH1 0x1 PUSH1 0x70 SHL SUB AND DUP4 PUSH3 0x69780 PUSH2 0x25FA JUMP JUMPDEST PUSH1 0x1 PUSH1 0x1 PUSH1 0xA0 SHL SUB DUP6 AND PUSH1 0x0 DUP2 DUP2 MSTORE PUSH1 0x20 DUP2 DUP2 MSTORE PUSH1 0x40 SWAP2 DUP3 SWAP1 KECCAK256 PUSH1 0x1 ADD DUP1 SLOAD PUSH14 0xFFFFFFFFFFFFFFFFFFFFFFFFFFFF NOT AND PUSH1 0x1 PUSH1 0x1 PUSH1 0x70 SHL SUB SWAP7 SWAP1 SWAP7 AND SWAP6 SWAP1 SWAP6 OR SWAP1 SWAP5 SSTORE DUP1 MLOAD PUSH4 0xFFFFFFFF DUP8 AND DUP2 MSTORE PUSH6 0xFFFFFFFFFFFF DUP5 AND SWAP5 DUP2 ADD SWAP5 SWAP1 SWAP5 MSTORE SWAP2 SWAP4 POP SWAP2 PUSH32 0xA56B76017453F399EC2327BA00375DBFB1FD070FF854341AD6191E6A2E2DE19C SWAP2 ADD PUSH2 0xE10 JUMP JUMPDEST PUSH1 0x0 PUSH2 0xBB9 DUP4 DUP4 PUSH2 0x27B5 JUMP JUMPDEST PUSH1 0x1 PUSH1 0x1 PUSH1 0xA0 SHL SUB DUP2 AND PUSH1 0x0 SWAP1 DUP2 MSTORE PUSH1 0x1 DUP4 ADD PUSH1 0x20 MSTORE PUSH1 0x40 DUP2 KECCAK256 SLOAD ISZERO ISZERO PUSH2 0xBB9 JUMP JUMPDEST PUSH1 0x0 DUP2 DUP4 GT PUSH2 0x2268 JUMPI DUP2 PUSH2 0xBB9 JUMP JUMPDEST POP SWAP1 SWAP2 SWAP1 POP JUMP JUMPDEST PUSH1 0x0 DUP2 DUP2 MSTORE PUSH1 0x2 PUSH1 0x20 MSTORE PUSH1 0x40 SWAP1 KECCAK256 SLOAD PUSH6 0xFFFFFFFFFFFF AND DUP1 ISZERO DUP1 ISZERO SWAP1 PUSH2 0x229B JUMPI POP PUSH2 0x2299 DUP2 PUSH2 0x1D4A JUMP JUMPDEST ISZERO JUMPDEST ISZERO PUSH2 0x9E8 JUMPI PUSH1 0x40 MLOAD PUSH4 0x813E9459 PUSH1 0xE0 SHL DUP2 MSTORE PUSH1 0x4 DUP2 ADD DUP4 SWAP1 MSTORE PUSH1 0x24 ADD PUSH2 0xAC4 JUMP JUMPDEST PUSH1 0x0 DUP1 PUSH1 0x4 DUP4 LT ISZERO PUSH2 0x22D3 JUMPI POP PUSH1 0x0 SWAP1 POP DUP1 PUSH2 0x110A JUMP JUMPDEST ADDRESS PUSH1 0x1 PUSH1 0x1 PUSH1 0xA0 SHL SUB DUP7 AND SUB PUSH2 0x2337 JUMPI PUSH2 0x109B ADDRESS PUSH2 0x22F1 DUP7 DUP7 PUSH2 0x177C JUMP JUMPDEST PUSH1 0x40 DUP1 MLOAD PUSH1 0x1 PUSH1 0x1 PUSH1 0xA0 SHL SUB SWAP4 SWAP1 SWAP4 AND PUSH1 0x20 DUP1 DUP6 ADD SWAP2 SWAP1 SWAP2 MSTORE PUSH1 0x1 PUSH1 0x1 PUSH1 0xE0 SHL SUB NOT SWAP3 SWAP1 SWAP3 AND DUP4 DUP3 ADD MSTORE DUP1 MLOAD DUP1 DUP5 SUB DUP3 ADD DUP2 MSTORE PUSH1 0x60 SWAP1 SWAP4 ADD SWAP1 MSTORE DUP2 MLOAD SWAP2 ADD KECCAK256 PUSH1 0x3 SLOAD EQ SWAP1 JUMP JUMPDEST PUSH1 0x0 DUP1 PUSH1 0x0 PUSH2 0x2346 DUP8 DUP8 PUSH2 0x23B5 JUMP JUMPDEST SWAP3 POP SWAP3 POP SWAP3 POP DUP3 PUSH2 0x2360 JUMPI PUSH1 0x0 DUP1 SWAP5 POP SWAP5 POP POP POP POP PUSH2 0x110A JUMP JUMPDEST PUSH1 0x0 DUP1 PUSH2 0x236D DUP5 DUP12 PUSH2 0x1160 JUMP JUMPDEST SWAP2 POP SWAP2 POP DUP2 PUSH2 0x2387 JUMPI PUSH1 0x0 DUP1 SWAP7 POP SWAP7 POP POP POP POP POP POP PUSH2 0x110A JUMP JUMPDEST PUSH2 0x239D DUP4 PUSH4 0xFFFFFFFF AND DUP3 PUSH4 0xFFFFFFFF AND PUSH2 0x2259 JUMP JUMPDEST PUSH4 0xFFFFFFFF DUP2 AND ISZERO SWAP12 SWAP1 SWAP11 POP SWAP9 POP POP POP POP POP POP POP POP POP JUMP JUMPDEST PUSH1 0x0 DUP1 DUP1 PUSH1 0x4 DUP5 LT ISZERO PUSH2 0x23D0 JUMPI POP PUSH1 0x0 SWAP2 POP DUP2 SWAP1 POP DUP1 PUSH2 0x2597 JUMP JUMPDEST PUSH1 0x0 PUSH2 0x23DC DUP7 DUP7 PUSH2 0x177C JUMP JUMPDEST SWAP1 POP PUSH1 0x1 PUSH1 0x1 PUSH1 0xE0 SHL SUB NOT DUP2 AND PUSH4 0x10A6AA37 PUSH1 0xE3 SHL EQ DUP1 PUSH2 0x240D JUMPI POP PUSH1 0x1 PUSH1 0x1 PUSH1 0xE0 SHL SUB NOT DUP2 AND PUSH4 0x30CAE187 PUSH1 0xE0 SHL EQ JUMPDEST DUP1 PUSH2 0x2428 JUMPI POP PUSH1 0x1 PUSH1 0x1 PUSH1 0xE0 SHL SUB NOT DUP2 AND PUSH4 0x294B14A9 PUSH1 0xE1 SHL EQ JUMPDEST DUP1 PUSH2 0x2443 JUMPI POP PUSH1 0x1 PUSH1 0x1 PUSH1 0xE0 SHL SUB NOT DUP2 AND PUSH4 0x5326CAE7 PUSH1 0xE1 SHL EQ JUMPDEST DUP1 PUSH2 0x245E JUMPI POP PUSH1 0x1 PUSH1 0x1 PUSH1 0xE0 SHL SUB NOT DUP2 AND PUSH4 0xD22B5989 PUSH1 0xE0 SHL EQ JUMPDEST ISZERO PUSH2 0x2474 JUMPI PUSH1 0x1 PUSH1 0x0 DUP1 SWAP4 POP SWAP4 POP SWAP4 POP POP PUSH2 0x2597 JUMP JUMPDEST PUSH1 0x1 PUSH1 0x1 PUSH1 0xE0 SHL SUB NOT DUP2 AND PUSH4 0x63FC60F PUSH1 0xE2 SHL EQ DUP1 PUSH2 0x24A3 JUMPI POP PUSH1 0x1 PUSH1 0x1 PUSH1 0xE0 SHL SUB NOT DUP2 AND PUSH4 0x167BD395 PUSH1 0xE0 SHL EQ JUMPDEST DUP1 PUSH2 0x24BE JUMPI POP PUSH1 0x1 PUSH1 0x1 PUSH1 0xE0 SHL SUB NOT DUP2 AND PUSH4 0x8D6122D PUSH1 0xE0 SHL EQ JUMPDEST ISZERO PUSH2 0x2500 JUMPI PUSH1 0x0 PUSH2 0x24D3 PUSH1 0x24 PUSH1 0x4 DUP9 DUP11 PUSH2 0x3021 JUMP JUMPDEST DUP2 ADD SWAP1 PUSH2 0x24E0 SWAP2 SWAP1 PUSH2 0x2BA1 JUMP JUMPDEST SWAP1 POP PUSH1 0x0 PUSH2 0x24ED DUP3 PUSH2 0xD0E JUMP JUMPDEST PUSH1 0x1 SWAP7 POP PUSH1 0x0 SWAP6 POP SWAP4 POP PUSH2 0x2597 SWAP3 POP POP POP JUMP JUMPDEST PUSH1 0x1 PUSH1 0x1 PUSH1 0xE0 SHL SUB NOT DUP2 AND PUSH4 0x12E238D PUSH1 0xE5 SHL EQ DUP1 PUSH2 0x252F JUMPI POP PUSH1 0x1 PUSH1 0x1 PUSH1 0xE0 SHL SUB NOT DUP2 AND PUSH4 0x5BE958B1 PUSH1 0xE1 SHL EQ JUMPDEST ISZERO PUSH2 0x258A JUMPI PUSH1 0x0 PUSH2 0x2544 PUSH1 0x24 PUSH1 0x4 DUP9 DUP11 PUSH2 0x3021 JUMP JUMPDEST DUP2 ADD SWAP1 PUSH2 0x2551 SWAP2 SWAP1 PUSH2 0x2A2C JUMP JUMPDEST SWAP1 POP PUSH1 0x1 PUSH2 0x257B DUP3 PUSH1 0x1 PUSH1 0x1 PUSH1 0x40 SHL SUB SWAP1 DUP2 AND PUSH1 0x0 SWAP1 DUP2 MSTORE PUSH1 0x1 PUSH1 0x20 DUP2 SWAP1 MSTORE PUSH1 0x40 SWAP1 SWAP2 KECCAK256 ADD SLOAD AND SWAP1 JUMP JUMPDEST PUSH1 0x0 SWAP5 POP SWAP5 POP SWAP5 POP POP POP PUSH2 0x2597 JUMP JUMPDEST PUSH1 0x0 DUP1 PUSH1 0x0 SWAP4 POP SWAP4 POP SWAP4 POP POP JUMPDEST SWAP3 POP SWAP3 POP SWAP3 JUMP JUMPDEST PUSH1 0x60 DUP3 PUSH2 0x25B3 JUMPI PUSH2 0x25AE DUP3 PUSH2 0x27DF JUMP JUMPDEST PUSH2 0xBB9 JUMP JUMPDEST DUP2 MLOAD ISZERO DUP1 ISZERO PUSH2 0x25CA JUMPI POP PUSH1 0x1 PUSH1 0x1 PUSH1 0xA0 SHL SUB DUP5 AND EXTCODESIZE ISZERO JUMPDEST ISZERO PUSH2 0x25F3 JUMPI PUSH1 0x40 MLOAD PUSH4 0x9996B315 PUSH1 0xE0 SHL DUP2 MSTORE PUSH1 0x1 PUSH1 0x1 PUSH1 0xA0 SHL SUB DUP6 AND PUSH1 0x4 DUP3 ADD MSTORE PUSH1 0x24 ADD PUSH2 0xAC4 JUMP JUMPDEST POP DUP1 PUSH2 0xBB9 JUMP JUMPDEST PUSH1 0x0 DUP1 PUSH1 0x0 PUSH2 0x2611 DUP7 PUSH1 0x1 PUSH1 0x1 PUSH1 0x70 SHL SUB AND PUSH2 0x1659 JUMP JUMPDEST SWAP1 POP PUSH1 0x0 PUSH2 0x264E DUP6 PUSH4 0xFFFFFFFF AND DUP8 PUSH4 0xFFFFFFFF AND DUP5 PUSH4 0xFFFFFFFF AND GT PUSH2 0x2639 JUMPI PUSH1 0x0 PUSH2 0x2643 JUMP JUMPDEST PUSH2 0x2643 DUP9 DUP6 PUSH2 0x317D JUMP JUMPDEST PUSH4 0xFFFFFFFF AND PUSH2 0x2259 JUMP JUMPDEST SWAP1 POP DUP1 PUSH4 0xFFFFFFFF AND PUSH2 0x265F PUSH2 0x2163 JUMP JUMPDEST PUSH2 0x2669 SWAP2 SWAP1 PUSH2 0x30CE JUMP JUMPDEST SWAP3 POP PUSH4 0xFFFFFFFF DUP7 AND PUSH1 0x20 DUP4 SWAP1 SHL PUSH8 0xFFFFFFFF00000000 AND PUSH1 0x40 DUP6 SWAP1 SHL PUSH14 0xFFFFFFFFFFFF0000000000000000 AND OR OR SWAP4 POP POP POP SWAP4 POP SWAP4 SWAP2 POP POP JUMP JUMPDEST PUSH1 0x0 PUSH2 0xBB9 DUP4 PUSH1 0x1 PUSH1 0x1 PUSH1 0xA0 SHL SUB DUP5 AND PUSH2 0x2808 JUMP JUMPDEST PUSH1 0x0 DUP1 DUP1 PUSH10 0xFFFFFFFFFFFFFFFFFFFF PUSH1 0x20 DUP7 SWAP1 SHR AND PUSH1 0x1 PUSH1 0x1 PUSH1 0x70 SHL SUB DUP7 AND PUSH6 0xFFFFFFFFFFFF PUSH1 0x40 DUP9 SWAP1 SHR DUP2 AND SWAP1 DUP8 AND DUP2 GT ISZERO PUSH2 0x26F8 JUMPI DUP3 DUP3 DUP3 PUSH2 0x26FD JUMP JUMPDEST DUP2 PUSH1 0x0 DUP1 JUMPDEST SWAP6 POP SWAP6 POP SWAP6 POP POP POP POP SWAP3 POP SWAP3 POP SWAP3 JUMP JUMPDEST PUSH1 0x0 PUSH2 0xBB9 DUP4 PUSH1 0x1 PUSH1 0x1 PUSH1 0xA0 SHL SUB DUP5 AND PUSH2 0x2902 JUMP JUMPDEST PUSH1 0x60 DUP2 PUSH1 0x0 ADD DUP1 SLOAD DUP1 PUSH1 0x20 MUL PUSH1 0x20 ADD PUSH1 0x40 MLOAD SWAP1 DUP2 ADD PUSH1 0x40 MSTORE DUP1 SWAP3 SWAP2 SWAP1 DUP2 DUP2 MSTORE PUSH1 0x20 ADD DUP3 DUP1 SLOAD DUP1 ISZERO PUSH2 0x2772 JUMPI PUSH1 0x20 MUL DUP3 ADD SWAP2 SWAP1 PUSH1 0x0 MSTORE PUSH1 0x20 PUSH1 0x0 KECCAK256 SWAP1 JUMPDEST DUP2 SLOAD DUP2 MSTORE PUSH1 0x20 ADD SWAP1 PUSH1 0x1 ADD SWAP1 DUP1 DUP4 GT PUSH2 0x275E JUMPI JUMPDEST POP POP POP POP POP SWAP1 POP SWAP2 SWAP1 POP JUMP JUMPDEST PUSH1 0x0 PUSH6 0xFFFFFFFFFFFF DUP3 GT ISZERO PUSH2 0x27B1 JUMPI PUSH1 0x40 MLOAD PUSH4 0x6DFCC65 PUSH1 0xE4 SHL DUP2 MSTORE PUSH1 0x30 PUSH1 0x4 DUP3 ADD MSTORE PUSH1 0x24 DUP2 ADD DUP4 SWAP1 MSTORE PUSH1 0x44 ADD PUSH2 0xAC4 JUMP JUMPDEST POP SWAP1 JUMP JUMPDEST PUSH1 0x0 DUP3 PUSH1 0x0 ADD DUP3 DUP2 SLOAD DUP2 LT PUSH2 0x27CC JUMPI PUSH2 0x27CC PUSH2 0x2F1D JUMP JUMPDEST SWAP1 PUSH1 0x0 MSTORE PUSH1 0x20 PUSH1 0x0 KECCAK256 ADD SLOAD SWAP1 POP SWAP3 SWAP2 POP POP JUMP JUMPDEST DUP1 MLOAD ISZERO PUSH2 0x27EF JUMPI DUP1 MLOAD DUP1 DUP3 PUSH1 0x20 ADD REVERT JUMPDEST PUSH1 0x40 MLOAD PUSH4 0xA12F521 PUSH1 0xE1 SHL DUP2 MSTORE PUSH1 0x4 ADD PUSH1 0x40 MLOAD DUP1 SWAP2 SUB SWAP1 REVERT JUMPDEST PUSH1 0x0 DUP2 DUP2 MSTORE PUSH1 0x1 DUP4 ADD PUSH1 0x20 MSTORE PUSH1 0x40 DUP2 KECCAK256 SLOAD DUP1 ISZERO PUSH2 0x28F1 JUMPI PUSH1 0x0 PUSH2 0x282C PUSH1 0x1 DUP4 PUSH2 0x300E JUMP JUMPDEST DUP6 SLOAD SWAP1 SWAP2 POP PUSH1 0x0 SWAP1 PUSH2 0x2840 SWAP1 PUSH1 0x1 SWAP1 PUSH2 0x300E JUMP JUMPDEST SWAP1 POP DUP1 DUP3 EQ PUSH2 0x28A5 JUMPI PUSH1 0x0 DUP7 PUSH1 0x0 ADD DUP3 DUP2 SLOAD DUP2 LT PUSH2 0x2860 JUMPI PUSH2 0x2860 PUSH2 0x2F1D JUMP JUMPDEST SWAP1 PUSH1 0x0 MSTORE PUSH1 0x20 PUSH1 0x0 KECCAK256 ADD SLOAD SWAP1 POP DUP1 DUP8 PUSH1 0x0 ADD DUP5 DUP2 SLOAD DUP2 LT PUSH2 0x2883 JUMPI PUSH2 0x2883 PUSH2 0x2F1D JUMP JUMPDEST PUSH1 0x0 SWAP2 DUP3 MSTORE PUSH1 0x20 DUP1 DUP4 KECCAK256 SWAP1 SWAP2 ADD SWAP3 SWAP1 SWAP3 SSTORE SWAP2 DUP3 MSTORE PUSH1 0x1 DUP9 ADD SWAP1 MSTORE PUSH1 0x40 SWAP1 KECCAK256 DUP4 SWAP1 SSTORE JUMPDEST DUP6 SLOAD DUP7 SWAP1 DUP1 PUSH2 0x28B6 JUMPI PUSH2 0x28B6 PUSH2 0x319A JUMP JUMPDEST PUSH1 0x1 SWAP1 SUB DUP2 DUP2 SWAP1 PUSH1 0x0 MSTORE PUSH1 0x20 PUSH1 0x0 KECCAK256 ADD PUSH1 0x0 SWAP1 SSTORE SWAP1 SSTORE DUP6 PUSH1 0x1 ADD PUSH1 0x0 DUP7 DUP2 MSTORE PUSH1 0x20 ADD SWAP1 DUP2 MSTORE PUSH1 0x20 ADD PUSH1 0x0 KECCAK256 PUSH1 0x0 SWAP1 SSTORE PUSH1 0x1 SWAP4 POP POP POP POP PUSH2 0x9D0 JUMP JUMPDEST PUSH1 0x0 SWAP2 POP POP PUSH2 0x9D0 JUMP JUMPDEST POP SWAP3 SWAP2 POP POP JUMP JUMPDEST PUSH1 0x0 DUP2 DUP2 MSTORE PUSH1 0x1 DUP4 ADD PUSH1 0x20 MSTORE PUSH1 0x40 DUP2 KECCAK256 SLOAD PUSH2 0x2949 JUMPI POP DUP2 SLOAD PUSH1 0x1 DUP2 DUP2 ADD DUP5 SSTORE PUSH1 0x0 DUP5 DUP2 MSTORE PUSH1 0x20 DUP1 DUP3 KECCAK256 SWAP1 SWAP4 ADD DUP5 SWAP1 SSTORE DUP5 SLOAD DUP5 DUP3 MSTORE DUP3 DUP7 ADD SWAP1 SWAP4 MSTORE PUSH1 0x40 SWAP1 KECCAK256 SWAP2 SWAP1 SWAP2 SSTORE PUSH2 0x9D0 JUMP JUMPDEST POP PUSH1 0x0 PUSH2 0x9D0 JUMP JUMPDEST PUSH1 0x1 PUSH1 0x1 PUSH1 0xA0 SHL SUB DUP2 AND DUP2 EQ PUSH2 0x1BBB JUMPI PUSH1 0x0 DUP1 REVERT JUMPDEST PUSH1 0x0 DUP1 DUP4 PUSH1 0x1F DUP5 ADD SLT PUSH2 0x2978 JUMPI PUSH1 0x0 DUP1 REVERT JUMPDEST POP DUP2 CALLDATALOAD PUSH1 0x1 PUSH1 0x1 PUSH1 0x40 SHL SUB DUP2 GT ISZERO PUSH2 0x298F JUMPI PUSH1 0x0 DUP1 REVERT JUMPDEST PUSH1 0x20 DUP4 ADD SWAP2 POP DUP4 PUSH1 0x20 DUP3 PUSH1 0x5 SHL DUP6 ADD ADD GT ISZERO PUSH2 0x11D6 JUMPI PUSH1 0x0 DUP1 REVERT JUMPDEST DUP1 CALLDATALOAD PUSH1 0x1 PUSH1 0x1 PUSH1 0x40 SHL SUB DUP2 AND DUP2 EQ PUSH2 0x29C1 JUMPI PUSH1 0x0 DUP1 REVERT JUMPDEST SWAP2 SWAP1 POP JUMP JUMPDEST PUSH1 0x0 DUP1 PUSH1 0x0 DUP1 PUSH1 0x60 DUP6 DUP8 SUB SLT ISZERO PUSH2 0x29DC JUMPI PUSH1 0x0 DUP1 REVERT JUMPDEST DUP5 CALLDATALOAD PUSH2 0x29E7 DUP2 PUSH2 0x2951 JUMP JUMPDEST SWAP4 POP PUSH1 0x20 DUP6 ADD CALLDATALOAD PUSH1 0x1 PUSH1 0x1 PUSH1 0x40 SHL SUB DUP2 GT ISZERO PUSH2 0x2A02 JUMPI PUSH1 0x0 DUP1 REVERT JUMPDEST PUSH2 0x2A0E DUP8 DUP3 DUP9 ADD PUSH2 0x2966 JUMP JUMPDEST SWAP1 SWAP5 POP SWAP3 POP PUSH2 0x2A21 SWAP1 POP PUSH1 0x40 DUP7 ADD PUSH2 0x29AA JUMP JUMPDEST SWAP1 POP SWAP3 SWAP6 SWAP2 SWAP5 POP SWAP3 POP JUMP JUMPDEST PUSH1 0x0 PUSH1 0x20 DUP3 DUP5 SUB SLT ISZERO PUSH2 0x2A3E JUMPI PUSH1 0x0 DUP1 REVERT JUMPDEST PUSH2 0xBB9 DUP3 PUSH2 0x29AA JUMP JUMPDEST PUSH1 0x0 DUP1 PUSH1 0x40 DUP4 DUP6 SUB SLT ISZERO PUSH2 0x2A5A JUMPI PUSH1 0x0 DUP1 REVERT JUMPDEST DUP3 CALLDATALOAD PUSH2 0x2A65 DUP2 PUSH2 0x2951 JUMP JUMPDEST SWAP2 POP PUSH1 0x20 DUP4 ADD CALLDATALOAD DUP1 ISZERO ISZERO DUP2 EQ PUSH2 0x2A7A JUMPI PUSH1 0x0 DUP1 REVERT JUMPDEST DUP1 SWAP2 POP POP SWAP3 POP SWAP3 SWAP1 POP JUMP JUMPDEST PUSH1 0x0 DUP1 PUSH1 0x40 DUP4 DUP6 SUB SLT ISZERO PUSH2 0x2A98 JUMPI PUSH1 0x0 DUP1 REVERT JUMPDEST DUP3 CALLDATALOAD PUSH2 0x2AA3 DUP2 PUSH2 0x2951 JUMP JUMPDEST SWAP2 POP PUSH1 0x20 DUP4 ADD CALLDATALOAD PUSH2 0x2A7A DUP2 PUSH2 0x2951 JUMP JUMPDEST PUSH1 0x0 DUP1 DUP4 PUSH1 0x1F DUP5 ADD SLT PUSH2 0x2AC5 JUMPI PUSH1 0x0 DUP1 REVERT JUMPDEST POP DUP2 CALLDATALOAD PUSH1 0x1 PUSH1 0x1 PUSH1 0x40 SHL SUB DUP2 GT ISZERO PUSH2 0x2ADC JUMPI PUSH1 0x0 DUP1 REVERT JUMPDEST PUSH1 0x20 DUP4 ADD SWAP2 POP DUP4 PUSH1 0x20 DUP3 DUP6 ADD ADD GT ISZERO PUSH2 0x11D6 JUMPI PUSH1 0x0 DUP1 REVERT JUMPDEST PUSH1 0x0 DUP1 PUSH1 0x0 PUSH1 0x40 DUP5 DUP7 SUB SLT ISZERO PUSH2 0x2B09 JUMPI PUSH1 0x0 DUP1 REVERT JUMPDEST DUP4 CALLDATALOAD PUSH2 0x2B14 DUP2 PUSH2 0x2951 JUMP JUMPDEST SWAP3 POP PUSH1 0x20 DUP5 ADD CALLDATALOAD PUSH1 0x1 PUSH1 0x1 PUSH1 0x40 SHL SUB DUP2 GT ISZERO PUSH2 0x2B2F JUMPI PUSH1 0x0 DUP1 REVERT JUMPDEST PUSH2 0x2B3B DUP7 DUP3 DUP8 ADD PUSH2 0x2AB3 JUMP JUMPDEST SWAP5 SWAP8 SWAP1 SWAP7 POP SWAP4 SWAP5 POP POP POP POP JUMP JUMPDEST DUP1 CALLDATALOAD PUSH4 0xFFFFFFFF DUP2 AND DUP2 EQ PUSH2 0x29C1 JUMPI PUSH1 0x0 DUP1 REVERT JUMPDEST PUSH1 0x0 DUP1 PUSH1 0x0 PUSH1 0x60 DUP5 DUP7 SUB SLT ISZERO PUSH2 0x2B71 JUMPI PUSH1 0x0 DUP1 REVERT JUMPDEST PUSH2 0x2B7A DUP5 PUSH2 0x29AA JUMP JUMPDEST SWAP3 POP PUSH1 0x20 DUP5 ADD CALLDATALOAD PUSH2 0x2B8A DUP2 PUSH2 0x2951 JUMP JUMPDEST SWAP2 POP PUSH2 0x2B98 PUSH1 0x40 DUP6 ADD PUSH2 0x2B48 JUMP JUMPDEST SWAP1 POP SWAP3 POP SWAP3 POP SWAP3 JUMP JUMPDEST PUSH1 0x0 PUSH1 0x20 DUP3 DUP5 SUB SLT ISZERO PUSH2 0x2BB3 JUMPI PUSH1 0x0 DUP1 REVERT JUMPDEST DUP2 CALLDATALOAD PUSH2 0xBB9 DUP2 PUSH2 0x2951 JUMP JUMPDEST PUSH1 0x0 DUP1 PUSH1 0x40 DUP4 DUP6 SUB SLT ISZERO PUSH2 0x2BD1 JUMPI PUSH1 0x0 DUP1 REVERT JUMPDEST PUSH2 0x2AA3 DUP4 PUSH2 0x29AA JUMP JUMPDEST PUSH1 0x0 DUP1 PUSH1 0x40 DUP4 DUP6 SUB SLT ISZERO PUSH2 0x2BED JUMPI PUSH1 0x0 DUP1 REVERT JUMPDEST PUSH2 0x2BF6 DUP4 PUSH2 0x29AA JUMP JUMPDEST SWAP2 POP PUSH2 0x2C04 PUSH1 0x20 DUP5 ADD PUSH2 0x29AA JUMP JUMPDEST SWAP1 POP SWAP3 POP SWAP3 SWAP1 POP JUMP JUMPDEST PUSH1 0x0 PUSH1 0x20 DUP3 DUP5 SUB SLT ISZERO PUSH2 0x2C1F JUMPI PUSH1 0x0 DUP1 REVERT JUMPDEST POP CALLDATALOAD SWAP2 SWAP1 POP JUMP JUMPDEST PUSH1 0x1 PUSH1 0x1 PUSH1 0xE0 SHL SUB NOT DUP2 AND DUP2 EQ PUSH2 0x1BBB JUMPI PUSH1 0x0 DUP1 REVERT JUMPDEST PUSH1 0x0 DUP1 PUSH1 0x40 DUP4 DUP6 SUB SLT ISZERO PUSH2 0x2C4F JUMPI PUSH1 0x0 DUP1 REVERT JUMPDEST DUP3 CALLDATALOAD PUSH2 0x2C5A DUP2 PUSH2 0x2951 JUMP JUMPDEST SWAP2 POP PUSH1 0x20 DUP4 ADD CALLDATALOAD PUSH2 0x2A7A DUP2 PUSH2 0x2C26 JUMP JUMPDEST PUSH1 0x0 DUP1 PUSH1 0x0 PUSH1 0x40 DUP5 DUP7 SUB SLT ISZERO PUSH2 0x2C7F JUMPI PUSH1 0x0 DUP1 REVERT JUMPDEST PUSH2 0x2B14 DUP5 PUSH2 0x29AA JUMP JUMPDEST PUSH1 0x20 DUP1 DUP3 MSTORE DUP3 MLOAD DUP3 DUP3 ADD DUP2 SWAP1 MSTORE PUSH1 0x0 SWAP2 SWAP1 DUP5 DUP3 ADD SWAP1 PUSH1 0x40 DUP6 ADD SWAP1 DUP5 JUMPDEST DUP2 DUP2 LT ISZERO PUSH2 0x2CC9 JUMPI DUP4 MLOAD PUSH1 0x1 PUSH1 0x1 PUSH1 0xA0 SHL SUB AND DUP4 MSTORE SWAP3 DUP5 ADD SWAP3 SWAP2 DUP5 ADD SWAP2 PUSH1 0x1 ADD PUSH2 0x2CA4 JUMP JUMPDEST POP SWAP1 SWAP7 SWAP6 POP POP POP POP POP POP JUMP JUMPDEST PUSH1 0x0 DUP1 PUSH1 0x40 DUP4 DUP6 SUB SLT ISZERO PUSH2 0x2CE8 JUMPI PUSH1 0x0 DUP1 REVERT JUMPDEST PUSH2 0x2CF1 DUP4 PUSH2 0x29AA JUMP JUMPDEST SWAP2 POP PUSH2 0x2C04 PUSH1 0x20 DUP5 ADD PUSH2 0x2B48 JUMP JUMPDEST PUSH1 0x0 DUP1 PUSH1 0x0 DUP1 PUSH1 0x60 DUP6 DUP8 SUB SLT ISZERO PUSH2 0x2D15 JUMPI PUSH1 0x0 DUP1 REVERT JUMPDEST DUP5 CALLDATALOAD PUSH2 0x2D20 DUP2 PUSH2 0x2951 JUMP JUMPDEST SWAP4 POP PUSH1 0x20 DUP6 ADD CALLDATALOAD PUSH2 0x2D30 DUP2 PUSH2 0x2951 JUMP JUMPDEST SWAP3 POP PUSH1 0x40 DUP6 ADD CALLDATALOAD PUSH1 0x1 PUSH1 0x1 PUSH1 0x40 SHL SUB DUP2 GT ISZERO PUSH2 0x2D4B JUMPI PUSH1 0x0 DUP1 REVERT JUMPDEST PUSH2 0x2D57 DUP8 DUP3 DUP9 ADD PUSH2 0x2AB3 JUMP JUMPDEST SWAP6 SWAP9 SWAP5 SWAP8 POP SWAP6 POP POP POP POP JUMP JUMPDEST PUSH1 0x0 DUP1 PUSH1 0x20 DUP4 DUP6 SUB SLT ISZERO PUSH2 0x2D76 JUMPI PUSH1 0x0 DUP1 REVERT JUMPDEST DUP3 CALLDATALOAD PUSH1 0x1 PUSH1 0x1 PUSH1 0x40 SHL SUB DUP2 GT ISZERO PUSH2 0x2D8C JUMPI PUSH1 0x0 DUP1 REVERT JUMPDEST PUSH2 0x2D98 DUP6 DUP3 DUP7 ADD PUSH2 0x2966 JUMP JUMPDEST SWAP1 SWAP7 SWAP1 SWAP6 POP SWAP4 POP POP POP POP JUMP JUMPDEST PUSH1 0x0 JUMPDEST DUP4 DUP2 LT ISZERO PUSH2 0x2DBF JUMPI DUP2 DUP2 ADD MLOAD DUP4 DUP3 ADD MSTORE PUSH1 0x20 ADD PUSH2 0x2DA7 JUMP JUMPDEST POP POP PUSH1 0x0 SWAP2 ADD MSTORE JUMP JUMPDEST PUSH1 0x0 PUSH1 0x20 DUP1 DUP4 ADD DUP2 DUP5 MSTORE DUP1 DUP6 MLOAD DUP1 DUP4 MSTORE PUSH1 0x40 DUP7 ADD SWAP2 POP PUSH1 0x40 DUP2 PUSH1 0x5 SHL DUP8 ADD ADD SWAP3 POP DUP4 DUP8 ADD PUSH1 0x0 JUMPDEST DUP3 DUP2 LT ISZERO PUSH2 0x2E35 JUMPI DUP8 DUP6 SUB PUSH1 0x3F NOT ADD DUP5 MSTORE DUP2 MLOAD DUP1 MLOAD DUP1 DUP8 MSTORE PUSH2 0x2E16 DUP2 DUP10 DUP10 ADD DUP11 DUP6 ADD PUSH2 0x2DA4 JUMP JUMPDEST PUSH1 0x1F ADD PUSH1 0x1F NOT AND SWAP6 SWAP1 SWAP6 ADD DUP7 ADD SWAP5 POP SWAP3 DUP6 ADD SWAP3 SWAP1 DUP6 ADD SWAP1 PUSH1 0x1 ADD PUSH2 0x2DEF JUMP JUMPDEST POP SWAP3 SWAP8 SWAP7 POP POP POP POP POP POP POP JUMP JUMPDEST PUSH1 0x0 DUP1 PUSH1 0x0 PUSH1 0x60 DUP5 DUP7 SUB SLT ISZERO PUSH2 0x2E57 JUMPI PUSH1 0x0 DUP1 REVERT JUMPDEST DUP4 CALLDATALOAD PUSH2 0x2E62 DUP2 PUSH2 0x2951 JUMP JUMPDEST SWAP3 POP PUSH1 0x20 DUP5 ADD CALLDATALOAD PUSH2 0x2E72 DUP2 PUSH2 0x2951 JUMP JUMPDEST SWAP2 POP PUSH1 0x40 DUP5 ADD CALLDATALOAD PUSH2 0x2E82 DUP2 PUSH2 0x2C26 JUMP JUMPDEST DUP1 SWAP2 POP POP SWAP3 POP SWAP3 POP SWAP3 JUMP JUMPDEST PUSH1 0x0 DUP1 PUSH1 0x40 DUP4 DUP6 SUB SLT ISZERO PUSH2 0x2EA0 JUMPI PUSH1 0x0 DUP1 REVERT JUMPDEST DUP3 CALLDATALOAD PUSH2 0x2CF1 DUP2 PUSH2 0x2951 JUMP JUMPDEST PUSH1 0x0 DUP1 PUSH1 0x0 DUP1 PUSH1 0x60 DUP6 DUP8 SUB SLT ISZERO PUSH2 0x2EC1 JUMPI PUSH1 0x0 DUP1 REVERT JUMPDEST DUP5 CALLDATALOAD PUSH2 0x2ECC DUP2 PUSH2 0x2951 JUMP JUMPDEST SWAP4 POP PUSH1 0x20 DUP6 ADD CALLDATALOAD PUSH1 0x1 PUSH1 0x1 PUSH1 0x40 SHL SUB DUP2 GT ISZERO PUSH2 0x2EE7 JUMPI PUSH1 0x0 DUP1 REVERT JUMPDEST PUSH2 0x2EF3 DUP8 DUP3 DUP9 ADD PUSH2 0x2AB3 JUMP JUMPDEST SWAP1 SWAP5 POP SWAP3 POP POP PUSH1 0x40 DUP6 ADD CALLDATALOAD PUSH6 0xFFFFFFFFFFFF DUP2 AND DUP2 EQ PUSH2 0x2F12 JUMPI PUSH1 0x0 DUP1 REVERT JUMPDEST SWAP4 SWAP7 SWAP3 SWAP6 POP SWAP1 SWAP4 POP POP JUMP JUMPDEST PUSH4 0x4E487B71 PUSH1 0xE0 SHL PUSH1 0x0 MSTORE PUSH1 0x32 PUSH1 0x4 MSTORE PUSH1 0x24 PUSH1 0x0 REVERT JUMPDEST PUSH1 0x0 PUSH1 0x20 DUP3 DUP5 SUB SLT ISZERO PUSH2 0x2F45 JUMPI PUSH1 0x0 DUP1 REVERT JUMPDEST DUP2 CALLDATALOAD PUSH2 0xBB9 DUP2 PUSH2 0x2C26 JUMP JUMPDEST PUSH4 0x4E487B71 PUSH1 0xE0 SHL PUSH1 0x0 MSTORE PUSH1 0x11 PUSH1 0x4 MSTORE PUSH1 0x24 PUSH1 0x0 REVERT JUMPDEST PUSH1 0x0 PUSH1 0x1 DUP3 ADD PUSH2 0x2F78 JUMPI PUSH2 0x2F78 PUSH2 0x2F50 JUMP JUMPDEST POP PUSH1 0x1 ADD SWAP1 JUMP JUMPDEST DUP2 DUP4 MSTORE DUP2 DUP2 PUSH1 0x20 DUP6 ADD CALLDATACOPY POP PUSH1 0x0 DUP3 DUP3 ADD PUSH1 0x20 SWAP1 DUP2 ADD SWAP2 SWAP1 SWAP2 MSTORE PUSH1 0x1F SWAP1 SWAP2 ADD PUSH1 0x1F NOT AND SWAP1 SWAP2 ADD ADD SWAP1 JUMP JUMPDEST PUSH1 0x20 DUP2 MSTORE PUSH1 0x0 PUSH2 0x2FBC PUSH1 0x20 DUP4 ADD DUP5 DUP7 PUSH2 0x2F7F JUMP JUMPDEST SWAP5 SWAP4 POP POP POP POP JUMP JUMPDEST PUSH1 0x0 PUSH1 0x20 DUP3 DUP5 SUB SLT ISZERO PUSH2 0x2FD6 JUMPI PUSH1 0x0 DUP1 REVERT JUMPDEST DUP2 MLOAD PUSH2 0xBB9 DUP2 PUSH2 0x2C26 JUMP JUMPDEST PUSH1 0x0 PUSH1 0x1 PUSH1 0x1 PUSH1 0xA0 SHL SUB DUP1 DUP8 AND DUP4 MSTORE DUP1 DUP7 AND PUSH1 0x20 DUP5 ADD MSTORE POP PUSH1 0x60 PUSH1 0x40 DUP4 ADD MSTORE PUSH2 0x192A PUSH1 0x60 DUP4 ADD DUP5 DUP7 PUSH2 0x2F7F JUMP JUMPDEST DUP2 DUP2 SUB DUP2 DUP2 GT ISZERO PUSH2 0x9D0 JUMPI PUSH2 0x9D0 PUSH2 0x2F50 JUMP JUMPDEST PUSH1 0x0 DUP1 DUP6 DUP6 GT ISZERO PUSH2 0x3031 JUMPI PUSH1 0x0 DUP1 REVERT JUMPDEST DUP4 DUP7 GT ISZERO PUSH2 0x303E JUMPI PUSH1 0x0 DUP1 REVERT JUMPDEST POP POP DUP3 ADD SWAP4 SWAP2 SWAP1 SWAP3 SUB SWAP2 POP JUMP JUMPDEST PUSH4 0x4E487B71 PUSH1 0xE0 SHL PUSH1 0x0 MSTORE PUSH1 0x41 PUSH1 0x4 MSTORE PUSH1 0x24 PUSH1 0x0 REVERT JUMPDEST PUSH1 0x0 DUP1 DUP4 CALLDATALOAD PUSH1 0x1E NOT DUP5 CALLDATASIZE SUB ADD DUP2 SLT PUSH2 0x3078 JUMPI PUSH1 0x0 DUP1 REVERT JUMPDEST DUP4 ADD DUP1 CALLDATALOAD SWAP2 POP PUSH1 0x1 PUSH1 0x1 PUSH1 0x40 SHL SUB DUP3 GT ISZERO PUSH2 0x3092 JUMPI PUSH1 0x0 DUP1 REVERT JUMPDEST PUSH1 0x20 ADD SWAP2 POP CALLDATASIZE DUP2 SWAP1 SUB DUP3 SGT ISZERO PUSH2 0x11D6 JUMPI PUSH1 0x0 DUP1 REVERT JUMPDEST DUP3 DUP5 DUP3 CALLDATACOPY PUSH1 0x0 DUP4 DUP3 ADD PUSH1 0x0 DUP2 MSTORE DUP4 MLOAD PUSH2 0x30C4 DUP2 DUP4 PUSH1 0x20 DUP9 ADD PUSH2 0x2DA4 JUMP JUMPDEST ADD SWAP6 SWAP5 POP POP POP POP POP JUMP JUMPDEST PUSH6 0xFFFFFFFFFFFF DUP2 DUP2 AND DUP4 DUP3 AND ADD SWAP1 DUP1 DUP3 GT ISZERO PUSH2 0x28FB JUMPI PUSH2 0x28FB PUSH2 0x2F50 JUMP JUMPDEST PUSH6 0xFFFFFFFFFFFF DUP7 AND DUP2 MSTORE PUSH1 0x0 PUSH1 0x1 PUSH1 0x1 PUSH1 0xA0 SHL SUB DUP1 DUP8 AND PUSH1 0x20 DUP5 ADD MSTORE DUP1 DUP7 AND PUSH1 0x40 DUP5 ADD MSTORE POP PUSH1 0x80 PUSH1 0x60 DUP4 ADD MSTORE PUSH2 0x3128 PUSH1 0x80 DUP4 ADD DUP5 DUP7 PUSH2 0x2F7F JUMP JUMPDEST SWAP8 SWAP7 POP POP POP POP POP POP POP JUMP JUMPDEST PUSH1 0x1 PUSH1 0x1 PUSH1 0xE0 SHL SUB NOT DUP2 CALLDATALOAD DUP2 DUP2 AND SWAP2 PUSH1 0x4 DUP6 LT ISZERO PUSH2 0x100A JUMPI PUSH1 0x4 SWAP5 SWAP1 SWAP5 SUB PUSH1 0x3 SHL DUP5 SWAP1 SHL AND SWAP1 SWAP3 AND SWAP3 SWAP2 POP POP JUMP JUMPDEST PUSH1 0x0 DUP3 MLOAD PUSH2 0x3173 DUP2 DUP5 PUSH1 0x20 DUP8 ADD PUSH2 0x2DA4 JUMP JUMPDEST SWAP2 SWAP1 SWAP2 ADD SWAP3 SWAP2 POP POP JUMP JUMPDEST PUSH4 0xFFFFFFFF DUP3 DUP2 AND DUP3 DUP3 AND SUB SWAP1 DUP1 DUP3 GT ISZERO PUSH2 0x28FB JUMPI PUSH2 0x28FB PUSH2 0x2F50 JUMP JUMPDEST PUSH4 0x4E487B71 PUSH1 0xE0 SHL PUSH1 0x0 MSTORE PUSH1 0x31 PUSH1 0x4 MSTORE PUSH1 0x24 PUSH1 0x0 REVERT INVALID LOG1 PUSH5 0x736F6C6343 STOP ADDMOD EQ STOP EXP "},"gasEstimates":{"creation":{"codeDepositCost":"2546600","executionCost":"infinite","totalCost":"infinite"},"external":{"ADMIN_ROLE()":"274","PUBLIC_ROLE()":"307","addWorker(address)":"infinite","at(uint256)":"infinite","canCall(address,address,bytes4)":"infinite","cancel(address,address,bytes)":"infinite","consumeScheduledOp(address,bytes)":"infinite","execute(address,bytes)":"infinite","expiration()":"269","getAccess(uint64,address)":"3345","getNonce(bytes32)":"2576","getRoleAdmin(uint64)":"2657","getRoleGrantDelay(uint64)":"3093","getRoleGuardian(uint64)":"2671","getSchedule(bytes32)":"2818","getTargetAdminDelay(address)":"3091","getTargetFunctionRole(address,bytes4)":"infinite","grantRole(uint64,address,uint32)":"infinite","hasRole(uint64,address)":"infinite","hashOperation(address,address,bytes)":"infinite","haveWorker(address)":"infinite","isTargetClosed(address)":"2637","labelRole(uint64,string)":"infinite","minSetback()":"268","multicall(bytes[])":"infinite","remove(address)":"infinite","removeAt(uint256)":"infinite","renounceRole(uint64,address)":"28873","revokeRole(uint64,address)":"infinite","schedule(address,bytes,uint48)":"1815","setGrantDelay(uint64,uint32)":"infinite","setRoleAdmin(uint64,uint64)":"infinite","setRoleGuardian(uint64,uint64)":"infinite","setTargetAdminDelay(address,uint32)":"infinite","setTargetClosed(address,bool)":"infinite","setTargetFunctionRole(address,bytes4[],uint64)":"infinite","total()":"2460","transferAuthority(address)":"infinite","updateAuthority(address,address)":"infinite","values()":"infinite"}},"methodIdentifiers":{"ADMIN_ROLE()":"75b238fc","PUBLIC_ROLE()":"3ca7c02a","addWorker(address)":"806ad57e","at(uint256)":"e0886f90","canCall(address,address,bytes4)":"b7009613","cancel(address,address,bytes)":"d6bb62c6","consumeScheduledOp(address,bytes)":"94c7d7ee","execute(address,bytes)":"1cff79cd","expiration()":"4665096d","getAccess(uint64,address)":"3078f114","getNonce(bytes32)":"4136a33c","getRoleAdmin(uint64)":"530dd456","getRoleGrantDelay(uint64)":"12be8727","getRoleGuardian(uint64)":"0b0a93ba","getSchedule(bytes32)":"3adc277a","getTargetAdminDelay(address)":"4c1da1e2","getTargetFunctionRole(address,bytes4)":"6d5115bd","grantRole(uint64,address,uint32)":"25c471a0","hasRole(uint64,address)":"d1f856ee","hashOperation(address,address,bytes)":"abd9bd2a","haveWorker(address)":"e62a023a","isTargetClosed(address)":"a166aa89","labelRole(uint64,string)":"853551b8","minSetback()":"cc1b6c81","multicall(bytes[])":"ac9650d8","remove(address)":"29092d0e","removeAt(uint256)":"c624c6f2","renounceRole(uint64,address)":"fe0776f5","revokeRole(uint64,address)":"b7d2b162","schedule(address,bytes,uint48)":"f801a698","setGrantDelay(uint64,uint32)":"a64d95ce","setRoleAdmin(uint64,uint64)":"30cae187","setRoleGuardian(uint64,uint64)":"52962952","setTargetAdminDelay(address,uint32)":"d22b5989","setTargetClosed(address,bool)":"167bd395","setTargetFunctionRole(address,bytes4[],uint64)":"08d6122d","total()":"2ddbd13a","transferAuthority(address)":"3078db6c","updateAuthority(address,address)":"18ff183c","values()":"971217b7"}},"storageLayout":{"storage":[{"astId":508,"contract":"contracts/management/PresaleManager.sol:PresaleManager","label":"_targets","offset":0,"slot":"0","type":"t_mapping(t_address,t_struct(TargetConfig)465_storage)"},{"astId":513,"contract":"contracts/management/PresaleManager.sol:PresaleManager","label":"_roles","offset":0,"slot":"1","type":"t_mapping(t_uint64,t_struct(Role)484_storage)"},{"astId":518,"contract":"contracts/management/PresaleManager.sol:PresaleManager","label":"_schedules","offset":0,"slot":"2","type":"t_mapping(t_bytes32,t_struct(Schedule)489_storage)"},{"astId":520,"contract":"contracts/management/PresaleManager.sol:PresaleManager","label":"_executionId","offset":0,"slot":"3","type":"t_bytes32"},{"astId":22,"contract":"contracts/management/PresaleManager.sol:PresaleManager","label":"workers","offset":0,"slot":"4","type":"t_struct(AddressSet)6299_storage"}],"types":{"t_address":{"encoding":"inplace","label":"address","numberOfBytes":"20"},"t_array(t_bytes32)dyn_storage":{"base":"t_bytes32","encoding":"dynamic_array","label":"bytes32[]","numberOfBytes":"32"},"t_bool":{"encoding":"inplace","label":"bool","numberOfBytes":"1"},"t_bytes32":{"encoding":"inplace","label":"bytes32","numberOfBytes":"32"},"t_bytes4":{"encoding":"inplace","label":"bytes4","numberOfBytes":"4"},"t_mapping(t_address,t_struct(Access)471_storage)":{"encoding":"mapping","key":"t_address","label":"mapping(address => struct AccessManager.Access)","numberOfBytes":"32","value":"t_struct(Access)471_storage"},"t_mapping(t_address,t_struct(TargetConfig)465_storage)":{"encoding":"mapping","key":"t_address","label":"mapping(address => struct AccessManager.TargetConfig)","numberOfBytes":"32","value":"t_struct(TargetConfig)465_storage"},"t_mapping(t_bytes32,t_struct(Schedule)489_storage)":{"encoding":"mapping","key":"t_bytes32","label":"mapping(bytes32 => struct AccessManager.Schedule)","numberOfBytes":"32","value":"t_struct(Schedule)489_storage"},"t_mapping(t_bytes32,t_uint256)":{"encoding":"mapping","key":"t_bytes32","label":"mapping(bytes32 => uint256)","numberOfBytes":"32","value":"t_uint256"},"t_mapping(t_bytes4,t_uint64)":{"encoding":"mapping","key":"t_bytes4","label":"mapping(bytes4 => uint64)","numberOfBytes":"32","value":"t_uint64"},"t_mapping(t_uint64,t_struct(Role)484_storage)":{"encoding":"mapping","key":"t_uint64","label":"mapping(uint64 => struct AccessManager.Role)","numberOfBytes":"32","value":"t_struct(Role)484_storage"},"t_struct(Access)471_storage":{"encoding":"inplace","label":"struct AccessManager.Access","members":[{"astId":467,"contract":"contracts/management/PresaleManager.sol:PresaleManager","label":"since","offset":0,"slot":"0","type":"t_uint48"},{"astId":470,"contract":"contracts/management/PresaleManager.sol:PresaleManager","label":"delay","offset":6,"slot":"0","type":"t_userDefinedValueType(Delay)6623"}],"numberOfBytes":"32"},"t_struct(AddressSet)6299_storage":{"encoding":"inplace","label":"struct EnumerableSet.AddressSet","members":[{"astId":6298,"contract":"contracts/management/PresaleManager.sol:PresaleManager","label":"_inner","offset":0,"slot":"0","type":"t_struct(Set)5984_storage"}],"numberOfBytes":"64"},"t_struct(Role)484_storage":{"encoding":"inplace","label":"struct AccessManager.Role","members":[{"astId":476,"contract":"contracts/management/PresaleManager.sol:PresaleManager","label":"members","offset":0,"slot":"0","type":"t_mapping(t_address,t_struct(Access)471_storage)"},{"astId":478,"contract":"contracts/management/PresaleManager.sol:PresaleManager","label":"admin","offset":0,"slot":"1","type":"t_uint64"},{"astId":480,"contract":"contracts/management/PresaleManager.sol:PresaleManager","label":"guardian","offset":8,"slot":"1","type":"t_uint64"},{"astId":483,"contract":"contracts/management/PresaleManager.sol:PresaleManager","label":"grantDelay","offset":16,"slot":"1","type":"t_userDefinedValueType(Delay)6623"}],"numberOfBytes":"64"},"t_struct(Schedule)489_storage":{"encoding":"inplace","label":"struct AccessManager.Schedule","members":[{"astId":486,"contract":"contracts/management/PresaleManager.sol:PresaleManager","label":"timepoint","offset":0,"slot":"0","type":"t_uint48"},{"astId":488,"contract":"contracts/management/PresaleManager.sol:PresaleManager","label":"nonce","offset":6,"slot":"0","type":"t_uint32"}],"numberOfBytes":"32"},"t_struct(Set)5984_storage":{"encoding":"inplace","label":"struct EnumerableSet.Set","members":[{"astId":5979,"contract":"contracts/management/PresaleManager.sol:PresaleManager","label":"_values","offset":0,"slot":"0","type":"t_array(t_bytes32)dyn_storage"},{"astId":5983,"contract":"contracts/management/PresaleManager.sol:PresaleManager","label":"_positions","offset":0,"slot":"1","type":"t_mapping(t_bytes32,t_uint256)"}],"numberOfBytes":"64"},"t_struct(TargetConfig)465_storage":{"encoding":"inplace","label":"struct AccessManager.TargetConfig","members":[{"astId":459,"contract":"contracts/management/PresaleManager.sol:PresaleManager","label":"allowedRoles","offset":0,"slot":"0","type":"t_mapping(t_bytes4,t_uint64)"},{"astId":462,"contract":"contracts/management/PresaleManager.sol:PresaleManager","label":"adminDelay","offset":0,"slot":"1","type":"t_userDefinedValueType(Delay)6623"},{"astId":464,"contract":"contracts/management/PresaleManager.sol:PresaleManager","label":"closed","offset":14,"slot":"1","type":"t_bool"}],"numberOfBytes":"64"},"t_uint256":{"encoding":"inplace","label":"uint256","numberOfBytes":"32"},"t_uint32":{"encoding":"inplace","label":"uint32","numberOfBytes":"4"},"t_uint48":{"encoding":"inplace","label":"uint48","numberOfBytes":"6"},"t_uint64":{"encoding":"inplace","label":"uint64","numberOfBytes":"8"},"t_userDefinedValueType(Delay)6623":{"encoding":"inplace","label":"Time.Delay","numberOfBytes":"14"}}},"userdoc":{"kind":"user","methods":{},"notice":"The simple Manager contract for presale phase during the mature Manager contract in development Only confirms execution of token functions if owner called it","version":1}}}}