{
  "_format": "hh-sol-artifact-1",
  "contractName": "CXBTokenVesting",
  "sourceName": "contracts/utils/CXBTokenVesting.sol",
  "abi": [
    {
      "inputs": [
        {
          "internalType": "contract CXBToken",
          "name": "_token",
          "type": "address"
        },
        {
          "internalType": "address",
          "name": "initialAuthority",
          "type": "address"
        },
        {
          "internalType": "contract CXBTokenAirdrop",
          "name": "_airdrop",
          "type": "address"
        }
      ],
      "stateMutability": "nonpayable",
      "type": "constructor"
    },
    {
      "inputs": [
        {
          "internalType": "address",
          "name": "authority",
          "type": "address"
        }
      ],
      "name": "AccessManagedInvalidAuthority",
      "type": "error"
    },
    {
      "inputs": [
        {
          "internalType": "address",
          "name": "caller",
          "type": "address"
        },
        {
          "internalType": "uint32",
          "name": "delay",
          "type": "uint32"
        }
      ],
      "name": "AccessManagedRequiredDelay",
      "type": "error"
    },
    {
      "inputs": [
        {
          "internalType": "address",
          "name": "caller",
          "type": "address"
        }
      ],
      "name": "AccessManagedUnauthorized",
      "type": "error"
    },
    {
      "inputs": [],
      "name": "CXBTokenVestingEmptyAirdrop",
      "type": "error"
    },
    {
      "inputs": [],
      "name": "CXBTokenVestingEmptyRedeem",
      "type": "error"
    },
    {
      "inputs": [],
      "name": "CXBTokenVestingEmptyToken",
      "type": "error"
    },
    {
      "inputs": [
        {
          "internalType": "bytes32",
          "name": "code",
          "type": "bytes32"
        },
        {
          "internalType": "uint16",
          "name": "amount",
          "type": "uint16"
        }
      ],
      "name": "CXBTokenVestingIncorrectAmount",
      "type": "error"
    },
    {
      "inputs": [
        {
          "internalType": "bytes32",
          "name": "code",
          "type": "bytes32"
        },
        {
          "internalType": "uint16",
          "name": "amount",
          "type": "uint16"
        }
      ],
      "name": "CXBTokenVestingIncorrectWeight",
      "type": "error"
    },
    {
      "inputs": [
        {
          "internalType": "bytes32",
          "name": "code",
          "type": "bytes32"
        }
      ],
      "name": "CXBTokenVestingKPIAlreadyDefined",
      "type": "error"
    },
    {
      "inputs": [
        {
          "internalType": "bytes32",
          "name": "code",
          "type": "bytes32"
        }
      ],
      "name": "CXBTokenVestingKPINotDefined",
      "type": "error"
    },
    {
      "inputs": [
        {
          "internalType": "address",
          "name": "account",
          "type": "address"
        }
      ],
      "name": "CXBTokenVestingUnauthorizedAccount",
      "type": "error"
    },
    {
      "inputs": [],
      "name": "EnforcedPause",
      "type": "error"
    },
    {
      "inputs": [
        {
          "internalType": "bytes32",
          "name": "key",
          "type": "bytes32"
        }
      ],
      "name": "EnumerableMapNonexistentKey",
      "type": "error"
    },
    {
      "inputs": [],
      "name": "ExpectedPause",
      "type": "error"
    },
    {
      "inputs": [],
      "name": "ReentrancyGuardReentrantCall",
      "type": "error"
    },
    {
      "anonymous": false,
      "inputs": [
        {
          "indexed": false,
          "internalType": "address",
          "name": "authority",
          "type": "address"
        }
      ],
      "name": "AuthorityUpdated",
      "type": "event"
    },
    {
      "anonymous": false,
      "inputs": [
        {
          "indexed": true,
          "internalType": "address",
          "name": "account",
          "type": "address"
        },
        {
          "indexed": false,
          "internalType": "uint256",
          "name": "amount",
          "type": "uint256"
        }
      ],
      "name": "Distribute",
      "type": "event"
    },
    {
      "anonymous": false,
      "inputs": [
        {
          "indexed": true,
          "internalType": "bytes32",
          "name": "code",
          "type": "bytes32"
        },
        {
          "indexed": true,
          "internalType": "uint256",
          "name": "time",
          "type": "uint256"
        },
        {
          "indexed": true,
          "internalType": "enum CXBTokenVesting.KPITimeStatus",
          "name": "timeStatus",
          "type": "uint8"
        },
        {
          "indexed": false,
          "internalType": "uint16",
          "name": "weight",
          "type": "uint16"
        }
      ],
      "name": "KPIAdded",
      "type": "event"
    },
    {
      "anonymous": false,
      "inputs": [
        {
          "indexed": true,
          "internalType": "bytes32",
          "name": "code",
          "type": "bytes32"
        },
        {
          "indexed": true,
          "internalType": "uint256",
          "name": "time",
          "type": "uint256"
        },
        {
          "indexed": true,
          "internalType": "enum CXBTokenVesting.KPITimeStatus",
          "name": "timeStatus",
          "type": "uint8"
        },
        {
          "indexed": false,
          "internalType": "uint16",
          "name": "weight",
          "type": "uint16"
        }
      ],
      "name": "KPIModified",
      "type": "event"
    },
    {
      "anonymous": false,
      "inputs": [
        {
          "indexed": true,
          "internalType": "bytes32",
          "name": "code",
          "type": "bytes32"
        }
      ],
      "name": "KPIRemoved",
      "type": "event"
    },
    {
      "anonymous": false,
      "inputs": [
        {
          "indexed": true,
          "internalType": "bytes32",
          "name": "code",
          "type": "bytes32"
        },
        {
          "indexed": false,
          "internalType": "uint16",
          "name": "amount",
          "type": "uint16"
        }
      ],
      "name": "KPIUpdated",
      "type": "event"
    },
    {
      "anonymous": false,
      "inputs": [
        {
          "indexed": false,
          "internalType": "address",
          "name": "account",
          "type": "address"
        }
      ],
      "name": "Paused",
      "type": "event"
    },
    {
      "anonymous": false,
      "inputs": [
        {
          "indexed": true,
          "internalType": "address",
          "name": "account",
          "type": "address"
        },
        {
          "indexed": false,
          "internalType": "uint256",
          "name": "amount",
          "type": "uint256"
        }
      ],
      "name": "Redeem",
      "type": "event"
    },
    {
      "anonymous": false,
      "inputs": [
        {
          "indexed": false,
          "internalType": "address",
          "name": "account",
          "type": "address"
        }
      ],
      "name": "Unpaused",
      "type": "event"
    },
    {
      "inputs": [
        {
          "internalType": "bytes32",
          "name": "_code",
          "type": "bytes32"
        },
        {
          "internalType": "uint256",
          "name": "_time",
          "type": "uint256"
        },
        {
          "internalType": "enum CXBTokenVesting.KPITimeStatus",
          "name": "_timeStatus",
          "type": "uint8"
        },
        {
          "internalType": "uint16",
          "name": "_weight",
          "type": "uint16"
        }
      ],
      "name": "addKPI",
      "outputs": [],
      "stateMutability": "nonpayable",
      "type": "function"
    },
    {
      "inputs": [
        {
          "internalType": "address",
          "name": "",
          "type": "address"
        }
      ],
      "name": "amountsDistributed",
      "outputs": [
        {
          "internalType": "uint256",
          "name": "",
          "type": "uint256"
        }
      ],
      "stateMutability": "view",
      "type": "function"
    },
    {
      "inputs": [
        {
          "internalType": "address",
          "name": "",
          "type": "address"
        }
      ],
      "name": "amountsRedeemed",
      "outputs": [
        {
          "internalType": "uint256",
          "name": "",
          "type": "uint256"
        }
      ],
      "stateMutability": "view",
      "type": "function"
    },
    {
      "inputs": [],
      "name": "authority",
      "outputs": [
        {
          "internalType": "address",
          "name": "",
          "type": "address"
        }
      ],
      "stateMutability": "view",
      "type": "function"
    },
    {
      "inputs": [
        {
          "internalType": "address",
          "name": "_to",
          "type": "address"
        },
        {
          "internalType": "uint256",
          "name": "_amount",
          "type": "uint256"
        }
      ],
      "name": "distribute",
      "outputs": [],
      "stateMutability": "nonpayable",
      "type": "function"
    },
    {
      "inputs": [
        {
          "internalType": "bytes32",
          "name": "_code",
          "type": "bytes32"
        },
        {
          "internalType": "uint16",
          "name": "_amount",
          "type": "uint16"
        }
      ],
      "name": "increaseKPI",
      "outputs": [],
      "stateMutability": "nonpayable",
      "type": "function"
    },
    {
      "inputs": [],
      "name": "isConsumingScheduledOp",
      "outputs": [
        {
          "internalType": "bytes4",
          "name": "",
          "type": "bytes4"
        }
      ],
      "stateMutability": "view",
      "type": "function"
    },
    {
      "inputs": [
        {
          "internalType": "bytes32",
          "name": "",
          "type": "bytes32"
        }
      ],
      "name": "kpiCodes",
      "outputs": [
        {
          "internalType": "uint256",
          "name": "",
          "type": "uint256"
        }
      ],
      "stateMutability": "view",
      "type": "function"
    },
    {
      "inputs": [
        {
          "internalType": "bytes32",
          "name": "_code",
          "type": "bytes32"
        },
        {
          "internalType": "uint256",
          "name": "_time",
          "type": "uint256"
        },
        {
          "internalType": "enum CXBTokenVesting.KPITimeStatus",
          "name": "_timeStatus",
          "type": "uint8"
        },
        {
          "internalType": "uint16",
          "name": "_weight",
          "type": "uint16"
        }
      ],
      "name": "modifyKPI",
      "outputs": [],
      "stateMutability": "nonpayable",
      "type": "function"
    },
    {
      "inputs": [],
      "name": "paused",
      "outputs": [
        {
          "internalType": "bool",
          "name": "",
          "type": "bool"
        }
      ],
      "stateMutability": "view",
      "type": "function"
    },
    {
      "inputs": [],
      "name": "redeem",
      "outputs": [
        {
          "internalType": "uint256",
          "name": "",
          "type": "uint256"
        }
      ],
      "stateMutability": "nonpayable",
      "type": "function"
    },
    {
      "inputs": [
        {
          "internalType": "bytes32",
          "name": "_code",
          "type": "bytes32"
        }
      ],
      "name": "removeKPI",
      "outputs": [],
      "stateMutability": "nonpayable",
      "type": "function"
    },
    {
      "inputs": [
        {
          "internalType": "address",
          "name": "newAuthority",
          "type": "address"
        }
      ],
      "name": "setAuthority",
      "outputs": [],
      "stateMutability": "nonpayable",
      "type": "function"
    },
    {
      "inputs": [
        {
          "internalType": "contract CXBTokenAirdrop",
          "name": "_airdrop",
          "type": "address"
        }
      ],
      "name": "updateAirdrop",
      "outputs": [],
      "stateMutability": "nonpayable",
      "type": "function"
    },
    {
      "inputs": [
        {
          "internalType": "bytes32",
          "name": "_code",
          "type": "bytes32"
        },
        {
          "internalType": "uint16",
          "name": "_amount",
          "type": "uint16"
        }
      ],
      "name": "updateKPI",
      "outputs": [],
      "stateMutability": "nonpayable",
      "type": "function"
    },
    {
      "inputs": [
        {
          "internalType": "contract CXBToken",
          "name": "_token",
          "type": "address"
        }
      ],
      "name": "updateToken",
      "outputs": [],
      "stateMutability": "nonpayable",
      "type": "function"
    }
  ],
  "bytecode": "0x60806040523480156200001157600080fd5b50604051620018ff380380620018ff833981016040819052620000349162000159565b816200004081620000ec565b50600180556002805460ff191690556001600160a01b038316620000775760405163403fd83960e11b815260040160405180910390fd5b6001600160a01b0381166200009f57604051636bc5ab6760e01b815260040160405180910390fd5b60028054610100600160a81b0319166101006001600160a01b0395861602179055600380546001600160a01b031916919093161790915550600060048190556005819055600655620001ad565b600080546001600160a01b0319166001600160a01b0383169081179091556040519081527f2f658b440c35314f52658ea8a740e05b284cdc84dc9ae01e891f21b8933e7cad9060200160405180910390a150565b6001600160a01b03811681146200015657600080fd5b50565b6000806000606084860312156200016f57600080fd5b83516200017c8162000140565b60208501519093506200018f8162000140565b6040850151909250620001a28162000140565b809150509250925092565b61174280620001bd6000396000f3fe608060405234801561001057600080fd5b50600436106101005760003560e01c80638fb3603711610097578063bf7e214f11610066578063bf7e214f1461021e578063c489a64914610239578063cd3f43cc1461024c578063fb9321081461026c57600080fd5b80638fb36037146101cf5780639150dbe3146101f0578063b642b50514610203578063be040fb01461021657600080fd5b80637a9e5e4b116100d35780637a9e5e4b146101835780637ad3def21461019657806382112324146101a95780638b37d91e146101bc57600080fd5b8063022c4522146101055780632d9ad5841461011a5780635c975abb1461014d578063733d646214610163575b600080fd5b6101186101133660046113a0565b61027f565b005b61013a6101283660046113a0565b600b6020526000908152604090205481565b6040519081526020015b60405180910390f35b60025460ff166040519015158152602001610144565b61013a6101713660046113ce565b600d6020526000908152604090205481565b6101186101913660046113ce565b6102fe565b6101186101a43660046113ce565b610378565b6101186101b7366004611402565b6103d8565b6101186101ca36600461142e565b610550565b6101d76106bd565b6040516001600160e01b03199091168152602001610144565b6101186101fe36600461142e565b6106e1565b610118610211366004611402565b610867565b61013a61095e565b6000546040516001600160a01b039091168152602001610144565b6101186102473660046113ce565b610adb565b61013a61025a3660046113ce565b600c6020526000908152604090205481565b61011861027a36600461147a565b610b35565b61028c335b600036610bf9565b610297600882610cf2565b6102bc5760405163110c4b8160e31b8152600481018290526024015b60405180910390fd5b6102c7600882610d07565b5060405181907f20c83b576bdf59e63a6c446459ff1f29074382dde0ddb78fd48dc4465dbaaf5690600090a26102fb610d13565b50565b60005433906001600160a01b031681146103355760405162d1953b60e31b81526001600160a01b03821660048201526024016102b3565b816001600160a01b03163b60000361036b576040516361798f2f60e11b81526001600160a01b03831660048201526024016102b3565b61037482610f09565b5050565b61038133610284565b610389610f5d565b6001600160a01b0381166103b05760405163403fd83960e11b815260040160405180910390fd5b600280546001600160a01b0390921661010002610100600160a81b0319909216919091179055565b6103e133610284565b6103ec600883610cf2565b61040c5760405163110c4b8160e31b8152600481018390526024016102b3565b6103e88161ffff16111561044057604051630470181f60e01b81526004810183905261ffff821660248201526044016102b3565b600061044d600884610f82565b9050600060078281548110610464576104646114a6565b600091825260209091206002909102016001015461048b90610100900461ffff16846114d2565b61ffff1690506103e88111156104a057506103e85b80600783815481106104b4576104b46114a6565b906000526020600020906002020160010160016101000a81548161ffff021916908361ffff160217905550837fa2b58ca2f91f3e805bf429ca1443b0e3ff24cc1a6e8caf970daf7425ab59933060078481548110610514576105146114a6565b6000918252602091829020600291909102016001015460405161010090910461ffff1681520160405180910390a261054a610d13565b50505050565b61055933610284565b610564600885610cf2565b1561058557604051636c56507960e01b8152600481018590526024016102b3565b600780546040805160808101909152858152909190602081018560028111156105b0576105b06114ed565b81526000602080830182905261ffff87166040909301929092528354600181810186559482529082902083516002928302909101908155918301518285018054949593949193909260ff19909216918490811115610610576106106114ed565b021790555060408201516001909101805460609093015161ffff90811663010000000264ffff0000001991909316610100021664ffffffff00199093169290921717905561066060088683610f8e565b50610669610d13565b82600281111561067b5761067b6114ed565b60405161ffff84168152859087907f88a1f4e4f05480d6c02b094c7a6ca408cb709bb404912789ecfa294df6ab74dd9060200160405180910390a45050505050565b60008054600160a01b900460ff166106d55750600090565b50638fb3603760e01b90565b6106ea33610284565b6106f5600885610cf2565b6107155760405163110c4b8160e31b8152600481018590526024016102b3565b6103e88161ffff161115610749576040516309e400c560e01b81526004810185905261ffff821660248201526044016102b3565b6000610756600886610f82565b9050836007828154811061076c5761076c6114a6565b9060005260206000209060020201600001819055508260078281548110610795576107956114a6565b906000526020600020906002020160010160006101000a81548160ff021916908360028111156107c7576107c76114ed565b021790555081600782815481106107e0576107e06114a6565b906000526020600020906002020160010160036101000a81548161ffff021916908361ffff16021790555082600281111561081d5761081d6114ed565b60405161ffff84168152859087907f166e93bf2d7b473996e13920a1b918f4d784824af5c39cbe5febf29b04d4ed199060200160405180910390a4610860610d13565b5050505050565b61087033610284565b61087b600883610cf2565b61089b5760405163110c4b8160e31b8152600481018390526024016102b3565b6103e88161ffff1611156108cf57604051630470181f60e01b81526004810183905261ffff821660248201526044016102b3565b60006108dc600884610f82565b905081600782815481106108f2576108f26114a6565b600091825260209182902060029190910201600101805462ffff00191661010061ffff94851602179055604051918416825284917fa2b58ca2f91f3e805bf429ca1443b0e3ff24cc1a6e8caf970daf7425ab599330910160405180910390a2610959610d13565b505050565b6000610968610fa3565b610970610fcd565b600654336000908152600c602052604081205490916103e8916109939190611503565b61099d9190611530565b336000908152600d602052604090205490915081116109cf57604051630acac20560e31b815260040160405180910390fd5b336000908152600d60205260408120546109e99083611544565b336000908152600d6020526040902054909150610a07908290611557565b336000818152600d60205260409081902092909255600254915163a9059cbb60e01b81526004810191909152602481018390526101009091046001600160a01b03169063a9059cbb906044016020604051808303816000875af1158015610a72573d6000803e3d6000fd5b505050506040513d601f19601f82011682018060405250810190610a96919061157a565b5060405181815233907f222838db2794d11532d940e8dec38ae307ed0b63cd97c233322e221f998767a69060200160405180910390a2915050610ad860018055565b90565b610ae433610284565b610aec610f5d565b6001600160a01b038116610b1357604051636bc5ab6760e01b815260040160405180910390fd5b600380546001600160a01b0319166001600160a01b0392909216919091179055565b610b3d610fcd565b6003546001600160a01b03163314610b69576040516286c13760e21b81523360048201526024016102b3565b80600454610b779190611557565b6004556001600160a01b0382166000908152600c6020526040902054610b9e908290611557565b6001600160a01b0383166000818152600c6020526040908190209290925590517fc1d32ad5cca423e7dda2123dbf8c482f8e77d00b631c06e903a47f2cec1334df90610bed9084815260200190565b60405180910390a25050565b600080610c2f610c116000546001600160a01b031690565b8630610c2160046000898b611595565b610c2a916115bf565b610ff1565b91509150816108605763ffffffff811615610ccf576000805460ff60a01b198116600160a01b17909155604051634a63ebf760e11b81526001600160a01b03909116906394c7d7ee90610c8a908890889088906004016115ef565b600060405180830381600087803b158015610ca457600080fd5b505af1158015610cb8573d6000803e3d6000fd5b50506000805460ff60a01b19169055506108609050565b60405162d1953b60e31b81526001600160a01b03861660048201526024016102b3565b6000610cfe83836110fd565b90505b92915050565b6000610cfe8383611109565b6000610d1f6008611126565b9050600080805b83811015610f0157610d39600882611131565b92506001905060078381548110610d5257610d526114a6565b600091825260209091206002918202016001015460ff1690811115610d7957610d796114ed565b148015610da9575060078281548110610d9457610d946114a6565b90600052602060002090600202016000015442105b610eef57600260078381548110610dc257610dc26114a6565b600091825260209091206002918202016001015460ff1690811115610de957610de96114ed565b148015610e19575060078281548110610e0457610e046114a6565b90600052602060002090600202016000015442115b15610e615760078281548110610e3157610e316114a6565b6000918252602090912060029091020160010154610e5a906301000000900461ffff1684611557565b9250610eef565b6103e860078381548110610e7757610e776114a6565b906000526020600020906002020160010160039054906101000a900461ffff1660078481548110610eaa57610eaa6114a6565b906000526020600020906002020160010160019054906101000a900461ffff16610ed4919061162f565b610ede919061164d565b610eec9061ffff1684611557565b92505b80610ef98161166e565b915050610d26565b505060065550565b600080546001600160a01b0319166001600160a01b0383169081179091556040519081527f2f658b440c35314f52658ea8a740e05b284cdc84dc9ae01e891f21b8933e7cad9060200160405180910390a150565b60025460ff16610f8057604051638dfc202b60e01b815260040160405180910390fd5b565b6000610cfe838361114d565b6000610f9b848484611194565b949350505050565b600260015403610fc657604051633ee5aeb560e01b815260040160405180910390fd5b6002600155565b60025460ff1615610f805760405163d93c066560e01b815260040160405180910390fd5b6040516001600160a01b03848116602483015283811660448301526001600160e01b03198316606483015260009182918291829189169060840160408051601f198184030181529181526020820180516001600160e01b031663b700961360e01b179052516110609190611687565b600060405180830381855afa9150503d806000811461109b576040519150601f19603f3d011682016040523d82523d6000602084013e6110a0565b606091505b509150915081156110f25760408151106110d257808060200190518101906110c891906116b6565b90945092506110f2565b60208151106110f257808060200190518101906110ef919061157a565b93505b505094509492505050565b6000610cfe83836111b1565b60008181526002830160205260408120819055610cfe83836111c9565b6000610d01826111d5565b600080808061114086866111e0565b9097909650945050505050565b600081815260028301602052604081205480158015611173575061117184846110fd565b155b15610cfe5760405163015ab34360e11b8152600481018490526024016102b3565b60008281526002840160205260408120829055610f9b848461120b565b60008181526001830160205260408120541515610cfe565b6000610cfe8383611217565b6000610d0182611311565b600080806111ee858561131b565b600081815260029690960160205260409095205494959350505050565b6000610cfe8383611327565b6000818152600183016020526040812054801561130057600061123b600183611544565b855490915060009061124f90600190611544565b90508082146112b457600086600001828154811061126f5761126f6114a6565b9060005260206000200154905080876000018481548110611292576112926114a6565b6000918252602080832090910192909255918252600188019052604090208390555b85548690806112c5576112c56116f6565b600190038181906000526020600020016000905590558560010160008681526020019081526020016000206000905560019350505050610d01565b6000915050610d01565b5092915050565b6000610d01825490565b6000610cfe8383611376565b600081815260018301602052604081205461136e57508154600181810184556000848152602080822090930184905584548482528286019093526040902091909155610d01565b506000610d01565b600082600001828154811061138d5761138d6114a6565b9060005260206000200154905092915050565b6000602082840312156113b257600080fd5b5035919050565b6001600160a01b03811681146102fb57600080fd5b6000602082840312156113e057600080fd5b8135610cfe816113b9565b803561ffff811681146113fd57600080fd5b919050565b6000806040838503121561141557600080fd5b82359150611425602084016113eb565b90509250929050565b6000806000806080858703121561144457600080fd5b843593506020850135925060408501356003811061146157600080fd5b915061146f606086016113eb565b905092959194509250565b6000806040838503121561148d57600080fd5b8235611498816113b9565b946020939093013593505050565b634e487b7160e01b600052603260045260246000fd5b634e487b7160e01b600052601160045260246000fd5b61ffff81811683821601908082111561130a5761130a6114bc565b634e487b7160e01b600052602160045260246000fd5b8082028115828204841417610d0157610d016114bc565b634e487b7160e01b600052601260045260246000fd5b60008261153f5761153f61151a565b500490565b81810381811115610d0157610d016114bc565b80820180821115610d0157610d016114bc565b805180151581146113fd57600080fd5b60006020828403121561158c57600080fd5b610cfe8261156a565b600080858511156115a557600080fd5b838611156115b257600080fd5b5050820193919092039150565b6001600160e01b031981358181169160048510156115e75780818660040360031b1b83161692505b505092915050565b6001600160a01b03841681526040602082018190528101829052818360608301376000818301606090810191909152601f909201601f1916010192915050565b61ffff8181168382160280821691908281146115e7576115e76114bc565b600061ffff808416806116625761166261151a565b92169190910492915050565b600060018201611680576116806114bc565b5060010190565b6000825160005b818110156116a8576020818601810151858301520161168e565b506000920191825250919050565b600080604083850312156116c957600080fd5b6116d28361156a565b9150602083015163ffffffff811681146116eb57600080fd5b809150509250929050565b634e487b7160e01b600052603160045260246000fdfea264697066735822122024d6644c28ca59a6b11fc23244c7cb3fdc5091072d413b707b1d76ab9ef5eee664736f6c63430008140033",
  "linkReferences": {},
  "deployedLinkReferences": {}
}