{
  "address": "0x876202F8084D4D2fE0513473491beFDdcE4E8AD4",
  "abi": [
    {
      "inputs": [
        {
          "internalType": "address",
          "name": "_token",
          "type": "address"
        },
        {
          "internalType": "address",
          "name": "_vesting",
          "type": "address"
        },
        {
          "internalType": "address",
          "name": "initialAuthority",
          "type": "address"
        }
      ],
      "stateMutability": "nonpayable",
      "type": "constructor"
    },
    {
      "inputs": [
        {
          "internalType": "address",
          "name": "authority",
          "type": "address"
        }
      ],
      "name": "AccessManagedInvalidAuthority",
      "type": "error"
    },
    {
      "inputs": [
        {
          "internalType": "address",
          "name": "caller",
          "type": "address"
        },
        {
          "internalType": "uint32",
          "name": "delay",
          "type": "uint32"
        }
      ],
      "name": "AccessManagedRequiredDelay",
      "type": "error"
    },
    {
      "inputs": [
        {
          "internalType": "address",
          "name": "caller",
          "type": "address"
        }
      ],
      "name": "AccessManagedUnauthorized",
      "type": "error"
    },
    {
      "inputs": [
        {
          "internalType": "address",
          "name": "agent",
          "type": "address"
        },
        {
          "internalType": "address",
          "name": "target",
          "type": "address"
        }
      ],
      "name": "AgentNotDefined",
      "type": "error"
    },
    {
      "inputs": [
        {
          "internalType": "address",
          "name": "agent",
          "type": "address"
        },
        {
          "internalType": "address",
          "name": "target",
          "type": "address"
        },
        {
          "internalType": "uint256",
          "name": "amount",
          "type": "uint256"
        }
      ],
      "name": "CannotTransferFunds",
      "type": "error"
    },
    {
      "inputs": [],
      "name": "EmptyToken",
      "type": "error"
    },
    {
      "inputs": [],
      "name": "EnforcedPause",
      "type": "error"
    },
    {
      "inputs": [],
      "name": "ExpectedPause",
      "type": "error"
    },
    {
      "inputs": [
        {
          "internalType": "uint256",
          "name": "amount",
          "type": "uint256"
        }
      ],
      "name": "NoFundsAvailable",
      "type": "error"
    },
    {
      "inputs": [
        {
          "internalType": "address",
          "name": "agent",
          "type": "address"
        },
        {
          "internalType": "uint256",
          "name": "amount",
          "type": "uint256"
        }
      ],
      "name": "NoFundsPermitted",
      "type": "error"
    },
    {
      "inputs": [
        {
          "internalType": "address",
          "name": "agent",
          "type": "address"
        },
        {
          "internalType": "uint256",
          "name": "amount",
          "type": "uint256"
        }
      ],
      "name": "NoPermittedFundsAvailable",
      "type": "error"
    },
    {
      "anonymous": false,
      "inputs": [
        {
          "indexed": false,
          "internalType": "address",
          "name": "authority",
          "type": "address"
        }
      ],
      "name": "AuthorityUpdated",
      "type": "event"
    },
    {
      "anonymous": false,
      "inputs": [
        {
          "indexed": false,
          "internalType": "address",
          "name": "account",
          "type": "address"
        }
      ],
      "name": "Paused",
      "type": "event"
    },
    {
      "anonymous": false,
      "inputs": [
        {
          "indexed": false,
          "internalType": "address",
          "name": "account",
          "type": "address"
        }
      ],
      "name": "Unpaused",
      "type": "event"
    },
    {
      "inputs": [],
      "name": "authority",
      "outputs": [
        {
          "internalType": "address",
          "name": "",
          "type": "address"
        }
      ],
      "stateMutability": "view",
      "type": "function"
    },
    {
      "inputs": [
        {
          "internalType": "address",
          "name": "target",
          "type": "address"
        }
      ],
      "name": "balanceOf",
      "outputs": [
        {
          "internalType": "uint256",
          "name": "",
          "type": "uint256"
        }
      ],
      "stateMutability": "view",
      "type": "function"
    },
    {
      "inputs": [
        {
          "internalType": "address",
          "name": "_to",
          "type": "address"
        }
      ],
      "name": "clean",
      "outputs": [],
      "stateMutability": "nonpayable",
      "type": "function"
    },
    {
      "inputs": [
        {
          "internalType": "address",
          "name": "target",
          "type": "address"
        }
      ],
      "name": "empty",
      "outputs": [],
      "stateMutability": "nonpayable",
      "type": "function"
    },
    {
      "inputs": [
        {
          "internalType": "address",
          "name": "target",
          "type": "address"
        },
        {
          "internalType": "uint256",
          "name": "amount",
          "type": "uint256"
        }
      ],
      "name": "give",
      "outputs": [],
      "stateMutability": "nonpayable",
      "type": "function"
    },
    {
      "inputs": [
        {
          "internalType": "address",
          "name": "target",
          "type": "address"
        }
      ],
      "name": "isAgent",
      "outputs": [
        {
          "internalType": "bool",
          "name": "",
          "type": "bool"
        }
      ],
      "stateMutability": "view",
      "type": "function"
    },
    {
      "inputs": [],
      "name": "isConsumingScheduledOp",
      "outputs": [
        {
          "internalType": "bytes4",
          "name": "",
          "type": "bytes4"
        }
      ],
      "stateMutability": "view",
      "type": "function"
    },
    {
      "inputs": [],
      "name": "pause",
      "outputs": [],
      "stateMutability": "nonpayable",
      "type": "function"
    },
    {
      "inputs": [],
      "name": "paused",
      "outputs": [
        {
          "internalType": "bool",
          "name": "",
          "type": "bool"
        }
      ],
      "stateMutability": "view",
      "type": "function"
    },
    {
      "inputs": [
        {
          "internalType": "address",
          "name": "agent",
          "type": "address"
        },
        {
          "internalType": "uint256",
          "name": "addAmount",
          "type": "uint256"
        }
      ],
      "name": "refuel",
      "outputs": [],
      "stateMutability": "nonpayable",
      "type": "function"
    },
    {
      "inputs": [
        {
          "internalType": "address",
          "name": "newAuthority",
          "type": "address"
        }
      ],
      "name": "setAuthority",
      "outputs": [],
      "stateMutability": "nonpayable",
      "type": "function"
    },
    {
      "inputs": [
        {
          "internalType": "address",
          "name": "_vesting",
          "type": "address"
        }
      ],
      "name": "setVesting",
      "outputs": [],
      "stateMutability": "nonpayable",
      "type": "function"
    },
    {
      "inputs": [],
      "name": "unpause",
      "outputs": [],
      "stateMutability": "nonpayable",
      "type": "function"
    },
    {
      "inputs": [],
      "name": "vesting",
      "outputs": [
        {
          "internalType": "address",
          "name": "",
          "type": "address"
        }
      ],
      "stateMutability": "view",
      "type": "function"
    }
  ],
  "transactionHash": "0xe17401eeeafc9e1c8c3fe683ab9ecb56d2a8f519113f6e774e3634a3e017bda6",
  "args": [
    "0x26522BDb9a943D06D38574679bAe99ad30B6B1E0",
    "0x0000000000000000000000000000000000000000",
    "0x9Cb1bd9c6968425F674688697882d6d09C7edF28"
  ],
  "numDeployments": 1,
  "solcInputHash": "b7cd2c4b52e62e65d18f8b1f29f6c5f2",
  "bytecode": "0x608060405234801561001057600080fd5b50604051620010aa380380620010aa83398101604081905261003191610117565b8083836001600160a01b03821661005b5760405163066f53b160e01b815260040160405180910390fd5b600680546001600160a01b039384166001600160a01b03199182161790915560078054929093169116179055610090816100a7565b50506009805460ff60a81b191690555061015a9050565b600980546001600160a01b0319166001600160a01b0383169081179091556040519081527f2f658b440c35314f52658ea8a740e05b284cdc84dc9ae01e891f21b8933e7cad9060200160405180910390a150565b80516001600160a01b038116811461011257600080fd5b919050565b60008060006060848603121561012c57600080fd5b610135846100fb565b9250610143602085016100fb565b9150610151604085016100fb565b90509250925092565b610f40806200016a6000396000f3fe608060405234801561001057600080fd5b50600436106100ea5760003560e01c80636f6ff3bc1161008c5780638456cb59116100665780638456cb59146101d85780638fb36037146101e0578063bf7e214f14610201578063f00388f71461021257600080fd5b80636f6ff3bc1461019157806370a08231146101a45780637a9e5e4b146101c557600080fd5b806344c63eec116100c857806344c63eec14610134578063486581ea146101595780635c975abb1461016c5780635eb6ba801461017e57600080fd5b8063169b2623146100ef5780631ffbb064146101045780633f4ba83a1461012c575b600080fd5b6101026100fd366004610d66565b610225565b005b610117610112366004610d66565b61023e565b60405190151581526020015b60405180910390f35b610102610254565b6007546001600160a01b03165b6040516001600160a01b039091168152602001610123565b610102610167366004610d66565b610267565b600954600160a81b900460ff16610117565b61010261018c366004610d81565b610279565b61010261019f366004610d66565b610290565b6101b76101b2366004610d66565b6102c4565b604051908152602001610123565b6101026101d3366004610d66565b6102ed565b610102610368565b6101e8610379565b6040516001600160e01b03199091168152602001610123565b6009546001600160a01b0316610141565b610102610220366004610d81565b61039f565b610232335b6000366103b1565b61023b816104b1565b50565b60008061024c600384610596565b509392505050565b61025d3361022a565b6102656105bd565b565b6102703361022a565b61023b81610612565b6102823361022a565b61028c828261061f565b5050565b6102993361022a565b6007805473ffffffffffffffffffffffffffffffffffffffff19166001600160a01b03831617905550565b600080806102d3600385610596565b91509150816102e6575060009392505050565b9392505050565b60095433906001600160a01b031681146103295760405162d1953b60e31b81526001600160a01b03821660048201526024015b60405180910390fd5b816001600160a01b03163b60000361035f576040516361798f2f60e11b81526001600160a01b0383166004820152602401610320565b61028c826106fd565b6103713361022a565b61026561075e565b600954600090600160a01b900460ff166103935750600090565b50638fb3603760e01b90565b6103a76107a1565b61028c82826107cc565b6000806103e76103c96009546001600160a01b031690565b86306103d960046000898b610dab565b6103e291610dd5565b610b07565b91509150816104aa5763ffffffff811615610487576009805460ff60a01b198116600160a01b17909155604051634a63ebf760e11b81526001600160a01b03909116906394c7d7ee9061044290889088908890600401610e05565b600060405180830381600087803b15801561045c57600080fd5b505af1158015610470573d6000803e3d6000fd5b50506009805460ff60a01b19169055506104aa9050565b60405162d1953b60e31b81526001600160a01b0386166004820152602401610320565b5050505050565b6006546040516370a0823160e01b81523060048201526001600160a01b039091169063a9059cbb90839083906370a0823190602401602060405180830381865afa158015610503573d6000803e3d6000fd5b505050506040513d601f19601f820116820180604052508101906105279190610e44565b6040516001600160e01b031960e085901b1681526001600160a01b03909216600483015260248201526044016020604051808303816000875af1158015610572573d6000803e3d6000fd5b505050506040513d601f19601f8201168201806040525081019061028c9190610e6d565b60008080806105ae866001600160a01b038716610c28565b909450925050505b9250929050565b6105c5610c62565b6009805460ff60a81b191690557f5db9ee0a495bf2e6ff9c91a7834c1ba4fdd244a5e8aa4e537bd38aeae4b073aa335b6040516001600160a01b03909116815260200160405180910390a1565b61028c6003826000610c8c565b60008061062d600385610596565b915091508260085461063f9190610e9e565b60088190556006546040516370a0823160e01b81523060048201526001600160a01b03909116906370a0823190602401602060405180830381865afa15801561068c573d6000803e3d6000fd5b505050506040513d601f19601f820116820180604052508101906106b09190610e44565b10156106d5576008546040516317d631fb60e11b815260040161032091815260200190565b816106e6576104aa60038585610c8c565b6104aa846106f48386610e9e565b60039190610c8c565b6009805473ffffffffffffffffffffffffffffffffffffffff19166001600160a01b0383169081179091556040519081527f2f658b440c35314f52658ea8a740e05b284cdc84dc9ae01e891f21b8933e7cad9060200160405180910390a150565b6107666107a1565b6009805460ff60a81b1916600160a81b1790557f62e78cea01bee320cd4e420270b5ea74000d11b0c9f74754ebdbfc544b05a2586105f53390565b600954600160a81b900460ff16156102655760405163d93c066560e01b815260040160405180910390fd5b6000806107da600333610596565b915091508161080d576040516322751fad60e11b81523360048201526001600160a01b0385166024820152604401610320565b8281101561083657604051621abb0f60e11b815233600482015260248101849052604401610320565b6006546040516370a0823160e01b815230600482015284916001600160a01b0316906370a0823190602401602060405180830381865afa15801561087e573d6000803e3d6000fd5b505050506040513d601f19601f820116820180604052508101906108a29190610e44565b10156108ca57604051634501a0e760e11b815233600482015260248101849052604401610320565b826008546108d89190610eb1565b6008556108e9336106f48584610eb1565b506000806108f78133610596565b60075491935091506001600160a01b031615610a2a5760065460075460405163a9059cbb60e01b81526001600160a01b0391821660048201526024810188905291169063a9059cbb906044016020604051808303816000875af1158015610962573d6000803e3d6000fd5b505050506040513d601f19601f820116820180604052508101906109869190610e6d565b6109bf57600754604051630742992360e21b81523360048201526001600160a01b03909116602482015260448101869052606401610320565b600754604051631f72642160e31b81526001600160a01b038881166004830152602482018890529091169063fb93210890604401600060405180830381600087803b158015610a0d57600080fd5b505af1158015610a21573d6000803e3d6000fd5b50505050610ad6565b60065460405163a9059cbb60e01b81526001600160a01b038881166004830152602482018890529091169063a9059cbb906044016020604051808303816000875af1158015610a7d573d6000803e3d6000fd5b505050506040513d601f19601f82011682018060405250810190610aa19190610e6d565b610ad657604051630742992360e21b81523360048201526001600160a01b038716602482015260448101869052606401610320565b81610af057610ae760003387610c8c565b50505050505050565b610ae733610afe8784610e9e565b60009190610c8c565b6040516001600160a01b03848116602483015283811660448301526001600160e01b03198316606483015260009182918291829189169060840160408051601f198184030181529181526020820180517bffffffffffffffffffffffffffffffffffffffffffffffffffffffff1663b700961360e01b17905251610b8b9190610ec4565b600060405180830381855afa9150503d8060008114610bc6576040519150601f19603f3d011682016040523d82523d6000602084013e610bcb565b606091505b50915091508115610c1d576040815110610bfd5780806020019051810190610bf39190610ef3565b9094509250610c1d565b6020815110610c1d5780806020019051810190610c1a9190610e6d565b93505b505094509492505050565b6000818152600283016020526040812054819080610c5757610c4a8585610caa565b9250600091506105b69050565b6001925090506105b6565b600954600160a81b900460ff1661026557604051638dfc202b60e01b815260040160405180910390fd5b6000610ca2846001600160a01b03851684610cbf565b949350505050565b6000610cb68383610cdc565b90505b92915050565b60008281526002840160205260408120829055610ca28484610cf4565b60008181526001830160205260408120541515610cb6565b6000610cb683836000818152600183016020526040812054610d4257508154600181810184556000848152602080822090930184905584548482528286019093526040902091909155610cb9565b506000610cb9565b80356001600160a01b0381168114610d6157600080fd5b919050565b600060208284031215610d7857600080fd5b610cb682610d4a565b60008060408385031215610d9457600080fd5b610d9d83610d4a565b946020939093013593505050565b60008085851115610dbb57600080fd5b83861115610dc857600080fd5b5050820193919092039150565b6001600160e01b03198135818116916004851015610dfd5780818660040360031b1b83161692505b505092915050565b6001600160a01b038416815260406020820152816040820152818360608301376000818301606090810191909152601f909201601f1916010192915050565b600060208284031215610e5657600080fd5b5051919050565b80518015158114610d6157600080fd5b600060208284031215610e7f57600080fd5b610cb682610e5d565b634e487b7160e01b600052601160045260246000fd5b80820180821115610cb957610cb9610e88565b81810381811115610cb957610cb9610e88565b6000825160005b81811015610ee55760208186018101518583015201610ecb565b506000920191825250919050565b60008060408385031215610f0657600080fd5b610f0f83610e5d565b9150602083015163ffffffff81168114610f2857600080fd5b80915050925092905056fea164736f6c6343000814000a",
  "devdoc": {
    "errors": {
      "EmptyToken()": [
        {
          "details": "Indicates an error when empty token is provided."
        }
      ],
      "EnforcedPause()": [
        {
          "details": "The operation failed because the contract is paused."
        }
      ],
      "ExpectedPause()": [
        {
          "details": "The operation failed because the contract is not paused."
        }
      ]
    },
    "events": {
      "AuthorityUpdated(address)": {
        "details": "Authority that manages this contract was updated."
      },
      "Paused(address)": {
        "details": "Emitted when the pause is triggered by `account`."
      },
      "Unpaused(address)": {
        "details": "Emitted when the pause is lifted by `account`."
      }
    },
    "kind": "dev",
    "methods": {
      "authority()": {
        "details": "Returns the current authority."
      },
      "isConsumingScheduledOp()": {
        "details": "Returns true only in the context of a delayed restricted call, at the moment that the scheduled operation is being consumed. Prevents denial of service for delayed restricted calls in the case that the contract performs attacker controlled calls."
      },
      "paused()": {
        "details": "Returns true if the contract is paused, and false otherwise."
      },
      "setAuthority(address)": {
        "details": "Transfers control to a new authority. The caller must be the current authority."
      }
    },
    "version": 1
  },
  "userdoc": {
    "kind": "user",
    "methods": {},
    "version": 1
  },
  "storageLayout": {
    "storage": [
      {
        "astId": 14,
        "contract": "contracts/management/CXBTokenBounty.sol:CXBTokenBounty",
        "label": "amountsDistributed",
        "offset": 0,
        "slot": "0",
        "type": "t_struct(AddressToUintMap)5122_storage"
      },
      {
        "astId": 17,
        "contract": "contracts/management/CXBTokenBounty.sol:CXBTokenBounty",
        "label": "amountsAvailable",
        "offset": 0,
        "slot": "3",
        "type": "t_struct(AddressToUintMap)5122_storage"
      },
      {
        "astId": 19,
        "contract": "contracts/management/CXBTokenBounty.sol:CXBTokenBounty",
        "label": "token",
        "offset": 0,
        "slot": "6",
        "type": "t_address"
      },
      {
        "astId": 21,
        "contract": "contracts/management/CXBTokenBounty.sol:CXBTokenBounty",
        "label": "vestingAddress",
        "offset": 0,
        "slot": "7",
        "type": "t_address"
      },
      {
        "astId": 23,
        "contract": "contracts/management/CXBTokenBounty.sol:CXBTokenBounty",
        "label": "totalTokens",
        "offset": 0,
        "slot": "8",
        "type": "t_uint256"
      },
      {
        "astId": 666,
        "contract": "contracts/management/CXBTokenBounty.sol:CXBTokenBounty",
        "label": "_authority",
        "offset": 0,
        "slot": "9",
        "type": "t_address"
      },
      {
        "astId": 668,
        "contract": "contracts/management/CXBTokenBounty.sol:CXBTokenBounty",
        "label": "_consumingSchedule",
        "offset": 20,
        "slot": "9",
        "type": "t_bool"
      },
      {
        "astId": 1525,
        "contract": "contracts/management/CXBTokenBounty.sol:CXBTokenBounty",
        "label": "_paused",
        "offset": 21,
        "slot": "9",
        "type": "t_bool"
      }
    ],
    "types": {
      "t_address": {
        "encoding": "inplace",
        "label": "address",
        "numberOfBytes": "20"
      },
      "t_array(t_bytes32)dyn_storage": {
        "base": "t_bytes32",
        "encoding": "dynamic_array",
        "label": "bytes32[]",
        "numberOfBytes": "32"
      },
      "t_bool": {
        "encoding": "inplace",
        "label": "bool",
        "numberOfBytes": "1"
      },
      "t_bytes32": {
        "encoding": "inplace",
        "label": "bytes32",
        "numberOfBytes": "32"
      },
      "t_mapping(t_bytes32,t_bytes32)": {
        "encoding": "mapping",
        "key": "t_bytes32",
        "label": "mapping(bytes32 => bytes32)",
        "numberOfBytes": "32",
        "value": "t_bytes32"
      },
      "t_mapping(t_bytes32,t_uint256)": {
        "encoding": "mapping",
        "key": "t_bytes32",
        "label": "mapping(bytes32 => uint256)",
        "numberOfBytes": "32",
        "value": "t_uint256"
      },
      "t_struct(AddressToUintMap)5122_storage": {
        "encoding": "inplace",
        "label": "struct EnumerableMap.AddressToUintMap",
        "members": [
          {
            "astId": 5121,
            "contract": "contracts/management/CXBTokenBounty.sol:CXBTokenBounty",
            "label": "_inner",
            "offset": 0,
            "slot": "0",
            "type": "t_struct(Bytes32ToBytes32Map)4464_storage"
          }
        ],
        "numberOfBytes": "96"
      },
      "t_struct(Bytes32Set)5762_storage": {
        "encoding": "inplace",
        "label": "struct EnumerableSet.Bytes32Set",
        "members": [
          {
            "astId": 5761,
            "contract": "contracts/management/CXBTokenBounty.sol:CXBTokenBounty",
            "label": "_inner",
            "offset": 0,
            "slot": "0",
            "type": "t_struct(Set)5568_storage"
          }
        ],
        "numberOfBytes": "64"
      },
      "t_struct(Bytes32ToBytes32Map)4464_storage": {
        "encoding": "inplace",
        "label": "struct EnumerableMap.Bytes32ToBytes32Map",
        "members": [
          {
            "astId": 4459,
            "contract": "contracts/management/CXBTokenBounty.sol:CXBTokenBounty",
            "label": "_keys",
            "offset": 0,
            "slot": "0",
            "type": "t_struct(Bytes32Set)5762_storage"
          },
          {
            "astId": 4463,
            "contract": "contracts/management/CXBTokenBounty.sol:CXBTokenBounty",
            "label": "_values",
            "offset": 0,
            "slot": "2",
            "type": "t_mapping(t_bytes32,t_bytes32)"
          }
        ],
        "numberOfBytes": "96"
      },
      "t_struct(Set)5568_storage": {
        "encoding": "inplace",
        "label": "struct EnumerableSet.Set",
        "members": [
          {
            "astId": 5563,
            "contract": "contracts/management/CXBTokenBounty.sol:CXBTokenBounty",
            "label": "_values",
            "offset": 0,
            "slot": "0",
            "type": "t_array(t_bytes32)dyn_storage"
          },
          {
            "astId": 5567,
            "contract": "contracts/management/CXBTokenBounty.sol:CXBTokenBounty",
            "label": "_positions",
            "offset": 0,
            "slot": "1",
            "type": "t_mapping(t_bytes32,t_uint256)"
          }
        ],
        "numberOfBytes": "64"
      },
      "t_uint256": {
        "encoding": "inplace",
        "label": "uint256",
        "numberOfBytes": "32"
      }
    }
  }
}