{
  "address": "0x80C158342f19b044a7F5704C338B94bAe474151e",
  "abi": [
    {
      "inputs": [
        {
          "internalType": "address",
          "name": "initialOwner",
          "type": "address"
        },
        {
          "internalType": "address[]",
          "name": "_workers",
          "type": "address[]"
        }
      ],
      "stateMutability": "nonpayable",
      "type": "constructor"
    },
    {
      "inputs": [
        {
          "internalType": "bytes32",
          "name": "operationId",
          "type": "bytes32"
        }
      ],
      "name": "AccessManagerAlreadyScheduled",
      "type": "error"
    },
    {
      "inputs": [],
      "name": "AccessManagerBadConfirmation",
      "type": "error"
    },
    {
      "inputs": [
        {
          "internalType": "bytes32",
          "name": "operationId",
          "type": "bytes32"
        }
      ],
      "name": "AccessManagerExpired",
      "type": "error"
    },
    {
      "inputs": [
        {
          "internalType": "address",
          "name": "initialAdmin",
          "type": "address"
        }
      ],
      "name": "AccessManagerInvalidInitialAdmin",
      "type": "error"
    },
    {
      "inputs": [
        {
          "internalType": "address",
          "name": "account",
          "type": "address"
        }
      ],
      "name": "AccessManagerLockedAccount",
      "type": "error"
    },
    {
      "inputs": [
        {
          "internalType": "uint64",
          "name": "roleId",
          "type": "uint64"
        }
      ],
      "name": "AccessManagerLockedRole",
      "type": "error"
    },
    {
      "inputs": [
        {
          "internalType": "bytes32",
          "name": "operationId",
          "type": "bytes32"
        }
      ],
      "name": "AccessManagerNotReady",
      "type": "error"
    },
    {
      "inputs": [
        {
          "internalType": "bytes32",
          "name": "operationId",
          "type": "bytes32"
        }
      ],
      "name": "AccessManagerNotScheduled",
      "type": "error"
    },
    {
      "inputs": [
        {
          "internalType": "address",
          "name": "msgsender",
          "type": "address"
        },
        {
          "internalType": "uint64",
          "name": "roleId",
          "type": "uint64"
        }
      ],
      "name": "AccessManagerUnauthorizedAccount",
      "type": "error"
    },
    {
      "inputs": [
        {
          "internalType": "address",
          "name": "caller",
          "type": "address"
        },
        {
          "internalType": "address",
          "name": "target",
          "type": "address"
        },
        {
          "internalType": "bytes4",
          "name": "selector",
          "type": "bytes4"
        }
      ],
      "name": "AccessManagerUnauthorizedCall",
      "type": "error"
    },
    {
      "inputs": [
        {
          "internalType": "address",
          "name": "msgsender",
          "type": "address"
        },
        {
          "internalType": "address",
          "name": "caller",
          "type": "address"
        },
        {
          "internalType": "address",
          "name": "target",
          "type": "address"
        },
        {
          "internalType": "bytes4",
          "name": "selector",
          "type": "bytes4"
        }
      ],
      "name": "AccessManagerUnauthorizedCancel",
      "type": "error"
    },
    {
      "inputs": [
        {
          "internalType": "address",
          "name": "target",
          "type": "address"
        }
      ],
      "name": "AccessManagerUnauthorizedConsume",
      "type": "error"
    },
    {
      "inputs": [
        {
          "internalType": "address",
          "name": "target",
          "type": "address"
        }
      ],
      "name": "AddressEmptyCode",
      "type": "error"
    },
    {
      "inputs": [
        {
          "internalType": "address",
          "name": "account",
          "type": "address"
        }
      ],
      "name": "AddressInsufficientBalance",
      "type": "error"
    },
    {
      "inputs": [],
      "name": "EmptyAddress",
      "type": "error"
    },
    {
      "inputs": [],
      "name": "EmptyAuthority",
      "type": "error"
    },
    {
      "inputs": [],
      "name": "FailedInnerCall",
      "type": "error"
    },
    {
      "inputs": [],
      "name": "NotAnAdmin",
      "type": "error"
    },
    {
      "inputs": [
        {
          "internalType": "uint256",
          "name": "i",
          "type": "uint256"
        }
      ],
      "name": "OutOfBounds",
      "type": "error"
    },
    {
      "inputs": [
        {
          "internalType": "uint8",
          "name": "bits",
          "type": "uint8"
        },
        {
          "internalType": "uint256",
          "name": "value",
          "type": "uint256"
        }
      ],
      "name": "SafeCastOverflowedUintDowncast",
      "type": "error"
    },
    {
      "anonymous": false,
      "inputs": [
        {
          "indexed": true,
          "internalType": "bytes32",
          "name": "operationId",
          "type": "bytes32"
        },
        {
          "indexed": true,
          "internalType": "uint32",
          "name": "nonce",
          "type": "uint32"
        }
      ],
      "name": "OperationCanceled",
      "type": "event"
    },
    {
      "anonymous": false,
      "inputs": [
        {
          "indexed": true,
          "internalType": "bytes32",
          "name": "operationId",
          "type": "bytes32"
        },
        {
          "indexed": true,
          "internalType": "uint32",
          "name": "nonce",
          "type": "uint32"
        }
      ],
      "name": "OperationExecuted",
      "type": "event"
    },
    {
      "anonymous": false,
      "inputs": [
        {
          "indexed": true,
          "internalType": "bytes32",
          "name": "operationId",
          "type": "bytes32"
        },
        {
          "indexed": true,
          "internalType": "uint32",
          "name": "nonce",
          "type": "uint32"
        },
        {
          "indexed": false,
          "internalType": "uint48",
          "name": "schedule",
          "type": "uint48"
        },
        {
          "indexed": false,
          "internalType": "address",
          "name": "caller",
          "type": "address"
        },
        {
          "indexed": false,
          "internalType": "address",
          "name": "target",
          "type": "address"
        },
        {
          "indexed": false,
          "internalType": "bytes",
          "name": "data",
          "type": "bytes"
        }
      ],
      "name": "OperationScheduled",
      "type": "event"
    },
    {
      "anonymous": false,
      "inputs": [
        {
          "indexed": true,
          "internalType": "uint64",
          "name": "roleId",
          "type": "uint64"
        },
        {
          "indexed": true,
          "internalType": "uint64",
          "name": "admin",
          "type": "uint64"
        }
      ],
      "name": "RoleAdminChanged",
      "type": "event"
    },
    {
      "anonymous": false,
      "inputs": [
        {
          "indexed": true,
          "internalType": "uint64",
          "name": "roleId",
          "type": "uint64"
        },
        {
          "indexed": false,
          "internalType": "uint32",
          "name": "delay",
          "type": "uint32"
        },
        {
          "indexed": false,
          "internalType": "uint48",
          "name": "since",
          "type": "uint48"
        }
      ],
      "name": "RoleGrantDelayChanged",
      "type": "event"
    },
    {
      "anonymous": false,
      "inputs": [
        {
          "indexed": true,
          "internalType": "uint64",
          "name": "roleId",
          "type": "uint64"
        },
        {
          "indexed": true,
          "internalType": "address",
          "name": "account",
          "type": "address"
        },
        {
          "indexed": false,
          "internalType": "uint32",
          "name": "delay",
          "type": "uint32"
        },
        {
          "indexed": false,
          "internalType": "uint48",
          "name": "since",
          "type": "uint48"
        },
        {
          "indexed": false,
          "internalType": "bool",
          "name": "newMember",
          "type": "bool"
        }
      ],
      "name": "RoleGranted",
      "type": "event"
    },
    {
      "anonymous": false,
      "inputs": [
        {
          "indexed": true,
          "internalType": "uint64",
          "name": "roleId",
          "type": "uint64"
        },
        {
          "indexed": true,
          "internalType": "uint64",
          "name": "guardian",
          "type": "uint64"
        }
      ],
      "name": "RoleGuardianChanged",
      "type": "event"
    },
    {
      "anonymous": false,
      "inputs": [
        {
          "indexed": true,
          "internalType": "uint64",
          "name": "roleId",
          "type": "uint64"
        },
        {
          "indexed": false,
          "internalType": "string",
          "name": "label",
          "type": "string"
        }
      ],
      "name": "RoleLabel",
      "type": "event"
    },
    {
      "anonymous": false,
      "inputs": [
        {
          "indexed": true,
          "internalType": "uint64",
          "name": "roleId",
          "type": "uint64"
        },
        {
          "indexed": true,
          "internalType": "address",
          "name": "account",
          "type": "address"
        }
      ],
      "name": "RoleRevoked",
      "type": "event"
    },
    {
      "anonymous": false,
      "inputs": [
        {
          "indexed": true,
          "internalType": "address",
          "name": "target",
          "type": "address"
        },
        {
          "indexed": false,
          "internalType": "uint32",
          "name": "delay",
          "type": "uint32"
        },
        {
          "indexed": false,
          "internalType": "uint48",
          "name": "since",
          "type": "uint48"
        }
      ],
      "name": "TargetAdminDelayUpdated",
      "type": "event"
    },
    {
      "anonymous": false,
      "inputs": [
        {
          "indexed": true,
          "internalType": "address",
          "name": "target",
          "type": "address"
        },
        {
          "indexed": false,
          "internalType": "bool",
          "name": "closed",
          "type": "bool"
        }
      ],
      "name": "TargetClosed",
      "type": "event"
    },
    {
      "anonymous": false,
      "inputs": [
        {
          "indexed": true,
          "internalType": "address",
          "name": "target",
          "type": "address"
        },
        {
          "indexed": false,
          "internalType": "bytes4",
          "name": "selector",
          "type": "bytes4"
        },
        {
          "indexed": true,
          "internalType": "uint64",
          "name": "roleId",
          "type": "uint64"
        }
      ],
      "name": "TargetFunctionRoleUpdated",
      "type": "event"
    },
    {
      "inputs": [],
      "name": "ADMIN_ROLE",
      "outputs": [
        {
          "internalType": "uint64",
          "name": "",
          "type": "uint64"
        }
      ],
      "stateMutability": "view",
      "type": "function"
    },
    {
      "inputs": [],
      "name": "PUBLIC_ROLE",
      "outputs": [
        {
          "internalType": "uint64",
          "name": "",
          "type": "uint64"
        }
      ],
      "stateMutability": "view",
      "type": "function"
    },
    {
      "inputs": [
        {
          "internalType": "address",
          "name": "_worker",
          "type": "address"
        }
      ],
      "name": "addWorker",
      "outputs": [
        {
          "internalType": "bool",
          "name": "",
          "type": "bool"
        }
      ],
      "stateMutability": "nonpayable",
      "type": "function"
    },
    {
      "inputs": [
        {
          "internalType": "uint256",
          "name": "i",
          "type": "uint256"
        }
      ],
      "name": "at",
      "outputs": [
        {
          "internalType": "address",
          "name": "",
          "type": "address"
        }
      ],
      "stateMutability": "nonpayable",
      "type": "function"
    },
    {
      "inputs": [
        {
          "internalType": "address",
          "name": "caller",
          "type": "address"
        },
        {
          "internalType": "address",
          "name": "target",
          "type": "address"
        },
        {
          "internalType": "bytes4",
          "name": "selector",
          "type": "bytes4"
        }
      ],
      "name": "canCall",
      "outputs": [
        {
          "internalType": "bool",
          "name": "immediate",
          "type": "bool"
        },
        {
          "internalType": "uint32",
          "name": "delay",
          "type": "uint32"
        }
      ],
      "stateMutability": "view",
      "type": "function"
    },
    {
      "inputs": [
        {
          "internalType": "address",
          "name": "caller",
          "type": "address"
        },
        {
          "internalType": "address",
          "name": "target",
          "type": "address"
        },
        {
          "internalType": "bytes",
          "name": "data",
          "type": "bytes"
        }
      ],
      "name": "cancel",
      "outputs": [
        {
          "internalType": "uint32",
          "name": "",
          "type": "uint32"
        }
      ],
      "stateMutability": "nonpayable",
      "type": "function"
    },
    {
      "inputs": [
        {
          "internalType": "address",
          "name": "caller",
          "type": "address"
        },
        {
          "internalType": "bytes",
          "name": "data",
          "type": "bytes"
        }
      ],
      "name": "consumeScheduledOp",
      "outputs": [],
      "stateMutability": "nonpayable",
      "type": "function"
    },
    {
      "inputs": [
        {
          "internalType": "address",
          "name": "target",
          "type": "address"
        },
        {
          "internalType": "bytes",
          "name": "data",
          "type": "bytes"
        }
      ],
      "name": "execute",
      "outputs": [
        {
          "internalType": "uint32",
          "name": "",
          "type": "uint32"
        }
      ],
      "stateMutability": "payable",
      "type": "function"
    },
    {
      "inputs": [],
      "name": "expiration",
      "outputs": [
        {
          "internalType": "uint32",
          "name": "",
          "type": "uint32"
        }
      ],
      "stateMutability": "view",
      "type": "function"
    },
    {
      "inputs": [
        {
          "internalType": "uint64",
          "name": "roleId",
          "type": "uint64"
        },
        {
          "internalType": "address",
          "name": "account",
          "type": "address"
        }
      ],
      "name": "getAccess",
      "outputs": [
        {
          "internalType": "uint48",
          "name": "since",
          "type": "uint48"
        },
        {
          "internalType": "uint32",
          "name": "currentDelay",
          "type": "uint32"
        },
        {
          "internalType": "uint32",
          "name": "pendingDelay",
          "type": "uint32"
        },
        {
          "internalType": "uint48",
          "name": "effect",
          "type": "uint48"
        }
      ],
      "stateMutability": "view",
      "type": "function"
    },
    {
      "inputs": [
        {
          "internalType": "bytes32",
          "name": "id",
          "type": "bytes32"
        }
      ],
      "name": "getNonce",
      "outputs": [
        {
          "internalType": "uint32",
          "name": "",
          "type": "uint32"
        }
      ],
      "stateMutability": "view",
      "type": "function"
    },
    {
      "inputs": [
        {
          "internalType": "uint64",
          "name": "roleId",
          "type": "uint64"
        }
      ],
      "name": "getRoleAdmin",
      "outputs": [
        {
          "internalType": "uint64",
          "name": "",
          "type": "uint64"
        }
      ],
      "stateMutability": "view",
      "type": "function"
    },
    {
      "inputs": [
        {
          "internalType": "uint64",
          "name": "roleId",
          "type": "uint64"
        }
      ],
      "name": "getRoleGrantDelay",
      "outputs": [
        {
          "internalType": "uint32",
          "name": "",
          "type": "uint32"
        }
      ],
      "stateMutability": "view",
      "type": "function"
    },
    {
      "inputs": [
        {
          "internalType": "uint64",
          "name": "roleId",
          "type": "uint64"
        }
      ],
      "name": "getRoleGuardian",
      "outputs": [
        {
          "internalType": "uint64",
          "name": "",
          "type": "uint64"
        }
      ],
      "stateMutability": "view",
      "type": "function"
    },
    {
      "inputs": [
        {
          "internalType": "bytes32",
          "name": "id",
          "type": "bytes32"
        }
      ],
      "name": "getSchedule",
      "outputs": [
        {
          "internalType": "uint48",
          "name": "",
          "type": "uint48"
        }
      ],
      "stateMutability": "view",
      "type": "function"
    },
    {
      "inputs": [
        {
          "internalType": "address",
          "name": "target",
          "type": "address"
        }
      ],
      "name": "getTargetAdminDelay",
      "outputs": [
        {
          "internalType": "uint32",
          "name": "",
          "type": "uint32"
        }
      ],
      "stateMutability": "view",
      "type": "function"
    },
    {
      "inputs": [
        {
          "internalType": "address",
          "name": "target",
          "type": "address"
        },
        {
          "internalType": "bytes4",
          "name": "selector",
          "type": "bytes4"
        }
      ],
      "name": "getTargetFunctionRole",
      "outputs": [
        {
          "internalType": "uint64",
          "name": "",
          "type": "uint64"
        }
      ],
      "stateMutability": "view",
      "type": "function"
    },
    {
      "inputs": [
        {
          "internalType": "uint64",
          "name": "roleId",
          "type": "uint64"
        },
        {
          "internalType": "address",
          "name": "account",
          "type": "address"
        },
        {
          "internalType": "uint32",
          "name": "executionDelay",
          "type": "uint32"
        }
      ],
      "name": "grantRole",
      "outputs": [],
      "stateMutability": "nonpayable",
      "type": "function"
    },
    {
      "inputs": [
        {
          "internalType": "uint64",
          "name": "roleId",
          "type": "uint64"
        },
        {
          "internalType": "address",
          "name": "account",
          "type": "address"
        }
      ],
      "name": "hasRole",
      "outputs": [
        {
          "internalType": "bool",
          "name": "isMember",
          "type": "bool"
        },
        {
          "internalType": "uint32",
          "name": "executionDelay",
          "type": "uint32"
        }
      ],
      "stateMutability": "view",
      "type": "function"
    },
    {
      "inputs": [
        {
          "internalType": "address",
          "name": "caller",
          "type": "address"
        },
        {
          "internalType": "address",
          "name": "target",
          "type": "address"
        },
        {
          "internalType": "bytes",
          "name": "data",
          "type": "bytes"
        }
      ],
      "name": "hashOperation",
      "outputs": [
        {
          "internalType": "bytes32",
          "name": "",
          "type": "bytes32"
        }
      ],
      "stateMutability": "view",
      "type": "function"
    },
    {
      "inputs": [
        {
          "internalType": "address",
          "name": "_worker",
          "type": "address"
        }
      ],
      "name": "haveWorker",
      "outputs": [
        {
          "internalType": "bool",
          "name": "",
          "type": "bool"
        }
      ],
      "stateMutability": "view",
      "type": "function"
    },
    {
      "inputs": [
        {
          "internalType": "address",
          "name": "target",
          "type": "address"
        }
      ],
      "name": "isTargetClosed",
      "outputs": [
        {
          "internalType": "bool",
          "name": "",
          "type": "bool"
        }
      ],
      "stateMutability": "view",
      "type": "function"
    },
    {
      "inputs": [
        {
          "internalType": "uint64",
          "name": "roleId",
          "type": "uint64"
        },
        {
          "internalType": "string",
          "name": "label",
          "type": "string"
        }
      ],
      "name": "labelRole",
      "outputs": [],
      "stateMutability": "nonpayable",
      "type": "function"
    },
    {
      "inputs": [],
      "name": "minSetback",
      "outputs": [
        {
          "internalType": "uint32",
          "name": "",
          "type": "uint32"
        }
      ],
      "stateMutability": "view",
      "type": "function"
    },
    {
      "inputs": [
        {
          "internalType": "bytes[]",
          "name": "data",
          "type": "bytes[]"
        }
      ],
      "name": "multicall",
      "outputs": [
        {
          "internalType": "bytes[]",
          "name": "results",
          "type": "bytes[]"
        }
      ],
      "stateMutability": "nonpayable",
      "type": "function"
    },
    {
      "inputs": [
        {
          "internalType": "address",
          "name": "_worker",
          "type": "address"
        }
      ],
      "name": "remove",
      "outputs": [],
      "stateMutability": "nonpayable",
      "type": "function"
    },
    {
      "inputs": [
        {
          "internalType": "uint256",
          "name": "i",
          "type": "uint256"
        }
      ],
      "name": "removeAt",
      "outputs": [],
      "stateMutability": "nonpayable",
      "type": "function"
    },
    {
      "inputs": [
        {
          "internalType": "uint64",
          "name": "roleId",
          "type": "uint64"
        },
        {
          "internalType": "address",
          "name": "callerConfirmation",
          "type": "address"
        }
      ],
      "name": "renounceRole",
      "outputs": [],
      "stateMutability": "nonpayable",
      "type": "function"
    },
    {
      "inputs": [
        {
          "internalType": "uint64",
          "name": "roleId",
          "type": "uint64"
        },
        {
          "internalType": "address",
          "name": "account",
          "type": "address"
        }
      ],
      "name": "revokeRole",
      "outputs": [],
      "stateMutability": "nonpayable",
      "type": "function"
    },
    {
      "inputs": [
        {
          "internalType": "address",
          "name": "target",
          "type": "address"
        },
        {
          "internalType": "bytes",
          "name": "data",
          "type": "bytes"
        },
        {
          "internalType": "uint48",
          "name": "when",
          "type": "uint48"
        }
      ],
      "name": "schedule",
      "outputs": [
        {
          "internalType": "bytes32",
          "name": "operationId",
          "type": "bytes32"
        },
        {
          "internalType": "uint32",
          "name": "nonce",
          "type": "uint32"
        }
      ],
      "stateMutability": "nonpayable",
      "type": "function"
    },
    {
      "inputs": [
        {
          "internalType": "uint64",
          "name": "roleId",
          "type": "uint64"
        },
        {
          "internalType": "uint32",
          "name": "newDelay",
          "type": "uint32"
        }
      ],
      "name": "setGrantDelay",
      "outputs": [],
      "stateMutability": "nonpayable",
      "type": "function"
    },
    {
      "inputs": [
        {
          "internalType": "uint64",
          "name": "roleId",
          "type": "uint64"
        },
        {
          "internalType": "uint64",
          "name": "admin",
          "type": "uint64"
        }
      ],
      "name": "setRoleAdmin",
      "outputs": [],
      "stateMutability": "nonpayable",
      "type": "function"
    },
    {
      "inputs": [
        {
          "internalType": "uint64",
          "name": "roleId",
          "type": "uint64"
        },
        {
          "internalType": "uint64",
          "name": "guardian",
          "type": "uint64"
        }
      ],
      "name": "setRoleGuardian",
      "outputs": [],
      "stateMutability": "nonpayable",
      "type": "function"
    },
    {
      "inputs": [
        {
          "internalType": "address",
          "name": "target",
          "type": "address"
        },
        {
          "internalType": "uint32",
          "name": "newDelay",
          "type": "uint32"
        }
      ],
      "name": "setTargetAdminDelay",
      "outputs": [],
      "stateMutability": "nonpayable",
      "type": "function"
    },
    {
      "inputs": [
        {
          "internalType": "address",
          "name": "target",
          "type": "address"
        },
        {
          "internalType": "bool",
          "name": "closed",
          "type": "bool"
        }
      ],
      "name": "setTargetClosed",
      "outputs": [],
      "stateMutability": "nonpayable",
      "type": "function"
    },
    {
      "inputs": [
        {
          "internalType": "address",
          "name": "target",
          "type": "address"
        },
        {
          "internalType": "bytes4[]",
          "name": "selectors",
          "type": "bytes4[]"
        },
        {
          "internalType": "uint64",
          "name": "roleId",
          "type": "uint64"
        }
      ],
      "name": "setTargetFunctionRole",
      "outputs": [],
      "stateMutability": "nonpayable",
      "type": "function"
    },
    {
      "inputs": [],
      "name": "total",
      "outputs": [
        {
          "internalType": "uint256",
          "name": "",
          "type": "uint256"
        }
      ],
      "stateMutability": "view",
      "type": "function"
    },
    {
      "inputs": [
        {
          "internalType": "address",
          "name": "newAuthority",
          "type": "address"
        }
      ],
      "name": "transferAuthority",
      "outputs": [],
      "stateMutability": "nonpayable",
      "type": "function"
    },
    {
      "inputs": [
        {
          "internalType": "address",
          "name": "target",
          "type": "address"
        },
        {
          "internalType": "address",
          "name": "newAuthority",
          "type": "address"
        }
      ],
      "name": "updateAuthority",
      "outputs": [],
      "stateMutability": "nonpayable",
      "type": "function"
    },
    {
      "inputs": [],
      "name": "values",
      "outputs": [
        {
          "internalType": "address[]",
          "name": "",
          "type": "address[]"
        }
      ],
      "stateMutability": "view",
      "type": "function"
    }
  ],
  "transactionHash": "0xfd7cc00e3d9389efa79ad9d2353ef93efdcfb240ead0832eacde955bd79c45f9",
  "args": [
    "0x9Cb1bd9c6968425F674688697882d6d09C7edF28",
    [
      "0x26522BDb9a943D06D38574679bAe99ad30B6B1E0"
    ]
  ],
  "numDeployments": 2,
  "solcInputHash": "de2fca4a40a7d1f797777e991eead84f",
  "bytecode": "0x60806040523480156200001157600080fd5b5060405162003a8f38038062003a8f83398101604081905262000034916200058f565b8181816001600160a01b0381166200006757604051630409d6d160e11b8152600060048201526024015b60405180910390fd5b620000766000828180620000d8565b505060005b8151811015620000cd57620000b78282815181106200009e576200009e62000678565b602002602001015160046200032f60201b90919060201c565b5080620000c481620006a4565b9150506200007b565b505050505062000709565b60006002600160401b03196001600160401b03861601620001185760405163061c6a4360e21b81526001600160401b03861660048201526024016200005e565b6001600160401b03851660009081526001602090815260408083206001600160a01b038816845290915281205465ffffffffffff1615908115620002175763ffffffff8516620001676200034f565b620001739190620006c0565b905060405180604001604052808265ffffffffffff168152602001620001a58663ffffffff166200036160201b60201c565b6001600160701b039081169091526001600160401b03891660009081526001602090815260408083206001600160a01b038c16845282529091208351815494909201519092166601000000000000026001600160a01b031990931665ffffffffffff90911617919091179055620002c1565b6001600160401b03871660009081526001602090815260408083206001600160a01b038a168452909152812054620002669166010000000000009091046001600160701b03169086906200036a565b6001600160401b03891660009081526001602090815260408083206001600160a01b038c168452909152902080546001600160701b03909316660100000000000002600160301b600160a01b03199093169290921790915590505b6040805163ffffffff8616815265ffffffffffff831660208201528315158183015290516001600160a01b038816916001600160401b038a16917ff98448b987f1428e0e230e1f3c6e2ce15b5693eaf31827fbd0b1ec4b424ae7cf9181900360600190a35095945050505050565b600062000346836001600160a01b0384166200041f565b90505b92915050565b60006200035c4262000471565b905090565b63ffffffff1690565b60008080620003826001600160701b038716620004aa565b90506000620003c58563ffffffff168763ffffffff168463ffffffff1611620003ad576000620003b9565b620003b98885620006e9565b63ffffffff16620004cb565b905063ffffffff8116620003d86200034f565b620003e49190620006c0565b925063ffffffff8616602083901b67ffffffff0000000016604085901b6dffffffffffff000000000000000016171793505050935093915050565b6000818152600183016020526040812054620004685750815460018181018455600084815260208082209093018490558454848252828601909352604090209190915562000349565b50600062000349565b600065ffffffffffff821115620004a6576040516306dfcc6560e41b815260306004820152602481018390526044016200005e565b5090565b600080620004c16001600160701b038416620004e3565b5090949350505050565b6000818311620004dc578162000346565b5090919050565b60008080620004fc84620004f66200034f565b62000509565b9250925092509193909250565b600080806001600160501b03602086901c166001600160701b03861665ffffffffffff604088901c811690871681111562000547578282826200054c565b816000805b9550955095505050509250925092565b80516001600160a01b03811681146200057457600080fd5b919050565b634e487b7160e01b600052604160045260246000fd5b60008060408385031215620005a357600080fd5b620005ae836200055c565b602084810151919350906001600160401b0380821115620005ce57600080fd5b818601915086601f830112620005e357600080fd5b815181811115620005f857620005f862000579565b8060051b604051601f19603f8301168101818110858211171562000620576200062062000579565b6040529182528482019250838101850191898311156200063f57600080fd5b938501935b82851015620006685762000658856200055c565b8452938501939285019262000644565b8096505050505050509250929050565b634e487b7160e01b600052603260045260246000fd5b634e487b7160e01b600052601160045260246000fd5b600060018201620006b957620006b96200068e565b5060010190565b65ffffffffffff818116838216019080821115620006e257620006e26200068e565b5092915050565b63ffffffff828116828216039080821115620006e257620006e26200068e565b61337680620007196000396000f3fe6080604052600436106102bb5760003560e01c806375b238fc1161016e578063b7d2b162116100cb578063d6bb62c61161007f578063e62a023a11610064578063e62a023a146108c6578063f801a698146108e6578063fe0776f51461092057600080fd5b8063d6bb62c61461086e578063e0886f901461088e57600080fd5b8063cc1b6c81116100b0578063cc1b6c8114610818578063d1f856ee1461082e578063d22b59891461084e57600080fd5b8063b7d2b162146107d8578063c624c6f2146107f857600080fd5b8063a166aa8911610122578063abd9bd2a11610107578063abd9bd2a1461074f578063ac9650d81461076f578063b70096131461079c57600080fd5b8063a166aa89146106ec578063a64d95ce1461072f57600080fd5b8063853551b811610153578063853551b81461068a57806394c7d7ee146106aa578063971217b7146106ca57600080fd5b806375b238fc14610645578063806ad57e1461065a57600080fd5b80633078f1141161021c5780634665096d116101d057806352962952116101b55780635296295214610592578063530dd456146105b25780636d5115bd146105ef57600080fd5b80634665096d1461055c5780634c1da1e21461057257600080fd5b80633adc277a116102015780633adc277a146104cd5780633ca7c02a146105045780634136a33c1461051f57600080fd5b80633078f1141461045357806330cae187146104ad57600080fd5b80631cff79cd1161027357806329092d0e1161025857806329092d0e146103f05780632ddbd13a146104105780633078db6c1461043357600080fd5b80631cff79cd146103bd57806325c471a0146103d057600080fd5b806312be8727116102a457806312be872714610348578063167bd3951461037d57806318ff183c1461039d57600080fd5b806308d6122d146102c05780630b0a93ba146102e2575b600080fd5b3480156102cc57600080fd5b506102e06102db366004612b49565b610940565b005b3480156102ee57600080fd5b5061032b6102fd366004612baf565b6001600160401b03908116600090815260016020819052604090912001546801000000000000000090041690565b6040516001600160401b0390911681526020015b60405180910390f35b34801561035457600080fd5b50610368610363366004612baf565b61099b565b60405163ffffffff909116815260200161033f565b34801561038957600080fd5b506102e0610398366004612bca565b6109d6565b3480156103a957600080fd5b506102e06103b8366004612c08565b6109ec565b6103686103cb366004612c77565b610a53565b3480156103dc57600080fd5b506102e06103eb366004612cdf565b610bc0565b3480156103fc57600080fd5b506102e061040b366004612d24565b610be2565b34801561041c57600080fd5b50610425610c19565b60405190815260200161033f565b34801561043f57600080fd5b506102e061044e366004612d24565b610c2a565b34801561045f57600080fd5b5061047361046e366004612d41565b610e9f565b60405161033f949392919065ffffffffffff948516815263ffffffff93841660208201529190921660408201529116606082015260800190565b3480156104b957600080fd5b506102e06104c8366004612d5d565b610f07565b3480156104d957600080fd5b506104ed6104e8366004612d90565b610f19565b60405165ffffffffffff909116815260200161033f565b34801561051057600080fd5b5061032b6001600160401b0381565b34801561052b57600080fd5b5061036861053a366004612d90565b6000908152600260205260409020546601000000000000900463ffffffff1690565b34801561056857600080fd5b5062093a80610368565b34801561057e57600080fd5b5061036861058d366004612d24565b610f4c565b34801561059e57600080fd5b506102e06105ad366004612d5d565b610f7a565b3480156105be57600080fd5b5061032b6105cd366004612baf565b6001600160401b03908116600090815260016020819052604090912001541690565b3480156105fb57600080fd5b5061032b61060a366004612dbf565b6001600160a01b0382166000908152602081815260408083206001600160e01b0319851684529091529020546001600160401b031692915050565b34801561065157600080fd5b5061032b600081565b34801561066657600080fd5b5061067a610675366004612d24565b610f8c565b604051901515815260200161033f565b34801561069657600080fd5b506102e06106a5366004612ded565b610fc4565b3480156106b657600080fd5b506102e06106c5366004612c77565b61105b565b3480156106d657600080fd5b506106df611107565b60405161033f9190612e0b565b3480156106f857600080fd5b5061067a610707366004612d24565b6001600160a01b0316600090815260208190526040902060010154600160701b900460ff1690565b34801561073b57600080fd5b506102e061074a366004612e58565b611113565b34801561075b57600080fd5b5061042561076a366004612e82565b611125565b34801561077b57600080fd5b5061078f61078a366004612ee6565b61115e565b60405161033f9190612f4b565b3480156107a857600080fd5b506107bc6107b7366004612fc5565b611250565b60408051921515835263ffffffff90911660208301520161033f565b3480156107e457600080fd5b506102e06107f3366004612d41565b611350565b34801561080457600080fd5b506102e0610813366004612d90565b611367565b34801561082457600080fd5b5062069780610368565b34801561083a57600080fd5b506107bc610849366004612d41565b61139e565b34801561085a57600080fd5b506102e0610869366004613010565b61141b565b34801561087a57600080fd5b50610368610889366004612e82565b61142d565b34801561089a57600080fd5b506108ae6108a9366004612d90565b6115bc565b6040516001600160a01b03909116815260200161033f565b3480156108d257600080fd5b5061067a6108e1366004612d24565b6115f5565b3480156108f257600080fd5b5061090661090136600461302e565b611629565b6040805192835263ffffffff90911660208301520161033f565b34801561092c57600080fd5b506102e061093b366004612d41565b611771565b61094861179a565b60005b828110156109945761098485858584818110610969576109696130a0565b905060200201602081019061097e91906130b6565b84611815565b61098d816130e9565b905061094b565b5050505050565b6001600160401b0381166000908152600160208190526040822001546109d090600160801b90046001600160701b0316611897565b92915050565b6109de61179a565b6109e882826118b6565b5050565b6109f461179a565b604051637a9e5e4b60e01b81526001600160a01b038281166004830152831690637a9e5e4b90602401600060405180830381600087803b158015610a3757600080fd5b505af1158015610a4b573d6000803e3d6000fd5b505050505050565b6000338180610a6483888888611967565b9150915081158015610a7a575063ffffffff8116155b15610acd578287610a8b88886119ba565b6040516381c6f24b60e01b81526001600160a01b0393841660048201529290911660248301526001600160e01b03191660448201526064015b60405180910390fd5b6000610adb84898989611125565b9050600063ffffffff8316151580610b025750610af782610f19565b65ffffffffffff1615155b15610b1357610b10826119d2565b90505b600354610b668a610b248b8b6119ba565b604080516001600160a01b03939093166020808501919091526001600160e01b0319929092168382015280518084038201815260609093019052815191012090565b600381905550610bae8a8a8a8080601f016020809104026020016040519081016040528093929190818152602001838380828437600092019190915250349250611ad5915050565b506003559450505050505b9392505050565b610bc861179a565b610bdc8383610bd68661099b565b84611b72565b50505050565b6000610bef60003361139e565b50905080610c10576040516355098f2760e01b815260040160405180910390fd5b6109e882611dde565b6000610c256004611dfc565b905090565b6000610c3760003361139e565b50905080610c58576040516355098f2760e01b815260040160405180910390fd5b6001600160a01b038216610c7f5760405163d27509d160e01b815260040160405180910390fd5b6000306001600160a01b0316632ddbd13a6040518163ffffffff1660e01b8152600401602060405180830381865afa158015610cbf573d6000803e3d6000fd5b505050506040513d601f19601f82011682018060405250810190610ce39190613102565b90503060005b8281101561099457604051630e0886f960e41b8152600481018290526001600160a01b03831690309063e0886f90906024016020604051808303816000875af1158015610d3a573d6000803e3d6000fd5b505050506040513d601f19601f82011682018060405250810190610d5e919061311b565b6001600160a01b031663bf7e214f6040518163ffffffff1660e01b8152600401602060405180830381865afa158015610d9b573d6000803e3d6000fd5b505050506040513d601f19601f82011682018060405250810190610dbf919061311b565b6001600160a01b031603610e8d57604051630e0886f960e41b815260048101829052309063e0886f90906024016020604051808303816000875af1158015610e0b573d6000803e3d6000fd5b505050506040513d601f19601f82011682018060405250810190610e2f919061311b565b604051637a9e5e4b60e01b81526001600160a01b0387811660048301529190911690637a9e5e4b90602401600060405180830381600087803b158015610e7457600080fd5b505af1158015610e88573d6000803e3d6000fd5b505050505b80610e97816130e9565b915050610ce9565b6001600160401b03821660009081526001602090815260408083206001600160a01b03851684529091528120805465ffffffffffff811692918291829190610ef990660100000000000090046001600160701b0316611e06565b969991985096509350505050565b610f0f61179a565b6109e88282611e29565b60008181526002602052604081205465ffffffffffff16610f3981611ecd565b610f435780610bb9565b60009392505050565b6001600160a01b0381166000908152602081905260408120600101546109d0906001600160701b0316611897565b610f8261179a565b6109e88282611efc565b600080610f9a60003361139e565b50905080610fbb576040516355098f2760e01b815260040160405180910390fd5b610bb983611fb3565b610fcc61179a565b6001600160401b0383161580610fea57506001600160401b03838116145b156110135760405163061c6a4360e21b81526001600160401b0384166004820152602401610ac4565b826001600160401b03167f1256f5b5ecb89caec12db449738f2fbcd1ba5806cf38f35413f4e5c15bf6a450838360405161104e929190613161565b60405180910390a2505050565b60408051638fb3603760e01b80825291513392918391638fb36037916004808201926020929091908290030181865afa15801561109c573d6000803e3d6000fd5b505050506040513d601f19601f820116820180604052508101906110c0919061317d565b6001600160e01b031916146110f357604051630641fee960e31b81526001600160a01b0382166004820152602401610ac4565b61099461110285838686611125565b6119d2565b6060610c256004612008565b61111b61179a565b6109e88282612015565b60008484848460405160200161113e949392919061319a565b604051602081830303815290604052805190602001209050949350505050565b604080516000815260208101909152606090826001600160401b0381111561118857611188613204565b6040519080825280602002602001820160405280156111bb57816020015b60608152602001906001900390816111a65790505b50915060005b8381101561124857611218308686848181106111df576111df6130a0565b90506020028101906111f1919061321a565b8560405160200161120493929190613260565b604051602081830303815290604052612134565b83828151811061122a5761122a6130a0565b60200260200101819052508080611240906130e9565b9150506111c1565b505092915050565b6001600160a01b0382166000908152602081905260408120600101548190600160701b900460ff161561128857506000905080611348565b306001600160a01b038616036112e457604080516001600160a01b0386166020808301919091526001600160e01b031986168284015282518083038401815260609092019092528051910120600354145b600091509150611348565b6001600160a01b0384166000908152602081815260408083206001600160e01b0319871684529091528120546001600160401b03169080611325838961139e565b915091508161133657600080611340565b63ffffffff811615815b945094505050505b935093915050565b61135861179a565b61136282826121aa565b505050565b600061137460003361139e565b50905080611395576040516355098f2760e01b815260040160405180910390fd5b6109e8826122a4565b60008067fffffffffffffffe196001600160401b038516016113c65750600190506000611414565b6000806113d38686610e9f565b5050915091508165ffffffffffff1660001415801561140957506113f56122e6565b65ffffffffffff168265ffffffffffff1611155b935091506114149050565b9250929050565b61142361179a565b6109e882826122f1565b6000338161143b85856119ba565b9050600061144b88888888611125565b60008181526002602052604081205491925065ffffffffffff90911690036114895760405163060a299b60e41b815260048101829052602401610ac4565b826001600160a01b0316886001600160a01b0316146115575760006114af60008561139e565b506001600160a01b0389166000908152602081815260408083206001600160e01b031988168452909152812054919250906114fc906114f6906001600160401b03166102fd565b8661139e565b5090508115801561150b575080155b1561155457604051630ff89d4760e21b81526001600160a01b038087166004830152808c1660248301528a1660448201526001600160e01b031985166064820152608401610ac4565b50505b600081815260026020526040808220805465ffffffffffff1916908190559051660100000000000090910463ffffffff1691829184917fbd9ac67a6e2f6463b80927326310338bcbb4bdb7936ce1365ea3e01067e7b9f791a398975050505050505050565b60006115c86004611dfc565b82106115ea57604051635f7644f960e01b815260048101839052602401610ac4565b6109d06004836123ae565b60006001600160a01b03821661161e57604051637138356f60e01b815260040160405180910390fd5b6109d06004836123ba565b600080338161163a82898989611967565b91505060008163ffffffff1661164e6122e6565b6116589190613287565b905063ffffffff8216158061168f575060008665ffffffffffff1611801561168f57508065ffffffffffff168665ffffffffffff16105b156116a0578289610a8b8a8a6119ba565b6116ba8665ffffffffffff168265ffffffffffff166123dc565b95506116c8838a8a8a611125565b94506116d3856123f2565b60008581526002602052604090819020805465ffffffffffff891669ffffffffffffffffffff1982161766010000000000009182900463ffffffff90811660010190811692830291909117909255915190955086907f82a2da5dee54ea8021c6545b4444620291e07ee83be6dd57edb175062715f3b49061175d908a9088908f908f908f906132a6565b60405180910390a350505094509492505050565b6001600160a01b038116331461135857604051635f159e6360e01b815260040160405180910390fd5b336000806117a983823661243f565b9150915081611362578063ffffffff166000036118055760006117cc8136612538565b5060405163f07e038f60e01b81526001600160a01b03871660048201526001600160401b03821660248201529092506044019050610ac4565b610bdc6111028430600036611125565b6001600160a01b0383166000818152602081815260408083206001600160e01b0319871680855290835292819020805467ffffffffffffffff19166001600160401b038716908117909155905192835292917f9ea6790c7dadfd01c9f8b9762b3682607af2c7e79e05a9f9fdf5580dde949151910160405180910390a3505050565b6000806118ac836001600160701b0316611e06565b5090949350505050565b306001600160a01b038316036118ea57604051630b40d17960e31b81526001600160a01b0383166004820152602401610ac4565b6001600160a01b038216600081815260208190526040908190206001018054841515600160701b026eff000000000000000000000000000019909116179055517f90d4e7bb7e5d933792b3562e1741306f8be94837e1348dacef9b6f1df56eb1389061195b90841515815260200190565b60405180910390a25050565b600080306001600160a01b0386160361198e5761198586858561243f565b915091506119b1565b600483106119aa576119a586866107b787876119ba565b611985565b5060009050805b94509492505050565b60006119c960048284866131da565b610bb9916132ec565b60008181526002602052604081205465ffffffffffff8116906601000000000000900463ffffffff16818303611a1e5760405163060a299b60e41b815260048101859052602401610ac4565b611a266122e6565b65ffffffffffff168265ffffffffffff161115611a5957604051630c65b5bd60e11b815260048101859052602401610ac4565b611a6282611ecd565b15611a8357604051631e2975b960e21b815260048101859052602401610ac4565b600084815260026020526040808220805465ffffffffffff191690555163ffffffff83169186917f76a2a46953689d4861a5d3f6ed883ad7e6af674a21f8e162707159fc9dde614d9190a39392505050565b606081471015611afa5760405163cd78605960e01b8152306004820152602401610ac4565b600080856001600160a01b03168486604051611b16919061331a565b60006040518083038185875af1925050503d8060008114611b53576040519150601f19603f3d011682016040523d82523d6000602084013e611b58565b606091505b5091509150611b68868383612721565b9695505050505050565b600067fffffffffffffffe196001600160401b03861601611bb15760405163061c6a4360e21b81526001600160401b0386166004820152602401610ac4565b6001600160401b03851660009081526001602090815260408083206001600160a01b038816845290915281205465ffffffffffff1615908115611cb3578463ffffffff16611bfd6122e6565b611c079190613287565b905060405180604001604052808265ffffffffffff168152602001611c358663ffffffff1663ffffffff1690565b6001600160701b039081169091526001600160401b03891660009081526001602090815260408083206001600160a01b038c168452825290912083518154949092015190921666010000000000000273ffffffffffffffffffffffffffffffffffffffff1990931665ffffffffffff90911617919091179055611d70565b6001600160401b03871660009081526001602090815260408083206001600160a01b038a168452909152812054611d009166010000000000009091046001600160701b031690869061277d565b6001600160401b03891660009081526001602090815260408083206001600160a01b038c168452909152902080546001600160701b039093166601000000000000027fffffffffffffffffffffffff0000000000000000000000000000ffffffffffff9093169290921790915590505b6040805163ffffffff8616815265ffffffffffff831660208201528315158183015290516001600160a01b038816916001600160401b038a16917ff98448b987f1428e0e230e1f3c6e2ce15b5693eaf31827fbd0b1ec4b424ae7cf9181900360600190a35095945050505050565b611de96004826123ba565b15611df9576109e8600482612827565b50565b60006109d0825490565b6000806000611e1c84611e176122e6565b61283c565b9250925092509193909250565b6001600160401b0382161580611e4757506001600160401b03828116145b15611e705760405163061c6a4360e21b81526001600160401b0383166004820152602401610ac4565b6001600160401b038281166000818152600160208190526040808320909101805467ffffffffffffffff19169486169485179055517f1fd6dd7631312dfac2205b52913f99de03b4d7e381d5d27d3dbfe0713e6e63409190a35050565b6000611ed76122e6565b65ffffffffffff16611eec62093a8084613287565b65ffffffffffff16111592915050565b6001600160401b0382161580611f1a57506001600160401b03828116145b15611f435760405163061c6a4360e21b81526001600160401b0383166004820152602401610ac4565b6001600160401b03828116600081815260016020819052604080832090910180546fffffffffffffffff0000000000000000191668010000000000000000958716958602179055517f7a8059630b897b5de4c08ade69f8b90c3ead1f8596d62d10b6c4d14a0afb4ae29190a35050565b60006001600160a01b038216611fdc57604051637138356f60e01b815260040160405180910390fd5b611fe76004836123ba565b15611ff457506000919050565b611fff600483612890565b50600192915050565b60606000610bb9836128a5565b67fffffffffffffffe196001600160401b038316016120525760405163061c6a4360e21b81526001600160401b0383166004820152602401610ac4565b6001600160401b03821660009081526001602081905260408220015461208c90600160801b90046001600160701b0316836206978061277d565b6001600160401b0385166000818152600160208190526040918290200180546001600160701b03909516600160801b027fffff0000000000000000000000000000ffffffffffffffffffffffffffffffff9095169490941790935591519092507ffeb69018ee8b8fd50ea86348f1267d07673379f72cffdeccec63853ee8ce8b489061104e908590859063ffffffff92909216825265ffffffffffff16602082015260400190565b6060600080846001600160a01b031684604051612151919061331a565b600060405180830381855af49150503d806000811461218c576040519150601f19603f3d011682016040523d82523d6000602084013e612191565b606091505b50915091506121a1858383612721565b95945050505050565b600067fffffffffffffffe196001600160401b038416016121e95760405163061c6a4360e21b81526001600160401b0384166004820152602401610ac4565b6001600160401b03831660009081526001602090815260408083206001600160a01b038616845290915281205465ffffffffffff16900361222c575060006109d0565b6001600160401b03831660008181526001602090815260408083206001600160a01b0387168085529252808320805473ffffffffffffffffffffffffffffffffffffffff19169055519092917ff229baa593af28c41b1d16b748cd7688f0c83aaf92d4be41c44005defe84c16691a350600192915050565b6122ae6004611dfc565b81106122d057604051635f7644f960e01b815260048101829052602401610ac4565b6109e86122de6004836123ae565b600490612827565b6000610c2542612901565b6001600160a01b038216600090815260208190526040812060010154612324906001600160701b0316836206978061277d565b6001600160a01b0385166000818152602081815260409182902060010180546dffffffffffffffffffffffffffff19166001600160701b039690961695909517909455805163ffffffff8716815265ffffffffffff841694810194909452919350917fa56b76017453f399ec2327ba00375dbfb1fd070ff854341ad6191e6a2e2de19c910161104e565b6000610bb98383612938565b6001600160a01b03811660009081526001830160205260408120541515610bb9565b60008183116123eb5781610bb9565b5090919050565b60008181526002602052604090205465ffffffffffff16801580159061241e575061241c81611ecd565b155b156109e85760405163813e945960e01b815260048101839052602401610ac4565b600080600483101561245657506000905080611348565b306001600160a01b038616036124ba576112d93061247486866119ba565b604080516001600160a01b03939093166020808501919091526001600160e01b031992909216838201528051808403820181526060909301905281519101206003541490565b60008060006124c98787612538565b925092509250826124e35760008094509450505050611348565b6000806124f0848b61139e565b915091508161250a57600080965096505050505050611348565b6125208363ffffffff168263ffffffff166123dc565b63ffffffff8116159b909a5098505050505050505050565b6000808060048410156125535750600091508190508061271a565b600061255f86866119ba565b90506001600160e01b031981166310a6aa3760e31b148061259057506001600160e01b031981166330cae18760e01b145b806125ab57506001600160e01b0319811663294b14a960e11b145b806125c657506001600160e01b03198116635326cae760e11b145b806125e157506001600160e01b0319811663d22b598960e01b145b156125f75760016000809350935093505061271a565b6001600160e01b0319811663063fc60f60e21b148061262657506001600160e01b0319811663167bd39560e01b145b8061264157506001600160e01b031981166308d6122d60e01b145b1561268357600061265660246004888a6131da565b8101906126639190612d24565b9050600061267082610f4c565b6001965060009550935061271a92505050565b6001600160e01b0319811663012e238d60e51b14806126b257506001600160e01b03198116635be958b160e11b145b1561270d5760006126c760246004888a6131da565b8101906126d49190612baf565b905060016126fe826001600160401b03908116600090815260016020819052604090912001541690565b6000945094509450505061271a565b6000806000935093509350505b9250925092565b6060826127365761273182612962565b610bb9565b815115801561274d57506001600160a01b0384163b155b1561277657604051639996b31560e01b81526001600160a01b0385166004820152602401610ac4565b5080610bb9565b6000806000612794866001600160701b0316611897565b905060006127d18563ffffffff168763ffffffff168463ffffffff16116127bc5760006127c6565b6127c68885613336565b63ffffffff166123dc565b90508063ffffffff166127e26122e6565b6127ec9190613287565b925063ffffffff8616602083901b67ffffffff0000000016604085901b6dffffffffffff000000000000000016171793505050935093915050565b6000610bb9836001600160a01b03841661298b565b6000808069ffffffffffffffffffff602086901c166001600160701b03861665ffffffffffff604088901c811690871681111561287b57828282612880565b816000805b9550955095505050509250925092565b6000610bb9836001600160a01b038416612a85565b6060816000018054806020026020016040519081016040528092919081815260200182805480156128f557602002820191906000526020600020905b8154815260200190600101908083116128e1575b50505050509050919050565b600065ffffffffffff821115612934576040516306dfcc6560e41b81526030600482015260248101839052604401610ac4565b5090565b600082600001828154811061294f5761294f6130a0565b9060005260206000200154905092915050565b8051156129725780518082602001fd5b604051630a12f52160e11b815260040160405180910390fd5b60008181526001830160205260408120548015612a745760006129af6001836131c7565b85549091506000906129c3906001906131c7565b9050808214612a285760008660000182815481106129e3576129e36130a0565b9060005260206000200154905080876000018481548110612a0657612a066130a0565b6000918252602080832090910192909255918252600188019052604090208390555b8554869080612a3957612a39613353565b6001900381819060005260206000200160009055905585600101600086815260200190815260200160002060009055600193505050506109d0565b60009150506109d0565b5092915050565b6000818152600183016020526040812054612acc575081546001818101845560008481526020808220909301849055845484825282860190935260409020919091556109d0565b5060006109d0565b6001600160a01b0381168114611df957600080fd5b60008083601f840112612afb57600080fd5b5081356001600160401b03811115612b1257600080fd5b6020830191508360208260051b850101111561141457600080fd5b80356001600160401b0381168114612b4457600080fd5b919050565b60008060008060608587031215612b5f57600080fd5b8435612b6a81612ad4565b935060208501356001600160401b03811115612b8557600080fd5b612b9187828801612ae9565b9094509250612ba4905060408601612b2d565b905092959194509250565b600060208284031215612bc157600080fd5b610bb982612b2d565b60008060408385031215612bdd57600080fd5b8235612be881612ad4565b915060208301358015158114612bfd57600080fd5b809150509250929050565b60008060408385031215612c1b57600080fd5b8235612c2681612ad4565b91506020830135612bfd81612ad4565b60008083601f840112612c4857600080fd5b5081356001600160401b03811115612c5f57600080fd5b60208301915083602082850101111561141457600080fd5b600080600060408486031215612c8c57600080fd5b8335612c9781612ad4565b925060208401356001600160401b03811115612cb257600080fd5b612cbe86828701612c36565b9497909650939450505050565b803563ffffffff81168114612b4457600080fd5b600080600060608486031215612cf457600080fd5b612cfd84612b2d565b92506020840135612d0d81612ad4565b9150612d1b60408501612ccb565b90509250925092565b600060208284031215612d3657600080fd5b8135610bb981612ad4565b60008060408385031215612d5457600080fd5b612c2683612b2d565b60008060408385031215612d7057600080fd5b612d7983612b2d565b9150612d8760208401612b2d565b90509250929050565b600060208284031215612da257600080fd5b5035919050565b6001600160e01b031981168114611df957600080fd5b60008060408385031215612dd257600080fd5b8235612ddd81612ad4565b91506020830135612bfd81612da9565b600080600060408486031215612e0257600080fd5b612c9784612b2d565b6020808252825182820181905260009190848201906040850190845b81811015612e4c5783516001600160a01b031683529284019291840191600101612e27565b50909695505050505050565b60008060408385031215612e6b57600080fd5b612e7483612b2d565b9150612d8760208401612ccb565b60008060008060608587031215612e9857600080fd5b8435612ea381612ad4565b93506020850135612eb381612ad4565b925060408501356001600160401b03811115612ece57600080fd5b612eda87828801612c36565b95989497509550505050565b60008060208385031215612ef957600080fd5b82356001600160401b03811115612f0f57600080fd5b612f1b85828601612ae9565b90969095509350505050565b60005b83811015612f42578181015183820152602001612f2a565b50506000910152565b6000602080830181845280855180835260408601915060408160051b870101925083870160005b82811015612fb857878503603f1901845281518051808752612f99818989018a8501612f27565b601f01601f191695909501860194509285019290850190600101612f72565b5092979650505050505050565b600080600060608486031215612fda57600080fd5b8335612fe581612ad4565b92506020840135612ff581612ad4565b9150604084013561300581612da9565b809150509250925092565b6000806040838503121561302357600080fd5b8235612e7481612ad4565b6000806000806060858703121561304457600080fd5b843561304f81612ad4565b935060208501356001600160401b0381111561306a57600080fd5b61307687828801612c36565b909450925050604085013565ffffffffffff8116811461309557600080fd5b939692955090935050565b634e487b7160e01b600052603260045260246000fd5b6000602082840312156130c857600080fd5b8135610bb981612da9565b634e487b7160e01b600052601160045260246000fd5b6000600182016130fb576130fb6130d3565b5060010190565b60006020828403121561311457600080fd5b5051919050565b60006020828403121561312d57600080fd5b8151610bb981612ad4565b81835281816020850137506000828201602090810191909152601f909101601f19169091010190565b602081526000613175602083018486613138565b949350505050565b60006020828403121561318f57600080fd5b8151610bb981612da9565b60006001600160a01b03808716835280861660208401525060606040830152611b68606083018486613138565b818103818111156109d0576109d06130d3565b600080858511156131ea57600080fd5b838611156131f757600080fd5b5050820193919092039150565b634e487b7160e01b600052604160045260246000fd5b6000808335601e1984360301811261323157600080fd5b8301803591506001600160401b0382111561324b57600080fd5b60200191503681900382131561141457600080fd5b82848237600083820160008152835161327d818360208801612f27565b0195945050505050565b65ffffffffffff818116838216019080821115612a7e57612a7e6130d3565b65ffffffffffff8616815260006001600160a01b038087166020840152808616604084015250608060608301526132e1608083018486613138565b979650505050505050565b6001600160e01b031981358181169160048510156112485760049490940360031b84901b1690921692915050565b6000825161332c818460208701612f27565b9190910192915050565b63ffffffff828116828216039080821115612a7e57612a7e6130d3565b634e487b7160e01b600052603160045260246000fdfea164736f6c6343000814000a",
  "devdoc": {
    "author": "Ilya A. Shlyakhovoy",
    "errors": {
      "AddressEmptyCode(address)": [
        {
          "details": "There's no code at `target` (it is not a contract)."
        }
      ],
      "AddressInsufficientBalance(address)": [
        {
          "details": "The ETH balance of the account is not enough to perform the operation."
        }
      ],
      "FailedInnerCall()": [
        {
          "details": "A call to an address target failed. The target may have reverted."
        }
      ],
      "SafeCastOverflowedUintDowncast(uint8,uint256)": [
        {
          "details": "Value doesn't fit in an uint of `bits` size."
        }
      ]
    },
    "events": {
      "OperationCanceled(bytes32,uint32)": {
        "details": "A scheduled operation was canceled."
      },
      "OperationExecuted(bytes32,uint32)": {
        "details": "A scheduled operation was executed."
      },
      "OperationScheduled(bytes32,uint32,uint48,address,address,bytes)": {
        "details": "A delayed operation was scheduled."
      },
      "RoleAdminChanged(uint64,uint64)": {
        "details": "Role acting as admin over a given `roleId` is updated."
      },
      "RoleGrantDelayChanged(uint64,uint32,uint48)": {
        "details": "Grant delay for a given `roleId` will be updated to `delay` when `since` is reached."
      },
      "RoleGranted(uint64,address,uint32,uint48,bool)": {
        "details": "Emitted when `account` is granted `roleId`. NOTE: The meaning of the `since` argument depends on the `newMember` argument. If the role is granted to a new member, the `since` argument indicates when the account becomes a member of the role, otherwise it indicates the execution delay for this account and roleId is updated."
      },
      "RoleGuardianChanged(uint64,uint64)": {
        "details": "Role acting as guardian over a given `roleId` is updated."
      },
      "RoleLabel(uint64,string)": {
        "details": "Informational labelling for a roleId."
      },
      "RoleRevoked(uint64,address)": {
        "details": "Emitted when `account` membership or `roleId` is revoked. Unlike granting, revoking is instantaneous."
      },
      "TargetAdminDelayUpdated(address,uint32,uint48)": {
        "details": "Admin delay for a given `target` will be updated to `delay` when `since` is reached."
      },
      "TargetClosed(address,bool)": {
        "details": "Target mode is updated (true = closed, false = open)."
      },
      "TargetFunctionRoleUpdated(address,bytes4,uint64)": {
        "details": "Role required to invoke `selector` on `target` is updated to `roleId`."
      }
    },
    "kind": "dev",
    "methods": {
      "canCall(address,address,bytes4)": {
        "details": "Check if an address (`caller`) is authorised to call a given function on a given contract directly (with no restriction). Additionally, it returns the delay needed to perform the call indirectly through the {schedule} & {execute} workflow. This function is usually called by the targeted contract to control immediate execution of restricted functions. Therefore we only return true if the call can be performed without any delay. If the call is subject to a previously set delay (not zero), then the function should return false and the caller should schedule the operation for future execution. If `immediate` is true, the delay can be disregarded and the operation can be immediately executed, otherwise the operation can be executed if and only if delay is greater than 0. NOTE: The IAuthority interface does not include the `uint32` delay. This is an extension of that interface that is backward compatible. Some contracts may thus ignore the second return argument. In that case they will fail to identify the indirect workflow, and will consider calls that require a delay to be forbidden. NOTE: This function does not report the permissions of this manager itself. These are defined by the {_canCallSelf} function instead."
      },
      "cancel(address,address,bytes)": {
        "details": "Cancel a scheduled (delayed) operation. Returns the nonce that identifies the previously scheduled operation that is cancelled. Requirements: - the caller must be the proposer, a guardian of the targeted function, or a global admin Emits a {OperationCanceled} event."
      },
      "consumeScheduledOp(address,bytes)": {
        "details": "Consume a scheduled operation targeting the caller. If such an operation exists, mark it as consumed (emit an {OperationExecuted} event and clean the state). Otherwise, throw an error. This is useful for contract that want to enforce that calls targeting them were scheduled on the manager, with all the verifications that it implies. Emit a {OperationExecuted} event."
      },
      "execute(address,bytes)": {
        "details": "Execute a function that is delay restricted, provided it was properly scheduled beforehand, or the execution delay is 0. Returns the nonce that identifies the previously scheduled operation that is executed, or 0 if the operation wasn't previously scheduled (if the caller doesn't have an execution delay). Emits an {OperationExecuted} event only if the call was scheduled and delayed."
      },
      "expiration()": {
        "details": "Expiration delay for scheduled proposals. Defaults to 1 week. IMPORTANT: Avoid overriding the expiration with 0. Otherwise every contract proposal will be expired immediately, disabling any scheduling usage."
      },
      "getAccess(uint64,address)": {
        "details": "Get the access details for a given account for a given role. These details include the timepoint at which membership becomes active, and the delay applied to all operation by this user that requires this permission level. Returns: [0] Timestamp at which the account membership becomes valid. 0 means role is not granted. [1] Current execution delay for the account. [2] Pending execution delay for the account. [3] Timestamp at which the pending execution delay will become active. 0 means no delay update is scheduled."
      },
      "getNonce(bytes32)": {
        "details": "Return the nonce for the latest scheduled operation with a given id. Returns 0 if the operation has never been scheduled."
      },
      "getRoleAdmin(uint64)": {
        "details": "Get the id of the role that acts as an admin for the given role. The admin permission is required to grant the role, revoke the role and update the execution delay to execute an operation that is restricted to this role."
      },
      "getRoleGrantDelay(uint64)": {
        "details": "Get the role current grant delay. Its value may change at any point without an event emitted following a call to {setGrantDelay}. Changes to this value, including effect timepoint are notified in advance by the {RoleGrantDelayChanged} event."
      },
      "getRoleGuardian(uint64)": {
        "details": "Get the role that acts as a guardian for a given role. The guardian permission allows canceling operations that have been scheduled under the role."
      },
      "getSchedule(bytes32)": {
        "details": "Return the timepoint at which a scheduled operation will be ready for execution. This returns 0 if the operation is not yet scheduled, has expired, was executed, or was canceled."
      },
      "getTargetAdminDelay(address)": {
        "details": "Get the admin delay for a target contract. Changes to contract configuration are subject to this delay."
      },
      "getTargetFunctionRole(address,bytes4)": {
        "details": "Get the role required to call a function."
      },
      "grantRole(uint64,address,uint32)": {
        "details": "Add `account` to `roleId`, or change its execution delay. This gives the account the authorization to call any function that is restricted to this role. An optional execution delay (in seconds) can be set. If that delay is non 0, the user is required to schedule any operation that is restricted to members of this role. The user will only be able to execute the operation after the delay has passed, before it has expired. During this period, admin and guardians can cancel the operation (see {cancel}). If the account has already been granted this role, the execution delay will be updated. This update is not immediate and follows the delay rules. For example, if a user currently has a delay of 3 hours, and this is called to reduce that delay to 1 hour, the new delay will take some time to take effect, enforcing that any operation executed in the 3 hours that follows this update was indeed scheduled before this update. Requirements: - the caller must be an admin for the role (see {getRoleAdmin}) - granted role must not be the `PUBLIC_ROLE` Emits a {RoleGranted} event."
      },
      "hasRole(uint64,address)": {
        "details": "Check if a given account currently has the permission level corresponding to a given role. Note that this permission might be associated with an execution delay. {getAccess} can provide more details."
      },
      "hashOperation(address,address,bytes)": {
        "details": "Hashing function for delayed operations."
      },
      "isTargetClosed(address)": {
        "details": "Get whether the contract is closed disabling any access. Otherwise role permissions are applied."
      },
      "labelRole(uint64,string)": {
        "details": "Give a label to a role, for improved role discoverability by UIs. Requirements: - the caller must be a global admin Emits a {RoleLabel} event."
      },
      "minSetback()": {
        "details": "Minimum setback for all delay updates, with the exception of execution delays. It can be increased without setback (and reset via {revokeRole} in the case event of an accidental increase). Defaults to 5 days."
      },
      "multicall(bytes[])": {
        "custom:oz-upgrades-unsafe-allow-reachable": "delegatecall",
        "details": "Receives and executes a batch of function calls on this contract."
      },
      "renounceRole(uint64,address)": {
        "details": "Renounce role permissions for the calling account with immediate effect. If the sender is not in the role this call has no effect. Requirements: - the caller must be `callerConfirmation`. Emits a {RoleRevoked} event if the account had the role."
      },
      "revokeRole(uint64,address)": {
        "details": "Remove an account from a role, with immediate effect. If the account does not have the role, this call has no effect. Requirements: - the caller must be an admin for the role (see {getRoleAdmin}) - revoked role must not be the `PUBLIC_ROLE` Emits a {RoleRevoked} event if the account had the role."
      },
      "schedule(address,bytes,uint48)": {
        "details": "Schedule a delayed operation for future execution, and return the operation identifier. It is possible to choose the timestamp at which the operation becomes executable as long as it satisfies the execution delays required for the caller. The special value zero will automatically set the earliest possible time. Returns the `operationId` that was scheduled. Since this value is a hash of the parameters, it can reoccur when the same parameters are used; if this is relevant, the returned `nonce` can be used to uniquely identify this scheduled operation from other occurrences of the same `operationId` in invocations of {execute} and {cancel}. Emits a {OperationScheduled} event. NOTE: It is not possible to concurrently schedule more than one operation with the same `target` and `data`. If this is necessary, a random byte can be appended to `data` to act as a salt that will be ignored by the target contract if it is using standard Solidity ABI encoding."
      },
      "setGrantDelay(uint64,uint32)": {
        "details": "Update the delay for granting a `roleId`. Requirements: - the caller must be a global admin Emits a {RoleGrantDelayChanged} event."
      },
      "setRoleAdmin(uint64,uint64)": {
        "details": "Change admin role for a given role. Requirements: - the caller must be a global admin Emits a {RoleAdminChanged} event"
      },
      "setRoleGuardian(uint64,uint64)": {
        "details": "Change guardian role for a given role. Requirements: - the caller must be a global admin Emits a {RoleGuardianChanged} event"
      },
      "setTargetAdminDelay(address,uint32)": {
        "details": "Set the delay for changing the configuration of a given target contract. Requirements: - the caller must be a global admin Emits a {TargetAdminDelayUpdated} event."
      },
      "setTargetClosed(address,bool)": {
        "details": "Set the closed flag for a contract. Requirements: - the caller must be a global admin Emits a {TargetClosed} event."
      },
      "setTargetFunctionRole(address,bytes4[],uint64)": {
        "details": "Set the role required to call functions identified by the `selectors` in the `target` contract. Requirements: - the caller must be a global admin Emits a {TargetFunctionRoleUpdated} event per selector."
      },
      "updateAuthority(address,address)": {
        "details": "Changes the authority of a target managed by this manager instance. Requirements: - the caller must be a global admin"
      }
    },
    "title": "PresaleManager",
    "version": 1
  },
  "userdoc": {
    "kind": "user",
    "methods": {},
    "notice": "The simple Manager contract for presale phase during the mature Manager contract in development Only confirms execution of token functions if owner called it",
    "version": 1
  },
  "storageLayout": {
    "storage": [
      {
        "astId": 508,
        "contract": "contracts/management/PresaleManager.sol:PresaleManager",
        "label": "_targets",
        "offset": 0,
        "slot": "0",
        "type": "t_mapping(t_address,t_struct(TargetConfig)465_storage)"
      },
      {
        "astId": 513,
        "contract": "contracts/management/PresaleManager.sol:PresaleManager",
        "label": "_roles",
        "offset": 0,
        "slot": "1",
        "type": "t_mapping(t_uint64,t_struct(Role)484_storage)"
      },
      {
        "astId": 518,
        "contract": "contracts/management/PresaleManager.sol:PresaleManager",
        "label": "_schedules",
        "offset": 0,
        "slot": "2",
        "type": "t_mapping(t_bytes32,t_struct(Schedule)489_storage)"
      },
      {
        "astId": 520,
        "contract": "contracts/management/PresaleManager.sol:PresaleManager",
        "label": "_executionId",
        "offset": 0,
        "slot": "3",
        "type": "t_bytes32"
      },
      {
        "astId": 22,
        "contract": "contracts/management/PresaleManager.sol:PresaleManager",
        "label": "workers",
        "offset": 0,
        "slot": "4",
        "type": "t_struct(AddressSet)6299_storage"
      }
    ],
    "types": {
      "t_address": {
        "encoding": "inplace",
        "label": "address",
        "numberOfBytes": "20"
      },
      "t_array(t_bytes32)dyn_storage": {
        "base": "t_bytes32",
        "encoding": "dynamic_array",
        "label": "bytes32[]",
        "numberOfBytes": "32"
      },
      "t_bool": {
        "encoding": "inplace",
        "label": "bool",
        "numberOfBytes": "1"
      },
      "t_bytes32": {
        "encoding": "inplace",
        "label": "bytes32",
        "numberOfBytes": "32"
      },
      "t_bytes4": {
        "encoding": "inplace",
        "label": "bytes4",
        "numberOfBytes": "4"
      },
      "t_mapping(t_address,t_struct(Access)471_storage)": {
        "encoding": "mapping",
        "key": "t_address",
        "label": "mapping(address => struct AccessManager.Access)",
        "numberOfBytes": "32",
        "value": "t_struct(Access)471_storage"
      },
      "t_mapping(t_address,t_struct(TargetConfig)465_storage)": {
        "encoding": "mapping",
        "key": "t_address",
        "label": "mapping(address => struct AccessManager.TargetConfig)",
        "numberOfBytes": "32",
        "value": "t_struct(TargetConfig)465_storage"
      },
      "t_mapping(t_bytes32,t_struct(Schedule)489_storage)": {
        "encoding": "mapping",
        "key": "t_bytes32",
        "label": "mapping(bytes32 => struct AccessManager.Schedule)",
        "numberOfBytes": "32",
        "value": "t_struct(Schedule)489_storage"
      },
      "t_mapping(t_bytes32,t_uint256)": {
        "encoding": "mapping",
        "key": "t_bytes32",
        "label": "mapping(bytes32 => uint256)",
        "numberOfBytes": "32",
        "value": "t_uint256"
      },
      "t_mapping(t_bytes4,t_uint64)": {
        "encoding": "mapping",
        "key": "t_bytes4",
        "label": "mapping(bytes4 => uint64)",
        "numberOfBytes": "32",
        "value": "t_uint64"
      },
      "t_mapping(t_uint64,t_struct(Role)484_storage)": {
        "encoding": "mapping",
        "key": "t_uint64",
        "label": "mapping(uint64 => struct AccessManager.Role)",
        "numberOfBytes": "32",
        "value": "t_struct(Role)484_storage"
      },
      "t_struct(Access)471_storage": {
        "encoding": "inplace",
        "label": "struct AccessManager.Access",
        "members": [
          {
            "astId": 467,
            "contract": "contracts/management/PresaleManager.sol:PresaleManager",
            "label": "since",
            "offset": 0,
            "slot": "0",
            "type": "t_uint48"
          },
          {
            "astId": 470,
            "contract": "contracts/management/PresaleManager.sol:PresaleManager",
            "label": "delay",
            "offset": 6,
            "slot": "0",
            "type": "t_userDefinedValueType(Delay)6623"
          }
        ],
        "numberOfBytes": "32"
      },
      "t_struct(AddressSet)6299_storage": {
        "encoding": "inplace",
        "label": "struct EnumerableSet.AddressSet",
        "members": [
          {
            "astId": 6298,
            "contract": "contracts/management/PresaleManager.sol:PresaleManager",
            "label": "_inner",
            "offset": 0,
            "slot": "0",
            "type": "t_struct(Set)5984_storage"
          }
        ],
        "numberOfBytes": "64"
      },
      "t_struct(Role)484_storage": {
        "encoding": "inplace",
        "label": "struct AccessManager.Role",
        "members": [
          {
            "astId": 476,
            "contract": "contracts/management/PresaleManager.sol:PresaleManager",
            "label": "members",
            "offset": 0,
            "slot": "0",
            "type": "t_mapping(t_address,t_struct(Access)471_storage)"
          },
          {
            "astId": 478,
            "contract": "contracts/management/PresaleManager.sol:PresaleManager",
            "label": "admin",
            "offset": 0,
            "slot": "1",
            "type": "t_uint64"
          },
          {
            "astId": 480,
            "contract": "contracts/management/PresaleManager.sol:PresaleManager",
            "label": "guardian",
            "offset": 8,
            "slot": "1",
            "type": "t_uint64"
          },
          {
            "astId": 483,
            "contract": "contracts/management/PresaleManager.sol:PresaleManager",
            "label": "grantDelay",
            "offset": 16,
            "slot": "1",
            "type": "t_userDefinedValueType(Delay)6623"
          }
        ],
        "numberOfBytes": "64"
      },
      "t_struct(Schedule)489_storage": {
        "encoding": "inplace",
        "label": "struct AccessManager.Schedule",
        "members": [
          {
            "astId": 486,
            "contract": "contracts/management/PresaleManager.sol:PresaleManager",
            "label": "timepoint",
            "offset": 0,
            "slot": "0",
            "type": "t_uint48"
          },
          {
            "astId": 488,
            "contract": "contracts/management/PresaleManager.sol:PresaleManager",
            "label": "nonce",
            "offset": 6,
            "slot": "0",
            "type": "t_uint32"
          }
        ],
        "numberOfBytes": "32"
      },
      "t_struct(Set)5984_storage": {
        "encoding": "inplace",
        "label": "struct EnumerableSet.Set",
        "members": [
          {
            "astId": 5979,
            "contract": "contracts/management/PresaleManager.sol:PresaleManager",
            "label": "_values",
            "offset": 0,
            "slot": "0",
            "type": "t_array(t_bytes32)dyn_storage"
          },
          {
            "astId": 5983,
            "contract": "contracts/management/PresaleManager.sol:PresaleManager",
            "label": "_positions",
            "offset": 0,
            "slot": "1",
            "type": "t_mapping(t_bytes32,t_uint256)"
          }
        ],
        "numberOfBytes": "64"
      },
      "t_struct(TargetConfig)465_storage": {
        "encoding": "inplace",
        "label": "struct AccessManager.TargetConfig",
        "members": [
          {
            "astId": 459,
            "contract": "contracts/management/PresaleManager.sol:PresaleManager",
            "label": "allowedRoles",
            "offset": 0,
            "slot": "0",
            "type": "t_mapping(t_bytes4,t_uint64)"
          },
          {
            "astId": 462,
            "contract": "contracts/management/PresaleManager.sol:PresaleManager",
            "label": "adminDelay",
            "offset": 0,
            "slot": "1",
            "type": "t_userDefinedValueType(Delay)6623"
          },
          {
            "astId": 464,
            "contract": "contracts/management/PresaleManager.sol:PresaleManager",
            "label": "closed",
            "offset": 14,
            "slot": "1",
            "type": "t_bool"
          }
        ],
        "numberOfBytes": "64"
      },
      "t_uint256": {
        "encoding": "inplace",
        "label": "uint256",
        "numberOfBytes": "32"
      },
      "t_uint32": {
        "encoding": "inplace",
        "label": "uint32",
        "numberOfBytes": "4"
      },
      "t_uint48": {
        "encoding": "inplace",
        "label": "uint48",
        "numberOfBytes": "6"
      },
      "t_uint64": {
        "encoding": "inplace",
        "label": "uint64",
        "numberOfBytes": "8"
      },
      "t_userDefinedValueType(Delay)6623": {
        "encoding": "inplace",
        "label": "Time.Delay",
        "numberOfBytes": "14"
      }
    }
  }
}