{
  "address": "0x9f76A75005f023FF8aA29c310FeaDF31A8118230",
  "abi": [
    {
      "inputs": [
        {
          "internalType": "address",
          "name": "initialAuthority",
          "type": "address"
        },
        {
          "internalType": "uint256",
          "name": "premintAmount",
          "type": "uint256"
        }
      ],
      "stateMutability": "nonpayable",
      "type": "constructor"
    },
    {
      "inputs": [
        {
          "internalType": "address",
          "name": "authority",
          "type": "address"
        }
      ],
      "name": "AccessManagedInvalidAuthority",
      "type": "error"
    },
    {
      "inputs": [
        {
          "internalType": "address",
          "name": "caller",
          "type": "address"
        },
        {
          "internalType": "uint32",
          "name": "delay",
          "type": "uint32"
        }
      ],
      "name": "AccessManagedRequiredDelay",
      "type": "error"
    },
    {
      "inputs": [
        {
          "internalType": "address",
          "name": "caller",
          "type": "address"
        }
      ],
      "name": "AccessManagedUnauthorized",
      "type": "error"
    },
    {
      "inputs": [
        {
          "internalType": "address",
          "name": "account",
          "type": "address"
        }
      ],
      "name": "CXBTokenAddressFreezed",
      "type": "error"
    },
    {
      "inputs": [],
      "name": "ECDSAInvalidSignature",
      "type": "error"
    },
    {
      "inputs": [
        {
          "internalType": "uint256",
          "name": "length",
          "type": "uint256"
        }
      ],
      "name": "ECDSAInvalidSignatureLength",
      "type": "error"
    },
    {
      "inputs": [
        {
          "internalType": "bytes32",
          "name": "s",
          "type": "bytes32"
        }
      ],
      "name": "ECDSAInvalidSignatureS",
      "type": "error"
    },
    {
      "inputs": [
        {
          "internalType": "address",
          "name": "spender",
          "type": "address"
        },
        {
          "internalType": "uint256",
          "name": "allowance",
          "type": "uint256"
        },
        {
          "internalType": "uint256",
          "name": "needed",
          "type": "uint256"
        }
      ],
      "name": "ERC20InsufficientAllowance",
      "type": "error"
    },
    {
      "inputs": [
        {
          "internalType": "address",
          "name": "sender",
          "type": "address"
        },
        {
          "internalType": "uint256",
          "name": "balance",
          "type": "uint256"
        },
        {
          "internalType": "uint256",
          "name": "needed",
          "type": "uint256"
        }
      ],
      "name": "ERC20InsufficientBalance",
      "type": "error"
    },
    {
      "inputs": [
        {
          "internalType": "address",
          "name": "approver",
          "type": "address"
        }
      ],
      "name": "ERC20InvalidApprover",
      "type": "error"
    },
    {
      "inputs": [
        {
          "internalType": "address",
          "name": "receiver",
          "type": "address"
        }
      ],
      "name": "ERC20InvalidReceiver",
      "type": "error"
    },
    {
      "inputs": [
        {
          "internalType": "address",
          "name": "sender",
          "type": "address"
        }
      ],
      "name": "ERC20InvalidSender",
      "type": "error"
    },
    {
      "inputs": [
        {
          "internalType": "address",
          "name": "spender",
          "type": "address"
        }
      ],
      "name": "ERC20InvalidSpender",
      "type": "error"
    },
    {
      "inputs": [
        {
          "internalType": "uint256",
          "name": "deadline",
          "type": "uint256"
        }
      ],
      "name": "ERC2612ExpiredSignature",
      "type": "error"
    },
    {
      "inputs": [
        {
          "internalType": "address",
          "name": "signer",
          "type": "address"
        },
        {
          "internalType": "address",
          "name": "owner",
          "type": "address"
        }
      ],
      "name": "ERC2612InvalidSigner",
      "type": "error"
    },
    {
      "inputs": [
        {
          "internalType": "address",
          "name": "account",
          "type": "address"
        }
      ],
      "name": "EnforcedFreeze",
      "type": "error"
    },
    {
      "inputs": [],
      "name": "EnforcedPause",
      "type": "error"
    },
    {
      "inputs": [
        {
          "internalType": "address",
          "name": "account",
          "type": "address"
        }
      ],
      "name": "ExpectedFreeze",
      "type": "error"
    },
    {
      "inputs": [],
      "name": "ExpectedPause",
      "type": "error"
    },
    {
      "inputs": [
        {
          "internalType": "address",
          "name": "account",
          "type": "address"
        },
        {
          "internalType": "uint256",
          "name": "currentNonce",
          "type": "uint256"
        }
      ],
      "name": "InvalidAccountNonce",
      "type": "error"
    },
    {
      "inputs": [],
      "name": "InvalidShortString",
      "type": "error"
    },
    {
      "inputs": [
        {
          "internalType": "string",
          "name": "str",
          "type": "string"
        }
      ],
      "name": "StringTooLong",
      "type": "error"
    },
    {
      "anonymous": false,
      "inputs": [
        {
          "indexed": true,
          "internalType": "address",
          "name": "owner",
          "type": "address"
        },
        {
          "indexed": true,
          "internalType": "address",
          "name": "spender",
          "type": "address"
        },
        {
          "indexed": false,
          "internalType": "uint256",
          "name": "value",
          "type": "uint256"
        }
      ],
      "name": "Approval",
      "type": "event"
    },
    {
      "anonymous": false,
      "inputs": [
        {
          "indexed": false,
          "internalType": "address",
          "name": "authority",
          "type": "address"
        }
      ],
      "name": "AuthorityUpdated",
      "type": "event"
    },
    {
      "anonymous": false,
      "inputs": [],
      "name": "EIP712DomainChanged",
      "type": "event"
    },
    {
      "anonymous": false,
      "inputs": [
        {
          "indexed": true,
          "internalType": "address",
          "name": "account",
          "type": "address"
        }
      ],
      "name": "Freezed",
      "type": "event"
    },
    {
      "anonymous": false,
      "inputs": [
        {
          "indexed": false,
          "internalType": "address",
          "name": "account",
          "type": "address"
        }
      ],
      "name": "Paused",
      "type": "event"
    },
    {
      "anonymous": false,
      "inputs": [
        {
          "indexed": true,
          "internalType": "address",
          "name": "from",
          "type": "address"
        },
        {
          "indexed": true,
          "internalType": "address",
          "name": "to",
          "type": "address"
        },
        {
          "indexed": false,
          "internalType": "uint256",
          "name": "value",
          "type": "uint256"
        }
      ],
      "name": "Transfer",
      "type": "event"
    },
    {
      "anonymous": false,
      "inputs": [
        {
          "indexed": true,
          "internalType": "address",
          "name": "account",
          "type": "address"
        }
      ],
      "name": "Unfreezed",
      "type": "event"
    },
    {
      "anonymous": false,
      "inputs": [
        {
          "indexed": false,
          "internalType": "address",
          "name": "account",
          "type": "address"
        }
      ],
      "name": "Unpaused",
      "type": "event"
    },
    {
      "inputs": [],
      "name": "DOMAIN_SEPARATOR",
      "outputs": [
        {
          "internalType": "bytes32",
          "name": "",
          "type": "bytes32"
        }
      ],
      "stateMutability": "view",
      "type": "function"
    },
    {
      "inputs": [
        {
          "internalType": "address",
          "name": "owner",
          "type": "address"
        },
        {
          "internalType": "address",
          "name": "spender",
          "type": "address"
        }
      ],
      "name": "allowance",
      "outputs": [
        {
          "internalType": "uint256",
          "name": "",
          "type": "uint256"
        }
      ],
      "stateMutability": "view",
      "type": "function"
    },
    {
      "inputs": [
        {
          "internalType": "address",
          "name": "spender",
          "type": "address"
        },
        {
          "internalType": "uint256",
          "name": "value",
          "type": "uint256"
        }
      ],
      "name": "approve",
      "outputs": [
        {
          "internalType": "bool",
          "name": "",
          "type": "bool"
        }
      ],
      "stateMutability": "nonpayable",
      "type": "function"
    },
    {
      "inputs": [],
      "name": "authority",
      "outputs": [
        {
          "internalType": "address",
          "name": "",
          "type": "address"
        }
      ],
      "stateMutability": "view",
      "type": "function"
    },
    {
      "inputs": [
        {
          "internalType": "address",
          "name": "account",
          "type": "address"
        }
      ],
      "name": "balanceOf",
      "outputs": [
        {
          "internalType": "uint256",
          "name": "",
          "type": "uint256"
        }
      ],
      "stateMutability": "view",
      "type": "function"
    },
    {
      "inputs": [
        {
          "internalType": "uint256",
          "name": "value",
          "type": "uint256"
        }
      ],
      "name": "burn",
      "outputs": [],
      "stateMutability": "nonpayable",
      "type": "function"
    },
    {
      "inputs": [
        {
          "internalType": "address",
          "name": "account",
          "type": "address"
        },
        {
          "internalType": "uint256",
          "name": "value",
          "type": "uint256"
        }
      ],
      "name": "burnFrom",
      "outputs": [],
      "stateMutability": "nonpayable",
      "type": "function"
    },
    {
      "inputs": [],
      "name": "decimals",
      "outputs": [
        {
          "internalType": "uint8",
          "name": "",
          "type": "uint8"
        }
      ],
      "stateMutability": "view",
      "type": "function"
    },
    {
      "inputs": [],
      "name": "eip712Domain",
      "outputs": [
        {
          "internalType": "bytes1",
          "name": "fields",
          "type": "bytes1"
        },
        {
          "internalType": "string",
          "name": "name",
          "type": "string"
        },
        {
          "internalType": "string",
          "name": "version",
          "type": "string"
        },
        {
          "internalType": "uint256",
          "name": "chainId",
          "type": "uint256"
        },
        {
          "internalType": "address",
          "name": "verifyingContract",
          "type": "address"
        },
        {
          "internalType": "bytes32",
          "name": "salt",
          "type": "bytes32"
        },
        {
          "internalType": "uint256[]",
          "name": "extensions",
          "type": "uint256[]"
        }
      ],
      "stateMutability": "view",
      "type": "function"
    },
    {
      "inputs": [
        {
          "internalType": "address",
          "name": "target",
          "type": "address"
        }
      ],
      "name": "freeze",
      "outputs": [],
      "stateMutability": "nonpayable",
      "type": "function"
    },
    {
      "inputs": [
        {
          "internalType": "address",
          "name": "target",
          "type": "address"
        }
      ],
      "name": "freezed",
      "outputs": [
        {
          "internalType": "bool",
          "name": "",
          "type": "bool"
        }
      ],
      "stateMutability": "view",
      "type": "function"
    },
    {
      "inputs": [],
      "name": "isConsumingScheduledOp",
      "outputs": [
        {
          "internalType": "bytes4",
          "name": "",
          "type": "bytes4"
        }
      ],
      "stateMutability": "view",
      "type": "function"
    },
    {
      "inputs": [
        {
          "internalType": "address",
          "name": "to",
          "type": "address"
        },
        {
          "internalType": "uint256",
          "name": "amount",
          "type": "uint256"
        }
      ],
      "name": "mint",
      "outputs": [],
      "stateMutability": "nonpayable",
      "type": "function"
    },
    {
      "inputs": [],
      "name": "name",
      "outputs": [
        {
          "internalType": "string",
          "name": "",
          "type": "string"
        }
      ],
      "stateMutability": "view",
      "type": "function"
    },
    {
      "inputs": [
        {
          "internalType": "address",
          "name": "owner",
          "type": "address"
        }
      ],
      "name": "nonces",
      "outputs": [
        {
          "internalType": "uint256",
          "name": "",
          "type": "uint256"
        }
      ],
      "stateMutability": "view",
      "type": "function"
    },
    {
      "inputs": [],
      "name": "pause",
      "outputs": [],
      "stateMutability": "nonpayable",
      "type": "function"
    },
    {
      "inputs": [],
      "name": "paused",
      "outputs": [
        {
          "internalType": "bool",
          "name": "",
          "type": "bool"
        }
      ],
      "stateMutability": "view",
      "type": "function"
    },
    {
      "inputs": [
        {
          "internalType": "address",
          "name": "owner",
          "type": "address"
        },
        {
          "internalType": "address",
          "name": "spender",
          "type": "address"
        },
        {
          "internalType": "uint256",
          "name": "value",
          "type": "uint256"
        },
        {
          "internalType": "uint256",
          "name": "deadline",
          "type": "uint256"
        },
        {
          "internalType": "uint8",
          "name": "v",
          "type": "uint8"
        },
        {
          "internalType": "bytes32",
          "name": "r",
          "type": "bytes32"
        },
        {
          "internalType": "bytes32",
          "name": "s",
          "type": "bytes32"
        }
      ],
      "name": "permit",
      "outputs": [],
      "stateMutability": "nonpayable",
      "type": "function"
    },
    {
      "inputs": [
        {
          "internalType": "address",
          "name": "newAuthority",
          "type": "address"
        }
      ],
      "name": "setAuthority",
      "outputs": [],
      "stateMutability": "nonpayable",
      "type": "function"
    },
    {
      "inputs": [],
      "name": "symbol",
      "outputs": [
        {
          "internalType": "string",
          "name": "",
          "type": "string"
        }
      ],
      "stateMutability": "view",
      "type": "function"
    },
    {
      "inputs": [],
      "name": "totalSupply",
      "outputs": [
        {
          "internalType": "uint256",
          "name": "",
          "type": "uint256"
        }
      ],
      "stateMutability": "view",
      "type": "function"
    },
    {
      "inputs": [
        {
          "internalType": "address",
          "name": "to",
          "type": "address"
        },
        {
          "internalType": "uint256",
          "name": "value",
          "type": "uint256"
        }
      ],
      "name": "transfer",
      "outputs": [
        {
          "internalType": "bool",
          "name": "",
          "type": "bool"
        }
      ],
      "stateMutability": "nonpayable",
      "type": "function"
    },
    {
      "inputs": [
        {
          "internalType": "address",
          "name": "from",
          "type": "address"
        },
        {
          "internalType": "address",
          "name": "to",
          "type": "address"
        },
        {
          "internalType": "uint256",
          "name": "value",
          "type": "uint256"
        }
      ],
      "name": "transferFrom",
      "outputs": [
        {
          "internalType": "bool",
          "name": "",
          "type": "bool"
        }
      ],
      "stateMutability": "nonpayable",
      "type": "function"
    },
    {
      "inputs": [
        {
          "internalType": "address",
          "name": "target",
          "type": "address"
        }
      ],
      "name": "unfreeze",
      "outputs": [],
      "stateMutability": "nonpayable",
      "type": "function"
    },
    {
      "inputs": [],
      "name": "unpause",
      "outputs": [],
      "stateMutability": "nonpayable",
      "type": "function"
    }
  ],
  "transactionHash": "0x19eaedf1354dc763e4a14c1b4cea37dcdbaae6592f1b0ff60957ffadc9460d69",
  "args": [
    "0x9Cb1bd9c6968425F674688697882d6d09C7edF28",
    5000000
  ],
  "numDeployments": 5,
  "solcInputHash": "568575df80ff60af699ac7ffd5829ce9",
  "bytecode": "0x6101606040523480156200001257600080fd5b506040516200231c3803806200231c8339810160408190526200003591620004ff565b6040518060400160405280600881526020016721ac212a37b5b2b760c11b81525080604051806040016040528060018152602001603160f81b815250846040518060400160405280600881526020016721ac212a37b5b2b760c11b8152506040518060400160405280600481526020016310d6109560e21b8152508160039081620000c19190620005df565b506004620000d08282620005df565b50506005805460ff1916905550620000e881620001cc565b50620000f682600662000228565b610120526200010781600762000228565b61014052815160208084019190912060e052815190820120610100524660a0526200019560e05161010051604080517f8b73c3c69bb8fe3d512ecc4cf759cc79239f7b179b0ffacaa9a75d522b39400f60208201529081019290925260608201524660808201523060a082015260009060c00160405160208183030381529060405280519060200120905090565b60805250503060c05250620001c482620001b26012600a620007be565b620001be9084620007cf565b62000261565b505062000874565b60058054610100600160a81b0319166101006001600160a01b038416908102919091179091556040519081527f2f658b440c35314f52658ea8a740e05b284cdc84dc9ae01e891f21b8933e7cad9060200160405180910390a150565b600060208351101562000248576200024083620002a3565b90506200025b565b81620002558482620005df565b5060ff90505b92915050565b6001600160a01b038216620002915760405163ec442f0560e01b8152600060048201526024015b60405180910390fd5b6200029f60008383620002e6565b5050565b600080829050601f81511115620002d1578260405163305a27a960e01b8152600401620002889190620007e9565b8051620002de8262000839565b179392505050565b620002f06200031c565b81620002fc8162000343565b83620003088162000343565b620003158585856200037c565b5050505050565b60055460ff1615620003415760405163d93c066560e01b815260040160405180910390fd5b565b6200034e8162000398565b156200037957604051638e8697df60e01b81526001600160a01b038216600482015260240162000288565b50565b620003866200031c565b62000393838383620003a7565b505050565b60006200025b600983620004da565b6001600160a01b038316620003d6578060026000828254620003ca91906200085e565b909155506200044a9050565b6001600160a01b038316600090815260208190526040902054818110156200042b5760405163391434e360e21b81526001600160a01b0385166004820152602481018290526044810183905260640162000288565b6001600160a01b03841660009081526020819052604090209082900390555b6001600160a01b038216620004685760028054829003905562000487565b6001600160a01b03821660009081526020819052604090208054820190555b816001600160a01b0316836001600160a01b03167fddf252ad1be2c89b69c2b068fc378daa952ba7f163c4a11628f55a4df523b3ef83604051620004cd91815260200190565b60405180910390a3505050565b6001600160a01b038116600090815260018301602052604081205415155b9392505050565b600080604083850312156200051357600080fd5b82516001600160a01b03811681146200052b57600080fd5b6020939093015192949293505050565b634e487b7160e01b600052604160045260246000fd5b600181811c908216806200056657607f821691505b6020821081036200058757634e487b7160e01b600052602260045260246000fd5b50919050565b601f8211156200039357600081815260208120601f850160051c81016020861015620005b65750805b601f850160051c820191505b81811015620005d757828155600101620005c2565b505050505050565b81516001600160401b03811115620005fb57620005fb6200053b565b62000613816200060c845462000551565b846200058d565b602080601f8311600181146200064b5760008415620006325750858301515b600019600386901b1c1916600185901b178555620005d7565b600085815260208120601f198616915b828110156200067c578886015182559484019460019091019084016200065b565b50858210156200069b5787850151600019600388901b60f8161c191681555b5050505050600190811b01905550565b634e487b7160e01b600052601160045260246000fd5b600181815b8085111562000702578160001904821115620006e657620006e6620006ab565b80851615620006f457918102915b93841c9390800290620006c6565b509250929050565b6000826200071b575060016200025b565b816200072a575060006200025b565b81600181146200074357600281146200074e576200076e565b60019150506200025b565b60ff841115620007625762000762620006ab565b50506001821b6200025b565b5060208310610133831016604e8410600b841016171562000793575081810a6200025b565b6200079f8383620006c1565b8060001904821115620007b657620007b6620006ab565b029392505050565b6000620004f860ff8416836200070a565b80820281158282048414176200025b576200025b620006ab565b600060208083528351808285015260005b818110156200081857858101830151858201604001528201620007fa565b506000604082860101526040601f19601f8301168501019250505092915050565b80516020808301519190811015620005875760001960209190910360031b1b16919050565b808201808211156200025b576200025b620006ab565b60805160a05160c05160e051610100516101205161014051611a4d620008cf6000396000610d9201526000610d6501526000610a12015260006109ea015260006109450152600061096f015260006109990152611a4d6000f3fe608060405234801561001057600080fd5b50600436106101a35760003560e01c806370a08231116100ee5780638d1fdf2f11610097578063a9059cbb11610071578063a9059cbb14610347578063bf7e214f1461035a578063d505accf14610383578063dd62ed3e1461039657600080fd5b80638d1fdf2f1461030b5780638fb360371461031e57806395d89b411461033f57600080fd5b80637ecebe00116100c85780637ecebe00146102d55780638456cb59146102e857806384b0196e146102f057600080fd5b806370a082311461028657806379cc6790146102af5780637a9e5e4b146102c257600080fd5b80633f4ba83a1161015057806342966c681161012a57806342966c681461025557806345c8b1a6146102685780635c975abb1461027b57600080fd5b80633f4ba83a14610225578063406f11f51461022f57806340c10f191461024257600080fd5b806323b872dd1161018157806323b872dd146101fb578063313ce5671461020e5780633644e5151461021d57600080fd5b806306fdde03146101a8578063095ea7b3146101c657806318160ddd146101e9575b600080fd5b6101b06103cf565b6040516101bd9190611665565b60405180910390f35b6101d96101d4366004611694565b610461565b60405190151581526020016101bd565b6002545b6040519081526020016101bd565b6101d96102093660046116be565b61047b565b604051601281526020016101bd565b6101ed6104bd565b61022d6104cc565b005b6101d961023d3660046116fa565b6104e3565b61022d610250366004611694565b6104f0565b61022d610263366004611715565b610512565b61022d6102763660046116fa565b61051f565b60055460ff166101d9565b6101ed6102943660046116fa565b6001600160a01b031660009081526020819052604090205490565b61022d6102bd366004611694565b610531565b61022d6102d03660046116fa565b61054a565b6101ed6102e33660046116fa565b6105ca565b61022d6105e8565b6102f86105f9565b6040516101bd979695949392919061172e565b61022d6103193660046116fa565b61063f565b610326610651565b6040516001600160e01b031990911681526020016101bd565b6101b0610677565b6101d9610355366004611694565b610686565b60055461010090046001600160a01b03166040516001600160a01b0390911681526020016101bd565b61022d6103913660046117c4565b6106be565b6101ed6103a4366004611837565b6001600160a01b03918216600090815260016020908152604080832093909416825291909152205490565b6060600380546103de9061186a565b80601f016020809104026020016040519081016040528092919081815260200182805461040a9061186a565b80156104575780601f1061042c57610100808354040283529160200191610457565b820191906000526020600020905b81548152906001019060200180831161043a57829003601f168201915b5050505050905090565b60003361046f8185856107f8565b60019150505b92915050565b6000610485610805565b8261048f81610829565b8461049981610829565b336104a587828761085b565b6104b08787876108d9565b5060019695505050505050565b60006104c7610938565b905090565b6104d9335b600036610a63565b6104e1610b7d565b565b6000610475600983610bcf565b6104f9336104d1565b8161050381610829565b61050d8383610bf4565b505050565b61051c3382610c2a565b50565b610528336104d1565b61051c81610c60565b61053c82338361085b565b6105468282610c2a565b5050565b600554339061010090046001600160a01b0316811461058b5760405162d1953b60e31b81526001600160a01b03821660048201526024015b60405180910390fd5b816001600160a01b03163b6000036105c1576040516361798f2f60e11b81526001600160a01b0383166004820152602401610582565b61054682610cae565b6001600160a01b038116600090815260086020526040812054610475565b6105f1336104d1565b6104e1610d21565b60006060806000806000606061060d610d5e565b610615610d8b565b60408051600080825260208201909252600f60f81b9b939a50919850469750309650945092509050565b610648336104d1565b61051c81610db8565b600554600090600160a81b900460ff1661066b5750600090565b50638fb3603760e01b90565b6060600480546103de9061186a565b6000610690610805565b8261069a81610829565b336106a481610829565b336106b08187876108d9565b60019350505b505092915050565b834211156106e25760405163313c898160e11b815260048101859052602401610582565b60007f6e71edae12b1b97f4d1f60370fef10105fa2faae0126114a169c64845d6126c988888861072f8c6001600160a01b0316600090815260086020526040902080546001810190915590565b6040805160208101969096526001600160a01b0394851690860152929091166060840152608083015260a082015260c0810186905260e001604051602081830303815290604052805190602001209050600061078a82610e06565b9050600061079a82878787610e33565b9050896001600160a01b0316816001600160a01b0316146107e1576040516325c0072360e11b81526001600160a01b0380831660048301528b166024820152604401610582565b6107ec8a8a8a6107f8565b50505050505050505050565b61050d8383836001610e61565b60055460ff16156104e15760405163d93c066560e01b815260040160405180910390fd5b610832816104e3565b1561051c57604051638e8697df60e01b81526001600160a01b0382166004820152602401610582565b6001600160a01b0383811660009081526001602090815260408083209386168352929052205460001981146108d357818110156108c457604051637dc7a0d960e11b81526001600160a01b03841660048201526024810182905260448101839052606401610582565b6108d384848484036000610e61565b50505050565b6001600160a01b03831661090357604051634b637e8f60e11b815260006004820152602401610582565b6001600160a01b03821661092d5760405163ec442f0560e01b815260006004820152602401610582565b61050d838383610f36565b6000306001600160a01b037f00000000000000000000000000000000000000000000000000000000000000001614801561099157507f000000000000000000000000000000000000000000000000000000000000000046145b156109bb57507f000000000000000000000000000000000000000000000000000000000000000090565b6104c7604080517f8b73c3c69bb8fe3d512ecc4cf759cc79239f7b179b0ffacaa9a75d522b39400f60208201527f0000000000000000000000000000000000000000000000000000000000000000918101919091527f000000000000000000000000000000000000000000000000000000000000000060608201524660808201523060a082015260009060c00160405160208183030381529060405280519060200120905090565b600080610a9f610a816005546001600160a01b036101009091041690565b8630610a9160046000898b6118a4565b610a9a916118ce565b610f5d565b9150915081610b765763ffffffff811615610b53576005805460ff60a81b1916600160a81b179055610adf6005546001600160a01b036101009091041690565b6001600160a01b03166394c7d7ee8686866040518463ffffffff1660e01b8152600401610b0e939291906118fc565b600060405180830381600087803b158015610b2857600080fd5b505af1158015610b3c573d6000803e3d6000fd5b50506005805460ff60a81b1916905550610b769050565b60405162d1953b60e31b81526001600160a01b0386166004820152602401610582565b5050505050565b610b8561107e565b6005805460ff191690557f5db9ee0a495bf2e6ff9c91a7834c1ba4fdd244a5e8aa4e537bd38aeae4b073aa335b6040516001600160a01b03909116815260200160405180910390a1565b6001600160a01b038116600090815260018301602052604081205415155b9392505050565b6001600160a01b038216610c1e5760405163ec442f0560e01b815260006004820152602401610582565b61054660008383610f36565b6001600160a01b038216610c5457604051634b637e8f60e11b815260006004820152602401610582565b61054682600083610f36565b80610c6a816110a1565b610c756009836110d2565b506040516001600160a01b038316907f4d1fe3cc0f516ce2cfc5e83d52ee28af7f55376b18f58e7081c5fd25d8eeb1df90600090a25050565b600580547fffffffffffffffffffffff0000000000000000000000000000000000000000ff166101006001600160a01b038416908102919091179091556040519081527f2f658b440c35314f52658ea8a740e05b284cdc84dc9ae01e891f21b8933e7cad9060200160405180910390a150565b610d29610805565b6005805460ff191660011790557f62e78cea01bee320cd4e420270b5ea74000d11b0c9f74754ebdbfc544b05a258610bb23390565b60606104c77f000000000000000000000000000000000000000000000000000000000000000060066110e7565b60606104c77f000000000000000000000000000000000000000000000000000000000000000060076110e7565b80610dc281610829565b610dcd600983611192565b506040516001600160a01b038316907f0de8364a528e5ca2869160b20c375fe85b4e98d24a9cb48b4dc49c5f76d05b2490600090a25050565b6000610475610e13610938565b8360405161190160f01b8152600281019290925260228201526042902090565b600080600080610e45888888886111a7565b925092509250610e558282611276565b50909695505050505050565b6001600160a01b038416610e8b5760405163e602df0560e01b815260006004820152602401610582565b6001600160a01b038316610eb557604051634a1406b160e11b815260006004820152602401610582565b6001600160a01b03808516600090815260016020908152604080832093871683529290522082905580156108d357826001600160a01b0316846001600160a01b03167f8c5be1e5ebec7d5bd14f71427d1e84f3dd0314c0f7b2291e5b200ac8c7c3b92584604051610f2891815260200190565b60405180910390a350505050565b610f3e610805565b81610f4881610829565b83610f5281610829565b610b7685858561132f565b6040516001600160a01b03848116602483015283811660448301526001600160e01b03198316606483015260009182918291829189169060840160408051601f198184030181529181526020820180517bffffffffffffffffffffffffffffffffffffffffffffffffffffffff1663b700961360e01b17905251610fe1919061193b565b600060405180830381855afa9150503d806000811461101c576040519150601f19603f3d011682016040523d82523d6000602084013e611021565b606091505b5091509150811561107357604081511061105357808060200190518101906110499190611967565b9094509250611073565b6020815110611073578080602001905181019061107091906119a7565b93505b505094509492505050565b60055460ff166104e157604051638dfc202b60e01b815260040160405180910390fd5b6110aa816104e3565b61051c57604051630911d4c760e01b81526001600160a01b0382166004820152602401610582565b6000610bed836001600160a01b038416611342565b606060ff8314611101576110fa83611435565b9050610475565b81805461110d9061186a565b80601f01602080910402602001604051908101604052809291908181526020018280546111399061186a565b80156111865780601f1061115b57610100808354040283529160200191611186565b820191906000526020600020905b81548152906001019060200180831161116957829003601f168201915b50505050509050610475565b6000610bed836001600160a01b038416611474565b600080807f7fffffffffffffffffffffffffffffff5d576e7357a4501ddfe92f46681b20a08411156111e2575060009150600390508261126c565b604080516000808252602082018084528a905260ff891692820192909252606081018790526080810186905260019060a0016020604051602081039080840390855afa158015611236573d6000803e3d6000fd5b5050604051601f1901519150506001600160a01b0381166112625750600092506001915082905061126c565b9250600091508190505b9450945094915050565b600082600381111561128a5761128a6119c2565b03611293575050565b60018260038111156112a7576112a76119c2565b036112c55760405163f645eedf60e01b815260040160405180910390fd5b60028260038111156112d9576112d96119c2565b036112fa5760405163fce698f760e01b815260048101829052602401610582565b600382600381111561130e5761130e6119c2565b03610546576040516335e2f38360e21b815260048101829052602401610582565b611337610805565b61050d8383836114c3565b6000818152600183016020526040812054801561142b5760006113666001836119ee565b855490915060009061137a906001906119ee565b90508082146113df57600086600001828154811061139a5761139a611a01565b90600052602060002001549050808760000184815481106113bd576113bd611a01565b6000918252602080832090910192909255918252600188019052604090208390555b85548690806113f0576113f0611a17565b600190038181906000526020600020016000905590558560010160008681526020019081526020016000206000905560019350505050610475565b6000915050610475565b60606000611442836115ed565b604080516020808252818301909252919250600091906020820181803683375050509182525060208101929092525090565b60008181526001830160205260408120546114bb57508154600181810184556000848152602080822090930184905584548482528286019093526040902091909155610475565b506000610475565b6001600160a01b0383166114ee5780600260008282546114e39190611a2d565b909155506115609050565b6001600160a01b038316600090815260208190526040902054818110156115415760405163391434e360e21b81526001600160a01b03851660048201526024810182905260448101839052606401610582565b6001600160a01b03841660009081526020819052604090209082900390555b6001600160a01b03821661157c5760028054829003905561159b565b6001600160a01b03821660009081526020819052604090208054820190555b816001600160a01b0316836001600160a01b03167fddf252ad1be2c89b69c2b068fc378daa952ba7f163c4a11628f55a4df523b3ef836040516115e091815260200190565b60405180910390a3505050565b600060ff8216601f81111561047557604051632cd44ac360e21b815260040160405180910390fd5b60005b83811015611630578181015183820152602001611618565b50506000910152565b60008151808452611651816020860160208601611615565b601f01601f19169290920160200192915050565b602081526000610bed6020830184611639565b80356001600160a01b038116811461168f57600080fd5b919050565b600080604083850312156116a757600080fd5b6116b083611678565b946020939093013593505050565b6000806000606084860312156116d357600080fd5b6116dc84611678565b92506116ea60208501611678565b9150604084013590509250925092565b60006020828403121561170c57600080fd5b610bed82611678565b60006020828403121561172757600080fd5b5035919050565b60ff60f81b881681526000602060e08184015261174e60e084018a611639565b8381036040850152611760818a611639565b606085018990526001600160a01b038816608086015260a0850187905284810360c0860152855180825283870192509083019060005b818110156117b257835183529284019291840191600101611796565b50909c9b505050505050505050505050565b600080600080600080600060e0888a0312156117df57600080fd5b6117e888611678565b96506117f660208901611678565b95506040880135945060608801359350608088013560ff8116811461181a57600080fd5b9699959850939692959460a0840135945060c09093013592915050565b6000806040838503121561184a57600080fd5b61185383611678565b915061186160208401611678565b90509250929050565b600181811c9082168061187e57607f821691505b60208210810361189e57634e487b7160e01b600052602260045260246000fd5b50919050565b600080858511156118b457600080fd5b838611156118c157600080fd5b5050820193919092039150565b6001600160e01b031981358181169160048510156106b65760049490940360031b84901b1690921692915050565b6001600160a01b038416815260406020820152816040820152818360608301376000818301606090810191909152601f909201601f1916010192915050565b6000825161194d818460208701611615565b9190910192915050565b8051801515811461168f57600080fd5b6000806040838503121561197a57600080fd5b61198383611957565b9150602083015163ffffffff8116811461199c57600080fd5b809150509250929050565b6000602082840312156119b957600080fd5b610bed82611957565b634e487b7160e01b600052602160045260246000fd5b634e487b7160e01b600052601160045260246000fd5b81810381811115610475576104756119d8565b634e487b7160e01b600052603260045260246000fd5b634e487b7160e01b600052603160045260246000fd5b80820180821115610475576104756119d856fea164736f6c6343000814000a",
  "devdoc": {
    "errors": {
      "CXBTokenAddressFreezed(address)": [
        {
          "details": "Indicates an error when freezed address called function",
          "params": {
            "account": "Address who calls"
          }
        }
      ],
      "ECDSAInvalidSignature()": [
        {
          "details": "The signature derives the `address(0)`."
        }
      ],
      "ECDSAInvalidSignatureLength(uint256)": [
        {
          "details": "The signature has an invalid length."
        }
      ],
      "ECDSAInvalidSignatureS(bytes32)": [
        {
          "details": "The signature has an S value that is in the upper half order."
        }
      ],
      "ERC20InsufficientAllowance(address,uint256,uint256)": [
        {
          "details": "Indicates a failure with the `spender`s `allowance`. Used in transfers.",
          "params": {
            "allowance": "Amount of tokens a `spender` is allowed to operate with.",
            "needed": "Minimum amount required to perform a transfer.",
            "spender": "Address that may be allowed to operate on tokens without being their owner."
          }
        }
      ],
      "ERC20InsufficientBalance(address,uint256,uint256)": [
        {
          "details": "Indicates an error related to the current `balance` of a `sender`. Used in transfers.",
          "params": {
            "balance": "Current balance for the interacting account.",
            "needed": "Minimum amount required to perform a transfer.",
            "sender": "Address whose tokens are being transferred."
          }
        }
      ],
      "ERC20InvalidApprover(address)": [
        {
          "details": "Indicates a failure with the `approver` of a token to be approved. Used in approvals.",
          "params": {
            "approver": "Address initiating an approval operation."
          }
        }
      ],
      "ERC20InvalidReceiver(address)": [
        {
          "details": "Indicates a failure with the token `receiver`. Used in transfers.",
          "params": {
            "receiver": "Address to which tokens are being transferred."
          }
        }
      ],
      "ERC20InvalidSender(address)": [
        {
          "details": "Indicates a failure with the token `sender`. Used in transfers.",
          "params": {
            "sender": "Address whose tokens are being transferred."
          }
        }
      ],
      "ERC20InvalidSpender(address)": [
        {
          "details": "Indicates a failure with the `spender` to be approved. Used in approvals.",
          "params": {
            "spender": "Address that may be allowed to operate on tokens without being their owner."
          }
        }
      ],
      "ERC2612ExpiredSignature(uint256)": [
        {
          "details": "Permit deadline has expired."
        }
      ],
      "ERC2612InvalidSigner(address,address)": [
        {
          "details": "Mismatched signature."
        }
      ],
      "EnforcedFreeze(address)": [
        {
          "details": "Indicates an error when freezed address called function",
          "params": {
            "account": "Address who calls"
          }
        }
      ],
      "EnforcedPause()": [
        {
          "details": "The operation failed because the contract is paused."
        }
      ],
      "ExpectedFreeze(address)": [
        {
          "details": "The operation failed because the address is not freezed."
        }
      ],
      "ExpectedPause()": [
        {
          "details": "The operation failed because the contract is not paused."
        }
      ],
      "InvalidAccountNonce(address,uint256)": [
        {
          "details": "The nonce used for an `account` is not the expected current nonce."
        }
      ]
    },
    "events": {
      "Approval(address,address,uint256)": {
        "details": "Emitted when the allowance of a `spender` for an `owner` is set by a call to {approve}. `value` is the new allowance."
      },
      "AuthorityUpdated(address)": {
        "details": "Authority that manages this contract was updated."
      },
      "EIP712DomainChanged()": {
        "details": "MAY be emitted to signal that the domain could have changed."
      },
      "Freezed(address)": {
        "details": "Emitted when the freeze is triggered by `account`."
      },
      "Paused(address)": {
        "details": "Emitted when the pause is triggered by `account`."
      },
      "Transfer(address,address,uint256)": {
        "details": "Emitted when `value` tokens are moved from one account (`from`) to another (`to`). Note that `value` may be zero."
      },
      "Unfreezed(address)": {
        "details": "Emitted when the freeze is lifted by `account`."
      },
      "Unpaused(address)": {
        "details": "Emitted when the pause is lifted by `account`."
      }
    },
    "kind": "dev",
    "methods": {
      "DOMAIN_SEPARATOR()": {
        "details": "Returns the domain separator used in the encoding of the signature for {permit}, as defined by {EIP712}."
      },
      "allowance(address,address)": {
        "details": "See {IERC20-allowance}."
      },
      "approve(address,uint256)": {
        "details": "See {IERC20-approve}. NOTE: If `value` is the maximum `uint256`, the allowance is not updated on `transferFrom`. This is semantically equivalent to an infinite approval. Requirements: - `spender` cannot be the zero address."
      },
      "authority()": {
        "details": "Returns the current authority."
      },
      "balanceOf(address)": {
        "details": "See {IERC20-balanceOf}."
      },
      "burn(uint256)": {
        "details": "Destroys a `value` amount of tokens from the caller. See {ERC20-_burn}."
      },
      "burnFrom(address,uint256)": {
        "details": "Destroys a `value` amount of tokens from `account`, deducting from the caller's allowance. See {ERC20-_burn} and {ERC20-allowance}. Requirements: - the caller must have allowance for ``accounts``'s tokens of at least `value`."
      },
      "decimals()": {
        "details": "Returns the number of decimals used to get its user representation. For example, if `decimals` equals `2`, a balance of `505` tokens should be displayed to a user as `5.05` (`505 / 10 ** 2`). Tokens usually opt for a value of 18, imitating the relationship between Ether and Wei. This is the default value returned by this function, unless it's overridden. NOTE: This information is only used for _display_ purposes: it in no way affects any of the arithmetic of the contract, including {IERC20-balanceOf} and {IERC20-transfer}."
      },
      "eip712Domain()": {
        "details": "See {IERC-5267}."
      },
      "freezed(address)": {
        "details": "Returns true if the address is freezed, and false otherwise. Requirements:",
        "params": {
          "target": "The verified address"
        }
      },
      "isConsumingScheduledOp()": {
        "details": "Returns true only in the context of a delayed restricted call, at the moment that the scheduled operation is being consumed. Prevents denial of service for delayed restricted calls in the case that the contract performs attacker controlled calls."
      },
      "name()": {
        "details": "Returns the name of the token."
      },
      "nonces(address)": {
        "details": "Returns the current nonce for `owner`. This value must be included whenever a signature is generated for {permit}. Every successful call to {permit} increases ``owner``'s nonce by one. This prevents a signature from being used multiple times."
      },
      "paused()": {
        "details": "Returns true if the contract is paused, and false otherwise."
      },
      "permit(address,address,uint256,uint256,uint8,bytes32,bytes32)": {
        "details": "Sets `value` as the allowance of `spender` over ``owner``'s tokens, given ``owner``'s signed approval. IMPORTANT: The same issues {IERC20-approve} has related to transaction ordering also apply here. Emits an {Approval} event. Requirements: - `spender` cannot be the zero address. - `deadline` must be a timestamp in the future. - `v`, `r` and `s` must be a valid `secp256k1` signature from `owner` over the EIP712-formatted function arguments. - the signature must use ``owner``'s current nonce (see {nonces}). For more information on the signature format, see the https://eips.ethereum.org/EIPS/eip-2612#specification[relevant EIP section]. CAUTION: See Security Considerations above."
      },
      "setAuthority(address)": {
        "details": "Transfers control to a new authority. The caller must be the current authority."
      },
      "symbol()": {
        "details": "Returns the symbol of the token, usually a shorter version of the name."
      },
      "totalSupply()": {
        "details": "See {IERC20-totalSupply}."
      },
      "transfer(address,uint256)": {
        "details": "See {IERC20-transfer}. Requirements: - `to` cannot be the zero address. - the caller must have a balance of at least `value`."
      },
      "transferFrom(address,address,uint256)": {
        "details": "See {IERC20-transferFrom}. Emits an {Approval} event indicating the updated allowance. This is not required by the EIP. See the note at the beginning of {ERC20}. NOTE: Does not update the allowance if the current allowance is the maximum `uint256`. Requirements: - `from` and `to` cannot be the zero address. - `from` must have a balance of at least `value`. - the caller must have allowance for ``from``'s tokens of at least `value`."
      }
    },
    "version": 1
  },
  "userdoc": {
    "kind": "user",
    "methods": {},
    "version": 1
  },
  "storageLayout": {
    "storage": [
      {
        "astId": 2979,
        "contract": "contracts/tokens/CXBToken.sol:CXBToken",
        "label": "_balances",
        "offset": 0,
        "slot": "0",
        "type": "t_mapping(t_address,t_uint256)"
      },
      {
        "astId": 2985,
        "contract": "contracts/tokens/CXBToken.sol:CXBToken",
        "label": "_allowances",
        "offset": 0,
        "slot": "1",
        "type": "t_mapping(t_address,t_mapping(t_address,t_uint256))"
      },
      {
        "astId": 2987,
        "contract": "contracts/tokens/CXBToken.sol:CXBToken",
        "label": "_totalSupply",
        "offset": 0,
        "slot": "2",
        "type": "t_uint256"
      },
      {
        "astId": 2989,
        "contract": "contracts/tokens/CXBToken.sol:CXBToken",
        "label": "_name",
        "offset": 0,
        "slot": "3",
        "type": "t_string_storage"
      },
      {
        "astId": 2991,
        "contract": "contracts/tokens/CXBToken.sol:CXBToken",
        "label": "_symbol",
        "offset": 0,
        "slot": "4",
        "type": "t_string_storage"
      },
      {
        "astId": 4292,
        "contract": "contracts/tokens/CXBToken.sol:CXBToken",
        "label": "_paused",
        "offset": 0,
        "slot": "5",
        "type": "t_bool"
      },
      {
        "astId": 166,
        "contract": "contracts/tokens/CXBToken.sol:CXBToken",
        "label": "_authority",
        "offset": 1,
        "slot": "5",
        "type": "t_address"
      },
      {
        "astId": 168,
        "contract": "contracts/tokens/CXBToken.sol:CXBToken",
        "label": "_consumingSchedule",
        "offset": 21,
        "slot": "5",
        "type": "t_bool"
      },
      {
        "astId": 5436,
        "contract": "contracts/tokens/CXBToken.sol:CXBToken",
        "label": "_nameFallback",
        "offset": 0,
        "slot": "6",
        "type": "t_string_storage"
      },
      {
        "astId": 5438,
        "contract": "contracts/tokens/CXBToken.sol:CXBToken",
        "label": "_versionFallback",
        "offset": 0,
        "slot": "7",
        "type": "t_string_storage"
      },
      {
        "astId": 4229,
        "contract": "contracts/tokens/CXBToken.sol:CXBToken",
        "label": "_nonces",
        "offset": 0,
        "slot": "8",
        "type": "t_mapping(t_address,t_uint256)"
      },
      {
        "astId": 12145,
        "contract": "contracts/tokens/CXBToken.sol:CXBToken",
        "label": "_freezedAccounts",
        "offset": 0,
        "slot": "9",
        "type": "t_struct(AddressSet)10592_storage"
      }
    ],
    "types": {
      "t_address": {
        "encoding": "inplace",
        "label": "address",
        "numberOfBytes": "20"
      },
      "t_array(t_bytes32)dyn_storage": {
        "base": "t_bytes32",
        "encoding": "dynamic_array",
        "label": "bytes32[]",
        "numberOfBytes": "32"
      },
      "t_bool": {
        "encoding": "inplace",
        "label": "bool",
        "numberOfBytes": "1"
      },
      "t_bytes32": {
        "encoding": "inplace",
        "label": "bytes32",
        "numberOfBytes": "32"
      },
      "t_mapping(t_address,t_mapping(t_address,t_uint256))": {
        "encoding": "mapping",
        "key": "t_address",
        "label": "mapping(address => mapping(address => uint256))",
        "numberOfBytes": "32",
        "value": "t_mapping(t_address,t_uint256)"
      },
      "t_mapping(t_address,t_uint256)": {
        "encoding": "mapping",
        "key": "t_address",
        "label": "mapping(address => uint256)",
        "numberOfBytes": "32",
        "value": "t_uint256"
      },
      "t_mapping(t_bytes32,t_uint256)": {
        "encoding": "mapping",
        "key": "t_bytes32",
        "label": "mapping(bytes32 => uint256)",
        "numberOfBytes": "32",
        "value": "t_uint256"
      },
      "t_string_storage": {
        "encoding": "bytes",
        "label": "string",
        "numberOfBytes": "32"
      },
      "t_struct(AddressSet)10592_storage": {
        "encoding": "inplace",
        "label": "struct EnumerableSet.AddressSet",
        "members": [
          {
            "astId": 10591,
            "contract": "contracts/tokens/CXBToken.sol:CXBToken",
            "label": "_inner",
            "offset": 0,
            "slot": "0",
            "type": "t_struct(Set)10277_storage"
          }
        ],
        "numberOfBytes": "64"
      },
      "t_struct(Set)10277_storage": {
        "encoding": "inplace",
        "label": "struct EnumerableSet.Set",
        "members": [
          {
            "astId": 10272,
            "contract": "contracts/tokens/CXBToken.sol:CXBToken",
            "label": "_values",
            "offset": 0,
            "slot": "0",
            "type": "t_array(t_bytes32)dyn_storage"
          },
          {
            "astId": 10276,
            "contract": "contracts/tokens/CXBToken.sol:CXBToken",
            "label": "_positions",
            "offset": 0,
            "slot": "1",
            "type": "t_mapping(t_bytes32,t_uint256)"
          }
        ],
        "numberOfBytes": "64"
      },
      "t_uint256": {
        "encoding": "inplace",
        "label": "uint256",
        "numberOfBytes": "32"
      }
    }
  }
}