{
  "address": "0x0a97B1F02bfC04DFb6615d546Eb3A083308e7f10",
  "abi": [
    {
      "inputs": [
        {
          "internalType": "address",
          "name": "initialOwner",
          "type": "address"
        },
        {
          "internalType": "address",
          "name": "token",
          "type": "address"
        },
        {
          "internalType": "uint256",
          "name": "bonus",
          "type": "uint256"
        }
      ],
      "stateMutability": "nonpayable",
      "type": "constructor"
    },
    {
      "inputs": [
        {
          "internalType": "bytes32",
          "name": "operationId",
          "type": "bytes32"
        }
      ],
      "name": "AccessManagerAlreadyScheduled",
      "type": "error"
    },
    {
      "inputs": [],
      "name": "AccessManagerBadConfirmation",
      "type": "error"
    },
    {
      "inputs": [
        {
          "internalType": "bytes32",
          "name": "operationId",
          "type": "bytes32"
        }
      ],
      "name": "AccessManagerExpired",
      "type": "error"
    },
    {
      "inputs": [
        {
          "internalType": "address",
          "name": "initialAdmin",
          "type": "address"
        }
      ],
      "name": "AccessManagerInvalidInitialAdmin",
      "type": "error"
    },
    {
      "inputs": [
        {
          "internalType": "address",
          "name": "account",
          "type": "address"
        }
      ],
      "name": "AccessManagerLockedAccount",
      "type": "error"
    },
    {
      "inputs": [
        {
          "internalType": "uint64",
          "name": "roleId",
          "type": "uint64"
        }
      ],
      "name": "AccessManagerLockedRole",
      "type": "error"
    },
    {
      "inputs": [
        {
          "internalType": "bytes32",
          "name": "operationId",
          "type": "bytes32"
        }
      ],
      "name": "AccessManagerNotReady",
      "type": "error"
    },
    {
      "inputs": [
        {
          "internalType": "bytes32",
          "name": "operationId",
          "type": "bytes32"
        }
      ],
      "name": "AccessManagerNotScheduled",
      "type": "error"
    },
    {
      "inputs": [
        {
          "internalType": "address",
          "name": "msgsender",
          "type": "address"
        },
        {
          "internalType": "uint64",
          "name": "roleId",
          "type": "uint64"
        }
      ],
      "name": "AccessManagerUnauthorizedAccount",
      "type": "error"
    },
    {
      "inputs": [
        {
          "internalType": "address",
          "name": "caller",
          "type": "address"
        },
        {
          "internalType": "address",
          "name": "target",
          "type": "address"
        },
        {
          "internalType": "bytes4",
          "name": "selector",
          "type": "bytes4"
        }
      ],
      "name": "AccessManagerUnauthorizedCall",
      "type": "error"
    },
    {
      "inputs": [
        {
          "internalType": "address",
          "name": "msgsender",
          "type": "address"
        },
        {
          "internalType": "address",
          "name": "caller",
          "type": "address"
        },
        {
          "internalType": "address",
          "name": "target",
          "type": "address"
        },
        {
          "internalType": "bytes4",
          "name": "selector",
          "type": "bytes4"
        }
      ],
      "name": "AccessManagerUnauthorizedCancel",
      "type": "error"
    },
    {
      "inputs": [
        {
          "internalType": "address",
          "name": "target",
          "type": "address"
        }
      ],
      "name": "AccessManagerUnauthorizedConsume",
      "type": "error"
    },
    {
      "inputs": [
        {
          "internalType": "address",
          "name": "target",
          "type": "address"
        }
      ],
      "name": "AddressEmptyCode",
      "type": "error"
    },
    {
      "inputs": [
        {
          "internalType": "address",
          "name": "account",
          "type": "address"
        }
      ],
      "name": "AddressInsufficientBalance",
      "type": "error"
    },
    {
      "inputs": [
        {
          "internalType": "address",
          "name": "currency",
          "type": "address"
        }
      ],
      "name": "CannotRedeem",
      "type": "error"
    },
    {
      "inputs": [
        {
          "internalType": "address",
          "name": "currency",
          "type": "address"
        }
      ],
      "name": "CannotTransfer",
      "type": "error"
    },
    {
      "inputs": [],
      "name": "EmptyCurrency",
      "type": "error"
    },
    {
      "inputs": [],
      "name": "EmptyNewToken",
      "type": "error"
    },
    {
      "inputs": [],
      "name": "EmptyRate",
      "type": "error"
    },
    {
      "inputs": [],
      "name": "EmptyToken",
      "type": "error"
    },
    {
      "inputs": [],
      "name": "EmptyValue",
      "type": "error"
    },
    {
      "inputs": [],
      "name": "EnforcedPause",
      "type": "error"
    },
    {
      "inputs": [
        {
          "internalType": "bytes32",
          "name": "key",
          "type": "bytes32"
        }
      ],
      "name": "EnumerableMapNonexistentKey",
      "type": "error"
    },
    {
      "inputs": [],
      "name": "ExpectedPause",
      "type": "error"
    },
    {
      "inputs": [],
      "name": "FailedInnerCall",
      "type": "error"
    },
    {
      "inputs": [],
      "name": "IncorrectPosition",
      "type": "error"
    },
    {
      "inputs": [
        {
          "internalType": "address",
          "name": "target",
          "type": "address"
        }
      ],
      "name": "NotOwned",
      "type": "error"
    },
    {
      "inputs": [
        {
          "internalType": "address",
          "name": "owner",
          "type": "address"
        }
      ],
      "name": "OwnableInvalidOwner",
      "type": "error"
    },
    {
      "inputs": [
        {
          "internalType": "address",
          "name": "account",
          "type": "address"
        }
      ],
      "name": "OwnableUnauthorizedAccount",
      "type": "error"
    },
    {
      "inputs": [
        {
          "internalType": "uint8",
          "name": "bits",
          "type": "uint8"
        },
        {
          "internalType": "uint256",
          "name": "value",
          "type": "uint256"
        }
      ],
      "name": "SafeCastOverflowedUintDowncast",
      "type": "error"
    },
    {
      "inputs": [
        {
          "internalType": "uint256",
          "name": "rate",
          "type": "uint256"
        }
      ],
      "name": "TooBigRate",
      "type": "error"
    },
    {
      "inputs": [
        {
          "internalType": "address",
          "name": "buyer",
          "type": "address"
        },
        {
          "internalType": "address",
          "name": "currency",
          "type": "address"
        },
        {
          "internalType": "uint256",
          "name": "balance",
          "type": "uint256"
        },
        {
          "internalType": "uint256",
          "name": "amount",
          "type": "uint256"
        }
      ],
      "name": "UnsufficientBalance",
      "type": "error"
    },
    {
      "inputs": [
        {
          "internalType": "uint256",
          "name": "amount",
          "type": "uint256"
        }
      ],
      "name": "UnsufficientManagerBalance",
      "type": "error"
    },
    {
      "anonymous": false,
      "inputs": [
        {
          "indexed": true,
          "internalType": "address",
          "name": "sender",
          "type": "address"
        },
        {
          "indexed": true,
          "internalType": "address",
          "name": "currency",
          "type": "address"
        },
        {
          "indexed": true,
          "internalType": "uint256",
          "name": "value",
          "type": "uint256"
        },
        {
          "indexed": false,
          "internalType": "uint256",
          "name": "amount",
          "type": "uint256"
        }
      ],
      "name": "BoughtTokens",
      "type": "event"
    },
    {
      "anonymous": false,
      "inputs": [
        {
          "indexed": true,
          "internalType": "bytes32",
          "name": "operationId",
          "type": "bytes32"
        },
        {
          "indexed": true,
          "internalType": "uint32",
          "name": "nonce",
          "type": "uint32"
        }
      ],
      "name": "OperationCanceled",
      "type": "event"
    },
    {
      "anonymous": false,
      "inputs": [
        {
          "indexed": true,
          "internalType": "bytes32",
          "name": "operationId",
          "type": "bytes32"
        },
        {
          "indexed": true,
          "internalType": "uint32",
          "name": "nonce",
          "type": "uint32"
        }
      ],
      "name": "OperationExecuted",
      "type": "event"
    },
    {
      "anonymous": false,
      "inputs": [
        {
          "indexed": true,
          "internalType": "bytes32",
          "name": "operationId",
          "type": "bytes32"
        },
        {
          "indexed": true,
          "internalType": "uint32",
          "name": "nonce",
          "type": "uint32"
        },
        {
          "indexed": false,
          "internalType": "uint48",
          "name": "schedule",
          "type": "uint48"
        },
        {
          "indexed": false,
          "internalType": "address",
          "name": "caller",
          "type": "address"
        },
        {
          "indexed": false,
          "internalType": "address",
          "name": "target",
          "type": "address"
        },
        {
          "indexed": false,
          "internalType": "bytes",
          "name": "data",
          "type": "bytes"
        }
      ],
      "name": "OperationScheduled",
      "type": "event"
    },
    {
      "anonymous": false,
      "inputs": [
        {
          "indexed": true,
          "internalType": "address",
          "name": "previousOwner",
          "type": "address"
        },
        {
          "indexed": true,
          "internalType": "address",
          "name": "newOwner",
          "type": "address"
        }
      ],
      "name": "OwnershipTransferred",
      "type": "event"
    },
    {
      "anonymous": false,
      "inputs": [
        {
          "indexed": false,
          "internalType": "address",
          "name": "account",
          "type": "address"
        }
      ],
      "name": "Paused",
      "type": "event"
    },
    {
      "anonymous": false,
      "inputs": [
        {
          "indexed": true,
          "internalType": "uint64",
          "name": "roleId",
          "type": "uint64"
        },
        {
          "indexed": true,
          "internalType": "uint64",
          "name": "admin",
          "type": "uint64"
        }
      ],
      "name": "RoleAdminChanged",
      "type": "event"
    },
    {
      "anonymous": false,
      "inputs": [
        {
          "indexed": true,
          "internalType": "uint64",
          "name": "roleId",
          "type": "uint64"
        },
        {
          "indexed": false,
          "internalType": "uint32",
          "name": "delay",
          "type": "uint32"
        },
        {
          "indexed": false,
          "internalType": "uint48",
          "name": "since",
          "type": "uint48"
        }
      ],
      "name": "RoleGrantDelayChanged",
      "type": "event"
    },
    {
      "anonymous": false,
      "inputs": [
        {
          "indexed": true,
          "internalType": "uint64",
          "name": "roleId",
          "type": "uint64"
        },
        {
          "indexed": true,
          "internalType": "address",
          "name": "account",
          "type": "address"
        },
        {
          "indexed": false,
          "internalType": "uint32",
          "name": "delay",
          "type": "uint32"
        },
        {
          "indexed": false,
          "internalType": "uint48",
          "name": "since",
          "type": "uint48"
        },
        {
          "indexed": false,
          "internalType": "bool",
          "name": "newMember",
          "type": "bool"
        }
      ],
      "name": "RoleGranted",
      "type": "event"
    },
    {
      "anonymous": false,
      "inputs": [
        {
          "indexed": true,
          "internalType": "uint64",
          "name": "roleId",
          "type": "uint64"
        },
        {
          "indexed": true,
          "internalType": "uint64",
          "name": "guardian",
          "type": "uint64"
        }
      ],
      "name": "RoleGuardianChanged",
      "type": "event"
    },
    {
      "anonymous": false,
      "inputs": [
        {
          "indexed": true,
          "internalType": "uint64",
          "name": "roleId",
          "type": "uint64"
        },
        {
          "indexed": false,
          "internalType": "string",
          "name": "label",
          "type": "string"
        }
      ],
      "name": "RoleLabel",
      "type": "event"
    },
    {
      "anonymous": false,
      "inputs": [
        {
          "indexed": true,
          "internalType": "uint64",
          "name": "roleId",
          "type": "uint64"
        },
        {
          "indexed": true,
          "internalType": "address",
          "name": "account",
          "type": "address"
        }
      ],
      "name": "RoleRevoked",
      "type": "event"
    },
    {
      "anonymous": false,
      "inputs": [
        {
          "indexed": true,
          "internalType": "address",
          "name": "target",
          "type": "address"
        },
        {
          "indexed": false,
          "internalType": "uint32",
          "name": "delay",
          "type": "uint32"
        },
        {
          "indexed": false,
          "internalType": "uint48",
          "name": "since",
          "type": "uint48"
        }
      ],
      "name": "TargetAdminDelayUpdated",
      "type": "event"
    },
    {
      "anonymous": false,
      "inputs": [
        {
          "indexed": true,
          "internalType": "address",
          "name": "target",
          "type": "address"
        },
        {
          "indexed": false,
          "internalType": "bool",
          "name": "closed",
          "type": "bool"
        }
      ],
      "name": "TargetClosed",
      "type": "event"
    },
    {
      "anonymous": false,
      "inputs": [
        {
          "indexed": true,
          "internalType": "address",
          "name": "target",
          "type": "address"
        },
        {
          "indexed": false,
          "internalType": "bytes4",
          "name": "selector",
          "type": "bytes4"
        },
        {
          "indexed": true,
          "internalType": "uint64",
          "name": "roleId",
          "type": "uint64"
        }
      ],
      "name": "TargetFunctionRoleUpdated",
      "type": "event"
    },
    {
      "anonymous": false,
      "inputs": [
        {
          "indexed": false,
          "internalType": "address",
          "name": "account",
          "type": "address"
        }
      ],
      "name": "Unpaused",
      "type": "event"
    },
    {
      "inputs": [],
      "name": "ADMIN_ROLE",
      "outputs": [
        {
          "internalType": "uint64",
          "name": "",
          "type": "uint64"
        }
      ],
      "stateMutability": "view",
      "type": "function"
    },
    {
      "inputs": [],
      "name": "PUBLIC_ROLE",
      "outputs": [
        {
          "internalType": "uint64",
          "name": "",
          "type": "uint64"
        }
      ],
      "stateMutability": "view",
      "type": "function"
    },
    {
      "inputs": [],
      "name": "SALT",
      "outputs": [
        {
          "internalType": "uint256",
          "name": "",
          "type": "uint256"
        }
      ],
      "stateMutability": "view",
      "type": "function"
    },
    {
      "inputs": [
        {
          "internalType": "uint256",
          "name": "ratePos",
          "type": "uint256"
        }
      ],
      "name": "at",
      "outputs": [
        {
          "internalType": "address",
          "name": "",
          "type": "address"
        },
        {
          "internalType": "uint256",
          "name": "",
          "type": "uint256"
        }
      ],
      "stateMutability": "view",
      "type": "function"
    },
    {
      "inputs": [
        {
          "internalType": "address",
          "name": "currency",
          "type": "address"
        }
      ],
      "name": "balanceOf",
      "outputs": [
        {
          "internalType": "uint256",
          "name": "",
          "type": "uint256"
        }
      ],
      "stateMutability": "view",
      "type": "function"
    },
    {
      "inputs": [
        {
          "internalType": "address",
          "name": "currency",
          "type": "address"
        },
        {
          "internalType": "uint256",
          "name": "value",
          "type": "uint256"
        }
      ],
      "name": "buy",
      "outputs": [
        {
          "internalType": "bool",
          "name": "",
          "type": "bool"
        }
      ],
      "stateMutability": "nonpayable",
      "type": "function"
    },
    {
      "inputs": [
        {
          "internalType": "address",
          "name": "caller",
          "type": "address"
        },
        {
          "internalType": "address",
          "name": "target",
          "type": "address"
        },
        {
          "internalType": "bytes4",
          "name": "selector",
          "type": "bytes4"
        }
      ],
      "name": "canCall",
      "outputs": [
        {
          "internalType": "bool",
          "name": "immediate",
          "type": "bool"
        },
        {
          "internalType": "uint32",
          "name": "delay",
          "type": "uint32"
        }
      ],
      "stateMutability": "view",
      "type": "function"
    },
    {
      "inputs": [
        {
          "internalType": "address",
          "name": "caller",
          "type": "address"
        },
        {
          "internalType": "address",
          "name": "target",
          "type": "address"
        },
        {
          "internalType": "bytes",
          "name": "data",
          "type": "bytes"
        }
      ],
      "name": "cancel",
      "outputs": [
        {
          "internalType": "uint32",
          "name": "",
          "type": "uint32"
        }
      ],
      "stateMutability": "nonpayable",
      "type": "function"
    },
    {
      "inputs": [
        {
          "internalType": "address",
          "name": "caller",
          "type": "address"
        },
        {
          "internalType": "bytes",
          "name": "data",
          "type": "bytes"
        }
      ],
      "name": "consumeScheduledOp",
      "outputs": [],
      "stateMutability": "nonpayable",
      "type": "function"
    },
    {
      "inputs": [
        {
          "internalType": "address",
          "name": "_token",
          "type": "address"
        }
      ],
      "name": "defineToken",
      "outputs": [],
      "stateMutability": "nonpayable",
      "type": "function"
    },
    {
      "inputs": [
        {
          "internalType": "address payable",
          "name": "_to",
          "type": "address"
        },
        {
          "internalType": "address",
          "name": "newAuthority",
          "type": "address"
        }
      ],
      "name": "destroy",
      "outputs": [],
      "stateMutability": "nonpayable",
      "type": "function"
    },
    {
      "inputs": [
        {
          "internalType": "address",
          "name": "target",
          "type": "address"
        },
        {
          "internalType": "bytes",
          "name": "data",
          "type": "bytes"
        }
      ],
      "name": "execute",
      "outputs": [
        {
          "internalType": "uint32",
          "name": "",
          "type": "uint32"
        }
      ],
      "stateMutability": "payable",
      "type": "function"
    },
    {
      "inputs": [],
      "name": "expiration",
      "outputs": [
        {
          "internalType": "uint32",
          "name": "",
          "type": "uint32"
        }
      ],
      "stateMutability": "view",
      "type": "function"
    },
    {
      "inputs": [
        {
          "internalType": "address",
          "name": "target",
          "type": "address"
        }
      ],
      "name": "freeze",
      "outputs": [],
      "stateMutability": "nonpayable",
      "type": "function"
    },
    {
      "inputs": [
        {
          "internalType": "uint64",
          "name": "roleId",
          "type": "uint64"
        },
        {
          "internalType": "address",
          "name": "account",
          "type": "address"
        }
      ],
      "name": "getAccess",
      "outputs": [
        {
          "internalType": "uint48",
          "name": "since",
          "type": "uint48"
        },
        {
          "internalType": "uint32",
          "name": "currentDelay",
          "type": "uint32"
        },
        {
          "internalType": "uint32",
          "name": "pendingDelay",
          "type": "uint32"
        },
        {
          "internalType": "uint48",
          "name": "effect",
          "type": "uint48"
        }
      ],
      "stateMutability": "view",
      "type": "function"
    },
    {
      "inputs": [],
      "name": "getBonus",
      "outputs": [
        {
          "internalType": "uint256",
          "name": "",
          "type": "uint256"
        }
      ],
      "stateMutability": "view",
      "type": "function"
    },
    {
      "inputs": [
        {
          "internalType": "bytes32",
          "name": "id",
          "type": "bytes32"
        }
      ],
      "name": "getNonce",
      "outputs": [
        {
          "internalType": "uint32",
          "name": "",
          "type": "uint32"
        }
      ],
      "stateMutability": "view",
      "type": "function"
    },
    {
      "inputs": [
        {
          "internalType": "address",
          "name": "currency",
          "type": "address"
        }
      ],
      "name": "getRate",
      "outputs": [
        {
          "internalType": "uint256",
          "name": "",
          "type": "uint256"
        }
      ],
      "stateMutability": "view",
      "type": "function"
    },
    {
      "inputs": [
        {
          "internalType": "address",
          "name": "currency",
          "type": "address"
        },
        {
          "internalType": "uint256",
          "name": "value",
          "type": "uint256"
        }
      ],
      "name": "getResultAmount",
      "outputs": [
        {
          "internalType": "uint256",
          "name": "",
          "type": "uint256"
        }
      ],
      "stateMutability": "view",
      "type": "function"
    },
    {
      "inputs": [
        {
          "internalType": "uint64",
          "name": "roleId",
          "type": "uint64"
        }
      ],
      "name": "getRoleAdmin",
      "outputs": [
        {
          "internalType": "uint64",
          "name": "",
          "type": "uint64"
        }
      ],
      "stateMutability": "view",
      "type": "function"
    },
    {
      "inputs": [
        {
          "internalType": "uint64",
          "name": "roleId",
          "type": "uint64"
        }
      ],
      "name": "getRoleGrantDelay",
      "outputs": [
        {
          "internalType": "uint32",
          "name": "",
          "type": "uint32"
        }
      ],
      "stateMutability": "view",
      "type": "function"
    },
    {
      "inputs": [
        {
          "internalType": "uint64",
          "name": "roleId",
          "type": "uint64"
        }
      ],
      "name": "getRoleGuardian",
      "outputs": [
        {
          "internalType": "uint64",
          "name": "",
          "type": "uint64"
        }
      ],
      "stateMutability": "view",
      "type": "function"
    },
    {
      "inputs": [
        {
          "internalType": "bytes32",
          "name": "id",
          "type": "bytes32"
        }
      ],
      "name": "getSchedule",
      "outputs": [
        {
          "internalType": "uint48",
          "name": "",
          "type": "uint48"
        }
      ],
      "stateMutability": "view",
      "type": "function"
    },
    {
      "inputs": [
        {
          "internalType": "address",
          "name": "target",
          "type": "address"
        }
      ],
      "name": "getTargetAdminDelay",
      "outputs": [
        {
          "internalType": "uint32",
          "name": "",
          "type": "uint32"
        }
      ],
      "stateMutability": "view",
      "type": "function"
    },
    {
      "inputs": [
        {
          "internalType": "address",
          "name": "target",
          "type": "address"
        },
        {
          "internalType": "bytes4",
          "name": "selector",
          "type": "bytes4"
        }
      ],
      "name": "getTargetFunctionRole",
      "outputs": [
        {
          "internalType": "uint64",
          "name": "",
          "type": "uint64"
        }
      ],
      "stateMutability": "view",
      "type": "function"
    },
    {
      "inputs": [],
      "name": "getToken",
      "outputs": [
        {
          "internalType": "address",
          "name": "",
          "type": "address"
        }
      ],
      "stateMutability": "view",
      "type": "function"
    },
    {
      "inputs": [
        {
          "internalType": "uint64",
          "name": "roleId",
          "type": "uint64"
        },
        {
          "internalType": "address",
          "name": "account",
          "type": "address"
        },
        {
          "internalType": "uint32",
          "name": "executionDelay",
          "type": "uint32"
        }
      ],
      "name": "grantRole",
      "outputs": [],
      "stateMutability": "nonpayable",
      "type": "function"
    },
    {
      "inputs": [
        {
          "internalType": "address",
          "name": "currency",
          "type": "address"
        }
      ],
      "name": "hasRate",
      "outputs": [
        {
          "internalType": "bool",
          "name": "",
          "type": "bool"
        }
      ],
      "stateMutability": "view",
      "type": "function"
    },
    {
      "inputs": [
        {
          "internalType": "uint64",
          "name": "roleId",
          "type": "uint64"
        },
        {
          "internalType": "address",
          "name": "account",
          "type": "address"
        }
      ],
      "name": "hasRole",
      "outputs": [
        {
          "internalType": "bool",
          "name": "isMember",
          "type": "bool"
        },
        {
          "internalType": "uint32",
          "name": "executionDelay",
          "type": "uint32"
        }
      ],
      "stateMutability": "view",
      "type": "function"
    },
    {
      "inputs": [
        {
          "internalType": "address",
          "name": "caller",
          "type": "address"
        },
        {
          "internalType": "address",
          "name": "target",
          "type": "address"
        },
        {
          "internalType": "bytes",
          "name": "data",
          "type": "bytes"
        }
      ],
      "name": "hashOperation",
      "outputs": [
        {
          "internalType": "bytes32",
          "name": "",
          "type": "bytes32"
        }
      ],
      "stateMutability": "view",
      "type": "function"
    },
    {
      "inputs": [
        {
          "internalType": "address",
          "name": "target",
          "type": "address"
        }
      ],
      "name": "isTargetClosed",
      "outputs": [
        {
          "internalType": "bool",
          "name": "",
          "type": "bool"
        }
      ],
      "stateMutability": "view",
      "type": "function"
    },
    {
      "inputs": [
        {
          "internalType": "uint64",
          "name": "roleId",
          "type": "uint64"
        },
        {
          "internalType": "string",
          "name": "label",
          "type": "string"
        }
      ],
      "name": "labelRole",
      "outputs": [],
      "stateMutability": "nonpayable",
      "type": "function"
    },
    {
      "inputs": [],
      "name": "length",
      "outputs": [
        {
          "internalType": "uint256",
          "name": "",
          "type": "uint256"
        }
      ],
      "stateMutability": "view",
      "type": "function"
    },
    {
      "inputs": [],
      "name": "minSetback",
      "outputs": [
        {
          "internalType": "uint32",
          "name": "",
          "type": "uint32"
        }
      ],
      "stateMutability": "view",
      "type": "function"
    },
    {
      "inputs": [
        {
          "internalType": "bytes[]",
          "name": "data",
          "type": "bytes[]"
        }
      ],
      "name": "multicall",
      "outputs": [
        {
          "internalType": "bytes[]",
          "name": "results",
          "type": "bytes[]"
        }
      ],
      "stateMutability": "nonpayable",
      "type": "function"
    },
    {
      "inputs": [],
      "name": "owner",
      "outputs": [
        {
          "internalType": "address",
          "name": "",
          "type": "address"
        }
      ],
      "stateMutability": "view",
      "type": "function"
    },
    {
      "inputs": [],
      "name": "pause",
      "outputs": [],
      "stateMutability": "nonpayable",
      "type": "function"
    },
    {
      "inputs": [],
      "name": "paused",
      "outputs": [
        {
          "internalType": "bool",
          "name": "",
          "type": "bool"
        }
      ],
      "stateMutability": "view",
      "type": "function"
    },
    {
      "inputs": [
        {
          "internalType": "address",
          "name": "currency",
          "type": "address"
        },
        {
          "internalType": "address",
          "name": "_to",
          "type": "address"
        }
      ],
      "name": "redeem",
      "outputs": [],
      "stateMutability": "nonpayable",
      "type": "function"
    },
    {
      "inputs": [],
      "name": "renounceOwnership",
      "outputs": [],
      "stateMutability": "nonpayable",
      "type": "function"
    },
    {
      "inputs": [
        {
          "internalType": "uint64",
          "name": "roleId",
          "type": "uint64"
        },
        {
          "internalType": "address",
          "name": "callerConfirmation",
          "type": "address"
        }
      ],
      "name": "renounceRole",
      "outputs": [],
      "stateMutability": "nonpayable",
      "type": "function"
    },
    {
      "inputs": [
        {
          "internalType": "uint64",
          "name": "roleId",
          "type": "uint64"
        },
        {
          "internalType": "address",
          "name": "account",
          "type": "address"
        }
      ],
      "name": "revokeRole",
      "outputs": [],
      "stateMutability": "nonpayable",
      "type": "function"
    },
    {
      "inputs": [
        {
          "internalType": "address",
          "name": "target",
          "type": "address"
        },
        {
          "internalType": "bytes",
          "name": "data",
          "type": "bytes"
        },
        {
          "internalType": "uint48",
          "name": "when",
          "type": "uint48"
        }
      ],
      "name": "schedule",
      "outputs": [
        {
          "internalType": "bytes32",
          "name": "operationId",
          "type": "bytes32"
        },
        {
          "internalType": "uint32",
          "name": "nonce",
          "type": "uint32"
        }
      ],
      "stateMutability": "nonpayable",
      "type": "function"
    },
    {
      "inputs": [
        {
          "internalType": "uint256",
          "name": "bonus",
          "type": "uint256"
        }
      ],
      "name": "setBonus",
      "outputs": [],
      "stateMutability": "nonpayable",
      "type": "function"
    },
    {
      "inputs": [
        {
          "internalType": "uint64",
          "name": "roleId",
          "type": "uint64"
        },
        {
          "internalType": "uint32",
          "name": "newDelay",
          "type": "uint32"
        }
      ],
      "name": "setGrantDelay",
      "outputs": [],
      "stateMutability": "nonpayable",
      "type": "function"
    },
    {
      "inputs": [
        {
          "internalType": "address",
          "name": "currency",
          "type": "address"
        },
        {
          "internalType": "uint256",
          "name": "rate",
          "type": "uint256"
        }
      ],
      "name": "setRate",
      "outputs": [
        {
          "internalType": "bool",
          "name": "",
          "type": "bool"
        }
      ],
      "stateMutability": "nonpayable",
      "type": "function"
    },
    {
      "inputs": [
        {
          "internalType": "uint64",
          "name": "roleId",
          "type": "uint64"
        },
        {
          "internalType": "uint64",
          "name": "admin",
          "type": "uint64"
        }
      ],
      "name": "setRoleAdmin",
      "outputs": [],
      "stateMutability": "nonpayable",
      "type": "function"
    },
    {
      "inputs": [
        {
          "internalType": "uint64",
          "name": "roleId",
          "type": "uint64"
        },
        {
          "internalType": "uint64",
          "name": "guardian",
          "type": "uint64"
        }
      ],
      "name": "setRoleGuardian",
      "outputs": [],
      "stateMutability": "nonpayable",
      "type": "function"
    },
    {
      "inputs": [
        {
          "internalType": "address",
          "name": "target",
          "type": "address"
        },
        {
          "internalType": "uint32",
          "name": "newDelay",
          "type": "uint32"
        }
      ],
      "name": "setTargetAdminDelay",
      "outputs": [],
      "stateMutability": "nonpayable",
      "type": "function"
    },
    {
      "inputs": [
        {
          "internalType": "address",
          "name": "target",
          "type": "address"
        },
        {
          "internalType": "bool",
          "name": "closed",
          "type": "bool"
        }
      ],
      "name": "setTargetClosed",
      "outputs": [],
      "stateMutability": "nonpayable",
      "type": "function"
    },
    {
      "inputs": [
        {
          "internalType": "address",
          "name": "target",
          "type": "address"
        },
        {
          "internalType": "bytes4[]",
          "name": "selectors",
          "type": "bytes4[]"
        },
        {
          "internalType": "uint64",
          "name": "roleId",
          "type": "uint64"
        }
      ],
      "name": "setTargetFunctionRole",
      "outputs": [],
      "stateMutability": "nonpayable",
      "type": "function"
    },
    {
      "inputs": [
        {
          "internalType": "address",
          "name": "newAuthority",
          "type": "address"
        }
      ],
      "name": "transferAuthority",
      "outputs": [],
      "stateMutability": "nonpayable",
      "type": "function"
    },
    {
      "inputs": [
        {
          "internalType": "address",
          "name": "newOwner",
          "type": "address"
        }
      ],
      "name": "transferOwnership",
      "outputs": [],
      "stateMutability": "nonpayable",
      "type": "function"
    },
    {
      "inputs": [
        {
          "internalType": "address",
          "name": "target",
          "type": "address"
        }
      ],
      "name": "unfreeze",
      "outputs": [],
      "stateMutability": "nonpayable",
      "type": "function"
    },
    {
      "inputs": [],
      "name": "unpause",
      "outputs": [],
      "stateMutability": "nonpayable",
      "type": "function"
    },
    {
      "inputs": [
        {
          "internalType": "address",
          "name": "target",
          "type": "address"
        },
        {
          "internalType": "address",
          "name": "newAuthority",
          "type": "address"
        }
      ],
      "name": "updateAuthority",
      "outputs": [],
      "stateMutability": "nonpayable",
      "type": "function"
    }
  ],
  "transactionHash": "0x369e289b1e8f8e4940def9becc22c363da3481086335df0bf5878175992cc622",
  "args": [
    "0x9Cb1bd9c6968425F674688697882d6d09C7edF28",
    "0x9f76A75005f023FF8aA29c310FeaDF31A8118230",
    20
  ],
  "numDeployments": 9,
  "solcInputHash": "5969c7a709f83b433de12a2facd197c2",
  "bytecode": "0x60a06040523480156200001157600080fd5b506040516200483a3803806200483a833981016040819052620000349162000581565b82806001600160a01b0381166200006657604051631e4fbdf760e01b8152600060048201526024015b60405180910390fd5b6200007181620000fe565b506001600160a01b0381166200009e57604051630409d6d160e11b8152600060048201526024016200005d565b620000ad60008281806200014e565b50506005805460ff19169055620000c6816064620005d8565b60065550600580546001600160a01b0390921661010002610100600160a81b0319909216919091179055506217925f60805262000637565b600080546001600160a01b038381166001600160a01b0319831681178455604051919092169283917f8be0079c531659141344cd1fd0a4f28419497f9722a3daafe3b4186f6b6457e09190a35050565b60006002600160401b03196001600160401b038616016200018e5760405163061c6a4360e21b81526001600160401b03861660048201526024016200005d565b6001600160401b03851660009081526002602090815260408083206001600160a01b038816845290915281205465ffffffffffff16159081156200028d5763ffffffff8516620001dd620003a5565b620001e99190620005ee565b905060405180604001604052808265ffffffffffff1681526020016200021b8663ffffffff16620003b760201b60201c565b6001600160701b039081169091526001600160401b03891660009081526002602090815260408083206001600160a01b038c16845282529091208351815494909201519092166601000000000000026001600160a01b031990931665ffffffffffff9091161791909117905562000337565b6001600160401b03871660009081526002602090815260408083206001600160a01b038a168452909152812054620002dc9166010000000000009091046001600160701b0316908690620003c0565b6001600160401b03891660009081526002602090815260408083206001600160a01b038c168452909152902080546001600160701b03909316660100000000000002600160301b600160a01b03199093169290921790915590505b6040805163ffffffff8616815265ffffffffffff831660208201528315158183015290516001600160a01b038816916001600160401b038a16917ff98448b987f1428e0e230e1f3c6e2ce15b5693eaf31827fbd0b1ec4b424ae7cf9181900360600190a35095945050505050565b6000620003b24262000475565b905090565b63ffffffff1690565b60008080620003d86001600160701b038716620004ae565b905060006200041b8563ffffffff168763ffffffff168463ffffffff1611620004035760006200040f565b6200040f888562000617565b63ffffffff16620004cf565b905063ffffffff81166200042e620003a5565b6200043a9190620005ee565b925063ffffffff8616602083901b67ffffffff0000000016604085901b6dffffffffffff000000000000000016171793505050935093915050565b600065ffffffffffff821115620004aa576040516306dfcc6560e41b815260306004820152602481018390526044016200005d565b5090565b600080620004c56001600160701b038416620004eb565b5090949350505050565b6000818311620004e05781620004e2565b825b90505b92915050565b600080806200050484620004fe620003a5565b62000511565b9250925092509193909250565b600080806001600160501b03602086901c166001600160701b03861665ffffffffffff604088901c81169087168111156200054f5782828262000554565b816000805b9550955095505050509250925092565b80516001600160a01b03811681146200057c57600080fd5b919050565b6000806000606084860312156200059757600080fd5b620005a28462000564565b9250620005b26020850162000564565b9150604084015190509250925092565b634e487b7160e01b600052601160045260246000fd5b80820180821115620004e557620004e5620005c2565b65ffffffffffff818116838216019080821115620006105762000610620005c2565b5092915050565b63ffffffff828116828216039080821115620006105762000610620005c2565b6080516141e7620006536000396000610a2501526141e76000f3fe60806040526004361061036b5760003560e01c8063715018a6116101c6578063b7d2b162116100f7578063d6bb62c611610095578063e0886f901161006f578063e0886f9014610b3d578063f2fde38b14610b7c578063f801a69814610b9c578063fe0776f514610bd657600080fd5b8063d6bb62c614610add578063da2b122414610afd578063e0781b7a14610b1d57600080fd5b8063cc1b6c81116100d1578063cc1b6c8114610a67578063cce7ec1314610a7d578063d1f856ee14610a9d578063d22b598914610abd57600080fd5b8063b7d2b162146109f3578063ba9a91a514610a13578063bba06f2714610a4757600080fd5b806394c7d7ee11610164578063a7cd24481161013e578063a7cd24481461094a578063abd9bd2a1461096a578063ac9650d81461098a578063b7009613146109b757600080fd5b806394c7d7ee146108bb578063a166aa89146108db578063a64d95ce1461092a57600080fd5b8063853551b8116101a0578063853551b8146108485780638bdff161146108685780638d1fdf2f1461087d5780638da5cb5b1461089d57600080fd5b8063715018a61461080957806375b238fc1461081e5780638456cb591461083357600080fd5b806337cef791116102a05780634c1da1e21161023e5780635c975abb116102185780635c975abb1461075957806362b40f9f146107715780636d5115bd1461079157806370a08231146107e957600080fd5b80634c1da1e2146106dd57806352962952146106fd578063530dd4561461071d57600080fd5b80633f4ba83a1161027a5780633f4ba83a146106555780634136a33c1461066a57806345c8b1a6146106a75780634665096d146106c757600080fd5b806337cef791146105e35780633adc277a146106035780633ca7c02a1461063a57600080fd5b80631f7b6d321161030d5780632bdb7097116102e75780632bdb7097146105195780633078db6c146105495780633078f1141461056957806330cae187146105c357600080fd5b80631f7b6d321461049f57806321df0da7146104c257806325c471a0146104f957600080fd5b806312be87271161034957806312be872714610417578063167bd3951461044c57806318ff183c1461046c5780631cff79cd1461048c57600080fd5b806308d6122d146103705780630b0a93ba146103925780630b98f975146103f7575b600080fd5b34801561037c57600080fd5b5061039061038b366004613862565b610bf6565b005b34801561039e57600080fd5b506103da6103ad3660046138c8565b6001600160401b039081166000908152600260205260409020600101546801000000000000000090041690565b6040516001600160401b0390911681526020015b60405180910390f35b34801561040357600080fd5b506103906104123660046138e3565b610c51565b34801561042357600080fd5b506104376104323660046138c8565b610c72565b60405163ffffffff90911681526020016103ee565b34801561045857600080fd5b5061039061046736600461390a565b610cad565b34801561047857600080fd5b50610390610487366004613943565b610cc3565b61043761049a3660046139b2565b610d2a565b3480156104ab57600080fd5b506104b4610e97565b6040519081526020016103ee565b3480156104ce57600080fd5b5060055461010090046001600160a01b03165b6040516001600160a01b0390911681526020016103ee565b34801561050557600080fd5b50610390610514366004613a1a565b610ea8565b34801561052557600080fd5b50610539610534366004613a5f565b610eca565b60405190151581526020016103ee565b34801561055557600080fd5b50610390610564366004613a8b565b61100e565b34801561057557600080fd5b50610589610584366004613aa8565b6110ae565b6040516103ee949392919065ffffffffffff948516815263ffffffff93841660208201529190921660408201529116606082015260800190565b3480156105cf57600080fd5b506103906105de366004613ac4565b611116565b3480156105ef57600080fd5b506104b46105fe366004613a8b565b611128565b34801561060f57600080fd5b5061062361061e3660046138e3565b611173565b60405165ffffffffffff90911681526020016103ee565b34801561064657600080fd5b506103da6001600160401b0381565b34801561066157600080fd5b506103906111a6565b34801561067657600080fd5b506104376106853660046138e3565b6000908152600360205260409020546601000000000000900463ffffffff1690565b3480156106b357600080fd5b506103906106c2366004613a8b565b6111b8565b3480156106d357600080fd5b5062093a80610437565b3480156106e957600080fd5b506104376106f8366004613a8b565b611226565b34801561070957600080fd5b50610390610718366004613ac4565b611254565b34801561072957600080fd5b506103da6107383660046138c8565b6001600160401b039081166000908152600260205260409020600101541690565b34801561076557600080fd5b5060055460ff16610539565b34801561077d57600080fd5b5061039061078c366004613943565b611266565b34801561079d57600080fd5b506103da6107ac366004613b0d565b6001600160a01b03821660009081526001602090815260408083206001600160e01b0319851684529091529020546001600160401b031692915050565b3480156107f557600080fd5b506104b4610804366004613a8b565b61157a565b34801561081557600080fd5b50610390611659565b34801561082a57600080fd5b506103da600081565b34801561083f57600080fd5b5061039061166b565b34801561085457600080fd5b50610390610863366004613b3b565b61167b565b34801561087457600080fd5b506104b4611712565b34801561088957600080fd5b50610390610898366004613a8b565b611723565b3480156108a957600080fd5b506000546001600160a01b03166104e1565b3480156108c757600080fd5b506103906108d63660046139b2565b611791565b3480156108e757600080fd5b506105396108f6366004613a8b565b6001600160a01b0316600090815260016020819052604090912001546e010000000000000000000000000000900460ff1690565b34801561093657600080fd5b50610390610945366004613b59565b61183d565b34801561095657600080fd5b506104b4610965366004613a5f565b61184f565b34801561097657600080fd5b506104b4610985366004613b83565b6119e0565b34801561099657600080fd5b506109aa6109a5366004613be7565b611a19565b6040516103ee9190613c4c565b3480156109c357600080fd5b506109d76109d2366004613cc6565b611b0b565b60408051921515835263ffffffff9091166020830152016103ee565b3480156109ff57600080fd5b50610390610a0e366004613aa8565b611b62565b348015610a1f57600080fd5b506104b47f000000000000000000000000000000000000000000000000000000000000000081565b348015610a5357600080fd5b50610390610a62366004613943565b611b79565b348015610a7357600080fd5b5062069780610437565b348015610a8957600080fd5b50610539610a98366004613a5f565b611c92565b348015610aa957600080fd5b506109d7610ab8366004613aa8565b611fbb565b348015610ac957600080fd5b50610390610ad8366004613d11565b612038565b348015610ae957600080fd5b50610437610af8366004613b83565b61204a565b348015610b0957600080fd5b50610390610b18366004613a8b565b6121db565b348015610b2957600080fd5b50610539610b38366004613a8b565b612251565b348015610b4957600080fd5b50610b5d610b583660046138e3565b612292565b604080516001600160a01b0390931683526020830191909152016103ee565b348015610b8857600080fd5b50610390610b97366004613a8b565b6122d2565b348015610ba857600080fd5b50610bbc610bb7366004613d2f565b612310565b6040805192835263ffffffff9091166020830152016103ee565b348015610be257600080fd5b50610390610bf1366004613aa8565b612458565b610bfe612481565b60005b82811015610c4a57610c3a85858584818110610c1f57610c1f613da1565b9050602002016020810190610c349190613db7565b846124fc565b610c4381613dea565b9050610c01565b5050505050565b610c59612580565b610c616125ad565b610c6c816064613e03565b60065550565b6001600160401b038116600090815260026020526040812060010154610ca790600160801b90046001600160701b03166125d0565b92915050565b610cb5612481565b610cbf82826125ef565b5050565b610ccb612481565b604051637a9e5e4b60e01b81526001600160a01b038281166004830152831690637a9e5e4b90602401600060405180830381600087803b158015610d0e57600080fd5b505af1158015610d22573d6000803e3d6000fd5b505050505050565b6000338180610d3b838888886126ab565b9150915081158015610d51575063ffffffff8116155b15610da4578287610d6288886126fe565b6040516381c6f24b60e01b81526001600160a01b0393841660048201529290911660248301526001600160e01b03191660448201526064015b60405180910390fd5b6000610db2848989896119e0565b9050600063ffffffff8316151580610dd95750610dce82611173565b65ffffffffffff1615155b15610dea57610de782612716565b90505b600454610e3d8a610dfb8b8b6126fe565b604080516001600160a01b03939093166020808501919091526001600160e01b0319929092168382015280518084038201815260609093019052815191012090565b600481905550610e858a8a8a8080601f016020809104026020016040519081016040528093929190818152602001838380828437600092019190915250349250612819915050565b506004559450505050505b9392505050565b6000610ea360076128ac565b905090565b610eb0612481565b610ec48383610ebe86610c72565b846128b7565b50505050565b6000610ed4612580565b610edc6125ad565b6001600160a01b038316610f0357604051630560d24960e11b815260040160405180910390fd5b81600003610f245760405163783bc40960e01b815260040160405180910390fd5b60055461010090046001600160a01b0316610f525760405163066f53b160e01b815260040160405180910390fd5b600560019054906101000a90046001600160a01b03166001600160a01b031663313ce5676040518163ffffffff1660e01b8152600401602060405180830381865afa158015610fa5573d6000803e3d6000fd5b505050506040513d601f19601f82011682018060405250810190610fc99190613e16565b610fd4906002613e39565b610fdf90600a613f36565b82111561100257604051630164b7c960e61b815260048101839052602401610d9b565b610e9060078484612b23565b611016612580565b61101e6125ad565b60055461010090046001600160a01b031661104c5760405163066f53b160e01b815260040160405180910390fd5b600554604051637a9e5e4b60e01b81526001600160a01b03838116600483015261010090920490911690637a9e5e4b906024015b600060405180830381600087803b15801561109a57600080fd5b505af1158015610c4a573d6000803e3d6000fd5b6001600160401b03821660009081526002602090815260408083206001600160a01b03851684529091528120805465ffffffffffff81169291829182919061110890660100000000000090046001600160701b0316612b41565b969991985096509350505050565b61111e612481565b610cbf8282612b64565b60006001600160a01b03821661115157604051630560d24960e11b815260040160405180910390fd5b61115c600783612c06565b61116857506000919050565b610ca7600783612c1b565b60008181526003602052604081205465ffffffffffff1661119381612c30565b61119d5780610e90565b60009392505050565b6111ae612580565b6111b6612c5f565b565b6111c0612580565b60055461010090046001600160a01b03166111ee5760405163066f53b160e01b815260040160405180910390fd5b6005546040516322e458d360e11b81526001600160a01b038381166004830152610100909204909116906345c8b1a690602401611080565b6001600160a01b038116600090815260016020819052604082200154610ca7906001600160701b03166125d0565b61125c612481565b610cbf8282612cb1565b61126e612580565b6112766125ad565b60055461010090046001600160a01b03166112a45760405163066f53b160e01b815260040160405180910390fd5b600554604051637a9e5e4b60e01b81526001600160a01b03838116600483015261010090920490911690637a9e5e4b90602401600060405180830381600087803b1580156112f157600080fd5b505af1158015611305573d6000803e3d6000fd5b50506005546040516370a0823160e01b81523060048201526101009091046001600160a01b0316925063a9059cbb9150839083906370a0823190602401602060405180830381865afa15801561135f573d6000803e3d6000fd5b505050506040513d601f19601f820116820180604052508101906113839190613f45565b6040516001600160e01b031960e085901b1681526001600160a01b03909216600483015260248201526044016020604051808303816000875af11580156113ce573d6000803e3d6000fd5b505050506040513d601f19601f820116820180604052508101906113f29190613f5e565b6114225760055460405163bbea11c960e01b81526101009091046001600160a01b03166004820152602401610d9b565b6000805b61143060076128ac565b82101561156e576000611444600784612d66565b506040516370a0823160e01b81523060048201529091506001600160a01b038216906370a0823190602401602060405180830381865afa15801561148c573d6000803e3d6000fd5b505050506040513d601f19601f820116820180604052508101906114b09190613f45565b9150600082118015611532575060405163a9059cbb60e01b81526001600160a01b0386811660048301526024820184905282169063a9059cbb906044016020604051808303816000875af115801561150c573d6000803e3d6000fd5b505050506040513d601f19601f820116820180604052508101906115309190613f5e565b155b1561155b5760405163bbea11c960e01b81526001600160a01b0382166004820152602401610d9b565b508161156681613dea565b925050611426565b836001600160a01b0316ff5b60405163703c0dbd60e11b81526001600160a01b0382166004820152600090309063e0781b7a90602401602060405180830381865afa1580156115c1573d6000803e3d6000fd5b505050506040513d601f19601f820116820180604052508101906115e59190613f5e565b6115f157506000919050565b6040516370a0823160e01b81523060048201526001600160a01b038316906370a0823190602401602060405180830381865afa158015611635573d6000803e3d6000fd5b505050506040513d601f19601f82011682018060405250810190610ca79190613f45565b611661612580565b6111b66000612d82565b611673612580565b6111b6612ddf565b611683612481565b6001600160401b03831615806116a157506001600160401b03838116145b156116ca5760405163061c6a4360e21b81526001600160401b0384166004820152602401610d9b565b826001600160401b03167f1256f5b5ecb89caec12db449738f2fbcd1ba5806cf38f35413f4e5c15bf6a4508383604051611705929190613fa4565b60405180910390a2505050565b60006064600654610ea39190613fb8565b61172b612580565b60055461010090046001600160a01b03166117595760405163066f53b160e01b815260040160405180910390fd5b600554604051638d1fdf2f60e01b81526001600160a01b03838116600483015261010090920490911690638d1fdf2f90602401611080565b60408051638fb3603760e01b80825291513392918391638fb36037916004808201926020929091908290030181865afa1580156117d2573d6000803e3d6000fd5b505050506040513d601f19601f820116820180604052508101906117f69190613fcb565b6001600160e01b0319161461182957604051630641fee960e31b81526001600160a01b0382166004820152602401610d9b565b610c4a611838858386866119e0565b612716565b611845612481565b610cbf8282612e1c565b60006001600160a01b03831661187857604051630560d24960e11b815260040160405180910390fd5b8160000361189957604051631208b21b60e01b815260040160405180910390fd5b60055461010090046001600160a01b03166118c75760405163066f53b160e01b815260040160405180910390fd5b6000836001600160a01b031663313ce5676040518163ffffffff1660e01b8152600401602060405180830381865afa158015611907573d6000803e3d6000fd5b505050506040513d601f19601f8201168201806040525081019061192b9190613e16565b611936906002613e39565b6040516337cef79160e01b81526001600160a01b038616600482015260ff91909116915060009030906337cef79190602401602060405180830381865afa158015611985573d6000803e3d6000fd5b505050506040513d601f19601f820116820180604052508101906119a99190613f45565b90506119b682600a613fe8565b6006546119c38684613ff4565b6119cd9190613ff4565b6119d7919061400b565b95945050505050565b6000848484846040516020016119f9949392919061402d565b604051602081830303815290604052805190602001209050949350505050565b604080516000815260208101909152606090826001600160401b03811115611a4357611a43614084565b604051908082528060200260200182016040528015611a7657816020015b6060815260200190600190039081611a615790505b50915060005b83811015611b0357611ad330868684818110611a9a57611a9a613da1565b9050602002810190611aac919061409a565b85604051602001611abf939291906140e0565b604051602081830303815290604052612f3b565b838281518110611ae557611ae5613da1565b60200260200101819052508080611afb90613dea565b915050611a7c565b505092915050565b600080611b206000546001600160a01b031690565b6001600160a01b0316856001600160a01b031603611b445750600190506000611b5a565b6000611b51600087611fbb565b50925060009150505b935093915050565b611b6a612481565b611b748282612fa8565b505050565b611b81612580565b611b896125ad565b6040516370a0823160e01b81523060048201526001600160a01b0383169063a9059cbb90839083906370a0823190602401602060405180830381865afa158015611bd7573d6000803e3d6000fd5b505050506040513d601f19601f82011682018060405250810190611bfb9190613f45565b6040516001600160e01b031960e085901b1681526001600160a01b03909216600483015260248201526044016020604051808303816000875af1158015611c46573d6000803e3d6000fd5b505050506040513d601f19601f82011682018060405250810190611c6a9190613f5e565b610cbf57604051635d3f476b60e01b81526001600160a01b0383166004820152602401610d9b565b6000611c9c6130a2565b6040516314f9a48960e31b81526001600160a01b038416600482015260248101839052600090309063a7cd244890604401602060405180830381865afa158015611cea573d6000803e3d6000fd5b505050506040513d601f19601f82011682018060405250810190611d0e9190613f45565b6040516370a0823160e01b81523360048201529091506000906001600160a01b038616906370a0823190602401602060405180830381865afa158015611d58573d6000803e3d6000fd5b505050506040513d601f19601f82011682018060405250810190611d7c9190613f45565b6005546040516370a0823160e01b81523060048201529192506000916101009091046001600160a01b0316906370a0823190602401602060405180830381865afa158015611dce573d6000803e3d6000fd5b505050506040513d601f19601f82011682018060405250810190611df29190613f45565b905084821015611e34576040516321d6041b60e01b81523360048201526001600160a01b03871660248201526044810183905260648101869052608401610d9b565b82811015611e585760405163705adf1f60e11b815260048101849052602401610d9b565b6040516323b872dd60e01b8152336004820152306024820152604481018690526001600160a01b038716906323b872dd906064016020604051808303816000875af1158015611eab573d6000803e3d6000fd5b505050506040513d601f19601f82011682018060405250810190611ecf9190613f5e565b611edf5760009350505050610ca7565b60055460405163a9059cbb60e01b81523360048201526024810185905260009161010090046001600160a01b03169063a9059cbb906044016020604051808303816000875af1158015611f36573d6000803e3d6000fd5b505050506040513d601f19601f82011682018060405250810190611f5a9190613f5e565b90508015611fb15785876001600160a01b0316336001600160a01b03167f314898f27b62de59a1d7326707c74b7991036f43ed22658d064228c032e76fda87604051611fa891815260200190565b60405180910390a45b9695505050505050565b60008067fffffffffffffffe196001600160401b03851601611fe35750600190506000612031565b600080611ff086866110ae565b5050915091508165ffffffffffff1660001415801561202657506120126130c6565b65ffffffffffff168265ffffffffffff1611155b935091506120319050565b9250929050565b612040612481565b610cbf82826130d1565b6000338161205885856126fe565b90506000612068888888886119e0565b60008181526003602052604081205491925065ffffffffffff90911690036120a65760405163060a299b60e41b815260048101829052602401610d9b565b826001600160a01b0316886001600160a01b0316146121765760006120cc600085611fbb565b506001600160a01b03891660009081526001602090815260408083206001600160e01b0319881684529091528120549192509061211b90612115906001600160401b03166103ad565b86611fbb565b5090508115801561212a575080155b1561217357604051630ff89d4760e21b81526001600160a01b038087166004830152808c1660248301528a1660448201526001600160e01b031985166064820152608401610d9b565b50505b600081815260036020526040808220805465ffffffffffff1916908190559051660100000000000090910463ffffffff1691829184917fbd9ac67a6e2f6463b80927326310338bcbb4bdb7936ce1365ea3e01067e7b9f791a398975050505050505050565b6121e3612580565b6121eb6125ad565b6001600160a01b0381166122125760405163066f53b160e01b815260040160405180910390fd5b600580546001600160a01b03909216610100027fffffffffffffffffffffff0000000000000000000000000000000000000000ff909216919091179055565b600061225b6130a2565b6001600160a01b03821661228257604051630560d24960e11b815260040160405180910390fd5b610ca7600783612c06565b919050565b60008061229f60076128ac565b83106122be5760405163188da0b360e21b815260040160405180910390fd5b6122c9600784612d66565b91509150915091565b6122da612580565b6001600160a01b03811661230457604051631e4fbdf760e01b815260006004820152602401610d9b565b61230d81612d82565b50565b6000803381612321828989896126ab565b91505060008163ffffffff166123356130c6565b61233f9190614107565b905063ffffffff82161580612376575060008665ffffffffffff1611801561237657508065ffffffffffff168665ffffffffffff16105b15612387578289610d628a8a6126fe565b6123a18665ffffffffffff168265ffffffffffff16613190565b95506123af838a8a8a6119e0565b94506123ba856131a6565b60008581526003602052604090819020805465ffffffffffff891669ffffffffffffffffffff1982161766010000000000009182900463ffffffff90811660010190811692830291909117909255915190955086907f82a2da5dee54ea8021c6545b4444620291e07ee83be6dd57edb175062715f3b490612444908a9088908f908f908f9061412d565b60405180910390a350505094509492505050565b6001600160a01b0381163314611b6a57604051635f159e6360e01b815260040160405180910390fd5b336000806124908382366131f3565b9150915081611b74578063ffffffff166000036124ec5760006124b381366132f7565b5060405163f07e038f60e01b81526001600160a01b03871660048201526001600160401b03821660248201529092506044019050610d9b565b610ec461183884306000366119e0565b6001600160a01b03831660008181526001602090815260408083206001600160e01b0319871680855290835292819020805467ffffffffffffffff19166001600160401b038716908117909155905192835292917f9ea6790c7dadfd01c9f8b9762b3682607af2c7e79e05a9f9fdf5580dde949151910160405180910390a3505050565b6000546001600160a01b031633146111b65760405163118cdaa760e01b8152336004820152602401610d9b565b60055460ff166111b657604051638dfc202b60e01b815260040160405180910390fd5b6000806125e5836001600160701b0316612b41565b5090949350505050565b306001600160a01b0383160361262357604051630b40d17960e31b81526001600160a01b0383166004820152602401610d9b565b6001600160a01b0382166000818152600160208190526040918290200180548415156e010000000000000000000000000000026eff000000000000000000000000000019909116179055517f90d4e7bb7e5d933792b3562e1741306f8be94837e1348dacef9b6f1df56eb1389061269f90841515815260200190565b60405180910390a25050565b600080306001600160a01b038616036126d2576126c98685856131f3565b915091506126f5565b600483106126ee576126e986866109d287876126fe565b6126c9565b5060009050805b94509492505050565b600061270d600482848661405a565b610e9091614173565b60008181526003602052604081205465ffffffffffff8116906601000000000000900463ffffffff168183036127625760405163060a299b60e41b815260048101859052602401610d9b565b61276a6130c6565b65ffffffffffff168265ffffffffffff16111561279d57604051630c65b5bd60e11b815260048101859052602401610d9b565b6127a682612c30565b156127c757604051631e2975b960e21b815260048101859052602401610d9b565b600084815260036020526040808220805465ffffffffffff191690555163ffffffff83169186917f76a2a46953689d4861a5d3f6ed883ad7e6af674a21f8e162707159fc9dde614d9190a39392505050565b60608147101561283e5760405163cd78605960e01b8152306004820152602401610d9b565b600080856001600160a01b0316848660405161285a91906141a1565b60006040518083038185875af1925050503d8060008114612897576040519150601f19603f3d011682016040523d82523d6000602084013e61289c565b606091505b5091509150611fb18683836134df565b6000610ca78261353b565b600067fffffffffffffffe196001600160401b038616016128f65760405163061c6a4360e21b81526001600160401b0386166004820152602401610d9b565b6001600160401b03851660009081526002602090815260408083206001600160a01b038816845290915281205465ffffffffffff16159081156129f8578463ffffffff166129426130c6565b61294c9190614107565b905060405180604001604052808265ffffffffffff16815260200161297a8663ffffffff1663ffffffff1690565b6001600160701b039081169091526001600160401b03891660009081526002602090815260408083206001600160a01b038c168452825290912083518154949092015190921666010000000000000273ffffffffffffffffffffffffffffffffffffffff1990931665ffffffffffff90911617919091179055612ab5565b6001600160401b03871660009081526002602090815260408083206001600160a01b038a168452909152812054612a459166010000000000009091046001600160701b0316908690613546565b6001600160401b03891660009081526002602090815260408083206001600160a01b038c168452909152902080546001600160701b039093166601000000000000027fffffffffffffffffffffffff0000000000000000000000000000ffffffffffff9093169290921790915590505b6040805163ffffffff8616815265ffffffffffff831660208201528315158183015290516001600160a01b038816916001600160401b038a16917ff98448b987f1428e0e230e1f3c6e2ce15b5693eaf31827fbd0b1ec4b424ae7cf9181900360600190a35095945050505050565b6000612b39846001600160a01b038516846135f0565b949350505050565b6000806000612b5784612b526130c6565b61360d565b9250925092509193909250565b6001600160401b0382161580612b8257506001600160401b03828116145b15612bab5760405163061c6a4360e21b81526001600160401b0383166004820152602401610d9b565b6001600160401b03828116600081815260026020526040808220600101805467ffffffffffffffff19169486169485179055517f1fd6dd7631312dfac2205b52913f99de03b4d7e381d5d27d3dbfe0713e6e63409190a35050565b6000610e90836001600160a01b038416613661565b6000610e90836001600160a01b03841661366d565b6000612c3a6130c6565b65ffffffffffff16612c4f62093a8084614107565b65ffffffffffff16111592915050565b612c676125ad565b6005805460ff191690557f5db9ee0a495bf2e6ff9c91a7834c1ba4fdd244a5e8aa4e537bd38aeae4b073aa335b6040516001600160a01b03909116815260200160405180910390a1565b6001600160401b0382161580612ccf57506001600160401b03828116145b15612cf85760405163061c6a4360e21b81526001600160401b0383166004820152602401610d9b565b6001600160401b0382811660008181526002602052604080822060010180546fffffffffffffffff0000000000000000191668010000000000000000958716958602179055517f7a8059630b897b5de4c08ade69f8b90c3ead1f8596d62d10b6c4d14a0afb4ae29190a35050565b6000808080612d7586866136b4565b9097909650945050505050565b600080546001600160a01b0383811673ffffffffffffffffffffffffffffffffffffffff19831681178455604051919092169283917f8be0079c531659141344cd1fd0a4f28419497f9722a3daafe3b4186f6b6457e09190a35050565b612de76130a2565b6005805460ff191660011790557f62e78cea01bee320cd4e420270b5ea74000d11b0c9f74754ebdbfc544b05a258612c943390565b67fffffffffffffffe196001600160401b03831601612e595760405163061c6a4360e21b81526001600160401b0383166004820152602401610d9b565b6001600160401b038216600090815260026020526040812060010154612e9390600160801b90046001600160701b03168362069780613546565b6001600160401b0385166000818152600260205260409081902060010180546001600160701b03909516600160801b027fffff0000000000000000000000000000ffffffffffffffffffffffffffffffff9095169490941790935591519092507ffeb69018ee8b8fd50ea86348f1267d07673379f72cffdeccec63853ee8ce8b4890611705908590859063ffffffff92909216825265ffffffffffff16602082015260400190565b6060600080846001600160a01b031684604051612f5891906141a1565b600060405180830381855af49150503d8060008114612f93576040519150601f19603f3d011682016040523d82523d6000602084013e612f98565b606091505b50915091506119d78583836134df565b600067fffffffffffffffe196001600160401b03841601612fe75760405163061c6a4360e21b81526001600160401b0384166004820152602401610d9b565b6001600160401b03831660009081526002602090815260408083206001600160a01b038616845290915281205465ffffffffffff16900361302a57506000610ca7565b6001600160401b03831660008181526002602090815260408083206001600160a01b0387168085529252808320805473ffffffffffffffffffffffffffffffffffffffff19169055519092917ff229baa593af28c41b1d16b748cd7688f0c83aaf92d4be41c44005defe84c16691a350600192915050565b60055460ff16156111b65760405163d93c066560e01b815260040160405180910390fd5b6000610ea3426136df565b6001600160a01b038216600090815260016020819052604082200154613104906001600160701b03168362069780613546565b6001600160a01b03851660008181526001602081815260409283902090910180546dffffffffffffffffffffffffffff19166001600160701b039690961695909517909455805163ffffffff8716815265ffffffffffff841694810194909452919350917fa56b76017453f399ec2327ba00375dbfb1fd070ff854341ad6191e6a2e2de19c9101611705565b600081831161319f5781610e90565b5090919050565b60008181526003602052604090205465ffffffffffff1680158015906131d257506131d081612c30565b155b15610cbf5760405163813e945960e01b815260048101839052602401610d9b565b600080600483101561320a57506000905080611b5a565b306001600160a01b038616036132795761326e3061322886866126fe565b604080516001600160a01b03939093166020808501919091526001600160e01b031992909216838201528051808403820181526060909301905281519101206004541490565b600091509150611b5a565b600080600061328887876132f7565b925092509250826132a25760008094509450505050611b5a565b6000806132af848b611fbb565b91509150816132c957600080965096505050505050611b5a565b6132df8363ffffffff168263ffffffff16613190565b63ffffffff8116159b909a5098505050505050505050565b600080806004841015613312575060009150819050806134d8565b600061331e86866126fe565b90506001600160e01b031981166310a6aa3760e31b148061334f57506001600160e01b031981166330cae18760e01b145b8061336a57506001600160e01b0319811663294b14a960e11b145b8061338557506001600160e01b03198116635326cae760e11b145b806133a057506001600160e01b0319811663d22b598960e01b145b156133b6576001600080935093509350506134d8565b6001600160e01b0319811663063fc60f60e21b14806133e557506001600160e01b0319811663167bd39560e01b145b8061340057506001600160e01b031981166308d6122d60e01b145b1561344257600061341560246004888a61405a565b8101906134229190613a8b565b9050600061342f82611226565b600196506000955093506134d892505050565b6001600160e01b0319811663012e238d60e51b148061347157506001600160e01b03198116635be958b160e11b145b156134cb57600061348660246004888a61405a565b81019061349391906138c8565b905060016134bc826001600160401b039081166000908152600260205260409020600101541690565b600094509450945050506134d8565b6000806000935093509350505b9250925092565b6060826134f4576134ef82613716565b610e90565b815115801561350b57506001600160a01b0384163b155b1561353457604051639996b31560e01b81526001600160a01b0385166004820152602401610d9b565b5080610e90565b6000610ca78261373f565b600080600061355d866001600160701b03166125d0565b9050600061359a8563ffffffff168763ffffffff168463ffffffff161161358557600061358f565b61358f88856141bd565b63ffffffff16613190565b90508063ffffffff166135ab6130c6565b6135b59190614107565b925063ffffffff8616602083901b67ffffffff0000000016604085901b6dffffffffffff000000000000000016171793505050935093915050565b60008281526002840160205260408120829055612b398484613749565b6000808069ffffffffffffffffffff602086901c166001600160701b03861665ffffffffffff604088901c811690871681111561364c57828282613651565b816000805b9550955095505050509250925092565b6000610e908383613755565b60008181526002830160205260408120548015801561369357506136918484613661565b155b15610e905760405163015ab34360e11b815260048101849052602401610d9b565b600080806136c2858561376d565b600081815260029690960160205260409095205494959350505050565b600065ffffffffffff821115613712576040516306dfcc6560e41b81526030600482015260248101839052604401610d9b565b5090565b8051156137265780518082602001fd5b604051630a12f52160e11b815260040160405180910390fd5b6000610ca7825490565b6000610e908383613779565b60008181526001830160205260408120541515610e90565b6000610e9083836137c8565b60008181526001830160205260408120546137c057508154600181810184556000848152602080822090930184905584548482528286019093526040902091909155610ca7565b506000610ca7565b60008260000182815481106137df576137df613da1565b9060005260206000200154905092915050565b6001600160a01b038116811461230d57600080fd5b60008083601f84011261381957600080fd5b5081356001600160401b0381111561383057600080fd5b6020830191508360208260051b850101111561203157600080fd5b80356001600160401b038116811461228d57600080fd5b6000806000806060858703121561387857600080fd5b8435613883816137f2565b935060208501356001600160401b0381111561389e57600080fd5b6138aa87828801613807565b90945092506138bd90506040860161384b565b905092959194509250565b6000602082840312156138da57600080fd5b610e908261384b565b6000602082840312156138f557600080fd5b5035919050565b801515811461230d57600080fd5b6000806040838503121561391d57600080fd5b8235613928816137f2565b91506020830135613938816138fc565b809150509250929050565b6000806040838503121561395657600080fd5b8235613961816137f2565b91506020830135613938816137f2565b60008083601f84011261398357600080fd5b5081356001600160401b0381111561399a57600080fd5b60208301915083602082850101111561203157600080fd5b6000806000604084860312156139c757600080fd5b83356139d2816137f2565b925060208401356001600160401b038111156139ed57600080fd5b6139f986828701613971565b9497909650939450505050565b803563ffffffff8116811461228d57600080fd5b600080600060608486031215613a2f57600080fd5b613a388461384b565b92506020840135613a48816137f2565b9150613a5660408501613a06565b90509250925092565b60008060408385031215613a7257600080fd5b8235613a7d816137f2565b946020939093013593505050565b600060208284031215613a9d57600080fd5b8135610e90816137f2565b60008060408385031215613abb57600080fd5b6139618361384b565b60008060408385031215613ad757600080fd5b613ae08361384b565b9150613aee6020840161384b565b90509250929050565b6001600160e01b03198116811461230d57600080fd5b60008060408385031215613b2057600080fd5b8235613b2b816137f2565b9150602083013561393881613af7565b600080600060408486031215613b5057600080fd5b6139d28461384b565b60008060408385031215613b6c57600080fd5b613b758361384b565b9150613aee60208401613a06565b60008060008060608587031215613b9957600080fd5b8435613ba4816137f2565b93506020850135613bb4816137f2565b925060408501356001600160401b03811115613bcf57600080fd5b613bdb87828801613971565b95989497509550505050565b60008060208385031215613bfa57600080fd5b82356001600160401b03811115613c1057600080fd5b613c1c85828601613807565b90969095509350505050565b60005b83811015613c43578181015183820152602001613c2b565b50506000910152565b6000602080830181845280855180835260408601915060408160051b870101925083870160005b82811015613cb957878503603f1901845281518051808752613c9a818989018a8501613c28565b601f01601f191695909501860194509285019290850190600101613c73565b5092979650505050505050565b600080600060608486031215613cdb57600080fd5b8335613ce6816137f2565b92506020840135613cf6816137f2565b91506040840135613d0681613af7565b809150509250925092565b60008060408385031215613d2457600080fd5b8235613b75816137f2565b60008060008060608587031215613d4557600080fd5b8435613d50816137f2565b935060208501356001600160401b03811115613d6b57600080fd5b613d7787828801613971565b909450925050604085013565ffffffffffff81168114613d9657600080fd5b939692955090935050565b634e487b7160e01b600052603260045260246000fd5b600060208284031215613dc957600080fd5b8135610e9081613af7565b634e487b7160e01b600052601160045260246000fd5b600060018201613dfc57613dfc613dd4565b5060010190565b80820180821115610ca757610ca7613dd4565b600060208284031215613e2857600080fd5b815160ff81168114610e9057600080fd5b60ff8181168382160190811115610ca757610ca7613dd4565b600181815b80851115613e8d578160001904821115613e7357613e73613dd4565b80851615613e8057918102915b93841c9390800290613e57565b509250929050565b600082613ea457506001610ca7565b81613eb157506000610ca7565b8160018114613ec75760028114613ed157613eed565b6001915050610ca7565b60ff841115613ee257613ee2613dd4565b50506001821b610ca7565b5060208310610133831016604e8410600b8410161715613f10575081810a610ca7565b613f1a8383613e52565b8060001904821115613f2e57613f2e613dd4565b029392505050565b6000610e9060ff841683613e95565b600060208284031215613f5757600080fd5b5051919050565b600060208284031215613f7057600080fd5b8151610e90816138fc565b81835281816020850137506000828201602090810191909152601f909101601f19169091010190565b602081526000612b39602083018486613f7b565b81810381811115610ca757610ca7613dd4565b600060208284031215613fdd57600080fd5b8151610e9081613af7565b6000610e908383613e95565b8082028115828204841417610ca757610ca7613dd4565b60008261402857634e487b7160e01b600052601260045260246000fd5b500490565b60006001600160a01b03808716835280861660208401525060606040830152611fb1606083018486613f7b565b6000808585111561406a57600080fd5b8386111561407757600080fd5b5050820193919092039150565b634e487b7160e01b600052604160045260246000fd5b6000808335601e198436030181126140b157600080fd5b8301803591506001600160401b038211156140cb57600080fd5b60200191503681900382131561203157600080fd5b8284823760008382016000815283516140fd818360208801613c28565b0195945050505050565b65ffffffffffff81811683821601908082111561412657614126613dd4565b5092915050565b65ffffffffffff8616815260006001600160a01b03808716602084015280861660408401525060806060830152614168608083018486613f7b565b979650505050505050565b6001600160e01b03198135818116916004851015611b035760049490940360031b84901b1690921692915050565b600082516141b3818460208701613c28565b9190910192915050565b63ffffffff82811682821603908082111561412657614126613dd456fea164736f6c6343000814000a",
  "devdoc": {
    "author": "Ilya A. Shlyakhovoy",
    "errors": {
      "AddressEmptyCode(address)": [
        {
          "details": "There's no code at `target` (it is not a contract)."
        }
      ],
      "AddressInsufficientBalance(address)": [
        {
          "details": "The ETH balance of the account is not enough to perform the operation."
        }
      ],
      "EnforcedPause()": [
        {
          "details": "The operation failed because the contract is paused."
        }
      ],
      "EnumerableMapNonexistentKey(bytes32)": [
        {
          "details": "Query for a nonexistent map key."
        }
      ],
      "ExpectedPause()": [
        {
          "details": "The operation failed because the contract is not paused."
        }
      ],
      "FailedInnerCall()": [
        {
          "details": "A call to an address target failed. The target may have reverted."
        }
      ],
      "OwnableInvalidOwner(address)": [
        {
          "details": "The owner is not a valid owner account. (eg. `address(0)`)"
        }
      ],
      "OwnableUnauthorizedAccount(address)": [
        {
          "details": "The caller account is not authorized to perform an operation."
        }
      ],
      "SafeCastOverflowedUintDowncast(uint8,uint256)": [
        {
          "details": "Value doesn't fit in an uint of `bits` size."
        }
      ]
    },
    "events": {
      "OperationCanceled(bytes32,uint32)": {
        "details": "A scheduled operation was canceled."
      },
      "OperationExecuted(bytes32,uint32)": {
        "details": "A scheduled operation was executed."
      },
      "OperationScheduled(bytes32,uint32,uint48,address,address,bytes)": {
        "details": "A delayed operation was scheduled."
      },
      "Paused(address)": {
        "details": "Emitted when the pause is triggered by `account`."
      },
      "RoleAdminChanged(uint64,uint64)": {
        "details": "Role acting as admin over a given `roleId` is updated."
      },
      "RoleGrantDelayChanged(uint64,uint32,uint48)": {
        "details": "Grant delay for a given `roleId` will be updated to `delay` when `since` is reached."
      },
      "RoleGranted(uint64,address,uint32,uint48,bool)": {
        "details": "Emitted when `account` is granted `roleId`. NOTE: The meaning of the `since` argument depends on the `newMember` argument. If the role is granted to a new member, the `since` argument indicates when the account becomes a member of the role, otherwise it indicates the execution delay for this account and roleId is updated."
      },
      "RoleGuardianChanged(uint64,uint64)": {
        "details": "Role acting as guardian over a given `roleId` is updated."
      },
      "RoleLabel(uint64,string)": {
        "details": "Informational labelling for a roleId."
      },
      "RoleRevoked(uint64,address)": {
        "details": "Emitted when `account` membership or `roleId` is revoked. Unlike granting, revoking is instantaneous."
      },
      "TargetAdminDelayUpdated(address,uint32,uint48)": {
        "details": "Admin delay for a given `target` will be updated to `delay` when `since` is reached."
      },
      "TargetClosed(address,bool)": {
        "details": "Target mode is updated (true = closed, false = open)."
      },
      "TargetFunctionRoleUpdated(address,bytes4,uint64)": {
        "details": "Role required to invoke `selector` on `target` is updated to `roleId`."
      },
      "Unpaused(address)": {
        "details": "Emitted when the pause is lifted by `account`."
      }
    },
    "kind": "dev",
    "methods": {
      "canCall(address,address,bytes4)": {
        "details": "Check if an address (`caller`) is authorised to call a given function on a given contract directly (with no restriction). Additionally, it returns the delay needed to perform the call indirectly through the {schedule} & {execute} workflow. This function is usually called by the targeted contract to control immediate execution of restricted functions. Therefore we only return true if the call can be performed without any delay. If the call is subject to a previously set delay (not zero), then the function should return false and the caller should schedule the operation for future execution. If `immediate` is true, the delay can be disregarded and the operation can be immediately executed, otherwise the operation can be executed if and only if delay is greater than 0. NOTE: The IAuthority interface does not include the `uint32` delay. This is an extension of that interface that is backward compatible. Some contracts may thus ignore the second return argument. In that case they will fail to identify the indirect workflow, and will consider calls that require a delay to be forbidden. NOTE: This function does not report the permissions of this manager itself. These are defined by the {_canCallSelf} function instead."
      },
      "cancel(address,address,bytes)": {
        "details": "Cancel a scheduled (delayed) operation. Returns the nonce that identifies the previously scheduled operation that is cancelled. Requirements: - the caller must be the proposer, a guardian of the targeted function, or a global admin Emits a {OperationCanceled} event."
      },
      "consumeScheduledOp(address,bytes)": {
        "details": "Consume a scheduled operation targeting the caller. If such an operation exists, mark it as consumed (emit an {OperationExecuted} event and clean the state). Otherwise, throw an error. This is useful for contract that want to enforce that calls targeting them were scheduled on the manager, with all the verifications that it implies. Emit a {OperationExecuted} event."
      },
      "execute(address,bytes)": {
        "details": "Execute a function that is delay restricted, provided it was properly scheduled beforehand, or the execution delay is 0. Returns the nonce that identifies the previously scheduled operation that is executed, or 0 if the operation wasn't previously scheduled (if the caller doesn't have an execution delay). Emits an {OperationExecuted} event only if the call was scheduled and delayed."
      },
      "expiration()": {
        "details": "Expiration delay for scheduled proposals. Defaults to 1 week. IMPORTANT: Avoid overriding the expiration with 0. Otherwise every contract proposal will be expired immediately, disabling any scheduling usage."
      },
      "getAccess(uint64,address)": {
        "details": "Get the access details for a given account for a given role. These details include the timepoint at which membership becomes active, and the delay applied to all operation by this user that requires this permission level. Returns: [0] Timestamp at which the account membership becomes valid. 0 means role is not granted. [1] Current execution delay for the account. [2] Pending execution delay for the account. [3] Timestamp at which the pending execution delay will become active. 0 means no delay update is scheduled."
      },
      "getNonce(bytes32)": {
        "details": "Return the nonce for the latest scheduled operation with a given id. Returns 0 if the operation has never been scheduled."
      },
      "getRoleAdmin(uint64)": {
        "details": "Get the id of the role that acts as an admin for the given role. The admin permission is required to grant the role, revoke the role and update the execution delay to execute an operation that is restricted to this role."
      },
      "getRoleGrantDelay(uint64)": {
        "details": "Get the role current grant delay. Its value may change at any point without an event emitted following a call to {setGrantDelay}. Changes to this value, including effect timepoint are notified in advance by the {RoleGrantDelayChanged} event."
      },
      "getRoleGuardian(uint64)": {
        "details": "Get the role that acts as a guardian for a given role. The guardian permission allows canceling operations that have been scheduled under the role."
      },
      "getSchedule(bytes32)": {
        "details": "Return the timepoint at which a scheduled operation will be ready for execution. This returns 0 if the operation is not yet scheduled, has expired, was executed, or was canceled."
      },
      "getTargetAdminDelay(address)": {
        "details": "Get the admin delay for a target contract. Changes to contract configuration are subject to this delay."
      },
      "getTargetFunctionRole(address,bytes4)": {
        "details": "Get the role required to call a function."
      },
      "grantRole(uint64,address,uint32)": {
        "details": "Add `account` to `roleId`, or change its execution delay. This gives the account the authorization to call any function that is restricted to this role. An optional execution delay (in seconds) can be set. If that delay is non 0, the user is required to schedule any operation that is restricted to members of this role. The user will only be able to execute the operation after the delay has passed, before it has expired. During this period, admin and guardians can cancel the operation (see {cancel}). If the account has already been granted this role, the execution delay will be updated. This update is not immediate and follows the delay rules. For example, if a user currently has a delay of 3 hours, and this is called to reduce that delay to 1 hour, the new delay will take some time to take effect, enforcing that any operation executed in the 3 hours that follows this update was indeed scheduled before this update. Requirements: - the caller must be an admin for the role (see {getRoleAdmin}) - granted role must not be the `PUBLIC_ROLE` Emits a {RoleGranted} event."
      },
      "hasRole(uint64,address)": {
        "details": "Check if a given account currently has the permission level corresponding to a given role. Note that this permission might be associated with an execution delay. {getAccess} can provide more details."
      },
      "hashOperation(address,address,bytes)": {
        "details": "Hashing function for delayed operations."
      },
      "isTargetClosed(address)": {
        "details": "Get whether the contract is closed disabling any access. Otherwise role permissions are applied."
      },
      "labelRole(uint64,string)": {
        "details": "Give a label to a role, for improved role discoverability by UIs. Requirements: - the caller must be a global admin Emits a {RoleLabel} event."
      },
      "minSetback()": {
        "details": "Minimum setback for all delay updates, with the exception of execution delays. It can be increased without setback (and reset via {revokeRole} in the case event of an accidental increase). Defaults to 5 days."
      },
      "multicall(bytes[])": {
        "custom:oz-upgrades-unsafe-allow-reachable": "delegatecall",
        "details": "Receives and executes a batch of function calls on this contract."
      },
      "owner()": {
        "details": "Returns the address of the current owner."
      },
      "paused()": {
        "details": "Returns true if the contract is paused, and false otherwise."
      },
      "renounceOwnership()": {
        "details": "Leaves the contract without owner. It will not be possible to call `onlyOwner` functions. Can only be called by the current owner. NOTE: Renouncing ownership will leave the contract without an owner, thereby disabling any functionality that is only available to the owner."
      },
      "renounceRole(uint64,address)": {
        "details": "Renounce role permissions for the calling account with immediate effect. If the sender is not in the role this call has no effect. Requirements: - the caller must be `callerConfirmation`. Emits a {RoleRevoked} event if the account had the role."
      },
      "revokeRole(uint64,address)": {
        "details": "Remove an account from a role, with immediate effect. If the account does not have the role, this call has no effect. Requirements: - the caller must be an admin for the role (see {getRoleAdmin}) - revoked role must not be the `PUBLIC_ROLE` Emits a {RoleRevoked} event if the account had the role."
      },
      "schedule(address,bytes,uint48)": {
        "details": "Schedule a delayed operation for future execution, and return the operation identifier. It is possible to choose the timestamp at which the operation becomes executable as long as it satisfies the execution delays required for the caller. The special value zero will automatically set the earliest possible time. Returns the `operationId` that was scheduled. Since this value is a hash of the parameters, it can reoccur when the same parameters are used; if this is relevant, the returned `nonce` can be used to uniquely identify this scheduled operation from other occurrences of the same `operationId` in invocations of {execute} and {cancel}. Emits a {OperationScheduled} event. NOTE: It is not possible to concurrently schedule more than one operation with the same `target` and `data`. If this is necessary, a random byte can be appended to `data` to act as a salt that will be ignored by the target contract if it is using standard Solidity ABI encoding."
      },
      "setGrantDelay(uint64,uint32)": {
        "details": "Update the delay for granting a `roleId`. Requirements: - the caller must be a global admin Emits a {RoleGrantDelayChanged} event."
      },
      "setRate(address,uint256)": {
        "params": {
          "currency": "the address of the currency token",
          "rate": "the exchange rate to token"
        }
      },
      "setRoleAdmin(uint64,uint64)": {
        "details": "Change admin role for a given role. Requirements: - the caller must be a global admin Emits a {RoleAdminChanged} event"
      },
      "setRoleGuardian(uint64,uint64)": {
        "details": "Change guardian role for a given role. Requirements: - the caller must be a global admin Emits a {RoleGuardianChanged} event"
      },
      "setTargetAdminDelay(address,uint32)": {
        "details": "Set the delay for changing the configuration of a given target contract. Requirements: - the caller must be a global admin Emits a {TargetAdminDelayUpdated} event."
      },
      "setTargetClosed(address,bool)": {
        "details": "Set the closed flag for a contract. Requirements: - the caller must be a global admin Emits a {TargetClosed} event."
      },
      "setTargetFunctionRole(address,bytes4[],uint64)": {
        "details": "Set the role required to call functions identified by the `selectors` in the `target` contract. Requirements: - the caller must be a global admin Emits a {TargetFunctionRoleUpdated} event per selector."
      },
      "transferOwnership(address)": {
        "details": "Transfers ownership of the contract to a new account (`newOwner`). Can only be called by the current owner."
      },
      "updateAuthority(address,address)": {
        "details": "Changes the authority of a target managed by this manager instance. Requirements: - the caller must be a global admin"
      }
    },
    "title": "PresaleManager",
    "version": 1
  },
  "userdoc": {
    "kind": "user",
    "methods": {
      "setRate(address,uint256)": {
        "notice": "Define or change new allowed currency with rate. Rate cannot be more than 100  tokens for the 1 currency unit. Rate is nominated in token decimals"
      }
    },
    "notice": "The simple Manager contract for presale phase during the mature Manager contract in development Only confirms execution of token functions if owner called it and receives the funds in the stablecoins",
    "version": 1
  },
  "storageLayout": {
    "storage": [
      {
        "astId": 8,
        "contract": "contracts/management/PresaleManager.sol:PresaleManager",
        "label": "_owner",
        "offset": 0,
        "slot": "0",
        "type": "t_address"
      },
      {
        "astId": 225,
        "contract": "contracts/management/PresaleManager.sol:PresaleManager",
        "label": "_targets",
        "offset": 0,
        "slot": "1",
        "type": "t_mapping(t_address,t_struct(TargetConfig)182_storage)"
      },
      {
        "astId": 230,
        "contract": "contracts/management/PresaleManager.sol:PresaleManager",
        "label": "_roles",
        "offset": 0,
        "slot": "2",
        "type": "t_mapping(t_uint64,t_struct(Role)201_storage)"
      },
      {
        "astId": 235,
        "contract": "contracts/management/PresaleManager.sol:PresaleManager",
        "label": "_schedules",
        "offset": 0,
        "slot": "3",
        "type": "t_mapping(t_bytes32,t_struct(Schedule)206_storage)"
      },
      {
        "astId": 237,
        "contract": "contracts/management/PresaleManager.sol:PresaleManager",
        "label": "_executionId",
        "offset": 0,
        "slot": "4",
        "type": "t_bytes32"
      },
      {
        "astId": 2994,
        "contract": "contracts/management/PresaleManager.sol:PresaleManager",
        "label": "_paused",
        "offset": 0,
        "slot": "5",
        "type": "t_bool"
      },
      {
        "astId": 7991,
        "contract": "contracts/management/PresaleManager.sol:PresaleManager",
        "label": "tokenContract",
        "offset": 1,
        "slot": "5",
        "type": "t_address"
      },
      {
        "astId": 7993,
        "contract": "contracts/management/PresaleManager.sol:PresaleManager",
        "label": "bonusPercent",
        "offset": 0,
        "slot": "6",
        "type": "t_uint256"
      },
      {
        "astId": 7996,
        "contract": "contracts/management/PresaleManager.sol:PresaleManager",
        "label": "currencies",
        "offset": 0,
        "slot": "7",
        "type": "t_struct(AddressToUintMap)6591_storage"
      }
    ],
    "types": {
      "t_address": {
        "encoding": "inplace",
        "label": "address",
        "numberOfBytes": "20"
      },
      "t_array(t_bytes32)dyn_storage": {
        "base": "t_bytes32",
        "encoding": "dynamic_array",
        "label": "bytes32[]",
        "numberOfBytes": "32"
      },
      "t_bool": {
        "encoding": "inplace",
        "label": "bool",
        "numberOfBytes": "1"
      },
      "t_bytes32": {
        "encoding": "inplace",
        "label": "bytes32",
        "numberOfBytes": "32"
      },
      "t_bytes4": {
        "encoding": "inplace",
        "label": "bytes4",
        "numberOfBytes": "4"
      },
      "t_mapping(t_address,t_struct(Access)188_storage)": {
        "encoding": "mapping",
        "key": "t_address",
        "label": "mapping(address => struct AccessManager.Access)",
        "numberOfBytes": "32",
        "value": "t_struct(Access)188_storage"
      },
      "t_mapping(t_address,t_struct(TargetConfig)182_storage)": {
        "encoding": "mapping",
        "key": "t_address",
        "label": "mapping(address => struct AccessManager.TargetConfig)",
        "numberOfBytes": "32",
        "value": "t_struct(TargetConfig)182_storage"
      },
      "t_mapping(t_bytes32,t_bytes32)": {
        "encoding": "mapping",
        "key": "t_bytes32",
        "label": "mapping(bytes32 => bytes32)",
        "numberOfBytes": "32",
        "value": "t_bytes32"
      },
      "t_mapping(t_bytes32,t_struct(Schedule)206_storage)": {
        "encoding": "mapping",
        "key": "t_bytes32",
        "label": "mapping(bytes32 => struct AccessManager.Schedule)",
        "numberOfBytes": "32",
        "value": "t_struct(Schedule)206_storage"
      },
      "t_mapping(t_bytes32,t_uint256)": {
        "encoding": "mapping",
        "key": "t_bytes32",
        "label": "mapping(bytes32 => uint256)",
        "numberOfBytes": "32",
        "value": "t_uint256"
      },
      "t_mapping(t_bytes4,t_uint64)": {
        "encoding": "mapping",
        "key": "t_bytes4",
        "label": "mapping(bytes4 => uint64)",
        "numberOfBytes": "32",
        "value": "t_uint64"
      },
      "t_mapping(t_uint64,t_struct(Role)201_storage)": {
        "encoding": "mapping",
        "key": "t_uint64",
        "label": "mapping(uint64 => struct AccessManager.Role)",
        "numberOfBytes": "32",
        "value": "t_struct(Role)201_storage"
      },
      "t_struct(Access)188_storage": {
        "encoding": "inplace",
        "label": "struct AccessManager.Access",
        "members": [
          {
            "astId": 184,
            "contract": "contracts/management/PresaleManager.sol:PresaleManager",
            "label": "since",
            "offset": 0,
            "slot": "0",
            "type": "t_uint48"
          },
          {
            "astId": 187,
            "contract": "contracts/management/PresaleManager.sol:PresaleManager",
            "label": "delay",
            "offset": 6,
            "slot": "0",
            "type": "t_userDefinedValueType(Delay)7676"
          }
        ],
        "numberOfBytes": "32"
      },
      "t_struct(AddressToUintMap)6591_storage": {
        "encoding": "inplace",
        "label": "struct EnumerableMap.AddressToUintMap",
        "members": [
          {
            "astId": 6590,
            "contract": "contracts/management/PresaleManager.sol:PresaleManager",
            "label": "_inner",
            "offset": 0,
            "slot": "0",
            "type": "t_struct(Bytes32ToBytes32Map)5933_storage"
          }
        ],
        "numberOfBytes": "96"
      },
      "t_struct(Bytes32Set)7231_storage": {
        "encoding": "inplace",
        "label": "struct EnumerableSet.Bytes32Set",
        "members": [
          {
            "astId": 7230,
            "contract": "contracts/management/PresaleManager.sol:PresaleManager",
            "label": "_inner",
            "offset": 0,
            "slot": "0",
            "type": "t_struct(Set)7037_storage"
          }
        ],
        "numberOfBytes": "64"
      },
      "t_struct(Bytes32ToBytes32Map)5933_storage": {
        "encoding": "inplace",
        "label": "struct EnumerableMap.Bytes32ToBytes32Map",
        "members": [
          {
            "astId": 5928,
            "contract": "contracts/management/PresaleManager.sol:PresaleManager",
            "label": "_keys",
            "offset": 0,
            "slot": "0",
            "type": "t_struct(Bytes32Set)7231_storage"
          },
          {
            "astId": 5932,
            "contract": "contracts/management/PresaleManager.sol:PresaleManager",
            "label": "_values",
            "offset": 0,
            "slot": "2",
            "type": "t_mapping(t_bytes32,t_bytes32)"
          }
        ],
        "numberOfBytes": "96"
      },
      "t_struct(Role)201_storage": {
        "encoding": "inplace",
        "label": "struct AccessManager.Role",
        "members": [
          {
            "astId": 193,
            "contract": "contracts/management/PresaleManager.sol:PresaleManager",
            "label": "members",
            "offset": 0,
            "slot": "0",
            "type": "t_mapping(t_address,t_struct(Access)188_storage)"
          },
          {
            "astId": 195,
            "contract": "contracts/management/PresaleManager.sol:PresaleManager",
            "label": "admin",
            "offset": 0,
            "slot": "1",
            "type": "t_uint64"
          },
          {
            "astId": 197,
            "contract": "contracts/management/PresaleManager.sol:PresaleManager",
            "label": "guardian",
            "offset": 8,
            "slot": "1",
            "type": "t_uint64"
          },
          {
            "astId": 200,
            "contract": "contracts/management/PresaleManager.sol:PresaleManager",
            "label": "grantDelay",
            "offset": 16,
            "slot": "1",
            "type": "t_userDefinedValueType(Delay)7676"
          }
        ],
        "numberOfBytes": "64"
      },
      "t_struct(Schedule)206_storage": {
        "encoding": "inplace",
        "label": "struct AccessManager.Schedule",
        "members": [
          {
            "astId": 203,
            "contract": "contracts/management/PresaleManager.sol:PresaleManager",
            "label": "timepoint",
            "offset": 0,
            "slot": "0",
            "type": "t_uint48"
          },
          {
            "astId": 205,
            "contract": "contracts/management/PresaleManager.sol:PresaleManager",
            "label": "nonce",
            "offset": 6,
            "slot": "0",
            "type": "t_uint32"
          }
        ],
        "numberOfBytes": "32"
      },
      "t_struct(Set)7037_storage": {
        "encoding": "inplace",
        "label": "struct EnumerableSet.Set",
        "members": [
          {
            "astId": 7032,
            "contract": "contracts/management/PresaleManager.sol:PresaleManager",
            "label": "_values",
            "offset": 0,
            "slot": "0",
            "type": "t_array(t_bytes32)dyn_storage"
          },
          {
            "astId": 7036,
            "contract": "contracts/management/PresaleManager.sol:PresaleManager",
            "label": "_positions",
            "offset": 0,
            "slot": "1",
            "type": "t_mapping(t_bytes32,t_uint256)"
          }
        ],
        "numberOfBytes": "64"
      },
      "t_struct(TargetConfig)182_storage": {
        "encoding": "inplace",
        "label": "struct AccessManager.TargetConfig",
        "members": [
          {
            "astId": 176,
            "contract": "contracts/management/PresaleManager.sol:PresaleManager",
            "label": "allowedRoles",
            "offset": 0,
            "slot": "0",
            "type": "t_mapping(t_bytes4,t_uint64)"
          },
          {
            "astId": 179,
            "contract": "contracts/management/PresaleManager.sol:PresaleManager",
            "label": "adminDelay",
            "offset": 0,
            "slot": "1",
            "type": "t_userDefinedValueType(Delay)7676"
          },
          {
            "astId": 181,
            "contract": "contracts/management/PresaleManager.sol:PresaleManager",
            "label": "closed",
            "offset": 14,
            "slot": "1",
            "type": "t_bool"
          }
        ],
        "numberOfBytes": "64"
      },
      "t_uint256": {
        "encoding": "inplace",
        "label": "uint256",
        "numberOfBytes": "32"
      },
      "t_uint32": {
        "encoding": "inplace",
        "label": "uint32",
        "numberOfBytes": "4"
      },
      "t_uint48": {
        "encoding": "inplace",
        "label": "uint48",
        "numberOfBytes": "6"
      },
      "t_uint64": {
        "encoding": "inplace",
        "label": "uint64",
        "numberOfBytes": "8"
      },
      "t_userDefinedValueType(Delay)7676": {
        "encoding": "inplace",
        "label": "Time.Delay",
        "numberOfBytes": "14"
      }
    }
  }
}