{
  "_format": "hh-sol-artifact-1",
  "contractName": "PresaleManager",
  "sourceName": "contracts/management/PresaleManager.sol",
  "abi": [
    {
      "inputs": [
        {
          "internalType": "address",
          "name": "initialOwner",
          "type": "address"
        },
        {
          "internalType": "address",
          "name": "token",
          "type": "address"
        },
        {
          "internalType": "uint256",
          "name": "bonus",
          "type": "uint256"
        }
      ],
      "stateMutability": "nonpayable",
      "type": "constructor"
    },
    {
      "inputs": [
        {
          "internalType": "bytes32",
          "name": "operationId",
          "type": "bytes32"
        }
      ],
      "name": "AccessManagerAlreadyScheduled",
      "type": "error"
    },
    {
      "inputs": [],
      "name": "AccessManagerBadConfirmation",
      "type": "error"
    },
    {
      "inputs": [
        {
          "internalType": "bytes32",
          "name": "operationId",
          "type": "bytes32"
        }
      ],
      "name": "AccessManagerExpired",
      "type": "error"
    },
    {
      "inputs": [
        {
          "internalType": "address",
          "name": "initialAdmin",
          "type": "address"
        }
      ],
      "name": "AccessManagerInvalidInitialAdmin",
      "type": "error"
    },
    {
      "inputs": [
        {
          "internalType": "address",
          "name": "account",
          "type": "address"
        }
      ],
      "name": "AccessManagerLockedAccount",
      "type": "error"
    },
    {
      "inputs": [
        {
          "internalType": "uint64",
          "name": "roleId",
          "type": "uint64"
        }
      ],
      "name": "AccessManagerLockedRole",
      "type": "error"
    },
    {
      "inputs": [
        {
          "internalType": "bytes32",
          "name": "operationId",
          "type": "bytes32"
        }
      ],
      "name": "AccessManagerNotReady",
      "type": "error"
    },
    {
      "inputs": [
        {
          "internalType": "bytes32",
          "name": "operationId",
          "type": "bytes32"
        }
      ],
      "name": "AccessManagerNotScheduled",
      "type": "error"
    },
    {
      "inputs": [
        {
          "internalType": "address",
          "name": "msgsender",
          "type": "address"
        },
        {
          "internalType": "uint64",
          "name": "roleId",
          "type": "uint64"
        }
      ],
      "name": "AccessManagerUnauthorizedAccount",
      "type": "error"
    },
    {
      "inputs": [
        {
          "internalType": "address",
          "name": "caller",
          "type": "address"
        },
        {
          "internalType": "address",
          "name": "target",
          "type": "address"
        },
        {
          "internalType": "bytes4",
          "name": "selector",
          "type": "bytes4"
        }
      ],
      "name": "AccessManagerUnauthorizedCall",
      "type": "error"
    },
    {
      "inputs": [
        {
          "internalType": "address",
          "name": "msgsender",
          "type": "address"
        },
        {
          "internalType": "address",
          "name": "caller",
          "type": "address"
        },
        {
          "internalType": "address",
          "name": "target",
          "type": "address"
        },
        {
          "internalType": "bytes4",
          "name": "selector",
          "type": "bytes4"
        }
      ],
      "name": "AccessManagerUnauthorizedCancel",
      "type": "error"
    },
    {
      "inputs": [
        {
          "internalType": "address",
          "name": "target",
          "type": "address"
        }
      ],
      "name": "AccessManagerUnauthorizedConsume",
      "type": "error"
    },
    {
      "inputs": [
        {
          "internalType": "address",
          "name": "target",
          "type": "address"
        }
      ],
      "name": "AddressEmptyCode",
      "type": "error"
    },
    {
      "inputs": [
        {
          "internalType": "address",
          "name": "account",
          "type": "address"
        }
      ],
      "name": "AddressInsufficientBalance",
      "type": "error"
    },
    {
      "inputs": [
        {
          "internalType": "address",
          "name": "currency",
          "type": "address"
        }
      ],
      "name": "CannotRedeem",
      "type": "error"
    },
    {
      "inputs": [
        {
          "internalType": "address",
          "name": "currency",
          "type": "address"
        }
      ],
      "name": "CannotTransfer",
      "type": "error"
    },
    {
      "inputs": [],
      "name": "EmptyCurrency",
      "type": "error"
    },
    {
      "inputs": [],
      "name": "EmptyNewToken",
      "type": "error"
    },
    {
      "inputs": [],
      "name": "EmptyRate",
      "type": "error"
    },
    {
      "inputs": [],
      "name": "EmptyToken",
      "type": "error"
    },
    {
      "inputs": [],
      "name": "EmptyValue",
      "type": "error"
    },
    {
      "inputs": [],
      "name": "EnforcedPause",
      "type": "error"
    },
    {
      "inputs": [
        {
          "internalType": "bytes32",
          "name": "key",
          "type": "bytes32"
        }
      ],
      "name": "EnumerableMapNonexistentKey",
      "type": "error"
    },
    {
      "inputs": [],
      "name": "ExpectedPause",
      "type": "error"
    },
    {
      "inputs": [],
      "name": "FailedInnerCall",
      "type": "error"
    },
    {
      "inputs": [
        {
          "internalType": "address",
          "name": "target",
          "type": "address"
        }
      ],
      "name": "NotOwned",
      "type": "error"
    },
    {
      "inputs": [
        {
          "internalType": "address",
          "name": "owner",
          "type": "address"
        }
      ],
      "name": "OwnableInvalidOwner",
      "type": "error"
    },
    {
      "inputs": [
        {
          "internalType": "address",
          "name": "account",
          "type": "address"
        }
      ],
      "name": "OwnableUnauthorizedAccount",
      "type": "error"
    },
    {
      "inputs": [
        {
          "internalType": "uint8",
          "name": "bits",
          "type": "uint8"
        },
        {
          "internalType": "uint256",
          "name": "value",
          "type": "uint256"
        }
      ],
      "name": "SafeCastOverflowedUintDowncast",
      "type": "error"
    },
    {
      "inputs": [
        {
          "internalType": "uint256",
          "name": "rate",
          "type": "uint256"
        }
      ],
      "name": "TooBigRate",
      "type": "error"
    },
    {
      "anonymous": false,
      "inputs": [
        {
          "indexed": true,
          "internalType": "address",
          "name": "sender",
          "type": "address"
        },
        {
          "indexed": true,
          "internalType": "address",
          "name": "currency",
          "type": "address"
        },
        {
          "indexed": true,
          "internalType": "uint256",
          "name": "value",
          "type": "uint256"
        },
        {
          "indexed": false,
          "internalType": "uint256",
          "name": "amount",
          "type": "uint256"
        }
      ],
      "name": "BoughtTokens",
      "type": "event"
    },
    {
      "anonymous": false,
      "inputs": [
        {
          "indexed": true,
          "internalType": "bytes32",
          "name": "operationId",
          "type": "bytes32"
        },
        {
          "indexed": true,
          "internalType": "uint32",
          "name": "nonce",
          "type": "uint32"
        }
      ],
      "name": "OperationCanceled",
      "type": "event"
    },
    {
      "anonymous": false,
      "inputs": [
        {
          "indexed": true,
          "internalType": "bytes32",
          "name": "operationId",
          "type": "bytes32"
        },
        {
          "indexed": true,
          "internalType": "uint32",
          "name": "nonce",
          "type": "uint32"
        }
      ],
      "name": "OperationExecuted",
      "type": "event"
    },
    {
      "anonymous": false,
      "inputs": [
        {
          "indexed": true,
          "internalType": "bytes32",
          "name": "operationId",
          "type": "bytes32"
        },
        {
          "indexed": true,
          "internalType": "uint32",
          "name": "nonce",
          "type": "uint32"
        },
        {
          "indexed": false,
          "internalType": "uint48",
          "name": "schedule",
          "type": "uint48"
        },
        {
          "indexed": false,
          "internalType": "address",
          "name": "caller",
          "type": "address"
        },
        {
          "indexed": false,
          "internalType": "address",
          "name": "target",
          "type": "address"
        },
        {
          "indexed": false,
          "internalType": "bytes",
          "name": "data",
          "type": "bytes"
        }
      ],
      "name": "OperationScheduled",
      "type": "event"
    },
    {
      "anonymous": false,
      "inputs": [
        {
          "indexed": true,
          "internalType": "address",
          "name": "previousOwner",
          "type": "address"
        },
        {
          "indexed": true,
          "internalType": "address",
          "name": "newOwner",
          "type": "address"
        }
      ],
      "name": "OwnershipTransferred",
      "type": "event"
    },
    {
      "anonymous": false,
      "inputs": [
        {
          "indexed": false,
          "internalType": "address",
          "name": "account",
          "type": "address"
        }
      ],
      "name": "Paused",
      "type": "event"
    },
    {
      "anonymous": false,
      "inputs": [
        {
          "indexed": true,
          "internalType": "uint64",
          "name": "roleId",
          "type": "uint64"
        },
        {
          "indexed": true,
          "internalType": "uint64",
          "name": "admin",
          "type": "uint64"
        }
      ],
      "name": "RoleAdminChanged",
      "type": "event"
    },
    {
      "anonymous": false,
      "inputs": [
        {
          "indexed": true,
          "internalType": "uint64",
          "name": "roleId",
          "type": "uint64"
        },
        {
          "indexed": false,
          "internalType": "uint32",
          "name": "delay",
          "type": "uint32"
        },
        {
          "indexed": false,
          "internalType": "uint48",
          "name": "since",
          "type": "uint48"
        }
      ],
      "name": "RoleGrantDelayChanged",
      "type": "event"
    },
    {
      "anonymous": false,
      "inputs": [
        {
          "indexed": true,
          "internalType": "uint64",
          "name": "roleId",
          "type": "uint64"
        },
        {
          "indexed": true,
          "internalType": "address",
          "name": "account",
          "type": "address"
        },
        {
          "indexed": false,
          "internalType": "uint32",
          "name": "delay",
          "type": "uint32"
        },
        {
          "indexed": false,
          "internalType": "uint48",
          "name": "since",
          "type": "uint48"
        },
        {
          "indexed": false,
          "internalType": "bool",
          "name": "newMember",
          "type": "bool"
        }
      ],
      "name": "RoleGranted",
      "type": "event"
    },
    {
      "anonymous": false,
      "inputs": [
        {
          "indexed": true,
          "internalType": "uint64",
          "name": "roleId",
          "type": "uint64"
        },
        {
          "indexed": true,
          "internalType": "uint64",
          "name": "guardian",
          "type": "uint64"
        }
      ],
      "name": "RoleGuardianChanged",
      "type": "event"
    },
    {
      "anonymous": false,
      "inputs": [
        {
          "indexed": true,
          "internalType": "uint64",
          "name": "roleId",
          "type": "uint64"
        },
        {
          "indexed": false,
          "internalType": "string",
          "name": "label",
          "type": "string"
        }
      ],
      "name": "RoleLabel",
      "type": "event"
    },
    {
      "anonymous": false,
      "inputs": [
        {
          "indexed": true,
          "internalType": "uint64",
          "name": "roleId",
          "type": "uint64"
        },
        {
          "indexed": true,
          "internalType": "address",
          "name": "account",
          "type": "address"
        }
      ],
      "name": "RoleRevoked",
      "type": "event"
    },
    {
      "anonymous": false,
      "inputs": [
        {
          "indexed": true,
          "internalType": "address",
          "name": "target",
          "type": "address"
        },
        {
          "indexed": false,
          "internalType": "uint32",
          "name": "delay",
          "type": "uint32"
        },
        {
          "indexed": false,
          "internalType": "uint48",
          "name": "since",
          "type": "uint48"
        }
      ],
      "name": "TargetAdminDelayUpdated",
      "type": "event"
    },
    {
      "anonymous": false,
      "inputs": [
        {
          "indexed": true,
          "internalType": "address",
          "name": "target",
          "type": "address"
        },
        {
          "indexed": false,
          "internalType": "bool",
          "name": "closed",
          "type": "bool"
        }
      ],
      "name": "TargetClosed",
      "type": "event"
    },
    {
      "anonymous": false,
      "inputs": [
        {
          "indexed": true,
          "internalType": "address",
          "name": "target",
          "type": "address"
        },
        {
          "indexed": false,
          "internalType": "bytes4",
          "name": "selector",
          "type": "bytes4"
        },
        {
          "indexed": true,
          "internalType": "uint64",
          "name": "roleId",
          "type": "uint64"
        }
      ],
      "name": "TargetFunctionRoleUpdated",
      "type": "event"
    },
    {
      "anonymous": false,
      "inputs": [
        {
          "indexed": false,
          "internalType": "address",
          "name": "account",
          "type": "address"
        }
      ],
      "name": "Unpaused",
      "type": "event"
    },
    {
      "inputs": [],
      "name": "ADMIN_ROLE",
      "outputs": [
        {
          "internalType": "uint64",
          "name": "",
          "type": "uint64"
        }
      ],
      "stateMutability": "view",
      "type": "function"
    },
    {
      "inputs": [],
      "name": "PUBLIC_ROLE",
      "outputs": [
        {
          "internalType": "uint64",
          "name": "",
          "type": "uint64"
        }
      ],
      "stateMutability": "view",
      "type": "function"
    },
    {
      "inputs": [
        {
          "internalType": "address",
          "name": "currency",
          "type": "address"
        }
      ],
      "name": "balanceOf",
      "outputs": [
        {
          "internalType": "uint256",
          "name": "",
          "type": "uint256"
        }
      ],
      "stateMutability": "view",
      "type": "function"
    },
    {
      "inputs": [
        {
          "internalType": "address",
          "name": "currency",
          "type": "address"
        },
        {
          "internalType": "uint256",
          "name": "value",
          "type": "uint256"
        }
      ],
      "name": "buy",
      "outputs": [
        {
          "internalType": "bool",
          "name": "",
          "type": "bool"
        }
      ],
      "stateMutability": "nonpayable",
      "type": "function"
    },
    {
      "inputs": [
        {
          "internalType": "address",
          "name": "caller",
          "type": "address"
        },
        {
          "internalType": "address",
          "name": "target",
          "type": "address"
        },
        {
          "internalType": "bytes4",
          "name": "selector",
          "type": "bytes4"
        }
      ],
      "name": "canCall",
      "outputs": [
        {
          "internalType": "bool",
          "name": "immediate",
          "type": "bool"
        },
        {
          "internalType": "uint32",
          "name": "delay",
          "type": "uint32"
        }
      ],
      "stateMutability": "view",
      "type": "function"
    },
    {
      "inputs": [
        {
          "internalType": "address",
          "name": "caller",
          "type": "address"
        },
        {
          "internalType": "address",
          "name": "target",
          "type": "address"
        },
        {
          "internalType": "bytes",
          "name": "data",
          "type": "bytes"
        }
      ],
      "name": "cancel",
      "outputs": [
        {
          "internalType": "uint32",
          "name": "",
          "type": "uint32"
        }
      ],
      "stateMutability": "nonpayable",
      "type": "function"
    },
    {
      "inputs": [
        {
          "internalType": "address",
          "name": "caller",
          "type": "address"
        },
        {
          "internalType": "bytes",
          "name": "data",
          "type": "bytes"
        }
      ],
      "name": "consumeScheduledOp",
      "outputs": [],
      "stateMutability": "nonpayable",
      "type": "function"
    },
    {
      "inputs": [
        {
          "internalType": "address",
          "name": "_token",
          "type": "address"
        }
      ],
      "name": "defineToken",
      "outputs": [],
      "stateMutability": "nonpayable",
      "type": "function"
    },
    {
      "inputs": [
        {
          "internalType": "address payable",
          "name": "_to",
          "type": "address"
        },
        {
          "internalType": "address",
          "name": "newAuthority",
          "type": "address"
        }
      ],
      "name": "destroy",
      "outputs": [],
      "stateMutability": "nonpayable",
      "type": "function"
    },
    {
      "inputs": [
        {
          "internalType": "address",
          "name": "target",
          "type": "address"
        },
        {
          "internalType": "bytes",
          "name": "data",
          "type": "bytes"
        }
      ],
      "name": "execute",
      "outputs": [
        {
          "internalType": "uint32",
          "name": "",
          "type": "uint32"
        }
      ],
      "stateMutability": "payable",
      "type": "function"
    },
    {
      "inputs": [],
      "name": "expiration",
      "outputs": [
        {
          "internalType": "uint32",
          "name": "",
          "type": "uint32"
        }
      ],
      "stateMutability": "view",
      "type": "function"
    },
    {
      "inputs": [
        {
          "internalType": "address",
          "name": "target",
          "type": "address"
        }
      ],
      "name": "freeze",
      "outputs": [],
      "stateMutability": "nonpayable",
      "type": "function"
    },
    {
      "inputs": [
        {
          "internalType": "uint64",
          "name": "roleId",
          "type": "uint64"
        },
        {
          "internalType": "address",
          "name": "account",
          "type": "address"
        }
      ],
      "name": "getAccess",
      "outputs": [
        {
          "internalType": "uint48",
          "name": "since",
          "type": "uint48"
        },
        {
          "internalType": "uint32",
          "name": "currentDelay",
          "type": "uint32"
        },
        {
          "internalType": "uint32",
          "name": "pendingDelay",
          "type": "uint32"
        },
        {
          "internalType": "uint48",
          "name": "effect",
          "type": "uint48"
        }
      ],
      "stateMutability": "view",
      "type": "function"
    },
    {
      "inputs": [],
      "name": "getBonus",
      "outputs": [
        {
          "internalType": "uint256",
          "name": "",
          "type": "uint256"
        }
      ],
      "stateMutability": "view",
      "type": "function"
    },
    {
      "inputs": [
        {
          "internalType": "bytes32",
          "name": "id",
          "type": "bytes32"
        }
      ],
      "name": "getNonce",
      "outputs": [
        {
          "internalType": "uint32",
          "name": "",
          "type": "uint32"
        }
      ],
      "stateMutability": "view",
      "type": "function"
    },
    {
      "inputs": [
        {
          "internalType": "address",
          "name": "currency",
          "type": "address"
        }
      ],
      "name": "getRate",
      "outputs": [
        {
          "internalType": "uint256",
          "name": "",
          "type": "uint256"
        }
      ],
      "stateMutability": "view",
      "type": "function"
    },
    {
      "inputs": [
        {
          "internalType": "address",
          "name": "currency",
          "type": "address"
        },
        {
          "internalType": "uint256",
          "name": "value",
          "type": "uint256"
        }
      ],
      "name": "getResultAmount",
      "outputs": [
        {
          "internalType": "uint256",
          "name": "",
          "type": "uint256"
        }
      ],
      "stateMutability": "view",
      "type": "function"
    },
    {
      "inputs": [
        {
          "internalType": "uint64",
          "name": "roleId",
          "type": "uint64"
        }
      ],
      "name": "getRoleAdmin",
      "outputs": [
        {
          "internalType": "uint64",
          "name": "",
          "type": "uint64"
        }
      ],
      "stateMutability": "view",
      "type": "function"
    },
    {
      "inputs": [
        {
          "internalType": "uint64",
          "name": "roleId",
          "type": "uint64"
        }
      ],
      "name": "getRoleGrantDelay",
      "outputs": [
        {
          "internalType": "uint32",
          "name": "",
          "type": "uint32"
        }
      ],
      "stateMutability": "view",
      "type": "function"
    },
    {
      "inputs": [
        {
          "internalType": "uint64",
          "name": "roleId",
          "type": "uint64"
        }
      ],
      "name": "getRoleGuardian",
      "outputs": [
        {
          "internalType": "uint64",
          "name": "",
          "type": "uint64"
        }
      ],
      "stateMutability": "view",
      "type": "function"
    },
    {
      "inputs": [
        {
          "internalType": "bytes32",
          "name": "id",
          "type": "bytes32"
        }
      ],
      "name": "getSchedule",
      "outputs": [
        {
          "internalType": "uint48",
          "name": "",
          "type": "uint48"
        }
      ],
      "stateMutability": "view",
      "type": "function"
    },
    {
      "inputs": [
        {
          "internalType": "address",
          "name": "target",
          "type": "address"
        }
      ],
      "name": "getTargetAdminDelay",
      "outputs": [
        {
          "internalType": "uint32",
          "name": "",
          "type": "uint32"
        }
      ],
      "stateMutability": "view",
      "type": "function"
    },
    {
      "inputs": [
        {
          "internalType": "address",
          "name": "target",
          "type": "address"
        },
        {
          "internalType": "bytes4",
          "name": "selector",
          "type": "bytes4"
        }
      ],
      "name": "getTargetFunctionRole",
      "outputs": [
        {
          "internalType": "uint64",
          "name": "",
          "type": "uint64"
        }
      ],
      "stateMutability": "view",
      "type": "function"
    },
    {
      "inputs": [],
      "name": "getToken",
      "outputs": [
        {
          "internalType": "address",
          "name": "",
          "type": "address"
        }
      ],
      "stateMutability": "view",
      "type": "function"
    },
    {
      "inputs": [
        {
          "internalType": "uint64",
          "name": "roleId",
          "type": "uint64"
        },
        {
          "internalType": "address",
          "name": "account",
          "type": "address"
        },
        {
          "internalType": "uint32",
          "name": "executionDelay",
          "type": "uint32"
        }
      ],
      "name": "grantRole",
      "outputs": [],
      "stateMutability": "nonpayable",
      "type": "function"
    },
    {
      "inputs": [
        {
          "internalType": "address",
          "name": "currency",
          "type": "address"
        }
      ],
      "name": "hasRate",
      "outputs": [
        {
          "internalType": "bool",
          "name": "",
          "type": "bool"
        }
      ],
      "stateMutability": "view",
      "type": "function"
    },
    {
      "inputs": [
        {
          "internalType": "uint64",
          "name": "roleId",
          "type": "uint64"
        },
        {
          "internalType": "address",
          "name": "account",
          "type": "address"
        }
      ],
      "name": "hasRole",
      "outputs": [
        {
          "internalType": "bool",
          "name": "isMember",
          "type": "bool"
        },
        {
          "internalType": "uint32",
          "name": "executionDelay",
          "type": "uint32"
        }
      ],
      "stateMutability": "view",
      "type": "function"
    },
    {
      "inputs": [
        {
          "internalType": "address",
          "name": "caller",
          "type": "address"
        },
        {
          "internalType": "address",
          "name": "target",
          "type": "address"
        },
        {
          "internalType": "bytes",
          "name": "data",
          "type": "bytes"
        }
      ],
      "name": "hashOperation",
      "outputs": [
        {
          "internalType": "bytes32",
          "name": "",
          "type": "bytes32"
        }
      ],
      "stateMutability": "view",
      "type": "function"
    },
    {
      "inputs": [
        {
          "internalType": "address",
          "name": "target",
          "type": "address"
        }
      ],
      "name": "isTargetClosed",
      "outputs": [
        {
          "internalType": "bool",
          "name": "",
          "type": "bool"
        }
      ],
      "stateMutability": "view",
      "type": "function"
    },
    {
      "inputs": [
        {
          "internalType": "uint64",
          "name": "roleId",
          "type": "uint64"
        },
        {
          "internalType": "string",
          "name": "label",
          "type": "string"
        }
      ],
      "name": "labelRole",
      "outputs": [],
      "stateMutability": "nonpayable",
      "type": "function"
    },
    {
      "inputs": [],
      "name": "minSetback",
      "outputs": [
        {
          "internalType": "uint32",
          "name": "",
          "type": "uint32"
        }
      ],
      "stateMutability": "view",
      "type": "function"
    },
    {
      "inputs": [
        {
          "internalType": "bytes[]",
          "name": "data",
          "type": "bytes[]"
        }
      ],
      "name": "multicall",
      "outputs": [
        {
          "internalType": "bytes[]",
          "name": "results",
          "type": "bytes[]"
        }
      ],
      "stateMutability": "nonpayable",
      "type": "function"
    },
    {
      "inputs": [],
      "name": "owner",
      "outputs": [
        {
          "internalType": "address",
          "name": "",
          "type": "address"
        }
      ],
      "stateMutability": "view",
      "type": "function"
    },
    {
      "inputs": [],
      "name": "pause",
      "outputs": [],
      "stateMutability": "nonpayable",
      "type": "function"
    },
    {
      "inputs": [],
      "name": "paused",
      "outputs": [
        {
          "internalType": "bool",
          "name": "",
          "type": "bool"
        }
      ],
      "stateMutability": "view",
      "type": "function"
    },
    {
      "inputs": [
        {
          "internalType": "address",
          "name": "currency",
          "type": "address"
        },
        {
          "internalType": "address",
          "name": "_to",
          "type": "address"
        }
      ],
      "name": "redeem",
      "outputs": [],
      "stateMutability": "nonpayable",
      "type": "function"
    },
    {
      "inputs": [],
      "name": "renounceOwnership",
      "outputs": [],
      "stateMutability": "nonpayable",
      "type": "function"
    },
    {
      "inputs": [
        {
          "internalType": "uint64",
          "name": "roleId",
          "type": "uint64"
        },
        {
          "internalType": "address",
          "name": "callerConfirmation",
          "type": "address"
        }
      ],
      "name": "renounceRole",
      "outputs": [],
      "stateMutability": "nonpayable",
      "type": "function"
    },
    {
      "inputs": [
        {
          "internalType": "uint64",
          "name": "roleId",
          "type": "uint64"
        },
        {
          "internalType": "address",
          "name": "account",
          "type": "address"
        }
      ],
      "name": "revokeRole",
      "outputs": [],
      "stateMutability": "nonpayable",
      "type": "function"
    },
    {
      "inputs": [
        {
          "internalType": "address",
          "name": "target",
          "type": "address"
        },
        {
          "internalType": "bytes",
          "name": "data",
          "type": "bytes"
        },
        {
          "internalType": "uint48",
          "name": "when",
          "type": "uint48"
        }
      ],
      "name": "schedule",
      "outputs": [
        {
          "internalType": "bytes32",
          "name": "operationId",
          "type": "bytes32"
        },
        {
          "internalType": "uint32",
          "name": "nonce",
          "type": "uint32"
        }
      ],
      "stateMutability": "nonpayable",
      "type": "function"
    },
    {
      "inputs": [
        {
          "internalType": "uint256",
          "name": "bonus",
          "type": "uint256"
        }
      ],
      "name": "setBonus",
      "outputs": [],
      "stateMutability": "nonpayable",
      "type": "function"
    },
    {
      "inputs": [
        {
          "internalType": "uint64",
          "name": "roleId",
          "type": "uint64"
        },
        {
          "internalType": "uint32",
          "name": "newDelay",
          "type": "uint32"
        }
      ],
      "name": "setGrantDelay",
      "outputs": [],
      "stateMutability": "nonpayable",
      "type": "function"
    },
    {
      "inputs": [
        {
          "internalType": "address",
          "name": "currency",
          "type": "address"
        },
        {
          "internalType": "uint256",
          "name": "rate",
          "type": "uint256"
        }
      ],
      "name": "setRate",
      "outputs": [
        {
          "internalType": "bool",
          "name": "",
          "type": "bool"
        }
      ],
      "stateMutability": "nonpayable",
      "type": "function"
    },
    {
      "inputs": [
        {
          "internalType": "uint64",
          "name": "roleId",
          "type": "uint64"
        },
        {
          "internalType": "uint64",
          "name": "admin",
          "type": "uint64"
        }
      ],
      "name": "setRoleAdmin",
      "outputs": [],
      "stateMutability": "nonpayable",
      "type": "function"
    },
    {
      "inputs": [
        {
          "internalType": "uint64",
          "name": "roleId",
          "type": "uint64"
        },
        {
          "internalType": "uint64",
          "name": "guardian",
          "type": "uint64"
        }
      ],
      "name": "setRoleGuardian",
      "outputs": [],
      "stateMutability": "nonpayable",
      "type": "function"
    },
    {
      "inputs": [
        {
          "internalType": "address",
          "name": "target",
          "type": "address"
        },
        {
          "internalType": "uint32",
          "name": "newDelay",
          "type": "uint32"
        }
      ],
      "name": "setTargetAdminDelay",
      "outputs": [],
      "stateMutability": "nonpayable",
      "type": "function"
    },
    {
      "inputs": [
        {
          "internalType": "address",
          "name": "target",
          "type": "address"
        },
        {
          "internalType": "bool",
          "name": "closed",
          "type": "bool"
        }
      ],
      "name": "setTargetClosed",
      "outputs": [],
      "stateMutability": "nonpayable",
      "type": "function"
    },
    {
      "inputs": [
        {
          "internalType": "address",
          "name": "target",
          "type": "address"
        },
        {
          "internalType": "bytes4[]",
          "name": "selectors",
          "type": "bytes4[]"
        },
        {
          "internalType": "uint64",
          "name": "roleId",
          "type": "uint64"
        }
      ],
      "name": "setTargetFunctionRole",
      "outputs": [],
      "stateMutability": "nonpayable",
      "type": "function"
    },
    {
      "inputs": [
        {
          "internalType": "address",
          "name": "newOwner",
          "type": "address"
        }
      ],
      "name": "transferOwnership",
      "outputs": [],
      "stateMutability": "nonpayable",
      "type": "function"
    },
    {
      "inputs": [
        {
          "internalType": "address",
          "name": "target",
          "type": "address"
        }
      ],
      "name": "unfreeze",
      "outputs": [],
      "stateMutability": "nonpayable",
      "type": "function"
    },
    {
      "inputs": [],
      "name": "unpause",
      "outputs": [],
      "stateMutability": "nonpayable",
      "type": "function"
    },
    {
      "inputs": [
        {
          "internalType": "address",
          "name": "target",
          "type": "address"
        },
        {
          "internalType": "address",
          "name": "newAuthority",
          "type": "address"
        }
      ],
      "name": "updateAuthority",
      "outputs": [],
      "stateMutability": "nonpayable",
      "type": "function"
    }
  ],
  "bytecode": "0x60806040523480156200001157600080fd5b506040516200441f3803806200441f83398101604081905262000034916200057a565b82806001600160a01b0381166200006657604051631e4fbdf760e01b8152600060048201526024015b60405180910390fd5b6200007181620000f7565b506001600160a01b0381166200009e57604051630409d6d160e11b8152600060048201526024016200005d565b620000ad600082818062000147565b50506005805460ff19169055620000c6816064620005d1565b60065550600580546001600160a01b0390921661010002610100600160a81b03199092169190911790555062000630565b600080546001600160a01b038381166001600160a01b0319831681178455604051919092169283917f8be0079c531659141344cd1fd0a4f28419497f9722a3daafe3b4186f6b6457e09190a35050565b60006002600160401b03196001600160401b03861601620001875760405163061c6a4360e21b81526001600160401b03861660048201526024016200005d565b6001600160401b03851660009081526002602090815260408083206001600160a01b038816845290915281205465ffffffffffff1615908115620002865763ffffffff8516620001d66200039e565b620001e29190620005e7565b905060405180604001604052808265ffffffffffff168152602001620002148663ffffffff16620003b060201b60201c565b6001600160701b039081169091526001600160401b03891660009081526002602090815260408083206001600160a01b038c16845282529091208351815494909201519092166601000000000000026001600160a01b031990931665ffffffffffff9091161791909117905562000330565b6001600160401b03871660009081526002602090815260408083206001600160a01b038a168452909152812054620002d59166010000000000009091046001600160701b0316908690620003b9565b6001600160401b03891660009081526002602090815260408083206001600160a01b038c168452909152902080546001600160701b03909316660100000000000002600160301b600160a01b03199093169290921790915590505b6040805163ffffffff8616815265ffffffffffff831660208201528315158183015290516001600160a01b038816916001600160401b038a16917ff98448b987f1428e0e230e1f3c6e2ce15b5693eaf31827fbd0b1ec4b424ae7cf9181900360600190a35095945050505050565b6000620003ab426200046e565b905090565b63ffffffff1690565b60008080620003d16001600160701b038716620004a7565b90506000620004148563ffffffff168763ffffffff168463ffffffff1611620003fc57600062000408565b62000408888562000610565b63ffffffff16620004c8565b905063ffffffff8116620004276200039e565b620004339190620005e7565b925063ffffffff8616602083901b67ffffffff0000000016604085901b6dffffffffffff000000000000000016171793505050935093915050565b600065ffffffffffff821115620004a3576040516306dfcc6560e41b815260306004820152602481018390526044016200005d565b5090565b600080620004be6001600160701b038416620004e4565b5090949350505050565b6000818311620004d95781620004db565b825b90505b92915050565b60008080620004fd84620004f76200039e565b6200050a565b9250925092509193909250565b600080806001600160501b03602086901c166001600160701b03861665ffffffffffff604088901c811690871681111562000548578282826200054d565b816000805b9550955095505050509250925092565b80516001600160a01b03811681146200057557600080fd5b919050565b6000806000606084860312156200059057600080fd5b6200059b846200055d565b9250620005ab602085016200055d565b9150604084015190509250925092565b634e487b7160e01b600052601160045260246000fd5b80820180821115620004de57620004de620005bb565b65ffffffffffff818116838216019080821115620006095762000609620005bb565b5092915050565b63ffffffff828116828216039080821115620006095762000609620005bb565b613ddf80620006406000396000f3fe60806040526004361061033f5760003560e01c8063715018a6116101b0578063b7009613116100ec578063d22b598911610095578063e0781b7a1161006f578063e0781b7a14610a88578063f2fde38b14610aa8578063f801a69814610ac8578063fe0776f514610b0257600080fd5b8063d22b598914610a28578063d6bb62c614610a48578063da2b122414610a6857600080fd5b8063cc1b6c81116100c6578063cc1b6c81146109d2578063cce7ec13146109e8578063d1f856ee14610a0857600080fd5b8063b700961314610956578063b7d2b16214610992578063bba06f27146109b257600080fd5b80638da5cb5b11610159578063a64d95ce11610133578063a64d95ce146108c9578063a7cd2448146108e9578063abd9bd2a14610909578063ac9650d81461092957600080fd5b80638da5cb5b1461083c57806394c7d7ee1461085a578063a166aa891461087a57600080fd5b8063853551b81161018a578063853551b8146107e75780638bdff161146108075780638d1fdf2f1461081c57600080fd5b8063715018a6146107a857806375b238fc146107bd5780638456cb59146107d257600080fd5b80633adc277a1161027f5780634c1da1e2116102285780635c975abb116102025780635c975abb146106f857806362b40f9f146107105780636d5115bd1461073057806370a082311461078857600080fd5b80634c1da1e21461067c578063529629521461069c578063530dd456146106bc57600080fd5b80634136a33c116102595780634136a33c1461060957806345c8b1a6146106465780634665096d1461066657600080fd5b80633adc277a146105a25780633ca7c02a146105d95780633f4ba83a146105f457600080fd5b80631cff79cd116102ec5780632bdb7097116102c65780632bdb7097146104ca5780633078f114146104fa57806330cae1871461055457806337cef7911461057457600080fd5b80631cff79cd1461046057806321df0da71461047357806325c471a0146104aa57600080fd5b806312be87271161031d57806312be8727146103eb578063167bd3951461042057806318ff183c1461044057600080fd5b806308d6122d146103445780630b0a93ba146103665780630b98f975146103cb575b600080fd5b34801561035057600080fd5b5061036461035f36600461345a565b610b22565b005b34801561037257600080fd5b506103ae6103813660046134c0565b6001600160401b039081166000908152600260205260409020600101546801000000000000000090041690565b6040516001600160401b0390911681526020015b60405180910390f35b3480156103d757600080fd5b506103646103e63660046134db565b610b7d565b3480156103f757600080fd5b5061040b6104063660046134c0565b610b9e565b60405163ffffffff90911681526020016103c2565b34801561042c57600080fd5b5061036461043b366004613502565b610bd9565b34801561044c57600080fd5b5061036461045b36600461353b565b610bef565b61040b61046e3660046135aa565b610c56565b34801561047f57600080fd5b5060055461010090046001600160a01b03165b6040516001600160a01b0390911681526020016103c2565b3480156104b657600080fd5b506103646104c5366004613612565b610dc3565b3480156104d657600080fd5b506104ea6104e5366004613657565b610de5565b60405190151581526020016103c2565b34801561050657600080fd5b5061051a610515366004613683565b610f29565b6040516103c2949392919065ffffffffffff948516815263ffffffff93841660208201529190921660408201529116606082015260800190565b34801561056057600080fd5b5061036461056f36600461369f565b610f91565b34801561058057600080fd5b5061059461058f3660046136d2565b610fa3565b6040519081526020016103c2565b3480156105ae57600080fd5b506105c26105bd3660046134db565b610fee565b60405165ffffffffffff90911681526020016103c2565b3480156105e557600080fd5b506103ae6001600160401b0381565b34801561060057600080fd5b50610364611021565b34801561061557600080fd5b5061040b6106243660046134db565b6000908152600360205260409020546601000000000000900463ffffffff1690565b34801561065257600080fd5b506103646106613660046136d2565b611033565b34801561067257600080fd5b5062093a8061040b565b34801561068857600080fd5b5061040b6106973660046136d2565b6110cb565b3480156106a857600080fd5b506103646106b736600461369f565b6110f9565b3480156106c857600080fd5b506103ae6106d73660046134c0565b6001600160401b039081166000908152600260205260409020600101541690565b34801561070457600080fd5b5060055460ff166104ea565b34801561071c57600080fd5b5061036461072b36600461353b565b61110b565b34801561073c57600080fd5b506103ae61074b366004613705565b6001600160a01b03821660009081526001602090815260408083206001600160e01b0319851684529091529020546001600160401b031692915050565b34801561079457600080fd5b506105946107a33660046136d2565b61141f565b3480156107b457600080fd5b5061036461149e565b3480156107c957600080fd5b506103ae600081565b3480156107de57600080fd5b506103646114b0565b3480156107f357600080fd5b50610364610802366004613733565b6114c0565b34801561081357600080fd5b50610594611557565b34801561082857600080fd5b506103646108373660046136d2565b61156d565b34801561084857600080fd5b506000546001600160a01b0316610492565b34801561086657600080fd5b506103646108753660046135aa565b6115db565b34801561088657600080fd5b506104ea6108953660046136d2565b6001600160a01b0316600090815260016020819052604090912001546e010000000000000000000000000000900460ff1690565b3480156108d557600080fd5b506103646108e4366004613751565b611687565b3480156108f557600080fd5b50610594610904366004613657565b611699565b34801561091557600080fd5b5061059461092436600461377b565b6117c7565b34801561093557600080fd5b506109496109443660046137df565b611800565b6040516103c29190613844565b34801561096257600080fd5b506109766109713660046138be565b6118f2565b60408051921515835263ffffffff9091166020830152016103c2565b34801561099e57600080fd5b506103646109ad366004613683565b611949565b3480156109be57600080fd5b506103646109cd36600461353b565b611960565b3480156109de57600080fd5b506206978061040b565b3480156109f457600080fd5b506104ea610a03366004613657565b611a79565b348015610a1457600080fd5b50610976610a23366004613683565b611bf1565b348015610a3457600080fd5b50610364610a43366004613909565b611c6e565b348015610a5457600080fd5b5061040b610a6336600461377b565b611c80565b348015610a7457600080fd5b50610364610a833660046136d2565b611e11565b348015610a9457600080fd5b506104ea610aa33660046136d2565b611e87565b348015610ab457600080fd5b50610364610ac33660046136d2565b611ec8565b348015610ad457600080fd5b50610ae8610ae3366004613927565b611f06565b6040805192835263ffffffff9091166020830152016103c2565b348015610b0e57600080fd5b50610364610b1d366004613683565b61204e565b610b2a612077565b60005b82811015610b7657610b6685858584818110610b4b57610b4b613999565b9050602002016020810190610b6091906139af565b846120f2565b610b6f816139e2565b9050610b2d565b5050505050565b610b85612176565b610b8d6121a3565b610b988160646139fb565b60065550565b6001600160401b038116600090815260026020526040812060010154610bd390600160801b90046001600160701b03166121c6565b92915050565b610be1612077565b610beb82826121e5565b5050565b610bf7612077565b604051637a9e5e4b60e01b81526001600160a01b038281166004830152831690637a9e5e4b90602401600060405180830381600087803b158015610c3a57600080fd5b505af1158015610c4e573d6000803e3d6000fd5b505050505050565b6000338180610c67838888886122a1565b9150915081158015610c7d575063ffffffff8116155b15610cd0578287610c8e88886122f4565b6040516381c6f24b60e01b81526001600160a01b0393841660048201529290911660248301526001600160e01b03191660448201526064015b60405180910390fd5b6000610cde848989896117c7565b9050600063ffffffff8316151580610d055750610cfa82610fee565b65ffffffffffff1615155b15610d1657610d138261230c565b90505b600454610d698a610d278b8b6122f4565b604080516001600160a01b03939093166020808501919091526001600160e01b0319929092168382015280518084038201815260609093019052815191012090565b600481905550610db18a8a8a8080601f01602080910402602001604051908101604052809392919081815260200183838082843760009201919091525034925061240f915050565b506004559450505050505b9392505050565b610dcb612077565b610ddf8383610dd986610b9e565b846124ac565b50505050565b6000610def612176565b610df76121a3565b6001600160a01b038316610e1e57604051630560d24960e11b815260040160405180910390fd5b81600003610e3f5760405163783bc40960e01b815260040160405180910390fd5b60055461010090046001600160a01b0316610e6d5760405163066f53b160e01b815260040160405180910390fd5b600560019054906101000a90046001600160a01b03166001600160a01b031663313ce5676040518163ffffffff1660e01b8152600401602060405180830381865afa158015610ec0573d6000803e3d6000fd5b505050506040513d601f19601f82011682018060405250810190610ee49190613a0e565b610eef906002613a31565b610efa90600a613b2e565b821115610f1d57604051630164b7c960e61b815260048101839052602401610cc7565b610dbc60078484612718565b6001600160401b03821660009081526002602090815260408083206001600160a01b03851684529091528120805465ffffffffffff811692918291829190610f8390660100000000000090046001600160701b031661272e565b969991985096509350505050565b610f99612077565b610beb8282612751565b60006001600160a01b038216610fcc57604051630560d24960e11b815260040160405180910390fd5b610fd76007836127f3565b610fe357506000919050565b610bd3600783612808565b60008181526003602052604081205465ffffffffffff1661100e8161281d565b6110185780610dbc565b60009392505050565b611029612176565b61103161284c565b565b61103b612176565b60055461010090046001600160a01b03166110695760405163066f53b160e01b815260040160405180910390fd5b6005546040516322e458d360e11b81526001600160a01b038381166004830152610100909204909116906345c8b1a6906024015b600060405180830381600087803b1580156110b757600080fd5b505af1158015610b76573d6000803e3d6000fd5b6001600160a01b038116600090815260016020819052604082200154610bd3906001600160701b03166121c6565b611101612077565b610beb828261289e565b611113612176565b61111b6121a3565b60055461010090046001600160a01b03166111495760405163066f53b160e01b815260040160405180910390fd5b600554604051637a9e5e4b60e01b81526001600160a01b03838116600483015261010090920490911690637a9e5e4b90602401600060405180830381600087803b15801561119657600080fd5b505af11580156111aa573d6000803e3d6000fd5b50506005546040516370a0823160e01b81523060048201526101009091046001600160a01b0316925063a9059cbb9150839083906370a0823190602401602060405180830381865afa158015611204573d6000803e3d6000fd5b505050506040513d601f19601f820116820180604052508101906112289190613b3d565b6040516001600160e01b031960e085901b1681526001600160a01b03909216600483015260248201526044016020604051808303816000875af1158015611273573d6000803e3d6000fd5b505050506040513d601f19601f820116820180604052508101906112979190613b56565b6112c75760055460405163bbea11c960e01b81526101009091046001600160a01b03166004820152602401610cc7565b6000805b6112d56007612953565b8210156114135760006112e960078461295e565b506040516370a0823160e01b81523060048201529091506001600160a01b038216906370a0823190602401602060405180830381865afa158015611331573d6000803e3d6000fd5b505050506040513d601f19601f820116820180604052508101906113559190613b3d565b91506000821180156113d7575060405163a9059cbb60e01b81526001600160a01b0386811660048301526024820184905282169063a9059cbb906044016020604051808303816000875af11580156113b1573d6000803e3d6000fd5b505050506040513d601f19601f820116820180604052508101906113d59190613b56565b155b156114005760405163bbea11c960e01b81526001600160a01b0382166004820152602401610cc7565b508161140b816139e2565b9250506112cb565b836001600160a01b0316ff5b600061142a82611e87565b61143657506000919050565b6040516370a0823160e01b81523060048201526001600160a01b038316906370a0823190602401602060405180830381865afa15801561147a573d6000803e3d6000fd5b505050506040513d601f19601f82011682018060405250810190610bd39190613b3d565b6114a6612176565b611031600061297a565b6114b8612176565b6110316129d7565b6114c8612077565b6001600160401b03831615806114e657506001600160401b03838116145b1561150f5760405163061c6a4360e21b81526001600160401b0384166004820152602401610cc7565b826001600160401b03167f1256f5b5ecb89caec12db449738f2fbcd1ba5806cf38f35413f4e5c15bf6a450838360405161154a929190613b9c565b60405180910390a2505050565b600060646006546115689190613bb0565b905090565b611575612176565b60055461010090046001600160a01b03166115a35760405163066f53b160e01b815260040160405180910390fd5b600554604051638d1fdf2f60e01b81526001600160a01b03838116600483015261010090920490911690638d1fdf2f9060240161109d565b60408051638fb3603760e01b80825291513392918391638fb36037916004808201926020929091908290030181865afa15801561161c573d6000803e3d6000fd5b505050506040513d601f19601f820116820180604052508101906116409190613bc3565b6001600160e01b0319161461167357604051630641fee960e31b81526001600160a01b0382166004820152602401610cc7565b610b76611682858386866117c7565b61230c565b61168f612077565b610beb8282612a14565b60006001600160a01b0383166116c257604051630560d24960e11b815260040160405180910390fd5b816000036116e357604051631208b21b60e01b815260040160405180910390fd5b60055461010090046001600160a01b03166117115760405163066f53b160e01b815260040160405180910390fd5b6000836001600160a01b031663313ce5676040518163ffffffff1660e01b8152600401602060405180830381865afa158015611751573d6000803e3d6000fd5b505050506040513d601f19601f820116820180604052508101906117759190613a0e565b611780906002613a31565b60ff169050600061179085610fa3565b905061179d82600a613be0565b6006546117aa8684613bec565b6117b49190613bec565b6117be9190613c03565b95945050505050565b6000848484846040516020016117e09493929190613c25565b604051602081830303815290604052805190602001209050949350505050565b604080516000815260208101909152606090826001600160401b0381111561182a5761182a613c7c565b60405190808252806020026020018201604052801561185d57816020015b60608152602001906001900390816118485790505b50915060005b838110156118ea576118ba3086868481811061188157611881613999565b90506020028101906118939190613c92565b856040516020016118a693929190613cd8565b604051602081830303815290604052612b33565b8382815181106118cc576118cc613999565b602002602001018190525080806118e2906139e2565b915050611863565b505092915050565b6000806119076000546001600160a01b031690565b6001600160a01b0316856001600160a01b03160361192b5750600190506000611941565b6000611938600087611bf1565b50925060009150505b935093915050565b611951612077565b61195b8282612ba0565b505050565b611968612176565b6119706121a3565b6040516370a0823160e01b81523060048201526001600160a01b0383169063a9059cbb90839083906370a0823190602401602060405180830381865afa1580156119be573d6000803e3d6000fd5b505050506040513d601f19601f820116820180604052508101906119e29190613b3d565b6040516001600160e01b031960e085901b1681526001600160a01b03909216600483015260248201526044016020604051808303816000875af1158015611a2d573d6000803e3d6000fd5b505050506040513d601f19601f82011682018060405250810190611a519190613b56565b610beb57604051635d3f476b60e01b81526001600160a01b0383166004820152602401610cc7565b6000611a83612c9a565b6000611a8f8484611699565b6040516323b872dd60e01b8152336004820152306024820152604481018590529091506001600160a01b038516906323b872dd906064016020604051808303816000875af1158015611ae5573d6000803e3d6000fd5b505050506040513d601f19601f82011682018060405250810190611b099190613b56565b611b17576000915050610bd3565b60055460405163a9059cbb60e01b81523360048201526024810183905260009161010090046001600160a01b03169063a9059cbb906044016020604051808303816000875af1158015611b6e573d6000803e3d6000fd5b505050506040513d601f19601f82011682018060405250810190611b929190613b56565b90508015611be95783856001600160a01b0316336001600160a01b03167f314898f27b62de59a1d7326707c74b7991036f43ed22658d064228c032e76fda85604051611be091815260200190565b60405180910390a45b949350505050565b60008067fffffffffffffffe196001600160401b03851601611c195750600190506000611c67565b600080611c268686610f29565b5050915091508165ffffffffffff16600014158015611c5c5750611c48612cbe565b65ffffffffffff168265ffffffffffff1611155b93509150611c679050565b9250929050565b611c76612077565b610beb8282612cc9565b60003381611c8e85856122f4565b90506000611c9e888888886117c7565b60008181526003602052604081205491925065ffffffffffff9091169003611cdc5760405163060a299b60e41b815260048101829052602401610cc7565b826001600160a01b0316886001600160a01b031614611dac576000611d02600085611bf1565b506001600160a01b03891660009081526001602090815260408083206001600160e01b03198816845290915281205491925090611d5190611d4b906001600160401b0316610381565b86611bf1565b50905081158015611d60575080155b15611da957604051630ff89d4760e21b81526001600160a01b038087166004830152808c1660248301528a1660448201526001600160e01b031985166064820152608401610cc7565b50505b600081815260036020526040808220805465ffffffffffff1916908190559051660100000000000090910463ffffffff1691829184917fbd9ac67a6e2f6463b80927326310338bcbb4bdb7936ce1365ea3e01067e7b9f791a398975050505050505050565b611e19612176565b611e216121a3565b6001600160a01b038116611e485760405163066f53b160e01b815260040160405180910390fd5b600580546001600160a01b03909216610100027fffffffffffffffffffffff0000000000000000000000000000000000000000ff909216919091179055565b6000611e91612c9a565b6001600160a01b038216611eb857604051630560d24960e11b815260040160405180910390fd5b610bd36007836127f3565b919050565b611ed0612176565b6001600160a01b038116611efa57604051631e4fbdf760e01b815260006004820152602401610cc7565b611f038161297a565b50565b6000803381611f17828989896122a1565b91505060008163ffffffff16611f2b612cbe565b611f359190613cff565b905063ffffffff82161580611f6c575060008665ffffffffffff16118015611f6c57508065ffffffffffff168665ffffffffffff16105b15611f7d578289610c8e8a8a6122f4565b611f978665ffffffffffff168265ffffffffffff16612d88565b9550611fa5838a8a8a6117c7565b9450611fb085612d9e565b60008581526003602052604090819020805465ffffffffffff891669ffffffffffffffffffff1982161766010000000000009182900463ffffffff90811660010190811692830291909117909255915190955086907f82a2da5dee54ea8021c6545b4444620291e07ee83be6dd57edb175062715f3b49061203a908a9088908f908f908f90613d25565b60405180910390a350505094509492505050565b6001600160a01b038116331461195157604051635f159e6360e01b815260040160405180910390fd5b33600080612086838236612deb565b915091508161195b578063ffffffff166000036120e25760006120a98136612eef565b5060405163f07e038f60e01b81526001600160a01b03871660048201526001600160401b03821660248201529092506044019050610cc7565b610ddf61168284306000366117c7565b6001600160a01b03831660008181526001602090815260408083206001600160e01b0319871680855290835292819020805467ffffffffffffffff19166001600160401b038716908117909155905192835292917f9ea6790c7dadfd01c9f8b9762b3682607af2c7e79e05a9f9fdf5580dde949151910160405180910390a3505050565b6000546001600160a01b031633146110315760405163118cdaa760e01b8152336004820152602401610cc7565b60055460ff1661103157604051638dfc202b60e01b815260040160405180910390fd5b6000806121db836001600160701b031661272e565b5090949350505050565b306001600160a01b0383160361221957604051630b40d17960e31b81526001600160a01b0383166004820152602401610cc7565b6001600160a01b0382166000818152600160208190526040918290200180548415156e010000000000000000000000000000026eff000000000000000000000000000019909116179055517f90d4e7bb7e5d933792b3562e1741306f8be94837e1348dacef9b6f1df56eb1389061229590841515815260200190565b60405180910390a25050565b600080306001600160a01b038616036122c8576122bf868585612deb565b915091506122eb565b600483106122e4576122df868661097187876122f4565b6122bf565b5060009050805b94509492505050565b60006123036004828486613c52565b610dbc91613d6b565b60008181526003602052604081205465ffffffffffff8116906601000000000000900463ffffffff168183036123585760405163060a299b60e41b815260048101859052602401610cc7565b612360612cbe565b65ffffffffffff168265ffffffffffff16111561239357604051630c65b5bd60e11b815260048101859052602401610cc7565b61239c8261281d565b156123bd57604051631e2975b960e21b815260048101859052602401610cc7565b600084815260036020526040808220805465ffffffffffff191690555163ffffffff83169186917f76a2a46953689d4861a5d3f6ed883ad7e6af674a21f8e162707159fc9dde614d9190a39392505050565b6060814710156124345760405163cd78605960e01b8152306004820152602401610cc7565b600080856001600160a01b031684866040516124509190613d99565b60006040518083038185875af1925050503d806000811461248d576040519150601f19603f3d011682016040523d82523d6000602084013e612492565b606091505b50915091506124a28683836130d7565b9695505050505050565b600067fffffffffffffffe196001600160401b038616016124eb5760405163061c6a4360e21b81526001600160401b0386166004820152602401610cc7565b6001600160401b03851660009081526002602090815260408083206001600160a01b038816845290915281205465ffffffffffff16159081156125ed578463ffffffff16612537612cbe565b6125419190613cff565b905060405180604001604052808265ffffffffffff16815260200161256f8663ffffffff1663ffffffff1690565b6001600160701b039081169091526001600160401b03891660009081526002602090815260408083206001600160a01b038c168452825290912083518154949092015190921666010000000000000273ffffffffffffffffffffffffffffffffffffffff1990931665ffffffffffff909116179190911790556126aa565b6001600160401b03871660009081526002602090815260408083206001600160a01b038a16845290915281205461263a9166010000000000009091046001600160701b0316908690613133565b6001600160401b03891660009081526002602090815260408083206001600160a01b038c168452909152902080546001600160701b039093166601000000000000027fffffffffffffffffffffffff0000000000000000000000000000ffffffffffff9093169290921790915590505b6040805163ffffffff8616815265ffffffffffff831660208201528315158183015290516001600160a01b038816916001600160401b038a16917ff98448b987f1428e0e230e1f3c6e2ce15b5693eaf31827fbd0b1ec4b424ae7cf9181900360600190a35095945050505050565b6000611be9846001600160a01b038516846131dd565b60008060006127448461273f612cbe565b6131fa565b9250925092509193909250565b6001600160401b038216158061276f57506001600160401b03828116145b156127985760405163061c6a4360e21b81526001600160401b0383166004820152602401610cc7565b6001600160401b03828116600081815260026020526040808220600101805467ffffffffffffffff19169486169485179055517f1fd6dd7631312dfac2205b52913f99de03b4d7e381d5d27d3dbfe0713e6e63409190a35050565b6000610dbc836001600160a01b03841661324e565b6000610dbc836001600160a01b03841661325a565b6000612827612cbe565b65ffffffffffff1661283c62093a8084613cff565b65ffffffffffff16111592915050565b6128546121a3565b6005805460ff191690557f5db9ee0a495bf2e6ff9c91a7834c1ba4fdd244a5e8aa4e537bd38aeae4b073aa335b6040516001600160a01b03909116815260200160405180910390a1565b6001600160401b03821615806128bc57506001600160401b03828116145b156128e55760405163061c6a4360e21b81526001600160401b0383166004820152602401610cc7565b6001600160401b0382811660008181526002602052604080822060010180546fffffffffffffffff0000000000000000191668010000000000000000958716958602179055517f7a8059630b897b5de4c08ade69f8b90c3ead1f8596d62d10b6c4d14a0afb4ae29190a35050565b6000610bd3826132a1565b600080808061296d86866132ac565b9097909650945050505050565b600080546001600160a01b0383811673ffffffffffffffffffffffffffffffffffffffff19831681178455604051919092169283917f8be0079c531659141344cd1fd0a4f28419497f9722a3daafe3b4186f6b6457e09190a35050565b6129df612c9a565b6005805460ff191660011790557f62e78cea01bee320cd4e420270b5ea74000d11b0c9f74754ebdbfc544b05a2586128813390565b67fffffffffffffffe196001600160401b03831601612a515760405163061c6a4360e21b81526001600160401b0383166004820152602401610cc7565b6001600160401b038216600090815260026020526040812060010154612a8b90600160801b90046001600160701b03168362069780613133565b6001600160401b0385166000818152600260205260409081902060010180546001600160701b03909516600160801b027fffff0000000000000000000000000000ffffffffffffffffffffffffffffffff9095169490941790935591519092507ffeb69018ee8b8fd50ea86348f1267d07673379f72cffdeccec63853ee8ce8b489061154a908590859063ffffffff92909216825265ffffffffffff16602082015260400190565b6060600080846001600160a01b031684604051612b509190613d99565b600060405180830381855af49150503d8060008114612b8b576040519150601f19603f3d011682016040523d82523d6000602084013e612b90565b606091505b50915091506117be8583836130d7565b600067fffffffffffffffe196001600160401b03841601612bdf5760405163061c6a4360e21b81526001600160401b0384166004820152602401610cc7565b6001600160401b03831660009081526002602090815260408083206001600160a01b038616845290915281205465ffffffffffff169003612c2257506000610bd3565b6001600160401b03831660008181526002602090815260408083206001600160a01b0387168085529252808320805473ffffffffffffffffffffffffffffffffffffffff19169055519092917ff229baa593af28c41b1d16b748cd7688f0c83aaf92d4be41c44005defe84c16691a350600192915050565b60055460ff16156110315760405163d93c066560e01b815260040160405180910390fd5b6000611568426132d7565b6001600160a01b038216600090815260016020819052604082200154612cfc906001600160701b03168362069780613133565b6001600160a01b03851660008181526001602081815260409283902090910180546dffffffffffffffffffffffffffff19166001600160701b039690961695909517909455805163ffffffff8716815265ffffffffffff841694810194909452919350917fa56b76017453f399ec2327ba00375dbfb1fd070ff854341ad6191e6a2e2de19c910161154a565b6000818311612d975781610dbc565b5090919050565b60008181526003602052604090205465ffffffffffff168015801590612dca5750612dc88161281d565b155b15610beb5760405163813e945960e01b815260048101839052602401610cc7565b6000806004831015612e0257506000905080611941565b306001600160a01b03861603612e7157612e6630612e2086866122f4565b604080516001600160a01b03939093166020808501919091526001600160e01b031992909216838201528051808403820181526060909301905281519101206004541490565b600091509150611941565b6000806000612e808787612eef565b92509250925082612e9a5760008094509450505050611941565b600080612ea7848b611bf1565b9150915081612ec157600080965096505050505050611941565b612ed78363ffffffff168263ffffffff16612d88565b63ffffffff8116159b909a5098505050505050505050565b600080806004841015612f0a575060009150819050806130d0565b6000612f1686866122f4565b90506001600160e01b031981166310a6aa3760e31b1480612f4757506001600160e01b031981166330cae18760e01b145b80612f6257506001600160e01b0319811663294b14a960e11b145b80612f7d57506001600160e01b03198116635326cae760e11b145b80612f9857506001600160e01b0319811663d22b598960e01b145b15612fae576001600080935093509350506130d0565b6001600160e01b0319811663063fc60f60e21b1480612fdd57506001600160e01b0319811663167bd39560e01b145b80612ff857506001600160e01b031981166308d6122d60e01b145b1561303a57600061300d60246004888a613c52565b81019061301a91906136d2565b90506000613027826110cb565b600196506000955093506130d092505050565b6001600160e01b0319811663012e238d60e51b148061306957506001600160e01b03198116635be958b160e11b145b156130c357600061307e60246004888a613c52565b81019061308b91906134c0565b905060016130b4826001600160401b039081166000908152600260205260409020600101541690565b600094509450945050506130d0565b6000806000935093509350505b9250925092565b6060826130ec576130e78261330e565b610dbc565b815115801561310357506001600160a01b0384163b155b1561312c57604051639996b31560e01b81526001600160a01b0385166004820152602401610cc7565b5080610dbc565b600080600061314a866001600160701b03166121c6565b905060006131878563ffffffff168763ffffffff168463ffffffff161161317257600061317c565b61317c8885613db5565b63ffffffff16612d88565b90508063ffffffff16613198612cbe565b6131a29190613cff565b925063ffffffff8616602083901b67ffffffff0000000016604085901b6dffffffffffff000000000000000016171793505050935093915050565b60008281526002840160205260408120829055611be98484613337565b6000808069ffffffffffffffffffff602086901c166001600160701b03861665ffffffffffff604088901c81169087168111156132395782828261323e565b816000805b9550955095505050509250925092565b6000610dbc8383613343565b600081815260028301602052604081205480158015613280575061327e848461324e565b155b15610dbc5760405163015ab34360e11b815260048101849052602401610cc7565b6000610bd38261335b565b600080806132ba8585613365565b600081815260029690960160205260409095205494959350505050565b600065ffffffffffff82111561330a576040516306dfcc6560e41b81526030600482015260248101839052604401610cc7565b5090565b80511561331e5780518082602001fd5b604051630a12f52160e11b815260040160405180910390fd5b6000610dbc8383613371565b60008181526001830160205260408120541515610dbc565b6000610bd3825490565b6000610dbc83836133c0565b60008181526001830160205260408120546133b857508154600181810184556000848152602080822090930184905584548482528286019093526040902091909155610bd3565b506000610bd3565b60008260000182815481106133d7576133d7613999565b9060005260206000200154905092915050565b6001600160a01b0381168114611f0357600080fd5b60008083601f84011261341157600080fd5b5081356001600160401b0381111561342857600080fd5b6020830191508360208260051b8501011115611c6757600080fd5b80356001600160401b0381168114611ec357600080fd5b6000806000806060858703121561347057600080fd5b843561347b816133ea565b935060208501356001600160401b0381111561349657600080fd5b6134a2878288016133ff565b90945092506134b5905060408601613443565b905092959194509250565b6000602082840312156134d257600080fd5b610dbc82613443565b6000602082840312156134ed57600080fd5b5035919050565b8015158114611f0357600080fd5b6000806040838503121561351557600080fd5b8235613520816133ea565b91506020830135613530816134f4565b809150509250929050565b6000806040838503121561354e57600080fd5b8235613559816133ea565b91506020830135613530816133ea565b60008083601f84011261357b57600080fd5b5081356001600160401b0381111561359257600080fd5b602083019150836020828501011115611c6757600080fd5b6000806000604084860312156135bf57600080fd5b83356135ca816133ea565b925060208401356001600160401b038111156135e557600080fd5b6135f186828701613569565b9497909650939450505050565b803563ffffffff81168114611ec357600080fd5b60008060006060848603121561362757600080fd5b61363084613443565b92506020840135613640816133ea565b915061364e604085016135fe565b90509250925092565b6000806040838503121561366a57600080fd5b8235613675816133ea565b946020939093013593505050565b6000806040838503121561369657600080fd5b61355983613443565b600080604083850312156136b257600080fd5b6136bb83613443565b91506136c960208401613443565b90509250929050565b6000602082840312156136e457600080fd5b8135610dbc816133ea565b6001600160e01b031981168114611f0357600080fd5b6000806040838503121561371857600080fd5b8235613723816133ea565b91506020830135613530816136ef565b60008060006040848603121561374857600080fd5b6135ca84613443565b6000806040838503121561376457600080fd5b61376d83613443565b91506136c9602084016135fe565b6000806000806060858703121561379157600080fd5b843561379c816133ea565b935060208501356137ac816133ea565b925060408501356001600160401b038111156137c757600080fd5b6137d387828801613569565b95989497509550505050565b600080602083850312156137f257600080fd5b82356001600160401b0381111561380857600080fd5b613814858286016133ff565b90969095509350505050565b60005b8381101561383b578181015183820152602001613823565b50506000910152565b6000602080830181845280855180835260408601915060408160051b870101925083870160005b828110156138b157878503603f1901845281518051808752613892818989018a8501613820565b601f01601f19169590950186019450928501929085019060010161386b565b5092979650505050505050565b6000806000606084860312156138d357600080fd5b83356138de816133ea565b925060208401356138ee816133ea565b915060408401356138fe816136ef565b809150509250925092565b6000806040838503121561391c57600080fd5b823561376d816133ea565b6000806000806060858703121561393d57600080fd5b8435613948816133ea565b935060208501356001600160401b0381111561396357600080fd5b61396f87828801613569565b909450925050604085013565ffffffffffff8116811461398e57600080fd5b939692955090935050565b634e487b7160e01b600052603260045260246000fd5b6000602082840312156139c157600080fd5b8135610dbc816136ef565b634e487b7160e01b600052601160045260246000fd5b6000600182016139f4576139f46139cc565b5060010190565b80820180821115610bd357610bd36139cc565b600060208284031215613a2057600080fd5b815160ff81168114610dbc57600080fd5b60ff8181168382160190811115610bd357610bd36139cc565b600181815b80851115613a85578160001904821115613a6b57613a6b6139cc565b80851615613a7857918102915b93841c9390800290613a4f565b509250929050565b600082613a9c57506001610bd3565b81613aa957506000610bd3565b8160018114613abf5760028114613ac957613ae5565b6001915050610bd3565b60ff841115613ada57613ada6139cc565b50506001821b610bd3565b5060208310610133831016604e8410600b8410161715613b08575081810a610bd3565b613b128383613a4a565b8060001904821115613b2657613b266139cc565b029392505050565b6000610dbc60ff841683613a8d565b600060208284031215613b4f57600080fd5b5051919050565b600060208284031215613b6857600080fd5b8151610dbc816134f4565b81835281816020850137506000828201602090810191909152601f909101601f19169091010190565b602081526000611be9602083018486613b73565b81810381811115610bd357610bd36139cc565b600060208284031215613bd557600080fd5b8151610dbc816136ef565b6000610dbc8383613a8d565b8082028115828204841417610bd357610bd36139cc565b600082613c2057634e487b7160e01b600052601260045260246000fd5b500490565b60006001600160a01b038087168352808616602084015250606060408301526124a2606083018486613b73565b60008085851115613c6257600080fd5b83861115613c6f57600080fd5b5050820193919092039150565b634e487b7160e01b600052604160045260246000fd5b6000808335601e19843603018112613ca957600080fd5b8301803591506001600160401b03821115613cc357600080fd5b602001915036819003821315611c6757600080fd5b828482376000838201600081528351613cf5818360208801613820565b0195945050505050565b65ffffffffffff818116838216019080821115613d1e57613d1e6139cc565b5092915050565b65ffffffffffff8616815260006001600160a01b03808716602084015280861660408401525060806060830152613d60608083018486613b73565b979650505050505050565b6001600160e01b031981358181169160048510156118ea5760049490940360031b84901b1690921692915050565b60008251613dab818460208701613820565b9190910192915050565b63ffffffff828116828216039080821115613d1e57613d1e6139cc56fea164736f6c6343000814000a",
  "linkReferences": {},
  "deployedLinkReferences": {}
}