{
  "_format": "hh-sol-artifact-1",
  "contractName": "CXBToken",
  "sourceName": "contracts/tokens/CXBToken.sol",
  "abi": [
    {
      "inputs": [
        {
          "internalType": "address",
          "name": "initialAuthority",
          "type": "address"
        },
        {
          "internalType": "uint256",
          "name": "premintAmount",
          "type": "uint256"
        }
      ],
      "stateMutability": "nonpayable",
      "type": "constructor"
    },
    {
      "inputs": [
        {
          "internalType": "address",
          "name": "authority",
          "type": "address"
        }
      ],
      "name": "AccessManagedInvalidAuthority",
      "type": "error"
    },
    {
      "inputs": [
        {
          "internalType": "address",
          "name": "caller",
          "type": "address"
        },
        {
          "internalType": "uint32",
          "name": "delay",
          "type": "uint32"
        }
      ],
      "name": "AccessManagedRequiredDelay",
      "type": "error"
    },
    {
      "inputs": [
        {
          "internalType": "address",
          "name": "caller",
          "type": "address"
        }
      ],
      "name": "AccessManagedUnauthorized",
      "type": "error"
    },
    {
      "inputs": [
        {
          "internalType": "address",
          "name": "account",
          "type": "address"
        }
      ],
      "name": "CXBTokenAddressFreezed",
      "type": "error"
    },
    {
      "inputs": [],
      "name": "ECDSAInvalidSignature",
      "type": "error"
    },
    {
      "inputs": [
        {
          "internalType": "uint256",
          "name": "length",
          "type": "uint256"
        }
      ],
      "name": "ECDSAInvalidSignatureLength",
      "type": "error"
    },
    {
      "inputs": [
        {
          "internalType": "bytes32",
          "name": "s",
          "type": "bytes32"
        }
      ],
      "name": "ECDSAInvalidSignatureS",
      "type": "error"
    },
    {
      "inputs": [
        {
          "internalType": "address",
          "name": "spender",
          "type": "address"
        },
        {
          "internalType": "uint256",
          "name": "allowance",
          "type": "uint256"
        },
        {
          "internalType": "uint256",
          "name": "needed",
          "type": "uint256"
        }
      ],
      "name": "ERC20InsufficientAllowance",
      "type": "error"
    },
    {
      "inputs": [
        {
          "internalType": "address",
          "name": "sender",
          "type": "address"
        },
        {
          "internalType": "uint256",
          "name": "balance",
          "type": "uint256"
        },
        {
          "internalType": "uint256",
          "name": "needed",
          "type": "uint256"
        }
      ],
      "name": "ERC20InsufficientBalance",
      "type": "error"
    },
    {
      "inputs": [
        {
          "internalType": "address",
          "name": "approver",
          "type": "address"
        }
      ],
      "name": "ERC20InvalidApprover",
      "type": "error"
    },
    {
      "inputs": [
        {
          "internalType": "address",
          "name": "receiver",
          "type": "address"
        }
      ],
      "name": "ERC20InvalidReceiver",
      "type": "error"
    },
    {
      "inputs": [
        {
          "internalType": "address",
          "name": "sender",
          "type": "address"
        }
      ],
      "name": "ERC20InvalidSender",
      "type": "error"
    },
    {
      "inputs": [
        {
          "internalType": "address",
          "name": "spender",
          "type": "address"
        }
      ],
      "name": "ERC20InvalidSpender",
      "type": "error"
    },
    {
      "inputs": [
        {
          "internalType": "uint256",
          "name": "deadline",
          "type": "uint256"
        }
      ],
      "name": "ERC2612ExpiredSignature",
      "type": "error"
    },
    {
      "inputs": [
        {
          "internalType": "address",
          "name": "signer",
          "type": "address"
        },
        {
          "internalType": "address",
          "name": "owner",
          "type": "address"
        }
      ],
      "name": "ERC2612InvalidSigner",
      "type": "error"
    },
    {
      "inputs": [
        {
          "internalType": "address",
          "name": "account",
          "type": "address"
        }
      ],
      "name": "EnforcedFreeze",
      "type": "error"
    },
    {
      "inputs": [],
      "name": "EnforcedPause",
      "type": "error"
    },
    {
      "inputs": [
        {
          "internalType": "address",
          "name": "account",
          "type": "address"
        }
      ],
      "name": "ExpectedFreeze",
      "type": "error"
    },
    {
      "inputs": [],
      "name": "ExpectedPause",
      "type": "error"
    },
    {
      "inputs": [
        {
          "internalType": "address",
          "name": "account",
          "type": "address"
        },
        {
          "internalType": "uint256",
          "name": "currentNonce",
          "type": "uint256"
        }
      ],
      "name": "InvalidAccountNonce",
      "type": "error"
    },
    {
      "inputs": [],
      "name": "InvalidShortString",
      "type": "error"
    },
    {
      "inputs": [
        {
          "internalType": "string",
          "name": "str",
          "type": "string"
        }
      ],
      "name": "StringTooLong",
      "type": "error"
    },
    {
      "anonymous": false,
      "inputs": [
        {
          "indexed": true,
          "internalType": "address",
          "name": "owner",
          "type": "address"
        },
        {
          "indexed": true,
          "internalType": "address",
          "name": "spender",
          "type": "address"
        },
        {
          "indexed": false,
          "internalType": "uint256",
          "name": "value",
          "type": "uint256"
        }
      ],
      "name": "Approval",
      "type": "event"
    },
    {
      "anonymous": false,
      "inputs": [
        {
          "indexed": false,
          "internalType": "address",
          "name": "authority",
          "type": "address"
        }
      ],
      "name": "AuthorityUpdated",
      "type": "event"
    },
    {
      "anonymous": false,
      "inputs": [],
      "name": "EIP712DomainChanged",
      "type": "event"
    },
    {
      "anonymous": false,
      "inputs": [
        {
          "indexed": true,
          "internalType": "address",
          "name": "account",
          "type": "address"
        }
      ],
      "name": "Freezed",
      "type": "event"
    },
    {
      "anonymous": false,
      "inputs": [
        {
          "indexed": false,
          "internalType": "address",
          "name": "account",
          "type": "address"
        }
      ],
      "name": "Paused",
      "type": "event"
    },
    {
      "anonymous": false,
      "inputs": [
        {
          "indexed": true,
          "internalType": "address",
          "name": "from",
          "type": "address"
        },
        {
          "indexed": true,
          "internalType": "address",
          "name": "to",
          "type": "address"
        },
        {
          "indexed": false,
          "internalType": "uint256",
          "name": "value",
          "type": "uint256"
        }
      ],
      "name": "Transfer",
      "type": "event"
    },
    {
      "anonymous": false,
      "inputs": [
        {
          "indexed": true,
          "internalType": "address",
          "name": "account",
          "type": "address"
        }
      ],
      "name": "Unfreezed",
      "type": "event"
    },
    {
      "anonymous": false,
      "inputs": [
        {
          "indexed": false,
          "internalType": "address",
          "name": "account",
          "type": "address"
        }
      ],
      "name": "Unpaused",
      "type": "event"
    },
    {
      "inputs": [],
      "name": "DOMAIN_SEPARATOR",
      "outputs": [
        {
          "internalType": "bytes32",
          "name": "",
          "type": "bytes32"
        }
      ],
      "stateMutability": "view",
      "type": "function"
    },
    {
      "inputs": [
        {
          "internalType": "address",
          "name": "owner",
          "type": "address"
        },
        {
          "internalType": "address",
          "name": "spender",
          "type": "address"
        }
      ],
      "name": "allowance",
      "outputs": [
        {
          "internalType": "uint256",
          "name": "",
          "type": "uint256"
        }
      ],
      "stateMutability": "view",
      "type": "function"
    },
    {
      "inputs": [
        {
          "internalType": "address",
          "name": "spender",
          "type": "address"
        },
        {
          "internalType": "uint256",
          "name": "value",
          "type": "uint256"
        }
      ],
      "name": "approve",
      "outputs": [
        {
          "internalType": "bool",
          "name": "",
          "type": "bool"
        }
      ],
      "stateMutability": "nonpayable",
      "type": "function"
    },
    {
      "inputs": [],
      "name": "authority",
      "outputs": [
        {
          "internalType": "address",
          "name": "",
          "type": "address"
        }
      ],
      "stateMutability": "view",
      "type": "function"
    },
    {
      "inputs": [
        {
          "internalType": "address",
          "name": "account",
          "type": "address"
        }
      ],
      "name": "balanceOf",
      "outputs": [
        {
          "internalType": "uint256",
          "name": "",
          "type": "uint256"
        }
      ],
      "stateMutability": "view",
      "type": "function"
    },
    {
      "inputs": [
        {
          "internalType": "uint256",
          "name": "value",
          "type": "uint256"
        }
      ],
      "name": "burn",
      "outputs": [],
      "stateMutability": "nonpayable",
      "type": "function"
    },
    {
      "inputs": [
        {
          "internalType": "address",
          "name": "account",
          "type": "address"
        },
        {
          "internalType": "uint256",
          "name": "value",
          "type": "uint256"
        }
      ],
      "name": "burnFrom",
      "outputs": [],
      "stateMutability": "nonpayable",
      "type": "function"
    },
    {
      "inputs": [],
      "name": "decimals",
      "outputs": [
        {
          "internalType": "uint8",
          "name": "",
          "type": "uint8"
        }
      ],
      "stateMutability": "view",
      "type": "function"
    },
    {
      "inputs": [],
      "name": "eip712Domain",
      "outputs": [
        {
          "internalType": "bytes1",
          "name": "fields",
          "type": "bytes1"
        },
        {
          "internalType": "string",
          "name": "name",
          "type": "string"
        },
        {
          "internalType": "string",
          "name": "version",
          "type": "string"
        },
        {
          "internalType": "uint256",
          "name": "chainId",
          "type": "uint256"
        },
        {
          "internalType": "address",
          "name": "verifyingContract",
          "type": "address"
        },
        {
          "internalType": "bytes32",
          "name": "salt",
          "type": "bytes32"
        },
        {
          "internalType": "uint256[]",
          "name": "extensions",
          "type": "uint256[]"
        }
      ],
      "stateMutability": "view",
      "type": "function"
    },
    {
      "inputs": [
        {
          "internalType": "address",
          "name": "target",
          "type": "address"
        }
      ],
      "name": "freeze",
      "outputs": [],
      "stateMutability": "nonpayable",
      "type": "function"
    },
    {
      "inputs": [
        {
          "internalType": "address",
          "name": "target",
          "type": "address"
        }
      ],
      "name": "freezed",
      "outputs": [
        {
          "internalType": "bool",
          "name": "",
          "type": "bool"
        }
      ],
      "stateMutability": "view",
      "type": "function"
    },
    {
      "inputs": [],
      "name": "isConsumingScheduledOp",
      "outputs": [
        {
          "internalType": "bytes4",
          "name": "",
          "type": "bytes4"
        }
      ],
      "stateMutability": "view",
      "type": "function"
    },
    {
      "inputs": [
        {
          "internalType": "address",
          "name": "to",
          "type": "address"
        },
        {
          "internalType": "uint256",
          "name": "amount",
          "type": "uint256"
        }
      ],
      "name": "mint",
      "outputs": [],
      "stateMutability": "nonpayable",
      "type": "function"
    },
    {
      "inputs": [],
      "name": "name",
      "outputs": [
        {
          "internalType": "string",
          "name": "",
          "type": "string"
        }
      ],
      "stateMutability": "view",
      "type": "function"
    },
    {
      "inputs": [
        {
          "internalType": "address",
          "name": "owner",
          "type": "address"
        }
      ],
      "name": "nonces",
      "outputs": [
        {
          "internalType": "uint256",
          "name": "",
          "type": "uint256"
        }
      ],
      "stateMutability": "view",
      "type": "function"
    },
    {
      "inputs": [],
      "name": "pause",
      "outputs": [],
      "stateMutability": "nonpayable",
      "type": "function"
    },
    {
      "inputs": [],
      "name": "paused",
      "outputs": [
        {
          "internalType": "bool",
          "name": "",
          "type": "bool"
        }
      ],
      "stateMutability": "view",
      "type": "function"
    },
    {
      "inputs": [
        {
          "internalType": "address",
          "name": "owner",
          "type": "address"
        },
        {
          "internalType": "address",
          "name": "spender",
          "type": "address"
        },
        {
          "internalType": "uint256",
          "name": "value",
          "type": "uint256"
        },
        {
          "internalType": "uint256",
          "name": "deadline",
          "type": "uint256"
        },
        {
          "internalType": "uint8",
          "name": "v",
          "type": "uint8"
        },
        {
          "internalType": "bytes32",
          "name": "r",
          "type": "bytes32"
        },
        {
          "internalType": "bytes32",
          "name": "s",
          "type": "bytes32"
        }
      ],
      "name": "permit",
      "outputs": [],
      "stateMutability": "nonpayable",
      "type": "function"
    },
    {
      "inputs": [
        {
          "internalType": "address",
          "name": "newAuthority",
          "type": "address"
        }
      ],
      "name": "setAuthority",
      "outputs": [],
      "stateMutability": "nonpayable",
      "type": "function"
    },
    {
      "inputs": [],
      "name": "symbol",
      "outputs": [
        {
          "internalType": "string",
          "name": "",
          "type": "string"
        }
      ],
      "stateMutability": "view",
      "type": "function"
    },
    {
      "inputs": [],
      "name": "totalSupply",
      "outputs": [
        {
          "internalType": "uint256",
          "name": "",
          "type": "uint256"
        }
      ],
      "stateMutability": "view",
      "type": "function"
    },
    {
      "inputs": [
        {
          "internalType": "address",
          "name": "to",
          "type": "address"
        },
        {
          "internalType": "uint256",
          "name": "value",
          "type": "uint256"
        }
      ],
      "name": "transfer",
      "outputs": [
        {
          "internalType": "bool",
          "name": "",
          "type": "bool"
        }
      ],
      "stateMutability": "nonpayable",
      "type": "function"
    },
    {
      "inputs": [
        {
          "internalType": "address",
          "name": "from",
          "type": "address"
        },
        {
          "internalType": "address",
          "name": "to",
          "type": "address"
        },
        {
          "internalType": "uint256",
          "name": "value",
          "type": "uint256"
        }
      ],
      "name": "transferFrom",
      "outputs": [
        {
          "internalType": "bool",
          "name": "",
          "type": "bool"
        }
      ],
      "stateMutability": "nonpayable",
      "type": "function"
    },
    {
      "inputs": [
        {
          "internalType": "address",
          "name": "target",
          "type": "address"
        }
      ],
      "name": "unfreeze",
      "outputs": [],
      "stateMutability": "nonpayable",
      "type": "function"
    },
    {
      "inputs": [],
      "name": "unpause",
      "outputs": [],
      "stateMutability": "nonpayable",
      "type": "function"
    }
  ],
  "bytecode": "0x6101606040523480156200001257600080fd5b50604051620021bf380380620021bf8339810160408190526200003591620004f8565b6040518060400160405280600881526020016721ac212a37b5b2b760c11b81525080604051806040016040528060018152602001603160f81b815250846040518060400160405280600881526020016721ac212a37b5b2b760c11b8152506040518060400160405280600481526020016310d6109560e21b8152508160039081620000c19190620005d8565b506004620000d08282620005d8565b50506005805460ff1916905550620000e881620001cc565b50620000f682600662000228565b610120526200010781600762000228565b61014052815160208084019190912060e052815190820120610100524660a0526200019560e05161010051604080517f8b73c3c69bb8fe3d512ecc4cf759cc79239f7b179b0ffacaa9a75d522b39400f60208201529081019290925260608201524660808201523060a082015260009060c00160405160208183030381529060405280519060200120905090565b60805250503060c05250620001c482620001b26012600a620007b7565b620001be9084620007cf565b62000261565b505062000874565b60058054610100600160a81b0319166101006001600160a01b038416908102919091179091556040519081527f2f658b440c35314f52658ea8a740e05b284cdc84dc9ae01e891f21b8933e7cad9060200160405180910390a150565b600060208351101562000248576200024083620002a3565b90506200025b565b81620002558482620005d8565b5060ff90505b92915050565b6001600160a01b038216620002915760405163ec442f0560e01b8152600060048201526024015b60405180910390fd5b6200029f60008383620002e6565b5050565b600080829050601f81511115620002d1578260405163305a27a960e01b8152600401620002889190620007e9565b8051620002de8262000839565b179392505050565b620002f06200031c565b81620002fc8162000343565b83620003088162000343565b620003158585856200037c565b5050505050565b60055460ff1615620003415760405163d93c066560e01b815260040160405180910390fd5b565b6200034e8162000398565b156200037957604051638e8697df60e01b81526001600160a01b038216600482015260240162000288565b50565b620003866200031c565b62000393838383620003c5565b505050565b6001600160981b03600882901c16600090815260096020526040812054600160ff84161b1615156200025b565b6001600160a01b038316620003f4578060026000828254620003e891906200085e565b90915550620004689050565b6001600160a01b03831660009081526020819052604090205481811015620004495760405163391434e360e21b81526001600160a01b0385166004820152602481018290526044810183905260640162000288565b6001600160a01b03841660009081526020819052604090209082900390555b6001600160a01b0382166200048657600280548290039055620004a5565b6001600160a01b03821660009081526020819052604090208054820190555b816001600160a01b0316836001600160a01b03167fddf252ad1be2c89b69c2b068fc378daa952ba7f163c4a11628f55a4df523b3ef83604051620004eb91815260200190565b60405180910390a3505050565b600080604083850312156200050c57600080fd5b82516001600160a01b03811681146200052457600080fd5b6020939093015192949293505050565b634e487b7160e01b600052604160045260246000fd5b600181811c908216806200055f57607f821691505b6020821081036200058057634e487b7160e01b600052602260045260246000fd5b50919050565b601f8211156200039357600081815260208120601f850160051c81016020861015620005af5750805b601f850160051c820191505b81811015620005d057828155600101620005bb565b505050505050565b81516001600160401b03811115620005f457620005f462000534565b6200060c816200060584546200054a565b8462000586565b602080601f8311600181146200064457600084156200062b5750858301515b600019600386901b1c1916600185901b178555620005d0565b600085815260208120601f198616915b82811015620006755788860151825594840194600190910190840162000654565b5085821015620006945787850151600019600388901b60f8161c191681555b5050505050600190811b01905550565b634e487b7160e01b600052601160045260246000fd5b600181815b80851115620006fb578160001904821115620006df57620006df620006a4565b80851615620006ed57918102915b93841c9390800290620006bf565b509250929050565b60008262000714575060016200025b565b8162000723575060006200025b565b81600181146200073c5760028114620007475762000767565b60019150506200025b565b60ff8411156200075b576200075b620006a4565b50506001821b6200025b565b5060208310610133831016604e8410600b84101617156200078c575081810a6200025b565b620007988383620006ba565b8060001904821115620007af57620007af620006a4565b029392505050565b6000620007c860ff84168362000703565b9392505050565b80820281158282048414176200025b576200025b620006a4565b600060208083528351808285015260005b818110156200081857858101830151858201604001528201620007fa565b506000604082860101526040601f19601f8301168501019250505092915050565b80516020808301519190811015620005805760001960209190910360031b1b16919050565b808201808211156200025b576200025b620006a4565b60805160a05160c05160e0516101005161012051610140516118f0620008cf6000396000610dbd01526000610d9001526000610a3d01526000610a15015260006109700152600061099a015260006109c401526118f06000f3fe608060405234801561001057600080fd5b50600436106101a35760003560e01c806370a08231116100ee5780638d1fdf2f11610097578063a9059cbb11610071578063a9059cbb14610347578063bf7e214f1461035a578063d505accf14610383578063dd62ed3e1461039657600080fd5b80638d1fdf2f1461030b5780638fb360371461031e57806395d89b411461033f57600080fd5b80637ecebe00116100c85780637ecebe00146102d55780638456cb59146102e857806384b0196e146102f057600080fd5b806370a082311461028657806379cc6790146102af5780637a9e5e4b146102c257600080fd5b80633f4ba83a1161015057806342966c681161012a57806342966c681461025557806345c8b1a6146102685780635c975abb1461027b57600080fd5b80633f4ba83a14610225578063406f11f51461022f57806340c10f191461024257600080fd5b806323b872dd1161018157806323b872dd146101fb578063313ce5671461020e5780633644e5151461021d57600080fd5b806306fdde03146101a8578063095ea7b3146101c657806318160ddd146101e9575b600080fd5b6101b06103cf565b6040516101bd9190611548565b60405180910390f35b6101d96101d436600461157e565b610461565b60405190151581526020016101bd565b6002545b6040519081526020016101bd565b6101d96102093660046115a8565b61047b565b604051601281526020016101bd565b6101ed6104bd565b61022d6104cc565b005b6101d961023d3660046115e4565b6104e3565b61022d61025036600461157e565b61051b565b61022d6102633660046115ff565b61053d565b61022d6102763660046115e4565b61054a565b60055460ff166101d9565b6101ed6102943660046115e4565b6001600160a01b031660009081526020819052604090205490565b61022d6102bd36600461157e565b61055c565b61022d6102d03660046115e4565b610575565b6101ed6102e33660046115e4565b6105f5565b61022d610613565b6102f8610624565b6040516101bd9796959493929190611618565b61022d6103193660046115e4565b61066a565b61032661067c565b6040516001600160e01b031990911681526020016101bd565b6101b06106a2565b6101d961035536600461157e565b6106b1565b60055461010090046001600160a01b03166040516001600160a01b0390911681526020016101bd565b61022d6103913660046116ae565b6106e9565b6101ed6103a4366004611721565b6001600160a01b03918216600090815260016020908152604080832093909416825291909152205490565b6060600380546103de90611754565b80601f016020809104026020016040519081016040528092919081815260200182805461040a90611754565b80156104575780601f1061042c57610100808354040283529160200191610457565b820191906000526020600020905b81548152906001019060200180831161043a57829003601f168201915b5050505050905090565b60003361046f818585610823565b60019150505b92915050565b6000610485610830565b8261048f81610854565b8461049981610854565b336104a5878287610886565b6104b0878787610904565b5060019695505050505050565b60006104c7610963565b905090565b6104d9335b600036610a8e565b6104e1610ba8565b565b72ffffffffffffffffffffffffffffffffffffff600882901c16600090815260096020526040812054600160ff84161b161515610475565b610524336104d1565b8161052e81610854565b6105388383610bfa565b505050565b6105473382610c30565b50565b610553336104d1565b61054781610c66565b610567823383610886565b6105718282610c30565b5050565b600554339061010090046001600160a01b031681146105b65760405162d1953b60e31b81526001600160a01b03821660048201526024015b60405180910390fd5b816001600160a01b03163b6000036105ec576040516361798f2f60e11b81526001600160a01b03831660048201526024016105ad565b61057182610cd9565b6001600160a01b038116600090815260086020526040812054610475565b61061c336104d1565b6104e1610d4c565b600060608060008060006060610638610d89565b610640610db6565b60408051600080825260208201909252600f60f81b9b939a50919850469750309650945092509050565b610673336104d1565b61054781610de3565b600554600090600160a81b900460ff166106965750600090565b50638fb3603760e01b90565b6060600480546103de90611754565b60006106bb610830565b826106c581610854565b336106cf81610854565b336106db818787610904565b60019350505b505092915050565b8342111561070d5760405163313c898160e11b8152600481018590526024016105ad565b60007f6e71edae12b1b97f4d1f60370fef10105fa2faae0126114a169c64845d6126c988888861075a8c6001600160a01b0316600090815260086020526040902080546001810190915590565b6040805160208101969096526001600160a01b0394851690860152929091166060840152608083015260a082015260c0810186905260e00160405160208183030381529060405280519060200120905060006107b582610e55565b905060006107c582878787610e82565b9050896001600160a01b0316816001600160a01b03161461080c576040516325c0072360e11b81526001600160a01b0380831660048301528b1660248201526044016105ad565b6108178a8a8a610823565b50505050505050505050565b6105388383836001610eb0565b60055460ff16156104e15760405163d93c066560e01b815260040160405180910390fd5b61085d816104e3565b1561054757604051638e8697df60e01b81526001600160a01b03821660048201526024016105ad565b6001600160a01b0383811660009081526001602090815260408083209386168352929052205460001981146108fe57818110156108ef57604051637dc7a0d960e11b81526001600160a01b038416600482015260248101829052604481018390526064016105ad565b6108fe84848484036000610eb0565b50505050565b6001600160a01b03831661092e57604051634b637e8f60e11b8152600060048201526024016105ad565b6001600160a01b0382166109585760405163ec442f0560e01b8152600060048201526024016105ad565b610538838383610f85565b6000306001600160a01b037f0000000000000000000000000000000000000000000000000000000000000000161480156109bc57507f000000000000000000000000000000000000000000000000000000000000000046145b156109e657507f000000000000000000000000000000000000000000000000000000000000000090565b6104c7604080517f8b73c3c69bb8fe3d512ecc4cf759cc79239f7b179b0ffacaa9a75d522b39400f60208201527f0000000000000000000000000000000000000000000000000000000000000000918101919091527f000000000000000000000000000000000000000000000000000000000000000060608201524660808201523060a082015260009060c00160405160208183030381529060405280519060200120905090565b600080610aca610aac6005546001600160a01b036101009091041690565b8630610abc60046000898b61178e565b610ac5916117b8565b610fac565b9150915081610ba15763ffffffff811615610b7e576005805460ff60a81b1916600160a81b179055610b0a6005546001600160a01b036101009091041690565b6001600160a01b03166394c7d7ee8686866040518463ffffffff1660e01b8152600401610b39939291906117e6565b600060405180830381600087803b158015610b5357600080fd5b505af1158015610b67573d6000803e3d6000fd5b50506005805460ff60a81b1916905550610ba19050565b60405162d1953b60e31b81526001600160a01b03861660048201526024016105ad565b5050505050565b610bb06110cd565b6005805460ff191690557f5db9ee0a495bf2e6ff9c91a7834c1ba4fdd244a5e8aa4e537bd38aeae4b073aa335b6040516001600160a01b03909116815260200160405180910390a1565b6001600160a01b038216610c245760405163ec442f0560e01b8152600060048201526024016105ad565b61057160008383610f85565b6001600160a01b038216610c5a57604051634b637e8f60e11b8152600060048201526024016105ad565b61057182600083610f85565b80610c70816110f0565b600882901c72ffffffffffffffffffffffffffffffffffffff166000908152600960205260408082208054600160ff87161b19169055516001600160a01b038416917f4d1fe3cc0f516ce2cfc5e83d52ee28af7f55376b18f58e7081c5fd25d8eeb1df91a25050565b600580547fffffffffffffffffffffff0000000000000000000000000000000000000000ff166101006001600160a01b038416908102919091179091556040519081527f2f658b440c35314f52658ea8a740e05b284cdc84dc9ae01e891f21b8933e7cad9060200160405180910390a150565b610d54610830565b6005805460ff191660011790557f62e78cea01bee320cd4e420270b5ea74000d11b0c9f74754ebdbfc544b05a258610bdd3390565b60606104c77f00000000000000000000000000000000000000000000000000000000000000006006611121565b60606104c77f00000000000000000000000000000000000000000000000000000000000000006007611121565b80610ded81610854565b600882901c72ffffffffffffffffffffffffffffffffffffff166000908152600960205260408082208054600160ff87161b179055516001600160a01b038416917f0de8364a528e5ca2869160b20c375fe85b4e98d24a9cb48b4dc49c5f76d05b2491a25050565b6000610475610e62610963565b8360405161190160f01b8152600281019290925260228201526042902090565b600080600080610e94888888886111cc565b925092509250610ea4828261129b565b50909695505050505050565b6001600160a01b038416610eda5760405163e602df0560e01b8152600060048201526024016105ad565b6001600160a01b038316610f0457604051634a1406b160e11b8152600060048201526024016105ad565b6001600160a01b03808516600090815260016020908152604080832093871683529290522082905580156108fe57826001600160a01b0316846001600160a01b03167f8c5be1e5ebec7d5bd14f71427d1e84f3dd0314c0f7b2291e5b200ac8c7c3b92584604051610f7791815260200190565b60405180910390a350505050565b610f8d610830565b81610f9781610854565b83610fa181610854565b610ba1858585611354565b6040516001600160a01b03848116602483015283811660448301526001600160e01b03198316606483015260009182918291829189169060840160408051601f198184030181529181526020820180517bffffffffffffffffffffffffffffffffffffffffffffffffffffffff1663b700961360e01b179052516110309190611825565b600060405180830381855afa9150503d806000811461106b576040519150601f19603f3d011682016040523d82523d6000602084013e611070565b606091505b509150915081156110c25760408151106110a257808060200190518101906110989190611851565b90945092506110c2565b60208151106110c257808060200190518101906110bf9190611891565b93505b505094509492505050565b60055460ff166104e157604051638dfc202b60e01b815260040160405180910390fd5b6110f9816104e3565b61054757604051630911d4c760e01b81526001600160a01b03821660048201526024016105ad565b606060ff831461113b5761113483611367565b9050610475565b81805461114790611754565b80601f016020809104026020016040519081016040528092919081815260200182805461117390611754565b80156111c05780601f10611195576101008083540402835291602001916111c0565b820191906000526020600020905b8154815290600101906020018083116111a357829003601f168201915b50505050509050610475565b600080807f7fffffffffffffffffffffffffffffff5d576e7357a4501ddfe92f46681b20a08411156112075750600091506003905082611291565b604080516000808252602082018084528a905260ff891692820192909252606081018790526080810186905260019060a0016020604051602081039080840390855afa15801561125b573d6000803e3d6000fd5b5050604051601f1901519150506001600160a01b03811661128757506000925060019150829050611291565b9250600091508190505b9450945094915050565b60008260038111156112af576112af6118ac565b036112b8575050565b60018260038111156112cc576112cc6118ac565b036112ea5760405163f645eedf60e01b815260040160405180910390fd5b60028260038111156112fe576112fe6118ac565b0361131f5760405163fce698f760e01b8152600481018290526024016105ad565b6003826003811115611333576113336118ac565b03610571576040516335e2f38360e21b8152600481018290526024016105ad565b61135c610830565b6105388383836113a6565b60606000611374836114d0565b604080516020808252818301909252919250600091906020820181803683375050509182525060208101929092525090565b6001600160a01b0383166113d15780600260008282546113c691906118c2565b909155506114439050565b6001600160a01b038316600090815260208190526040902054818110156114245760405163391434e360e21b81526001600160a01b038516600482015260248101829052604481018390526064016105ad565b6001600160a01b03841660009081526020819052604090209082900390555b6001600160a01b03821661145f5760028054829003905561147e565b6001600160a01b03821660009081526020819052604090208054820190555b816001600160a01b0316836001600160a01b03167fddf252ad1be2c89b69c2b068fc378daa952ba7f163c4a11628f55a4df523b3ef836040516114c391815260200190565b60405180910390a3505050565b600060ff8216601f81111561047557604051632cd44ac360e21b815260040160405180910390fd5b60005b838110156115135781810151838201526020016114fb565b50506000910152565b600081518084526115348160208601602086016114f8565b601f01601f19169290920160200192915050565b60208152600061155b602083018461151c565b9392505050565b80356001600160a01b038116811461157957600080fd5b919050565b6000806040838503121561159157600080fd5b61159a83611562565b946020939093013593505050565b6000806000606084860312156115bd57600080fd5b6115c684611562565b92506115d460208501611562565b9150604084013590509250925092565b6000602082840312156115f657600080fd5b61155b82611562565b60006020828403121561161157600080fd5b5035919050565b60ff60f81b881681526000602060e08184015261163860e084018a61151c565b838103604085015261164a818a61151c565b606085018990526001600160a01b038816608086015260a0850187905284810360c0860152855180825283870192509083019060005b8181101561169c57835183529284019291840191600101611680565b50909c9b505050505050505050505050565b600080600080600080600060e0888a0312156116c957600080fd5b6116d288611562565b96506116e060208901611562565b95506040880135945060608801359350608088013560ff8116811461170457600080fd5b9699959850939692959460a0840135945060c09093013592915050565b6000806040838503121561173457600080fd5b61173d83611562565b915061174b60208401611562565b90509250929050565b600181811c9082168061176857607f821691505b60208210810361178857634e487b7160e01b600052602260045260246000fd5b50919050565b6000808585111561179e57600080fd5b838611156117ab57600080fd5b5050820193919092039150565b6001600160e01b031981358181169160048510156106e15760049490940360031b84901b1690921692915050565b6001600160a01b038416815260406020820152816040820152818360608301376000818301606090810191909152601f909201601f1916010192915050565b600082516118378184602087016114f8565b9190910192915050565b8051801515811461157957600080fd5b6000806040838503121561186457600080fd5b61186d83611841565b9150602083015163ffffffff8116811461188657600080fd5b809150509250929050565b6000602082840312156118a357600080fd5b61155b82611841565b634e487b7160e01b600052602160045260246000fd5b8082018082111561047557634e487b7160e01b600052601160045260246000fdfea164736f6c6343000814000a",
  "linkReferences": {},
  "deployedLinkReferences": {}
}