{
  "_format": "hh-sol-artifact-1",
  "contractName": "CXBTokenVesting",
  "sourceName": "contracts/management/CXBTokenVesting.sol",
  "abi": [
    {
      "inputs": [
        {
          "internalType": "contract CXBToken",
          "name": "_token",
          "type": "address"
        },
        {
          "internalType": "address",
          "name": "initialAuthority",
          "type": "address"
        },
        {
          "internalType": "contract IAirdrop",
          "name": "_airdrop",
          "type": "address"
        }
      ],
      "stateMutability": "nonpayable",
      "type": "constructor"
    },
    {
      "inputs": [
        {
          "internalType": "address",
          "name": "authority",
          "type": "address"
        }
      ],
      "name": "AccessManagedInvalidAuthority",
      "type": "error"
    },
    {
      "inputs": [
        {
          "internalType": "address",
          "name": "caller",
          "type": "address"
        },
        {
          "internalType": "uint32",
          "name": "delay",
          "type": "uint32"
        }
      ],
      "name": "AccessManagedRequiredDelay",
      "type": "error"
    },
    {
      "inputs": [
        {
          "internalType": "address",
          "name": "caller",
          "type": "address"
        }
      ],
      "name": "AccessManagedUnauthorized",
      "type": "error"
    },
    {
      "inputs": [],
      "name": "EnforcedPause",
      "type": "error"
    },
    {
      "inputs": [
        {
          "internalType": "bytes32",
          "name": "key",
          "type": "bytes32"
        }
      ],
      "name": "EnumerableMapNonexistentKey",
      "type": "error"
    },
    {
      "inputs": [],
      "name": "ExpectedPause",
      "type": "error"
    },
    {
      "inputs": [],
      "name": "ReentrancyGuardReentrantCall",
      "type": "error"
    },
    {
      "inputs": [],
      "name": "VestingEmptyAirdrop",
      "type": "error"
    },
    {
      "inputs": [],
      "name": "VestingEmptyRedeem",
      "type": "error"
    },
    {
      "inputs": [],
      "name": "VestingEmptyToken",
      "type": "error"
    },
    {
      "inputs": [
        {
          "internalType": "bytes32",
          "name": "code",
          "type": "bytes32"
        },
        {
          "internalType": "uint16",
          "name": "amount",
          "type": "uint16"
        }
      ],
      "name": "VestingIncorrectAmount",
      "type": "error"
    },
    {
      "inputs": [
        {
          "internalType": "bytes32",
          "name": "code",
          "type": "bytes32"
        },
        {
          "internalType": "uint16",
          "name": "amount",
          "type": "uint16"
        }
      ],
      "name": "VestingIncorrectWeight",
      "type": "error"
    },
    {
      "inputs": [
        {
          "internalType": "bytes32",
          "name": "code",
          "type": "bytes32"
        }
      ],
      "name": "VestingKPIAlreadyDefined",
      "type": "error"
    },
    {
      "inputs": [
        {
          "internalType": "bytes32",
          "name": "code",
          "type": "bytes32"
        }
      ],
      "name": "VestingKPINotDefined",
      "type": "error"
    },
    {
      "inputs": [
        {
          "internalType": "address",
          "name": "account",
          "type": "address"
        }
      ],
      "name": "VestingUnauthorizedAccount",
      "type": "error"
    },
    {
      "anonymous": false,
      "inputs": [
        {
          "indexed": false,
          "internalType": "address",
          "name": "authority",
          "type": "address"
        }
      ],
      "name": "AuthorityUpdated",
      "type": "event"
    },
    {
      "anonymous": false,
      "inputs": [
        {
          "indexed": true,
          "internalType": "address",
          "name": "account",
          "type": "address"
        },
        {
          "indexed": false,
          "internalType": "uint256",
          "name": "amount",
          "type": "uint256"
        }
      ],
      "name": "Distribute",
      "type": "event"
    },
    {
      "anonymous": false,
      "inputs": [
        {
          "indexed": true,
          "internalType": "bytes32",
          "name": "code",
          "type": "bytes32"
        },
        {
          "indexed": true,
          "internalType": "uint256",
          "name": "time",
          "type": "uint256"
        },
        {
          "indexed": true,
          "internalType": "enum KPITimeStatus",
          "name": "timeStatus",
          "type": "uint8"
        },
        {
          "indexed": false,
          "internalType": "uint16",
          "name": "weight",
          "type": "uint16"
        }
      ],
      "name": "KPIAdded",
      "type": "event"
    },
    {
      "anonymous": false,
      "inputs": [
        {
          "indexed": true,
          "internalType": "bytes32",
          "name": "code",
          "type": "bytes32"
        },
        {
          "indexed": true,
          "internalType": "uint256",
          "name": "time",
          "type": "uint256"
        },
        {
          "indexed": true,
          "internalType": "enum KPITimeStatus",
          "name": "timeStatus",
          "type": "uint8"
        },
        {
          "indexed": false,
          "internalType": "uint16",
          "name": "weight",
          "type": "uint16"
        }
      ],
      "name": "KPIModified",
      "type": "event"
    },
    {
      "anonymous": false,
      "inputs": [
        {
          "indexed": true,
          "internalType": "bytes32",
          "name": "code",
          "type": "bytes32"
        }
      ],
      "name": "KPIRemoved",
      "type": "event"
    },
    {
      "anonymous": false,
      "inputs": [
        {
          "indexed": true,
          "internalType": "bytes32",
          "name": "code",
          "type": "bytes32"
        },
        {
          "indexed": false,
          "internalType": "uint16",
          "name": "amount",
          "type": "uint16"
        }
      ],
      "name": "KPIUpdated",
      "type": "event"
    },
    {
      "anonymous": false,
      "inputs": [
        {
          "indexed": false,
          "internalType": "address",
          "name": "account",
          "type": "address"
        }
      ],
      "name": "Paused",
      "type": "event"
    },
    {
      "anonymous": false,
      "inputs": [
        {
          "indexed": true,
          "internalType": "address",
          "name": "account",
          "type": "address"
        },
        {
          "indexed": false,
          "internalType": "uint256",
          "name": "amount",
          "type": "uint256"
        }
      ],
      "name": "Redeem",
      "type": "event"
    },
    {
      "anonymous": false,
      "inputs": [
        {
          "indexed": false,
          "internalType": "address",
          "name": "account",
          "type": "address"
        }
      ],
      "name": "Unpaused",
      "type": "event"
    },
    {
      "inputs": [
        {
          "internalType": "bytes32",
          "name": "_code",
          "type": "bytes32"
        },
        {
          "internalType": "uint256",
          "name": "_time",
          "type": "uint256"
        },
        {
          "internalType": "enum KPITimeStatus",
          "name": "_timeStatus",
          "type": "uint8"
        },
        {
          "internalType": "uint16",
          "name": "_weight",
          "type": "uint16"
        }
      ],
      "name": "addKPI",
      "outputs": [],
      "stateMutability": "nonpayable",
      "type": "function"
    },
    {
      "inputs": [],
      "name": "authority",
      "outputs": [
        {
          "internalType": "address",
          "name": "",
          "type": "address"
        }
      ],
      "stateMutability": "view",
      "type": "function"
    },
    {
      "inputs": [
        {
          "internalType": "address",
          "name": "_to",
          "type": "address"
        },
        {
          "internalType": "uint256",
          "name": "_amount",
          "type": "uint256"
        }
      ],
      "name": "distribute",
      "outputs": [],
      "stateMutability": "nonpayable",
      "type": "function"
    },
    {
      "inputs": [
        {
          "internalType": "address",
          "name": "_to",
          "type": "address"
        }
      ],
      "name": "distributed",
      "outputs": [
        {
          "internalType": "uint256",
          "name": "",
          "type": "uint256"
        }
      ],
      "stateMutability": "view",
      "type": "function"
    },
    {
      "inputs": [
        {
          "internalType": "bytes32",
          "name": "_code",
          "type": "bytes32"
        }
      ],
      "name": "getKPI",
      "outputs": [
        {
          "components": [
            {
              "internalType": "uint256",
              "name": "time",
              "type": "uint256"
            },
            {
              "internalType": "enum KPITimeStatus",
              "name": "timeStatus",
              "type": "uint8"
            },
            {
              "internalType": "uint16",
              "name": "current",
              "type": "uint16"
            },
            {
              "internalType": "uint16",
              "name": "weight",
              "type": "uint16"
            }
          ],
          "internalType": "struct KPI",
          "name": "",
          "type": "tuple"
        }
      ],
      "stateMutability": "view",
      "type": "function"
    },
    {
      "inputs": [
        {
          "internalType": "bytes32",
          "name": "_code",
          "type": "bytes32"
        },
        {
          "internalType": "uint16",
          "name": "_amount",
          "type": "uint16"
        }
      ],
      "name": "increaseKPI",
      "outputs": [],
      "stateMutability": "nonpayable",
      "type": "function"
    },
    {
      "inputs": [],
      "name": "isConsumingScheduledOp",
      "outputs": [
        {
          "internalType": "bytes4",
          "name": "",
          "type": "bytes4"
        }
      ],
      "stateMutability": "view",
      "type": "function"
    },
    {
      "inputs": [
        {
          "internalType": "bytes32",
          "name": "_code",
          "type": "bytes32"
        },
        {
          "internalType": "uint256",
          "name": "_time",
          "type": "uint256"
        },
        {
          "internalType": "enum KPITimeStatus",
          "name": "_timeStatus",
          "type": "uint8"
        },
        {
          "internalType": "uint16",
          "name": "_weight",
          "type": "uint16"
        }
      ],
      "name": "modifyKPI",
      "outputs": [],
      "stateMutability": "nonpayable",
      "type": "function"
    },
    {
      "inputs": [],
      "name": "paused",
      "outputs": [
        {
          "internalType": "bool",
          "name": "",
          "type": "bool"
        }
      ],
      "stateMutability": "view",
      "type": "function"
    },
    {
      "inputs": [
        {
          "internalType": "address",
          "name": "_to",
          "type": "address"
        }
      ],
      "name": "redeem",
      "outputs": [
        {
          "internalType": "uint256",
          "name": "",
          "type": "uint256"
        }
      ],
      "stateMutability": "nonpayable",
      "type": "function"
    },
    {
      "inputs": [
        {
          "internalType": "bytes32",
          "name": "_code",
          "type": "bytes32"
        }
      ],
      "name": "removeKPI",
      "outputs": [],
      "stateMutability": "nonpayable",
      "type": "function"
    },
    {
      "inputs": [
        {
          "internalType": "address",
          "name": "newAuthority",
          "type": "address"
        }
      ],
      "name": "setAuthority",
      "outputs": [],
      "stateMutability": "nonpayable",
      "type": "function"
    },
    {
      "inputs": [
        {
          "internalType": "address",
          "name": "_to",
          "type": "address"
        }
      ],
      "name": "unlocked",
      "outputs": [
        {
          "internalType": "uint256",
          "name": "",
          "type": "uint256"
        }
      ],
      "stateMutability": "view",
      "type": "function"
    },
    {
      "inputs": [
        {
          "internalType": "address",
          "name": "_airdrop",
          "type": "address"
        }
      ],
      "name": "updateAirdrop",
      "outputs": [],
      "stateMutability": "nonpayable",
      "type": "function"
    },
    {
      "inputs": [
        {
          "internalType": "bytes32",
          "name": "_code",
          "type": "bytes32"
        },
        {
          "internalType": "uint16",
          "name": "_amount",
          "type": "uint16"
        }
      ],
      "name": "updateKPI",
      "outputs": [],
      "stateMutability": "nonpayable",
      "type": "function"
    },
    {
      "inputs": [
        {
          "internalType": "address",
          "name": "_token",
          "type": "address"
        }
      ],
      "name": "updateToken",
      "outputs": [],
      "stateMutability": "nonpayable",
      "type": "function"
    }
  ],
  "bytecode": "0x60806040523480156200001157600080fd5b5060405162001bc038038062001bc0833981016040819052620000349162000163565b8183826001600160a01b0382166200005f57604051632bb8410160e11b815260040160405180910390fd5b6001600160a01b038116620000875760405163e0cb7ff560e01b815260040160405180910390fd5b600080546001600160a01b039384166001600160a01b0319918216178255600180549390941692169190911790915560028190556003819055600455620000ce81620000f6565b5050600160135550506014805460ff19169055600060028190556003819055600455620001b7565b601280546001600160a01b0319166001600160a01b0383169081179091556040519081527f2f658b440c35314f52658ea8a740e05b284cdc84dc9ae01e891f21b8933e7cad9060200160405180910390a150565b6001600160a01b03811681146200016057600080fd5b50565b6000806000606084860312156200017957600080fd5b835162000186816200014a565b602085015190935062000199816200014a565b6040850151909250620001ac816200014a565b809150509250925092565b6119f980620001c76000396000f3fe608060405234801561001057600080fd5b50600436106101005760003560e01c80638fb3603711610097578063bf7e214f11610066578063bf7e214f1461021c578063c489a64914610237578063d1846d0c1461024a578063fb9321081461025d57600080fd5b80638fb36037146101c25780639150dbe3146101e357806395a2251f146101f6578063b642b5051461020957600080fd5b80637a9e5e4b116100d35780637a9e5e4b146101765780637ad3def214610189578063821123241461019c5780638b37d91e146101af57600080fd5b8063022c452214610105578063578bcf351461011a5780635c975abb146101405780635ef7efbd14610156575b600080fd5b610118610113366004611631565b610270565b005b61012d610128366004611661565b610289565b6040519081526020015b60405180910390f35b60145460ff166040519015158152602001610137565b610169610164366004611631565b6102b3565b6040516101379190611692565b610118610184366004611661565b6102e6565b610118610197366004611661565b610365565b6101186101aa3660046116fb565b610377565b6101186101bd366004611727565b61038a565b6101ca6103a5565b6040516001600160e01b03199091168152602001610137565b6101186101f1366004611727565b6103cb565b61012d610204366004611661565b6103e0565b6101186102173660046116fb565b61040c565b6012546040516001600160a01b039091168152602001610137565b610118610245366004611661565b61041f565b61012d610258366004611661565b610431565b61011861026b366004611773565b6104a2565b61027d335b6000366104bd565b610286816105bd565b50565b60008080610298600c85610627565b9150915081156102a9579392505050565b5060009392505050565b6040805160808101825260008082526020820181905291810182905260608101919091526102e08261064e565b92915050565b60125433906001600160a01b031681146103225760405162d1953b60e31b81526001600160a01b03821660048201526024015b60405180910390fd5b816001600160a01b03163b600003610358576040516361798f2f60e11b81526001600160a01b0383166004820152602401610319565b6103618261073f565b5050565b61036e33610275565b610286816107a0565b61038033610275565b61036182826107f6565b61039333610275565b61039f8484848461095f565b50505050565b601254600090600160a01b900460ff166103bf5750600090565b50638fb3603760e01b90565b6103d433610275565b61039f84848484610ac3565b60006103ea610c39565b6103f2610c63565b6103fb82610c89565b90506104076001601355565b919050565b61041533610275565b6103618282610dfe565b61042833610275565b61028681610eec565b60008080610440600c85610627565b9150915081610453575060009392505050565b60006103e86004548361046691906117b3565b61047091906117e0565b905081811161048457506000949350505050565b61048f600f86610f42565b61049990826117f4565b95945050505050565b6104aa610c63565b6104b333610275565b6103618282610f5e565b6000806104f36104d56012546001600160a01b031690565b86306104e560046000898b611807565b6104ee91611831565b610ffb565b91509150816105b65763ffffffff811615610593576012805460ff60a01b198116600160a01b17909155604051634a63ebf760e11b81526001600160a01b03909116906394c7d7ee9061054e90889088908890600401611861565b600060405180830381600087803b15801561056857600080fd5b505af115801561057c573d6000803e3d6000fd5b50506012805460ff60a01b19169055506105b69050565b60405162d1953b60e31b81526001600160a01b0386166004820152602401610319565b5050505050565b6105c860068261111c565b6105e857604051634fad6d5760e01b815260048101829052602401610319565b6105f3600682611128565b5060405181907f20c83b576bdf59e63a6c446459ff1f29074382dde0ddb78fd48dc4465dbaaf5690600090a2610286611134565b600080808061063f866001600160a01b03871661132a565b909450925050505b9250929050565b60408051608081018252600080825260208201819052918101829052606081019190915261067d60068361111c565b61069d57604051634fad6d5760e01b815260048101839052602401610319565b60056106aa600684611364565b815481106106ba576106ba6118a0565b9060005260206000209060020201604051806080016040529081600082015481526020016001820160009054906101000a900460ff1660028111156107015761070161167c565b60028111156107125761071261167c565b81526001919091015461ffff61010082048116602084015263010000009091041660409091015292915050565b6012805473ffffffffffffffffffffffffffffffffffffffff19166001600160a01b0383169081179091556040519081527f2f658b440c35314f52658ea8a740e05b284cdc84dc9ae01e891f21b8933e7cad9060200160405180910390a150565b6001600160a01b0381166107c757604051632bb8410160e11b815260040160405180910390fd5b6000805473ffffffffffffffffffffffffffffffffffffffff19166001600160a01b0392909216919091179055565b61080160068361111c565b61082157604051634fad6d5760e01b815260048101839052602401610319565b6103e88161ffff16111561085557604051635d79c18b60e11b81526004810183905261ffff82166024820152604401610319565b6000610862600684611364565b9050600060058281548110610879576108796118a0565b60009182526020909120600290910201600101546108a090610100900461ffff16846118b6565b61ffff1690506103e88111156108b557506103e85b80600583815481106108c9576108c96118a0565b906000526020600020906002020160010160016101000a81548161ffff021916908361ffff160217905550837fa2b58ca2f91f3e805bf429ca1443b0e3ff24cc1a6e8caf970daf7425ab59933060058481548110610929576109296118a0565b6000918252602091829020600291909102016001015460405161010090910461ffff1681520160405180910390a261039f611134565b61096a60068561111c565b1561098b576040516312f0927560e31b815260048101859052602401610319565b600580546040805160808101909152858152909190602081018560028111156109b6576109b661167c565b81526000602080830182905261ffff87166040909301929092528354600181810186559482529082902083516002928302909101908155918301518285018054949593949193909260ff19909216918490811115610a1657610a1661167c565b021790555060408201516001909101805460609093015161ffff90811663010000000264ffff0000001991909316610100021664ffffffff001990931692909217179055610a6660068683611370565b50610a6f611134565b826002811115610a8157610a8161167c565b60405161ffff84168152859087907f88a1f4e4f05480d6c02b094c7a6ca408cb709bb404912789ecfa294df6ab74dd9060200160405180910390a45050505050565b610ace60068561111c565b610aee57604051634fad6d5760e01b815260048101859052602401610319565b6103e88161ffff161115610b2257604051633834284f60e01b81526004810185905261ffff82166024820152604401610319565b6000610b2f600686611364565b90508360058281548110610b4557610b456118a0565b9060005260206000209060020201600001819055508260058281548110610b6e57610b6e6118a0565b906000526020600020906002020160010160006101000a81548160ff02191690836002811115610ba057610ba061167c565b02179055508160058281548110610bb957610bb96118a0565b906000526020600020906002020160010160036101000a81548161ffff021916908361ffff160217905550826002811115610bf657610bf661167c565b60405161ffff84168152859087907f166e93bf2d7b473996e13920a1b918f4d784824af5c39cbe5febf29b04d4ed199060200160405180910390a46105b6611134565b600260135403610c5c57604051633ee5aeb560e01b815260040160405180910390fd5b6002601355565b60145460ff1615610c875760405163d93c066560e01b815260040160405180910390fd5b565b60008080610c98600c85610627565b9150915081610cba57604051632cee884160e21b815260040160405180910390fd5b60006103e860045483610ccd91906117b3565b610cd791906117e0565b9050818111610cf957604051632cee884160e21b815260040160405180910390fd5b600080610d07600f88610627565b9092509050828215610d2057610d1d82856117f4565b90505b610d3788610d2e83856118d1565b600f9190611385565b5060005460405163a9059cbb60e01b81526001600160a01b038a81166004830152602482018490529091169063a9059cbb906044016020604051808303816000875af1158015610d8b573d6000803e3d6000fd5b505050506040513d601f19601f82011682018060405250810190610daf91906118f4565b50876001600160a01b03167f222838db2794d11532d940e8dec38ae307ed0b63cd97c233322e221f998767a682604051610deb91815260200190565b60405180910390a2979650505050505050565b610e0960068361111c565b610e2957604051634fad6d5760e01b815260048101839052602401610319565b6103e88161ffff161115610e5d57604051635d79c18b60e11b81526004810183905261ffff82166024820152604401610319565b6000610e6a600684611364565b90508160058281548110610e8057610e806118a0565b600091825260209182902060029190910201600101805462ffff00191661010061ffff94851602179055604051918416825284917fa2b58ca2f91f3e805bf429ca1443b0e3ff24cc1a6e8caf970daf7425ab599330910160405180910390a2610ee7611134565b505050565b6001600160a01b038116610f135760405163e0cb7ff560e01b815260040160405180910390fd5b6001805473ffffffffffffffffffffffffffffffffffffffff19166001600160a01b0392909216919091179055565b6000610f57836001600160a01b03841661139b565b9392505050565b80600254610f6c91906118d1565b600255600080610f7d600c85610627565b915091508115610fa457610f9e84610f9585846118d1565b600c9190611385565b50610fb2565b610fb0600c8585611385565b505b836001600160a01b03167fc1d32ad5cca423e7dda2123dbf8c482f8e77d00b631c06e903a47f2cec1334df84604051610fed91815260200190565b60405180910390a250505050565b6040516001600160a01b03848116602483015283811660448301526001600160e01b03198316606483015260009182918291829189169060840160408051601f198184030181529181526020820180517bffffffffffffffffffffffffffffffffffffffffffffffffffffffff1663b700961360e01b1790525161107f919061190f565b600060405180830381855afa9150503d80600081146110ba576040519150601f19603f3d011682016040523d82523d6000602084013e6110bf565b606091505b509150915081156111115760408151106110f157808060200190518101906110e7919061193e565b9094509250611111565b6020815110611111578080602001905181019061110e91906118f4565b93505b505094509492505050565b6000610f5783836113e2565b6000610f5783836113ee565b6000611140600661140b565b9050600080805b838110156113225761115a600682611416565b92506001905060058381548110611173576111736118a0565b600091825260209091206002918202016001015460ff169081111561119a5761119a61167c565b1480156111ca5750600582815481106111b5576111b56118a0565b90600052602060002090600202016000015442105b611310576002600583815481106111e3576111e36118a0565b600091825260209091206002918202016001015460ff169081111561120a5761120a61167c565b14801561123a575060058281548110611225576112256118a0565b90600052602060002090600202016000015442115b156112825760058281548110611252576112526118a0565b600091825260209091206002909102016001015461127b906301000000900461ffff16846118d1565b9250611310565b6103e860058381548110611298576112986118a0565b906000526020600020906002020160010160039054906101000a900461ffff16600584815481106112cb576112cb6118a0565b906000526020600020906002020160010160019054906101000a900461ffff166112f5919061197e565b6112ff919061199c565b61130d9061ffff16846118d1565b92505b8061131a816119bd565b915050611147565b505060045550565b60008181526002830160205260408120548190806113595761134c85856113e2565b9250600091506106479050565b600192509050610647565b6000610f57838361139b565b600061137d848484611425565b949350505050565b600061137d846001600160a01b03851684611425565b6000818152600283016020526040812054801580156113c157506113bf84846113e2565b155b15610f575760405163015ab34360e11b815260048101849052602401610319565b6000610f578383611442565b60008181526002830160205260408120819055610f57838361145a565b60006102e082611466565b600080808061063f8686611471565b6000828152600284016020526040812082905561137d848461149c565b60008181526001830160205260408120541515610f57565b6000610f5783836114a8565b60006102e0826115a2565b6000808061147f85856115ac565b600081815260029690960160205260409095205494959350505050565b6000610f5783836115b8565b600081815260018301602052604081205480156115915760006114cc6001836117f4565b85549091506000906114e0906001906117f4565b9050808214611545576000866000018281548110611500576115006118a0565b9060005260206000200154905080876000018481548110611523576115236118a0565b6000918252602080832090910192909255918252600188019052604090208390555b8554869080611556576115566119d6565b6001900381819060005260206000200160009055905585600101600086815260200190815260200160002060009055600193505050506102e0565b60009150506102e0565b5092915050565b60006102e0825490565b6000610f578383611607565b60008181526001830160205260408120546115ff575081546001818101845560008481526020808220909301849055845484825282860190935260409020919091556102e0565b5060006102e0565b600082600001828154811061161e5761161e6118a0565b9060005260206000200154905092915050565b60006020828403121561164357600080fd5b5035919050565b80356001600160a01b038116811461040757600080fd5b60006020828403121561167357600080fd5b610f578261164a565b634e487b7160e01b600052602160045260246000fd5b8151815260208201516080820190600381106116be57634e487b7160e01b600052602160045260246000fd5b80602084015250604083015161ffff8082166040850152806060860151166060850152505092915050565b803561ffff8116811461040757600080fd5b6000806040838503121561170e57600080fd5b8235915061171e602084016116e9565b90509250929050565b6000806000806080858703121561173d57600080fd5b843593506020850135925060408501356003811061175a57600080fd5b9150611768606086016116e9565b905092959194509250565b6000806040838503121561178657600080fd5b61178f8361164a565b946020939093013593505050565b634e487b7160e01b600052601160045260246000fd5b80820281158282048414176102e0576102e061179d565b634e487b7160e01b600052601260045260246000fd5b6000826117ef576117ef6117ca565b500490565b818103818111156102e0576102e061179d565b6000808585111561181757600080fd5b8386111561182457600080fd5b5050820193919092039150565b6001600160e01b031981358181169160048510156118595780818660040360031b1b83161692505b505092915050565b6001600160a01b038416815260406020820152816040820152818360608301376000818301606090810191909152601f909201601f1916010192915050565b634e487b7160e01b600052603260045260246000fd5b61ffff81811683821601908082111561159b5761159b61179d565b808201808211156102e0576102e061179d565b8051801515811461040757600080fd5b60006020828403121561190657600080fd5b610f57826118e4565b6000825160005b818110156119305760208186018101518583015201611916565b506000920191825250919050565b6000806040838503121561195157600080fd5b61195a836118e4565b9150602083015163ffffffff8116811461197357600080fd5b809150509250929050565b61ffff8181168382160280821691908281146118595761185961179d565b600061ffff808416806119b1576119b16117ca565b92169190910492915050565b6000600182016119cf576119cf61179d565b5060010190565b634e487b7160e01b600052603160045260246000fdfea164736f6c6343000814000a",
  "linkReferences": {},
  "deployedLinkReferences": {}
}