{
  "_format": "hh-sol-artifact-1",
  "contractName": "CXBTokenAirdrop",
  "sourceName": "contracts/utils/CXBTokenAirdrop.sol",
  "abi": [
    {
      "inputs": [
        {
          "internalType": "contract CXBToken",
          "name": "_token",
          "type": "address"
        },
        {
          "internalType": "contract CXBTokenVesting",
          "name": "_vesting",
          "type": "address"
        },
        {
          "internalType": "address",
          "name": "initialAuthority",
          "type": "address"
        },
        {
          "internalType": "uint256",
          "name": "_amount",
          "type": "uint256"
        },
        {
          "internalType": "bytes32",
          "name": "_root",
          "type": "bytes32"
        }
      ],
      "stateMutability": "nonpayable",
      "type": "constructor"
    },
    {
      "inputs": [
        {
          "internalType": "address",
          "name": "authority",
          "type": "address"
        }
      ],
      "name": "AccessManagedInvalidAuthority",
      "type": "error"
    },
    {
      "inputs": [
        {
          "internalType": "address",
          "name": "caller",
          "type": "address"
        },
        {
          "internalType": "uint32",
          "name": "delay",
          "type": "uint32"
        }
      ],
      "name": "AccessManagedRequiredDelay",
      "type": "error"
    },
    {
      "inputs": [
        {
          "internalType": "address",
          "name": "caller",
          "type": "address"
        }
      ],
      "name": "AccessManagedUnauthorized",
      "type": "error"
    },
    {
      "inputs": [
        {
          "internalType": "address",
          "name": "target",
          "type": "address"
        }
      ],
      "name": "CXBTokenAirdropAlreadyRedeemed",
      "type": "error"
    },
    {
      "inputs": [],
      "name": "CXBTokenAirdropEmptyToken",
      "type": "error"
    },
    {
      "inputs": [
        {
          "internalType": "address",
          "name": "target",
          "type": "address"
        },
        {
          "internalType": "uint256",
          "name": "amount",
          "type": "uint256"
        },
        {
          "internalType": "bytes32[]",
          "name": "proof",
          "type": "bytes32[]"
        }
      ],
      "name": "CXBTokenAirdropWrongPath",
      "type": "error"
    },
    {
      "inputs": [],
      "name": "EnforcedPause",
      "type": "error"
    },
    {
      "inputs": [],
      "name": "ExpectedPause",
      "type": "error"
    },
    {
      "inputs": [],
      "name": "ReentrancyGuardReentrantCall",
      "type": "error"
    },
    {
      "anonymous": false,
      "inputs": [
        {
          "indexed": false,
          "internalType": "address",
          "name": "authority",
          "type": "address"
        }
      ],
      "name": "AuthorityUpdated",
      "type": "event"
    },
    {
      "anonymous": false,
      "inputs": [
        {
          "indexed": false,
          "internalType": "address",
          "name": "account",
          "type": "address"
        }
      ],
      "name": "Paused",
      "type": "event"
    },
    {
      "anonymous": false,
      "inputs": [
        {
          "indexed": true,
          "internalType": "address",
          "name": "account",
          "type": "address"
        },
        {
          "indexed": false,
          "internalType": "uint256",
          "name": "amount",
          "type": "uint256"
        }
      ],
      "name": "Redeem",
      "type": "event"
    },
    {
      "anonymous": false,
      "inputs": [
        {
          "indexed": false,
          "internalType": "address",
          "name": "account",
          "type": "address"
        }
      ],
      "name": "Unpaused",
      "type": "event"
    },
    {
      "anonymous": false,
      "inputs": [
        {
          "indexed": true,
          "internalType": "address",
          "name": "account",
          "type": "address"
        },
        {
          "indexed": false,
          "internalType": "uint256",
          "name": "amount",
          "type": "uint256"
        }
      ],
      "name": "Vesting",
      "type": "event"
    },
    {
      "inputs": [],
      "name": "authority",
      "outputs": [
        {
          "internalType": "address",
          "name": "",
          "type": "address"
        }
      ],
      "stateMutability": "view",
      "type": "function"
    },
    {
      "inputs": [
        {
          "internalType": "address payable",
          "name": "_to",
          "type": "address"
        }
      ],
      "name": "cancelAirDrop",
      "outputs": [],
      "stateMutability": "nonpayable",
      "type": "function"
    },
    {
      "inputs": [],
      "name": "isConsumingScheduledOp",
      "outputs": [
        {
          "internalType": "bytes4",
          "name": "",
          "type": "bytes4"
        }
      ],
      "stateMutability": "view",
      "type": "function"
    },
    {
      "inputs": [],
      "name": "paused",
      "outputs": [
        {
          "internalType": "bool",
          "name": "",
          "type": "bool"
        }
      ],
      "stateMutability": "view",
      "type": "function"
    },
    {
      "inputs": [
        {
          "internalType": "bytes32[]",
          "name": "proof",
          "type": "bytes32[]"
        }
      ],
      "name": "redeem",
      "outputs": [],
      "stateMutability": "nonpayable",
      "type": "function"
    },
    {
      "inputs": [],
      "name": "redeemAmount",
      "outputs": [
        {
          "internalType": "uint256",
          "name": "",
          "type": "uint256"
        }
      ],
      "stateMutability": "view",
      "type": "function"
    },
    {
      "inputs": [],
      "name": "root",
      "outputs": [
        {
          "internalType": "bytes32",
          "name": "",
          "type": "bytes32"
        }
      ],
      "stateMutability": "view",
      "type": "function"
    },
    {
      "inputs": [
        {
          "internalType": "address",
          "name": "newAuthority",
          "type": "address"
        }
      ],
      "name": "setAuthority",
      "outputs": [],
      "stateMutability": "nonpayable",
      "type": "function"
    },
    {
      "inputs": [
        {
          "internalType": "bytes32",
          "name": "_root",
          "type": "bytes32"
        }
      ],
      "name": "updateMerkleRoot",
      "outputs": [],
      "stateMutability": "nonpayable",
      "type": "function"
    },
    {
      "inputs": [
        {
          "internalType": "uint256",
          "name": "_amount",
          "type": "uint256"
        }
      ],
      "name": "updateRedeemAmount",
      "outputs": [],
      "stateMutability": "nonpayable",
      "type": "function"
    },
    {
      "inputs": [
        {
          "internalType": "contract CXBToken",
          "name": "_token",
          "type": "address"
        }
      ],
      "name": "updateToken",
      "outputs": [],
      "stateMutability": "nonpayable",
      "type": "function"
    },
    {
      "inputs": [
        {
          "internalType": "contract CXBTokenVesting",
          "name": "_vesting",
          "type": "address"
        }
      ],
      "name": "updateVesting",
      "outputs": [],
      "stateMutability": "nonpayable",
      "type": "function"
    }
  ],
  "bytecode": "0x608060405234801561001057600080fd5b50604051610f1d380380610f1d83398101604081905261002f91610117565b82610039816100ab565b50600180556002805460ff191690556001600160a01b03851661006f576040516321961ff560e11b815260040160405180910390fd5b600355600480546001600160a01b039586166001600160a01b031991821617909155600580549490951693169290921790925560065550610175565b600080546001600160a01b0319166001600160a01b0383169081179091556040519081527f2f658b440c35314f52658ea8a740e05b284cdc84dc9ae01e891f21b8933e7cad9060200160405180910390a150565b6001600160a01b038116811461011457600080fd5b50565b600080600080600060a0868803121561012f57600080fd5b855161013a816100ff565b602087015190955061014b816100ff565b604087015190945061015c816100ff565b6060870151608090970151959894975095949392505050565b610d99806101846000396000f3fe608060405234801561001057600080fd5b50600436106100b45760003560e01c80637a9e5e4b116100715780637a9e5e4b146101395780637ad3def21461014c5780638fb360371461015f578063bf7e214f14610180578063e42144711461019b578063ebf0c717146101ae57600080fd5b80630373c909146100b95780633fc01a0f146100d55780634783f0ef146100ea578063524c2a04146100fd5780635c975abb14610110578063635a0bee14610126575b600080fd5b6100c260065481565b6040519081526020015b60405180910390f35b6100e86100e3366004610a58565b6101b7565b005b6100e86100f8366004610a58565b6101d1565b6100e861010b366004610a87565b6101e7565b60025460ff1660405190151581526020016100cc565b6100e8610134366004610b5a565b6104ba565b6100e8610147366004610b5a565b6105c5565b6100e861015a366004610b5a565b61063f565b610167610699565b6040516001600160e01b031990911681526020016100cc565b6000546040516001600160a01b0390911681526020016100cc565b6100e86101a9366004610b5a565b6106bd565b6100c260035481565b6101c4335b6000366106f0565b6101cc6107f0565b600655565b6101da336101bc565b6101e26107f0565b600355565b6101ef610815565b6101f761083f565b3360009081526007602052604090205460ff161561022f57604051634d4b079360e01b81523360048201526024015b60405180910390fd5b600654604080513360208201529081019190915260009060600160408051601f198184030181528282528051602091820120908301520160405160208183030381529060405280519060200120905061028b8260035483610863565b6102af57600654604051630bfcdfb560e21b81526102269133918590600401610b77565b336000908152600760205260409020805460ff191660011790556005546001600160a01b031661038f576004805460065460405163a9059cbb60e01b8152339381019390935260248301526001600160a01b03169063a9059cbb906044016020604051808303816000875af115801561032c573d6000803e3d6000fd5b505050506040513d601f19601f820116820180604052508101906103509190610be9565b5060065460405190815233907f222838db2794d11532d940e8dec38ae307ed0b63cd97c233322e221f998767a69060200160405180910390a2506104ae565b6004805460055460065460405163a9059cbb60e01b81526001600160a01b03928316948101949094526024840152169063a9059cbb906044016020604051808303816000875af11580156103e7573d6000803e3d6000fd5b505050506040513d601f19601f8201168201806040525081019061040b9190610be9565b50600554600654604051631f72642160e31b815233600482015260248101919091526001600160a01b039091169063fb93210890604401600060405180830381600087803b15801561045c57600080fd5b505af1158015610470573d6000803e3d6000fd5b50506006546040519081523392507fd8c062e1121a4d8261df9c04930989855139a33297e0f1598cf7779aa5695b81915060200160405180910390a2505b6104b760018055565b50565b6104c3336101bc565b6104cb6107f0565b600480546040516370a0823160e01b815230928101929092526000916001600160a01b03909116906370a0823190602401602060405180830381865afa158015610519573d6000803e3d6000fd5b505050506040513d601f19601f8201168201806040525081019061053d9190610c04565b6004805460405163a9059cbb60e01b81526001600160a01b038681169382019390935260248101849052929350169063a9059cbb906044016020604051808303816000875af1158015610594573d6000803e3d6000fd5b505050506040513d601f19601f820116820180604052508101906105b89190610be9565b50816001600160a01b0316ff5b60005433906001600160a01b031681146105fc5760405162d1953b60e31b81526001600160a01b0382166004820152602401610226565b816001600160a01b03163b600003610632576040516361798f2f60e11b81526001600160a01b0383166004820152602401610226565b61063b82610879565b5050565b610648336101bc565b6106506107f0565b6001600160a01b038116610677576040516321961ff560e11b815260040160405180910390fd5b600480546001600160a01b0319166001600160a01b0392909216919091179055565b60008054600160a01b900460ff166106b15750600090565b50638fb3603760e01b90565b6106c6336101bc565b6106ce6107f0565b600580546001600160a01b0319166001600160a01b0392909216919091179055565b6000806107266107086000546001600160a01b031690565b863061071860046000898b610c1d565b61072191610c47565b6108cd565b91509150816107e95763ffffffff8116156107c6576000805460ff60a01b198116600160a01b17909155604051634a63ebf760e11b81526001600160a01b03909116906394c7d7ee9061078190889088908890600401610c77565b600060405180830381600087803b15801561079b57600080fd5b505af11580156107af573d6000803e3d6000fd5b50506000805460ff60a01b19169055506107e99050565b60405162d1953b60e31b81526001600160a01b0386166004820152602401610226565b5050505050565b60025460ff1661081357604051638dfc202b60e01b815260040160405180910390fd5b565b60026001540361083857604051633ee5aeb560e01b815260040160405180910390fd5b6002600155565b60025460ff16156108135760405163d93c066560e01b815260040160405180910390fd5b60008261087085846109d9565b14949350505050565b600080546001600160a01b0319166001600160a01b0383169081179091556040519081527f2f658b440c35314f52658ea8a740e05b284cdc84dc9ae01e891f21b8933e7cad9060200160405180910390a150565b6040516001600160a01b03848116602483015283811660448301526001600160e01b03198316606483015260009182918291829189169060840160408051601f198184030181529181526020820180516001600160e01b031663b700961360e01b1790525161093c9190610cb7565b600060405180830381855afa9150503d8060008114610977576040519150601f19603f3d011682016040523d82523d6000602084013e61097c565b606091505b509150915081156109ce5760408151106109ae57808060200190518101906109a49190610ce6565b90945092506109ce565b60208151106109ce57808060200190518101906109cb9190610be9565b93505b505094509492505050565b600081815b8451811015610a1e57610a0a828683815181106109fd576109fd610d26565b6020026020010151610a26565b915080610a1681610d3c565b9150506109de565b509392505050565b6000818310610a42576000828152602084905260409020610a51565b60008381526020839052604090205b9392505050565b600060208284031215610a6a57600080fd5b5035919050565b634e487b7160e01b600052604160045260246000fd5b60006020808385031215610a9a57600080fd5b823567ffffffffffffffff80821115610ab257600080fd5b818501915085601f830112610ac657600080fd5b813581811115610ad857610ad8610a71565b8060051b604051601f19603f83011681018181108582111715610afd57610afd610a71565b604052918252848201925083810185019188831115610b1b57600080fd5b938501935b82851015610b3957843584529385019392850192610b20565b98975050505050505050565b6001600160a01b03811681146104b757600080fd5b600060208284031215610b6c57600080fd5b8135610a5181610b45565b6001600160a01b038416815260208082018490526060604083018190528351908301819052600091848101916080850190845b81811015610bc657845183529383019391830191600101610baa565b509098975050505050505050565b80518015158114610be457600080fd5b919050565b600060208284031215610bfb57600080fd5b610a5182610bd4565b600060208284031215610c1657600080fd5b5051919050565b60008085851115610c2d57600080fd5b83861115610c3a57600080fd5b5050820193919092039150565b6001600160e01b03198135818116916004851015610c6f5780818660040360031b1b83161692505b505092915050565b6001600160a01b03841681526040602082018190528101829052818360608301376000818301606090810191909152601f909201601f1916010192915050565b6000825160005b81811015610cd85760208186018101518583015201610cbe565b506000920191825250919050565b60008060408385031215610cf957600080fd5b610d0283610bd4565b9150602083015163ffffffff81168114610d1b57600080fd5b809150509250929050565b634e487b7160e01b600052603260045260246000fd5b600060018201610d5c57634e487b7160e01b600052601160045260246000fd5b506001019056fea26469706673582212209480d84d78f111241359fd82daff0ecff1ea7b50f4291adb1e25611606f5e07f64736f6c63430008140033",
  "linkReferences": {},
  "deployedLinkReferences": {}
}